:020000040000FA
:1000000090080020D9000000BF0E00001905000074
:1000100000000000000000000000000000000000E0
:10002000000000000000000000000000DF130000DE
:10003000000000000000000039110000E113000082
:100040004F140000BD0E0000D91300004D03000046
:10005000DD11000075030000770300007903000044
:100060007B03000045030000470300004903000034
:10007000B1010000710200004B1400004D1400009B
:10008000B1040000B3040000B5040000B704000090
:100090003F03000041030000430300004905000046
:1000A0004B050000DB130000DD13000045140000C9
:1000B00047140000491400003D0300004B030000FA
:1000C0000448854600F062F8004800471917000010
:1000D000C046C0469008002009480A4A002100A1F5
:1000E000814200D902440848026008488047084815
:1000F0000047FEE7FEE7FEE7FEE7FEE7FEE700005B
:10010000000000200000000008ED00E009140000DD
:10011000C100000030B50B4601460020202201241A
:1001200009E00D46D5409D4205D31D469540491B2B
:100130002546954040191546521E002DF1DC30BD74
:1001400070B500242546002801DA01244042002928
:1001500001DA01254942FFF7DDFFAC4200D0404201
:10016000002C00D0494270BD03460B439B0703D0CF
:1001700009E008C9121F08C0042AFAD203E00B786C
:100180000370401C491C521EF9D27047064C0125D1
:10019000064E05E0E36807CC2B430C3C984710342F
:1001A000B442F7D3FFF790FFBC530000DC530000CC
:1001B0007047000000B589B01B48406B80210843A0
:1001C0001949486372B60D20002809DB00BF00BF43
:1001D000C206D20E01219140144A116000BF00BF37
:1001E00000BF62B6012168460173002005904803F4
:1001F0000290002000900190002108A8417030205A
:1002000004900B4806900020079008A801706846EB
:1002100000F060F80121080700F04CF8012000F020
:100220000FF809B000BD00000000014000E100E04F
:1002300028230000C143014A51617047002C01404E
:100240000449C96849084900C207D20F1143014A4D
:10025000D1607047002C0140014604480069084005
:10026000002801D0012070470020FCE7002C01404D
:1002700010B501200004FFF7EFFF002814D0012083
:100280000004FFF7D7FF09480068401C07490860D1
:1002900008460068FF21F531884205D30020034954
:1002A000086001200249086210BD0000040000201F
:1002B00040040048002905D0054AD2680243044B97
:1002C000DA6004E0024AD2688243014BDA60704788
:1002D000002C0140426801681143026911438268A1
:1002E0001143027B002A01D0802200E0002211434A
:1002F000426911430F4AD2680F4B1A4011430D4A0D
:10030000D160816911602122125CC169002A02D08A
:10031000FF22013200E0002211432022125C002A59
:1003200002D00122520200E000221143014A51632F
:1003300070470000002C01400B8FFFF7704770479B
:1003400070477047704770477047704770470000AC
:10035000002804D00822024310231A4300E00022A0
:100360001146024A0A43024B5A60704700005A5A2B
:100370000020024070477047704770471FB509481A
:10038000006B202108430749086380200290202049
:10039000019001200090044803906946034800F052
:1003A00007F81FBD00000140FFFF000000040048E7
:1003B0004A68002A04D1C2690B681A43C26174E01A
:1003C000C2690B689A43C26110234A681A40102A16
:1003D0004ED102680B681A4302604A68112A07D19D
:1003E00002690B681A430261C2680B689A43C260D3
:1003F0004A68122A07D1C2680B681A43C2600269B0
:100400000B689A430261426A0B689A434262826AAD
:100410000B689A438262C26A0B689A43C262026B9B
:100420000B689A43026381238A681A40812A03D1A8
:10043000426A0B681A43426282238A681A40822AFF
:1004400003D1826A0B681A43826284238A681A4045
:10045000842A03D1C26A0B681A43C26288238A685D
:100460001A40882A21D1026B0B681A4302631CE0F0
:1004700002680B689A4302604A68202A04D14268E5
:100480000B689A43426003E042680B681A4342607B
:10049000064BCA689A4204D182680B681A4382608C
:1004A00003E082680B689A4382607047FFFF000098
:1004B0007047704770477047F8B5034608462038C4
:1004C000C5B2168957897E433046F617760F36181F
:1004D000F410284660430090002006E0D768009E94
:1004E0003618BE5D1E54461CB0B2A042F6D30020A2
:1004F000F8BD000070B504460D4602A000F0BCFF38
:10050000002070BDB5B1C7B0D7D6CCE5B2BBD6A779
:10051000B3D6D6D0CEC40A0000BFFEE70848806834
:100520000121C90288430649886008468068C914C9
:10053000884340180249886000200249886070475B
:10054000400001400054004070477047002905D02A
:10055000826804239A43121D826003E082680423A8
:100560009A4382607047002905D002685208520001
:10057000521C026003E00268520852000260704799
:1005800081680822914381607047002905D0826804
:1005900040239A434032826003E0826840239A43BA
:1005A00082607047002905D0826852085200521CB0
:1005B000826003E08268520852008260704700291E
:1005C00012D04269F82A09D0826820239A43203247
:1005D0008260826808239A43826009E0826820234F
:1005E0009A432032826003E0826820239A4382602B
:1005F0007047002905D0826810239A431032826028
:1006000003E0826810239A4382607047014688683D
:1006100008221040C008704701464869C0B27047C0
:10062000FFB516461C46002501210098FFF7C7FFBD
:1006300073E000BF0098FFF7E9FF0028FAD00098A8
:10064000FFF7EAFF074638467907490F002958D1D6
:10065000C010030000F034FF0C55071B1155165550
:1006600047254C2C3B5500210098FFF7A8FF00229E
:10067000A021009800F0CCFB48E00199009800F020
:10068000D0FB43E001210098FFF799FF3EE00021F5
:100690000098FFF794FF0122A021009800F0B8FB1A
:1006A00034E0012C03D901210098FFF74FFF2DE022
:1006B000009800F0A9FB29466A1CD5B27054601E50
:1006C000A84203D100210098FFF740FF1EE00098E8
:1006D00000F09AFB29466A1CD5B27054012100989B
:1006E000FFF787FF12E001210098FFF768FF0DE098
:1006F00001210098FFF77DFF01210098FFF75FFFC0
:1007000004E001210098FFF75AFF00BF00BF0098E6
:10071000FFF736FFA54200D100E08AE700BFFFBD2A
:10072000FFB515461E46002701210098FFF747FF39
:100730004AE000BF0098FFF769FF0028FAD0009850
:10074000FFF76AFF04462046282C1BD006DC082849
:1007500009D0182811D0202827D11BE030281FD01D
:10076000382822D117E000210098FFF728FF002247
:10077000A021009800F04CFB18E00199009800F0CF
:1007800050FB13E038467A1CD7B2295C009800F081
:1007900048FB0BE000BF01210098FFF710FF05E0C8
:1007A00001210098FFF725FF00E000BF00BFB7421E
:1007B00007D901210098FFF71CFF0098FFF7E0FE22
:1007C00003E00098FFF7DCFEB3E700BFFFBDFFB515
:1007D00081B015461E46002701210198FFF7EFFE64
:1007E0004AE000BF0198FFF711FF0028FAD00198F6
:1007F000FFF712FF04462046282C1BD006DC0828F1
:1008000009D0182811D0202827D11BE030281FD06C
:10081000382822D117E000210198FFF7D0FE0022EE
:100820007821019800F0F4FA18E00299019800F09C
:10083000F8FA13E038467A1CD7B2295C019800F028
:10084000F0FA0BE000BF01210198FFF7B8FE05E0C8
:1008500001210198FFF7CDFE00E000BF00BFB742C5
:1008600007D901210198FFF7C4FE0198FFF788FE20
:1008700003E00198FFF784FEB3E700BF05B0F0BDC9
:1008800030B505460C466178284600F0CCFA217850
:100890002846FFF768FEA1792846FFF783FEE17935
:1008A0002846FFF753FE6078092803DC012128461B
:1008B000FFF778FE30BD000070B5064600240CE05E
:1008C000002506E00020E1010C4A89184855681C03
:1008D00085B2802DF6DB601C84B2082CF0DB002092
:1008E00007490870074908700749088007490880C8
:1008F000012E01D100F054FA70BD00008C000020E0
:1009000010000020110000200C0000200E0000202C
:10091000F8B50B46CD176D0FED186D052A0ECD17E6
:100920006D0FED18ED10ED004D1BECB20123A3404F
:10093000DBB20093264B00255D5F5319DB01254D8B
:100940005B19254D0026AE5F85195B5DDB43204DAD
:100950000026AE5F9519ED011E4EAD191E4E002703
:10096000F75FC619AB551A4B00255D5F5319DB01C4
:10097000184D5B19184D0026AE5F85195B5D009D13
:100980002B43134D0026AE5F9519ED01114EAD19A5
:10099000114E0027F75FC619AB550D4B00255D5F63
:1009A0005319DB010B4D5B190B4D0026AE5F85190A
:1009B0005B5DDB43064D0026AE5F9519ED01054EEC
:1009C000AD19054E0027F75FC619AB55F8BD0000FD
:1009D0000E0000208C0000200C00002070B50346A3
:1009E000084606E00024DD01034EAD192C54441CDA
:1009F000E0B29042F6DB70BD8C000020F8B50A46EC
:100A0000CD176D0FAD186D052B0ECD176D0FAD18F1
:100A1000ED10ED004D1BECB20122A240D2B20092CB
:100A20000D4A0025555F5A19D2010C4D52190C4D33
:100A30000026AE5F8519525D009D2A43064D0026B3
:100A4000AE5F9D19ED01054EAD19054E0027F75F0C
:100A5000C619AA55F8BD00000E0000208C00002029
:100A60000C00002010B5C82000F0F6FDAE2000F00C
:100A7000EFFC402000F0ECFCB02000F0E9FCC820C6
:100A800000F0E6FC812000F0E3FCFF2000F0E0FC39
:100A9000A12000F0DDFCA62000F0DAFCA82000F088
:100AA000D7FC1F2000F0D4FCD32000F0D1FC0020A4
:100AB00000F0CEFCD52000F0CBFCF02000F0C8FC0C
:100AC000D92000F0C5FC222000F0C2FCDA2000F0A2
:100AD000BFFC022000F0BCFC202000F0B9FC00208C
:100AE00000F0B6FCDB2000F0B3FC492000F0B0FCC5
:100AF0008D2000F0ADFC142000F0AAFCAF2000F027
:100B0000A7FC10BD70B506460C461546022E1AD03D
:100B1000042E2DD0062E40D0082E53D12B4800880D
:100B2000001900B22949088008460021415E0029C9
:100B300008DB002D03D100202449088002E00020BA
:100B4000224908803EE021480088001B00B21F496E
:100B5000088008460021415E002908DC002D03D1F1
:100B600000201A49088002E000201849088029E086
:100B700017480088001900B215490880084600216E
:100B8000415E002908DB002D03D1002010490880B8
:100B900002E000200E49088014E00D480088001B88
:100BA00000B20B49088008460021415E002908DC9C
:100BB000002D03D100200649088002E000200449EE
:100BC000088000BF00BF00F0EBF870BD0E000020F1
:100BD0000C000020F7B584B004462749096849890C
:100BE000254A1268128951430846C917490F091846
:100BF0004905090E0191009401980390039800F0B3
:100C0000C5FD06461C48026830460699FFF754FCAD
:100C1000002529E0705D0290002715E080210298F0
:100C20000840002804D020460599FFF7E7FE03E0BE
:100C300020460599FFF76CFE02984006000E0290D0
:100C4000601CC4B2781CC7B2082FE7DB0098201ADA
:100C5000094909680989884204D1009C0598401C0B
:100C6000C0B20590681CC5B201988542D2DB3046FF
:100C700000F028FD07B0F0BD08000020F7B58AB0ED
:100C80000446019402A80C99FFF734FC002529E0E2
:100C9000680002A90F5C3F026800401C085C074323
:100CA000002612E00120C00330413840002804D063
:100CB00020460B99FFF7A2FE03E020460B99FFF7B1
:100CC00027FE601CC4B2701CC6B2102EEADB01986D
:100CD000201A102804D1019C0B98401CC0B20B9024
:100CE000681CC5B2102DD3DB0DB0F0BD37B514466E
:100CF0004EE0224601A9684600F0E2F8044620785A
:100D0000002800D147E020787F2822DA2278684640
:100D100001790078FFF75EFF20480068017A684695
:100D200000780818C1B200911C4800680089802131
:100D3000091A68460078814209DA002100911748B3
:100D40000068817A684600790818C1B20191641C74
:100D50001EE020787F281BDD2588280229124018F4
:100D600085B22A46684601790078FFF787FF684612
:100D700000781030C1B2009168460078702806DD16
:100D800000210091684600791030C1B20191A41C85
:100D900020780028ADD100BF3EBD00000800002033
:100DA00070B5212000F054FB002000F051FB7F20A3
:100DB00000F04EFB222000F04BFB002000F048FB2F
:100DC000072000F045FB002415E000250FE00B494B
:100DD00000228A5EA118C901094A8918094A00231C
:100DE000D35EEA18885C00F03DFB681CC5B2802D1C
:100DF000EDDB601CC4B2082CE7DB70BD0E000020E8
:100E00008C0000200C0000200146C868C0B270476A
:100E1000002A02D00123194301E0FE231940C160DA
:100E20007047C160704741607047000000B587B0EF
:100E30001E48806B0121C90208431C49886308468B
:100E4000006B2021084319490863194880690F2164
:100E50000906884303210906401815498861084698
:100E600080690001000903210907401810498861C1
:100E7000C0200390212004900E48069003A90C483E
:100E8000FFF796FA0121684601710821417100219E
:100E90008172C172FFF742FB01A90748FFF7F0FC1E
:100EA00001210548FFF771FB07B000BD00000140BC
:100EB00000040048FFFF00000054004070477047E6
:100EC000FEB504460D4616462AE13078082806D0BD
:100ED00009287CD00A2809D00D2806D161E02078A5
:100EE00094490968097A401A207017E1914800680E
:100EF000408908282CD010281DD018280ED0202872
:100F000032D12A780192D217530F019A9A18D2102F
:100F1000D01C21788022FFF761FD00BF2A78019262
:100F2000D217530F019A9A18D210901C2178802260
:100F3000FFF754FD00BF2A780192D217530F019A90
:100F40009A18D210501C21788022FFF747FD00BF6D
:100F50002A780192D217530F019A9A18D01021784B
:100F60008022FFF73BFD00BF00BF002020702878E3
:100F700070490968897A4018287028786D4909688D
:100F800049894022511A88420ADD002202210820A4
:100F9000FFF7B8FD287867490968897A401A2870F0
:100FA000BCE064480068408908282ED010281FD073
:100FB000182810D0202834D12A780192D217530F44
:100FC000019A9A18D210D01C2178802200E045E0C6
:100FD000FFF704FD00BF2A780192D217530F019A40
:100FE0009A18D210901C21788022FFF7F7FC00BFDE
:100FF0002A780192D217530F019A9A18D210501CD6
:1010000021788022FFF7EAFC00BF2A780192D217EC
:10101000530F019A9A18D01021788022FFF7DEFC36
:1010200000BF00BF00202070287842490968897AF3
:101030004018287028783F49096849894022511A88
:1010400088420ADD002202210820FFF75BFD287894
:1010500038490968897A401A28705FE0354A126871
:10106000128991002078FFF76BF832480068007A07
:101070008000401AC7B22F4800684089082838D03D
:10108000102825D0182812D0202842D12878019085
:10109000C017430F01981818C010C01C009020788A
:1010A000C019C2B221780098FFF798FC00BF2878D9
:1010B0000190C017430F01981818C010801C0090B1
:1010C0002078C019C2B221780098FFF787FC00BFD2
:1010D00028780190C017430F01981818C010401CC1
:1010E00000902078C019C2B221780098FFF776FCF2
:1010F00000BF28780190C017430F01981818C0103E
:1011000000902078C019C2B221780098FFF766FCE1
:1011100000BF00BF2078C019207000BF00BF761C40
:101120003078202803DA3078002800D0CDE6304629
:10113000FEBD0000080000207047000010B505202B
:1011400000F032F8002000F01FF8002000F048F80E
:1011500008220A49032000F053F80948006B0221D5
:101160000843074908630220FFF7F2F8022000F065
:10117000A1F8044800F02AF910BD000000127A001E
:10118000000001400090D00304490968044A11405E
:10119000044A89180143014A116070470000014068
:1011A0001FFF000000005A5AC10293225202128807
:1011B0001143084A916111464968074A1143054A9B
:1011C000516000BF034989690122D2031140914255
:1011D000F8D170470000014001005A5A70470000E2
:1011E00004490968044A1140044A89180143014A24
:1011F0001160704700000140E7FF000000005A5AEC
:10120000F0B58BB007460D461646002400200A9024
:101210000990254801460EC9C068079306920591BA
:1012200008901422204910316846FEF79DFF00BF48
:1012300008E0A00005A90858A84201D90A9403E0D3
:10124000601CC4B2042CF4D300BF2846704309903C
:10125000002409E0A000694609580998814201D993
:10126000099403E0601CC4B2052CF3D300BF0998B5
:101270004002072109030843310108430A99890004
:1012800008433843094988620846406808490843CA
:101290000649486000BF0548806A0121C90308402B
:1012A0008842F8D10BB0F0BD985300000000014017
:1012B00004005A5A70B504460C48006880B20C49C4
:1012C0004018C008C00020430849086000F012F828
:1012D000054600F07BF8054800684007400FA04233
:1012E00001D0012070BD0020FCE70000000001409B
:1012F00000005A5AF8B500250027002400260020D7
:1013000000902D48006847077F0F2B4880694004F4
:10131000040F2948806A8007800F00902648806A61
:10132000C005C60E3B0000F0CBF805040C130E10F0
:101330003400A000214A11582148FEF7EBFE054673
:101340002FE0204D2DE0204D2BE00125ED0328E07E
:101350000098002804D0012803D003280ED104E00F
:1013600000BF18483546454311E0A000134A115804
:101370001348FEF7CFFE7043054608E0A0000F4A71
:1013800011580F48FEF7C6FE7043054600BF00BF68
:1013900007E0A000094A11580948FEF7BBFE0546C0
:1013A00000BF00BF044800680006410F2846C8403F
:1013B00005462846F8BD00000000014058530000D3
:1013C000006CDC020024F400208000000149086069
:1013D000704700006C0000207047704770477047EE
:1013E00003480068034909784018014908607047BC
:1013F0006000002068000020014802490860704732
:1014000000127A006C00002000B5FFF7F5FF932171
:10141000490209884805400D09498969C90AC90274
:101420000143074A91619321490249888805800D4B
:101430001146096A890A89020143116200BD000050
:101440000000014070477047704770477047704711
:1014500001B501236A4600210148FFF7B8F908BD2C
:101460000054004001B501236A4640210148FFF7BE
:10147000AEF908BD005400400FB410B503A9044BE9
:10148000044A029800F03AF810BC08BC04B01847AF
:10149000B1160000700000200FB410B504A9074B6E
:1014A00002AA039800F02AF8044602A9002000F0DE
:1014B000CDF8204610BC08BC04B018474D160000FB
:1014C00030B47446641E2578641CAB4204D3635D5B
:1014D0005B00E31830BC18471D46F8E702E008C877
:1014E000121F08C1002AFAD170477047002001E09E
:1014F00001C1121F002AFBD170470000FFB58DB05B
:101500000446002506E025280AD0109A0F99904736
:10151000641C6D1C20780028F5D1284611B0F0BD60
:1015200000270121484A009700E00743641C237804
:101530000846203B98401042F7D120782E2817D13A
:10154000042007436078641C2A280CD10E98641C80
:1015500002C800910E900BE000990A2251433039E5
:101560004018641C00902078014630390929F3D9CD
:1015700020780028D1D0642808D0692806D07528A2
:101580001ED0109A0F9990476D1C5BE00A200E99AF
:10159000019001C90E91002802DA40422D2102E09B
:1015A000390504D52B216A461172012103E0F907A0
:1015B00004D02021F7E70BAE0B910DE00021FAE7F4
:1015C0000A200E99019001C90E91F7E70199FEF7E3
:1015D000A1FD3031761E31700028F7D103A8801BA1
:1015E00020300190780701D5009801E0012000909B
:1015F0000199884201DD401A00E000200027009098
:1016000006E002A8109AC05D0F9990476D1C7F1CE0
:101610000B988742F5DB04E0109A30200F99904731
:101620006D1C0099481E00900029F5DC05E030781B
:10163000109A761C0F9990476D1C0199481E0190D5
:101640000029F4DC641C65E7092801000A68531CC2
:101650000B6010707047000070B5054611481249C4
:101660004861002088610520086110E000200E49D3
:1016700088617D21C9000D480068FEF74BFD0121FE
:1016800009060C1A00BF08488069A042FBD828460A
:101690006D1E0028EAD10448006940084000024954
:1016A000086170BDFFFFFF0000E000E06C0000205B
:1016B00038B504466846047069460320ABBE204630
:1016C00038BD000010B5002823D0124B0022001FA7
:1016D000196803E0814203D80A4649680029F9D114
:1016E000002A0AD01368841A9C4204D10068181892
:1016F0001060104602E0506000E01860002907D03A
:1017000002680B1A934203D10B68D2180260496831
:10171000416010BD74000020FFF710FDFEF72EFEA3
:10172000FFF784FBFFF79EF9FEF744FD0123114A02
:1017300000211148FEF774FF0E4800780C300D4967
:10174000087001230A4600210B48FEF7E9FF09480B
:1017500002780AA10C48FFF79FFE0120FFF7ACF8C2
:10176000094A00210846FFF7C1FAFFF719FB00BF3D
:10177000FEE7000000000020005400405265616454
:10178000203A2564000000007C000020F0B50B30FA
:10179000C108C900144F0026144A0FE003688B42A9
:1017A0000BD38B4205D95C1A4318456830C3083BFC
:1017B00000E04368136002C004E0021D10680028C6
:1017C000ECD13046002803D13868002801D0002031
:1017D000F0BD064A06481060064A121AD208D20026
:1017E00044C001203860D7E7780000207400002052
:1017F000940400209006002000000000000000007B
:101800000000000000000000000000181818181860
:1018100018080008180000000000003424242400E8
:1018200000000000000000000000000016247F24DB
:1018300024247E2424000000000000083E6848683C
:101840001C1612127C10100000000061D296740861
:1018500010162949C6000000000000003C646438EE
:10186000724ACE467F0000000000001818181800C9
:101870000000000000000000000000040818103004
:101880003030301010180C04000000201008080C34
:101890000404040C08181020000000080A341C6A14
:1018A0000800000000000000000000000000181800
:1018B000187F181818000000000000000000000049
:1018C00000000018180830000000000000000000B0
:1018D000003C0000000000000000000000000000CC
:1018E00000000018180000000000000206040C08A8
:1018F0000810102020400000000000003C66424715
:101900005B7342663C000000000000001878480845
:10191000080808087E000000000000003C4606069B
:10192000040810207E000000000000007C06060471
:101930003C0202067C000000000000000C1C142485
:101940006444FF0404000000000000007E6060604A
:101950007E0202067C000000000000001E3060488D
:10196000764242623C000000000000007E02060455
:101970000C08181030000000000000003C624236E5
:101980001C6642423C000000000000003C664242EF
:10199000661A020478000000000000000000181819
:1019A00000000018180000000000000000001818D7
:1019B00000000018180830000000000000000418A3
:1019C0003060100C06000000000000000000000065
:1019D0007E007E00000000000000000000003018C3
:1019E00004060C1020000000000000301C06060653
:1019F00018100010100000000000001C224141DD02
:101A0000B5A5A5AF94C0403C00000000181C3424CC
:101A100026627E43C1000000000000007C46424672
:101A20007C4242427C000000000000001E2040403A
:101A3000404040603E000000000000007C46424301
:101A40004343424678000000000000007E60606072
:101A50007E6060607E000000000000007E606060CC
:101A60007E60606060000000000000001E6040407A
:101A7000CE4242623E00000000000000424242426C
:101A80007E42424242000000000000007E1818180A
:101A9000181818187E000000000000007C040404E0
:101AA0000404044478000000000000004244485050
:101AB00070584C444200000000000000202020200C
:101AC000202020203E000000000000006266675FCA
:101AD0005B5BC1C1C1000000000000006262725285
:101AE0005A4A4E4646000000000000003C6243C3D4
:101AF000C3C343623C000000000000007C46424239
:101B00004678404040000000000000003C6243C3B3
:101B1000C3C343623C180F00000000007C6662668D
:101B20007C6C646662000000000000003E60406063
:101B30001C0602027C000000000000007F1818183C
:101B40001818181818000000000000004242424215
:101B5000424242623C00000000000000C143426279
:101B60002624341C1800000000000000C1C14149B7
:101B70005B5B766666000000000000004366341878
:101B8000181C2466C300000000000000C142663437
:101B90001C18181818000000000000007E02040C39
:101BA000181020607E0000000000001C10101010B3
:101BB000101010101010101C0000004020201010F9
:101BC00008080C04060200000000003C0C0C0C0C81
:101BD0000C0C0C0C0C0C0C3C00000000181C2462BB
:101BE00000000000000000000000000000000000F5
:101BF00000000000000000FF0000002010000000B6
:101C000000000000000000000000000000003C0692
:101C1000023E42467A0000000000004040405C6204
:101C2000424242427C0000000000000000001E20F2
:101C3000604060203E0000000000000202023E62A0
:101C4000424242663A0000000000000000003C6290
:101C5000427E40603E0000000000000F1810107E21
:101C600010101010100000000000000000003F667F
:101C7000426658403E43423C0000004040405C62A7
:101C8000424242424200000000000018180078085A
:101C9000080808087E000000000000040C007C0416
:101CA0000404040404040C78000000606060626CAA
:101CB0007870686462000000000000780808080876
:101CC000080808087E000000000000000000764BB5
:101CD0004B4B4B4B4B0000000000000000005C62CF
:101CE00042424242420000000000000000003C620C
:101CF000424342623C0000000000000000005C62C1
:101D0000424242427C4040400000000000003E62EF
:101D1000424242663A0202020000000000006E7277
:101D200063606060600000000000000000003E2072
:101D3000203C06027C000000000000001010FE1095
:101D4000101010101E0000000000000000004242B1
:101D5000424242663A000000000000000000434298
:101D60006624341818000000000000000000C1C103
:101D70005B5A5E66660000000000000000006226FC
:101D80001C181C26620000000000000000004342F6
:101D90006624341C181830E00000000000007E06A5
:101DA0000C1810207E0000000000000E181010100B
:101DB000307010101010180E0000080808080808ED
:101DC0000808080808080808000000301808080873
:101DD0000C0E080808081830000000000000000081
:101DE000714B060000000000000000000000000031
:101DF00000000000000000000000000000000000E3
:101E000000000000000000000000000000000000D2
:101E100000000000000000000000000000000000C2
:101E20000000038001800180018001800180018029
:101E30000180018001800000000003C003C0000099
:101E40000000000000000000000000000000000092
:101E500000000E700E700E700C30000000000000CC
:101E60000000000000000000000000000000000072
:101E70000000000000000000000000000000000062
:101E8000000000000618063806307FFE0C300C30CB
:101E90000C300C307FFE0C601C6018601860000075
:101EA0000000000000000000000000000000000032
:101EB00000C000C00FF83CC831C031803D801F8099
:101EC00003F001F8031C030C031C3FF83FE007007C
:101ED00006000000000000000000000000000000FC
:101EE0001C007E0E630C631863307E6000C00180AE
:101EF0000300077C0EE61CC618C630C6607C0000D6
:101F000000000000000000000000000000000000D1
:101F100000000FE01CF0387038701C601FC00F000C
:101F20003F8C71CC60EC607C70383CFC1FCE0000B4
:101F300000000000000000000000000000000000A1
:101F4000000003C00180018001800000000000004B
:101F50000000000000000000000000000000000081
:101F60000000000000000000000000000000000071
:101F7000003000E001C001800300070006000600F9
:101F80000E000E000E000E00060007000300038086
:101F900001C000E000300000000000000000000070
:101FA0000C0006000380018001C000E000600060BA
:101FB0000070007000700060006000E000C00180F0
:101FC000038006000C00000000000000000000007C
:101FD0000000018011881DB803C007E03DBC0188E6
:101FE0000180000000000000000000000000000070
:101FF00000000000000000000000000000000000E1
:1020000000000000000000000180018001800180CC
:1020100001807FFE018001800180018000000000BE
:1020200000000000000000000000000000000000B0
:1020300000000000000000000000000000000000A0
:10204000000000000000000003C003C001C001C088
:1020500003801F00000000000000000000000000DE
:102060000000000000000000000000000000000070
:1020700000000FF000000000000000000000000061
:102080000000000000000000000000000000000050
:102090000000000000000000000000000000000040
:1020A000000000000000000003C003C003C00000E7
:1020B0000000000000000000000000000000000020
:1020C0000000001800380030006000E000C001C0CF
:1020D00001800300030006000E000C001C00180025
:1020E00030000000000000000000000000000000C0
:1020F000000001800FF01C38381C301C707E70EE20
:10210000738E7E0E7C0C300C381C1E780FE00000A5
:1021100000000000000000000000000000000000BF
:102120000000000007C01FC039C001C001C001C0CD
:1021300001C001C001C001C001C03FFC3FFC000064
:10214000000000000000000000000000000000008F
:10215000000003801FF018380038001800380038DD
:10216000007001E0038007001C003FFC3FFC000002
:10217000000000000000000000000000000000005F
:10218000000007801FF0003800380038003007E0FA
:1021900007F00038001C001C001820F83FE0000089
:1021A000000000000000000000000000000000002F
:1021B0000000000000F001B0033007300E301C308A
:1021C000383070307FFE7FFE00300030003000007D
:1021D00000000000000000000000000000000000FF
:1021E000000000001FF818001800180018001FE079
:1021F00000F8001C001C001C003800F01FC000008C
:1022000000000000000000000000000000000000CE
:102210000000000003F80F001C001800300037F821
:102220003C3C300C300C380C381C1E380FF00000D1
:10223000000000000000000000000000000000009E
:10224000000000003FFC001C001800380070006017
:1022500000E001C001800380070006000E000000BE
:10226000000000000000000000000000000000006E
:10227000000003C01FF8381C381C381C1C380FF035
:1022800007F01C78381C300C381C3C380FF000006C
:10229000000000000000000000000000000000003E
:1022A000000003801FF03838301C701C700C380C94
:1022B0001FFC0FCC001C001800701FE01F800000E6
:1022C000000000000000000000000000000000000E
:1022D0000000000000000000000003C003C00180F7
:1022E000000000000000000003C003C003C00000A5
:1022F00000000000000000000000000000000000DE
:102300000000000000000000000003C003C00180C6
:10231000000000000000000003C003C001C001C0B5
:1023200003800F000000000000000000000000001B
:102330000000000000000000003800F001C00700AD
:102340001E0038000E00078001C000700030000041
:10235000000000000000000000000000000000007D
:1023600000000000000000000000000000003FFC32
:10237000000000003FFC3FFC0000000000000000E7
:10238000000000000000000000000000000000004D
:1023900000000000000000001C000F00038001E0AE
:1023A0000078001C007001E003800E000C000000AB
:1023B000000000000000000000000000000000001D
:1023C00000000FC000F0003800380038003803F07B
:1023D0000380030003000000000007800780000066
:1023E00000000000000000000000000000000000ED
:1023F00000E007F80C0C18063006700363F3663330
:10240000C673CC63CC62CC66CCE6C7FCE00060004F
:10241000700038101FF000000000000000000000F5
:102420000000000003C007E006E00E700E700C30E4
:102430001C3818183FFC3FFC700E600EE0070000CF
:10244000000000000000000000000000000000008C
:10245000000000003FF03838381C381C38383FF096
:102460003FF8381C380C380C381C3FF83FE00000AF
:10247000000000000000000000000000000000005C
:10248000000000E007FC1E04380038003000700037
:1024900070007000300038003C001F9C07FC0000FA
:1024A000000000000000000000000000000000002C
:1024B000000000003FF03078301C300C300E300E41
:1024C000300E300E300E301C30383FF03FC0000070
:1024D00000000000000000000000000000000000FC
:1024E000000000001FF818001800180018001FF85E
:1024F0001FF818001800180018001FF81FF8000037
:1025000000000000000000000000000000000000CB
:10251000000000001FF818001800180018001FF82D
:102520001FF8180018001800180018001800000004
:10253000000000000000000000000000000000009B
:10254000000000F007FC1E0438003000700070002E
:1025500070FC700C700C300C380C1F1C07FC000059
:10256000000000000000000000000000000000006B
:1025700000000000300C300C300C300C300C3FFCF4
:102580003FFC300C300C300C300C300C300C0000A8
:10259000000000000000000000000000000000003B
:1025A000000000003FFC018001800180018001806B
:1025B000018001800180018001803FFC3FFC000020
:1025C000000000000000000000000000000000000B
:1025D000000000001FF000300030003000300030FC
:1025E000003000300030003000701DE01FC00000DF
:1025F00000000000000000000000000000000000DB
:1026000000000000381C387038E039C03B803F00C3
:102610003F003B8039C038E038703838381C000043
:1026200000000000000000000000000000000000AA
:10263000000000001C001C001C001C001C001C00F2
:102640001C001C001C001C001C001FFC1FFC0000C8
:10265000000000000000000000000000000000007A
:1026600000000000381C7C3C6C3E6E6E666E66CED0
:1026700063C66386618660066006600660060000C9
:10268000000000000000000000000000000000004A
:10269000000000003C0C3C0C3E0C360C330C338C20
:1026A000318C31CC30EC306C307C303C301C000054
:1026B000000000000000000000000000000000001A
:1026C000000001C00FF81C3C381C700E700E600634
:1026D0006006700E700E700C381C1E780FE0000043
:1026E00000000000000000000000000000000000EA
:1026F000000000003FF0383C381C380C380C381C07
:1027000038783FE0380038003800380038000000E2
:1027100000000000000000000000000000000000B9
:10272000000001C00FF81C3C381C700E700E6006D3
:102730006006700E700E700C381C1E780FE0018061
:1027400001C000FF003C000000000000000000008D
:10275000000000003FF0383838183818383838F0A2
:102760003FC038E0387038383838381C380E000030
:102770000000000000000000000000000000000059
:10278000000001E00FF83800380038003C001F80DE
:1027900003F00078001C001C001C38783FE00000AB
:1027A0000000000000000000000000000000000029
:1027B000000000007FFE0180018001800180018017
:1027C0000180018001800180018001800180000082
:1027D00000000000000000000000000000000000F9
:1027E00000000000300C300C300C300C300C300C81
:1027F000300C300C300C300C381C1C380FF0000042
:1028000000000000000000000000000000000000C8
:1028100000000000E006700E700E381C381C1C18FA
:102820001C380C300E70066007E003C003C00000C7
:102830000000000000000000000000000000000098
:102840000000000060066006600660066186638620
:1028500073C673CE766C366C3C3C3C3C381C000036
:102860000000000000000000000000000000000068
:1028700000000000301C38181C380E7007E003C040
:1028800003C007E00E701C381838381C700E0000AA
:102890000000000000000000000000000000000038
:1028A00000000000700E700C381C1C380E700660A2
:1028B00007E003C0018001800180018001800000E9
:1028C0000000000000000000000000000000000008
:1028D000000000003FFC001C0038007000E001C058
:1028E000038007000E000C0018003FFC3FFC0000B6
:1028F00000000000000000000000000000000000D8
:1029000007F007F0060006000600060006000600B5
:102910000600060006000600060006000600060087
:102920000600060007F000000000000000000000A4
:10293000000018001C000C000600070003000380C4
:10294000018001C000C00060007000300038001835
:10295000000C00000000000000000000000000006B
:102960000FE00FE000600060006000600060006049
:102970000060006000600060006000600060006057
:10298000006000600FE00000000000000000000098
:102990000000000003C006C006600C301818301C90
:1029A0000000000000000000000000000000000027
:1029B0000000000000000000000000000000000017
:1029C0000000000000000000000000000000000007
:1029D00000000000000000000000000000000000F7
:1029E00000000000FFFF00000000000000000000E9
:1029F00000001E0003800000000000000000000036
:102A000000000000000000000000000000000000C6
:102A100000000000000000000000000000000000B6
:102A2000000000000000000000001FF01038001C33
:102A3000001C0FFC1C1C381C381C3CFC1FDC00005C
:102A40000000000000000000000000000000000086
:102A5000000038003800380038003BF83E1C3C1CB1
:102A6000380C380C380C380C381C3C781FE000004F
:102A70000000000000000000000000000000000056
:102A80000000000000000000000007F80E001C001D
:102A900038003800380038001C000F1807F8000014
:102AA0000000000000000000000000000000000026
:102AB0000000001C001C001C001C0FFC1C1C381C0F
:102AC000301C301C301C301C383C1CFC0F9C00009F
:102AD00000000000000000000000000000000000F6
:102AE000000000000000000000000FF01C38381C3F
:102AF000300C3FFC3000300038001E0C07FC00009A
:102B000000000000000000000000000000000000C5
:102B1000003C01FE03800300030003007FFC7FFCF8
:102B20000300030003000300030003000300000090
:102B30000000000000000000000000000000000095
:102B4000000000000000000000000FFE1C383818D4
:102B5000381818381FF03B8030003FF01FFC300E53
:102B6000700E381C1FF8000000000000000000007C
:102B7000000038003800380038003BF83E383C1C74
:102B8000381C381C381C381C381C381C381C0000F9
:102B90000000000000000000000000000000000035
:102BA000018003C003C0000000001FC001C001C0BD
:102BB00001C001C001C001C001C001C03FFC000054
:102BC0000000000000000000000000000000000005
:102BD000002000700070000000003FF000700070E6
:102BE0000070007000700070007000700070007065
:102BF000007020E03FC00000000000000000000066
:102C000000001800180018001800183C187018E090
:102C10001B801F001B8019E018701838181C00005A
:102C200000000000000000000000000000000000A4
:102C300000001FC001C001C001C001C001C001C02F
:102C400001C001C001C001C001C001C03FFC0000C3
:102C50000000000000000000000000000000000074
:102C6000000000000000000000006F3C79EE71CE13
:102C7000718E718E718E718E718E718E718E00005B
:102C80000000000000000000000000000000000044
:102C9000000000000000000000003BF83E383C1C33
:102CA000381C381C381C381C381C381C381C0000D8
:102CB0000000000000000000000000000000000014
:102CC000000000000000000000000FF01C3C381C59
:102CD000700E700E700E700C381C1E780FE0000025
:102CE00000000000000000000000000000000000E4
:102CF000000000000000000000003BF83E1C3C1CEF
:102D0000380C380C380C380C381C3C783FE0380054
:102D1000380038003800000000000000000000000B
:102D2000000000000000000000000FFC1C1C381C0C
:102D3000301C301C301C301C383C1CFC0F9C001C10
:102D4000001C001C001C000000000000000000002F
:102D50000000000000000000000019F81F1C1C0CFF
:102D6000180E1800180018001800180018000000AD
:102D70000000000000000000000000000000000053
:102D8000000000000000000000000FF81C00180008
:102D90001E000FC001F80018001818381FF00000BE
:102DA0000000000000000000000000000000000023
:102DB000000000000600060006007FFC060006007A
:102DC00006000600060006000700078401FC00005C
:102DD00000000000000000000000000000000000F3
:102DE00000000000000000000000381C381C381CE7
:102DF000381C381C381C381C383C1CFC0FDC00000C
:102E000000000000000000000000000000000000C2
:102E100000000000000000000000700C381C381892
:102E20001C380C300E70066007E003C003C00000C1
:102E30000000000000000000000000000000000092
:102E400000000000000000000000600660066186CF
:102E5000738E73CC33CC366C366C3C3C3C38000003
:102E60000000000000000000000000000000000062
:102E700000000000000000000000381C1C380E702C
:102E800007E003C003C007E00E701C38381E0000C6
:102E90000000000000000000000000000000000032
:102EA00000000000000000000000700C381C381802
:102EB0001C380C300E70066007E003C003C00380AE
:102EC00007000E007C000000000000000000000071
:102ED000000000000000000000001FF80038007033
:102EE00000E001C0038007000C001FFC3FFC000055
:102EF00000000000000000000000000000000000D2
:102F0000007801F8038003800380038003800300BE
:102F10003F003E00030003800380038003800380A2
:102F2000038001C000F80000000000000180018063
:102F30000180018001800180018001800180018089
:102F40000180018001800180018001800180018079
:102F500001800180018000000000000000000000EE
:102F60001E001F80018001C001C001C001C000C05F
:102F700000FC007C00C001C001C001C001C001C054
:102F800001C003801F0000000000000000000000DE
:102F900000000000000000000000000000001C0015
:102FA0003F0671CE60FC0000000000000000000041
:102FB0000000000000000000000000000000000011
:102FC0000000000000000000000000000000000001
:102FD00000000000000000000000000000000000F1
:102FE00000000000000000000000000000000000E1
:102FF00000000000000000000000000000000000D1
:1030000000000000000000000000000000000000C0
:1030100000000000000000000000000000000000B0
:1030200000000000000000000000003C00003C0028
:10303000003C00003C00003C00003C00003C000064
:103040003C00003C00003C00003C00003C00003C18
:1030500000003C00000000000000003C00007E007A
:10306000003C000000000000000000000000000024
:103070000000000000000000000000000000000050
:103080000000000000000000000003C3E003C3E0F4
:1030900003C3C003C3C003C3C003C3C003C1C00094
:1030A0000000000000000000000000000000000020
:1030B0000000000000000000000000000000000010
:1030C0000000000000000000000000000000000000
:1030D00000000000000000000000000000000000F0
:1030E00000000000000000000000000000000000E0
:1030F00001E0E001C0E001C0E001C0E03FFFFE3FB1
:10310000FFFE03C1C00381C00381C00381C07FFFF4
:10311000FC7FFFFC07838007038007038007038091
:103120000707800000000000000000000000000011
:10313000000000000000000000000000000000008F
:1031400000000000000000000700000F00000E005B
:1031500001FFF007FFF01F0E001E1E001E1C001EC8
:103160001C000FDC0007FC0000FF80003FF000386F
:10317000F800387800783C0070783071F83FFFE054
:103180001FFF0000E00000E00000E0000000000081
:10319000000000000000000000000000000000002F
:1031A000000000000000000000000F800F3FE01E44
:1031B00078703C7070707070E07071C03FE3801F79
:1031C000C700000E00001C0000780000F0F001E7CE
:1031D000FC03CF0E078E0E0F0E0E1E0E0E3C07BC0C
:1031E0007003F80000000000000000000000000074
:1031F00000000000000000000000000000000000CF
:103200000000000000000000000000000001FF00BE
:1032100007FF800F03C00F03C00F03C00F07800715
:103220009F0003FE0003F0000FF83C3E7C3C3C1F77
:103230003C780FF87807F87C01F03E03F81FFFFC9C
:1032400007FE1F000000000000000000000000005A
:10325000000000000000000000000000000000006E
:1032600000000000000000000000003E00003C00E4
:10327000003C00003C00003C00003C00003C000022
:10328000000000000000000000000000000000003E
:10329000000000000000000000000000000000002E
:1032A000000000000000000000000000000000001E
:1032B000000000000000000000000000000000000E
:1032C000000000000000000000800001C000078036
:1032D000000F00001E00003C0000780000F000001D
:1032E000E00001E00001E00001C00003C00003C0F5
:1032F0000001C00001E00001E00000F00000F0006B
:10330000007800003C00001E00000F000007C00015
:1033100001C00000000000000000000000000000EC
:103320000000000000000000000003C00001E000F9
:1033300000F000007C00003E00001E00000F0000B6
:1033400007800007800003800003C00003C0000363
:10335000C00003C0000380000780000780000F004A
:10336000001E00003C0000780000F00001E00003B7
:1033700080000000000000000000000000000000CD
:1033800000000000000000000000001C00001C0005
:103390000018000F18F007DBE0007F0000FF0007B7
:1033A000DBE00E1870001800001C00001C0000007C
:1033B000000000000000000000000000000000000D
:1033C00000000000000000000000000000000000FD
:1033D00000000000000000000000000000000000ED
:1033E00000000000000000000000000000000000DD
:1033F000000000000000000000003C00003C000055
:103400003C00003C00003C00003C003FFFFC3FFF54
:10341000FC003C00003C00003C00003C00003C0084
:10342000000000000000000000000000000000009C
:10343000000000000000000000000000000000008C
:10344000000000000000000000000000000000007C
:10345000000000000000000000000000000000006C
:10346000000000000000000000000000000000005C
:1034700000000000000000007C00007E00007E00D4
:10348000003E00001E00003C0000F80007E00004C1
:10349000000000000000000000000000000000002C
:1034A000000000000000000000000000000000001C
:1034B000000000000000000000000000000000000C
:1034C000000000000000000000000003FFE003FF18
:1034D000E00000000000000000000000000000000C
:1034E00000000000000000000000000000000000DC
:1034F00000000000000000000000000000000000CC
:1035000000000000000000000000000000000000BB
:1035100000000000000000000000000000000000AB
:10352000000000000000000000000000000000009B
:1035300000000000000000007C0000FE0000FE0013
:10354000007E0000000000000000000000000000FD
:10355000000000000000000000000000000000006B
:10356000000000000000000000000000780000F0F3
:103570000000E00001E00003C000038000078000BD
:103580000F00000E00001E00003C0000380000701C
:103590000000F00000E00001C00003C00007800050
:1035A0000700000F00001E00001C000000000000CB
:1035B000000000000000000000000000000000000B
:1035C00000000000000000000000000000000000FB
:1035D00001FFC007FFE00F00F01E00781E003C3C1A
:1035E00000FC3C07FC3C1FBC3C7C1C3DF03C3FC04D
:1035F0003C3F003C1E00381E00780F80F007FFE0C3
:1036000001FF80000000000000000000000000003A
:1036100000000000000000000000000000000000AA
:10362000000000000000000000000000000000009A
:10363000007E0003FE001FDE000E1E00001E0000C4
:103640001E00001E00001E00001E00001E00001EC6
:1036500000001E00001E00001E00001E000FFFF8EC
:103660000FFFF80000000000000000000000000054
:10367000000000000000000000000000000000004A
:10368000000000000000000000000000000000003A
:1036900003FF800FFFE00E01F00000F00000F000DB
:1036A00000F00000F00001E00003C0000F80003EC9
:1036B00000007C0001F00003C0000F80001FFFFC31
:1036C0001FFFFC00000000000000000000000000E0
:1036D00000000000000000000000000000000000EA
:1036E00000000000000000000000000000000000DA
:1036F0000FFF800FFFE00001E00000F00000F0008D
:1037000001E00003C001FF0001FFC00003F0000062
:10371000780000780000780000780001F00FFFC00A
:103720000FFF00000000000000000000000000008B
:103730000000000000000000000000000000000089
:103740000000000000000000000000000000000079
:10375000000FC0001FC0003FC0007BC000F3C001CD
:10376000E3C003C3C00783C00F03C01C03C03803FA
:10377000C07FFFFE7FFFFE0003C00003C00003C048
:103780000003C00000000000000000000000000076
:103790000000000000000000000000000000000029
:1037A0000000000000000000000000000000000019
:1037B0000FFFE00FFFE00F00000F00000F00000FF1
:1037C00000000F00000FFF800FFFE00000F000007E
:1037D000780000780000780000F00003E00FFFC0E0
:1037E0000FFE0000000000000000000000000000CC
:1037F00000000000000000000000000000000000C9
:1038000000000000000000000000000000000000B8
:10381000003FF001FFF003E0000780000F00001EF2
:1038200000001E1F001FFFE01FC1F81E00781E00D1
:103830003C1E003C1E003C0F00780F80F807FFE0A4
:1038400001FF8000000000000000000000000000F8
:103850000000000000000000000000000000000068
:103860000000000000000000000000000000000058
:103870001FFFFC1FFFFC0000780000F00000E000CC
:1038800001E00003C0000780000F00000F00001ED1
:1038900000003C0000780000F00001F00001E000B2
:1038A00003C0000000000000000000000000000055
:1038B0000000000000000000000000000000000008
:1038C00000000000000000000000000000000000F8
:1038D00003FFE00FE3F00F00781E00781E00780F62
:1038E00000F007E3E001FF8001FF8007E7E00F0041
:1038F000F81E00781E003C1E007C1F00F80FFFF031
:1039000003FFC000000000000000000000000000F5
:1039100000000000000000000000000000000000A7
:103920000000000000000000000000000000000097
:1039300003FF800FC7E01E00F01E00783C00783CBB
:1039400000783C00381E00780FEFF807FFB8000041
:10395000780000780000F00001E0000FC00FFF00C9
:103960000FF0000000000000000000000000000058
:103970000000000000000000000000000000000047
:103980000000000000000000000000000000000037
:10399000000000000000000000000000007E0000A9
:1039A0007E00007E00001800000000000000000003
:1039B00000000000000000003C00007E00007E00CF
:1039C000003E0000000000000000000000000000B9
:1039D00000000000000000000000000000000000E7
:1039E00000000000000000000000000000000000D7
:1039F000000000000000000000000000007E000049
:103A00007E00007E000018000000000000000000A2
:103A100000000000000000003E00007E00007F006B
:103A2000001F00001E00001E0000FC0007F0000444
:103A30000000000000000000000000000000000086
:103A40000000000000000000000000000000000076
:103A50000000000000000000400001E00007C0007E
:103A60001F00007E0001F80003E0000F80000F80BF
:103A70000003E00000F800003E00000F800003E0BB
:103A80000000E00000000000000000000000000056
:103A90000000000000000000000000000000000026
:103AA0000000000000000000000000000000000016
:103AB0000000000000000000000000000000000006
:103AC00000000000001FFFF80000000000000000E0
:103AD000001FFFF81FFFF8000000000000000000BA
:103AE00000000000000000000000000000000000D6
:103AF00000000000000000000000000000000000C6
:103B000000000000000000000000000000000000B5
:103B100000000000000000000007800003E000003B
:103B2000F800003E00000F800003E00000F80001F4
:103B3000F00007C0001F00007C0001F00007C0007B
:103B40000300000000000000000000000000000072
:103B50000000000000000000000000000000000065
:103B60000000000000000000000001C00001FE0095
:103B7000007F800007C00001E00000F00000F000BE
:103B800001F00003E0007FC0007E000070000070C4
:103B90000000700000000000000000F80000F800C5
:103BA00000F800000000000000000000000000001D
:103BB0000000000000000000000000000000000005
:103BC00000000000000000000000001F8000FFF067
:103BD00003C07807801C0E000E1C000E3C000F383E
:103BE0003FC778FFC770E3C771C3C7F3C387E3C399
:103BF00087E3878EE3878EE3CF8EE3FFFC71F9F0D6
:103C00007000007000003800003C00000F01C00789
:103C1000FFC00000000000000000000000000000E5
:103C20000000000000000000000000000000000094
:103C3000007E00007F0000FF0000E78001E78003B6
:103C4000C3C003C3C00781E00781E00F00F00F008D
:103C5000F81FFFF81FFFFC3C003C3C001E78001ED4
:103C6000F0000F0000000000000000000000000055
:103C70000000000000000000000000000000000044
:103C80000000000000000000000000000000000034
:103C90001FFFC01FFFF01E00F01E00781E00781EE0
:103CA00000F01E01F01FFFC01FFFE01E01F81E0004
:103CB000781E003C1E003C1E00781E00F81FFFE02E
:103CC0001FFF0000000000000000000000000000D6
:103CD00000000000000000000000000000000000E4
:103CE00000000000000000000000000000000000D4
:103CF00000FFF803FFF807C0000F00001E00001EC1
:103D000000003C00003C00003C00003C00003C0087
:103D1000003E00001E00000F00000FC00803FFF867
:103D200000FFF8000000000000000000000000009C
:103D30000000000000000000000000000000000083
:103D40000000000000000000000000000000000073
:103D50003FFF003FFFE03C01F03C00783C003C3C72
:103D6000003C3C003C3C001E3C001E3C001E3C0055
:103D70003C3C003C3C00783C00F83C07E03FFFC086
:103D80003FFC0000000000000000000000000000F8
:103D90000000000000000000000000000000000023
:103DA0000000000000000000000000000000000013
:103DB0000FFFF00FFFF00F00000F00000F00000FCB
:103DC00000000F00000FFFF00FFFF00F00000F00CA
:103DD000000F00000F00000F00000F00000FFFF0A9
:103DE0000FFFF000000000000000000000000000D5
:103DF00000000000000000000000000000000000C3
:103E000000000000000000000000000000000000B2
:103E10000FFFF00FFFF00F00000F00000F00000F6A
:103E200000000F00000FFFF00FFFF00F00000F0069
:103E3000000F00000F00000F00000F00000F000037
:103E40000F00000000000000000000000000000063
:103E50000000000000000000000000000000000062
:103E60000000000000000000000000000000000052
:103E700000FFFC03FFFC0FC0041F00001E00003CFD
:103E800000003C0000780FFC780FFC78003C3C0000
:103E90003C3C003C3E003C1F003C0FC03C03FFFC90
:103EA00000FFF8000000000000000000000000001B
:103EB0000000000000000000000000000000000002
:103EC00000000000000000000000000000000000F2
:103ED0003C003C3C003C3C003C3C003C3C003C3C4E
:103EE000003C3C003C3FFFFC3FFFFC3C003C3C00F6
:103EF0003C3C003C3C003C3C003C3C003C3C003C2E
:103F00003C003C0000000000000000000000000039
:103F100000000000000000000000000000000000A1
:103F20000000000000000000000000000000000091
:103F30000FFFF80FFFF8003C00003C00003C0000C1
:103F40003C00003C00003C00003C00003C00003C09
:103F500000003C00003C00003C00003C000FFFF86B
:103F60000FFFF8000000000000000000000000004B
:103F70000000000000000000000000000000000041
:103F80000000000000000000000000000000000031
:103F90000FFFE00FFFE00001E00001E00001E000A2
:103FA00001E00001E00001E00001E00001E00001AB
:103FB000E00001E00001E00003C00C07C00FFF803B
:103FC00007FE0000000000000000000000000000EC
:103FD00000000000000000000000000000000000E1
:103FE00000000000000000000000000000000000D1
:103FF0001E00781E01F01E03C01E07801E1F001E3B
:104000003C001E78001EF0001FF0001EF8001E3C51
:10401000001E1E001E0F801E07C01E01E01E00F8BD
:104020001E007C00000000000000000000000000F6
:104030000000000000000000000000000000000080
:104040000000000000000000000000000000000070
:1040500007800007800007800007800007800007B6
:10406000800007800007800007800007800007802D
:104070000007800007800007800007800007FFF826
:1040800007FFF80000000000000000000000000032
:104090000000000000000000000000000000000020
:1040A0000000000000000000000000000000000010
:1040B0003E007C3F00FC3F81DC3B81DC3BC39C3904
:1040C000C39C38E71C38EF1C387E1C387C1E383CFB
:1040D0001E78001E78001E78001E78001E78001ED4
:1040E00078001E000000000000000000000000003A
:1040F00000000000000000000000000000000000C0
:1041000000000000000000000000000000000000AF
:104110001F003C1F803C1FC03C1DC03C1DE03C1CE0
:10412000F03C1C783C1C783C1C3C3C1C1E3C1C0F8E
:104130003C1C0F3C1C07BC1C03FC1C01FC1C00FCB1
:104140001C00FC0000000000000000000000000057
:10415000000000000000000000000000000000005F
:10416000000000000000000000000000000000004F
:1041700001FFC007FFF00F00F81E007C3C003C3C34
:10418000001E78001E78001E78001E78001E780041
:104190001E3C003C3C003C1E00781F00F007FFE086
:1041A00001FF80000000000000000000000000008F
:1041B00000000000000000000000000000000000FF
:1041C00000000000000000000000000000000000EF
:1041D0001FFF801FFFF01E00F81E007C1E003C1E0B
:1041E000003C1E003C1E00781E03F01FFFC01FFE97
:1041F000001E00001E00001E00001E00001E000029
:104200001E00000000000000000000000000000090
:10421000000000000000000000000000000000009E
:10422000000000000000000000000000000000008E
:1042300001FFC007FFF00F00F81E007C3C003C3C73
:10424000001E78001E78001E78001E78001E780080
:104250001E3C003C3C003C1E00781F80F007FFE045
:1042600001FF80003C00003C00001F06000FFF0023
:1042700001F8000000000000000000000000000045
:10428000000000000000000000000000000000002E
:104290000FFF800FFFE00E01F00E00F00E00F00E99
:1042A00000F00E01F00FFFC00FFF000E1F000E0701
:1042B000800E03C00E01E00E00F00E00F80E007834
:1042C0000E003C00000000000000000000000000A4
:1042D00000000000000000000000000000000000DE
:1042E00000000000000000000000000000000000CE
:1042F00003FFF00FFFF01F00001E00001E00001F54
:1043000000000FC00007FC0000FF80000FF000015C
:10431000F80000780000780000782000F83FFFE007
:104320003FFF8000000000000000000000000000CF
:10433000000000000000000000000000000000007D
:10434000000000000000000000000000000000006D
:104350003FFFFC3FFFFC003C00003C00003C000035
:104360003C00003C00003C00003C00003C00003CE5
:1043700000003C00003C00003C00003C00003C0011
:10438000003C0000000000000000000000000000F1
:10439000000000000000000000000000000000001D
:1043A000000000000000000000000000000000000D
:1043B0003C003C3C003C3C003C3C003C3C003C3C69
:1043C000003C3C003C3C003C3C003C3C003C3C0095
:1043D0003C3C003C3C003C1E00781F00F80FFFE016
:1043E00003FF80000000000000000000000000004B
:1043F00000000000000000000000000000000000BD
:1044000000000000000000000000000000000000AC
:10441000F8000F78001E3C001E3C003C1E00381EB9
:1044200000780F00700F00F00781E00781E003C300
:10443000C003E3C001E78000F78000FF00007E00BA
:10444000007E0000000000000000000000000000EE
:10445000000000000000000000000000000000005C
:10446000000000000000000000000000000000004C
:1044700078000E78000E78000E78001E38001E3886
:10448000001E383C1C383C1C387E1C387F1C3CE726
:104490001C3CE79C3DC39C1DC3DC1F81DC1F80F8D6
:1044A0001F00F800000000000000000000000000F5
:1044B00000000000000000000000000000000000FC
:1044C00000000000000000000000000000000000EC
:1044D0003C003C1E00780F00F00781E003C3C001E0
:1044E000E78000FF00007E00007E0000FF0001FF6B
:1044F0008003E7C007C3E00F81F01F00F83E007C97
:104500007C003E00000000000000000000000000F1
:10451000000000000000000000000000000000009B
:10452000000000000000000000000000000000008B
:1045300078001F3C003E1E007C1F00780F80F007B3
:10454000C1E003E3C001E78000FF00007E00003C03
:1045500000003C00003C00003C00003C00003C002F
:10456000003C00000000000000000000000000000F
:10457000000000000000000000000000000000003B
:10458000000000000000000000000000000000002B
:104590001FFFFC1FFFFC0000F80001E00003C0004B
:1045A0000780000F00001E00003C0000780000F0B3
:1045B0000003E00007C0000F80001F00003FFFFC69
:1045C0003FFFFC00000000000000000000000000B1
:1045D00000000000000000000000000000000000DB
:1045E0000000000000000000000001FFC001FFC04B
:1045F00001E00001E00001E00001E00001E0000155
:10460000E00001E00001E00001E00001E00001E065
:104610000001E00001E00001E00001E00001E00035
:1046200001E00001E00001E00001E00001E0000124
:10463000FFC00000000000000000000000000000BB
:10464000000000000000000000000E00000F00004D
:1046500007000003800003C00001E00000E000004C
:10466000F000007800003800003C00001E00000E42
:1046700000000F000007800003800001C00001E07F
:104680000000E000007000007800003C0000000026
:10469000000000000000000000000000000000001A
:1046A0000000000000000000000003FF8003FF8006
:1046B0000007800007800007800007800007800057
:1046C0000780000780000780000780000780000740
:1046D00080000780000780000780000780000780B7
:1046E0000007800007800007800007800007800324
:1046F000FF8000000000000000000000000000003B
:1047000000000000000000000000000000000000A9
:10471000003C00007E0000E70001C3800381C00769
:1047200000E00E00F01E0078000000000000000015
:104730000000000000000000000000000000000079
:104740000000000000000000000000000000000069
:104750000000000000000000000000000000000059
:104760000000000000000000000000000000000049
:104770000000000000000000000000000000000039
:104780000000000000000000000000000000000029
:104790000000000000000000000000000000000019
:1047A000000000000000000000000000FFFFFFFF0D
:1047B000FFFF0000000000000000000000000000FB
:1047C000000000000000000000000F800003E00077
:1047D00000F800003C0000000000000000000000A5
:1047E00000000000000000000000000000000000C9
:1047F00000000000000000000000000000000000B9
:1048000000000000000000000000000000000000A8
:104810000000000000000000000000000000000098
:104820000000000000000000000000000000000088
:1048300000000000000000000000000007FFC007AB
:10484000E7F00000F000007800007800FFF807FFB4
:10485000F80F00781E00781E00781E03F80FFFF88E
:1048600007FC7800000000000000000000000000CD
:104870000000000000000000000000000000000038
:10488000000000000000000000001E00001E0000EC
:104890001E00001E00001E00001E00001E7FE01E05
:1048A000FFF01FC0781F00781E003C1E003C1E0059
:1048B0003C1E003C1E00381E00781E00F01FFFE06A
:1048C00007FF0000000000000000000000000000E2
:1048D00000000000000000000000000000000000D8
:1048E00000000000000000000000000000000000C8
:1048F00000000000000000000000000000FFF003C6
:10490000FFF007C0000F80000F00001E00001E0017
:10491000001E00000F00000F800007C00003FFF022
:1049200000FFF00000000000000000000000000098
:104930000000000000000000000000000000000077
:104940000000000000000000000000007800007877
:1049500000007800007800007800007801FFF80778
:10496000FFF80F00781E00781E00783C00783C00AD
:10497000783C00781C00781E01F81F03F80FFF78C0
:1049800003FC7800000000000000000000000000B0
:104990000000000000000000000000000000000017
:1049A0000000000000000000000000000000000007
:1049B00000000000000000000000000001FFC00730
:1049C000E3F00F00F81E00781E003C1FFFFC1FFFE5
:1049D000FC1C00001E00001E00000F800007FFF8F6
:1049E00001FFF800000000000000000000000000CF
:1049F00000000000000000000000000000000000B7
:104A0000000000000000000000000003FC001FFE8A
:104A1000003E000078000078000070000070000088
:104A200070003FFFFC3FFFFC007000007000007052
:104A30000000700000700000700000700000700046
:104A400000700000000000000000000000000000F6
:104A50000000000000000000000000000000000056
:104A60000000000000000000000000000000000046
:104A700000000000000000000000000003FFFC0731
:104A8000C3FC0F00F01E00F01E00F00F00F00F83BB
:104A9000E00FFFC01E7C001C00001F00000FFFF095
:104AA0000FFFFC1E003C3C003C3C003C1F81F80F0B
:104AB000FFE00038000000000000000000000000DF
:104AC000000000000000000000001E00001E0000AA
:104AD0001E00001E00001E00001E00001E7FE01EC3
:104AE000FFF01FC0F01F00781E00781E00781E0027
:104AF000781E00781E00781E00781E00781E007850
:104B00001E0078000000000000000000000000000F
:104B10000000000000000000000000000000000095
:104B200000000000000000000000003C00007E00CB
:104B3000007E00003C000000000000000FFE000F9F
:104B4000FE00001E00001E00001E00001E00001ED1
:104B500000001E00001E00001E00001E000FFFF8D7
:104B60000FFFF8000000000000000000000000003F
:104B70000000000000000000000000000000000035
:104B8000000000000000000000000003800007E0BB
:104B90000007E00003800000000000000FFFC00FCE
:104BA000FFC00003C00003C00003C00003C0000337
:104BB000C00003C00003C00003C00003C00003C066
:104BC0000003C00003C00003C00007801E3F001F99
:104BD000FE0001C000000000000000000000000016
:104BE000000000000000000000000F00000F0000A7
:104BF0000F00000F00000F00000F00000F00F80F63
:104C000001E00F07C00F1F000F3C000FF8000FF866
:104C1000000F3E000F1F000F07C00F03E00F00F84A
:104C20000F007C00000000000000000000000000F9
:104C30000000000000000000000000000000000074
:104C4000000000000000000000000FFE000FFE004A
:104C5000001E00001E00001E00001E00001E0000BE
:104C60001E00001E00001E00001E00001E00001E90
:104C700000001E00001E00001E00001E000FFFF8B6
:104C80000FFFF8000000000000000000000000001E
:104C90000000000000000000000000000000000014
:104CA0000000000000000000000000000000000004
:104CB00000000000000000000000000039F9F83B8F
:104CC000BBBC3E3E1C3C3E1C383C1C383C1C383CAB
:104CD0001C383C1C383C1C383C1C383C1C383C1CE8
:104CE000383C1C0000000000000000000000000034
:104CF00000000000000000000000000000000000B4
:104D000000000000000000000000000000000000A3
:104D10000000000000000000000000001E7FE01EF8
:104D2000FFF01FC0F01F00781E00781E00781E00E4
:104D3000781E00781E00781E00781E00781E00780D
:104D40001E007800000000000000000000000000CD
:104D50000000000000000000000000000000000053
:104D60000000000000000000000000000000000043
:104D700000000000000000000000000001FFC0076C
:104D8000E7F00F00F81E003C3C003C3C003C3C00BF
:104D90003C3C003C3C003C1E00781F00F007FFE05C
:104DA00001FF800000000000000000000000000083
:104DB00000000000000000000000000000000000F3
:104DC00000000000000000000000000000000000E3
:104DD0000000000000000000000000001E7FE01E38
:104DE000FFF01FC0781F00781E003C1E003C1E0014
:104DF0003C1E003C1E00381E00781E00F01FFFE025
:104E00001FFF001E00001E00001E00001E00001EEE
:104E10000000000000000000000000000000000092
:104E20000000000000000000000000000000000082
:104E300000000000000000000000000001FFF80773
:104E4000F7F80F00781E00781E00783C00783C00D0
:104E5000783C00781C00781E01F81F03F80FFF78DB
:104E600003FC7800007800007800007800007800EB
:104E700000780000000000000000000000000000BA
:104E80000000000000000000000000000000000022
:104E90000000000000000000000000000F1FF00FE5
:104EA0007FF80FE03C0F803C0F003C0F00000F002C
:104EB000000F00000F00000F00000F00000F0000A7
:104EC0000F000000000000000000000000000000D3
:104ED00000000000000000000000000000000000D2
:104EE00000000000000000000000000000000000C2
:104EF00000000000000000000000000001FFE007CB
:104F0000E1E00F00000F000007800003FC0000FF3D
:104F1000C0000FF00000F00000780000F00FFFE08C
:104F20000FFF8000000000000000000000000000F3
:104F30000000000000000000000000000000000071
:104F40000000000000000000000000000000000061
:104F500001E00001E00001E00001E0007FFFF87FD8
:104F6000FFF801E00001E00001E00001E00001E0E5
:104F70000001E00001E00001E00000F000007FF827
:104F8000003FF800000000000000000000000000EA
:104F90000000000000000000000000000000000011
:104FA0000000000000000000000000000000000001
:104FB0000000000000000000000000001E00781E3D
:104FC00000781E00781E00781E00781E00781E00F3
:104FD000781E00781E00780E00F80F03F807FF789F
:104FE00003FC78000000000000000000000000004A
:104FF00000000000000000000000000000000000B1
:1050000000000000000000000000000000000000A0
:105010000000000000000000000000003C003C1EFA
:10502000007C1E00780F00F00F80F00781E003C3C2
:10503000C003C3C001E78000E70000FF00007E005E
:10504000003C000000000000000000000000000024
:105050000000000000000000000000000000000050
:105060000000000000000000000000000000000040
:1050700000000000000000000000000078000E7832
:10508000001E78001E383C1E383C1C3C7E1C3C7EBA
:105090003C1CE73C1CE7B81DC3B81FC3F80F81F8E0
:1050A0000F81F00000000000000000000000000080
:1050B00000000000000000000000000000000000F0
:1050C00000000000000000000000000000000000E0
:1050D0000000000000000000000000001F007C0F26
:1050E00080F007C1E003E3C000F780007F00003ECE
:1050F0000000FF0001E78003C3C00781F01F00F834
:105100003E007C00000000000000000000000000E5
:10511000000000000000000000000000000000008F
:10512000000000000000000000000000000000007F
:105130000000000000000000000000003C003C1ED9
:10514000003C1E00780F00F00780F00781E003C1EB
:10515000C003C3C001E78000F78000FF00007E00AD
:10516000003E00003C0000780001F0007FE0007F7E
:1051700080000000000000000000000000000000AF
:10518000000000000000000000000000000000001F
:105190000000000000000000000000000FFFF00F02
:1051A000FFF00001E00007C0000F80001E00003C7F
:1051B0000000F80001E00003C0000780000FFFF8C6
:1051C0000FFFF800000000000000000000000000D9
:1051D00000000000000000000000000000000000CF
:1051E000000000000000000000000007E0001FE0D9
:1051F000003C000038000038000078000078000013
:1052000078000078000078001FF0001F800001F097
:105210000000780000780000780000780000780036
:10522000007800007800003800003C00001F80007B
:105230000FE000000000000000000000000000007F
:1052400000003C00003C00003C00003C00003C0032
:10525000003C00003C00003C00003C00003C000022
:105260003C00003C00003C00003C00003C00003CD6
:1052700000003C00003C00003C00003C00003C0002
:10528000003C00003C00003C00003C00003C0000F2
:105290003C000000000000000000000000000000D2
:1052A0000000000000000000000007E00007F80018
:1052B000003C00001E00001E00001E00001E00003A
:1052C0001E00001E00000E00000FF80001F8000F85
:1052D00080000E00001E00001E00001E00001E00C8
:1052E000001E00001E00001E00003C0000FC000725
:1052F000F0000000000000000000000000000000BE
:10530000000000000000000000000000000000009D
:10531000000000000000000000000000000000008D
:10532000000000000007C0001FF01E3C7C1E381F5C
:10533000FC7807F8000000000000000000000000FA
:10534000000000000000000000000000000000005D
:105350000000000000000000060000000600000041
:105360000600000006000000060000000600000025
:105370000100000003000000020000000400000023
:1053800006000000080000000A0000000C000000F9
:105390000E00000010000000808D5B00001BB700B5
:1053A000002D310101366E0180A8120100366E0118
:1053B00000512502006CDC0201A24A04DC5300000B
:1053C000000000207C000000DC14000058540000A5
:1053D0007C00002014080000EC1400000000000015
:1053E000000000002000002000000000000000007D
:1053F0000000000000000000000000000028000085
:105400000000000008001000F81700000030000045
:105410000000000010001800E81D0000004400001B
:105420000000000018002000B82F00000000040059
:10543000000000001000100000000000000000004C
:10544000040000000100000000127A0000000000CB
:08545000000000000000000054
:04000005000000C136
:00000001FF
