:020000040000FA
:1000000018020020D90000004F0300004703000041
:1000100000000000000000000000000000000000E0
:10002000000000000000000000000000EB030000E2
:10003000000000000000000079030000EF03000052
:10004000450400004D03000000000000F90100001D
:10005000ED030000FB010000FD010000FF010000B6
:100060000000000000000000000000000000000090
:10007000390100003B01000041040000430400007E
:100080004503000000000000000000000000000028
:10009000410100008D0100008F0100004B030000B2
:1000A00000000000E9030000000000003D04000023
:1000B0003F040000000000003D01000000000000BF
:1000C0000448854600F026F8004800476504000013
:1000D000C046C0461802002009480A4A002100A173
:1000E000814200D902440848026008488047084815
:1000F0000047FEE7FEE7FEE7FEE7FEE7FEE700005B
:10010000000000200000000008ED00E001040000F5
:10011000C1000000064C0125064E05E0E36807CC4F
:100120002B430C3C98471034B442F7D3FFF7CCFF75
:100130000805000028050000704770477047000060
:1001400010B501210D4800F033F8002814D001212A
:100150000A4800F01DF80A480068401C0849086079
:100160000846006807490968884205D30020044909
:10017000086001200449086210BD000000480140E9
:10018000100000200C000020400800487047704715
:10019000C2698A43C2617047002904D00269012301
:1001A0001A43026103E0026952085200026170477B
:1001B000024690690840002801D0012070470020C5
:1001C000FCE7002A03D043690B43436102E0436923
:1001D0008B4343617047000010B54A880B881A436F
:1001E000CB881A430369034C23401A4302618A886F
:1001F000026010BD59F8FFFF7047704770477047A5
:100200000EB51048006B202108430E4908630846CC
:10021000006B402108430B49086301200090202017
:100220000190802002906946074800F011F80420F0
:10023000009011200190802002906946034800F050
:1002400007F80EBD00000140000800480004004807
:100250004A68002A04D1C2690B681A43C26167E088
:10026000C2690B689A43C26110234A681A40102A77
:100270004ED102680B681A4302604A68112A07D1FE
:1002800002690B681A430261C2680B689A43C26034
:100290004A68122A07D1C2680B681A43C260026911
:1002A0000B689A430261426A0B689A434262826A0F
:1002B0000B689A438262C26A0B689A43C262026BFD
:1002C0000B689A43026381238A681A40812A03D10A
:1002D000426A0B681A43426282238A681A40822A61
:1002E00003D1826A0B681A43826284238A681A40A7
:1002F000842A03D1C26A0B681A43C26288238A68BF
:100300001A40882A14D1026B0B681A4302630FE06B
:1003100002680B689A4302604A68202A04D1426846
:100320000B689A43426003E042680B681A434260DC
:1003300070470246106D0840002801D00120704728
:100340000020FCE7704700BFFEE77047704770472A
:1003500072B61420002809DB00BF00BFC206D20E0F
:1003600001219140034A116000BF00BF00BF62B687
:100370007047000000E100E07047000010B5052064
:1003800000F016F80948406B0121090308430749AA
:1003900048630846006B2021084304490863084667
:1003A000006B402108430149086310BD0000014073
:1003B000C1020A4A128B1143094A916111464968E8
:1003C000084A1143064A516000BF05498969012264
:1003D000D20311409142F8D170470000A0071000ED
:1003E0000000014001005A5A70477047704770473B
:1003F000014802490860704700127A00000000209E
:1004000000B5FFF7F5FF0B49098B4805400D0A4978
:100410008969C90AC9020143074A91610549498BA3
:100420008805800D1146096A890A89020143116213
:1004300000BD0000A0071000000001407047704799
:1004400070477047704702E008C8121F08C1002AB1
:10045000FAD170477047002001E001C1121F002A45
:10046000FBD1704700240025FFF788FFFFF770FFDE
:10047000FFF7C6FE0020204948807D20C00088800C
:10048000FF20813008801D48FFF7A6FE012211469B
:100490001A48FFF796FE01211848FFF77DFE29E074
:1004A00004211748FFF745FF012801D1002521E06D
:1004B000002D1FD1002400E0641C7D200001844237
:1004C000FAD304210E48FFF734FF002812D101258A
:1004D0000C480068C82804D1FF20F530094908609D
:1004E00008E008480068FF21F531884202D1C820A1
:1004F00004490860D4E700000400002000480140DF
:10050000000400480C000020280500000000002026
:1005100014000000460400003C0500001400002008
:10052000040200005604000000127A0000000000DF
:0C05300000000000C800000000000000F7
:04000005000000C136
:00000001FF
