:020000040000FA
:1000000038020020D90000004D1400008B100000C1
:1000100000000000000000000000000000000000E0
:10002000000000000000000000000000E1160000D9
:1000300000000000000000004F140000EF0000006E
:100040003B17000005110000EB150000BF0C00007D
:10005000F1000000C10C0000C30C0000C50C000042
:10006000C70C00003D0C00003F0C0000410C0000DC
:100070001F07000021070000371700003917000094
:100080003D0E00003F0E00000000000000000000D8
:100090002507000081070000830700008F10000083
:1000A00000000000A516000000000000311700004D
:1000B000331700003517000023070000F10000008F
:1000C0000448854600F086FA0048004709210000F0
:1000D000C046C046380200200649086885460648E2
:1000E000804706480047FEE7FEE7FEE7FEE7FEE73B
:1000F000FEE7000000000000F5160000C10000004F
:1001000030B50B46014600202022012409E00D46AF
:10011000D5409D4205D31D469540491B2546954037
:1001200040191546521E002DF1DC30BD10B50022DD
:100130009623114600F04DF810BDC20FD2074000C3
:1001400040080BD0C10D0723DB01C9184002090587
:10015000400A1143C208400711437047002001467E
:100160007047F0B51FB40646002082B00546402413
:10017000019100901BE0019922460F46304600F0A5
:100180004BFA049A059B801A994110D310461946E0
:10019000224600F031FA361A8F410197224601209B
:1001A0000021009F00F028FA38184D4100902046A9
:1001B000641E0028DFDC019B00982946324607B008
:1001C000F0BD002904DA401C490001D1400840007C
:1001D000704770B40024050C05D11024000402D12E
:1001E000002921D01124050E01D100020834050F89
:1001F00001D10001241D850F01D18000A41C00281D
:1002000001DB4000641C002908D020252E1B0D4670
:10021000F540A14000D001212943084301061B1BE2
:10022000000ADB1D02D5002070BC7047DB051818E2
:1002300080180029F8DA401C4900F5D170BC40084C
:1002400040007047F0B507460846584087B0C00FD9
:10025000049048000E46590040084908BC1A8841DD
:1002600005D2384631461E4617460B460246580010
:10027000400810434DD0300D039040055900400D0B
:10028000490D0590401A0290402873DA18030121A5
:10029000000B09050843019004980092002806D03D
:1002A0001146019A49420020904100910190029824
:1002B00040210A1A0199009800F09EF905460C4663
:1002C0006B4607CB00F0B9F9C0197141039A0E0DC6
:1002D0000023D71756401A467A40164344D0049A52
:1002E000002A2DD0029A012A039A15DC1205C01AA1
:1002F000914101263605001C7141D20F059ED2079F
:100300000093019202962A46234600F0B6F907B000
:10031000F0BD38463146FAE71605234A0F46B218B3
:10032000C01AB74101210905001C4F4100187F4147
:10033000114618187941E20F10436D19644113E01A
:10034000E2076D0815436408C2071443039A0126A7
:100350001205C01A91413605001C7141CE074008B4
:1003600030434908C01851412A46234600F078F925
:10037000CDE7FFE7049801224000C117121A0023BD
:100380008B4104983146C417381AA141EEE730B4C6
:100390000124E407634030BC54E730B40124E4078F
:1003A000614030BC4EE700000000E0FFF0B51FB434
:1003B00088B00B990998002448400999C00F49005A
:1003C00049080991C0070B990090490049080B9111
:1003D00009990898A64608431CD00B990A98084327
:1003E00018D0099801244000420D4800410D099899
:1003F00024050003000B204309900B980003000B19
:1004000020430B9050181C494018002201901446BC
:10041000104605E0002001460DB0F0BD032801DACA
:10042000034600E003239C46C11A0AAE0AE05F00BF
:1004300008ADED5B4F00F75B7D430027AA187C41B8
:10044000491C5B1E6145F2DD410004AB5A52210498
:10045000120C0A43240C401C0828DFDB0198029090
:100460000099704601910090059B049A079906989F
:1004700000F003F9D0E700000DFCFFFFF0B50C46DB
:100480005C4085B0E40FE40703944C000026640848
:1004900059009446490802460296224321D06246FA
:1004A0000A431ED06200570D4A000E032303550D68
:1004B000012402462C492405781B1B0B360B4018DF
:1004C00023432643614600901C46501AB44103D38F
:1004D0000098401C009002E0921800985B410028B0
:1004E00003DA0020014605B0F0BD00200121090516
:1004F0000746864611E064461D46141BB54106D3E7
:100500006546521BB341744607430C43A646CD07CC
:1005100040084908284392185B4105460D43EAD13B
:100520001046184313D060461946504071400843A6
:1005300006D06046101AB34106D20122002306E01D
:1005400000220123DB0702E00122D243531000986E
:1005500074460105381C6141029C039D00196941E4
:1005600000F07EF8BFE70000FD0300004A00090329
:100570000123090B1B0519430A4B10B5520D9A4272
:1005800002DA0020014610BD064B34339A4203DCE8
:100590009A1A00F041F810BD034BD21800F02CF865
:1005A00010BD0000FF030000CDFBFFFF10B50029C8
:1005B00004DB0124E40740428C412146002B04DB8C
:1005C0001C460123DB075242A341994200D19042CD
:1005D00010BD0000064C0125064E05E0E36807CC7F
:1005E0002B430C3C98471034B442F7D3FFF76CFD13
:1005F000683B0000883B000010B5202A04DB014660
:10060000203A9140002010BD914020239C1A0346BF
:10061000E3401943904010BD10B5202A04DB084682
:10062000203AD040002110BD0B46D340D0402024BA
:10063000A21A91400843194610BD10B5202A06DBC6
:10064000CB170846203A1041C1170B4306E00B4672
:100650001341D0402024A21A91400843194610BDEE
:1006600010B5002B08DA0024401C614192185B4150
:100670001A4301D14008400010BDF0B51FB482B04C
:1006800005460C0003D0084601F06CF802E001F0CA
:1006900069F820300246009021462846FFF7ACFF5B
:1006A000049B059A04460F4618431143084314D08F
:1006B000184610431BD0009840210A1A1846059985
:1006C000FFF7AAFF05460E46009A05990498FFF722
:1006D00093FF084305D0012004E02046394607B0C7
:1006E000F0BD0020C11705430E432C43374300994A
:1006F0000E986305401A7905E40A00220C43FD0AAE
:100700000A3002D500200146E9E7010510196941C8
:100710000C9C0D9D00196941FFF7A2FFDFE77047B0
:100720007047704710B50121104800F0A5F8002867
:100730001AD001210D4800F025F80D480068401C32
:100740000B4908600B480068401C0A4908600848CB
:1007500000680A2808D300200549086001200649DE
:10076000086240030549086210BD000000480140CE
:100770001000002004000020400400484008004809
:100780007047704770B504460D460F48844205D047
:100790000E48844202D00E48844200D104E0FF217A
:1007A0005F310CA001F061FC13482840002802D101
:1007B000002D00D004E0FF21603106A001F055FCBF
:1007C000E069A843E06170BD004801400049014074
:1007D000004A01402E2E5C2E2E5C4C6962726172C2
:1007E0006965735C7372635C637733326C30333189
:1007F0005F6274696D2E6300F8FF000070B50446F7
:100800000D461148844205D01048844202D0104859
:10081000844200D103E064210EA001F026FC002DEB
:1008200001D0012D00D103E065210AA001F01DFCDB
:10083000002D04D0206901210843206103E02069D4
:1008400040084000206170BD00480140004901405F
:10085000004A01402E2E5C2E2E5C4C696272617241
:100860006965735C7372635C637733326C30333108
:100870005F6274696D2E630070B504460D461148C1
:10088000844205D01048844202D01048844200D1EE
:1008900004E0FF214E310EA001F0E7FB154828408F
:1008A000002802D1002D00D004E0FF214F3108A024
:1008B00001F0DBFBA0692840002801D0012070BDB9
:1008C0000020FCE70048014000490140004A014087
:1008D0002E2E5C2E2E5C4C69627261726965735CAF
:1008E0007372635C637733326C3033315F62746987
:1008F0006D2E6300F8FF000070B504460D461646E5
:100900001548844205D01548844202D014488442D8
:1009100000D103E0732113A001F0A7FB002E01D04A
:10092000012E00D103E074210EA001F09EFB1648B9
:100930002840002802D1002D00D003E0752109A035
:1009400001F093FB002E03D060692843606102E050
:100950006069A843606170BD0048014000490140E2
:10096000004A01402E2E5C2E2E5C4C696272617230
:100970006965735C7372635C637733326C303331F7
:100980005F6274696D2E6300F8FF000070B5054664
:100990000C461A48854205D01948854202D01948AC
:1009A000854200D103E0472117A001F05EFB60887B
:1009B000002808D06088022805D06088042802D06A
:1009C0006088062800D103E048210FA001F04DFB0C
:1009D00020881649884200DC03E049210AA001F082
:1009E00044FB6088E1880843296926229143084333
:1009F0002861A08828602088686270BD0048014096
:100A000000490140004A01402E2E5C2E2E5C4C69AC
:100A1000627261726965735C7372635C63773332AF
:100A20006C3033315F6274696D2E6300FFFF00002C
:100A30001CB51648406B012109030843134948635C
:100A400072B61420002809DB00BF00BFC206D20E18
:100A5000012191400E4A116000BF00BF00BF62B685
:100A6000002168464180C1800A49818007210180B8
:100A700069460948FFF78AFF012211460648FFF739
:100A80003BFF01210448FFF7B9FE1CBD00000140F7
:100A900000E100E04FC300000048014010B5002411
:100AA0001748006802218843801C1549086004E04B
:100AB000601CC4B2012001F0D9FA1148403000692D
:100AC00002210840002801D00A2CF1DB0A2C01DBAE
:100AD000012010BD002404E0601CC4B2012001F01C
:100AE000C5FA07484030006902210840002801D1BA
:100AF0000A2CF1DB0A2C01DB0120EAE70020E8E701
:100B0000000400480EB50A48006B2021084308493C
:100B10000863802002902020019002200090694606
:100B2000044800F0FDF800F071F8FFF7B7FF0EBDC4
:100B3000000001400004004810B5002404E0601CDF
:100B4000C4B2012001F092FA114800690221084064
:100B5000002801D00A2CF2DB002404E0601CC4B29F
:100B6000012001F083FA0A480069022108400028A8
:100B700001D10A2CF2DB042001F078FA0448006964
:100B800002210840002801D0012010BD0020FCE710
:100B90004004004870B50024002506E06006040EFD
:100BA000FFF7CAFF0443681CC5B2082DF6DB2046D8
:100BB00070BD7CB505460E4600F028F8FFF76EFFC5
:100BC00000281FD1002405E0FFF7E4FF694608551F
:100BD000601CC4B2052CF7DB684601784078091820
:100BE0006846807809186846C07809186846007910
:100BF000814209D16946087830708878FFF796FA03
:100C0000286001E001207CBD0020FCE710B50A4807
:100C100000680221884308490860022006494031E3
:100C20008861142001F044FA022003494031C86170
:100C3000032001F01BFA10BD000400487047704704
:100C400070470000F8B506460F4614461D46184882
:100C50003B46224639460090304600F0ADF9144834
:100C60002B46324639460090304600F0A5F911482F
:100C70006B1E691E22460090701C00F09DF90E4804
:100C80002B46224629460090304600F095F9094847
:100C9000621E0090601E2B46791C00F08DF90648FC
:100CA0002B46224639460090204600F085F9F8BDD3
:100CB000FFFF0000108400000842000070477047EA
:100CC00070477047704770470EB51348006B10218E
:100CD0000843114908630846006B402108430E4948
:100CE00008638020029020200190802000906946B7
:100CF0000920C00600F014F80120400300902020D5
:100D000001906946054800F00BF8002201214903D3
:100D1000024800F08DF80EBD0000014000080048B8
:100D20001722D2068218002A0AD001239B02D21A67
:100D30000DD0D21A12D003239B02D21A1DD114E077
:100D40003A4A126B10231A43384B1A6316E0374A9B
:100D5000126B20231A43354B1A630FE0334A126B90
:100D600040231A43314B1A6308E0304A126B0123C7
:100D70005B021A432D4B1A6300E000BF00BF4A68B4
:100D8000002A04D1C2690B681A43C2614DE0C269EE
:100D90000B689A43C26110234A681A40102A34D162
:100DA00002680B681A4302604A68112A07D1026977
:100DB0000B681A430261C2680B689A43C2604A68B2
:100DC000122A07D1C2680B681A43C26002690B6815
:100DD0009A430261426A0B689A434262826A0B68D4
:100DE0009A43826281238A681A40812A03D1426A27
:100DF0000B681A43426282238A681A40822A14D1FD
:100E0000826A0B681A4382620FE002680B689A4399
:100E100002604A68202A04D142680B689A43426003
:100E200003E042680B681A434260704700000140CB
:100E3000012A01D1C16500E08165704770477047A4
:100E4000FFB581B00646B0B20090AAE00A980078DB
:100E500080283ADA0A9807780D2F04D1009E02986C
:100E6000103002902DE0202F03DD3846203887B265
:100E700000E00027002521E000241BE03801401994
:100E80004B49085C802121410840002806D0029A85
:100E900051193019039A00F0EAF809E0049903980F
:100EA000884205D0029A51193019049A00F0DFF8EF
:100EB000601CC4B2082CE1DB681CC5B2102DDBDB62
:100EC00008360A98401C0A906BE0002763E0222055
:100ED00078433849095C0A980078814259D1222028
:100EE00078433449401841780A984078814250D17B
:100EF00000254CE000241EE0222078432D494018B4
:100F0000801C6900405C802121410840002806D0F7
:100F1000029A51193019039A00F0A9F809E00499CE
:100F20000398884205D0029A51193019049A00F0AA
:100F30009EF8601CC4B2082CDEDB002423E02220D3
:100F400078431C494018801C6900491C405C802182
:100F500021410840002808D0029A51193219104640
:100F60000830039A00F083F80BE004990398884254
:100F700007D0029A5119321910460830049A00F02D
:100F800076F8601CC4B2082CD9DB681CC5B2102DE1
:100F9000B0DB781C87B2642F99DB0A98801C0A901A
:100FA00010360A980078002800D04FE705B0F0BD51
:100FB000B0210000222F0000FFB585B006990598EA
:100FC00000F019FA05990798451A06990898461AE3
:100FD000002D02DB0120029003E00020C0430290BC
:100FE0006D42002E02DB0120019003E00020C0438F
:100FF000019076426800049070000390B5421ADDBB
:101000000398441B002713E00E9A0699059800F0F8
:101010002EF8002C05DB0498241A01990698401834
:1010200006900398241802990598401805907F1C93
:10103000AF42E9DD19E00498841B002713E00E9A03
:101040000699059800F013F8002C05DB0398241A84
:10105000029905984018059004982418019906985B
:10106000401806907F1CB742E9DD09B0F0BD70B5AD
:1010700006460C461546631C721C2146304600F09D
:1010800091F9284600F02AF870BD00BFFEE77047CE
:101090000EB51048006B202108430E49086308462E
:1010A000006B102108430B49086380200290202028
:1010B000019001200090F020009069460648FFF75B
:1010C0002FFE0120C003009069460920C006FFF7EB
:1010D00027FE0EBD000001400004004810B5044684
:1010E0002020074988611020C8612104080E00F003
:1010F000DBFAE0B200F0D8FA20200149C86110BD47
:1011000040040048704770B50646A9238B22002191
:10111000084600F047F92C2000F088F9002408E088
:10112000002503E03046FFF7D9FF6D1CAA2DF9D347
:10113000641C8C2CF4D370BD10B5FFF7A9FF00F030
:1011400017F9112000F072F9002400E0641C8748B0
:101150008442FBD3002400E0641C84488442FBD317
:10116000B12000F063F9012000F050F92C2000F0CC
:101170004DF92D2000F04AF9B22000F057F9012076
:1011800000F044F92C2000F041F92D2000F03EF948
:10119000B32000F04BF9012000F038F92C2000F0CA
:1011A00035F92D2000F032F9012000F02FF92C2024
:1011B00000F02CF92D2000F029F9B42000F036F9C8
:1011C000072000F023F9C02000F030F9A22000F041
:1011D0001DF9022000F01AF9842000F017F9C1204F
:1011E00000F024F9C52000F011F9C22000F01EF92A
:1011F0000A2000F00BF9002000F008F9C32000F0ED
:1012000015F98A2000F002F92A2000F0FFF8C42026
:1012100000F00CF98A2000F0F9F8EE2000F0F6F862
:10122000C52000F003F90E2000F0F0F8362000F0A1
:10123000FDF8C02000F0EAF8E02000F0F7F80F20F9
:1012400000F0E4F81A2000F0E1F80F2000F0DEF8DA
:10125000182000F0DBF82F2000F0D8F8282000F04C
:10126000D5F8202000F0D2F8222000F0CFF81F207F
:1012700000F0CCF81B2000F0C9F8232000F0C6F8DD
:10128000372000F0C3F8002000F0C0F8072000F07D
:10129000BDF8022000F0BAF8102000F0B7F8E12005
:1012A00000F0C4F80F2000F0B1F81B2000F0AEF8F9
:1012B0000F2000F0ABF8172000F0A8F8332000F062
:1012C000A5F82C2000F0A2F8292000F09FF82E208D
:1012D00000F09CF8302000F099F8302000F096F8EB
:1012E000392000F093F83F2000F090F8002000F043
:1012F0008DF8072000F08AF8032000F087F810200E
:1013000000F084F82A2000F091F8002000F07EF828
:10131000002000F07BF8002000F078F87F2000F03B
:1013200075F82B2000F082F8002000F06FF8002004
:1013300000F06CF8002000F069F89F2000F066F8DB
:10134000F02000F073F8012000F060F8F62000F0C3
:101350006DF8002000F05AF83A2000F067F80520F8
:1013600000F054F8292000F061F810BDE8FD0000FD
:101370000121C903094A9161002000E0401C08498D
:101380008842FBD30121C903044AD161002000E057
:10139000401C03498842FBD37047000040000048CE
:1013A00070170000F0B505460C4616461F462A2069
:1013B00000F03CF8002000F029F8E8B200F026F830
:1013C000002000F023F8B11CC8B200F01FF82B2059
:1013D00000F02CF8002000F019F8E0B200F016F848
:1013E000002000F013F8791CC8B200F00FF82C2090
:1013F00000F01CF8F0BD30B504460D462B462246E1
:1014000029462046FFF7CEFF30BD000010B5044648
:101410002020054988611020C861204600F044F969
:1014200020200149C86110BD4004004810B50446A1
:1014300020200549886110208861204600F034F999
:1014400020200149C86110BD400400487047704722
:1014500070B504460D460C482040002802D1002CEF
:1014600000D003E009490AA000F0FFFD002D05D0DF
:101470001048006B20430F49086304E00D48006BDF
:10148000A0430C49086370BD08F0FFFF4B02000049
:101490002E2E5C2E2E5C4C69627261726965735CE3
:1014A0007372635C637733326C3033315F726363C2
:1014B0002E6300000000014070B504460D460C4844
:1014C0002040002802D1002C00D003E009490AA0E6
:1014D00000F0CBFD002D05D01048406B20430F4994
:1014E000486304E00D48406BA0430C49486370BD5D
:1014F00069C0FFFF7B0200002E2E5C2E2E5C4C6923
:10150000627261726965735C7372635C63773332B4
:101510006C3033315F7263632E6300000000014062
:1015200010B5052000F018F801211020FFF790FFFA
:1015300001214802FFF7C0FF0648406B0121090363
:101540000843044948630846006B202108430149C9
:10155000086310BD0000014010B50446062C0FD0F2
:10156000082C0DD0092C0BD0052C09D00B2C07D042
:101570000C2C05D00D2C03D00E2C01D00F2C00D13B
:1015800004E0FF210B310CA000F06FFDE0021349D5
:101590000988084312498861084640681149084390
:1015A0000F49486000BF0E4880690121C903084007
:1015B0008842F8D110BD00002E2E5C2E2E5C4C69A6
:1015C000627261726965735C7372635C63773332F4
:1015D0006C3033315F7263632E630000000A1000C9
:1015E0000000014001005A5A7047704708B5224870
:1015F000FFF789FD21A0204B1F22052100900F201D
:10160000FFF71EFC2D23502219210520FFF71AFB9E
:101610001EA0194B0022192100900A20FFF710FC90
:101620001CA0154B0022192100902D20FFF708FC6B
:10163000432350222F210520FFF704FB16A00E4B59
:1016400000222F2100900A20FFF7FAFB14A00A4B7A
:1016500000222F2100902D20FFF7F2FB2D237D2269
:101660001B215520FFF7EEFA43237D22312155201F
:10167000FFF7E8FA08BD00007DEF00004357333262
:10168000CAB5D1E9C6BDCCA800000000CEC2B6C81C
:101690000000000028432900CAAAB6C800000000C4
:1016A00028252900704700000021082112E080222F
:1016B0000240002A03D08022084BDA6102E0802237
:1016C000064B9A614022054B9A61DA614206100E80
:1016D0004A1ED1B20029EADC7047000040040048ED
:1016E00070470000014802490860704700127A0004
:1016F0000000002000B5FFF7F5FF0B4909884805F9
:10170000400D0A498969C90AC9020143074A916122
:10171000054949888805800D1146096A890A8902A8
:101720000143116200BD0000000A100000000140EA
:101730007047704770477047704770470FB410B5D7
:1017400004A9074B02AA039800F0ECF8044602A98A
:10175000002000F085FC204610BC08BC04B01847EF
:10176000612000002021020C01D010211046020A45
:1017700001D010460839020901D01046091F82081D
:1017800001D01046891E420801D0881E7047081AF1
:10179000704702E008C8121F08C1002AFAD170473A
:1017A0007047002001E001C1121F002AFBD17047E1
:1017B000F0B51FB486B00998089A030D00210243C2
:1017C00014D05148514A1818504305141198012853
:1017D00010981AD0281A401C00264D4F4D490096EB
:1017E00001910490002812DA444211E0119801247A
:1017F00049A3012801D11098C1430698119A846029
:101800000360C26041600BB0F0BD4042E4E70446B3
:10181000210500203F4A001C51410391029012E033
:10182000E00707D032463B4601990098FEF7BEFD1F
:101830000191009032463B4610461946FEF7B6FD30
:1018400006460F466410002CEAD10498039B00283A
:10185000029A0999089806DAFEF7A8FD019B009AFA
:10186000FEF7A4FD05E0FEF709FE019B009AFEF7D6
:1018700005FE04460E460022284BFEF797FE03D8CD
:101880000020C043014607E00022254B2046314698
:10189000FEF7D8FCFEF76AFE102409E0002C0ADBF4
:1018A0000A220023FEF75DFC079B30321A55641EA6
:1018B00002460A43F2D11122641C079B121B1C1919
:1018C000119B012B03D0012308430ED10AE00843EA
:1018D00004D0112010900020119077E71098151A6D
:1018E0006D1E0BE01098824202DD00236D1C03E0A8
:1018F000824201DA00236D1E002BEED0069811996A
:101900008260C16030C07EE701FCFFFF104D000027
:10191000000014400000F03F300000000000F043E1
:101920000000E03FFFB597B0064600251BE22528E2
:1019300076D100242746F749049400E00443761C3E
:1019400032780120203A90400842F7D130782A2896
:101950000ED00222307801463039092916D8049970
:101960000A235943303940181443761C0490F1E798
:10197000189802C804911890002904DA0120400345
:1019800004434842049002200443761C30782E28F9
:1019900014D1042004437078761C2A2809D11898A1
:1019A000761C80C8189009E00A214F43303FC719C0
:1019B000761C3078014630390929F5D930786C2801
:1019C00010D006DC4C281AD068280ED06A2817D10F
:1019D00004E0742813D07A2812D110E001204005C9
:1019E00004430CE00121090501E0032109050C4332
:1019F0007178814203D1012000052418761C761CE1
:101A0000307866280BD013DC58287DD009DC0028FC
:101A10007BD04528F6D04628F4D047281AD1A9E132
:101A200018E0632835D0642870D0652812D1A1E170
:101A300070286CD008DC6728F1D069287DD06E282A
:101A40000DD06F2806D1BCE073282ED0752873D036
:101A5000782859D01A9A199990476D1C82E1600232
:101A6000400F022809D003280DD0042818980168D7
:101A70000DD00D60001D189074E11898EA170168E8
:101A80000D604A60F6E7189801680D80F2E70D7066
:101A9000F0E718986A4601781172001D189000202E
:101AA000507202A80090012005E0189802C8189012
:101AB00000200091C04361070ED5002101E001998B
:101AC000491C0191B94213DA8142F8DB019A00996D
:101AD000895C0029F3D10BE0002101E00199491C48
:101AE00001918142FADB019A0099895C0029F5D1C4
:101AF000019904981A9B471A21463846199A00F012
:101B000099FA4019019903E051E030E115E050E005
:101B1000451807E0009800990078491C00911A9A2E
:101B2000199990470198401E0190401CF2D121461E
:101B300038461A9B199A12E137E00A2000210090DA
:101B400001916002410F022907D0189A01CA189228
:101B5000C2179446032908D00AE01898C01DC1088E
:101B6000C90005C91891944607E000B2C21794460F
:101B7000042902D140B2C1178C4600226146944527
:101B800006DA0A460021404291418C462D2102E0AE
:101B9000210504D52B216A461173012103E0E107D9
:101BA00001D02021F7E7029156E00A200AE0102038
:101BB00008E0102000900021042004430191082730
:101BC00003E008200021019100906002410F0229EA
:101BD00007D0189A01CA189200229446032908D007
:101BE00008E01898C01DC108C90005C9189194469D
:101BF00003E080B2042900D1C0B200210291210784
:101C00002AD531780D91702906D0009A1021019BB8
:101C10004A401A4305D00EE040216A461173012163
:101C200008E06146014306D030216A4611730D99E0
:101C3000517302210291009A0821019B4A401A43E4
:101C40000AD16146014301D1610705D530216A46B9
:101C5000117301217F1E02913178582904D02EA1E1
:101C60000E910DA90D910DE030A1F9E76146019BA0
:101C7000009AFEF776FA0E9B8C469B5C0D9A521EDC
:101C80000D92137061460143F0D10D9805A9081A11
:101C900020300190600703D501200004844300E058
:101CA00001270198874201DD381A00E000200199E0
:101CB00000904118029809180498401A0490E00313
:101CC00006D421461A9B199A049800F0B3F94519D5
:101CD000002706E003A81A9AC05D199990476D1C69
:101CE0007F1C02988742F5DBE0030CD521461A9B46
:101CF000199A049800F09EF9451904E01A9A3020C8
:101D0000199990476D1C0099481E00900029F5DC38
:101D10001FE00000092801003031323334353637F6
:101D20003839616263646566000000003031323327
:101D300034353637383941424344454600000000C7
:101D40000D980D990078491C0D911A9A1999904790
:101D50006D1C0199481E01900029F1DC4DE100F055
:101D600059F94519761C3078002800D0DFE528465F
:101D70001BB0F0BD600700D406271898C01DC1082D
:101D8000C90048680A680831C30FDB0718911900B9
:101D900001D09CA108E0210501D59BA104E0E10749
:101DA00001D09AA100E09AA14300109130785B081D
:101DB00065280CD006DC452809D046281DD04728C8
:101DC00041D141E0662818D067283CD13CE0002191
:101DD000112F01DB112000E0781C0191009008A96F
:101DE00011A8FFF7E5FC139905910021119A1592AE
:101DF0007F1C12980197009150E00120C0070390CA
:101E00000120019008A9009711A8FFF7D1FC139AAF
:101E1000149905920022119B009212981593059A2D
:101E20000192002901D0104602E0791C401801906F
:101E3000381A01D5019804E04042401E0090781CF9
:101E40000190C01B029043E0012F00DA012700211E
:101E5000112F01DD112000E038460191009008A902
:101E600011A8FFF7A5FC13990591119A002112986A
:101E700015920091019721070CD40599B94201DB15
:101E8000019900E00191012904DD159A491E515C78
:101E9000302906D0B84201DA011D05DA012102918C
:101EA00015E00199491EEDE7002805DC009941186D
:101EB00000910199091A03E0019A411C914200DD49
:101EC00001910099401A401C02900120C007039024
:101ED000200706D402990198814202DB0020C0430A
:101EE000029000206946C87707AF012103980337A5
:101EF000C907884224D0022011902B201290039809
:101F000000280CDA404203902D20129007E00A21AD
:101F10000398FEF7F5F830317F1E03903970119960
:101F2000481E11900029F2DC03980028EFD1791E99
:101F3000129808703078202108404530BF1E387054
:101F400006A8C01BC01D039010980078002800D080
:101F50000120019941180298C0170918039809181F
:101F60000498401A401E0490E00306D421461A9BB0
:101F7000199A049800F05EF8451910980078002826
:101F800003D01A9A199990476D1CE00324D5214675
:101F90001A9B199A049800F04DF845191CE0009816
:101FA000002807DB00990598884203DD1598405CFE
:101FB000199901E0199930201A9A904700986D1CE0
:101FC000401C00900298401E0290002804D11A9AEA
:101FD0002E20199990476D1C0199481E01900029E7
:101FE000DDDC05E038781A9A7F1C199990476D1C42
:101FF0000399481E03900029F4DC21461A9B199A84
:102000000498ACE62D0000002B000000200000002A
:1020100000000000F8B5044600251E461746880457
:1020200004D405E039462020B0476D1C641EF9D564
:102030002846F8BDFFB50446002581B01E46C803FA
:1020400001D5302700E02027880404D505E0384674
:102050000399B0476D1C641EF9D5284605B0F0BD44
:102060000A68531C0B6010707047704701460E4A97
:102070000E4B5A6100229A6105221A6109E0002282
:102080000A4B9A6108484F3800BF084A9269824259
:10209000FBD80A46491E002AF1D1044A12695208A7
:1020A0005200024B1A617047FFFFFF0000E000E0A2
:1020B00070B5054611481249486100208861052025
:1020C000086110E000200E4988617D21C9000D489B
:1020D0000068FEF715F8012109060C1A00BF084830
:1020E0008069A042FBD828466D1E0028EAD104482A
:1020F0000069400840000249086170BDFFFFFF0011
:1021000000E000E00000002008B5FFF709FAFEF744
:10211000DBFDFEF78DFCFFF70FF81C48FEF7F3FF21
:10212000FFF764FA00BFFEF7EDFC0028FBD12BE0BF
:1021300017480068012827D900201549086015496B
:102140001548FEF736FD14480068FDF7F6FF044613
:1021500022460B4611A11348FFF7F0FA0D4802780A
:1021600011A11248FFF7EAFA0E48084B1F22192165
:1021700000905A20FEF764FE0C48044B1F222F21CA
:1021800000905A20FEF75CFED2E700007DEF0000D1
:10219000040000200C0000200800002025302E3113
:1021A00066000000140000202564000023000020C9
:1021B000000000000000000000000000000000001F
:1021C000001010101010101010100000101000005F
:1021D00000006C6C242400000000010000000000DE
:1021E0000024242424FE48484848FC909090900005
:1021F00000103C54929050381412129254781000EF
:102200000000225C94A8481010242A525488000030
:10221000000030484850206E54948C888A74000026
:10222000000030301010000000000000000000002E
:102230000004081010202020202020101008040086
:10224000008040202010101010101020204080002E
:102250000000000010543810385410000000000036
:1022600000000010101010FE1010101000000000F0
:10227000000000000000000000000000101020001E
:1022800000000000000000FE000000000000000050
:10229000000000000000000000000000101000001E
:1022A0000000040408081010202040408080000036
:1022B0000000384482828282828282824438000016
:1022C000000010701010101010101010107C000082
:1022D00000003844828204081020408284FC000000
:1022E00000003844820204380402028244380000AC
:1022F0000000040C141424244444FE04040E0000C2
:102300000000FC808080B8C48202028284780000D1
:1023100000003C428280B8C482828282443800003D
:1023200000007E428204040808081010101000000B
:10233000000038448282443844828282443800005B
:102340000000384482828282463A02824438000089
:10235000000000001010000000001010000000003D
:10236000000000001010000000000010102000000D
:1023700000000000061860806018060000000000E1
:10238000000000000000FE0000FE00000000000051
:1023900000000000C0300C020C30C0000000000043
:1023A000003844828202040810101000101000004F
:1023B00000003844829AAAAAAAAAAA9680423C009F
:1023C000000010101028282844447C4444EE0000EB
:1023D0000000FC424242427C4242424242FC000037
:1023E00000003C44828080808080828244380000EB
:1023F0000000F844424242424242424244F8000055
:102400000000FC444240447C4440404244FC000004
:102410000000FC444240447C4440404040F0000006
:102420000000344C828080808E8484844C34000090
:102430000000EE444444447C4444444444EE0000E0
:1024400000007C101010101010101010107C0000F4
:1024500000003E080808080808080888887000007E
:102460000000EE44484850605048484444EE0000A4
:102470000000E040404040404040404244FC0000FA
:102480000000C6446C6C6C545454444444EE000048
:102490000000CE4464646454544C4C4C44E400004A
:1024A0000000384482828282828282824438000024
:1024B0000000F844424242447840404040E000007E
:1024C0000000384482828282828282BA443C0200C6
:1024D0000000F048444444487048444444E6000046
:1024E00000003C44828040300C02028244780000AC
:1024F00000007C54921010101010101010380000C2
:102500000000EE44444444444444444444380000FD
:102510000000EE44444444282828281010100000ED
:102520000000EE44545454545454282828280000E1
:102530000000EE44442828101028284444EE0000EF
:102540000000EE4444282828101010101038000015
:1025500000007E44840808102020408284FC000093
:10256000001C1010101010101010101010101C0073
:102570000000EE445454FE545454282828280000E7
:1025800000701010101010101010101010107000AB
:10259000003048840000000000000000000000003F
:1025A0000000000000000000000000000000FE002D
:1025B00000402000000000000000000000000000BB
:1025C0000000000000007884047C84848C76000085
:1025D0000000C040404058644242424264580000FB
:1025E00000000000000038448080808044380000F3
:1025F00000000C040404344C848484844C360000B1
:10260000000000000000788484FC80808478000052
:10261000000018242020F820202020202070000016
:102620000000000000003A444478807C82827C00F4
:102630000000C040404058644444444444EE00001C
:1026400000001010000030101010101010380000A2
:1026500000001010000030101010101010906000DA
:102660000000C04040405C485060504844EE0000CC
:102670000000301010101011101010101039000050
:10268000000000000000ACD29292929292D600001C
:1026900000000000000058E44444444444EE0000BC
:1026A000000000000000384482828282443800002A
:1026B000000000000000D864424242645840E0003C
:1026C000000000000000364C8484844C34040E006A
:1026D0000000000000006C3020202020207000004E
:1026E00000000000000078888460188444780000AE
:1026F000000000202020F8202020202024180000A6
:10270000000000000000C64242424242463A000039
:10271000000000000000EE444428282810100000AB
:10272000000000000000EE44445454282828000013
:10273000000000000000EE442810102844EE0000C5
:10274000000000000000EE444428281010A0C00043
:102750000000000000007E448810204284FC00003D
:10276000000C1010101010601010101010100C0041
:102770000010101010101010101010101010100079
:1027800000C0202020202018202020202020C00051
:1027900000000000000000728C000000000000003B
:1027A0000000000000001FE000003FF000003FF0CC
:1027B00000001FE0000180060003C00F0003C00FEF
:1027C0000003C00F0003C00F0003C00F0003C00FC1
:1027D0000003C00F0003C00F00030003000000004F
:1027E0000000000000000000000300030003C00F11
:1027F0000003C00F0003C00F0003C00F0003C00F91
:102800000003C00F0003C00F0003C00F00018006CB
:1028100000001FE000003FF000003FF000001FE05C
:1028200000000000000000000000008000000180A7
:102830000000038000000780000007800000078080
:10284000000007800000078000000780000007806C
:1028500000000780000007800000018000000000E9
:102860000000000000000000000001800000078060
:10287000000007800000078000000780000007803C
:10288000000007800000078000000780000007802C
:1028900000000380000001800000008000000000B4
:1028A0000000000000001FE000003FF00000FFF00B
:1028B0000001FFE0000000060000000F0000000F14
:1028C0000000000F0000000F0000000F0000000FCC
:1028D0000000000F0000000F00001FE300007FF861
:1028E00000007FF800001FE0000300000003C000AC
:1028F0000003C0000003C0000003C0000003C000CC
:102900000003C0000003C0000003C00000018000FD
:1029100000001FF000003FF800003FFC00001FFE19
:10292000000000000003FF800001FFC00000FFC0A6
:1029300000007F80000000180000003C0000003C08
:102940000000003C0000003C0000003C0000003C97
:102950000000003C0000003C00007F8C0001FFE014
:102960000001FFF000007F800000000C0000003C30
:102970000000003C0000003C0000003C0000003C67
:102980000000003C0000003C0000003C000000187B
:1029900000007F800000FFC00001FFC00003FF8037
:1029A000000000000000000000020001000300031E
:1029B000000380070003C00F0003C00F0003C00F17
:1029C0000003C00F0003C00F0003C00F0003C00FBF
:1029D0000003C00F0003C00F00031FE300007FF8D7
:1029E00000007FFC00001FE0000000030000000F5B
:1029F0000000000F0000000F0000000F0000000F9B
:102A00000000000F0000000F0000000F0000000F8A
:102A100000000007000000030000000100000000AB
:102A20000000000000001FFC00003FF800003FF025
:102A300000001FE0000180000003C0000003C00090
:102A40000003C0000003C0000003C0000003C0007A
:102A50000003C0000003C00000031FE000007FF877
:102A600000007FF800001FE0000000030000000FDE
:102A70000000000F0000000F0000000F0000000F1A
:102A80000000000F0000000F0000000F0000000613
:102A900000003FE000007FF00000FFF00001FFE0D9
:102AA0000000000000001FFC00003FF800003FF0A5
:102AB00000001FE0000180000003C0000003C00010
:102AC0000003C0000003C0000003C0000003C000FA
:102AD0000003C0000003C00000031FE000007FF8F7
:102AE00000007FFC00001FE0000300030003C00F94
:102AF0000003C00F0003C00F0003C00F0003C00F8E
:102B00000003C00F0003C00F0003C00F00018006C8
:102B100000001FE000003FF000003FF000001FE059
:102B2000000000000007FFE00003FFC00001FF8875
:102B30000000FF1800000038000000780000007856
:102B400000000078000000780000007800000078A5
:102B5000000000780000007800000018000000006D
:102B600000000000000000000000001800000078D5
:102B70000000007800000078000000780000007875
:102B80000000007800000078000000780000007865
:102B900000000038000000180000000800000000DD
:102BA0000000000000001FE000003FF000003FF0C8
:102BB00000001FE0000180060003C00F0003C00FEB
:102BC0000003C00F0003C00F0003C00F0003C00FBD
:102BD0000003C00F0003C00F00031FE300007FF8D5
:102BE00000007FFC00001FE0000300030003C00F93
:102BF0000003C00F0003C00F0003C00F0003C00F8D
:102C00000003C00F0003C00F0003C00F00018006C7
:102C100000001FE000003FF000003FF000001FE058
:102C20000000000000001FE000003FF000003FF047
:102C300000001FE0000180060003C00F0003C00F6A
:102C40000003C00F0003C00F0003C00F0003C00F3C
:102C50000003C00F0003C00F00031FE300007FF854
:102C600000007FFC00001FE0000000030000000FD8
:102C70000000000F0000000F0000000F0000000F18
:102C80000000000F0000000F0000000F0000000611
:102C900000001FE000003FF000007FF00000FFE0B8
:102CA0000000000000000000000000000000000024
:102CB0000000000000000000000000000000000014
:102CC0000000000000000000000000000000000004
:102CD00000000000000000000000000000000000F4
:102CE00000000000000000000000000000000000E4
:102CF000000000000000780000007800000078006C
:102D0000000078000000780000007800000000005B
:102D100000000000000000000000000000000000B3
:102D200000000000000000000000000000000000A3
:102D30000000000000000000000000000000000093
:102D40000000070000000F8000000F8000000F80CF
:102D5000000007000000000000000000000000006C
:102D6000000000000000000000000000000007005C
:102D700000000F8000000F8000000F80000007009F
:102D80000000000000000000000000000000000043
:102D90000000000000000000000000000000000033
:102DA0000000000000000000000000000000000023
:102DB0000007C006000FE0060000000C00301818E5
:102DC000003018180030183000301830003018600B
:102DD000003008C00007C0C0000FE0800000000005
:102DE0000000000FE0000607C000063018000C309D
:102DF00018000C301800183018003030180030302F
:102E0000180060000000C00FE000C007C000000014
:102E100000000000000000000000000000000000B2
:102E200000000000000000000000000000000000A2
:102E30000000000000000000000700E0000887FC20
:102E400000088E03000898018007180080003000F9
:102E50000000300000007000000060000000600012
:102E600000006000000060000000600000007000D2
:102E700000003000000030000000380000001801A1
:102E800000000C03000007FC000001F0000000003F
:102E90000000000000000000000000000000000032
:102EA0000000000000000000000000000000000022
:102EB0000000000000000000000000000000000012
:102EC0000000000000000000000000000000000002
:102ED00000000000000000000000000000003FF0C3
:102EE00000007FF000007FE00000FFC00000000055
:102EF00000000000000000000000000000000000D2
:102F000000000000000000000000000000000000C1
:102F100000000000000000000000000000000000B1
:102F20000000D6C720003E7C48440844FF441444B7
:102F3000227C40001FF0101010101FF01010101015
:102F40001FF01010C4DC104024444248FF700140C0
:102F500000427E42423E42007E44424842707E40F1
:102F600042424A42443ECEEF10801080508050FCD6
:102F70007D545254905410941C94F12452241044C3
:102F80001044108411281010C1AA0088FC48485031
:102F9000480079FC4820482078204BFE48204C50BF
:102FA0007850C888088809040A02BAEC100010009A
:102FB00021FC24204420F820102020204020FC2048
:102FC000402000201C20E02043FE0000CDE2104005
:102FD0001040104010403E40226042504248A444FD
:102FE0001444084008401040204040408040B2E275
:102FF000000427C4144414548554455445541554AE
:1030000015542554E554210422842244241408082C
:10301000CEC210401020202023FE4840F888110422
:1030200023FE4092F890409000901912E112420E57
:103030000400CFB500F83F000400082010403F8096
:103040000100061018087FFC010409201110210856
:1030500045040200CDB310401020202023FE48403C
:10306000F888110423FE4092F890409000901912C5
:10307000E112420E0400CDA8000047F8201021A064
:10308000004007FCE444244427FC2444244427FC57
:103090002444245454088FFEB9FD00102010101051
:1030A00017FE00100010F210111011101010101067
:1030B00010501020280047FE0000C8CB010001007E
:1030C0000100010001000100028002800440044070
:1030D000082008201010200840048002CAFD0820A3
:1030E00049202A20083EFF442A44494488A4102845
:1030F000FE2822104210642818283444C282B1A845
:10310000100011FC11041104FD141108110015FC2C
:1031100019443144D1281128111011285144218219
:10312000BEAF2420FF20247E7EC482287A104A2845
:103130007AC60500FFFE00003FF800003FF82008B7
:103140003FF8C8CB010001000100010001000100AF
:10315000028002800440044008200820101020084B
:1031600040048002CAFD082049202A20083EFF446E
:103170002A44494488A41028FE28221042106428BA
:1031800018283444C282C8CB0100010001000100AC
:103190000100010002800280044004400820082051
:1031A0001010200840048002CCE508400840084088
:1031B000104017FC304030E050E091501150124860
:1031C00015F41842104010401040CEC2000023F801
:1031D0001208120883F84208420813F8100027FC6E
:1031E000E4A424A424A424A42FFE0000B6C8010053
:1031F00000803FFE222022203FFC2220222023E0CC
:1032000020002FF02410422041C08630380EBBB77A
:1032100000000000FDFE10101010102010207C682F
:1032200010A41122122210201C20E0204020002097
:10323000BEB32080204023F82110F8A027FE2000F4
:1032400023F8220823F822083BF8E1204122022239
:103250000C1EB1ED010001007FFC010001003FF8F0
:1032600001000100FFFE0500088818502820C91839
:103270000A060C00C3E60000FFFE02000200040084
:103280003FF82448244827C82448244827C824480D
:1032900024483FF82008BEE000007DFE45004500C0
:1032A00045007DFC110411045D04510451FC5100E2
:1032B0005D00E10001FE0000C0EB02000100FFFE26
:1032C00000001450139014501FF001007FFC4204C2
:1032D00044444FE4442440144008CDF800007FFCEF
:1032E00040044004421452944A54442444244A540E
:1032F0004A5452946104400440144008C2E71080CC
:10330000108020F821084B10FCA0104020A041188C
:10331000FA0645F801081908E10841F80108C1ACAE
:103320000040204017FE108000A00120F3FC102078
:103330001020102017FE10201020282047FE00002B
:10334000BDD31080104013FC1000FD08109017FE34
:103350001040184037FED088110810901060519826
:103360002604D6D001000100010001003FF8210829
:1033700021082108210821083FF821080100010047
:10338000010001002E00000000000000000000000D
:10339000000060600000000000000000181800003D
:1033A000000018180000CAAA000027F81408140822
:1033B00087F84408440817F811202120E92425281B
:1033C000233021202FFE0000B6C8010000803FFE00
:1033D000222022203FFC2220222023E020002FF068
:1033E0002410422041C08630380EC6F8100010006C
:1033F0003FFC20004FF080003FF000100010001054
:1034000000100010000A000A00060002CFF30800B6
:103410001FE020207FF8A10822083FF806001910BD
:1034200062A00CC071A006901888E2860100D5BE8B
:103430001020082008207E20003E04204420442044
:1034400025FC290429040F04F104410401FC0104B2
:10345000D3EA0000FFFE0100010001007FFC4104EF
:10346000410449444524410449444524410441144C
:103470004008C1BF00001FF010101FF01010FFFE29
:1034800000001FF011101FF011101FF001001FF0BD
:1034900001007FFCB7E700003FF02010201028500B
:1034A0002450229022902110211022902292244A0E
:1034B000484A40068002CBD90040204017FC10400B
:1034C00003F80248F24813F810E01150124814446F
:1034D0001040280047FE0000B4B408040804140497
:1034E0001224212440A4BE242224222422242A247B
:1034F0002424208420841F940008D0C210000804D3
:103500007F78004022401440FF7E084808487F48EA
:1035100008482A484948888828881108CAB50200FE
:1035200001007FFE400288840480048010800880AF
:103530000880FFFE01400220041018086004D1E951
:103540000020F82008504850488849044AFA7C0076
:10355000044404241D24E4A8448804102BFE100015
:10356000C6BD00007FFC01000100111009100920F8
:103570000100FFFE01000100010001000100010047
:103580000100CCA80200020004000820101020084E
:103590007FFC200400001FF01010101010101010FD
:1035A0001FF01010A1E6600091F4960C6C04080462
:1035B00018001800180018001800180008000C0463
:1035C000060801F00000250000000044A4A8A8B0EF
:1035D000541A2A2A4A44000000000000000000009B
:1035E0000000000000000000B4BF00000000000068
:1035F000020100063FC00C3FE01803001002003338
:1036000036603726203E66301C643018642031FE58
:10361000E03F1FC01C0C00000C000704003E07F038
:103620000001C000000000000000000000000000D9
:103630000000C9AB00000000000001FE0003E30031
:103640000703000C03001C3F003BFFC03F30600C31
:1036500030200C30200C10200C10600FFFC0083FF1
:10366000000800000800600E3FE007FC00000000BA
:10367000000000000000000000000000CCEE000090
:103680000000000000030000FFE00C07F00C060043
:103690000CFF803FF0E01FC0600CFE300CCC30040B
:1036A000F83004FF2004C0201FFE603EC06001FF10
:1036B000F001FFF00060600040000000000000002A
:1036C000000000000000B3E4000000000000002043
:1036D0000000300007FFF03FFFE00300000601801C
:1036E0000C01800801C01807E00FFE7007E000021F
:1036F00006000604000404000404000C06700C0715
:10370000E0000000000000000000000000000000D9
:10371000B2E200000000000000003039FC301FCC95
:10372000300706B00F06F01907B03137B03136F068
:103730001F27F00167F001E5F001E1F00041F00C16
:10374000F8B03CD830008C30008030000000000021
:1037500000000000000000000000CAD400000000CB
:1037600000000803600C03700C0330003FE0003FD2
:10377000800801003C0180047F80047D800C008073
:103780000C10C00C10C00C18400C1C600F7E6006A2
:103790007030000030000000000000000000000059
:1037A00000000000CEC400000000C00000E00000E7
:1037B000700001FFE01FFFC01801000003000006B9
:1037C00000000E00001C000E180007300001E00091
:1037D00000F00000FC00018F000303C00201E000C4
:1037E0000000000000000000000000000000D7D62C
:1037F000000000000000002000003F0031FFE03F1B
:10380000C02038003030FE2033C660100200000CAB
:1038100000001800001800000C0007FFE03FFFE068
:10382000000400000C00000C00000000000000007C
:103830000000000000000000CFD4000000000000E5
:1038400007FF000F03C00C00401FF860180060085D
:1038500000400E01C007FF00000000018400018449
:10386000001987800F8CE0078C2000CC0003FFE05C
:103870001FFFC0000000000000000000000000006A
:103880000000CABE0000000000000E00001FFFC0C4
:10389000007FE000000000000000000000000000C9
:1038A0003FC03FFFE0003000003000003000061352
:1038B000000C13C00C18F0181800181800000000B5
:1038C000000000000000000000000000CDBC00006F
:1038D0000000000007FF000F03801CC0C019FC603F
:1038E00011C66033062033E63036FF30301FF0302B
:1038F000703030FC30339F3036002010E060187C90
:10390000400E01C003FF000038000000000000006E
:10391000000000000000C6AC000000000000081815
:1039200000180800180800180800180C201FFFF0E5
:103930001FF80018000010000010F8001FFE001E05
:10394000030010030010030010030010030018020E
:103950000000000000000000000000000000000067
:10396000CFD400000000000007FF000F03C00C00D0
:10397000401FF8601800600800400E01C007FF00FB
:103980000000000184000184001987800F8CE0078B
:103990008C2000CC0003FFE01FFFC00000000000EF
:1039A00000000000000000000000CABE000000008F
:1039B00000000E00001FFFC0007FE00000000000BC
:1039C00000000000000000003FC03FFFE0003000AA
:1039D0000030000030000613000C13C00C18F01863
:1039E000180018180000000000000000000000008F
:1039F00000000000B4A50000000000000601800FD8
:103A0000C1801E6180304FC020CFE0078D303FC99C
:103A1000303379303379303FFB3037FF203267E085
:103A20003FE3803FE3C03263603267F0304FB00065
:103A30000000000000000000000000000000C3FEC5
:103A40000000000000000030C000FFF00C79C00C46
:103A50001F800C7FE03FE0600CC0300CFC3004C0E5
:103A60003007C0301E60603C3FC0041C00047FE093
:103A700000FFE00030C000606000000000000000B7
:103A80000000000000000000CAE400000000000088
:103A90000C03800C0FC0081C703F70001F9FC010EB
:103AA0001FC0100000367C3017E6301FE3B0067FE1
:103AB000B00277F007E3F03F7FF01336F0032630D3
:103AC000032630000000000000000000000000009D
:103AD0000000C8EB000000000000060000038000AA
:103AE00001C00000E00000700000780000CC000081
:103AF000C6000183000301800700C00600E00C003F
:103B000070180030180000300000000000000000B5
:103B100000000000000000000000000000000000A5
:103B20000000000000000000000000000000000095
:103B30000000000000000000000000000000000085
:103B40000000000000000000000000000000000075
:103B50000000000000000000000000000000000065
:103B60000000000000000000883B00000000002072
:103B700014000000921700009C3B0000140000207D
:103B800024020000A217000000127A0000000000CA
:0C3B900000000000000000000000000029
:04000005000000C136
:00000001FF
