Component: ARM Compiler 5.06 update 7 (build 960) Tool: armlink [4d3601]

==============================================================================

Image Symbol Table

    Local Symbols

    Symbol Name                              Value     Ov Type        Size  Object(Section)

    RESET                                    0x00000000   Section      192  startup_cw32f030.o(RESET)
    ../clib/microlib/division.c              0x00000000   Number         0  uidiv.o ABSOLUTE
    ../clib/microlib/division.c              0x00000000   Number         0  uldiv.o ABSOLUTE
    ../clib/microlib/division.c              0x00000000   Number         0  ldiv.o ABSOLUTE
    ../clib/microlib/division.c              0x00000000   Number         0  idiv.o ABSOLUTE
    ../clib/microlib/init/entry.s            0x00000000   Number         0  entry8a.o ABSOLUTE
    ../clib/microlib/init/entry.s            0x00000000   Number         0  entry10b.o ABSOLUTE
    ../clib/microlib/init/entry.s            0x00000000   Number         0  entry10a.o ABSOLUTE
    ../clib/microlib/init/entry.s            0x00000000   Number         0  entry12a.o ABSOLUTE
    ../clib/microlib/init/entry.s            0x00000000   Number         0  entry9b.o ABSOLUTE
    ../clib/microlib/init/entry.s            0x00000000   Number         0  entry5.o ABSOLUTE
    ../clib/microlib/init/entry.s            0x00000000   Number         0  entry9a.o ABSOLUTE
    ../clib/microlib/init/entry.s            0x00000000   Number         0  entry7b.o ABSOLUTE
    ../clib/microlib/init/entry.s            0x00000000   Number         0  entry8b.o ABSOLUTE
    ../clib/microlib/init/entry.s            0x00000000   Number         0  entry.o ABSOLUTE
    ../clib/microlib/init/entry.s            0x00000000   Number         0  entry7a.o ABSOLUTE
    ../clib/microlib/init/entry.s            0x00000000   Number         0  entry11b.o ABSOLUTE
    ../clib/microlib/init/entry.s            0x00000000   Number         0  entry2.o ABSOLUTE
    ../clib/microlib/init/entry.s            0x00000000   Number         0  entry11a.o ABSOLUTE
    ../clib/microlib/init/entry.s            0x00000000   Number         0  entry12b.o ABSOLUTE
    ../clib/microlib/longlong.c              0x00000000   Number         0  llsshr.o ABSOLUTE
    ../clib/microlib/longlong.c              0x00000000   Number         0  llushr.o ABSOLUTE
    ../clib/microlib/longlong.c              0x00000000   Number         0  llshl.o ABSOLUTE
    ../clib/microlib/printf/printf.c         0x00000000   Number         0  printf4.o ABSOLUTE
    ../clib/microlib/printf/printf.c         0x00000000   Number         0  printfb.o ABSOLUTE
    ../clib/microlib/printf/printf.c         0x00000000   Number         0  printf0.o ABSOLUTE
    ../clib/microlib/printf/printf.c         0x00000000   Number         0  printf5.o ABSOLUTE
    ../clib/microlib/printf/printf.c         0x00000000   Number         0  printf1.o ABSOLUTE
    ../clib/microlib/printf/printf.c         0x00000000   Number         0  printf2.o ABSOLUTE
    ../clib/microlib/printf/printf.c         0x00000000   Number         0  printf6.o ABSOLUTE
    ../clib/microlib/printf/printf.c         0x00000000   Number         0  printf8.o ABSOLUTE
    ../clib/microlib/printf/printf.c         0x00000000   Number         0  printf7.o ABSOLUTE
    ../clib/microlib/printf/printf.c         0x00000000   Number         0  printfa.o ABSOLUTE
    ../clib/microlib/printf/printf.c         0x00000000   Number         0  printf3.o ABSOLUTE
    ../clib/microlib/stdio/streams.c         0x00000000   Number         0  stdout.o ABSOLUTE
    ../clib/microlib/string/memcpy.c         0x00000000   Number         0  memcpya.o ABSOLUTE
    ../clib/microlib/string/memcpy.c         0x00000000   Number         0  memcpyb.o ABSOLUTE
    ../clib/microlib/stubs.s                 0x00000000   Number         0  iusefp.o ABSOLUTE
    ../fplib/microlib/f2d.c                  0x00000000   Number         0  f2d.o ABSOLUTE
    ../fplib/microlib/fpadd.c                0x00000000   Number         0  dadd.o ABSOLUTE
    ../fplib/microlib/fpadd.c                0x00000000   Number         0  fadd.o ABSOLUTE
    ../fplib/microlib/fpdiv.c                0x00000000   Number         0  fdiv.o ABSOLUTE
    ../fplib/microlib/fpdiv.c                0x00000000   Number         0  ddiv.o ABSOLUTE
    ../fplib/microlib/fpepilogue.c           0x00000000   Number         0  depilogue.o ABSOLUTE
    ../fplib/microlib/fpepilogue.c           0x00000000   Number         0  fepilogue.o ABSOLUTE
    ../fplib/microlib/fpfix.c                0x00000000   Number         0  dfixui.o ABSOLUTE
    ../fplib/microlib/fpfix.c                0x00000000   Number         0  ffixui.o ABSOLUTE
    ../fplib/microlib/fpfix.c                0x00000000   Number         0  dfixul.o ABSOLUTE
    ../fplib/microlib/fpflt.c                0x00000000   Number         0  ffltui.o ABSOLUTE
    ../fplib/microlib/fpflt.c                0x00000000   Number         0  fflti.o ABSOLUTE
    ../fplib/microlib/fpmul.c                0x00000000   Number         0  dmul.o ABSOLUTE
    ../fplib/microlib/fpmul.c                0x00000000   Number         0  fmul.o ABSOLUTE
    ../fplib/microlib/fpscalb.c              0x00000000   Number         0  fscalb.o ABSOLUTE
    Debug\Debug.c                            0x00000000   Number         0  debug.o ABSOLUTE
    Debug\\Debug.c                           0x00000000   Number         0  debug.o ABSOLUTE
    H:/SoftwareApplication/MDK-KEIL/RealThread/RT-Thread/3.1.5/libcpu/arm/cortex-m0/context_rvds.S 0x00000000   Number         0  context_rvds.o ABSOLUTE
    H:/SoftwareApplication/MDK-KEIL/RealThread/RT-Thread/3.1.5/libcpu/arm/cortex-m0/cpuport.c 0x00000000   Number         0  cpuport.o ABSOLUTE
    H:/SoftwareApplication/MDK-KEIL/RealThread/RT-Thread/3.1.5/src/clock.c 0x00000000   Number         0  clock.o ABSOLUTE
    H:/SoftwareApplication/MDK-KEIL/RealThread/RT-Thread/3.1.5/src/components.c 0x00000000   Number         0  components.o ABSOLUTE
    H:/SoftwareApplication/MDK-KEIL/RealThread/RT-Thread/3.1.5/src/idle.c 0x00000000   Number         0  idle.o ABSOLUTE
    H:/SoftwareApplication/MDK-KEIL/RealThread/RT-Thread/3.1.5/src/ipc.c 0x00000000   Number         0  ipc.o ABSOLUTE
    H:/SoftwareApplication/MDK-KEIL/RealThread/RT-Thread/3.1.5/src/irq.c 0x00000000   Number         0  irq.o ABSOLUTE
    H:/SoftwareApplication/MDK-KEIL/RealThread/RT-Thread/3.1.5/src/kservice.c 0x00000000   Number         0  kservice.o ABSOLUTE
    H:/SoftwareApplication/MDK-KEIL/RealThread/RT-Thread/3.1.5/src/mem.c 0x00000000   Number         0  mem.o ABSOLUTE
    H:/SoftwareApplication/MDK-KEIL/RealThread/RT-Thread/3.1.5/src/mempool.c 0x00000000   Number         0  mempool.o ABSOLUTE
    H:/SoftwareApplication/MDK-KEIL/RealThread/RT-Thread/3.1.5/src/object.c 0x00000000   Number         0  object.o ABSOLUTE
    H:/SoftwareApplication/MDK-KEIL/RealThread/RT-Thread/3.1.5/src/scheduler.c 0x00000000   Number         0  scheduler.o ABSOLUTE
    H:/SoftwareApplication/MDK-KEIL/RealThread/RT-Thread/3.1.5/src/thread.c 0x00000000   Number         0  thread.o ABSOLUTE
    H:/SoftwareApplication/MDK-KEIL/RealThread/RT-Thread/3.1.5/src/timer.c 0x00000000   Number         0  timer.o ABSOLUTE
    Library\\cw32f030_adc.c                  0x00000000   Number         0  cw32f030_adc.o ABSOLUTE
    Library\\cw32f030_atim.c                 0x00000000   Number         0  cw32f030_atim.o ABSOLUTE
    Library\\cw32f030_awt.c                  0x00000000   Number         0  cw32f030_awt.o ABSOLUTE
    Library\\cw32f030_btim.c                 0x00000000   Number         0  cw32f030_btim.o ABSOLUTE
    Library\\cw32f030_crc.c                  0x00000000   Number         0  cw32f030_crc.o ABSOLUTE
    Library\\cw32f030_debug.c                0x00000000   Number         0  cw32f030_debug.o ABSOLUTE
    Library\\cw32f030_digitalsign.c          0x00000000   Number         0  cw32f030_digitalsign.o ABSOLUTE
    Library\\cw32f030_dma.c                  0x00000000   Number         0  cw32f030_dma.o ABSOLUTE
    Library\\cw32f030_flash.c                0x00000000   Number         0  cw32f030_flash.o ABSOLUTE
    Library\\cw32f030_gpio.c                 0x00000000   Number         0  cw32f030_gpio.o ABSOLUTE
    Library\\cw32f030_gtim.c                 0x00000000   Number         0  cw32f030_gtim.o ABSOLUTE
    Library\\cw32f030_i2c.c                  0x00000000   Number         0  cw32f030_i2c.o ABSOLUTE
    Library\\cw32f030_iwdt.c                 0x00000000   Number         0  cw32f030_iwdt.o ABSOLUTE
    Library\\cw32f030_lvd.c                  0x00000000   Number         0  cw32f030_lvd.o ABSOLUTE
    Library\\cw32f030_pwr.c                  0x00000000   Number         0  cw32f030_pwr.o ABSOLUTE
    Library\\cw32f030_ram.c                  0x00000000   Number         0  cw32f030_ram.o ABSOLUTE
    Library\\cw32f030_rcc.c                  0x00000000   Number         0  cw32f030_rcc.o ABSOLUTE
    Library\\cw32f030_rtc.c                  0x00000000   Number         0  cw32f030_rtc.o ABSOLUTE
    Library\\cw32f030_spi.c                  0x00000000   Number         0  cw32f030_spi.o ABSOLUTE
    Library\\cw32f030_systick.c              0x00000000   Number         0  cw32f030_systick.o ABSOLUTE
    Library\\cw32f030_uart.c                 0x00000000   Number         0  cw32f030_uart.o ABSOLUTE
    Library\\cw32f030_vc.c                   0x00000000   Number         0  cw32f030_vc.o ABSOLUTE
    Library\\cw32f030_wwdt.c                 0x00000000   Number         0  cw32f030_wwdt.o ABSOLUTE
    Library\cw32f030_adc.c                   0x00000000   Number         0  cw32f030_adc.o ABSOLUTE
    Library\cw32f030_atim.c                  0x00000000   Number         0  cw32f030_atim.o ABSOLUTE
    Library\cw32f030_awt.c                   0x00000000   Number         0  cw32f030_awt.o ABSOLUTE
    Library\cw32f030_btim.c                  0x00000000   Number         0  cw32f030_btim.o ABSOLUTE
    Library\cw32f030_crc.c                   0x00000000   Number         0  cw32f030_crc.o ABSOLUTE
    Library\cw32f030_debug.c                 0x00000000   Number         0  cw32f030_debug.o ABSOLUTE
    Library\cw32f030_digitalsign.c           0x00000000   Number         0  cw32f030_digitalsign.o ABSOLUTE
    Library\cw32f030_dma.c                   0x00000000   Number         0  cw32f030_dma.o ABSOLUTE
    Library\cw32f030_flash.c                 0x00000000   Number         0  cw32f030_flash.o ABSOLUTE
    Library\cw32f030_gpio.c                  0x00000000   Number         0  cw32f030_gpio.o ABSOLUTE
    Library\cw32f030_gtim.c                  0x00000000   Number         0  cw32f030_gtim.o ABSOLUTE
    Library\cw32f030_i2c.c                   0x00000000   Number         0  cw32f030_i2c.o ABSOLUTE
    Library\cw32f030_iwdt.c                  0x00000000   Number         0  cw32f030_iwdt.o ABSOLUTE
    Library\cw32f030_lvd.c                   0x00000000   Number         0  cw32f030_lvd.o ABSOLUTE
    Library\cw32f030_pwr.c                   0x00000000   Number         0  cw32f030_pwr.o ABSOLUTE
    Library\cw32f030_ram.c                   0x00000000   Number         0  cw32f030_ram.o ABSOLUTE
    Library\cw32f030_rcc.c                   0x00000000   Number         0  cw32f030_rcc.o ABSOLUTE
    Library\cw32f030_rtc.c                   0x00000000   Number         0  cw32f030_rtc.o ABSOLUTE
    Library\cw32f030_spi.c                   0x00000000   Number         0  cw32f030_spi.o ABSOLUTE
    Library\cw32f030_systick.c               0x00000000   Number         0  cw32f030_systick.o ABSOLUTE
    Library\cw32f030_uart.c                  0x00000000   Number         0  cw32f030_uart.o ABSOLUTE
    Library\cw32f030_vc.c                    0x00000000   Number         0  cw32f030_vc.o ABSOLUTE
    Library\cw32f030_wwdt.c                  0x00000000   Number         0  cw32f030_wwdt.o ABSOLUTE
    RTE/RTOS/board.c                         0x00000000   Number         0  board.o ABSOLUTE
    RTE\RTOS\board.c                         0x00000000   Number         0  board.o ABSOLUTE
    Startup\\system_cw32f030.c               0x00000000   Number         0  system_cw32f030.o ABSOLUTE
    Startup\startup_cw32f030.s               0x00000000   Number         0  startup_cw32f030.o ABSOLUTE
    Startup\system_cw32f030.c                0x00000000   Number         0  system_cw32f030.o ABSOLUTE
    User\\interrupts_cw32f030.c              0x00000000   Number         0  interrupts_cw32f030.o ABSOLUTE
    User\\main.c                             0x00000000   Number         0  main.o ABSOLUTE
    User\interrupts_cw32f030.c               0x00000000   Number         0  interrupts_cw32f030.o ABSOLUTE
    User\main.c                              0x00000000   Number         0  main.o ABSOLUTE
    cdrcmple.s                               0x00000000   Number         0  cdrcmple.o ABSOLUTE
    dc.s                                     0x00000000   Number         0  dc.o ABSOLUTE
    handlers.s                               0x00000000   Number         0  handlers.o ABSOLUTE
    init.s                                   0x00000000   Number         0  init.o ABSOLUTE
    .ARM.Collect$$$$00000000                 0x000000c0   Section        0  entry.o(.ARM.Collect$$$$00000000)
    .ARM.Collect$$$$00000001                 0x000000c0   Section        4  entry2.o(.ARM.Collect$$$$00000001)
    .ARM.Collect$$$$00000004                 0x000000c4   Section        4  entry5.o(.ARM.Collect$$$$00000004)
    .ARM.Collect$$$$00000008                 0x000000c8   Section        0  entry7b.o(.ARM.Collect$$$$00000008)
    .ARM.Collect$$$$0000000A                 0x000000c8   Section        0  entry8b.o(.ARM.Collect$$$$0000000A)
    .ARM.Collect$$$$0000000B                 0x000000c8   Section        8  entry9a.o(.ARM.Collect$$$$0000000B)
    .ARM.Collect$$$$0000000E                 0x000000d0   Section        4  entry12b.o(.ARM.Collect$$$$0000000E)
    .ARM.Collect$$$$0000000F                 0x000000d4   Section        0  entry10a.o(.ARM.Collect$$$$0000000F)
    .ARM.Collect$$$$00000011                 0x000000d4   Section        0  entry11a.o(.ARM.Collect$$$$00000011)
    .ARM.Collect$$$$00002712                 0x000000d4   Section        4  entry2.o(.ARM.Collect$$$$00002712)
    __lit__00000000                          0x000000d4   Data           4  entry2.o(.ARM.Collect$$$$00002712)
    .text                                    0x000000d8   Section       28  startup_cw32f030.o(.text)
    .text                                    0x000000f4   Section      216  context_rvds.o(.text)
    .text                                    0x000001cc   Section        0  uidiv.o(.text)
    .text                                    0x000001f8   Section        0  idiv.o(.text)
    .text                                    0x00000220   Section        0  memcpya.o(.text)
    .text                                    0x00000244   Section        0  fadd.o(.text)
    .text                                    0x000002f6   Section        0  fdiv.o(.text)
    .text                                    0x00000372   Section        0  fscalb.o(.text)
    .text                                    0x0000038c   Section        0  dadd.o(.text)
    .text                                    0x000004f4   Section        0  ffltui.o(.text)
    .text                                    0x00000502   Section        0  ffixui.o(.text)
    .text                                    0x0000052c   Section        0  dfixui.o(.text)
    .text                                    0x00000568   Section        0  f2d.o(.text)
    .text                                    0x00000590   Section        0  llshl.o(.text)
    .text                                    0x000005b0   Section        0  llushr.o(.text)
    .text                                    0x000005d2   Section        0  llsshr.o(.text)
    .text                                    0x000005f8   Section        0  fepilogue.o(.text)
    .text                                    0x000005f8   Section        0  iusefp.o(.text)
    .text                                    0x0000067a   Section        0  depilogue.o(.text)
    .text                                    0x00000738   Section       36  init.o(.text)
    i.$Sub$$main                             0x0000075c   Section        0  components.o(i.$Sub$$main)
    i.ADC_IRQHandler                         0x00000766   Section        0  interrupts_cw32f030.o(i.ADC_IRQHandler)
    i.ATIM_IRQHandler                        0x00000768   Section        0  interrupts_cw32f030.o(i.ATIM_IRQHandler)
    i.AWT_IRQHandler                         0x0000076a   Section        0  interrupts_cw32f030.o(i.AWT_IRQHandler)
    i.BTIM1_IRQHandler                       0x0000076c   Section        0  interrupts_cw32f030.o(i.BTIM1_IRQHandler)
    i.BTIM2_IRQHandler                       0x0000076e   Section        0  interrupts_cw32f030.o(i.BTIM2_IRQHandler)
    i.BTIM3_IRQHandler                       0x00000770   Section        0  interrupts_cw32f030.o(i.BTIM3_IRQHandler)
    i.DMACH1_IRQHandler                      0x00000772   Section        0  interrupts_cw32f030.o(i.DMACH1_IRQHandler)
    i.DMACH23_IRQHandler                     0x00000774   Section        0  interrupts_cw32f030.o(i.DMACH23_IRQHandler)
    i.DMACH45_IRQHandler                     0x00000776   Section        0  interrupts_cw32f030.o(i.DMACH45_IRQHandler)
    i.FAULT_IRQHandler                       0x00000778   Section        0  interrupts_cw32f030.o(i.FAULT_IRQHandler)
    i.FLASHRAM_IRQHandler                    0x0000077a   Section        0  interrupts_cw32f030.o(i.FLASHRAM_IRQHandler)
    i.FLASH_SetLatency                       0x0000077c   Section        0  cw32f030_flash.o(i.FLASH_SetLatency)
    i.GPIOA_IRQHandler                       0x000007dc   Section        0  interrupts_cw32f030.o(i.GPIOA_IRQHandler)
    i.GPIOB_IRQHandler                       0x000007de   Section        0  interrupts_cw32f030.o(i.GPIOB_IRQHandler)
    i.GPIOC_IRQHandler                       0x000007e0   Section        0  interrupts_cw32f030.o(i.GPIOC_IRQHandler)
    i.GPIOF_IRQHandler                       0x000007e2   Section        0  interrupts_cw32f030.o(i.GPIOF_IRQHandler)
    i.GPIO_Init                              0x000007e4   Section        0  cw32f030_gpio.o(i.GPIO_Init)
    i.GTIM1_IRQHandler                       0x000008d8   Section        0  interrupts_cw32f030.o(i.GTIM1_IRQHandler)
    i.GTIM2_IRQHandler                       0x000008da   Section        0  interrupts_cw32f030.o(i.GTIM2_IRQHandler)
    i.GTIM3_IRQHandler                       0x000008dc   Section        0  interrupts_cw32f030.o(i.GTIM3_IRQHandler)
    i.GTIM4_IRQHandler                       0x000008de   Section        0  interrupts_cw32f030.o(i.GTIM4_IRQHandler)
    i.I2C1_IRQHandler                        0x000008e0   Section        0  interrupts_cw32f030.o(i.I2C1_IRQHandler)
    i.I2C2_IRQHandler                        0x000008e2   Section        0  interrupts_cw32f030.o(i.I2C2_IRQHandler)
    i.LVD_IRQHandler                         0x000008e4   Section        0  interrupts_cw32f030.o(i.LVD_IRQHandler)
    i.NMI_Handler                            0x000008e6   Section        0  interrupts_cw32f030.o(i.NMI_Handler)
    i.RCC_AHBPeriphClk_Enable                0x000008e8   Section        0  cw32f030_rcc.o(i.RCC_AHBPeriphClk_Enable)
    i.RCC_APBPeriphClk_Enable2               0x0000093c   Section        0  cw32f030_rcc.o(i.RCC_APBPeriphClk_Enable2)
    i.RCC_Configuration                      0x00000990   Section        0  system_cw32f030.o(i.RCC_Configuration)
    i.RCC_HCLKPRS_Config                     0x000009d8   Section        0  cw32f030_rcc.o(i.RCC_HCLKPRS_Config)
    i.RCC_HSI_Enable                         0x00000a3c   Section        0  cw32f030_rcc.o(i.RCC_HSI_Enable)
    i.RCC_IRQHandler                         0x00000ab0   Section        0  interrupts_cw32f030.o(i.RCC_IRQHandler)
    i.RCC_PCLKPRS_Config                     0x00000ab4   Section        0  cw32f030_rcc.o(i.RCC_PCLKPRS_Config)
    i.RCC_PLL_Enable                         0x00000b08   Section        0  cw32f030_rcc.o(i.RCC_PLL_Enable)
    i.RCC_SysClk_Switch                      0x00000c1c   Section        0  cw32f030_rcc.o(i.RCC_SysClk_Switch)
    i.RCC_Sysctrl_GetHClkFreq                0x00000c8c   Section        0  cw32f030_rcc.o(i.RCC_Sysctrl_GetHClkFreq)
    i.RCC_SystemCoreClockUpdate              0x00000d24   Section        0  cw32f030_rcc.o(i.RCC_SystemCoreClockUpdate)
    i.RTC_IRQHandler                         0x00000d30   Section        0  interrupts_cw32f030.o(i.RTC_IRQHandler)
    i.SPI1_IRQHandler                        0x00000d32   Section        0  interrupts_cw32f030.o(i.SPI1_IRQHandler)
    i.SPI2_IRQHandler                        0x00000d34   Section        0  interrupts_cw32f030.o(i.SPI2_IRQHandler)
    i.SVC_Handler                            0x00000d36   Section        0  interrupts_cw32f030.o(i.SVC_Handler)
    i.SysTick_Handler                        0x00000d38   Section        0  board.o(i.SysTick_Handler)
    i.SystemCoreClockUpdate                  0x00000d40   Section        0  system_cw32f030.o(i.SystemCoreClockUpdate)
    i.SystemInit                             0x00000d50   Section        0  system_cw32f030.o(i.SystemInit)
    i.UART1_IRQHandler                       0x00000d84   Section        0  interrupts_cw32f030.o(i.UART1_IRQHandler)
    i.UART2_IRQHandler                       0x00000d86   Section        0  interrupts_cw32f030.o(i.UART2_IRQHandler)
    i.UART3_IRQHandler                       0x00000d88   Section        0  interrupts_cw32f030.o(i.UART3_IRQHandler)
    i.UART_Configuration                     0x00000d8c   Section        0  debug.o(i.UART_Configuration)
    i.USART_GetFlagStatus                    0x00000e14   Section        0  cw32f030_uart.o(i.USART_GetFlagStatus)
    i.USART_Init                             0x00000e7c   Section        0  cw32f030_uart.o(i.USART_Init)
    i.USART_SendData_8bit                    0x000010b0   Section        0  cw32f030_uart.o(i.USART_SendData_8bit)
    i.VC1_IRQHandler                         0x000010f8   Section        0  interrupts_cw32f030.o(i.VC1_IRQHandler)
    i.VC2_IRQHandler                         0x000010fa   Section        0  interrupts_cw32f030.o(i.VC2_IRQHandler)
    i.WDT_IRQHandler                         0x000010fc   Section        0  interrupts_cw32f030.o(i.WDT_IRQHandler)
    i.__0printf$bare                         0x00001100   Section        0  printfb.o(i.__0printf$bare)
    i.__ARM_clz                              0x00001114   Section        0  depilogue.o(i.__ARM_clz)
    i.__ARM_common_switch8                   0x00001142   Section        0  cw32f030_i2c.o(i.__ARM_common_switch8)
    i.__rt_ffs                               0x0000115c   Section        0  kservice.o(i.__rt_ffs)
    i.__scatterload_copy                     0x000011a0   Section       14  handlers.o(i.__scatterload_copy)
    i.__scatterload_null                     0x000011ae   Section        2  handlers.o(i.__scatterload_null)
    i.__scatterload_zeroinit                 0x000011b0   Section       14  handlers.o(i.__scatterload_zeroinit)
    i._printf_core                           0x000011be   Section        0  printfb.o(i._printf_core)
    _printf_core                             0x000011bf   Thumb Code    30  printfb.o(i._printf_core)
    i._rt_thread_init                        0x000011dc   Section        0  thread.o(i._rt_thread_init)
    _rt_thread_init                          0x000011dd   Thumb Code   106  thread.o(i._rt_thread_init)
    i._rt_timer_init                         0x00001250   Section        0  timer.o(i._rt_timer_init)
    _rt_timer_init                           0x00001251   Thumb Code    38  timer.o(i._rt_timer_init)
    i._rt_timer_remove                       0x00001276   Section        0  timer.o(i._rt_timer_remove)
    _rt_timer_remove                         0x00001277   Thumb Code    24  timer.o(i._rt_timer_remove)
    i._thread_cleanup_execute                0x0000128e   Section        0  thread.o(i._thread_cleanup_execute)
    _thread_cleanup_execute                  0x0000128f   Thumb Code    28  thread.o(i._thread_cleanup_execute)
    i.assert_failed                          0x000012aa   Section        0  debug.o(i.assert_failed)
    i.fputc                                  0x000012ac   Section        0  debug.o(i.fputc)
    i.main                                   0x000012d0   Section        0  main.o(i.main)
    i.main_thread_entry                      0x00001304   Section        0  components.o(i.main_thread_entry)
    i.rt_application_init                    0x00001310   Section        0  components.o(i.rt_application_init)
    i.rt_components_board_init               0x0000134c   Section        0  components.o(i.rt_components_board_init)
    i.rt_components_init                     0x00001368   Section        0  components.o(i.rt_components_init)
    i.rt_enter_critical                      0x00001384   Section        0  scheduler.o(i.rt_enter_critical)
    i.rt_exit_critical                       0x0000139c   Section        0  scheduler.o(i.rt_exit_critical)
    i.rt_hw_board_init                       0x000013d0   Section        0  board.o(i.rt_hw_board_init)
    i.rt_hw_hard_fault_exception             0x0000141c   Section        0  cpuport.o(i.rt_hw_hard_fault_exception)
    i.rt_hw_stack_init                       0x00001420   Section        0  cpuport.o(i.rt_hw_stack_init)
    i.rt_interrupt_enter                     0x0000145c   Section        0  irq.o(i.rt_interrupt_enter)
    i.rt_interrupt_leave                     0x00001474   Section        0  irq.o(i.rt_interrupt_leave)
    i.rt_list_insert_after                   0x0000148c   Section        0  thread.o(i.rt_list_insert_after)
    rt_list_insert_after                     0x0000148d   Thumb Code    14  thread.o(i.rt_list_insert_after)
    i.rt_list_insert_after                   0x0000149a   Section        0  timer.o(i.rt_list_insert_after)
    rt_list_insert_after                     0x0000149b   Thumb Code    14  timer.o(i.rt_list_insert_after)
    i.rt_list_isempty                        0x000014a8   Section        0  timer.o(i.rt_list_isempty)
    rt_list_isempty                          0x000014a9   Thumb Code    14  timer.o(i.rt_list_isempty)
    i.rt_list_remove                         0x000014b6   Section        0  thread.o(i.rt_list_remove)
    rt_list_remove                           0x000014b7   Thumb Code    18  thread.o(i.rt_list_remove)
    i.rt_list_remove                         0x000014c8   Section        0  timer.o(i.rt_list_remove)
    rt_list_remove                           0x000014c9   Thumb Code    18  timer.o(i.rt_list_remove)
    i.rt_memset                              0x000014da   Section        0  kservice.o(i.rt_memset)
    i.rt_object_detach                       0x00001520   Section        0  object.o(i.rt_object_detach)
    i.rt_object_get_information              0x00001544   Section        0  object.o(i.rt_object_get_information)
    i.rt_object_init                         0x00001564   Section        0  object.o(i.rt_object_init)
    i.rt_object_is_systemobject              0x000015b2   Section        0  object.o(i.rt_object_is_systemobject)
    i.rt_os_tick_callback                    0x000015c0   Section        0  board.o(i.rt_os_tick_callback)
    i.rt_schedule                            0x000015d0   Section        0  scheduler.o(i.rt_schedule)
    i.rt_schedule_insert_thread              0x00001634   Section        0  scheduler.o(i.rt_schedule_insert_thread)
    i.rt_schedule_remove_thread              0x00001680   Section        0  scheduler.o(i.rt_schedule_remove_thread)
    i.rt_show_version                        0x000016d4   Section        0  kservice.o(i.rt_show_version)
    i.rt_strncpy                             0x000016d6   Section        0  kservice.o(i.rt_strncpy)
    i.rt_system_scheduler_init               0x00001700   Section        0  scheduler.o(i.rt_system_scheduler_init)
    i.rt_system_scheduler_start              0x00001734   Section        0  scheduler.o(i.rt_system_scheduler_start)
    i.rt_system_timer_init                   0x0000175c   Section        0  timer.o(i.rt_system_timer_init)
    i.rt_system_timer_thread_init            0x00001774   Section        0  timer.o(i.rt_system_timer_thread_init)
    i.rt_thread_exit                         0x00001778   Section        0  thread.o(i.rt_thread_exit)
    i.rt_thread_idle_entry                   0x000017d0   Section        0  idle.o(i.rt_thread_idle_entry)
    rt_thread_idle_entry                     0x000017d1   Thumb Code     6  idle.o(i.rt_thread_idle_entry)
    i.rt_thread_idle_excute                  0x000017d6   Section        0  idle.o(i.rt_thread_idle_excute)
    i.rt_thread_idle_gethandler              0x000017d8   Section        0  idle.o(i.rt_thread_idle_gethandler)
    i.rt_thread_idle_init                    0x000017e0   Section        0  idle.o(i.rt_thread_idle_init)
    i.rt_thread_init                         0x0000181c   Section        0  thread.o(i.rt_thread_init)
    i.rt_thread_mdelay                       0x0000184e   Section        0  thread.o(i.rt_thread_mdelay)
    i.rt_thread_resume                       0x0000185a   Section        0  thread.o(i.rt_thread_resume)
    i.rt_thread_self                         0x00001898   Section        0  thread.o(i.rt_thread_self)
    i.rt_thread_sleep                        0x000018a4   Section        0  thread.o(i.rt_thread_sleep)
    i.rt_thread_startup                      0x000018e4   Section        0  thread.o(i.rt_thread_startup)
    i.rt_thread_suspend                      0x0000190c   Section        0  thread.o(i.rt_thread_suspend)
    i.rt_thread_timeout                      0x0000194c   Section        0  thread.o(i.rt_thread_timeout)
    i.rt_thread_yield                        0x0000196c   Section        0  thread.o(i.rt_thread_yield)
    i.rt_tick_from_millisecond               0x000019cc   Section        0  clock.o(i.rt_tick_from_millisecond)
    i.rt_tick_get                            0x000019fc   Section        0  clock.o(i.rt_tick_get)
    i.rt_tick_increase                       0x00001a08   Section        0  clock.o(i.rt_tick_increase)
    i.rt_timer_check                         0x00001a34   Section        0  timer.o(i.rt_timer_check)
    i.rt_timer_control                       0x00001ac4   Section        0  timer.o(i.rt_timer_control)
    i.rt_timer_detach                        0x00001b16   Section        0  timer.o(i.rt_timer_detach)
    i.rt_timer_init                          0x00001b3e   Section        0  timer.o(i.rt_timer_init)
    i.rt_timer_start                         0x00001b64   Section        0  timer.o(i.rt_timer_start)
    i.rt_timer_stop                          0x00001c24   Section        0  timer.o(i.rt_timer_stop)
    i.rti_board_end                          0x00001c52   Section        0  components.o(i.rti_board_end)
    rti_board_end                            0x00001c53   Thumb Code     4  components.o(i.rti_board_end)
    i.rti_board_start                        0x00001c56   Section        0  components.o(i.rti_board_start)
    rti_board_start                          0x00001c57   Thumb Code     4  components.o(i.rti_board_start)
    i.rti_end                                0x00001c5a   Section        0  components.o(i.rti_end)
    rti_end                                  0x00001c5b   Thumb Code     4  components.o(i.rti_end)
    i.rti_start                              0x00001c5e   Section        0  components.o(i.rti_start)
    rti_start                                0x00001c5f   Thumb Code     4  components.o(i.rti_start)
    i.rtthread_startup                       0x00001c62   Section        0  components.o(i.rtthread_startup)
    i.thread1_entry                          0x00001c8c   Section        0  main.o(i.thread1_entry)
    i.thread1_init                           0x00001cb8   Section        0  main.o(i.thread1_init)
    i.thread2_entry                          0x00001d3c   Section        0  main.o(i.thread2_entry)
    i.thread2_init                           0x00001d68   Section        0  main.o(i.thread2_init)
    .constdata                               0x00001dec   Section      100  cw32f030_rcc.o(.constdata)
    .constdata                               0x00001e50   Section      290  kservice.o(.constdata)
    small_digits                             0x00001f50   Data          17  kservice.o(.constdata)
    large_digits                             0x00001f61   Data          17  kservice.o(.constdata)
    .rti_fn.0                                0x00001f74   Section        4  components.o(.rti_fn.0)
    __tagsym$$used                           0x00001f74   Number         0  components.o(.rti_fn.0)
    .rti_fn.0.end                            0x00001f78   Section        4  components.o(.rti_fn.0.end)
    __tagsym$$used                           0x00001f78   Number         0  components.o(.rti_fn.0.end)
    .rti_fn.1.end                            0x00001f7c   Section        4  components.o(.rti_fn.1.end)
    __tagsym$$used                           0x00001f7c   Number         0  components.o(.rti_fn.1.end)
    .rti_fn.6.end                            0x00001f80   Section        4  components.o(.rti_fn.6.end)
    __tagsym$$used                           0x00001f80   Number         0  components.o(.rti_fn.6.end)
    .data                                    0x20000000   Section        4  system_cw32f030.o(.data)
    .data                                    0x20000004   Section        4  cpuport.o(.data)
    .data                                    0x20000008   Section        4  cpuport.o(.data)
    .data                                    0x2000000c   Section        4  cpuport.o(.data)
    .data                                    0x20000010   Section        4  clock.o(.data)
    rt_tick                                  0x20000010   Data           4  clock.o(.data)
    .data                                    0x20000014   Section        1  irq.o(.data)
    .data                                    0x20000018   Section       64  object.o(.data)
    rt_object_container                      0x20000018   Data          64  object.o(.data)
    .data                                    0x20000058   Section       20  scheduler.o(.data)
    rt_scheduler_lock_nest                   0x2000005a   Data           2  scheduler.o(.data)
    .data                                    0x2000006c   Section       12  timer.o(.data)
    random_nr                                0x2000006c   Data           4  timer.o(.data)
    rt_timer_list                            0x20000070   Data           8  timer.o(.data)
    .data                                    0x20000078   Section        4  stdout.o(.data)
    .bss                                     0x2000007c   Section     1264  main.o(.bss)
    .bss                                     0x20000570   Section      376  components.o(.bss)
    main_stack                               0x20000570   Data         256  components.o(.bss)
    .bss                                     0x200006e8   Section      248  idle.o(.bss)
    idle                                     0x200006e8   Data         120  idle.o(.bss)
    rt_thread_stack                          0x20000760   Data         128  idle.o(.bss)
    .bss                                     0x200007e0   Section      256  scheduler.o(.bss)
    STACK                                    0x200008e0   Section      512  startup_cw32f030.o(STACK)

    Global Symbols

    Symbol Name                              Value     Ov Type        Size  Object(Section)

    BuildAttributes$$THM_ISAv3M$S$PE$A:L22$X:L11$S22$IEEE1$IW$USESV6$~STKCKD$USESV7$~SHL$OTIME$ROPI$EBA8$MICROLIB$REQ8$PRES8$EABIv2 0x00000000   Number         0  anon$$obj.o ABSOLUTE
    __ARM_use_no_argv                        0x00000000   Number         0  main.o ABSOLUTE
    __Vectors                                0x00000000   Data           0  startup_cw32f030.o(RESET)
    __arm_fini_                               - Undefined Weak Reference
    __cpp_initialize__aeabi_                  - Undefined Weak Reference
    __cxa_finalize                            - Undefined Weak Reference
    __decompress                              - Undefined Weak Reference
    _clock_init                               - Undefined Weak Reference
    _microlib_exit                            - Undefined Weak Reference
    __Vectors_End                            0x000000c0   Data           0  startup_cw32f030.o(RESET)
    __Vectors_Size                           0x000000c0   Number         0  startup_cw32f030.o ABSOLUTE
    __main                                   0x000000c1   Thumb Code     0  entry.o(.ARM.Collect$$$$00000000)
    _main_stk                                0x000000c1   Thumb Code     0  entry2.o(.ARM.Collect$$$$00000001)
    _main_scatterload                        0x000000c5   Thumb Code     0  entry5.o(.ARM.Collect$$$$00000004)
    __main_after_scatterload                 0x000000c9   Thumb Code     0  entry5.o(.ARM.Collect$$$$00000004)
    _main_clock                              0x000000c9   Thumb Code     0  entry7b.o(.ARM.Collect$$$$00000008)
    _main_cpp_init                           0x000000c9   Thumb Code     0  entry8b.o(.ARM.Collect$$$$0000000A)
    _main_init                               0x000000c9   Thumb Code     0  entry9a.o(.ARM.Collect$$$$0000000B)
    __rt_lib_shutdown_fini                   0x000000d1   Thumb Code     0  entry12b.o(.ARM.Collect$$$$0000000E)
    __rt_final_cpp                           0x000000d5   Thumb Code     0  entry10a.o(.ARM.Collect$$$$0000000F)
    __rt_final_exit                          0x000000d5   Thumb Code     0  entry11a.o(.ARM.Collect$$$$00000011)
    Reset_Handler                            0x000000d9   Thumb Code     8  startup_cw32f030.o(.text)
    rt_hw_interrupt_disable                  0x000000f5   Thumb Code     8  context_rvds.o(.text)
    rt_hw_interrupt_enable                   0x000000fd   Thumb Code     6  context_rvds.o(.text)
    rt_hw_context_switch                     0x00000103   Thumb Code    28  context_rvds.o(.text)
    rt_hw_context_switch_interrupt           0x00000103   Thumb Code     0  context_rvds.o(.text)
    PendSV_Handler                           0x0000011f   Thumb Code    84  context_rvds.o(.text)
    rt_hw_context_switch_to                  0x00000173   Thumb Code    44  context_rvds.o(.text)
    rt_hw_interrupt_thread_switch            0x0000019f   Thumb Code     2  context_rvds.o(.text)
    HardFault_Handler                        0x000001a1   Thumb Code    12  context_rvds.o(.text)
    __aeabi_uidiv                            0x000001cd   Thumb Code     0  uidiv.o(.text)
    __aeabi_uidivmod                         0x000001cd   Thumb Code    44  uidiv.o(.text)
    __aeabi_idiv                             0x000001f9   Thumb Code     0  idiv.o(.text)
    __aeabi_idivmod                          0x000001f9   Thumb Code    40  idiv.o(.text)
    __aeabi_memcpy                           0x00000221   Thumb Code    36  memcpya.o(.text)
    __aeabi_memcpy4                          0x00000221   Thumb Code     0  memcpya.o(.text)
    __aeabi_memcpy8                          0x00000221   Thumb Code     0  memcpya.o(.text)
    __aeabi_fadd                             0x00000245   Thumb Code   162  fadd.o(.text)
    __aeabi_fsub                             0x000002e7   Thumb Code     8  fadd.o(.text)
    __aeabi_frsub                            0x000002ef   Thumb Code     8  fadd.o(.text)
    __aeabi_fdiv                             0x000002f7   Thumb Code   124  fdiv.o(.text)
    __ARM_scalbnf                            0x00000373   Thumb Code    24  fscalb.o(.text)
    scalbnf                                  0x00000373   Thumb Code     0  fscalb.o(.text)
    __aeabi_dadd                             0x0000038d   Thumb Code   330  dadd.o(.text)
    __aeabi_dsub                             0x000004d7   Thumb Code    12  dadd.o(.text)
    __aeabi_drsub                            0x000004e3   Thumb Code    12  dadd.o(.text)
    __aeabi_ui2f                             0x000004f5   Thumb Code    14  ffltui.o(.text)
    __aeabi_f2uiz                            0x00000503   Thumb Code    40  ffixui.o(.text)
    __aeabi_d2uiz                            0x0000052d   Thumb Code    50  dfixui.o(.text)
    __aeabi_f2d                              0x00000569   Thumb Code    40  f2d.o(.text)
    __aeabi_llsl                             0x00000591   Thumb Code    32  llshl.o(.text)
    _ll_shift_l                              0x00000591   Thumb Code     0  llshl.o(.text)
    __aeabi_llsr                             0x000005b1   Thumb Code    34  llushr.o(.text)
    _ll_ushift_r                             0x000005b1   Thumb Code     0  llushr.o(.text)
    __aeabi_lasr                             0x000005d3   Thumb Code    38  llsshr.o(.text)
    _ll_sshift_r                             0x000005d3   Thumb Code     0  llsshr.o(.text)
    __I$use$fp                               0x000005f9   Thumb Code     0  iusefp.o(.text)
    _float_round                             0x000005f9   Thumb Code    16  fepilogue.o(.text)
    _float_epilogue                          0x00000609   Thumb Code   114  fepilogue.o(.text)
    _double_round                            0x0000067b   Thumb Code    26  depilogue.o(.text)
    _double_epilogue                         0x00000695   Thumb Code   164  depilogue.o(.text)
    __scatterload                            0x00000739   Thumb Code    28  init.o(.text)
    __scatterload_rt2                        0x00000739   Thumb Code     0  init.o(.text)
    main                                     0x0000075d   Thumb Code    10  components.o(i.$Sub$$main)
    ADC_IRQHandler                           0x00000767   Thumb Code     2  interrupts_cw32f030.o(i.ADC_IRQHandler)
    ATIM_IRQHandler                          0x00000769   Thumb Code     2  interrupts_cw32f030.o(i.ATIM_IRQHandler)
    AWT_IRQHandler                           0x0000076b   Thumb Code     2  interrupts_cw32f030.o(i.AWT_IRQHandler)
    BTIM1_IRQHandler                         0x0000076d   Thumb Code     2  interrupts_cw32f030.o(i.BTIM1_IRQHandler)
    BTIM2_IRQHandler                         0x0000076f   Thumb Code     2  interrupts_cw32f030.o(i.BTIM2_IRQHandler)
    BTIM3_IRQHandler                         0x00000771   Thumb Code     2  interrupts_cw32f030.o(i.BTIM3_IRQHandler)
    DMACH1_IRQHandler                        0x00000773   Thumb Code     2  interrupts_cw32f030.o(i.DMACH1_IRQHandler)
    DMACH23_IRQHandler                       0x00000775   Thumb Code     2  interrupts_cw32f030.o(i.DMACH23_IRQHandler)
    DMACH45_IRQHandler                       0x00000777   Thumb Code     2  interrupts_cw32f030.o(i.DMACH45_IRQHandler)
    FAULT_IRQHandler                         0x00000779   Thumb Code     2  interrupts_cw32f030.o(i.FAULT_IRQHandler)
    FLASHRAM_IRQHandler                      0x0000077b   Thumb Code     2  interrupts_cw32f030.o(i.FLASHRAM_IRQHandler)
    FLASH_SetLatency                         0x0000077d   Thumb Code    56  cw32f030_flash.o(i.FLASH_SetLatency)
    GPIOA_IRQHandler                         0x000007dd   Thumb Code     2  interrupts_cw32f030.o(i.GPIOA_IRQHandler)
    GPIOB_IRQHandler                         0x000007df   Thumb Code     2  interrupts_cw32f030.o(i.GPIOB_IRQHandler)
    GPIOC_IRQHandler                         0x000007e1   Thumb Code     2  interrupts_cw32f030.o(i.GPIOC_IRQHandler)
    GPIOF_IRQHandler                         0x000007e3   Thumb Code     2  interrupts_cw32f030.o(i.GPIOF_IRQHandler)
    GPIO_Init                                0x000007e5   Thumb Code   240  cw32f030_gpio.o(i.GPIO_Init)
    GTIM1_IRQHandler                         0x000008d9   Thumb Code     2  interrupts_cw32f030.o(i.GTIM1_IRQHandler)
    GTIM2_IRQHandler                         0x000008db   Thumb Code     2  interrupts_cw32f030.o(i.GTIM2_IRQHandler)
    GTIM3_IRQHandler                         0x000008dd   Thumb Code     2  interrupts_cw32f030.o(i.GTIM3_IRQHandler)
    GTIM4_IRQHandler                         0x000008df   Thumb Code     2  interrupts_cw32f030.o(i.GTIM4_IRQHandler)
    I2C1_IRQHandler                          0x000008e1   Thumb Code     2  interrupts_cw32f030.o(i.I2C1_IRQHandler)
    I2C2_IRQHandler                          0x000008e3   Thumb Code     2  interrupts_cw32f030.o(i.I2C2_IRQHandler)
    LVD_IRQHandler                           0x000008e5   Thumb Code     2  interrupts_cw32f030.o(i.LVD_IRQHandler)
    NMI_Handler                              0x000008e7   Thumb Code     2  interrupts_cw32f030.o(i.NMI_Handler)
    RCC_AHBPeriphClk_Enable                  0x000008e9   Thumb Code    46  cw32f030_rcc.o(i.RCC_AHBPeriphClk_Enable)
    RCC_APBPeriphClk_Enable2                 0x0000093d   Thumb Code    46  cw32f030_rcc.o(i.RCC_APBPeriphClk_Enable2)
    RCC_Configuration                        0x00000991   Thumb Code    60  system_cw32f030.o(i.RCC_Configuration)
    RCC_HCLKPRS_Config                       0x000009d9   Thumb Code    62  cw32f030_rcc.o(i.RCC_HCLKPRS_Config)
    RCC_HSI_Enable                           0x00000a3d   Thumb Code    84  cw32f030_rcc.o(i.RCC_HSI_Enable)
    RCC_IRQHandler                           0x00000ab1   Thumb Code     2  interrupts_cw32f030.o(i.RCC_IRQHandler)
    RCC_PCLKPRS_Config                       0x00000ab5   Thumb Code    46  cw32f030_rcc.o(i.RCC_PCLKPRS_Config)
    RCC_PLL_Enable                           0x00000b09   Thumb Code   232  cw32f030_rcc.o(i.RCC_PLL_Enable)
    RCC_SysClk_Switch                        0x00000c1d   Thumb Code    78  cw32f030_rcc.o(i.RCC_SysClk_Switch)
    RCC_Sysctrl_GetHClkFreq                  0x00000c8d   Thumb Code   130  cw32f030_rcc.o(i.RCC_Sysctrl_GetHClkFreq)
    RCC_SystemCoreClockUpdate                0x00000d25   Thumb Code     6  cw32f030_rcc.o(i.RCC_SystemCoreClockUpdate)
    RTC_IRQHandler                           0x00000d31   Thumb Code     2  interrupts_cw32f030.o(i.RTC_IRQHandler)
    SPI1_IRQHandler                          0x00000d33   Thumb Code     2  interrupts_cw32f030.o(i.SPI1_IRQHandler)
    SPI2_IRQHandler                          0x00000d35   Thumb Code     2  interrupts_cw32f030.o(i.SPI2_IRQHandler)
    SVC_Handler                              0x00000d37   Thumb Code     2  interrupts_cw32f030.o(i.SVC_Handler)
    SysTick_Handler                          0x00000d39   Thumb Code     8  board.o(i.SysTick_Handler)
    SystemCoreClockUpdate                    0x00000d41   Thumb Code     8  system_cw32f030.o(i.SystemCoreClockUpdate)
    SystemInit                               0x00000d51   Thumb Code    46  system_cw32f030.o(i.SystemInit)
    UART1_IRQHandler                         0x00000d85   Thumb Code     2  interrupts_cw32f030.o(i.UART1_IRQHandler)
    UART2_IRQHandler                         0x00000d87   Thumb Code     2  interrupts_cw32f030.o(i.UART2_IRQHandler)
    UART3_IRQHandler                         0x00000d89   Thumb Code     2  interrupts_cw32f030.o(i.UART3_IRQHandler)
    UART_Configuration                       0x00000d8d   Thumb Code   124  debug.o(i.UART_Configuration)
    USART_GetFlagStatus                      0x00000e15   Thumb Code    66  cw32f030_uart.o(i.USART_GetFlagStatus)
    USART_Init                               0x00000e7d   Thumb Code   512  cw32f030_uart.o(i.USART_Init)
    USART_SendData_8bit                      0x000010b1   Thumb Code    36  cw32f030_uart.o(i.USART_SendData_8bit)
    VC1_IRQHandler                           0x000010f9   Thumb Code     2  interrupts_cw32f030.o(i.VC1_IRQHandler)
    VC2_IRQHandler                           0x000010fb   Thumb Code     2  interrupts_cw32f030.o(i.VC2_IRQHandler)
    WDT_IRQHandler                           0x000010fd   Thumb Code     2  interrupts_cw32f030.o(i.WDT_IRQHandler)
    __0printf$bare                           0x00001101   Thumb Code    12  printfb.o(i.__0printf$bare)
    __1printf$bare                           0x00001101   Thumb Code     0  printfb.o(i.__0printf$bare)
    __2printf                                0x00001101   Thumb Code     0  printfb.o(i.__0printf$bare)
    __ARM_clz                                0x00001115   Thumb Code    46  depilogue.o(i.__ARM_clz)
    __ARM_common_switch8                     0x00001143   Thumb Code    26  cw32f030_i2c.o(i.__ARM_common_switch8)
    __rt_ffs                                 0x0000115d   Thumb Code    64  kservice.o(i.__rt_ffs)
    __scatterload_copy                       0x000011a1   Thumb Code    14  handlers.o(i.__scatterload_copy)
    __scatterload_null                       0x000011af   Thumb Code     2  handlers.o(i.__scatterload_null)
    __scatterload_zeroinit                   0x000011b1   Thumb Code    14  handlers.o(i.__scatterload_zeroinit)
    assert_failed                            0x000012ab   Thumb Code     2  debug.o(i.assert_failed)
    fputc                                    0x000012ad   Thumb Code    30  debug.o(i.fputc)
    $Super$$main                             0x000012d1   Thumb Code    24  main.o(i.main)
    main_thread_entry                        0x00001305   Thumb Code    12  components.o(i.main_thread_entry)
    rt_application_init                      0x00001311   Thumb Code    42  components.o(i.rt_application_init)
    rt_components_board_init                 0x0000134d   Thumb Code    20  components.o(i.rt_components_board_init)
    rt_components_init                       0x00001369   Thumb Code    20  components.o(i.rt_components_init)
    rt_enter_critical                        0x00001385   Thumb Code    20  scheduler.o(i.rt_enter_critical)
    rt_exit_critical                         0x0000139d   Thumb Code    46  scheduler.o(i.rt_exit_critical)
    rt_hw_board_init                         0x000013d1   Thumb Code    58  board.o(i.rt_hw_board_init)
    rt_hw_hard_fault_exception               0x0000141d   Thumb Code     2  cpuport.o(i.rt_hw_hard_fault_exception)
    rt_hw_stack_init                         0x00001421   Thumb Code    56  cpuport.o(i.rt_hw_stack_init)
    rt_interrupt_enter                       0x0000145d   Thumb Code    20  irq.o(i.rt_interrupt_enter)
    rt_interrupt_leave                       0x00001475   Thumb Code    20  irq.o(i.rt_interrupt_leave)
    rt_memset                                0x000014db   Thumb Code    70  kservice.o(i.rt_memset)
    rt_object_detach                         0x00001521   Thumb Code    36  object.o(i.rt_object_detach)
    rt_object_get_information                0x00001545   Thumb Code    28  object.o(i.rt_object_get_information)
    rt_object_init                           0x00001565   Thumb Code    78  object.o(i.rt_object_init)
    rt_object_is_systemobject                0x000015b3   Thumb Code    14  object.o(i.rt_object_is_systemobject)
    rt_os_tick_callback                      0x000015c1   Thumb Code    16  board.o(i.rt_os_tick_callback)
    rt_schedule                              0x000015d1   Thumb Code    86  scheduler.o(i.rt_schedule)
    rt_schedule_insert_thread                0x00001635   Thumb Code    66  scheduler.o(i.rt_schedule_insert_thread)
    rt_schedule_remove_thread                0x00001681   Thumb Code    74  scheduler.o(i.rt_schedule_remove_thread)
    rt_show_version                          0x000016d5   Thumb Code     2  kservice.o(i.rt_show_version)
    rt_strncpy                               0x000016d7   Thumb Code    40  kservice.o(i.rt_strncpy)
    rt_system_scheduler_init                 0x00001701   Thumb Code    44  scheduler.o(i.rt_system_scheduler_init)
    rt_system_scheduler_start                0x00001735   Thumb Code    30  scheduler.o(i.rt_system_scheduler_start)
    rt_system_timer_init                     0x0000175d   Thumb Code    20  timer.o(i.rt_system_timer_init)
    rt_system_timer_thread_init              0x00001775   Thumb Code     2  timer.o(i.rt_system_timer_thread_init)
    rt_thread_exit                           0x00001779   Thumb Code    78  thread.o(i.rt_thread_exit)
    rt_thread_idle_excute                    0x000017d7   Thumb Code     2  idle.o(i.rt_thread_idle_excute)
    rt_thread_idle_gethandler                0x000017d9   Thumb Code     4  idle.o(i.rt_thread_idle_gethandler)
    rt_thread_idle_init                      0x000017e1   Thumb Code    42  idle.o(i.rt_thread_idle_init)
    rt_thread_init                           0x0000181d   Thumb Code    50  thread.o(i.rt_thread_init)
    rt_thread_mdelay                         0x0000184f   Thumb Code    12  thread.o(i.rt_thread_mdelay)
    rt_thread_resume                         0x0000185b   Thumb Code    60  thread.o(i.rt_thread_resume)
    rt_thread_self                           0x00001899   Thumb Code     6  thread.o(i.rt_thread_self)
    rt_thread_sleep                          0x000018a5   Thumb Code    60  thread.o(i.rt_thread_sleep)
    rt_thread_startup                        0x000018e5   Thumb Code    40  thread.o(i.rt_thread_startup)
    rt_thread_suspend                        0x0000190d   Thumb Code    64  thread.o(i.rt_thread_suspend)
    rt_thread_timeout                        0x0000194d   Thumb Code    30  thread.o(i.rt_thread_timeout)
    rt_thread_yield                          0x0000196d   Thumb Code    88  thread.o(i.rt_thread_yield)
    rt_tick_from_millisecond                 0x000019cd   Thumb Code    46  clock.o(i.rt_tick_from_millisecond)
    rt_tick_get                              0x000019fd   Thumb Code     6  clock.o(i.rt_tick_get)
    rt_tick_increase                         0x00001a09   Thumb Code    38  clock.o(i.rt_tick_increase)
    rt_timer_check                           0x00001a35   Thumb Code   136  timer.o(i.rt_timer_check)
    rt_timer_control                         0x00001ac5   Thumb Code    82  timer.o(i.rt_timer_control)
    rt_timer_detach                          0x00001b17   Thumb Code    40  timer.o(i.rt_timer_detach)
    rt_timer_init                            0x00001b3f   Thumb Code    36  timer.o(i.rt_timer_init)
    rt_timer_start                           0x00001b65   Thumb Code   184  timer.o(i.rt_timer_start)
    rt_timer_stop                            0x00001c25   Thumb Code    46  timer.o(i.rt_timer_stop)
    rtthread_startup                         0x00001c63   Thumb Code    42  components.o(i.rtthread_startup)
    thread1_entry                            0x00001c8d   Thumb Code    18  main.o(i.thread1_entry)
    thread1_init                             0x00001cb9   Thumb Code    60  main.o(i.thread1_init)
    thread2_entry                            0x00001d3d   Thumb Code    16  main.o(i.thread2_entry)
    thread2_init                             0x00001d69   Thumb Code    56  main.o(i.thread2_init)
    hsiprs_tbl                               0x00001dec   Data          64  cw32f030_rcc.o(.constdata)
    __lowest_bit_bitmap                      0x00001e50   Data         256  kservice.o(.constdata)
    __rt_init_rti_start                      0x00001f74   Data           4  components.o(.rti_fn.0)
    __rt_init_rti_board_start                0x00001f78   Data           4  components.o(.rti_fn.0.end)
    __rt_init_rti_board_end                  0x00001f7c   Data           4  components.o(.rti_fn.1.end)
    __rt_init_rti_end                        0x00001f80   Data           4  components.o(.rti_fn.6.end)
    Region$$Table$$Base                      0x00001f84   Number         0  anon$$obj.o(Region$$Table)
    Region$$Table$$Limit                     0x00001fa4   Number         0  anon$$obj.o(Region$$Table)
    SystemCoreClock                          0x20000000   Data           4  system_cw32f030.o(.data)
    rt_interrupt_from_thread                 0x20000004   Data           4  cpuport.o(.data)
    rt_interrupt_to_thread                   0x20000008   Data           4  cpuport.o(.data)
    rt_thread_switch_interrupt_flag          0x2000000c   Data           4  cpuport.o(.data)
    rt_interrupt_nest                        0x20000014   Data           1  irq.o(.data)
    rt_current_priority                      0x20000058   Data           1  scheduler.o(.data)
    rt_current_thread                        0x2000005c   Data           4  scheduler.o(.data)
    rt_thread_ready_priority_group           0x20000060   Data           4  scheduler.o(.data)
    rt_thread_defunct                        0x20000064   Data           8  scheduler.o(.data)
    __stdout                                 0x20000078   Data           4  stdout.o(.data)
    thread1                                  0x2000007c   Data         120  main.o(.bss)
    thread2                                  0x200000f4   Data         120  main.o(.bss)
    thread1_stack                            0x2000016c   Data         512  main.o(.bss)
    thread2_stack                            0x2000036c   Data         512  main.o(.bss)
    main_thread                              0x20000670   Data         120  components.o(.bss)
    rt_thread_priority_table                 0x200007e0   Data         256  scheduler.o(.bss)
    __initial_sp                             0x20000ae0   Data           0  startup_cw32f030.o(STACK)



==============================================================================

Memory Map of the image

  Image Entry point : 0x000000c1

  Load Region LR_IROM1 (Base: 0x00000000, Size: 0x00002020, Max: 0x00010000, ABSOLUTE)

    Execution Region ER_IROM1 (Exec base: 0x00000000, Load base: 0x00000000, Size: 0x00001fa4, Max: 0x00010000, ABSOLUTE)

    Exec Addr    Load Addr    Size         Type   Attr      Idx    E Section Name        Object

    0x00000000   0x00000000   0x000000c0   Data   RO            3    RESET               startup_cw32f030.o
    0x000000c0   0x000000c0   0x00000000   Code   RO         4496  * .ARM.Collect$$$$00000000  mc_p.l(entry.o)
    0x000000c0   0x000000c0   0x00000004   Code   RO         4789    .ARM.Collect$$$$00000001  mc_p.l(entry2.o)
    0x000000c4   0x000000c4   0x00000004   Code   RO         4792    .ARM.Collect$$$$00000004  mc_p.l(entry5.o)
    0x000000c8   0x000000c8   0x00000000   Code   RO         4794    .ARM.Collect$$$$00000008  mc_p.l(entry7b.o)
    0x000000c8   0x000000c8   0x00000000   Code   RO         4796    .ARM.Collect$$$$0000000A  mc_p.l(entry8b.o)
    0x000000c8   0x000000c8   0x00000008   Code   RO         4797    .ARM.Collect$$$$0000000B  mc_p.l(entry9a.o)
    0x000000d0   0x000000d0   0x00000004   Code   RO         4804    .ARM.Collect$$$$0000000E  mc_p.l(entry12b.o)
    0x000000d4   0x000000d4   0x00000000   Code   RO         4799    .ARM.Collect$$$$0000000F  mc_p.l(entry10a.o)
    0x000000d4   0x000000d4   0x00000000   Code   RO         4801    .ARM.Collect$$$$00000011  mc_p.l(entry11a.o)
    0x000000d4   0x000000d4   0x00000004   Code   RO         4790    .ARM.Collect$$$$00002712  mc_p.l(entry2.o)
    0x000000d8   0x000000d8   0x0000001c   Code   RO            4    .text               startup_cw32f030.o
    0x000000f4   0x000000f4   0x000000d8   Code   RO         3657    .text               context_rvds.o
    0x000001cc   0x000001cc   0x0000002c   Code   RO         4499    .text               mc_p.l(uidiv.o)
    0x000001f8   0x000001f8   0x00000028   Code   RO         4501    .text               mc_p.l(idiv.o)
    0x00000220   0x00000220   0x00000024   Code   RO         4505    .text               mc_p.l(memcpya.o)
    0x00000244   0x00000244   0x000000b2   Code   RO         4769    .text               mf_p.l(fadd.o)
    0x000002f6   0x000002f6   0x0000007c   Code   RO         4773    .text               mf_p.l(fdiv.o)
    0x00000372   0x00000372   0x00000018   Code   RO         4775    .text               mf_p.l(fscalb.o)
    0x0000038a   0x0000038a   0x00000002   PAD
    0x0000038c   0x0000038c   0x00000168   Code   RO         4777    .text               mf_p.l(dadd.o)
    0x000004f4   0x000004f4   0x0000000e   Code   RO         4781    .text               mf_p.l(ffltui.o)
    0x00000502   0x00000502   0x00000028   Code   RO         4783    .text               mf_p.l(ffixui.o)
    0x0000052a   0x0000052a   0x00000002   PAD
    0x0000052c   0x0000052c   0x0000003c   Code   RO         4785    .text               mf_p.l(dfixui.o)
    0x00000568   0x00000568   0x00000028   Code   RO         4787    .text               mf_p.l(f2d.o)
    0x00000590   0x00000590   0x00000020   Code   RO         4808    .text               mc_p.l(llshl.o)
    0x000005b0   0x000005b0   0x00000022   Code   RO         4810    .text               mc_p.l(llushr.o)
    0x000005d2   0x000005d2   0x00000026   Code   RO         4812    .text               mc_p.l(llsshr.o)
    0x000005f8   0x000005f8   0x00000000   Code   RO         4814    .text               mc_p.l(iusefp.o)
    0x000005f8   0x000005f8   0x00000082   Code   RO         4815    .text               mf_p.l(fepilogue.o)
    0x0000067a   0x0000067a   0x000000be   Code   RO         4817    .text               mf_p.l(depilogue.o)
    0x00000738   0x00000738   0x00000024   Code   RO         4829    .text               mc_p.l(init.o)
    0x0000075c   0x0000075c   0x0000000a   Code   RO         3732    i.$Sub$$main        components.o
    0x00000766   0x00000766   0x00000002   Code   RO         3441    i.ADC_IRQHandler    interrupts_cw32f030.o
    0x00000768   0x00000768   0x00000002   Code   RO         3442    i.ATIM_IRQHandler   interrupts_cw32f030.o
    0x0000076a   0x0000076a   0x00000002   Code   RO         3443    i.AWT_IRQHandler    interrupts_cw32f030.o
    0x0000076c   0x0000076c   0x00000002   Code   RO         3444    i.BTIM1_IRQHandler  interrupts_cw32f030.o
    0x0000076e   0x0000076e   0x00000002   Code   RO         3445    i.BTIM2_IRQHandler  interrupts_cw32f030.o
    0x00000770   0x00000770   0x00000002   Code   RO         3446    i.BTIM3_IRQHandler  interrupts_cw32f030.o
    0x00000772   0x00000772   0x00000002   Code   RO         3447    i.DMACH1_IRQHandler  interrupts_cw32f030.o
    0x00000774   0x00000774   0x00000002   Code   RO         3448    i.DMACH23_IRQHandler  interrupts_cw32f030.o
    0x00000776   0x00000776   0x00000002   Code   RO         3449    i.DMACH45_IRQHandler  interrupts_cw32f030.o
    0x00000778   0x00000778   0x00000002   Code   RO         3450    i.FAULT_IRQHandler  interrupts_cw32f030.o
    0x0000077a   0x0000077a   0x00000002   Code   RO         3451    i.FLASHRAM_IRQHandler  interrupts_cw32f030.o
    0x0000077c   0x0000077c   0x00000060   Code   RO         1200    i.FLASH_SetLatency  cw32f030_flash.o
    0x000007dc   0x000007dc   0x00000002   Code   RO         3452    i.GPIOA_IRQHandler  interrupts_cw32f030.o
    0x000007de   0x000007de   0x00000002   Code   RO         3453    i.GPIOB_IRQHandler  interrupts_cw32f030.o
    0x000007e0   0x000007e0   0x00000002   Code   RO         3454    i.GPIOC_IRQHandler  interrupts_cw32f030.o
    0x000007e2   0x000007e2   0x00000002   Code   RO         3455    i.GPIOF_IRQHandler  interrupts_cw32f030.o
    0x000007e4   0x000007e4   0x000000f4   Code   RO         1339    i.GPIO_Init         cw32f030_gpio.o
    0x000008d8   0x000008d8   0x00000002   Code   RO         3456    i.GTIM1_IRQHandler  interrupts_cw32f030.o
    0x000008da   0x000008da   0x00000002   Code   RO         3457    i.GTIM2_IRQHandler  interrupts_cw32f030.o
    0x000008dc   0x000008dc   0x00000002   Code   RO         3458    i.GTIM3_IRQHandler  interrupts_cw32f030.o
    0x000008de   0x000008de   0x00000002   Code   RO         3459    i.GTIM4_IRQHandler  interrupts_cw32f030.o
    0x000008e0   0x000008e0   0x00000002   Code   RO         3460    i.I2C1_IRQHandler   interrupts_cw32f030.o
    0x000008e2   0x000008e2   0x00000002   Code   RO         3461    i.I2C2_IRQHandler   interrupts_cw32f030.o
    0x000008e4   0x000008e4   0x00000002   Code   RO         3462    i.LVD_IRQHandler    interrupts_cw32f030.o
    0x000008e6   0x000008e6   0x00000002   Code   RO         3463    i.NMI_Handler       interrupts_cw32f030.o
    0x000008e8   0x000008e8   0x00000054   Code   RO         2082    i.RCC_AHBPeriphClk_Enable  cw32f030_rcc.o
    0x0000093c   0x0000093c   0x00000054   Code   RO         2085    i.RCC_APBPeriphClk_Enable2  cw32f030_rcc.o
    0x00000990   0x00000990   0x00000048   Code   RO           14    i.RCC_Configuration  system_cw32f030.o
    0x000009d8   0x000009d8   0x00000064   Code   RO         2105    i.RCC_HCLKPRS_Config  cw32f030_rcc.o
    0x00000a3c   0x00000a3c   0x00000074   Code   RO         2111    i.RCC_HSI_Enable    cw32f030_rcc.o
    0x00000ab0   0x00000ab0   0x00000002   Code   RO         3464    i.RCC_IRQHandler    interrupts_cw32f030.o
    0x00000ab2   0x00000ab2   0x00000002   PAD
    0x00000ab4   0x00000ab4   0x00000054   Code   RO         2123    i.RCC_PCLKPRS_Config  cw32f030_rcc.o
    0x00000b08   0x00000b08   0x00000114   Code   RO         2126    i.RCC_PLL_Enable    cw32f030_rcc.o
    0x00000c1c   0x00000c1c   0x00000070   Code   RO         2130    i.RCC_SysClk_Switch  cw32f030_rcc.o
    0x00000c8c   0x00000c8c   0x00000098   Code   RO         2131    i.RCC_Sysctrl_GetHClkFreq  cw32f030_rcc.o
    0x00000d24   0x00000d24   0x0000000c   Code   RO         2133    i.RCC_SystemCoreClockUpdate  cw32f030_rcc.o
    0x00000d30   0x00000d30   0x00000002   Code   RO         3465    i.RTC_IRQHandler    interrupts_cw32f030.o
    0x00000d32   0x00000d32   0x00000002   Code   RO         3466    i.SPI1_IRQHandler   interrupts_cw32f030.o
    0x00000d34   0x00000d34   0x00000002   Code   RO         3467    i.SPI2_IRQHandler   interrupts_cw32f030.o
    0x00000d36   0x00000d36   0x00000002   Code   RO         3468    i.SVC_Handler       interrupts_cw32f030.o
    0x00000d38   0x00000d38   0x00000008   Code   RO         4457    i.SysTick_Handler   board.o
    0x00000d40   0x00000d40   0x00000010   Code   RO           15    i.SystemCoreClockUpdate  system_cw32f030.o
    0x00000d50   0x00000d50   0x00000034   Code   RO           16    i.SystemInit        system_cw32f030.o
    0x00000d84   0x00000d84   0x00000002   Code   RO         3469    i.UART1_IRQHandler  interrupts_cw32f030.o
    0x00000d86   0x00000d86   0x00000002   Code   RO         3470    i.UART2_IRQHandler  interrupts_cw32f030.o
    0x00000d88   0x00000d88   0x00000002   Code   RO         3471    i.UART3_IRQHandler  interrupts_cw32f030.o
    0x00000d8a   0x00000d8a   0x00000002   PAD
    0x00000d8c   0x00000d8c   0x00000088   Code   RO         3261    i.UART_Configuration  debug.o
    0x00000e14   0x00000e14   0x00000068   Code   RO         2782    i.USART_GetFlagStatus  cw32f030_uart.o
    0x00000e7c   0x00000e7c   0x00000234   Code   RO         2786    i.USART_Init        cw32f030_uart.o
    0x000010b0   0x000010b0   0x00000048   Code   RO         2791    i.USART_SendData_8bit  cw32f030_uart.o
    0x000010f8   0x000010f8   0x00000002   Code   RO         3472    i.VC1_IRQHandler    interrupts_cw32f030.o
    0x000010fa   0x000010fa   0x00000002   Code   RO         3473    i.VC2_IRQHandler    interrupts_cw32f030.o
    0x000010fc   0x000010fc   0x00000002   Code   RO         3474    i.WDT_IRQHandler    interrupts_cw32f030.o
    0x000010fe   0x000010fe   0x00000002   PAD
    0x00001100   0x00001100   0x00000014   Code   RO         4510    i.__0printf$bare    mc_p.l(printfb.o)
    0x00001114   0x00001114   0x0000002e   Code   RO         4819    i.__ARM_clz         mf_p.l(depilogue.o)
    0x00001142   0x00001142   0x0000001a   Code   RO         1795    i.__ARM_common_switch8  cw32f030_i2c.o
    0x0000115c   0x0000115c   0x00000044   Code   RO         3961    i.__rt_ffs          kservice.o
    0x000011a0   0x000011a0   0x0000000e   Code   RO         4833    i.__scatterload_copy  mc_p.l(handlers.o)
    0x000011ae   0x000011ae   0x00000002   Code   RO         4834    i.__scatterload_null  mc_p.l(handlers.o)
    0x000011b0   0x000011b0   0x0000000e   Code   RO         4835    i.__scatterload_zeroinit  mc_p.l(handlers.o)
    0x000011be   0x000011be   0x0000001e   Code   RO         4517    i._printf_core      mc_p.l(printfb.o)
    0x000011dc   0x000011dc   0x00000074   Code   RO         4240    i._rt_thread_init   thread.o
    0x00001250   0x00001250   0x00000026   Code   RO         4360    i._rt_timer_init    timer.o
    0x00001276   0x00001276   0x00000018   Code   RO         4361    i._rt_timer_remove  timer.o
    0x0000128e   0x0000128e   0x0000001c   Code   RO         4241    i._thread_cleanup_execute  thread.o
    0x000012aa   0x000012aa   0x00000002   Code   RO         3262    i.assert_failed     debug.o
    0x000012ac   0x000012ac   0x00000024   Code   RO         3263    i.fputc             debug.o
    0x000012d0   0x000012d0   0x00000034   Code   RO         3308    i.main              main.o
    0x00001304   0x00001304   0x0000000c   Code   RO         3733    i.main_thread_entry  components.o
    0x00001310   0x00001310   0x0000003c   Code   RO         3734    i.rt_application_init  components.o
    0x0000134c   0x0000134c   0x0000001c   Code   RO         3735    i.rt_components_board_init  components.o
    0x00001368   0x00001368   0x0000001c   Code   RO         3736    i.rt_components_init  components.o
    0x00001384   0x00001384   0x00000018   Code   RO         4179    i.rt_enter_critical  scheduler.o
    0x0000139c   0x0000139c   0x00000034   Code   RO         4180    i.rt_exit_critical  scheduler.o
    0x000013d0   0x000013d0   0x0000004c   Code   RO         4458    i.rt_hw_board_init  board.o
    0x0000141c   0x0000141c   0x00000002   Code   RO         3662    i.rt_hw_hard_fault_exception  cpuport.o
    0x0000141e   0x0000141e   0x00000002   PAD
    0x00001420   0x00001420   0x0000003c   Code   RO         3663    i.rt_hw_stack_init  cpuport.o
    0x0000145c   0x0000145c   0x00000018   Code   RO         3934    i.rt_interrupt_enter  irq.o
    0x00001474   0x00001474   0x00000018   Code   RO         3936    i.rt_interrupt_leave  irq.o
    0x0000148c   0x0000148c   0x0000000e   Code   RO         4242    i.rt_list_insert_after  thread.o
    0x0000149a   0x0000149a   0x0000000e   Code   RO         4362    i.rt_list_insert_after  timer.o
    0x000014a8   0x000014a8   0x0000000e   Code   RO         4363    i.rt_list_isempty   timer.o
    0x000014b6   0x000014b6   0x00000012   Code   RO         4243    i.rt_list_remove    thread.o
    0x000014c8   0x000014c8   0x00000012   Code   RO         4364    i.rt_list_remove    timer.o
    0x000014da   0x000014da   0x00000046   Code   RO         3968    i.rt_memset         kservice.o
    0x00001520   0x00001520   0x00000024   Code   RO         4113    i.rt_object_detach  object.o
    0x00001544   0x00001544   0x00000020   Code   RO         4115    i.rt_object_get_information  object.o
    0x00001564   0x00001564   0x0000004e   Code   RO         4119    i.rt_object_init    object.o
    0x000015b2   0x000015b2   0x0000000e   Code   RO         4120    i.rt_object_is_systemobject  object.o
    0x000015c0   0x000015c0   0x00000010   Code   RO         4459    i.rt_os_tick_callback  board.o
    0x000015d0   0x000015d0   0x00000064   Code   RO         4181    i.rt_schedule       scheduler.o
    0x00001634   0x00001634   0x0000004c   Code   RO         4182    i.rt_schedule_insert_thread  scheduler.o
    0x00001680   0x00001680   0x00000054   Code   RO         4183    i.rt_schedule_remove_thread  scheduler.o
    0x000016d4   0x000016d4   0x00000002   Code   RO         3970    i.rt_show_version   kservice.o
    0x000016d6   0x000016d6   0x00000028   Code   RO         3977    i.rt_strncpy        kservice.o
    0x000016fe   0x000016fe   0x00000002   PAD
    0x00001700   0x00001700   0x00000034   Code   RO         4184    i.rt_system_scheduler_init  scheduler.o
    0x00001734   0x00001734   0x00000028   Code   RO         4185    i.rt_system_scheduler_start  scheduler.o
    0x0000175c   0x0000175c   0x00000018   Code   RO         4365    i.rt_system_timer_init  timer.o
    0x00001774   0x00001774   0x00000002   Code   RO         4366    i.rt_system_timer_thread_init  timer.o
    0x00001776   0x00001776   0x00000002   PAD
    0x00001778   0x00001778   0x00000058   Code   RO         4248    i.rt_thread_exit    thread.o
    0x000017d0   0x000017d0   0x00000006   Code   RO         3801    i.rt_thread_idle_entry  idle.o
    0x000017d6   0x000017d6   0x00000002   Code   RO         3802    i.rt_thread_idle_excute  idle.o
    0x000017d8   0x000017d8   0x00000008   Code   RO         3803    i.rt_thread_idle_gethandler  idle.o
    0x000017e0   0x000017e0   0x0000003c   Code   RO         3804    i.rt_thread_idle_init  idle.o
    0x0000181c   0x0000181c   0x00000032   Code   RO         4250    i.rt_thread_init    thread.o
    0x0000184e   0x0000184e   0x0000000c   Code   RO         4251    i.rt_thread_mdelay  thread.o
    0x0000185a   0x0000185a   0x0000003c   Code   RO         4252    i.rt_thread_resume  thread.o
    0x00001896   0x00001896   0x00000002   PAD
    0x00001898   0x00001898   0x0000000c   Code   RO         4253    i.rt_thread_self    thread.o
    0x000018a4   0x000018a4   0x00000040   Code   RO         4254    i.rt_thread_sleep   thread.o
    0x000018e4   0x000018e4   0x00000028   Code   RO         4255    i.rt_thread_startup  thread.o
    0x0000190c   0x0000190c   0x00000040   Code   RO         4256    i.rt_thread_suspend  thread.o
    0x0000194c   0x0000194c   0x0000001e   Code   RO         4257    i.rt_thread_timeout  thread.o
    0x0000196a   0x0000196a   0x00000002   PAD
    0x0000196c   0x0000196c   0x00000060   Code   RO         4258    i.rt_thread_yield   thread.o
    0x000019cc   0x000019cc   0x0000002e   Code   RO         3692    i.rt_tick_from_millisecond  clock.o
    0x000019fa   0x000019fa   0x00000002   PAD
    0x000019fc   0x000019fc   0x0000000c   Code   RO         3693    i.rt_tick_get       clock.o
    0x00001a08   0x00001a08   0x0000002c   Code   RO         3694    i.rt_tick_increase  clock.o
    0x00001a34   0x00001a34   0x00000090   Code   RO         4367    i.rt_timer_check    timer.o
    0x00001ac4   0x00001ac4   0x00000052   Code   RO         4368    i.rt_timer_control  timer.o
    0x00001b16   0x00001b16   0x00000028   Code   RO         4369    i.rt_timer_detach   timer.o
    0x00001b3e   0x00001b3e   0x00000024   Code   RO         4370    i.rt_timer_init     timer.o
    0x00001b62   0x00001b62   0x00000002   PAD
    0x00001b64   0x00001b64   0x000000c0   Code   RO         4373    i.rt_timer_start    timer.o
    0x00001c24   0x00001c24   0x0000002e   Code   RO         4374    i.rt_timer_stop     timer.o
    0x00001c52   0x00001c52   0x00000004   Code   RO         3737    i.rti_board_end     components.o
    0x00001c56   0x00001c56   0x00000004   Code   RO         3738    i.rti_board_start   components.o
    0x00001c5a   0x00001c5a   0x00000004   Code   RO         3739    i.rti_end           components.o
    0x00001c5e   0x00001c5e   0x00000004   Code   RO         3740    i.rti_start         components.o
    0x00001c62   0x00001c62   0x0000002a   Code   RO         3741    i.rtthread_startup  components.o
    0x00001c8c   0x00001c8c   0x0000002c   Code   RO         3309    i.thread1_entry     main.o
    0x00001cb8   0x00001cb8   0x00000084   Code   RO         3310    i.thread1_init      main.o
    0x00001d3c   0x00001d3c   0x0000002c   Code   RO         3311    i.thread2_entry     main.o
    0x00001d68   0x00001d68   0x00000084   Code   RO         3312    i.thread2_init      main.o
    0x00001dec   0x00001dec   0x00000064   Data   RO         2135    .constdata          cw32f030_rcc.o
    0x00001e50   0x00001e50   0x00000122   Data   RO         3983    .constdata          kservice.o
    0x00001f72   0x00001f72   0x00000002   PAD
    0x00001f74   0x00001f74   0x00000004   Data   RO         3743    .rti_fn.0           components.o
    0x00001f78   0x00001f78   0x00000004   Data   RO         3744    .rti_fn.0.end       components.o
    0x00001f7c   0x00001f7c   0x00000004   Data   RO         3745    .rti_fn.1.end       components.o
    0x00001f80   0x00001f80   0x00000004   Data   RO         3746    .rti_fn.6.end       components.o
    0x00001f84   0x00001f84   0x00000020   Data   RO         4831    Region$$Table       anon$$obj.o


    Execution Region RW_IRAM1 (Exec base: 0x20000000, Load base: 0x00001fa4, Size: 0x00000ae0, Max: 0x00002000, ABSOLUTE)

    Exec Addr    Load Addr    Size         Type   Attr      Idx    E Section Name        Object

    0x20000000   0x00001fa4   0x00000004   Data   RW           20    .data               system_cw32f030.o
    0x20000004   0x00001fa8   0x00000004   Data   RW         3664    .data               cpuport.o
    0x20000008   0x00001fac   0x00000004   Data   RW         3665    .data               cpuport.o
    0x2000000c   0x00001fb0   0x00000004   Data   RW         3666    .data               cpuport.o
    0x20000010   0x00001fb4   0x00000004   Data   RW         3696    .data               clock.o
    0x20000014   0x00001fb8   0x00000001   Data   RW         3937    .data               irq.o
    0x20000015   0x00001fb9   0x00000003   PAD
    0x20000018   0x00001fbc   0x00000040   Data   RW         4122    .data               object.o
    0x20000058   0x00001ffc   0x00000014   Data   RW         4187    .data               scheduler.o
    0x2000006c   0x00002010   0x0000000c   Data   RW         4375    .data               timer.o
    0x20000078   0x0000201c   0x00000004   Data   RW         4805    .data               mc_p.l(stdout.o)
    0x2000007c        -       0x000004f0   Zero   RW         3313    .bss                main.o
    0x2000056c   0x00002020   0x00000004   PAD
    0x20000570        -       0x00000178   Zero   RW         3742    .bss                components.o
    0x200006e8        -       0x000000f8   Zero   RW         3805    .bss                idle.o
    0x200007e0        -       0x00000100   Zero   RW         4186    .bss                scheduler.o
    0x200008e0        -       0x00000200   Zero   RW            1    STACK               startup_cw32f030.o


==============================================================================

Image component sizes


      Code (inc. data)   RO Data    RW Data    ZI Data      Debug   Object Name

       100         18          0          0          0       9719   board.o
       102         12          0          4          0       1840   clock.o
       196         34         16          0        376       6000   components.o
       216         32          0          0          0        940   context_rvds.o
        62          4          0         12          0       3070   cpuport.o
         0          0          0          0          0     175524   cw32f030_adc.o
        96         40          0          0          0        655   cw32f030_flash.o
       244          4          0          0          0       1144   cw32f030_gpio.o
        26          0          0          0          0         72   cw32f030_i2c.o
      1020        298        100          0          0       7064   cw32f030_rcc.o
       740        126          0          0          0       7261   cw32f030_uart.o
       174         18          0          0          0      55073   debug.o
        76         22          0          0        248       2590   idle.o
        68          0          0          0          0      16739   interrupts_cw32f030.o
        48          8          0          1          0       1662   irq.o
       180          4        290          0          0       5900   kservice.o
       404        230          0          0       1264       8491   main.o
       160          4          0         64          0       6436   object.o
       428         62          0         20        256       8494   scheduler.o
        28          8        192          0        512        704   startup_cw32f030.o
       140         26          0          4          0      10023   system_cw32f030.o
       692         38          0          0          0      11633   thread.o
       674         28          0         12          0      11720   timer.o

    ----------------------------------------------------------------------
      5894       1016        632        120       2660     352754   Object Totals
         0          0         32          0          0          0   (incl. Generated)
        20          0          2          3          4          0   (incl. Padding)

    ----------------------------------------------------------------------

      Code (inc. data)   RO Data    RW Data    ZI Data      Debug   Library Member Name

         0          0          0          0          0          0   entry.o
         0          0          0          0          0          0   entry10a.o
         0          0          0          0          0          0   entry11a.o
         4          0          0          0          0          0   entry12b.o
         8          4          0          0          0          0   entry2.o
         4          0          0          0          0          0   entry5.o
         0          0          0          0          0          0   entry7b.o
         0          0          0          0          0          0   entry8b.o
         8          4          0          0          0          0   entry9a.o
        30          0          0          0          0          0   handlers.o
        40          0          0          0          0         72   idiv.o
        36          8          0          0          0         68   init.o
         0          0          0          0          0          0   iusefp.o
        32          0          0          0          0         68   llshl.o
        38          0          0          0          0         68   llsshr.o
        34          0          0          0          0         68   llushr.o
        36          0          0          0          0         60   memcpya.o
        50          8          0          0          0        144   printfb.o
         0          0          0          4          0          0   stdout.o
        44          0          0          0          0         72   uidiv.o
       360          6          0          0          0        140   dadd.o
       236          0          0          0          0        216   depilogue.o
        60         10          0          0          0         68   dfixui.o
        40          0          0          0          0         60   f2d.o
       178          0          0          0          0        108   fadd.o
       124          0          0          0          0         72   fdiv.o
       130          0          0          0          0        144   fepilogue.o
        40          0          0          0          0         60   ffixui.o
        14          0          0          0          0         68   ffltui.o
        24          0          0          0          0         60   fscalb.o

    ----------------------------------------------------------------------
      1574         40          0          4          0       1616   Library Totals
         4          0          0          0          0          0   (incl. Padding)

    ----------------------------------------------------------------------

      Code (inc. data)   RO Data    RW Data    ZI Data      Debug   Library Name

       364         24          0          4          0        620   mc_p.l
      1206         16          0          0          0        996   mf_p.l

    ----------------------------------------------------------------------
      1574         40          0          4          0       1616   Library Totals

    ----------------------------------------------------------------------

==============================================================================


      Code (inc. data)   RO Data    RW Data    ZI Data      Debug   

      7468       1056        632        124       2660     348354   Grand Totals
      7468       1056        632        124       2660     348354   ELF Image Totals
      7468       1056        632        124          0          0   ROM Totals

==============================================================================

    Total RO  Size (Code + RO Data)                 8100 (   7.91kB)
    Total RW  Size (RW Data + ZI Data)              2784 (   2.72kB)
    Total ROM Size (Code + RO Data + RW Data)       8224 (   8.03kB)

==============================================================================

