:020000040000FA
:1000000078020020D9000000312F0000332F0000BB
:1000100000000000000000000000000000000000E0
:10002000000000000000000000000000372F00006A
:100030000000000000000000392F0000EF00000069
:100040003B2F00003D2F00003F2F0000412F0000FC
:10005000432F0000452F0000472F00000000000044
:100060000000000000000000000000000000000090
:1000700065320000492F00004B2F00004D2F00007B
:10008000F100000000000000000000004F2F000001
:10009000AF2E0000512F0000F1000000532F000090
:1000A00000000000552F000000000000572F000046
:1000B000592F000000000000000000005B2F00002E
:1000C0000448854604F046F800480047E52D000046
:1000D000C046C046780200200649086885460648A2
:1000E000804706480047FEE7FEE7FEE7FEE7FEE73B
:1000F000FEE7000000000000052D0000C100000028
:10010000FB48406840084000F9494860084640689C
:1001100001210843F6494860704710B5044620683D
:10012000002808D02068102805D02068202802D098
:100130002068302800D103E05D21EEA002F0D7FE58
:10014000EB484038806BF4490843E94940398863FB
:100150002168A0680843616808430121890709688C
:10016000FF22F932914308430121890708600846BC
:10017000C06A00090001217C0907090F0843012119
:100180008907C8620846C06AF0218843A16909014D
:10019000F0221140084301218907C8620846C06A5D
:1001A00011018843216A090212011140084301210B
:1001B0008907C8620846C06A11018843A16A090319
:1001C00012011140084301218907C8620846C06A2C
:1001D00011018843218E09041201114008430121B5
:1001E0008907C8620846C06A11018843218F090542
:1001F00012011140084301218907C8620846C06AFC
:10020000110188434021095D09061201114008438C
:1002100001218907C8620846C06A00010009482117
:10022000095D0907090F0907084301218907C86209
:100230000846806A00090001217B0907090F08436D
:100240000121890788620846806AF0218843616934
:100250000901F022114008430121890788620846FC
:10026000806A11018843E1690902120111400843C3
:100270000121890788620846806A11018843616A02
:1002800009031201114008430121890788620846C9
:10029000806A11018843A18D0904120111400843AD
:1002A0000121890788620846806A11018843A18E6E
:1002B0000905120111400843012189078862084697
:1002C000806A11018843A18F090612011140084379
:1002D0000121890788620846806A00010009616C73
:1002E0000907090F0907084301218907886210BD22
:1002F0000120800700680121084389070860012068
:1003000070470120800700684008400001218907EC
:100310000860704710B5044601210903206D88422A
:1003200000D203E0962173A002F0E1FD0121090350
:10033000606D884200D203E097216EA002F0D7FDE5
:10034000A06D002802D0A06D012800D103E0982103
:1003500068A002F0CCFDE06D002802D0E06D01281D
:1003600000D103E0992163A002F0C1FD2046FFF710
:10037000D4FE206D0004616D0843012189070969DD
:10038000664A11400843012189070861E06C086250
:10039000A06D012807D16248406B082188430830CE
:1003A0005F49486305E05E48406B082188435C492B
:1003B0004863E06D012807D15948406B0421884308
:1003C000001D5749486305E05548406B04218843A8
:1003D0005349486310BD5249C96B0170704710B54D
:1003E0000446082C05D0042C03D0022C01D0012C8B
:1003F00000D103E0C1213FA002F079FD4848C06B65
:100400002040002801D0012010BD0020FCE7002082
:1004100043498863704710B50446082C05D0042C66
:1004200003D0022C01D0012C00D103E0DA2131A04D
:1004300002F05DFD3A48806BA0433949886310BDE6
:1004400070B504460D46002D01D0012D00D103E00A
:10045000EE2128A002F04BFD32482040002802D1B6
:10046000002C00D003E0EF2122A002F040FD002D7F
:1004700005D02B48406B20432949486304E02848B5
:10048000406BA0432649486370BD10B50446002C5C
:1004900001D0012C00D104E0FF210B3115A002F0A6
:1004A00026FD002C07D00120800780680121084329
:1004B0008907886007E001208007806840084000C5
:1004C00001218907886010BD70B505460C460026DD
:1004D000002C01D0012C00D104E0FF21383105A00F
:1004E00002F005FD002000281ED1002D1CD020E0C8
:1004F000404000404472697665725C4C696272618A
:10050000726965735C7372635C637733326C30312C
:10051000305F6164632E630001005A5A00F000F0FE
:1005200040000040F0FF0000FF213931594802F03F
:10053000DEFC2E46002C07D0012080078069304366
:1005400001218907886106E0012080078069B043A6
:1005500001218907886170BD70B50446082C00D25E
:1005600004E0FF2151314B4802F0C1FC4A4DA0008C
:10057000285A80B270BD002800D1704746490968EA
:10058000018000BFF9E7002800D17047424949685F
:10059000018000BFF9E7002800D170473E49896813
:1005A000018000BFF9E7002800D170473A49C968C7
:1005B000018000BFF9E7002800D17047364909697A
:1005C000018000BFF9E7002800D17047324949692E
:1005D000018000BFF9E7002800D170472E498969E2
:1005E000018000BFF9E7002800D170472A49C96996
:1005F000018000BFF9E710B50446002C01D0042C9F
:1006000000D104E0FF21DC31224802F070FC01201F
:10061000800700680421884320430907086010BD53
:10062000F0B58DB004460F461C49C88903F04CFC58
:1006300005461B4A1B4B03F04BFB039102903846C7
:1006400003F026FC0646214603F013FA054603F0A4
:100650005DFC01910090039B029A03F02AFB0122AA
:100660005207114B0591049003F032FB0991089059
:100670000A49497B481003F013FC07910690099B37
:10068000089A03F071FA0B910A9003F053FC0DB035
:10069000F0BD0000F404000040000040C00710005E
:1006A000E17A14AE476110400E84B83FFB48806881
:1006B00020218843F94988600846806820218843C2
:1006C0002030F6498860704710B50446A0680028BD
:1006D00002D0A068102800D103E02821F0A002F089
:1006E00006FCE068082802D0E068002800D103E09A
:1006F0002921EBA002F0FBFB6068002808D06068AD
:10070000202805D06068402802D06068602800D1A9
:1007100003E02A21E2A002F0EAFBEB4920698842CB
:1007200000D803E02B21DEA002F0E1FBDB484038DB
:10073000806B20210843D94940398863E168A0686B
:1007400008432178002901D0802100E000210843DE
:1007500061680843DD490968F82291430843DB4991
:100760000860206988626069C862A069086310BD7A
:10077000D649096849084900C207D20F1143D34A34
:100780001160704770B504460D46002C04D0D04867
:100790002040002800D003E04D21C1A002F0A7FBBB
:1007A000002D01D0012D00D103E04E21BCA002F0AC
:1007B0009EFB002D05D0C548C0682043C349C860D2
:1007C00004E0C248C068A043C049C86070BD10B50D
:1007D0000446002C04D0BF482040002800D003E08D
:1007E0006121AFA002F083FBB848006920400028D7
:1007F00001D0012010BD0020FCE710B50446002CFC
:1008000004D0B3482040002800D003E06A21A4A00F
:1008100002F06DFBE043AD494031086310BDAB49C8
:10082000C8627047A9494862704710B504461F2C3A
:1008300000DC03E087219AA002F059FBA34840683E
:100840007021884321017022114008439F4948606C
:1008500008464068032149068843E11049060322FF
:100860005206114008439949486010BD10B504462E
:100870001F2C00DC03E08F2189A002F038FB934895
:1008800040681F210905884321051F2212051140D8
:1008900008438E49486010BD10B50446072C00DCA3
:1008A00003E097217EA002F022FB88488068C00800
:1008B000C0006107490F0843844988600846806882
:1008C00089138843E11009040122120411400843EE
:1008D0007E49886010BD10B50446002C2FD0102C26
:1008E0002DD0202C2BD0302C29D001200006844282
:1008F00025D07948844222D07748103084421ED0D7
:100900007548203084421AD001200006844216D057
:100910007148844213D07048103084420FD06E4822
:10092000203084420BD001204006844207D0402C66
:1009300005D0502C03D0602C01D0702C00D103E0E6
:100940009F2157A002F0D3FA6048806863490840AD
:1009500020435E49886010BD10B50446E068002859
:1009600005D0E068012802D0E068032800D103E048
:10097000A5214BA002F0BBFAA0680F2800D803E025
:10098000A62147A002F0B3FA6068042800D203E071
:10099000A72143A002F0ABFA4C4880698008800090
:1009A00021788907890F084348498861084680698A
:1009B0000C218843616889000C2211400843434997
:1009C000886108468069F0218843A1680901F02206
:1009D000114008433D4988610846006A0221884366
:1009E000E16849000222114008433849086208467C
:1009F000006A40084000401C086210BD10B5044663
:100A0000E068002805D0E068012802D0E0680328EB
:100A100000D103E0B32122A002F069FAA0680F28F8
:100A200000D803E0B4211EA002F061FA27488069D3
:100A3000032109028843216809020322120211409E
:100A400008432249886108468069910088436168AB
:100A500089029200114008431C4988610846806958
:100A60000F2109038843A16809030F2212031140D3
:100A70000843164988610846006A20218843E168D6
:100A80004901202211400843104908620846006AC3
:100A90001021884310300D49086210BD40400040CD
:100AA0004472697665725C4C6962726172696573E1
:100AB0005C7372635C637733326C3031305F6174C6
:100AC000696D2E6300000000FFFF0000001400406D
:100AD000FF00F300FF3F0F00100000018FFFCFFF6A
:100AE00010B50446E068002805D0E068012802D06F
:100AF000E068032800D103E0C021FE4802F0F7F9C6
:100B0000A0680F2800D803E0C121FA4802F0EFF9ED
:100B1000F948C0698008800021788907890F084357
:100B2000F549C8610846C0690C218843616889009D
:100B30000C2211400843F049C8610846C069F02101
:100B40008843A1680901F02211400843EA49C861BD
:100B50000846006A49158843E168490201225202A9
:100B600011400843E44908620846006A8915884331
:100B70004018E149086210BD10B50446E06800283D
:100B800005D0E068012802D0E068032800D103E026
:100B9000CD21D84802F0ABF9A0680F2800D803E0B7
:100BA000CE21D44802F0A3F9D348C0690321090239
:100BB0008843216809020322120211400843CE49EA
:100BC000C8610846C0699100884361688902920043
:100BD00011400843C849C8610846C0690F2109038C
:100BE0008843A16809030F22120311400843C24938
:100BF000C8610846006A49148843E1684903012234
:100C0000520311400843BC4908620846006A89142F
:100C100088434018B849086210BD10B50446E06822
:100C2000002805D0E068012802D0E068032800D140
:100C300003E0DA21AF4802F05AF9A0680F2800D883
:100C400003E0DB21AB4802F052F9AB4840300069C9
:100C50008008800021788907890F0843A649403120
:100C60000861084600690C218843616889000C22EC
:100C700011400843A0494031086108460069F0214D
:100C80008843A1680901F022114008439A49403184
:100C900008619948006A49138843A18949040122DF
:100CA000520411400843944908620846006A8913B7
:100CB000884340189049086210BD10B50446E068AA
:100CC000002805D0E068012802D0E068032800D1A0
:100CD00003E0E721874802F00AF9A0680F2800D84E
:100CE00003E0E821834802F002F9834840300069BC
:100CF00003210902884321680902032212021140DC
:100D000008437D49403108610846006991008843E5
:100D100061688902920011400843774940310861B7
:100D2000084600690F2109038843A16809030F22BF
:100D30001203114008437049403108616E48006A4F
:100D4000012149058843A189490501225205114025
:100D50000843694908620846006A511088434018F0
:100D60006549086210BD10B504462068002802D00D
:100D70002068012800D103E0F4215E4802F0B7F8B2
:100D800060680F2800D803E0F5215A4802F0AFF858
:100D9000A068012802D0A068002800D103E0F62155
:100DA000544802F0A4F8607B002802D0607B012840
:100DB00000D103E0F7214F4802F099F84E488069CE
:100DC000800880004C498861084680690421884376
:100DD000A1688900042211400843474988610846F8
:100DE000806908218843617BC900082211400843BB
:100DF000414988610846806970218843616809011A
:100E00007022114008433C49886108468069891373
:100E100088436168C908090401221204114008438B
:100E2000354988610846006A04218843A17B89000E
:100E30000422114008433049086210BD10B5044631
:100E40002068002802D02068012800D104E0FF219A
:100E50000631284802F04BF860680F2800D804E0FB
:100E6000FF210731234802F042F8A068012802D090
:100E7000A068002800D104E0FF2108311D4802F0DD
:100E800036F8607B002802D0607B012800D104E0A6
:100E9000FF210931174802F02AF817488069032119
:100EA0000902884314498861084680690915884306
:100EB000A168890201229202114008430E4988610B
:100EC00008468069C9148843617BC90252001140F9
:100ED0000843094988610846806907210903884356
:100EE000616809030722120311400843024988611F
:100EF000084603E0A00A00000014004080690121B8
:100F000009068843A188C908090601221206114072
:100F10000843FB4988610846006A40218843A17B59
:100F20008901402211400843F549086210BD10B5FF
:100F300004462068002802D02068012800D104E07F
:100F4000FF211631EF4801F0D2FF60680F2800D86A
:100F500004E0FF211731EB4801F0C9FFA068012828
:100F600002D0A068002800D104E0FF211831E54834
:100F700001F0BDFF607B002802D0607B012800D11A
:100F800004E0FF211931DF4801F0B1FFDC48C069FE
:100F900080088000DA49C8610846C0690421884396
:100FA000A1688900042211400843D549C861084658
:100FB000C06908218843617BC900082211400843A9
:100FC000CF49C8610846C06970218843616809013A
:100FD000702211400843CA49C8610846C069891394
:100FE00088436168C90809040122120411400843BA
:100FF000C349C8610846006A09158843A17B890274
:10100000921111400843BE49086210BD10B5044654
:101010002068002802D02068012800D104E0FF21C8
:101020002631B84801F063FF60680F2800D804E05B
:10103000FF212731B34801F05AFFA068012802D0F0
:10104000A068002800D104E0FF212831AD4801F05C
:101050004EFF607B002802D0607B012800D104E0B5
:10106000FF212931A74801F042FFA548C0690321AB
:1010700009028843A249C8610846C0690915884326
:10108000A168890201229202114008439C49C8616B
:101090000846C069C9148843617BC90252001140E7
:1010A00008439749C8610846C06907210903884376
:1010B0006168090307221203114008439049C8617F
:1010C0000846C069012109068843A188C9080906A4
:1010D00001221206114008438949C8610846006A86
:1010E00009148843A17B8903921211400843844963
:1010F000086210BD10B504462068002802D02068A0
:10110000012800D104E0FF2136317E4801F0EFFED6
:1011100060680F2800D804E0FF213731794801F0DA
:10112000E6FEA068012802D0A068002800D104E0F3
:10113000FF213831734801F0DAFE607B002802D0CD
:10114000607B012800D104E0FF2139316D4801F0B6
:10115000CEFE6B484030006980088000684940310D
:1011600008610846006904218843A16889000422B7
:10117000114008436249403108610846006908216E
:101180008843617BC9000822114008435C49403113
:10119000086108460069702188436168090170226E
:1011A00011400843564940310861084600698913D7
:1011B00088436168C90809040122120411400843E8
:1011C0004F49403108614E48006A91008843A17B35
:1011D00089049200114008434949086210BD10B5C6
:1011E00004462068002802D02068012800D104E0CD
:1011F000FF214631434801F07AFE60680F2800D88D
:1012000004E0FF2147313F4801F071FEA06801284A
:1012100002D0A068002800D104E0FF2148313948FD
:1012200001F065FE607B002802D0607B012800D1C0
:1012300004E0FF214931334801F059FE3048403085
:1012400000690321090288432D494031086108469D
:10125000006909158843A1688902012292021140A0
:10126000084327494031086108460069C91488438A
:10127000617BC90252001140084321494031086195
:1012800008460069072109038843616809030722AA
:101290001203114008431A494031086108460069A9
:1012A000012109068843A188C908090601221206FE
:1012B000114008431249403108611148006A9110F9
:1012C0008843A17B89059210114008430C490862AC
:1012D00010BD10B50446002C01D0012C00D104E053
:1012E000FF215B31074801F002FE0548006A400813
:1012F0004000E107C90F08430149086210BD000022
:1013000000140040A00A000010B50446002C01D0D3
:10131000012C00D104E0FF216731F34801F0E7FD23
:10132000F248006A1021884321011022114008432D
:10133000EE49086210BD10B50446002C01D0012C06
:1013400000D104E0FF217331E74801F0D0FDE74808
:10135000006AFF21013188432102FF22013211403E
:101360000843E249086210BD10B50446002C01D0C4
:10137000012C00D104E0FF217F31DB4801F0B7FDF3
:10138000DA48006A0121090388432103012212037C
:1013900011400843D549086210BD10B50446002C21
:1013A00001D0012C00D104E0FF218B31CE4801F0A7
:1013B0009EFDCE48006A01210904884321040122D0
:1013C000120411400843C949086210BD10B5044613
:1013D000002C01D0012C00D104E0FF219731C2483C
:1013E00001F085FDC148006A0121090588432105F6
:1013F0000122120511400843BC49086210BDBB48D8
:10140000406B80B27047B948806B80B27047B74874
:10141000C06B80B27047B5484030006880B27047FA
:10142000B2484030806880B27047B0484030C068F1
:1014300080B27047AD4948637047AC4988637047D4
:10144000AA49C8637047A949403108607047A74955
:10145000403188607047A5494031C860704710B579
:101460000446002C01D0012C00D104E0FF21D6312C
:101470009D4801F03CFD9D48403040680121C90372
:101480008843E1030122D2031140084397494031C8
:10149000486010BD30B5884212D1944B40335B692F
:1014A00001242404A343914C4034636123465B68C8
:1014B0001B0A1B02C4B223438C4C403463601BE004
:1014C0008A4B40335B6901242404A3431B19874CD6
:1014D0004034636123465B681B0A1B02C4B223438A
:1014E000824C4034636023465B691B0A1B02CCB20A
:1014F00023437E4C403463617C4B40335B69012461
:101500006404A343540401256D042C402343774C09
:101510004034636130BD70B504460D46002C01D0E7
:10152000012C00D104E0FF21FD316F4801F0DFFC08
:101530000F2D00D804E0FF21FE316B4801F0D7FCED
:101540006A48403040680121490388436103012211
:1015500052031140084365494031486008464068DD
:101560000F210904884329040F2212041140084363
:101570005E494031486008464068891488434018F5
:101580005A494031486070BD70B504460D46002C84
:1015900001D0012C00D103E05549534801F0A7FCCC
:1015A0000F2D00D804E04121C9004F4801F09FFCF5
:1015B0004E484030406801214906884361060122B7
:1015C0005206114008434949403148600846406886
:1015D0000F210905884329050F22120511400843F0
:1015E0004249403148600846406801210906884365
:1015F00040183E494031486070BD10B50446012C8A
:1016000001D0002C00D104E039491431364801F0F2
:101610006EFC3648006804218843A1000422114072
:1016200008433249086010BD10B5030002F0CCFD3C
:101630000604101F2E3D49582C4A4032D269120927
:1016400012010B071B0F1A43284B4033DA6148E0A5
:10165000264A4032D2690F231B029A430B020F2401
:10166000240223401A43214B4033DA6139E01F4AF8
:101670004032D2690F231B049A430B040F24240425
:1016800023401A43194B4033DA612AE0174A4032AB
:10169000D2690F231B069A430B060F24240623400E
:1016A0001A43124B4033DA611BE0104A4032D26ACF
:1016B000120912010B071B0F1A430C4B4033DA625D
:1016C0000FE00A4A4032D26A0F231B029A430B02F0
:1016D0000F24240223401A43044B4033DA6200E013
:1016E00000BF00BF10BD0000A00A000000140040B1
:1016F0000702000010B50446F748844207D0F648B8
:101700004030844203D0F4488030844200D103E06A
:101710003521F2A001F0EBFB002020606060A060AA
:10172000E060A0616062A062F648E06210BD70B542
:1017300005460C46E848854207D0E74840308542D8
:1017400003D0E5488030854200D103E04921E3A081
:1017500001F0CDFB6088002808D06088032805D000
:101760006088012802D06088022800D103E04A2165
:10177000DAA001F0BCFB2088E249884203DC208823
:10178000012800DB03E04B21D4A001F0B0FBE0888E
:10179000082802D0E088002800D103E04C21CFA027
:1017A00001F0A5FBD848406BD8490843D6494863A7
:1017B000A088E8622088A862286808218843E18818
:1017C00008432860A868C008C00061880843A86072
:1017D00070BD70B504460D46BF48844207D0BE4870
:1017E0004030844203D0BC488030844200D103E0C2
:1017F0006321BAA001F07BFB002D01D0012D00D1A7
:1018000003E06421B5A001F072FB002D04D0206834
:1018100001210843206003E0206840084000206068
:1018200070BD70B504460D461646AB48844207D0DD
:10183000A9484030844203D0A7488030844200D178
:1018400003E07221A5A001F052FB002E01D0012E71
:1018500000D103E07321A1A001F049FB012D01D0CB
:10186000402D00D103E074219CA001F040FB002E2C
:1018700003D0E0682843E06002E0E068A843E0604D
:1018800070BD70B504460D469348844207D0924817
:101890004030844203D090488030844200D103E03D
:1018A00082218EA001F023FB012D01D0402D00D11B
:1018B00003E0832189A001F01AFB20692840002859
:1018C00001D0012070BD0020FCE770B504460D4634
:1018D0008148844207D080484030844203D07E480B
:1018E0008030844200D103E092217CA001F0FFFA15
:1018F000012D01D0402D00D103E0932177A001F00C
:10190000F6FAA069A843A06170BD70B504460D4603
:101910007148844207D070484030844203D06E48FA
:101920008030844200D103E0A2216CA001F0DFFAF4
:10193000402D01D0012D00D103E0A32167A001F0CB
:10194000D6FA60692843606170BD70B504460D46E3
:101950006148844207D060484030844203D05E48EA
:101960008030844200D103E0B4215CA001F0BFFAD2
:10197000002D05D0032D03D0012D01D0022D00D163
:1019800003E0B52155A001F0B2FAA068C008C0007C
:101990002843A06070BD70B504460D464E48844291
:1019A00007D04D484030844203D04B4880308442B9
:1019B00000D103E0C52149A001F099FA082D01D01A
:1019C000002D00D103E0C62144A001F090FA206868
:1019D000082188432843206070BD70B504460D4639
:1019E0003D48844207D03C484030844203D03A48C6
:1019F0008030844200D103E0D32138A001F077FA8F
:101A0000002D01D0012D00D103E0D42133A001F03D
:101A10006EFA002D05D020680121C903084320601B
:101A200004E020680121C9038843206070BD70B5BF
:101A300004460D462848844207D027484030844257
:101A400003D025488030844200D103E0E12123A067
:101A500001F04DFA656270BD10B504461E4884421F
:101A600007D01D484030844203D01B488030844258
:101A700000D103E0ED2119A001F039FA606A80B2CB
:101A800010BD70B504460D461348844207D0124875
:101A90004030844203D010488030844200D103E0BB
:101AA000FA210EA001F023FAE56270BD10B50446DC
:101AB0000948844207D008484030844203D0064891
:101AC0008030844200D104E0FF21073103A001F0FF
:101AD0000EFAE06A80B210BD004800404472697698
:101AE00065725C4C69627261726965735C73726382
:101AF0005C637733326C3031305F6274696D2E63B2
:101B000000000000FFFF00000040004004005A5A9F
:101B100070B504460D46F848844207D0F648403078
:101B2000844203D0F4488030844200D104E0FF2195
:101B30001431F24801F0DBF9F148854202DC012D55
:101B400000DB04E0FF211531EC4801F0D0F9681EFC
:101B5000A06270BD10B50446E748844207D0E6484D
:101B60004030844203D0E4488030844200D104E015
:101B7000FF212131E14801F0BAF9A06A80B210BD1D
:101B800070B504460D46DC48844207D0DA48403040
:101B9000844203D0D8488030844200D104E0FF2141
:101BA0002E31D64801F0A3F9002D01D0012D00D12E
:101BB00004E0FF212F31D14801F099F9002D05D023
:101BC00020680121C9020843206004E02068012147
:101BD000C9028843206070BD70B505460C46C648F2
:101BE000854207D0C4484030854203D0C248803087
:101BF000854200D104E0FF213C31C04801F077F973
:101C00006068002821D001210903606888421CD047
:101C100049006068884218D003210903606888423F
:101C200013D001218903606888420ED00521090381
:101C30006068884209D0032149036068884204D063
:101C4000072109036068884200D104E0FF213D318B
:101C5000AA4801F04CF9A868072109038843616884
:101C60000843A86070BD70B504460D46A248844282
:101C700007D0A1484030844203D09F48803084423E
:101C800000D104E0FF214D319C4801F030F9002DD6
:101C900001D0012D00D104E0FF214E31974801F021
:101CA00026F9002D04D0206880210843206003E03D
:101CB000206880218843206070BD70B504460D46C1
:101CC0008D48844207D08C484030844203D08A48F3
:101CD0008030844200D104E0FF215B31874801F06D
:101CE00006F9042D01D0002D00D104E0FF215C3164
:101CF000824801F0FCF820680421884328432060D2
:101D000070BD10B504467C48844207D07A48403004
:101D1000844203D078488030844200D104E0FF211F
:101D20006731764801F0E3F820680221884320609B
:101D300010BD10B504467048844207D06E4840304C
:101D4000844203D06C488030844200D104E0FF21FB
:101D500073316A4801F0CBF8206802210843206003
:101D600010BD70B505460C4616466348854207D03F
:101D700061484030854203D05F488030854200D1C1
:101D800004E0FF2181315D4801F0B1F8002C31D031
:101D9000802C2FD0FF20013084422BD0FF208130B7
:101DA000844227D001204002844223D00520C00174
:101DB00084421FD00320000284421BD00720C001B0
:101DC000844217D001208002844213D00920C00130
:101DD00084420FD00520000284420BD00B20C001AA
:101DE000844207D003204002844203D00F20C00168
:101DF000844200D104E0FF218231404801F077F8AD
:101E0000002E03D001204004864200D104E0FF21CF
:101E100083313A4801F06BF8A8683A4908402146F6
:101E200031430843A86070BD70B505460C461646A0
:101E30003148854207D030484030854203D02E4893
:101E40008030854200D104E0FF2191312B4801F020
:101E50004EF8002C19D0082C17D0102C15D0182CA7
:101E600013D0202C11D0282C0FD0302C0DD0382C92
:101E70000BD0402C09D0482C07D0502C05D0582C22
:101E800003D0602C01D0782C00D104E0FF219231E6
:101E90001A4801F02CF8002E03D0012000048642DD
:101EA00000D104E0FF219331144801F020F8A86824
:101EB00015490840214631430843A86070BD70B5FC
:101EC00005460C460C48854207D00B4840308542F9
:101ED00003D009488030854200D104E0FF21A031C1
:101EE000064801F004F8002C05D0102C03D0202C5B
:101EF00001D0302C0AD10EE000480040DC1A00006E
:101F0000FFFF00007FF8FDFF87FFFEFFFF21A131EB
:101F10001B4800F0ECFF6C6070BD10B5044619481A
:101F2000844207D017484030844203D0154880309F
:101F3000844200D104E0FF21AD31114800F0D7FF09
:101F4000A0680121C9020843A06010BD10B5044675
:101F50000C48844207D00B484030844203D00948E3
:101F60008030844200D104E0FF21B831044800F001
:101F7000BEFFA0680121C9028843A06010BD000017
:101F8000DC1A0000004800401722D2068218002AFE
:101F900004D0FF3A013A002A0FD106E0554A126BED
:101FA000554B1A43534B1A6308E0524A126B524B7B
:101FB00010331A434F4B1A6300E000BF00BF4A685A
:101FC000002A04D1C2690B681A43C26142E0C269A7
:101FD0000B689A43C26110234A681A40102A29D11B
:101FE00002680B681A43026002690B689A43026137
:101FF0004A68112A03D102690B681A430261426AD6
:102000000B689A434262826A0B689A438262812318
:102010008A681A40812A03D1426A0B681A434262D5
:1020200082238A681A40822A14D1826A0B681A4372
:1020300082620FE002680B689A4302604A68202AB5
:1020400004D142680B689A43426003E042680B681F
:102050001A4342607047C2690A43C26102680A4378
:10206000026002698A430261426A8A434262826A6A
:102070008A43826242688A43426070470246106D1A
:102080000840002801D0012070470020FCE7012A09
:1020900001D1C16500E08165704741657047016607
:1020A00070471448806814490E3908434903886012
:1020B000704710488068022188430F49103908434F
:1020C0000C49886070470B4880680B490F390843FA
:1020D0000849886070470748806840084000064902
:1020E0001039084303498860704713460B43036463
:1020F000704700000040004010005A5A10B50446D6
:10210000002C0DD0202C0BD0402C09D0602C07D0F7
:10211000802C05D0A02C03D0C02C01D0E02C00D105
:1021200003E03421F5A000F0E2FEFE480068FE491D
:102130000840FE4940182043FA49086010BD10B518
:102140000446002C0DD0202C0BD0402C09D0602C44
:1021500007D0802C05D0A02C03D0C02C01D0E02CBF
:1021600000D103E03E21E5A000F0C1FEED4800688B
:10217000ED49C8310840ED4940182043E94908605D
:1021800010BD70B5002400260025E648006846070B
:10219000760FE44880694004050F002E06D0012E1A
:1021A0000CD0032E0CD0042E0FD10BE0A800E04A77
:1021B0001158E04801F0A2FB04460EE0DE4C0CE0B2
:1021C000DE4C0AE00124E40307E0A800D84A1158D5
:1021D000D84801F093FB044600BF00BFD148006817
:1021E0000006410F2046C8400446204670BDD44931
:1021F0000860704770B50446002C05D0012C03D050
:10220000032C01D0042C00D103E04A21BBA000F034
:102210006EFEC4480068C449D9310840C34940181B
:102220002043C0490860FFF7ACFF0546FFF7DFFF1A
:1022300070BD70B504460D46402C05D0802C03D0EF
:10224000FF200130844200D103E05721ABA000F011
:102250004EFE002D08D0B348406880B2B349401804
:102260002043B049486007E0AE48406880B2AF49BB
:102270004018A043AB49486070BD10B50446202CFF
:1022800001D0002C00D103E06A219CA000F02FFEB9
:10229000A448406880B2A54940182043A14948603D
:1022A00010BD10B50446082C01D0002C00D103E06D
:1022B000752192A000F01BFE9A4880689A49D83197
:1022C00008409A49401820439649886010BD10B5CF
:1022D0000446042C01D0002C00D103E0802187A00B
:1022E00000F005FE8F4880688F49DC3108408F4937
:1022F000401820438B49886010BD10B50446002C5F
:1023000001D0022C00D103E08B217CA000F0EFFD76
:10231000844880688449DE3108408449401820435D
:102320008049886010BD8049E0317E48406880B2B5
:102330007E4A8018012210437A4A506001E0481E0C
:1023400081B2784880690122D2031040002801D16F
:102350000029F4D1002901D101207047714800689B
:1023600080B2724A80186F4A10601046006880B2CE
:102370006E4A80186B4A10601046406880B26B4A03
:10238000801801221043FF226B329043654A50604F
:102390001046806880B2654A80180C229043614ADA
:1023A00090606848D06010464069400A4002506121
:1023B0000020D2E710B50024FFF7E3FE0446594899
:1023C0000068C006810F2046C8400446204610BD64
:1023D00070B50446544DE0350120C002844238D027
:1023E0004000844235D00320C002844231D0012015
:1023F000400384422DD00520C002844229D003200E
:102400000003844225D00720C002844221D001204D
:10241000800384421DD00920C002844219D00520C7
:102420000003844215D00B20C002844211D0032047
:10243000400384420DD00D20C002844209D0072001
:102440000003844205D00F20C002844201D0002C3A
:1024500000D104E0FF211B3128A000F048FD01203D
:10246000C00284420CD12F4800684007400F00286A
:1024700006D12C4880682D491031084329498860CD
:10248000314800884005400D2043264988610846B0
:1024900040682649491C08432249486001E0681EFB
:1024A00085B2204880690121C9030840002801D174
:1024B000002DF4D1002D01D1012070BD0020FCE7DA
:1024C0001848406880B21949401840084000154932
:1024D000486070471449E0311B4840888005800DF2
:1024E000104A10621046006A0322920210430D4AFD
:1024F0001062104640680D4A083227E0447269763F
:1025000065725C4C69627261726965735C73726357
:102510005C637733326C3031305F7379736374721C
:102520006C2E6300004000401FFF000000005A5A5C
:1025300004420000006CDC020024F4002080000053
:102540000000002000FE5A5AC00710001043F64A4F
:10255000506001E0481E81B2F348006A0122D203B4
:102560001040002801D10029F4D1002901D1012017
:1025700070470020FCE7EC48406880B2EB49401807
:1025800008218843E84948607047E749C969302213
:1025900091430143E44AD1617047E349096B10223A
:1025A0001143E14A11630921C906096820229143B8
:1025B0000922D20611601146C969202291430922DD
:1025C000D206D1611146896907221205914305227D
:1025D000120589180922D2069161D349C96980225E
:1025E00091430143D04AD1617047F8B504460F4684
:1025F00015461E46CE480090002C01D0402C00D13C
:1026000004E0FF219331CB4800F071FCC648006B19
:1026100010210843C4490863002C08D10920C006D2
:10262000C069032108430921C906C86113E00920D4
:10263000C006C069400840000921C906C8610846B3
:102640000068012108430921C9060860084600699D
:102650004008400008613A460023B748012101F0D4
:1026600077F900020121490508432043202108434E
:1026700028433043AC49C86108464068AF49084325
:10268000A949486000BFA848C0690121C9040840A1
:10269000884205D00098411E89B200910028F2D1ED
:1026A0000098002801D10120F8BD0020FCE79E48D9
:1026B000406880B29D494018022188439A49486089
:1026C000704770B504460D469D4E002C01D0402C3D
:1026D00000D104E0FF21CD31964800F008FC102D18
:1026E00000DA04E0FF21CE31924800F000FC8E4871
:1026F000006B202108438C490863002C06D19148C7
:10270000C069032108438F49C86111E08D48C06941
:10271000022188438B49C8610846006802210843AA
:102720008849086008460069022108408549086117
:10273000204651214901084328437B494862084605
:1027400040687E49323908437749486000E0761E88
:102750007548406A4003C00F002801D1002EF6D111
:10276000002E01D1012070BD0020FCE76E484068BA
:1027700080B26E494018102188436B494860704709
:1027800070B50446002C05D0012C03D0032C01D0D9
:10279000042C00D103E06C49664800F0A8FB002C33
:1027A00006D0012C13D0032C1AD0042C27D000BF44
:1027B0005D480069C007C00F002805D05A4800696D
:1027C0000005C00F002801D1012070BD32E056483D
:1027D0000069C004C00F002801D10120F5E729E0FD
:1027E000514800690007C00F002805D04E48006915
:1027F0004004C00F002801D10120E6E71AE04A4852
:1028000000698006C00F002811D147480069C00642
:10281000C00F00280BD0444800690004C00F0028F6
:1028200005D0414800698006C00F002801D0012072
:10283000CBE700BF00BF3C48006880B23B4940186E
:10284000C008C000204338490860FFF79AFC0546DD
:10285000FFF7CDFC344800684007400FA04201D08C
:102860000120B2E70020B0E770B504460D466009CC
:102870004001002802D1002C00D004E03249303160
:102880002C4800F034FB002D01D0012D00D104E0D4
:102890004721C900274800F02AFB002D08D0224814
:1028A000C06880B22149401820431F49C86007E032
:1028B0001D48C06880B21D494018A0431A49C8602D
:1028C00070BD10B50446802C07D0202C05D0102CEC
:1028D00003D0082C01D0012C00D104E01A49483162
:1028E000144800F004FB104800692040002801D083
:1028F000012010BD0020FCE710B50446802C07D055
:10290000202C05D0102C03D0082C01D0012C00D194
:1029100004E00D495831074800F0E9FA02484069DF
:10292000A0430149486110BD0040004000005A5AD0
:10293000FFFF0000FC2400000050D6DC82015A5A40
:10294000FFFF0400000100480702000010B5044624
:102950000120C002844208D04000844205D0C0005B
:10296000844202D04010844200D103E0DD49DE48B9
:1029700000F0BDFADD4800692040002801D00120A8
:1029800010BD0020FCE7D9480069704770B50446C7
:102990000D46362120468843002802D1002C00D065
:1029A00004E0D0491931D04800F0A1FA002D07D039
:1029B000CE48006BCE4921430843CC49086306E06A
:1029C000CA48006BA043CA490843C849086370BDA0
:1029D00070B504460D46E009C001002802D1002C64
:1029E00000D004E0BF493031BF4800F080FA002D2C
:1029F00007D0BE48806BBE4921430843BB4988636A
:102A000006E0BA48806BA043B9490843B7498863D8
:102A100070BD70B504460D46D62120468843002877
:102A200002D1002C00D004E0AD218900AE4800F0B6
:102A30005EFA002D07D0AD48406BAD4921430843F5
:102A4000AA49486306E0A948406BA043A849084347
:102A5000A649486370BD70B504460D463621204630
:102A60008843002802D1002C00D004E09D495B314E
:102A70009D4800F03CFA002D07D09C48403000688B
:102A800020439A494031086006E098484030006889
:102A9000A04396494031086070BD70B504460D46AC
:102AA000E009C001002802D1002C00D004E0172169
:102AB00049018D4800F01BFA012D07D08B484030AA
:102AC0008068204389494031886006E0874840306B
:102AD0008068A04385494031886070BD70B5044668
:102AE0000D46E009C001002802D1002C00D004E00E
:102AF0007C4988317C4800F0FAF9012D07D07B48E9
:102B000040304068204379494031486006E07748CA
:102B100040304068A04375494031486070BD10B5F1
:102B20000446012C0FD0082C0DD0102C0BD0402CBB
:102B300009D0FF200130844205D04000844202D0F9
:102B40006C48844200D104E0C3218900664800F04B
:102B5000CEF966484030C0682040002801D00120EE
:102B600010BD0020FCE761484030C068704710B5D8
:102B70000446012C0FD0082C0DD0102C0BD0402C6B
:102B800009D0FF200130844205D04000844202D0A9
:102B90005848844200D104E056495439524800F064
:102BA000A6F952484030C068A04350494031C8603F
:102BB00010BD4E48006B4E49103108434B49086325
:102BC0000920C006C069042188430921C906C861DB
:102BD00008460068042188430921C90608600846A0
:102BE0008069072109028843FF3001300921C906A5
:102BF0008861704770B505460C46002D0BD0012D3D
:102C000009D0022D07D0032D05D0042D03D0052DAA
:102C100001D0062D00D104E036493839324800F0A1
:102C200066F9002C0DD0102C0BD0202C09D0302CA4
:102C300007D0402C05D0502C03D0602C01D0702C34
:102C400000D104E02B493739274800F050F92748D4
:102C5000006B274910310843244908630920C00646
:102C6000C069102188430921C906C86108468069E6
:102C70000721090488430121890440180921C90654
:102C8000886108460068102188430921C906086048
:102C90002846204315494031086370BD1648006935
:102CA0000421884314490861BFF34F8F30BF704738
:102CB00011480069042108430F490861BFF34F8F91
:102CC00030BF7047012806D10B4909690222114320
:102CD000094A116105E00849096902229143064A3F
:102CE000116170476E020000FC24000000400040AB
:102CF00000005A5A7903000000ED00E01248134921
:102D00000860704700B5124909884805400D11490F
:102D10008969C90AC90201430E4A91610C4949886F
:102D20008805800D1146096A890A890201431162EA
:102D3000FFF7E4FF00BD08B5009000BF00994A1EF0
:102D400000920029FAD108BD00093D0000000020D2
:102D5000C00710000040004010B5002400E0641CD3
:102D600063488442FBD3002400E0641C6048844232
:102D7000FBD3002400E0641C5D488442FBD30024A4
:102D800000E0641C5A488442FBD35A4909685A4AF5
:102D90001268881A01F07CF8584908605849574869
:102DA000006800F0A3FE5549086010BD70B500260C
:102DB00000240FE000F0AEFA52480068002801D06D
:102DC000701CC6B2002501E0681CC5B2142DFBDBE7
:102DD000601CC4B20A2CEDDB082E02DD0A204A4931
:102DE000087070BDFFF7B8FF00F0B8F800F0CEF83B
:102DF00000F0F0F800F007F900F05AF900F00CFAD2
:102E0000FFF7AAFF414880884149884209DD3F48D1
:102E10008088E1218900884203DC3C4880883D4964
:102E20000860FFF7C3FF41E03B480068142804D95D
:102E300000203949086000F06DFA384800686428BD
:102E400004D300203549086000F099FA2E48007834
:102E500000280AD032480078052806D0304800788B
:102E6000062802D005202E4908702D48007803005E
:102E700001F0AAF90B071B1B0F1B1215181B1B0ACD
:102E80001B0000F031FB10E000F0A2FB00F07BFC27
:102E90000BE000F0ECFB08E000F0FDFB05E000F0CB
:102EA00001FC02E000F068FC00BF00BFBCE710B509
:102EB00001211C48FEF7E5FC002817D00121194824
:102EC000FEF703FD18480068401C174908601248C7
:102ED0000068401C1049086010480068401C0F49F9
:102EE000086012480068401C1049086010BD704717
:102EF00060EA000058000020540000203400002048
:102F00000090654530000020240000201E000020B5
:102F1000EE02000044000020040000201800002001
:102F20001C00002000480040080000201400002081
:102F3000704700BFFEE770477047704770477047A3
:102F400070477047704770477047704770477047C9
:102F500070477047704770477047704710B5DF483B
:102F6000006B02218843801CDC490863DC48DD4992
:102F70004860C814FFF72CFA0020FFF73BF9002047
:102F8000FFF7BCF80020FFF7DAF810BD0EB50020FF
:102F9000009001900290D148006BD1490F31084355
:102FA000CE490863802002902020019003200090E9
:102FB00069460920C006FEF7E7FF0022012109202B
:102FC000C006FFF764F8012202210920C006FFF7BE
:102FD0005EF80EBD0EB50020009001900290BF4833
:102FE000006BBF491F310843BC490863FFF76BF80A
:102FF0008020029011200190802000906946BA48FC
:10300000FEF7C2FF0EBD00B593B0B448006BB449E3
:103010000F310843B14908630846006BB0491F31BE
:103020000843AE4908630920C006C06910218843DF
:1030300010300921C906C8610846C06920218843AB
:1030400020300921C906C861A748C0690421884306
:10305000001DA549C861A148806BA14908439F494B
:1030600088634C21684600F0A0FC0020009001908D
:1030700080200290042104910420039005210691F0
:1030800005900921089107906846FDF746F8FDF77D
:10309000BEF901210220FDF7D3F90C2000F010F950
:1030A00001212020FDF710FAFDF722F913B000BD31
:1030B00000B58FB08948806B89491F310843874923
:1030C00088630846006B86490F31084383490863CB
:1030D0000846006B82491F3108438049086300207D
:1030E0000C900D900E9080200E9020200D900320CB
:1030F0000C900CA97C48FEF747FF08200C900CA907
:103100000920C006FEF740FF77488069C008C0006C
:10311000C01D7549886108468069702188437030F8
:10312000714988610920C006806907210903884325
:1031300040180921C906886180200E9020200D903A
:1031400044200C900CA90920C006FEF71DFF0820A2
:103150000C900CA96448FEF717FF002204210920F7
:10316000C006FEF794FF002208215F48FEF78FFF9C
:10317000002240210920C006FEF789FF00200190AF
:10318000029003900490012168460175002006908A
:10319000079008902F20099054480A9000200B9027
:1031A00005A8FDF791FA0121684641740021817458
:1031B00000200390684601740620029000200190D0
:1031C00001A8FDF7D0FD01A8FDF738FE01A8FDF725
:1031D000AEFE01A8FDF71AFF0020FEF72BF9002034
:1031E000FEF72BF90020FEF72BF94148FEF72BF9EB
:1031F0000120FEF76EF80120FEF786F80120FEF7A9
:103200009AF80120FEF7B0F80120FEF728F9012016
:10321000FDF7AEFA0FB000BD1CB53048406B304929
:10322000C91C08432D49486372B6142000F048F8C1
:1032300062B6002000900190002168464180C18064
:103240002C4981802F21018069462B48FEF76FFAB7
:10325000012211462848FEF7E4FA01212648FEF72C
:10326000B8FA1CBD10B52548C06B8007C00F0028F8
:1032700025D0FDF7CCF82248FDF77DF92048801CC9
:10328000FDF781F91E48001DFDF785F91C4880886F
:103290001C49096840181B4908601B480068401C0D
:1032A0001949086008460068642808D300200860AF
:1032B000144800681549086000201249086010BDD4
:1032C000002809DB00BF00BFC206D20E01219140D9
:1032D0000F4A116000BF00BF70470000004000406F
:1032E00001005A5A00200240000100480E27000049
:1032F00087130000E7030000004800404000004042
:103300001E000020680000206C00002070000020DB
:1033100000E100E0FEB5002500245F484488FF205E
:103320003E30844203D200205C49086026E0FF2042
:103330004830844222D97D20400184421AD8204658
:10334000FF38483800F0A4FD009055480168009807
:1033500000F08FFB07465348006800F099FD39469E
:10336000019000F02DFB064600F0BCFD05464B48E1
:10337000056003E04C48006848490860FEBDF0B5B0
:1033800087B064214948006800F0CEFA04464848F6
:103390000068844203D800204649086017E0444989
:1033A0000968601A00F074FD0690069800F0AEFD02
:1033B000414A424B0591049000F08AFC054600F01A
:1033C000B9FD0690069800F08DFD3A4908603C482A
:1033D00000687D21C900484336490968884210D8F1
:1033E0003848007800280CD137480078401C36490E
:1033F0000870084600780F2806DB04203149087061
:1034000002E00020304908702349088800F040FDA0
:1034100006908B21C905069800F068FB2B490190A6
:1034200000F027FB074600F071FD05460022284BFF
:1034300000F0B6FC0022274B0391029000F048FCFC
:103440000591049000F076FD06902349069800F05F
:1034500010FB054600F046FD204908602048006842
:103460000A2148431D490968884210D81548007848
:1034700000280CD11B480078401C1A4908700846E7
:1034800000780F2806DB06200E49087002E00020B5
:103490001449087007B0F0BD1E0000203000002065
:1034A000340000205400002058000020700000204C
:1034B000440000204C000020B81E85EB51B8164097
:1034C0006000002024000020740000200000A040C4
:1034D0000000F83F0000324000002041480000207A
:1034E000640000207500002010B50024C748007853
:1034F000052800D110BDC6480068002866D0C54820
:103500000068002803D10120C349087038E0C14891
:103510000068012803D10020BF49087030E0BD4891
:10352000006802282CD18021BC48FEF7A7FD0128A5
:1035300010D1002400E0641CFF20F5308442FAD34F
:103540008021B648FEF79AFD012819D10020B24922
:10355000087015E08021B148FEF790FD00280FD1DA
:10356000002400E0641CFF20F5308442FAD380215F
:10357000AA48FEF783FD002802D10120A649087061
:103580000920A24908700020A5490860A5480068E4
:10359000642802D26420A34908606421A14800681D
:1035A00000F0ACF9A0490860A04800689C49086098
:1035B00009689F4A51430846642100F09FF99D49DC
:1035C000086000F050F90A209049087000BF91E7A8
:1035D00010B58E480078052800D110BD8C480068D1
:1035E000002802D1032089490870934800688E4959
:1035F0000968884239D300208F49086088480068EC
:103600008349096888421BD285480068401C844968
:103610000860084600687E490968884203D37C48F0
:1036200000687F4908607E490968814A514308461D
:10363000642100F063F97F49086000F003F914E0A9
:10364000774800687249096888420ED97048006856
:10365000734908600968764A51430846642100F0BE
:103660004DF97449086000F0EDF800BFB5E710B5FA
:1036700066480078052800D110BD00F021F900202F
:10368000624908706D49086000BF6C480068642892
:10369000FBD300BFF0E710B500F012F906205B493C
:1036A000087010BD10B50024002202210920C006B8
:1036B000FEF7EDFC00206149086000BF5F4800682C
:1036C000C828FBD355E05E480078844231DA5B4875
:1036D0000068C82806D2012202210920C006FEF790
:1036E000D6FC30E055480068FF219131884206D869
:1036F000002202210920C006FEF7C9FC23E04F4842
:103700000068FF21913188421DD94D4800788442DC
:1037100019DA601CC4B200204849086048480078A3
:10372000844210DA002202210920C006FEF7AFFC15
:1037300009E042480068FF21F531884203D30024A4
:1037400000203E4908603E4800780A2811D1FFF762
:10375000E1FD2F48006800280BD13949087001228B
:1037600002210920C006FEF792FC072027490870B5
:1037700000E0A8E700BF10BD25480068002801D17F
:1037800022490870704770B5002520480078052848
:1037900000D170BD1F480068022835D180211F4824
:1037A000FEF76CFC012812D11B48007801280ED1CD
:1037B000002400E0641C7D20C0008442FAD38021F4
:1037C0001648FEF75BFC012819D1012517E080217E
:1037D0001248FEF753FC002811D10F48007800284A
:1037E0000DD1002400E0641C7D20C0008442FAD387
:1037F00080210A48FEF742FC002800D10125012D56
:1038000002D103200149087000BFC2E71C0000205C
:1038100030000020500000202C0000200001004853
:103820003C0000205C0000204000002054000020EC
:10383000102700003800002014000020080000209D
:103840002400002010B529480078002805D1284917
:10385000098888B2FDF7EEFD04E02549098888B2A1
:10386000FDF7EBFD10BD10B520480078002813D1FE
:10387000002204210920C006FEF709FC0020FDF704
:10388000DCFD1B49098888B2FDF7D4FD012208211F
:103890001848FEF7FCFB12E0002208211548FEF74D
:1038A000F6FB0020FDF7C6FD1149098888B2FDF737
:1038B000C4FD012204210920C006FEF7E8FB10BD6B
:1038C00010B500200C490860FDF7B4FD0020FDF79D
:1038D000B4FD002204210920C006FEF7D8FB002217
:1038E00008210448FEF7D3FB10BD00002C00002087
:1038F00038000020000100482800002030B50B46A9
:10390000014600202022012409E00D46D5409D42B9
:1039100005D31D469540491B25469540401915463F
:10392000521E002DF1DC30BD70B500242546002864
:1039300001DA01244042002901DA01254942FFF75A
:10394000DDFFAC4200D04042002C00D0494270BDA7
:10395000F8B500242546002904DA0E46012400218A
:103960004042B141002B04DA1E4600235242012599
:10397000B34100F0FBFA8C4617461E46AC4203D01A
:10398000002540428D41AC46002C02D00026574213
:103990009E4161463A46334601B0F0BDD2B201E0E5
:1039A0000270401C491EFBD270470022F6E710B59A
:1039B00013460A4604461946FFF7F0FF204610BD9D
:1039C000F8B502464A40D40F42004B0052085B084B
:1039D0009A4202D20246084611464A0023D0C30D3D
:1039E0004A00DDB2120EAD1A202D35DA4902012649
:1039F000490AF6058A19002C00D0524220214F1B9B
:103A00001146B9402A411018C20D9A4221D0002C0B
:103A100017D0012D08DCDA05801AD20F8019D207E1
:103A2000DBB200F0FEFAF8BDDA05801A012340008F
:103A30001B06C01880185A428018CA0F104349004C
:103A400007E04908C2071143DA05801A80194008C7
:103A5000801800F0DEFAF8BD61000122511A001B47
:103A6000F7E70122D2075140AAE70122D2075040CE
:103A7000A6E7024670B54A40D30FDB0740002DD0C1
:103A80004A002AD0010E140E000212020919400A3F
:103A9000520A8418E50104465443000A120A2E040F
:103AA0005043A4194219200CC543AA18120C012531
:103AB000AD03521C521912047F39240400D0521C49
:103AC000104301D44000491EC2B20C06C0092018A0
:103AD000401C4008802A02D003E0002070BD40084E
:103AE0004000002900DA0020184370BD70B502467E
:103AF0004A40D50F40004A00ED0740085208002810
:103B000014D0002A12D0C40DD30D41020120C005EB
:103B10005202490A520AE41A091812187D349142D5
:103B200001D3641C00E04900002C01DA002070BDC4
:103B30000023914201D3891A034340084900002819
:103B4000F7D100290AD0914202D10121C90705E02D
:103B5000914201D2012101E00121C943E005C018D1
:103B6000401900F056FA70BDF0B5074608465840B7
:103B700087B0C00F049048000E465900400849081D
:103B8000BC1A884105D2384631461E4617460B46B8
:103B900002465800400810434DD0300D03904005B8
:103BA0005900400D490D0590401A0290402873DAE3
:103BB00018030121000B09050843019004980092A5
:103BC000002806D01146019A4942002090410091F8
:103BD0000190029840210A1A0199009800F0F6F924
:103BE00005460C466B4607CB00F000FAC019714140
:103BF000039A0E0D0023D71756401A467A401643F3
:103C000044D0049A002A2DD0029A012A039A15DC86
:103C10001205C01A914101263605001C7141D20FD0
:103C2000059ED2070093019202962A46234600F091
:103C30003EFA07B0F0BD38463146FAE71605234A8A
:103C40000F46B218C01AB74101210905001C4F41A7
:103C500000187F41114618187941E20F10436D1981
:103C6000644113E0E2076D0815436408C20714437A
:103C7000039A01261205C01A91413605001C7141B4
:103C8000CE07400830434908C01851412A46234610
:103C900000F000FACDE7FFE7049801224000C117C9
:103CA000121A00238B4104983146C417381AA141D7
:103CB000EEE730B40124E407634030BC54E730B48D
:103CC0000124E407614030BC4EE700000000E0FF43
:103CD000F0B51FB488B00B990998002448400999A1
:103CE000C00F490049080991C0070B99009049008D
:103CF00049080B9109990898A64608431CD00B99CE
:103D00000A98084318D0099801244000420D480041
:103D1000410D099824050003000B204309900B98DE
:103D20000003000B20430B9050181C494018002240
:103D300001901446104605E0002001460DB0F0BD8C
:103D4000032801DA034600E003239C46C11A0AAEA9
:103D50000AE05F0008ADED5B4F00F75B7D43002795
:103D6000AA187C41491C5B1E6145F2DD410004AB91
:103D70005A522104120C0A43240C401C0828DFDB91
:103D8000019802900099704601910090059B049A59
:103D90000799069800F08BF9D0E700000DFCFFFFB3
:103DA000F0B50C465C4085B0E40FE40703944C008A
:103DB00000266408590094464908024602962243A8
:103DC00021D062460A431ED06200570D4A000E03FE
:103DD0002303550D012402462C492405781B1B0B97
:103DE000360B401823432643614600901C46501A68
:103DF000B44103D30098401C009002E09218009850
:103E00005B41002803DA0020014605B0F0BD002028
:103E1000012109050746864611E064461D46141B2C
:103E2000B54106D36546521BB341744607430C4364
:103E3000A646CD0740084908284392185B4105462D
:103E40000D43EAD11046184313D06046194650403E
:103E50007140084306D06046101AB34106D20122D1
:103E6000002306E000220123DB0702E00122D24307
:103E70005310009874460105381C6141029C039D53
:103E80000019694100F006F9BFE70000FD030000DA
:103E900010B500229623114600F0C3F810BD0000B3
:103EA0000EB5C217C10F5040CA0740180021054B7C
:103EB0000293019200910A460B4600F0F8F803B015
:103EC00000BD0000330400000EB505490291002139
:103ED00000910A460B46019100F0E9F803B000BDDD
:103EE00033040000410040020122400AD205090EBD
:103EF00080187F2901DA00207047962903DC96227A
:103F0000511AC8407047963988407047C20FD2078F
:103F1000400040080BD0C10D0723DB01C918400247
:103F20000905400A1143C2084007114370470020A9
:103F300001467047CB0FDB07490010B54908024620
:103F40000A4307D00A0D07240903E401090B121BD9
:103F5000002A01DC002010BDC900440F0C43C10041
:103F6000E018D205801800F054F810BDF0B51FB469
:103F70000646002082B005464024019100901BE0D7
:103F8000019922460F46304600F0F6F8049A059B48
:103F9000801A994110D310461946224600F016F8AF
:103FA000361A8F410197224601200021009F00F020
:103FB0000DF838184D4100902046641E0028DFDCC3
:103FC000019B00982946324607B0F0BD10B5202A63
:103FD00004DB0146203A9140002010BD914020238F
:103FE0009C1A0346E3401943904010BD10B5202AA7
:103FF00006DBCB170846203A1041C1170B4306E0F9
:104000000B461341D0402024A21A91400843194680
:1040100010BD002904DA401C490001D140084000CD
:10402000704770B40024050C05D11024000402D19F
:10403000002921D01124050E01D100020834050FFA
:1040400001D10001241D850F01D18000A41C00288E
:1040500001DB4000641C002908D020252E1B0D46E2
:10406000F540A14000D001212943084301061B1B54
:10407000000ADB1D02D5002070BC7047DB05181854
:1040800080180029F8DA401C4900F5D170BC4008BE
:104090004000704710B5002B08DA0024401C614135
:1040A00092185B411A4301D14008400010BDF0B5A1
:1040B0001FB482B005460C0003D0084600F06DF82E
:1040C00002E000F06AF820300246009021462846BF
:1040D000FFF77CFF049B059A04460F4618431143E3
:1040E000084314D0184610431BD0009840210A1AE8
:1040F0001846059900F040F805460E46009A0599C5
:104100000498FFF763FF084305D0012004E0204630
:10411000394607B0F0BD0020C11705430E432C43BC
:10412000374300990E986305401A7905E40A002286
:104130000C43FD0A0A3002D500200146E9E70105DB
:10414000101969410C9C0D9D00196941FFF7A2FFF0
:10415000DFE70000064C0125064E05E0E36807CCCA
:104160002B430C3C98471034B442F7D3FBF7ACFF19
:10417000444200006442000010B5202A04DB0846D7
:10418000203AD040002110BD0B46D340D04020241F
:10419000A21A91400843194610BD2021020C01D0FB
:1041A00010211046020A01D010460839020901D038
:1041B0001046091F820801D01046891E420801D00E
:1041C000881E7047081A704730B47446641E2578FC
:1041D000641CAB4204D3635D5B00E31830BC18473A
:1041E0001D46F8E702E008C8121F08C1002AFAD1EC
:1041F00070477047002001E001C1121F002AFBD167
:1042000070470000100000000100000002000000E4
:10421000030000000400000005000000060000008C
:104220000700000008000000090000000A0000006C
:104230000B0000000C0000000D0000000E0000004C
:104240000F00000064420000000000207800000021
:10425000E4410000DC420000780000200002000081
:10426000F441000000093D000000000000000000D3
:10427000000000000000000000000000000000003E
:10428000000000000000000000000000000000002E
:10429000000000000000000000000000000000001E
:1042A000000000000000000000000000000000000E
:1042B00000000000020000000A000000640000008E
:1042C000E80300000A0000001200000000000000E7
:0C42D000000000000000000000000000E2
:04000005000000C136
:00000001FF
