:020000040000FA
:1000000050080020D9000000A915000021110000AF
:1000100000000000000000000000000000000000E0
:10002000000000000000000000000000751B000040
:100030000000000000000000D1180000411C00007A
:10004000C11F0000C5110000191B0000150F0000A2
:1000500071190000450F0000470F0000490F000014
:100060004B0F0000790E0000810E0000830E00008F
:100070001D0A0000E50A0000BD1F0000BF1F0000B0
:100080004F100000511000005310000055100000E8
:10009000890D0000910D0000930D00002311000058
:1000A000251100001B1B00001D1B00007D1E000011
:1000B0007F1E0000811E0000510D0000130F000084
:1000C0000448854600F030FC0048004749270000FE
:1000D000C046C046500800200649086885460648C4
:1000E000804706480047FEE7FEE7FEE7FEE7FEE73B
:1000F000FEE7000000000000951C0000C1000000A9
:1001000030B50B46014600202022012409E00D46AF
:10011000D5409D4205D31D469540491B2546954037
:1001200040191546521E002DF1DC30BD03460B432D
:100130009B0703D009E008C9121F08C0042AFAD29D
:1001400003E00B780370401C491C521EF9D2704723
:10015000F8B502464A40D40F42004B0052085B08F3
:100160009A4202D20246084611464A0023D0C30DE5
:100170004A00DDB2120EAD1A202D35DA49020126F1
:10018000490AF6058A19002C00D0524220214F1B43
:100190001146B9402A411018C20D9A4221D0002CB4
:1001A00017D0012D08DCDA05801AD20F8019D2078A
:1001B000DBB200F021FBF8BDDA05801A0123400014
:1001C0001B06C01880185A428018CA0F10434900F5
:1001D00007E04908C2071143DA05801A8019400870
:1001E000801800F001FBF8BD61000122511A001BCC
:1001F000F7E70122D2075140AAE70122D207504077
:10020000A6E7024670B54A40D30FDB0740002DD069
:100210004A002AD0010E140E000212020919400AE7
:10022000520A8418E50104465443000A120A2E04B7
:100230005043A4194219200CC543AA18120C0125D9
:10024000AD03521C521912047F39240400D0521CF1
:10025000104301D44000491EC2B20C06C009201848
:10026000401C4008802A02D003E0002070BD4008F6
:100270004000002900DA0020184370BD70B5024626
:100280004A40D50F40004A00ED07400852080028B8
:1002900014D0002A12D0C40DD30D41020120C00594
:1002A0005202490A520AE41A091812187D3491427E
:1002B00001D3641C00E04900002C01DA002070BD6D
:1002C0000023914201D3891A0343400849000028C2
:1002D000F7D100290AD0914202D10121C90705E0D6
:1002E000914201D2012101E00121C943E005C0187A
:1002F000401900F079FA70BD420005D04200120E9C
:1003000052428A4201DB00207047C9050818704735
:10031000F0B507460846584087B0C00F0490480023
:100320000E46590040084908BC1A884105D2384693
:1003300031461E4617460B460246580040081043F9
:100340004DD0300D039040055900400D490D0590EA
:10035000401A0290402873DA18030121000B0905A6
:100360000843019004980092002806D01146019A93
:1003700049420020904100910190029840210A1AC0
:100380000199009800F0FCF905460C466B4607CB36
:1003900000F017FAC0197141039A0E0D0023D71708
:1003A00056401A467A40164344D0049A002A2DD06B
:1003B000029A012A039A15DC1205C01A91410126FE
:1003C0003605001C7141D20F059ED20700930192A1
:1003D00002962A46234600F055FA07B0F0BD38468B
:1003E0003146FAE71605234A0F46B218C01AB7413C
:1003F00001210905001C4F4100187F4111461818C2
:100400007941E20F10436D19644113E0E2076D0872
:1004100015436408C2071443039A01261205C01A43
:1004200091413605001C7141CE0740083043490810
:10043000C01851412A46234600F017FACDE7FFE7DE
:10044000049801224000C117121A00238B4104981E
:100450003146C417381AA141EEE730B40124E4074D
:10046000634030BC54E730B40124E407614030BC41
:100470004EE700000000E0FFF0B51FB488B00B9914
:100480000998002448400999C00F4900490809917A
:10049000C0070B990090490049080B9109990898E9
:1004A000A64608431CD00B990A98084318D009980F
:1004B00001244000420D4800410D09982405000325
:1004C000000B204309900B980003000B20430B9076
:1004D00050181C494018002201901446104605E0AF
:1004E000002001460DB0F0BD032801DA034600E00C
:1004F00003239C46C11A0AAE0AE05F0008ADED5B1B
:100500004F00F75B7D430027AA187C41491C5B1E06
:100510006145F2DD410004AB5A522104120C0A433A
:10052000240C401C0828DFDB0198029000997046DB
:1005300001910090059B049A0799069800F0A2F992
:10054000D0E700000DFCFFFFF0B50C465C4085B025
:10055000E40FE40703944C00002664085900944615
:10056000490802460296224321D062460A431ED021
:100570006200570D4A000E032303550D0124024665
:100580002C492405781B1B0B360B401823432643AC
:10059000614600901C46501AB44103D30098401C99
:1005A000009002E0921800985B41002803DA0020D6
:1005B000014605B0F0BD0020012109050746864629
:1005C00011E064461D46141BB54106D36546521B17
:1005D000B341744607430C43A646CD07400849087B
:1005E000284392185B4105460D43EAD11046184353
:1005F00013D06046194650407140084306D060460B
:10060000101AB34106D20122002306E00022012382
:10061000DB0702E00122D243531000987446010523
:10062000381C6141029C039D0019694100F01DF9CD
:10063000BFE70000FD03000070B54B005B080343FB
:100640000BD04B005C0D002633466542B341D417F6
:10065000AD1AA34102DB0020014670BD120530181F
:10066000514170BDC217C10F504010B54018CA07A4
:100670009623002100F0C0F810BD10B5002296238B
:10068000114600F0B9F810BD0EB5054902910021E0
:1006900000910A460B46019100F0F4F803B000BD4A
:1006A00033040000410040020122400AD205090E35
:1006B00080187F2901DA00207047962903DC9622F2
:1006C000511AC84070479639884070474A0009035C
:1006D0000123090B1B051943094B10B5520D9A4212
:1006E00001DA002010BD064B34339A4203DC9A1A1B
:1006F00000F056F810BD03495118884010BD0000A5
:10070000FF030000CDFBFFFFC20FD20740004008EF
:100710000BD0C10D0723DB01C91840020905400AAF
:100720001143C2084007114370470020014670473B
:1007300010B5002904DB0124E40740428C41214626
:10074000002B04DB1C460123DB075242A3418B42F2
:1007500000D1824210BD000010B5002904DB012445
:10076000E40740428C412146002B04DB1C46012358
:10077000DB075242A341994200D1904210BD0000D4
:1007800010B5202A04DB0146203A9140002010BD1C
:10079000914020239C1A0346E3401943904010BD2A
:1007A00010B5202A04DB0846203AD040002110BDB5
:1007B0000B46D340D0402024A21A9140084319464A
:1007C00010BD10B5202A06DBCB170846203A104191
:1007D000C1170B4306E00B461341D0402024A21A58
:1007E00091400843194610BD002904DA401C490015
:1007F00001D140084000704770B40024050C05D1B9
:100800001024000402D1002921D01124050E01D1A9
:1008100000020834050F01D10001241D850F01D10C
:100820008000A41C002801DB4000641C002908D0C3
:1008300020252E1B0D46F540A14000D00121294363
:10084000084301061B1B000ADB1D02D5002070BCFB
:100850007047DB05181880180029F8DA401C490099
:10086000F5D170BC40084000704710B5002B08DA85
:100870000024401C614192185B411A4301D1400899
:10088000400010BDF0B51FB482B005460C0003D087
:10089000084601F015FE02E001F012FE203002468B
:1008A000009021462846FFF76BFF049B059A0446FB
:1008B0000F4618431143084314D0184610431BD069
:1008C000009840210A1A18460599FFF769FF054666
:1008D0000E46009A05990498FFF752FF084305D089
:1008E000012004E02046394607B0F0BD0020C117C2
:1008F00005430E432C43374300990E986305401A75
:100900007905E40A00220C43FD0A0A3002D50020D2
:100910000146E9E70105101969410C9C0D9D00197C
:100920006941FFF7A2FFDFE7064C0125064E05E00F
:10093000E36807CC2B430C3C98471034B442F7D300
:10094000FFF7C2FB0031000020310000C2698A437A
:10095000C261704710B5012000F0A8FA002838D015
:100960001C49002048611C498863802048601C485D
:100970001A4941621849203181621A49C162026AEA
:1009800001210A430262154A1548521E4030426056
:10099000154B8360104B1B1DC36003680B43036042
:1009A0004262114C203C84620B4A0832C262036AE4
:1009B0000B430362094B0A485B1F8030436084602D
:1009C000C26002680A43026000F054FC012000F09B
:1009D00059FA10BD002C014000240140060001001E
:1009E00000000240400000202100002000B5054822
:1009F0000168012211430160802000F005F8002801
:100A0000FAD000BD002401400349C96B014201D066
:100A1000012070470020704700240140704700000B
:100A200010B582680169C368114342681A431143D3
:100A30004269114302681143124A1368124C234061
:100A400019431160C369816919435368C024A343E2
:100A500019435160016A002906D01369A400A34319
:100A60005415234319431161C068802809D10748F0
:100A7000016B2022114301630548C1690122114322
:100A8000C16110BD0024014011C0FFFF0000014002
:100A9000000400480149C04348617047002C0140F0
:100AA0000449CA68C00752085200C00F0243CA6016
:100AB00070470000002C0140044A116B9314C007DA
:100AC0009943C00C0143116370470000002C0140A2
:100AD00003490969014201D0012070470020704795
:100AE000002C014010B500F0E7FE10BD054A0029BA
:100AF00003D0D1680143D1607047D1688143D16090
:100B000070470000002C014010B5026841688368FE
:100B10000A43016919430A43017B002901D080215E
:100B200000E000210A4341690E4B0A43D9680E4C8C
:100B300021400A43DA6081691960014620310A4682
:100B40004978002901D0991500E000211278002A87
:100B500002D00122520200E00022C0691143014389
:100B6000596310BD002C01400B8FFFF7174BD9695B
:100B7000026809090901D200114342681143D96191
:100B8000D968032252059143027A9207520A11430F
:100B9000D960817B002901D0402100E00021027B47
:100BA000002A02D00122920200E00022407B114381
:100BB000002802D0FF20013000E000200143586AE5
:100BC000152292019043014359627047002C014065
:100BD00010B5416802680902D202174B1143DA6965
:100BE0000F242402A2431143D961D968032252057C
:100BF0009143027A9207520A1143D960817B0029FE
:100C000001D0402100E00021027B002A02D0012215
:100C1000920200E00022407B1143002802D0FF2016
:100C2000013000E000200143986A152292019043B0
:100C30000143996210BD0000002C014010B581886D
:100C400002880904D204174B1143DA690F242404E3
:100C5000A2431143D961D968032252059143027A14
:100C60009207520A1143D960817B002901D04021AB
:100C700000E00021027B002A02D00122920200E063
:100C80000022407B1143002802D0FF20013000E009
:100C900000200143D86A1522920190430143D96292
:100CA00010BD0000002C014010B5029C002801D0AE
:100CB000202000E00020C9000843002A01D00421C0
:100CC00000E000210843002B01D0022100E00021B8
:100CD0000843002C01D0012100E000210843014914
:100CE000886110BD402C014030B50C4BDC680A25F2
:100CF000AC4308430443DC605815002A09DB196B38
:100D000001431963186BD1B2000A0002084318634B
:100D100030BD196B8143196330BD0000002C0140C8
:100D20000149C86370470000002C01400149486038
:100D300070470000402C01400149C8607047000026
:100D4000402C01400149486170470000402C01409F
:100D50007047000070B50024084D287AA87009E09B
:100D600000F00AFF2879022806D0A878401CA87055
:100D7000641CE4B2052CF3D370BD00000000002019
:100D800010B500F04BFF10BD10B501F03DF810BDDF
:100D9000704710B500F036F810BD002904D0016985
:100DA000012211430161704701694908490001614D
:100DB0007047406880B270478069084201D00120C6
:100DC000704700207047002A03D042690A434261FD
:100DD000704742698A4342617047016070474160D1
:100DE0007047000030B54A880B8804691A43CB88E5
:100DF000034D2C4023431A4302618988016030BDB2
:100E000059F8FFFF10B51A4C01212046FFF7D4FF17
:100E1000002820D000212046FFF7BFFF15494A7A5D
:100E20000020022A03D00A79022A02D00FE0487279
:100E30000DE04A7A012A0AD10A78012A0CD0887A70
:100E4000002812D0887A401E887200F07BFA0121B7
:100E50002046FFF77BFD10BD8A7A052A03D0887AE9
:100E6000401C8872F1E78872EFE705208872ECE792
:100E7000004A01400000002010B5FFF76BFD10BDD7
:100E80007047704702494A6882434A6070470000D1
:100E900000000240002904D00168012211430160D2
:100EA00070470168490849000160704703490968B3
:100EB000014201D00120704700207047000002402D
:100EC000002A03D002680A430260704702688A431E
:100ED0000260704730B54B680A6804681A438B6833
:100EE000F825AC4323431A43CB681A4302604B698D
:100EF0000A691A4303691B0A1B021A430261012390
:100F00008A691B041A434260CA698260096AC16027
:100F100030BD70477047000007490A6B02231A432F
:100F20000A63002802D01821084300E0002003498A
:100F300008430349486070470000014000005A5AC6
:100F40000020024070477047704770474B680A683E
:100F5000002B0DD0C3699343C3610A79D2064FD5E4
:100F600002680B681A4302604A68112A04D00BE039
:100F7000C1691143C161704702690B681A4302617C
:100F8000C2680B689A43C2604A68122A07D1C268D5
:100F90000B681A43C26002690B689A430261426A95
:100FA0000B689A434262826A0B689A438262C26A01
:100FB0000B689A43C262026B0B689A4302638B68A8
:100FC00081229A4303D1426A0B681A4342628B68BA
:100FD00082229A4303D1826A0B681A4382628B6829
:100FE00084229A4303D1C26A0B681A43C2628B6897
:100FF00088229A43BFD1026B09680A430263704793
:1010000002680B689A4302604A68202A0CD0426842
:101010000B681A434260094BCA689A4209D1826838
:1010200009680A438260704742680B689A434260CD
:10103000F1E7826809688A4382607047FFFF000019
:10104000006D084201D001207047002070477047B2
:101050007047704710B500F06DF810BD0322C9430A
:1010600012028018C16170470322120280180269BF
:10107000C90752085200C90F0A4302617047032191
:1010800009024018006A7047032212028018806922
:10109000084201D0012070470020704730B503227C
:1010A0001202801884680A780F231D469540AC43CD
:1010B0004D6895402C438460046B0A7893409C43B0
:1010C0008B68C968C9000B4393401C43046330BD5F
:1010D00003231B02C018002A03D042690A4342615D
:1010E000704742698A4342617047000010B5CB687F
:1010F0004A680C6813430A7A002A01D0402200E0B3
:101100000022144303222343120280180269034C75
:101110002240134303610969016010BD19F8FFFF04
:10112000FEE7704770470000014880687047000084
:101130002800002070B51E4E01213046FFF7A4FFA5
:101140001C4C002809D02078002802D06078401C70
:10115000607001213046FFF781FF08213046FFF71C
:1011600093FF002823D009208021C006FFF768FFE5
:10117000002806D0012020703046FFF780FF6080F5
:1011800011E02078002500280CD03046FFF777FFCB
:1011900081B2A18060780204101A40186188401A58
:1011A000A0606570257008213046FFF757FF70BDBD
:1011B000004401402800002010B500F0EFFF01F0CE
:1011C0002FF910BD704710B500F07EFD00F03AFD1C
:1011D00000F046F9FFF7F0FF01F0FAFB01F08CFA9E
:1011E00010BD000070B5054601200E49C00288619F
:1011F0000D4C0021204600F0BBFC0121204600F0F0
:1012000096FC0028F9D0A561FF2501352946204626
:1012100000F08DFC0128F9D00121204600F0A8FC47
:1012200070BD0000400000480030014070B5054628
:1012300001200E49C002C8610D4C0021204600F07B
:1012400097FC0121204600F072FC0028F9D0A5612E
:10125000FF2501352946204600F069FC0128F9D018
:101260000121204600F084FC70BD000040000048D1
:1012700000300140F8B52F4C607A002858D12E4834
:10128000A17A405C2D4940000B5A20780622504339
:10129000294A921D8018A27A865CA07900280ED077
:1012A0000888244D297B491CCAB2E97A0125491CCA
:1012B000CFB20021022E04D0012E0DD016E0322034
:1012C000EFE7834206D22273022A0FD32173E7721B
:1012D000E5710BE0217309E0834206D92273022AEB
:1012E00004D32173E772E57100E02173E07A0F28DF
:1012F00005D32079012802D1E17202202071E07922
:10130000012815D12079022811D1E1710521E08948
:10131000FEF7F6FE0A4E01463046FFF75EFD00215D
:101320003046FFF75CFD01213046FFF736FD657260
:10133000F8BD000000000020582A000040000020F6
:10134000004A0140F8B5384D2879002861D0A87AC4
:101350000126F6031027354C00280FD0A87A05285F
:101360000CD0A87A01280DD0A87A02280AD0A87A31
:1013700003280CD0A87A042809D00BE02C488661F9
:10138000A76107E02A4886610820A06102E00820E2
:10139000A061A761A87800F085F8A87A00280FD08E
:1013A000A87A05280CD0A87A01280CD0A87A02289F
:1013B00009D0A87A032808D0A87A042805D006E026
:1013C0000820E06103E0E76101E01948C661194CBB
:1013D0002046FFF7EEFCE88100212046FFF7FFFCE6
:1013E0002879154C012815D00321E889FEF788FEDD
:1013F00001462046FFF7F1FC00212046FFF7EFFCF5
:1014000001212046FFF7C9FC02206872A869401C30
:10141000A861F8BD0521E889FEF772FE0146204665
:10142000FFF7DBFCE8E70000000000204004004874
:101430004000004800490140004A014001488078CE
:10144000704700000000002001484069704700001C
:1014500000000020014800797047000000000020D3
:1014600010B500F047FB0749FEF74AFE064908821F
:1014700000F04CFE00F0A6FD00F020FF00F0C6FDDD
:1014800010BD0000204E0000000000200149012096
:101490000870704700000020014900200870704764
:1014A00000000020F8B505463A4C207900285BD0B2
:1014B000A570208AA1784843FFF7E6F80022364B52
:1014C000FFF742F8FFF702F96082A17A334E334802
:1014D0000027403600290FD0A17A01290CD0A17A2B
:1014E00002290ED0A17A03290BD0A17A04290DD0AC
:1014F000A17A05290AD00DE07760F760618AC1639F
:1015000008E0C763F760608A706003E0C7637760D4
:10151000608AF060002D08D101202149C003886154
:10152000204808218161102181611A48008AFFF753
:10153000ABF80022D243FFF77FF8044615480D466A
:10154000408AFFF7A1F822462B46FFF705F90CD891
:10155000104C0120A071608AFFF78FF8E169FEF757
:1015600050FEFFF79FF87061F8BD0A4CA771608AC2
:10157000FFF783F80546208A618A401AFFF772F860
:10158000E169FEF73EFE2946FEF7E2FDFFF78AF825
:101590007061F8BD0000002000005940002C01409F
:1015A00040000048400400487047000010B500218A
:1015B000084C00220020C3001B195A54401CC0B222
:1015C0008028F8D3491CC9B20829F3D300F096F853
:1015D00010BD00004C00002030B5CB084C07640F54
:1015E0000125A540ECB2074DC0004519C808285C8C
:1015F000002A02D02043E85430BDC0432043C043FA
:10160000E85430BD4C00002070B500F0E3FD00F060
:101610002FFEFF25314C0135E5610020304900F0F7
:1016200073FBA56100202F4900F06EFBE561AE2041
:10163000FFF7D8FD0020FFF7D5FD1020FFF7D2FD02
:101640004020FFF7CFFD8120FFF7CCFDCF20FFF733
:10165000C9FDA120FFF7C6FDC820FFF7C3FDA620E6
:10166000FFF7C0FDA820FFF7BDFD3F20FFF7BAFD43
:10167000D320FFF7B7FD0020FFF7B4FDD520FFF71B
:10168000B1FD8020FFF7AEFDD920FFF7ABFDF120C3
:10169000FFF7A8FDDA20FFF7A5FD1220FFF7A2FD56
:1016A000DB20FFF79FFD4020FFF79CFD2020FFF788
:1016B00099FD0220FFF796FD8D20FFF793FD142082
:1016C000FFF790FDA420FFF78DFDA620FFF78AFD10
:1016D000FFF76CFFAF20FFF785FD70BD40000048AD
:1016E00000005940000069400346012000E05843D3
:1016F0000A46491EC9B2002AF9D1704770B50025C3
:101700000D4E2846B030C0B2FFF76CFD0020FFF749
:1017100069FD1020FFF766FD0024E0008019405DA0
:10172000FFF784FD641CE4B2802CF6D36D1CEDB28F
:10173000082DE6D370BD00004C000020FFB586B038
:1017400007461C4601970798009060080590082CF2
:1017500004D0E108600704D0012003E006200390D4
:1017600005E00020081805994843C0B20390203ACC
:10177000D0B20290002004903CE0082C05D00C2C44
:1017800003D0102C0AD0182C38D10025F0070CD02B
:1017900038460F9A0799FFF71FFF0EE00298194984
:1017A0000001411804980E5CEFE70F98002827D03D
:1017B000002238460799FFF70FFF76080798401C6C
:1017C000C0B207906D1CEDB2082DDFD37F1CFFB2B5
:1017D000082C09D00198391A0598814204D1019F3B
:1017E00000980830C0B20090009807900498401C00
:1017F000C0B20490039904988842BED30AB0F0BDE9
:101800000122D6E7AA2A0000FFB581B007460025CD
:101810000A98082800D1022500240A9846081DE0ED
:101820000498001B401EC1B20A20FFF75DFF01466D
:101830000398FEF765FC0A21FEF762FC002912D02E
:101840000B980090701930316043CAB2C019C0B211
:101850000A9B0299FFF772FF641CE4B20498844269
:10186000DED305B0F0BD0B98009070196043C0192D
:10187000C0B230220A9B0299FFF760FFECE7FFB588
:1018800081B0044615461E4677080BE00A98009082
:10189000334620460299FFF751FF082E09D0381928
:1018A000C4B26D1C2A78104620385E28EED905B0E7
:1018B000F0BDA41DE4B2F4E710B5012424042046D1
:1018C000FFF706F9002802D02046FFF7E3F810BD25
:1018D00070470000054A002903D0116B01431163D2
:1018E0007047116B81431163704700000000014095
:1018F000054A002903D0916B014391637047916BB6
:10190000814391637047000000000140054A0029AF
:1019100003D0516B014351637047516B8143516355
:101920007047000000000140044A1168044B194050
:10193000014304480143116070470000000001406A
:101940001FFF000000005A5AC10293204002008885
:101950000143054881614168044A1143416081693E
:101960000904FCD5704700000000014001005A5AEC
:1019700070470000044A1168044B194001430448B1
:10198000014311607047000000000140E7FF0000C4
:1019900000005A5AF7B58AB00D46174600240026B3
:1019A0001D48836C426C016CC06C089307920691D1
:1019B000099014221849503101A8FEF7B7FB06A878
:1019C000A1004158A94201D9264603E0641CE4B2B3
:1019D000042CF5D37D43002001A982008A58AA4235
:1019E00001D9054603E0401CC0B20528F5D36902C1
:1019F00038010143B00001430A9801430720000366
:101A00000143064881624168054A11434160816A89
:101A10000904FCD50DB0F0BD9C3000000000014071
:101A200004005A5A70B505460A4C20680A4980B22B
:101A30004018C008C0002843206000F00FF800F0F4
:101A400065F820684007400FA84201D0012070BD12
:101A5000002070BD0000014000005A5AF8B5204C2B
:101A6000206847077F0FA0694004010FA06A820722
:101A7000920FA06AC005C50E1A4E1B483B0000F02D
:101A800036FD050409100B0D250089007158FEF77D
:101A900037FB1FE015481DE015481BE00120C0037F
:101AA00018E0002A09D0012A07D0032A08D08900AB
:101AB0007158FEF725FB68430CE00C48684309E0C9
:101AC00089007158FEF71CFB684303E089007158D8
:101AD000FEF716FB21680906490FC840F8BD000053
:101AE000000001409C300000006CDC020024F40087
:101AF0002080000010B5FFF7B1FF03490968C9064F
:101B0000890FC84010BD0000000001400149086075
:101B10007047000038000020704770477047026827
:101B20004023C9079A43490E0A430260704700697F
:101B3000084201D0012070470020704710B50A8884
:101B40008B880C8A1A434B8923431A43CB891A4347
:101B50008B891A434B881A43CB8809891A430A4355
:101B60000168024B19400A43026010BD4000FFFFAC
:101B7000C160704770470000F8B50024244D012073
:101B8000287100212348FFF72AF9A878FFF78AFC7B
:101B9000FFF7D8FB00266E7168792828FCD31E4F0A
:101BA000287801280AD0A87A00280FD0A87A401EE9
:101BB000A872EE71287901280BD00CE0A87A401C9D
:101BC000A872A87A0528F4D1AE72F2E70520A872AF
:101BD000EFE7FFF7B7FB6E71385D05E02979022961
:101BE00005D0E979012902D069798842F6D8641CC8
:101BF000E4B2688A0A3068822879012801D13C2C35
:101C0000CED36E712879012801D100F007F8F8BD14
:101C100000000020004901406A2A000070B5074C0E
:101C20000025A572FFF78EFB0020FFF73BFCE58146
:101C30002571A571E571657270BD0000000000207E
:101C40007047000010B5FFF709FF0C4C7D21C9005B
:101C5000FEF756FA206000280FD0094800214161A4
:101C600081610169042211430161016902229143EA
:101C70000161016949084900016110BD340000207B
:101C800000E000E0024901480860704700127A0055
:101C90003800002000B5FFF7F5FF93235B0218889A
:101CA00041050848490D8269D20AD2020A4382617D
:101CB0005988026A8905890D920A92020A430262D2
:101CC00000BD00000000014010B50520FFF73CFEFC
:101CD00008220B490320FFF75DFE0020FFF724FEDA
:101CE0000020FFF747FE0748016B02221143016302
:101CF0000220FFF711F90220FFF794FE10BD00004B
:101D000000127A0000000140F8B504460D4600229A
:101D1000134620462946FEF70BFD2CD01648174FD8
:101D2000006878610020B861386901210843386192
:101D3000134E0AE03869C003FCD500223346204622
:101D40002946FEF78AFB04460D460022334620460C
:101D50002946FEF701FDEDD900221346204629460B
:101D6000FEF7FAFC07D20022064B20462946FEF772
:101D700083FB00F009F8F8BD3400002000E000E02B
:101D80000000F03F00408F40F8B506460F461B4864
:101D900001687D20C000FEF7B3F9FEF775FC04462C
:101DA0000D4622462B4630463946FEF7C1FC23D36A
:101DB00022462B4630463946FEF7C6FBFEF786FC28
:101DC0000F490A6901231A430A610E4C0023654238
:101DD00005E04C618B610A69D203FCD54019A04231
:101DE000F7D2002804D048618B610869C003FCD594
:101DF0000869400840000861F8BD00003400002078
:101E000000E000E0FFFFFF00F8B501211848FEF7F1
:101E1000D3FF00282AD0174E7079401C707130799A
:101E2000002700281DD0707B401CC0B27073322880
:101E300018D1F07806214843FEF726FC04460D46EB
:101E4000B069FEF721FC22462B46FEF77DFB0022FF
:101E5000094BFEF711FBFEF739FC7061B761777330
:101E600000E0776101210248FEF770FDF8BD000037
:101E700000480140000000200000344070477047D7
:101E80007047C069084201D00120704700207047A8
:101E9000F8B504460D46A888A9892A8A0843E98925
:101EA00011430843698A08432168414A11400843A5
:101EB0002060E888A98A08436168C32292009143A0
:101EC00008436060A8883B4E002833D0C11FFF390B
:101ED000FA3919D001218902884250D1286880003E
:101EE000FEF7CBFB0746A868FEF7C7FB3946FEF7AF
:101EF000C5F9FEF709FC00223346FEF709FAFEF7A2
:101F0000E5FB80B2E060F8BD2868C000FEF7B5FBD5
:101F10000746A868FEF7B1FB3946FEF7AFF9FEF7B2
:101F2000F3FB00223346FEF7F3F9FEF7CFFB80B256
:101F3000E060F8BD28680001FEF79FFB0746A8682F
:101F4000FEF79BFB3946FEF799F907463846FEF740
:101F5000A9FB85B22846FEF790FB3946FEF74DF9FE
:101F60000421FEF7C9F9FEF7CFFB00223346FEF746
:101F7000CFF9FEF7ABFB80B2E5602061F8BD2868C1
:101F8000FEF77BFB0746A868FEF777FB0821FEF704
:101F9000B3F93946FEF772F9FEF7B6FB0022334675
:101FA000FEF7B6F9FEF792FB80B2E060F8BD0000E4
:101FB000C0F8FFFF0000E03F816270477047704744
:101FC0007047000000B589B001210420FFF79EFC96
:101FD00000200890079003210902019180210691B9
:101FE000049000900321C90202910590C020039043
:101FF0006846FEF715FD044841680909090141607A
:10200000FEF7F4FC09B000BD00240140F0B589B032
:1020100001210846FFF75EFC38480890002403942D
:1020200008260096364807900294012506950194EB
:10203000442005900495334F69463846FEF74AFF21
:1020400001213846FEF726FF2F48089020200390F4
:1020500000962A48183007900294062006904020E7
:102060000190282705970495264869466038FEF7B1
:1020700031FF244801216038FEF70CFF1F48001F84
:102080000890039400961E4820300790102002907C
:10209000052006900194059704951A486946403832
:1020A000FEF718FF174801214038FEF7F3FE1348EA
:1020B0000890039400961248079002940520069019
:1020C0000194059704950F4C6946203C2046FEF785
:1020D00001FF01212046FEF7DDFE0121092000F06D
:1020E0001FFA72B6092000F00FFA62B60122054805
:1020F00002216038FEF7E4FE09B0F0BD082401407B
:102100000100002080000240400000207FB5012136
:102110003020FFF7DFFB1E4881690F221205914333
:10212000072212058918816181690F2212069143E5
:1021300007221206891881618169120109010909C2
:10214000891881618021029120210191F82100915B
:10215000104903916946FEF7F9FE0124E403009457
:102160000925ED0669462846FEF7F0FE0A48846117
:1021700007490820403188611020886100200190C3
:102180003F20009069462846FEF7E0FE7FBD000034
:1021900000040048FFFF0000400000481FB5012177
:1021A0001020FFF797FB0920C00681690122090171
:1021B0000909120789188161802102911022019278
:1021C0000091034903916946FEF7C0FE1FBD000060
:1021D000FFFF0000F0B585B001211020FFF77AFB6A
:1021E0000924E4066069F021884350306061606929
:1021F00009018843052109024018606160690F21C7
:102200000904884305210904401860610125AD02D5
:102210000095154803902020019069462046FEF75E
:1022200095FEAE00009669462046FEF78FFE6F10C1
:10223000009769462046FEF789FE680000906946CF
:102240002046FEF783FEA810009069462046FEF760
:102250007DFE0648C561C661C7614101C161C91003
:10226000C16105B0F0BD0000FFFF00004000004864
:1022700010B586B001210802FFF748FB012080035A
:102280006A4690800420D0800720800210810020C0
:102290005081908101214902D18110211182508207
:1022A0009082054C01A92046FFF748FC01212046F9
:1022B000FFF735FC06B010BD0030014070B590B09E
:1022C00021200121C001FFF721FB012508A805728B
:1022D00000240C94680309900794089408A8447794
:1022E0000B94494E308A0D900E9408A8047707A8E5
:1022F000FEF70AFC621E00210820FEF7F5FC684686
:10230000857604760594447606200490039403A809
:10231000FEF72CFC03A8FEF75BFC03A8FEF78EFC7F
:102320000020FEF7FDFC0020FEF700FD0020FEF778
:1023300003FD36488169082211438161012200238F
:10234000114610460095FEF7AFFC308A4008FEF7B4
:10235000F9FC0120FEF7B0FB0120FEF7A1FB0121F3
:102360000D2000F0DDF872B60D2000F0CDF862B659
:1023700001210807FEF7BAFB6846C48044810021AA
:10238000C9430181FF2181318180214D01A9284666
:10239000FEF728FD01212846FEF7FFFC1D4D01A98F
:1023A0002846FEF71FFD00212846FEF7F6FC012116
:1023B000162000F0B5F872B6162000F0A5F862B647
:1023C000012211462846FEF7FEFC6846C48044817F
:1023D000114901818480114C01A92046FEF702FDBC
:1023E00001212046FEF7D9FC0221142000F098F8C4
:1023F00072B6142000F088F862B601221146204619
:10240000FEF7E1FC10B070BD00000020002C014080
:1024100000490140004A0140FFF900000048014026
:1024200030B589B00121C802FFF770FA0024049486
:10243000059403200002079015480890684604762A
:10244000144D04A92846FEF751FE00940294012081
:1024500003900320019069462846FEF71FFE0121E4
:102460002846FEF701FE0C49086803220002000A14
:1024700092071043086072B601200849C004086042
:1024800062B6012209212846FEF722FE09B030BDBE
:10249000FFFF00000044014010E400E000E100E024
:1024A0000FB410B503A9044B044A029800F06AF86F
:1024B00010BC08BC04B01847D52600003C00002022
:1024C0002021020C01D010211046020A01D0104632
:1024D0000839020901D01046091F820801D01046B0
:1024E000891E420801D0881E7047081A704730B410
:1024F0007446641E2578641CAB4200D21D46635DA1
:102500005B00E31830BC1847002805DBC106C90E84
:1025100001208840014908607047000000E100E0A8
:102520008307FF22DB0E9A408907090E9940002895
:1025300008DB830809489B001818036893430B4382
:10254000036070470007000F0838830804489B00A9
:102550001818C36993430B43C361704700E400E05C
:1025600000ED00E002E008C8121F08C1002AFAD1FD
:1025700070477047002001E001C1121F002AFBD103
:1025800070470000FFB58DB00446002506E0252801
:102590000AD0109A0F999047641C6D1C207800286F
:1025A000F5D1284611B0F0BD00270121484A009717
:1025B00000E00743641C23780846203B9840104203
:1025C000F7D120782E2817D1042007436078641CA7
:1025D0002A280CD10E98641C02C800910E900BE0C2
:1025E00000990A22514330394018641C0090207829
:1025F000014630390929F3D920780028D1D0642840
:1026000008D0692806D075281ED0109A0F999047D7
:102610006D1C5BE00A200E99019001C90E91002803
:1026200002DA40422D2102E0390504D52B216A4609
:102630001172012103E0F90704D02021F7E70BAE66
:102640000B910DE00021FAE70A200E99019001C9D3
:102650000E91F7E70199FDF753FD3031761E317089
:102660000028F7D103A8801B20300190780701D5FE
:10267000009801E0012000900199884201DD401A94
:1026800000E000200027009006E002A8109AC05D3C
:102690000F9990476D1C7F1C0B988742F5DB04E077
:1026A000109A30200F9990476D1C0099481E009099
:1026B0000029F5DC05E03078109A761C0F999047D8
:1026C0006D1C0199481E01900029F4DC641C65E72B
:1026D0000928010070B50446064DE1B22846FFF70F
:1026E0006BFC01212846FFF7CCFB0028F9D02046DF
:1026F00070BD0000004400401FB5112001214001C1
:10270000FFF7E8F8FF2005300090202001900B48EB
:10271000039069460A48FEF719FC03200090112037
:10272000019069460748FEF711FCFF21044801317A
:102730004030C1610421C1611FBD0000FFFF0000E6
:1027400000040048001400488CB0FEF73CFDFEF782
:102750005BFF00240026002704250DE0FEF7E4FCC3
:10276000864201D200240646641CE4B2002083495C
:10277000FFF7CAFA82480562322CEFD38049042061
:10278000C861002005903046FDF77EFF7D4A7E4BF4
:10279000FDF772FE0A910B90FEF7C6FC04900A9DAD
:1027A0000B9C0498FDF770FF22462B46FDF7D4FFE3
:1027B0000598401CC0B2059005980528ECD300246C
:1027C000FEF7B2FC0390FF2601366D4D0CE0FEF7DC
:1027D000ABFC874201D900240746641CE4B2002008
:1027E0006649FFF791FA2E62322CF0D3FF2064493C
:1027F0000130C86100263846FDF746FF634A644B46
:10280000FDF73AFE08910990FEF78EFC0490089DB2
:10281000099C0498FDF738FF22462B46FDF788FFF8
:10282000761CF6B2052EEFD300200590FEF77CFC57
:10283000029058A0039A0299FFF732FE00205949EE
:10284000FFF762FA4E4C0420A06103990298081A1F
:10285000FDF71AFF06910790534E3069C0070BD160
:10286000474D0424AC614F49FFF74EFAEC61FEF787
:102870000DFE4EA0FFF714FE306980070CD4404DCA
:102880000424AC6100204749FFF73EFAEC61FEF7F3
:1028900003FE49A0FFF704FEFEF746FC0746029937
:1028A0008F4200D2029F0398874200D9039F0124E0
:1028B0000021102343A208460094FEF7E0FFFEF734
:1028C000C3FD02461020014600900423019400201D
:1028D000FEF79AFFFEF712FFFEF7B0FD04460298DE
:1028E000069E381A079DFDF7CFFE0022234BFDF709
:1028F000C3FD2A463346FDF727FEFDF7E7FEC5B2C6
:10290000AC4204D0FF211E480131816103E0FF2069
:102910001B490130C861FEF79DFD022819D1142D15
:1029200002D2FEF72DFA14E0284E10E000203146C6
:10293000FFF7EAF9AC4205D2641CE4B22046FEF788
:10294000B1FD04E0641EE4B22046FEF7ABFDAC42EC
:10295000ECD1FEF77FFD002800D07DE7142DFCD3DD
:1029600005980A2804D300200590FEF7F3F973E7D1
:102970000598401CC0B205906EE700000000594069
:1029800040040048666666666666EE3FCDCCCCCCF9
:10299000CCCCF03F6D696E3A25642C6D61783A2598
:1029A000640A000000408F4040140048CBB3CAB115
:1029B000D5EB210A00000000C4E6CAB1D5EB210A1C
:1029C0000000000073706565643A00000000494033
:1029D00010B58AB001212020FEF77CFF1B4CA069B6
:1029E00000090001401CA061A069F021884310305B
:1029F000A06102200690202007901548099006A9A2
:102A00002046FEF7A3FA012006901120079006A9A0
:102A10002046FEF79BFA01218020FEF769FFE120A6
:102A200040020090002468468480C480FFF762F86A
:102A3000029068468481C481048284820321418299
:102A400069460448FFF724FA0AB010BD00040048A4
:102A5000FFFF0000004400400403020403020102DF
:102A6000010201020201020102010C0B0A0A09091A
:102A700009080808070707070606060606050505EC
:102A80000505050505040404040404040404040401
:102A90000403030303030303030303030303030305
:102AA000030303030303030202020000000000000B
:102AB00000000000000000000000000000F800001E
:102AC0000000000000333000000000100C06100C65
:102AD0000600000000000000000040C07840C07800
:102AE0004000043F04043F040400007088FC0830E8
:102AF0000000001820FF211E0000F008F000E01880
:102B0000000000211C031E211E0000F00888700038
:102B100000001E2123241927211010160E0000008A
:102B200000000000000000000000000000E01804A9
:102B30000200000000071820400000020418E00016
:102B400000000040201807000000404080F0804056
:102B500040000202010F01020200000000F000002C
:102B600000000101011F0101010000000000000040
:102B7000000080B0700000000000000000000000B5
:102B8000000000010101010101010000000000003E
:102B900000000030300000000000000000008060F5
:102BA0001804006018060100000000E0100808107A
:102BB000E000000F102020100F00001010F800009F
:102BC00000000020203F2020000000700808088836
:102BD0007000003028242221300000300888884806
:102BE00030000018202020110E000000C02010F836
:102BF000000000070424243F240000F80888880807
:102C000008000019212020110E0000E0108888180B
:102C10000000000F112020110E0000380808C838ED
:102C200008000000003F00000000007088080888CD
:102C30007000001C222121221C0000E01008081056
:102C4000E0000000312222110F00000000C0C0008F
:102C50000000000000303000000000000080000094
:102C60000000000080600000000000008040201094
:102C7000080000010204081020004040404040408D
:102C800040000404040404040400000810204080F0
:102C90000000002010080402010000704808080825
:102CA000F0000000003036010000C030C828E810F5
:102CB000E0000718272423140B000000C038E000B0
:102CC0000000203C23020227382008F888888870FA
:102CD0000000203F202020110E00C0300808080806
:102CE0003800071820202010080008F808080810ED
:102CF000E000203F202020100F0008F88888E80816
:102D00001000203F20202320180008F88888E808B9
:102D10001000203F200003000000C03008080838E1
:102D2000000007182020221E020008F808000008F2
:102D3000F808203F210101213F20000808F8080879
:102D400000000020203F2020000000000808F808B4
:102D50000800C08080807F00000008F888C0281824
:102D60000800203F20012638200008F80800000055
:102D70000000203F20202020300008F8F800F8F85C
:102D80000800203F003F003F200008F830C0000846
:102D9000F808203F200007183F00E010080808103E
:102DA000E0000F10202020100F0008F80808080885
:102DB000F000203F210101010000E0100808081088
:102DC000E0000F18242438504F0008F888888888BD
:102DD0007000203F2000030C302000708808080895
:102DE00038000038202121221C00180808F80808A3
:102DF00018000000203F2000000008F8080000082C
:102E0000F808001F202020201F000878880000C834
:102E10003808000007380E010000F80800F8000824
:102E2000F800033C0700073C03000818688080682E
:102E3000180820302C03032C30200838C800C8386C
:102E400008000000203F2000000010080808C838D3
:102E500008002038262120201800000000FE020271
:102E600002000000007F40404000000C30C0000025
:102E70000000000000010638C00000020202FE004F
:102E80000000004040407F000000000004020202F9
:102E9000040000000000000000000000000000002E
:102EA000000080808080808080800002020400001A
:102EB0000000000000000000000000008080808012
:102EC00000000019242222223F2008F80080800000
:102ED0000000003F112020110E00000000808080C3
:102EE0000000000E112020201100000000808088CA
:102EF000F800000E112020103F200000808080800C
:102F00000000001F222222221300008080F0888807
:102F100088180020203F2020000000008080808052
:102F20008000006B94949493600008F80080808087
:102F30000000203F210000203F20008098980000E2
:102F400000000020203F2020000000000080989812
:102F5000000000C08080807F000008F800008080B2
:102F60008000203F24022D302000000808F80000D7
:102F700000000020203F2020000080808080808092
:102F80008000203F20003F20003F80800080808024
:102F90000000203F210000203F2000008080808032
:102FA0000000001F202020201F0080800080800063
:102FB000000080FFA12020110E0000000080808012
:102FC0008000000E112020A0FF8080808000808083
:102FD000800020203F2120000100000080808080B0
:102FE00080000033242424241900008080E08080A5
:102FF00000000000001F20200000808000000080F2
:103000008000001F202020103F2080808000008052
:10301000808000010E300806010080800080008062
:1030200080800F300C030C300F0000808000808007
:1030300080000020312E0E31200080808000008032
:10304000808080818E7018060100008080808080E2
:1030500080000021302C2221300000000000807C04
:10306000020200000000003F404000000000FF009E
:10307000000000000000FF0000000002027C800051
:1030800000000040403F0000000000060101020275
:103090000404000000000000000000000600000022
:1030A0000600000006000000060000000600000008
:1030B0000600000001000000030000000200000004
:1030C0000400000006000000080000000A000000E4
:1030D0000C0000000E00000010000000808D5B005E
:1030E000001BB700002D310101366E0180A81201CE
:1030F00000366E0100512502006CDC0201A24A0478
:103100002031000000000020400000006425000085
:10311000603100004000002010080000742500000D
:1031200000010002000000000F000000000000008D
:10313000000000000000000000000000CDCC4C3E6C
:103140008081828384850000000000000000000070
:10315000E80300000000000000127A0000000000F8
:04000005000000C136
:00000001FF
