:020000040000FA
:1000000008020020D90000009B04000091040000B9
:1000100000000000000000000000000000000000E0
:100020000000000000000000000000002D0500009E
:100030000000000000000000C5040000FB000000FC
:100040008705000099040000270500004503000013
:100050002505000047030000490300004B03000092
:100060004D0300003D0300003F030000410300007A
:1000700039010000B901000083050000850500007A
:10008000890400008B0400008D0400008F04000030
:1000900037030000390300003B0300009504000013
:1000A00097040000290500002B0500007D050000D5
:1000B0007F050000810500003503000043030000B8
:1000C0000448854600F026F800480047A9050000CE
:1000D000C046C0460802002009480A4A002100A183
:1000E000814200D902440848026008488047084815
:1000F0000047FEE7FEE7FEE7FEE7FEE7FEE700005B
:10010000000000200000000008ED00E041050000B4
:10011000C1000000064C0125064E05E0E36807CC4F
:100120002B430C3C98471034B442F7D3FFF7CCFF75
:10013000340600005406000070470000002905D076
:10014000054A926A0243044B9A6204E0024A926AA8
:100150008243014B9A627047002C0140C143014A1F
:1001600051617047002C01400449C96849084900A1
:10017000C207D20F1143014AD1607047002C0140E1
:100180000649096B012212039143020301231B0359
:100190001A401143014A116370470000002C0140CE
:1001A0000146044800690840002801D0012070473A
:1001B0000020FCE7002C014010B500F001F810BD54
:1001C00010B501200004FFF7EBFF002824D0012028
:1001D0000004FFF7C3FF154801780078401C134A5C
:1001E0001070322918DD012011460870104800787F
:1001F00000280DD10F480088FF30F5300D490880E8
:10020000084600880C49884202DB01200849087032
:100210000848008800F088F84020FFF7C1FF002858
:1002200002D04020FFF79AFF10BD0000060000201A
:100230000700002004000020C4090000002905D0A8
:10024000054AD2680243044BDA6004E0024AD268ED
:100250008243014BDA607047002C0140426801681C
:1002600011430269114382681143027B002A01D0C5
:10027000802200E000221143426911430F4AD268F4
:100280000F4B1A4011430D4AD16081691160212240
:10029000125CC169002A02D0FF22013200E0002274
:1002A00011432022125C002A02D00122520200E0F7
:1002B00000221143014A516370470000002C0140A5
:1002C0000B8FFFF7416809030268D2031143154AF7
:1002D000D2690F231B039A431143124AD1618168EB
:1002E0000903827B002A01D0802200E00022114312
:1002F000027B002A02D00122D20200E00022114338
:10030000427B002A02D00122520200E00022114367
:10031000044A926A7523DB019A431143014A9162B0
:1003200070470000002C01400149886070470000C0
:10033000402C0140704770477047704770477047C6
:1003400070477047704770477047704770470000AC
:100350001FB58020029020200190400200900848A4
:100360000390084840690F210906884307210906C0
:100370004018044948616946024800F005F81FBD6D
:10038000FFFF0000000400484A68002A04D1C26947
:100390000B681A43C26174E0C2690B689A43C26178
:1003A00010234A681A40102A4ED102680B681A437B
:1003B00002604A68112A07D102690B681A43026178
:1003C000C2680B689A43C2604A68122A07D1C268A1
:1003D0000B681A43C26002690B689A430261426A61
:1003E0000B689A434262826A0B689A438262C26ACD
:1003F0000B689A43C262026B0B689A4302638123C3
:100400008A681A40812A03D1426A0B681A43426201
:1004100082238A681A40822A03D1826A0B681A43AF
:10042000826284238A681A40842A03D1C26A0B68D4
:100430001A43C26288238A681A40882A21D1026B33
:100440000B681A4302631CE002680B689A4302605F
:100450004A68202A04D142680B689A43426003E04C
:1004600042680B681A434260064BCA689A4204D13C
:1004700082680B681A43826003E082680B689A43C3
:1004800082607047FFFF00007047704770477047F9
:1004900000BFFEE7704770477047704772B60D2087
:1004A000002809DB00BF00BFC206D20E0121914027
:1004B000034A116000BF00BF00BF62B67047000072
:1004C00000E100E07047000010B5052000F010F8D2
:1004D0000648406B80210843044948630846006B86
:1004E000202108430149086310BD000000000140BD
:1004F000C1029322520212881143084A91611146A7
:100500004968074A1143054A516000BF0349896998
:100510000122D20311409142F8D1704700000140FE
:1005200001005A5A70477047704770477047000083
:10053000014802490860704700127A00000000205C
:1005400000B5FFF7F5FF9321490209884805400DE2
:1005500009498969C90AC9020143074A916193217E
:10056000490249888805800D1146096A890A89026D
:100570000143116200BD0000000001407047704758
:10058000704770477047704702E008C8121F08C1E3
:10059000002AFAD170477047002001E001C1121F04
:1005A000002AFBD1704700008EB0FFF78DFFFFF7E8
:1005B000CFFEFFF773FF002108A8017000200A900A
:1005C00001204003079000200590069008A841757F
:1005D0003020099016480B9000200C9008A8017557
:1005E00005A8FFF73BFE01216846817400210174D4
:1005F00001200390012168464174062002900020EA
:10060000019001A8FFF75EFE01210807FFF716FE23
:1006100001214802FFF792FDFF20F530FFF784FE2D
:100620000120FFF7A1FD0120FFF7AAFD00BFFEE7B3
:100630001F4E0000540600000000002008000000CB
:10064000880500005C060000080000200002000091
:0C0650009805000000127A000000010074
:04000005000000C136
:00000001FF
