Component: ARM Compiler 5.06 update 7 (build 960) Tool: armlink [4d3601]

==============================================================================

Image Symbol Table

    Local Symbols

    Symbol Name                              Value     Ov Type        Size  Object(Section)

    RESET                                    0x00000000   Section      192  startup_cw32l010.o(RESET)
    ../clib/microlib/division.c              0x00000000   Number         0  uldiv.o ABSOLUTE
    ../clib/microlib/division.c              0x00000000   Number         0  uidiv.o ABSOLUTE
    ../clib/microlib/division.c              0x00000000   Number         0  ldiv.o ABSOLUTE
    ../clib/microlib/init/entry.s            0x00000000   Number         0  entry9a.o ABSOLUTE
    ../clib/microlib/init/entry.s            0x00000000   Number         0  entry10a.o ABSOLUTE
    ../clib/microlib/init/entry.s            0x00000000   Number         0  entry9b.o ABSOLUTE
    ../clib/microlib/init/entry.s            0x00000000   Number         0  entry11b.o ABSOLUTE
    ../clib/microlib/init/entry.s            0x00000000   Number         0  entry7b.o ABSOLUTE
    ../clib/microlib/init/entry.s            0x00000000   Number         0  entry12a.o ABSOLUTE
    ../clib/microlib/init/entry.s            0x00000000   Number         0  entry12b.o ABSOLUTE
    ../clib/microlib/init/entry.s            0x00000000   Number         0  entry8a.o ABSOLUTE
    ../clib/microlib/init/entry.s            0x00000000   Number         0  entry5.o ABSOLUTE
    ../clib/microlib/init/entry.s            0x00000000   Number         0  entry2.o ABSOLUTE
    ../clib/microlib/init/entry.s            0x00000000   Number         0  entry.o ABSOLUTE
    ../clib/microlib/init/entry.s            0x00000000   Number         0  entry7a.o ABSOLUTE
    ../clib/microlib/init/entry.s            0x00000000   Number         0  entry8b.o ABSOLUTE
    ../clib/microlib/init/entry.s            0x00000000   Number         0  entry10b.o ABSOLUTE
    ../clib/microlib/init/entry.s            0x00000000   Number         0  entry11a.o ABSOLUTE
    ../clib/microlib/longlong.c              0x00000000   Number         0  llshl.o ABSOLUTE
    ../clib/microlib/longlong.c              0x00000000   Number         0  llsshr.o ABSOLUTE
    ../clib/microlib/longlong.c              0x00000000   Number         0  llushr.o ABSOLUTE
    ../clib/microlib/stubs.s                 0x00000000   Number         0  iusefp.o ABSOLUTE
    ../fplib/microlib/d2f.c                  0x00000000   Number         0  d2f.o ABSOLUTE
    ../fplib/microlib/f2d.c                  0x00000000   Number         0  f2d.o ABSOLUTE
    ../fplib/microlib/fpadd.c                0x00000000   Number         0  dadd.o ABSOLUTE
    ../fplib/microlib/fpepilogue.c           0x00000000   Number         0  fepilogue.o ABSOLUTE
    ../fplib/microlib/fpepilogue.c           0x00000000   Number         0  depilogue.o ABSOLUTE
    ../fplib/microlib/fpflt.c                0x00000000   Number         0  ffltui.o ABSOLUTE
    ../fplib/microlib/fpflt.c                0x00000000   Number         0  dfltui.o ABSOLUTE
    ../fplib/microlib/fpflt.c                0x00000000   Number         0  dflti.o ABSOLUTE
    ../fplib/microlib/fpmul.c                0x00000000   Number         0  dmul.o ABSOLUTE
    ../fplib/microlib/fpmul.c                0x00000000   Number         0  fmul.o ABSOLUTE
    Driver\Libraries\src\cw32l010_adc.c      0x00000000   Number         0  cw32l010_adc.o ABSOLUTE
    Driver\Libraries\src\cw32l010_atim.c     0x00000000   Number         0  cw32l010_atim.o ABSOLUTE
    Driver\Libraries\src\cw32l010_btim.c     0x00000000   Number         0  cw32l010_btim.o ABSOLUTE
    Driver\Libraries\src\cw32l010_crc.c      0x00000000   Number         0  cw32l010_crc.o ABSOLUTE
    Driver\Libraries\src\cw32l010_flash.c    0x00000000   Number         0  cw32l010_flash.o ABSOLUTE
    Driver\Libraries\src\cw32l010_gpio.c     0x00000000   Number         0  cw32l010_gpio.o ABSOLUTE
    Driver\Libraries\src\cw32l010_gtim.c     0x00000000   Number         0  cw32l010_gtim.o ABSOLUTE
    Driver\Libraries\src\cw32l010_pwr.c      0x00000000   Number         0  cw32l010_pwr.o ABSOLUTE
    Driver\Libraries\src\cw32l010_sysctrl.c  0x00000000   Number         0  cw32l010_sysctrl.o ABSOLUTE
    Driver\Libraries\src\system_cw32l010.c   0x00000000   Number         0  system_cw32l010.o ABSOLUTE
    Driver\\Libraries\\src\\cw32l010_adc.c   0x00000000   Number         0  cw32l010_adc.o ABSOLUTE
    Driver\\Libraries\\src\\cw32l010_atim.c  0x00000000   Number         0  cw32l010_atim.o ABSOLUTE
    Driver\\Libraries\\src\\cw32l010_btim.c  0x00000000   Number         0  cw32l010_btim.o ABSOLUTE
    Driver\\Libraries\\src\\cw32l010_crc.c   0x00000000   Number         0  cw32l010_crc.o ABSOLUTE
    Driver\\Libraries\\src\\cw32l010_flash.c 0x00000000   Number         0  cw32l010_flash.o ABSOLUTE
    Driver\\Libraries\\src\\cw32l010_gpio.c  0x00000000   Number         0  cw32l010_gpio.o ABSOLUTE
    Driver\\Libraries\\src\\cw32l010_gtim.c  0x00000000   Number         0  cw32l010_gtim.o ABSOLUTE
    Driver\\Libraries\\src\\cw32l010_pwr.c   0x00000000   Number         0  cw32l010_pwr.o ABSOLUTE
    Driver\\Libraries\\src\\cw32l010_sysctrl.c 0x00000000   Number         0  cw32l010_sysctrl.o ABSOLUTE
    Driver\\Libraries\\src\\system_cw32l010.c 0x00000000   Number         0  system_cw32l010.o ABSOLUTE
    MOTOR\\global.c                          0x00000000   Number         0  global.o ABSOLUTE
    MOTOR\global.c                           0x00000000   Number         0  global.o ABSOLUTE
    User\\init.c                             0x00000000   Number         0  init.o ABSOLUTE
    User\\interrupts_cw32l010.c              0x00000000   Number         0  interrupts_cw32l010.o ABSOLUTE
    User\\main.c                             0x00000000   Number         0  main.o ABSOLUTE
    User\init.c                              0x00000000   Number         0  init.o ABSOLUTE
    User\interrupts_cw32l010.c               0x00000000   Number         0  interrupts_cw32l010.o ABSOLUTE
    User\main.c                              0x00000000   Number         0  main.o ABSOLUTE
    User\startup_cw32l010.s                  0x00000000   Number         0  startup_cw32l010.o ABSOLUTE
    dc.s                                     0x00000000   Number         0  dc.o ABSOLUTE
    handlers.s                               0x00000000   Number         0  handlers.o ABSOLUTE
    init.s                                   0x00000000   Number         0  init.o ABSOLUTE
    .ARM.Collect$$$$00000000                 0x000000c0   Section        0  entry.o(.ARM.Collect$$$$00000000)
    .ARM.Collect$$$$00000001                 0x000000c0   Section        4  entry2.o(.ARM.Collect$$$$00000001)
    .ARM.Collect$$$$00000004                 0x000000c4   Section        4  entry5.o(.ARM.Collect$$$$00000004)
    .ARM.Collect$$$$00000008                 0x000000c8   Section        0  entry7b.o(.ARM.Collect$$$$00000008)
    .ARM.Collect$$$$0000000A                 0x000000c8   Section        0  entry8b.o(.ARM.Collect$$$$0000000A)
    .ARM.Collect$$$$0000000B                 0x000000c8   Section        8  entry9a.o(.ARM.Collect$$$$0000000B)
    .ARM.Collect$$$$0000000E                 0x000000d0   Section        4  entry12b.o(.ARM.Collect$$$$0000000E)
    .ARM.Collect$$$$0000000F                 0x000000d4   Section        0  entry10a.o(.ARM.Collect$$$$0000000F)
    .ARM.Collect$$$$00000011                 0x000000d4   Section        0  entry11a.o(.ARM.Collect$$$$00000011)
    .ARM.Collect$$$$00002712                 0x000000d4   Section        4  entry2.o(.ARM.Collect$$$$00002712)
    __lit__00000000                          0x000000d4   Data           4  entry2.o(.ARM.Collect$$$$00002712)
    .text                                    0x000000d8   Section       40  startup_cw32l010.o(.text)
    .text                                    0x00000100   Section        0  cw32l010_adc.o(.text)
    .text                                    0x000006ac   Section        0  cw32l010_atim.o(.text)
    .text                                    0x000016f4   Section        0  cw32l010_btim.o(.text)
    .text                                    0x00001f88   Section        0  cw32l010_gpio.o(.text)
    .text                                    0x000020fc   Section        0  cw32l010_sysctrl.o(.text)
    .text                                    0x00002cfc   Section        0  system_cw32l010.o(.text)
    .text                                    0x00002d58   Section        0  main.o(.text)
    .text                                    0x000032e4   Section        0  interrupts_cw32l010.o(.text)
    .text                                    0x00003310   Section        0  init.o(.text)
    .text                                    0x0000358c   Section        0  uidiv.o(.text)
    .text                                    0x000035b8   Section        0  ldiv.o(.text)
    .text                                    0x00003604   Section        0  fmul.o(.text)
    .text                                    0x00003680   Section        0  dadd.o(.text)
    .text                                    0x000037e8   Section        0  dmul.o(.text)
    .text                                    0x000038b8   Section        0  ffltui.o(.text)
    .text                                    0x000038c8   Section        0  dflti.o(.text)
    .text                                    0x000038f0   Section        0  dfltui.o(.text)
    .text                                    0x0000390c   Section        0  f2d.o(.text)
    .text                                    0x00003934   Section        0  d2f.o(.text)
    .text                                    0x0000396c   Section        0  uldiv.o(.text)
    .text                                    0x000039cc   Section        0  llshl.o(.text)
    .text                                    0x000039ec   Section        0  llsshr.o(.text)
    .text                                    0x00003a12   Section        0  iusefp.o(.text)
    .text                                    0x00003a12   Section        0  fepilogue.o(.text)
    .text                                    0x00003a94   Section        0  depilogue.o(.text)
    .text                                    0x00003b54   Section       36  init.o(.text)
    .text                                    0x00003b78   Section        0  llushr.o(.text)
    i.__ARM_clz                              0x00003b9a   Section        0  depilogue.o(i.__ARM_clz)
    i.__ARM_common_switch8                   0x00003bc8   Section        0  cw32l010_atim.o(i.__ARM_common_switch8)
    i.__scatterload_copy                     0x00003be4   Section       14  handlers.o(i.__scatterload_copy)
    i.__scatterload_null                     0x00003bf2   Section        2  handlers.o(i.__scatterload_null)
    i.__scatterload_zeroinit                 0x00003bf4   Section       14  handlers.o(i.__scatterload_zeroinit)
    .constdata                               0x00003c04   Section       64  cw32l010_sysctrl.o(.constdata)
    .data                                    0x20000000   Section        4  system_cw32l010.o(.data)
    .data                                    0x20000004   Section        4  main.o(.data)
    count                                    0x20000004   Data           4  main.o(.data)
    .data                                    0x20000008   Section        8  global.o(.data)
    STACK                                    0x20000010   Section      512  startup_cw32l010.o(STACK)

    Global Symbols

    Symbol Name                              Value     Ov Type        Size  Object(Section)

    BuildAttributes$$THM_ISAv3M$S$PE$A:L22$X:L11$S22$IEEE1$IW$USESV6$~STKCKD$USESV7$~SHL$OTIME$ROPI$EBA8$MICROLIB$REQ8$PRES8$EABIv2 0x00000000   Number         0  anon$$obj.o ABSOLUTE
    __ARM_use_no_argv                        0x00000000   Number         0  main.o ABSOLUTE
    __Vectors                                0x00000000   Data           0  startup_cw32l010.o(RESET)
    __arm_fini_                               - Undefined Weak Reference
    __cpp_initialize__aeabi_                  - Undefined Weak Reference
    __cxa_finalize                            - Undefined Weak Reference
    __decompress                              - Undefined Weak Reference
    _clock_init                               - Undefined Weak Reference
    _microlib_exit                            - Undefined Weak Reference
    __Vectors_End                            0x000000c0   Data           0  startup_cw32l010.o(RESET)
    __Vectors_Size                           0x000000c0   Number         0  startup_cw32l010.o ABSOLUTE
    __main                                   0x000000c1   Thumb Code     0  entry.o(.ARM.Collect$$$$00000000)
    _main_stk                                0x000000c1   Thumb Code     0  entry2.o(.ARM.Collect$$$$00000001)
    _main_scatterload                        0x000000c5   Thumb Code     0  entry5.o(.ARM.Collect$$$$00000004)
    __main_after_scatterload                 0x000000c9   Thumb Code     0  entry5.o(.ARM.Collect$$$$00000004)
    _main_clock                              0x000000c9   Thumb Code     0  entry7b.o(.ARM.Collect$$$$00000008)
    _main_cpp_init                           0x000000c9   Thumb Code     0  entry8b.o(.ARM.Collect$$$$0000000A)
    _main_init                               0x000000c9   Thumb Code     0  entry9a.o(.ARM.Collect$$$$0000000B)
    __rt_lib_shutdown_fini                   0x000000d1   Thumb Code     0  entry12b.o(.ARM.Collect$$$$0000000E)
    __rt_final_cpp                           0x000000d5   Thumb Code     0  entry10a.o(.ARM.Collect$$$$0000000F)
    __rt_final_exit                          0x000000d5   Thumb Code     0  entry11a.o(.ARM.Collect$$$$00000011)
    Reset_Handler                            0x000000d9   Thumb Code    14  startup_cw32l010.o(.text)
    SysTick_Handler                          0x000000ef   Thumb Code     2  startup_cw32l010.o(.text)
    BTIM3_IRQHandler                         0x000000f1   Thumb Code     0  startup_cw32l010.o(.text)
    GTIM1_IRQHandler                         0x000000f1   Thumb Code     0  startup_cw32l010.o(.text)
    ADC_DeInit                               0x00000101   Thumb Code    26  cw32l010_adc.o(.text)
    ADC_Init                                 0x0000011b   Thumb Code   470  cw32l010_adc.o(.text)
    ADC_Enable                               0x000002f1   Thumb Code    18  cw32l010_adc.o(.text)
    ADC_Disable                              0x00000303   Thumb Code    18  cw32l010_adc.o(.text)
    ADC_WatchdogInit                         0x00000315   Thumb Code   194  cw32l010_adc.o(.text)
    ADC_GetITStatusAll                       0x000003d7   Thumb Code     8  cw32l010_adc.o(.text)
    ADC_GetITStatus                          0x000003df   Thumb Code    48  cw32l010_adc.o(.text)
    ADC_ClearITPendingAll                    0x0000040f   Thumb Code     8  cw32l010_adc.o(.text)
    ADC_ClearITPendingBit                    0x00000417   Thumb Code    42  cw32l010_adc.o(.text)
    ADC_ITConfig                             0x00000441   Thumb Code    74  cw32l010_adc.o(.text)
    ADC_SoftwareStartConvCmd                 0x0000048b   Thumb Code    62  cw32l010_adc.o(.text)
    ADC_ExtTrigCfg                           0x000004c9   Thumb Code   144  cw32l010_adc.o(.text)
    ADC_GetConversionValue                   0x00000559   Thumb Code    30  cw32l010_adc.o(.text)
    ADC_GetSqr0Result                        0x00000577   Thumb Code    16  cw32l010_adc.o(.text)
    ADC_GetSqr1Result                        0x00000587   Thumb Code    16  cw32l010_adc.o(.text)
    ADC_GetSqr2Result                        0x00000597   Thumb Code    16  cw32l010_adc.o(.text)
    ADC_GetSqr3Result                        0x000005a7   Thumb Code    16  cw32l010_adc.o(.text)
    ADC_GetSqr4Result                        0x000005b7   Thumb Code    16  cw32l010_adc.o(.text)
    ADC_GetSqr5Result                        0x000005c7   Thumb Code    16  cw32l010_adc.o(.text)
    ADC_GetSqr6Result                        0x000005d7   Thumb Code    16  cw32l010_adc.o(.text)
    ADC_GetSqr7Result                        0x000005e7   Thumb Code    16  cw32l010_adc.o(.text)
    ADC_SetTs                                0x000005f7   Thumb Code    42  cw32l010_adc.o(.text)
    ADC_GetTs                                0x00000621   Thumb Code   114  cw32l010_adc.o(.text)
    ATIM_DeInit                              0x000006ad   Thumb Code    28  cw32l010_atim.o(.text)
    ATIM_Init                                0x000006c9   Thumb Code   168  cw32l010_atim.o(.text)
    ATIM_Cmd                                 0x00000771   Thumb Code    20  cw32l010_atim.o(.text)
    ATIM_ITConfig                            0x00000785   Thumb Code    74  cw32l010_atim.o(.text)
    ATIM_GetITStatus                         0x000007cf   Thumb Code    44  cw32l010_atim.o(.text)
    ATIM_ClearITPendingBit                   0x000007fb   Thumb Code    36  cw32l010_atim.o(.text)
    ATIM_SetReloadValue                      0x0000081f   Thumb Code     6  cw32l010_atim.o(.text)
    ATIM_SetCounterValue                     0x00000825   Thumb Code     6  cw32l010_atim.o(.text)
    ATIM_MasterModeTrgo1Config               0x0000082b   Thumb Code    66  cw32l010_atim.o(.text)
    ATIM_MasterModeTrgo2Config               0x0000086d   Thumb Code    44  cw32l010_atim.o(.text)
    ATIM_SlaverModeConfig                    0x00000899   Thumb Code    62  cw32l010_atim.o(.text)
    ATIM_SetTriggerInput                     0x000008d7   Thumb Code   130  cw32l010_atim.o(.text)
    ATIM_IC1Init                             0x00000959   Thumb Code   164  cw32l010_atim.o(.text)
    ATIM_IC2Init                             0x000009fd   Thumb Code   228  cw32l010_atim.o(.text)
    ATIM_IC3Init                             0x00000ae1   Thumb Code   152  cw32l010_atim.o(.text)
    ATIM_IC4Init                             0x00000b79   Thumb Code   162  cw32l010_atim.o(.text)
    ATIM_IC5Init                             0x00000c1b   Thumb Code   160  cw32l010_atim.o(.text)
    ATIM_IC6Init                             0x00000cbb   Thumb Code   172  cw32l010_atim.o(.text)
    ATIM_OC1Init                             0x00000d67   Thumb Code   214  cw32l010_atim.o(.text)
    ATIM_OC2Init                             0x00000e3d   Thumb Code   242  cw32l010_atim.o(.text)
    ATIM_OC3Init                             0x00000f2f   Thumb Code   222  cw32l010_atim.o(.text)
    ATIM_OC4Init                             0x0000100d   Thumb Code   232  cw32l010_atim.o(.text)
    ATIM_OC5Init                             0x000010f5   Thumb Code   234  cw32l010_atim.o(.text)
    ATIM_OC6Init                             0x000011df   Thumb Code   244  cw32l010_atim.o(.text)
    ATIM_CH1Config                           0x000012d3   Thumb Code    54  cw32l010_atim.o(.text)
    ATIM_CH2Config                           0x00001309   Thumb Code    46  cw32l010_atim.o(.text)
    ATIM_CH3Config                           0x00001337   Thumb Code    50  cw32l010_atim.o(.text)
    ATIM_CH4Config                           0x00001369   Thumb Code    50  cw32l010_atim.o(.text)
    ATIM_CH5Config                           0x0000139b   Thumb Code    50  cw32l010_atim.o(.text)
    ATIM_CH6Config                           0x000013cd   Thumb Code    50  cw32l010_atim.o(.text)
    ATIM_GetCapture1                         0x000013ff   Thumb Code     8  cw32l010_atim.o(.text)
    ATIM_GetCapture2                         0x00001407   Thumb Code     8  cw32l010_atim.o(.text)
    ATIM_GetCapture3                         0x0000140f   Thumb Code     8  cw32l010_atim.o(.text)
    ATIM_GetCapture4                         0x00001417   Thumb Code    10  cw32l010_atim.o(.text)
    ATIM_GetCapture5                         0x00001421   Thumb Code    10  cw32l010_atim.o(.text)
    ATIM_GetCapture6                         0x0000142b   Thumb Code    10  cw32l010_atim.o(.text)
    ATIM_SetCompare1                         0x00001435   Thumb Code     6  cw32l010_atim.o(.text)
    ATIM_SetCompare2                         0x0000143b   Thumb Code     6  cw32l010_atim.o(.text)
    ATIM_SetCompare3                         0x00001441   Thumb Code     6  cw32l010_atim.o(.text)
    ATIM_SetCompare4                         0x00001447   Thumb Code     8  cw32l010_atim.o(.text)
    ATIM_SetCompare5                         0x0000144f   Thumb Code     8  cw32l010_atim.o(.text)
    ATIM_SetCompare6                         0x00001457   Thumb Code     8  cw32l010_atim.o(.text)
    ATIM_CtrlPWMOutputs                      0x0000145f   Thumb Code    54  cw32l010_atim.o(.text)
    ATIM_SetPWMDeadtime                      0x00001495   Thumb Code   130  cw32l010_atim.o(.text)
    ATIM_Brake1Config                        0x00001517   Thumb Code   114  cw32l010_atim.o(.text)
    ATIM_Brake2Config                        0x00001589   Thumb Code   114  cw32l010_atim.o(.text)
    ATIM_UpdateEventSelect                   0x000015fb   Thumb Code    46  cw32l010_atim.o(.text)
    ATIM_RemapTimerInput                     0x00001629   Thumb Code   190  cw32l010_atim.o(.text)
    BTIM_DeInit                              0x000016f5   Thumb Code    58  cw32l010_btim.o(.text)
    BTIM_TimeBaseInit                        0x0000172f   Thumb Code   164  cw32l010_btim.o(.text)
    BTIM_Cmd                                 0x000017d3   Thumb Code    80  cw32l010_btim.o(.text)
    BTIM_ITConfig                            0x00001823   Thumb Code    96  cw32l010_btim.o(.text)
    BTIM_GetITStatus                         0x00001883   Thumb Code    72  cw32l010_btim.o(.text)
    BTIM_ClearITPendingBit                   0x000018cb   Thumb Code    64  cw32l010_btim.o(.text)
    BTIM_GenerateEvent                       0x0000190b   Thumb Code    64  cw32l010_btim.o(.text)
    BTIM_ModeConfig                          0x0000194b   Thumb Code    76  cw32l010_btim.o(.text)
    BTIM_SelectOnePulseMode                  0x00001997   Thumb Code    68  cw32l010_btim.o(.text)
    BTIM_OutputToggleCmd                     0x000019db   Thumb Code    84  cw32l010_btim.o(.text)
    BTIM_SetCounter                          0x00001a2f   Thumb Code    42  cw32l010_btim.o(.text)
    BTIM_GetCounter                          0x00001a59   Thumb Code    42  cw32l010_btim.o(.text)
    BTIM_SetAutoreload                       0x00001a83   Thumb Code    42  cw32l010_btim.o(.text)
    BTIM_GetAutoreload                       0x00001aad   Thumb Code   100  cw32l010_btim.o(.text)
    BTIM_SetPrescaler                        0x00001b11   Thumb Code    68  cw32l010_btim.o(.text)
    BTIM_GetPrescaler                        0x00001b55   Thumb Code    44  cw32l010_btim.o(.text)
    BTIM_ConfigUpdateRemap                   0x00001b81   Thumb Code    88  cw32l010_btim.o(.text)
    BTIM_ETRConfig                           0x00001bd9   Thumb Code   142  cw32l010_btim.o(.text)
    BTIM_AutoReloadPreloadConfig             0x00001c67   Thumb Code    84  cw32l010_btim.o(.text)
    BTIM_UpdateRequestSourceConfig           0x00001cbb   Thumb Code    72  cw32l010_btim.o(.text)
    BTIM_EnableUpdateEvent                   0x00001d03   Thumb Code    48  cw32l010_btim.o(.text)
    BTIM_DisableUpdateEvent                  0x00001d33   Thumb Code    48  cw32l010_btim.o(.text)
    BTIM_TriggerInputConfig                  0x00001d63   Thumb Code   198  cw32l010_btim.o(.text)
    BTIM_ResetInputConfig                    0x00001e29   Thumb Code   150  cw32l010_btim.o(.text)
    BTIM_MasterOutputTriggerConfig           0x00001ebf   Thumb Code    92  cw32l010_btim.o(.text)
    BTIM_SlaveSynchronEnable                 0x00001f1b   Thumb Code    50  cw32l010_btim.o(.text)
    BTIM_SlaveSynchronDisable                0x00001f4d   Thumb Code    50  cw32l010_btim.o(.text)
    GPIO_Init                                0x00001f89   Thumb Code   206  cw32l010_gpio.o(.text)
    GPIO_DeInit                              0x00002057   Thumb Code    38  cw32l010_gpio.o(.text)
    GPIO_ReadPin                             0x0000207d   Thumb Code    18  cw32l010_gpio.o(.text)
    GPIO_WritePin                            0x0000208f   Thumb Code    12  cw32l010_gpio.o(.text)
    GPIO_Write                               0x0000209b   Thumb Code     4  cw32l010_gpio.o(.text)
    GPIO_TogglePin                           0x0000209f   Thumb Code     4  cw32l010_gpio.o(.text)
    GPIO_SWD2GPIO                            0x000020a3   Thumb Code    16  cw32l010_gpio.o(.text)
    GPIO_GPIO2SWD                            0x000020b3   Thumb Code    20  cw32l010_gpio.o(.text)
    GPIO_RST2GPIO                            0x000020c7   Thumb Code    16  cw32l010_gpio.o(.text)
    GPIO_GPIO2RST                            0x000020d7   Thumb Code    20  cw32l010_gpio.o(.text)
    GPIO_ConfigFilter                        0x000020eb   Thumb Code     8  cw32l010_gpio.o(.text)
    SYSCTRL_HCLKPRS_Config                   0x000020fd   Thumb Code    66  cw32l010_sysctrl.o(.text)
    SYSCTRL_PCLKPRS_Config                   0x0000213f   Thumb Code    68  cw32l010_sysctrl.o(.text)
    SYSCTRL_GetHClkFreq                      0x00002183   Thumb Code   108  cw32l010_sysctrl.o(.text)
    SYSCTRL_SystemCoreClockUpdate            0x000021ef   Thumb Code     6  cw32l010_sysctrl.o(.text)
    SYSCTRL_SYSCLKSRC_Config                 0x000021f5   Thumb Code    62  cw32l010_sysctrl.o(.text)
    SYSCTRL_CCS_Config                       0x00002233   Thumb Code    72  cw32l010_sysctrl.o(.text)
    SYSCTRL_LSELOCK_Config                   0x0000227b   Thumb Code    40  cw32l010_sysctrl.o(.text)
    SYSCTRL_WAKEUPCLK_Config                 0x000022a3   Thumb Code    44  cw32l010_sysctrl.o(.text)
    SYSCTRL_LOCKUP_Config                    0x000022cf   Thumb Code    44  cw32l010_sysctrl.o(.text)
    SYSCTRL_SWDIO_Config                     0x000022fb   Thumb Code    44  cw32l010_sysctrl.o(.text)
    SYSCTRL_DeInit                           0x00002327   Thumb Code   142  cw32l010_sysctrl.o(.text)
    SYSCTRL_GetPClkFreq                      0x000023b5   Thumb Code    28  cw32l010_sysctrl.o(.text)
    SYSCTRL_HSI_Enable                       0x000023d1   Thumb Code   240  cw32l010_sysctrl.o(.text)
    SYSCTRL_HSI_Disable                      0x000024c1   Thumb Code    20  cw32l010_sysctrl.o(.text)
    SYSCTRL_LSI_Enable                       0x000024d5   Thumb Code   162  cw32l010_sysctrl.o(.text)
    SYSCTRL_LSI_Disable                      0x00002577   Thumb Code    20  cw32l010_sysctrl.o(.text)
    SYSCTRL_HSEWaitClockSet                  0x0000258b   Thumb Code    16  cw32l010_sysctrl.o(.text)
    SYSCTRL_HEXEnablePinPolSet               0x0000259b   Thumb Code    80  cw32l010_sysctrl.o(.text)
    SYSCTRL_HSE_Enable                       0x000025eb   Thumb Code   196  cw32l010_sysctrl.o(.text)
    SYSCTRL_HSE_Disable                      0x000026af   Thumb Code    20  cw32l010_sysctrl.o(.text)
    SYSCTRL_LSE_Enable                       0x000026c3   Thumb Code   170  cw32l010_sysctrl.o(.text)
    SYSCTRL_LSE_Disable                      0x0000276d   Thumb Code    20  cw32l010_sysctrl.o(.text)
    SYSCTRL_SysClk_Switch                    0x00002781   Thumb Code   232  cw32l010_sysctrl.o(.text)
    SYSCTRL_ITConfig                         0x00002869   Thumb Code    90  cw32l010_sysctrl.o(.text)
    SYSCTRL_GetITStatus                      0x000028c3   Thumb Code    54  cw32l010_sysctrl.o(.text)
    SYSCTRL_ClearITPendingBit                0x000028f9   Thumb Code    84  cw32l010_sysctrl.o(.text)
    SYSCTRL_GetStableFlag                    0x0000294d   Thumb Code    58  cw32l010_sysctrl.o(.text)
    SYSCTRL_GetAllStableFlag                 0x00002987   Thumb Code     6  cw32l010_sysctrl.o(.text)
    SYSCTRL_AHBPeriphClk_Enable              0x0000298d   Thumb Code    68  cw32l010_sysctrl.o(.text)
    SYSCTRL_APBPeriphClk_Enable1             0x000029d1   Thumb Code    66  cw32l010_sysctrl.o(.text)
    SYSCTRL_APBPeriphClk_Enable2             0x00002a13   Thumb Code    68  cw32l010_sysctrl.o(.text)
    SYSCTRL_AHBPeriphReset                   0x00002a57   Thumb Code    68  cw32l010_sysctrl.o(.text)
    SYSCTRL_APBPeriphReset1                  0x00002a9b   Thumb Code    66  cw32l010_sysctrl.o(.text)
    SYSCTRL_APBPeriphReset2                  0x00002add   Thumb Code    66  cw32l010_sysctrl.o(.text)
    SYSCTRL_GetRstFlag                       0x00002b1f   Thumb Code    72  cw32l010_sysctrl.o(.text)
    SYSCTRL_GetAllRstFlag                    0x00002b67   Thumb Code     8  cw32l010_sysctrl.o(.text)
    SYSCTRL_ClearRstFlag                     0x00002b6f   Thumb Code    68  cw32l010_sysctrl.o(.text)
    SYSCTRL_PCLK_OUT                         0x00002bb3   Thumb Code    66  cw32l010_sysctrl.o(.text)
    SYSCTRL_MCO_OUT                          0x00002bf5   Thumb Code   168  cw32l010_sysctrl.o(.text)
    SYSCTRL_GotoSleep                        0x00002c9d   Thumb Code    20  cw32l010_sysctrl.o(.text)
    SYSCTRL_GotoDeepSleep                    0x00002cb1   Thumb Code    20  cw32l010_sysctrl.o(.text)
    SYSCTRL_ConfigSleepOnExit                0x00002cc5   Thumb Code    32  cw32l010_sysctrl.o(.text)
    SystemCoreClockUpdate                    0x00002cfd   Thumb Code     8  system_cw32l010.o(.text)
    SystemInit                               0x00002d05   Thumb Code    50  system_cw32l010.o(.text)
    FirmwareDelay                            0x00002d37   Thumb Code    18  system_cw32l010.o(.text)
    PowerOnDelay                             0x00002d59   Thumb Code    50  main.o(.text)
    turn1                                    0x00002d8b   Thumb Code   550  main.o(.text)
    turn2                                    0x00002fb1   Thumb Code   566  main.o(.text)
    stop                                     0x000031e7   Thumb Code    50  main.o(.text)
    main                                     0x00003219   Thumb Code    42  main.o(.text)
    BTIM1_IRQHandler                         0x00003243   Thumb Code   140  main.o(.text)
    assert_failed                            0x000032cf   Thumb Code     2  main.o(.text)
    NMI_Handler                              0x000032e5   Thumb Code     2  interrupts_cw32l010.o(.text)
    HardFault_Handler                        0x000032e7   Thumb Code     4  interrupts_cw32l010.o(.text)
    SVC_Handler                              0x000032eb   Thumb Code     2  interrupts_cw32l010.o(.text)
    PendSV_Handler                           0x000032ed   Thumb Code     2  interrupts_cw32l010.o(.text)
    WDT_IRQHandler                           0x000032ef   Thumb Code     2  interrupts_cw32l010.o(.text)
    LVD_IRQHandler                           0x000032f1   Thumb Code     2  interrupts_cw32l010.o(.text)
    RTC_IRQHandler                           0x000032f3   Thumb Code     2  interrupts_cw32l010.o(.text)
    FLASHRAM_IRQHandler                      0x000032f5   Thumb Code     2  interrupts_cw32l010.o(.text)
    SYSCTRL_IRQHandler                       0x000032f7   Thumb Code     2  interrupts_cw32l010.o(.text)
    GPIOA_IRQHandler                         0x000032f9   Thumb Code     2  interrupts_cw32l010.o(.text)
    GPIOB_IRQHandler                         0x000032fb   Thumb Code     2  interrupts_cw32l010.o(.text)
    ATIM_IRQHandler                          0x000032fd   Thumb Code     2  interrupts_cw32l010.o(.text)
    VC1_IRQHandler                           0x000032ff   Thumb Code     2  interrupts_cw32l010.o(.text)
    VC2_IRQHandler                           0x00003301   Thumb Code     2  interrupts_cw32l010.o(.text)
    LPTIM_IRQHandler                         0x00003303   Thumb Code     2  interrupts_cw32l010.o(.text)
    BTIM2_IRQHandler                         0x00003305   Thumb Code     2  interrupts_cw32l010.o(.text)
    I2C1_IRQHandler                          0x00003307   Thumb Code     2  interrupts_cw32l010.o(.text)
    SPI1_IRQHandler                          0x00003309   Thumb Code     2  interrupts_cw32l010.o(.text)
    UART1_IRQHandler                         0x0000330b   Thumb Code     2  interrupts_cw32l010.o(.text)
    UART2_IRQHandler                         0x0000330d   Thumb Code     2  interrupts_cw32l010.o(.text)
    CLKFAULT_IRQHandler                      0x0000330f   Thumb Code     2  interrupts_cw32l010.o(.text)
    RCC_Configuration                        0x00003311   Thumb Code    48  init.o(.text)
    RST_KEYConfiguration                     0x00003341   Thumb Code    50  init.o(.text)
    STEPDC_Configuration                     0x00003373   Thumb Code   382  init.o(.text)
    BTIM1_Configuration                      0x000034f1   Thumb Code    98  init.o(.text)
    ADC_IRQHandler                           0x00003553   Thumb Code    20  init.o(.text)
    __aeabi_uidiv                            0x0000358d   Thumb Code     0  uidiv.o(.text)
    __aeabi_uidivmod                         0x0000358d   Thumb Code    44  uidiv.o(.text)
    __aeabi_ldivmod                          0x000035b9   Thumb Code    76  ldiv.o(.text)
    __aeabi_fmul                             0x00003605   Thumb Code   122  fmul.o(.text)
    __aeabi_dadd                             0x00003681   Thumb Code   330  dadd.o(.text)
    __aeabi_dsub                             0x000037cb   Thumb Code    12  dadd.o(.text)
    __aeabi_drsub                            0x000037d7   Thumb Code    12  dadd.o(.text)
    __aeabi_dmul                             0x000037e9   Thumb Code   202  dmul.o(.text)
    __aeabi_ui2f                             0x000038b9   Thumb Code    14  ffltui.o(.text)
    __aeabi_i2d                              0x000038c9   Thumb Code    34  dflti.o(.text)
    __aeabi_ui2d                             0x000038f1   Thumb Code    24  dfltui.o(.text)
    __aeabi_f2d                              0x0000390d   Thumb Code    40  f2d.o(.text)
    __aeabi_d2f                              0x00003935   Thumb Code    56  d2f.o(.text)
    __aeabi_uldivmod                         0x0000396d   Thumb Code    96  uldiv.o(.text)
    __aeabi_llsl                             0x000039cd   Thumb Code    32  llshl.o(.text)
    _ll_shift_l                              0x000039cd   Thumb Code     0  llshl.o(.text)
    __aeabi_lasr                             0x000039ed   Thumb Code    38  llsshr.o(.text)
    _ll_sshift_r                             0x000039ed   Thumb Code     0  llsshr.o(.text)
    __I$use$fp                               0x00003a13   Thumb Code     0  iusefp.o(.text)
    _float_round                             0x00003a13   Thumb Code    16  fepilogue.o(.text)
    _float_epilogue                          0x00003a23   Thumb Code   114  fepilogue.o(.text)
    _double_round                            0x00003a95   Thumb Code    26  depilogue.o(.text)
    _double_epilogue                         0x00003aaf   Thumb Code   164  depilogue.o(.text)
    __scatterload                            0x00003b55   Thumb Code    28  init.o(.text)
    __scatterload_rt2                        0x00003b55   Thumb Code     0  init.o(.text)
    __aeabi_llsr                             0x00003b79   Thumb Code    34  llushr.o(.text)
    _ll_ushift_r                             0x00003b79   Thumb Code     0  llushr.o(.text)
    __ARM_clz                                0x00003b9b   Thumb Code    46  depilogue.o(i.__ARM_clz)
    __ARM_common_switch8                     0x00003bc9   Thumb Code    28  cw32l010_atim.o(i.__ARM_common_switch8)
    __scatterload_copy                       0x00003be5   Thumb Code    14  handlers.o(i.__scatterload_copy)
    __scatterload_null                       0x00003bf3   Thumb Code     2  handlers.o(i.__scatterload_null)
    __scatterload_zeroinit                   0x00003bf5   Thumb Code    14  handlers.o(i.__scatterload_zeroinit)
    hsiprs_tbl                               0x00003c04   Data          64  cw32l010_sysctrl.o(.constdata)
    Region$$Table$$Base                      0x00003c44   Number         0  anon$$obj.o(Region$$Table)
    Region$$Table$$Limit                     0x00003c64   Number         0  anon$$obj.o(Region$$Table)
    SystemCoreClock                          0x20000000   Data           4  system_cw32l010.o(.data)
    TimeCount                                0x20000008   Data           4  global.o(.data)
    Dir                                      0x2000000c   Data           4  global.o(.data)
    __initial_sp                             0x20000210   Data           0  startup_cw32l010.o(STACK)



==============================================================================

Memory Map of the image

  Image Entry point : 0x000000c1

  Load Region LR_IROM1 (Base: 0x00000000, Size: 0x00003c74, Max: 0x00010000, ABSOLUTE)

    Execution Region ER_IROM1 (Exec base: 0x00000000, Load base: 0x00000000, Size: 0x00003c64, Max: 0x00010000, ABSOLUTE)

    Exec Addr    Load Addr    Size         Type   Attr      Idx    E Section Name        Object

    0x00000000   0x00000000   0x000000c0   Data   RO            3    RESET               startup_cw32l010.o
    0x000000c0   0x000000c0   0x00000000   Code   RO          478  * .ARM.Collect$$$$00000000  mc_p.l(entry.o)
    0x000000c0   0x000000c0   0x00000004   Code   RO          501    .ARM.Collect$$$$00000001  mc_p.l(entry2.o)
    0x000000c4   0x000000c4   0x00000004   Code   RO          504    .ARM.Collect$$$$00000004  mc_p.l(entry5.o)
    0x000000c8   0x000000c8   0x00000000   Code   RO          506    .ARM.Collect$$$$00000008  mc_p.l(entry7b.o)
    0x000000c8   0x000000c8   0x00000000   Code   RO          508    .ARM.Collect$$$$0000000A  mc_p.l(entry8b.o)
    0x000000c8   0x000000c8   0x00000008   Code   RO          509    .ARM.Collect$$$$0000000B  mc_p.l(entry9a.o)
    0x000000d0   0x000000d0   0x00000004   Code   RO          516    .ARM.Collect$$$$0000000E  mc_p.l(entry12b.o)
    0x000000d4   0x000000d4   0x00000000   Code   RO          511    .ARM.Collect$$$$0000000F  mc_p.l(entry10a.o)
    0x000000d4   0x000000d4   0x00000000   Code   RO          513    .ARM.Collect$$$$00000011  mc_p.l(entry11a.o)
    0x000000d4   0x000000d4   0x00000004   Code   RO          502    .ARM.Collect$$$$00002712  mc_p.l(entry2.o)
    0x000000d8   0x000000d8   0x00000028   Code   RO            4    .text               startup_cw32l010.o
    0x00000100   0x00000100   0x000005ac   Code   RO           12    .text               cw32l010_adc.o
    0x000006ac   0x000006ac   0x00001048   Code   RO           80    .text               cw32l010_atim.o
    0x000016f4   0x000016f4   0x00000894   Code   RO          105    .text               cw32l010_btim.o
    0x00001f88   0x00001f88   0x00000174   Code   RO          174    .text               cw32l010_gpio.o
    0x000020fc   0x000020fc   0x00000c00   Code   RO          240    .text               cw32l010_sysctrl.o
    0x00002cfc   0x00002cfc   0x0000005c   Code   RO          263    .text               system_cw32l010.o
    0x00002d58   0x00002d58   0x0000058c   Code   RO          289    .text               main.o
    0x000032e4   0x000032e4   0x0000002c   Code   RO          357    .text               interrupts_cw32l010.o
    0x00003310   0x00003310   0x0000027c   Code   RO          390    .text               init.o
    0x0000358c   0x0000358c   0x0000002c   Code   RO          481    .text               mc_p.l(uidiv.o)
    0x000035b8   0x000035b8   0x0000004c   Code   RO          483    .text               mc_p.l(ldiv.o)
    0x00003604   0x00003604   0x0000007a   Code   RO          485    .text               mf_p.l(fmul.o)
    0x0000367e   0x0000367e   0x00000002   PAD
    0x00003680   0x00003680   0x00000168   Code   RO          487    .text               mf_p.l(dadd.o)
    0x000037e8   0x000037e8   0x000000d0   Code   RO          489    .text               mf_p.l(dmul.o)
    0x000038b8   0x000038b8   0x0000000e   Code   RO          491    .text               mf_p.l(ffltui.o)
    0x000038c6   0x000038c6   0x00000002   PAD
    0x000038c8   0x000038c8   0x00000028   Code   RO          493    .text               mf_p.l(dflti.o)
    0x000038f0   0x000038f0   0x0000001c   Code   RO          495    .text               mf_p.l(dfltui.o)
    0x0000390c   0x0000390c   0x00000028   Code   RO          497    .text               mf_p.l(f2d.o)
    0x00003934   0x00003934   0x00000038   Code   RO          499    .text               mf_p.l(d2f.o)
    0x0000396c   0x0000396c   0x00000060   Code   RO          517    .text               mc_p.l(uldiv.o)
    0x000039cc   0x000039cc   0x00000020   Code   RO          519    .text               mc_p.l(llshl.o)
    0x000039ec   0x000039ec   0x00000026   Code   RO          521    .text               mc_p.l(llsshr.o)
    0x00003a12   0x00003a12   0x00000000   Code   RO          523    .text               mc_p.l(iusefp.o)
    0x00003a12   0x00003a12   0x00000082   Code   RO          524    .text               mf_p.l(fepilogue.o)
    0x00003a94   0x00003a94   0x000000be   Code   RO          526    .text               mf_p.l(depilogue.o)
    0x00003b52   0x00003b52   0x00000002   PAD
    0x00003b54   0x00003b54   0x00000024   Code   RO          530    .text               mc_p.l(init.o)
    0x00003b78   0x00003b78   0x00000022   Code   RO          532    .text               mc_p.l(llushr.o)
    0x00003b9a   0x00003b9a   0x0000002e   Code   RO          528    i.__ARM_clz         mf_p.l(depilogue.o)
    0x00003bc8   0x00003bc8   0x0000001c   Code   RO           95    i.__ARM_common_switch8  cw32l010_atim.o
    0x00003be4   0x00003be4   0x0000000e   Code   RO          536    i.__scatterload_copy  mc_p.l(handlers.o)
    0x00003bf2   0x00003bf2   0x00000002   Code   RO          537    i.__scatterload_null  mc_p.l(handlers.o)
    0x00003bf4   0x00003bf4   0x0000000e   Code   RO          538    i.__scatterload_zeroinit  mc_p.l(handlers.o)
    0x00003c02   0x00003c02   0x00000002   PAD
    0x00003c04   0x00003c04   0x00000040   Data   RO          241    .constdata          cw32l010_sysctrl.o
    0x00003c44   0x00003c44   0x00000020   Data   RO          534    Region$$Table       anon$$obj.o


    Execution Region RW_IRAM1 (Exec base: 0x20000000, Load base: 0x00003c64, Size: 0x00000210, Max: 0x00001000, ABSOLUTE)

    Exec Addr    Load Addr    Size         Type   Attr      Idx    E Section Name        Object

    0x20000000   0x00003c64   0x00000004   Data   RW          264    .data               system_cw32l010.o
    0x20000004   0x00003c68   0x00000004   Data   RW          290    .data               main.o
    0x20000008   0x00003c6c   0x00000008   Data   RW          457    .data               global.o
    0x20000010        -       0x00000200   Zero   RW            1    STACK               startup_cw32l010.o


==============================================================================

Image component sizes


      Code (inc. data)   RO Data    RW Data    ZI Data      Debug   Object Name

      1452         82          0          0          0     136849   cw32l010_adc.o
      4196        108          0          0          0      21663   cw32l010_atim.o
      2196         86          0          0          0      14158   cw32l010_btim.o
       372         10          0          0          0       2751   cw32l010_gpio.o
      3072        140         64          0          0      10790   cw32l010_sysctrl.o
         0          0          0          8          0        316   global.o
       636         38          0          0          0     148477   init.o
        44          0          0          0          0       2399   interrupts_cw32l010.o
      1420         34          0          4          0       2532   main.o
        40         14        192          0        512        664   startup_cw32l010.o
        92         16          0          4          0       1571   system_cw32l010.o

    ----------------------------------------------------------------------
     13520        528        288         16        512     342170   Object Totals
         0          0         32          0          0          0   (incl. Generated)
         0          0          0          0          0          0   (incl. Padding)

    ----------------------------------------------------------------------

      Code (inc. data)   RO Data    RW Data    ZI Data      Debug   Library Member Name

         0          0          0          0          0          0   entry.o
         0          0          0          0          0          0   entry10a.o
         0          0          0          0          0          0   entry11a.o
         4          0          0          0          0          0   entry12b.o
         8          4          0          0          0          0   entry2.o
         4          0          0          0          0          0   entry5.o
         0          0          0          0          0          0   entry7b.o
         0          0          0          0          0          0   entry8b.o
         8          4          0          0          0          0   entry9a.o
        30          0          0          0          0          0   handlers.o
        36          8          0          0          0         68   init.o
         0          0          0          0          0          0   iusefp.o
        76          0          0          0          0         76   ldiv.o
        32          0          0          0          0         68   llshl.o
        38          0          0          0          0         68   llsshr.o
        34          0          0          0          0         68   llushr.o
        44          0          0          0          0         72   uidiv.o
        96          0          0          0          0         84   uldiv.o
        56          0          0          0          0         68   d2f.o
       360          6          0          0          0        140   dadd.o
       236          0          0          0          0        216   depilogue.o
        40          6          0          0          0         68   dflti.o
        28          4          0          0          0         68   dfltui.o
       208          6          0          0          0         88   dmul.o
        40          0          0          0          0         60   f2d.o
       130          0          0          0          0        144   fepilogue.o
        14          0          0          0          0         68   ffltui.o
       122          0          0          0          0         72   fmul.o

    ----------------------------------------------------------------------
      1652         38          0          0          0       1496   Library Totals
         8          0          0          0          0          0   (incl. Padding)

    ----------------------------------------------------------------------

      Code (inc. data)   RO Data    RW Data    ZI Data      Debug   Library Name

       410         16          0          0          0        504   mc_p.l
      1234         22          0          0          0        992   mf_p.l

    ----------------------------------------------------------------------
      1652         38          0          0          0       1496   Library Totals

    ----------------------------------------------------------------------

==============================================================================


      Code (inc. data)   RO Data    RW Data    ZI Data      Debug   

     15172        566        288         16        512     342322   Grand Totals
     15172        566        288         16        512     342322   ELF Image Totals
     15172        566        288         16          0          0   ROM Totals

==============================================================================

    Total RO  Size (Code + RO Data)                15460 (  15.10kB)
    Total RW  Size (RW Data + ZI Data)               528 (   0.52kB)
    Total ROM Size (Code + RO Data + RW Data)      15476 (  15.11kB)

==============================================================================

