Component: ARM Compiler 5.06 update 7 (build 960) Tool: armlink [4d3601]

==============================================================================

Image Symbol Table

    Local Symbols

    Symbol Name                              Value     Ov Type        Size  Object(Section)

    RESET                                    0x00000000   Section      192  startup_cw32l010.o(RESET)
    ../clib/../cmprslib/zerorunl.c           0x00000000   Number         0  __dczerorl.o ABSOLUTE
    ../clib/microlib/division.c              0x00000000   Number         0  ldiv.o ABSOLUTE
    ../clib/microlib/division.c              0x00000000   Number         0  uidiv.o ABSOLUTE
    ../clib/microlib/division.c              0x00000000   Number         0  idiv.o ABSOLUTE
    ../clib/microlib/division.c              0x00000000   Number         0  uldiv.o ABSOLUTE
    ../clib/microlib/init/entry.s            0x00000000   Number         0  entry12b.o ABSOLUTE
    ../clib/microlib/init/entry.s            0x00000000   Number         0  entry12a.o ABSOLUTE
    ../clib/microlib/init/entry.s            0x00000000   Number         0  entry10b.o ABSOLUTE
    ../clib/microlib/init/entry.s            0x00000000   Number         0  entry11a.o ABSOLUTE
    ../clib/microlib/init/entry.s            0x00000000   Number         0  entry11b.o ABSOLUTE
    ../clib/microlib/init/entry.s            0x00000000   Number         0  entry8a.o ABSOLUTE
    ../clib/microlib/init/entry.s            0x00000000   Number         0  entry7b.o ABSOLUTE
    ../clib/microlib/init/entry.s            0x00000000   Number         0  entry7a.o ABSOLUTE
    ../clib/microlib/init/entry.s            0x00000000   Number         0  entry.o ABSOLUTE
    ../clib/microlib/init/entry.s            0x00000000   Number         0  entry5.o ABSOLUTE
    ../clib/microlib/init/entry.s            0x00000000   Number         0  entry2.o ABSOLUTE
    ../clib/microlib/init/entry.s            0x00000000   Number         0  entry8b.o ABSOLUTE
    ../clib/microlib/init/entry.s            0x00000000   Number         0  entry9a.o ABSOLUTE
    ../clib/microlib/init/entry.s            0x00000000   Number         0  entry9b.o ABSOLUTE
    ../clib/microlib/init/entry.s            0x00000000   Number         0  entry10a.o ABSOLUTE
    ../clib/microlib/longlong.c              0x00000000   Number         0  llushr.o ABSOLUTE
    ../clib/microlib/longlong.c              0x00000000   Number         0  llsshr.o ABSOLUTE
    ../clib/microlib/longlong.c              0x00000000   Number         0  llshl.o ABSOLUTE
    ../clib/microlib/string/memset.c         0x00000000   Number         0  memseta.o ABSOLUTE
    ../clib/microlib/stubs.s                 0x00000000   Number         0  iusefp.o ABSOLUTE
    ../fplib/microlib/d2f.c                  0x00000000   Number         0  d2f.o ABSOLUTE
    ../fplib/microlib/f2d.c                  0x00000000   Number         0  f2d.o ABSOLUTE
    ../fplib/microlib/fpadd.c                0x00000000   Number         0  dadd.o ABSOLUTE
    ../fplib/microlib/fpadd.c                0x00000000   Number         0  fadd.o ABSOLUTE
    ../fplib/microlib/fpdiv.c                0x00000000   Number         0  fdiv.o ABSOLUTE
    ../fplib/microlib/fpdiv.c                0x00000000   Number         0  ddiv.o ABSOLUTE
    ../fplib/microlib/fpepilogue.c           0x00000000   Number         0  depilogue.o ABSOLUTE
    ../fplib/microlib/fpepilogue.c           0x00000000   Number         0  fepilogue.o ABSOLUTE
    ../fplib/microlib/fpfix.c                0x00000000   Number         0  dfixi.o ABSOLUTE
    ../fplib/microlib/fpfix.c                0x00000000   Number         0  ffixui.o ABSOLUTE
    ../fplib/microlib/fpflt.c                0x00000000   Number         0  ffltui.o ABSOLUTE
    ../fplib/microlib/fpflt.c                0x00000000   Number         0  dfltui.o ABSOLUTE
    ../fplib/microlib/fpflt.c                0x00000000   Number         0  dflti.o ABSOLUTE
    ../fplib/microlib/fpflt.c                0x00000000   Number         0  fflti.o ABSOLUTE
    ../fplib/microlib/fpmul.c                0x00000000   Number         0  fmul.o ABSOLUTE
    ../fplib/microlib/fpmul.c                0x00000000   Number         0  dmul.o ABSOLUTE
    Driver\Libraries\src\cw32l010_adc.c      0x00000000   Number         0  cw32l010_adc.o ABSOLUTE
    Driver\Libraries\src\cw32l010_atim.c     0x00000000   Number         0  cw32l010_atim.o ABSOLUTE
    Driver\Libraries\src\cw32l010_btim.c     0x00000000   Number         0  cw32l010_btim.o ABSOLUTE
    Driver\Libraries\src\cw32l010_crc.c      0x00000000   Number         0  cw32l010_crc.o ABSOLUTE
    Driver\Libraries\src\cw32l010_flash.c    0x00000000   Number         0  cw32l010_flash.o ABSOLUTE
    Driver\Libraries\src\cw32l010_gpio.c     0x00000000   Number         0  cw32l010_gpio.o ABSOLUTE
    Driver\Libraries\src\cw32l010_gtim.c     0x00000000   Number         0  cw32l010_gtim.o ABSOLUTE
    Driver\Libraries\src\cw32l010_pwr.c      0x00000000   Number         0  cw32l010_pwr.o ABSOLUTE
    Driver\Libraries\src\cw32l010_sysctrl.c  0x00000000   Number         0  cw32l010_sysctrl.o ABSOLUTE
    Driver\Libraries\src\system_cw32l010.c   0x00000000   Number         0  system_cw32l010.o ABSOLUTE
    Driver\\Libraries\\src\\cw32l010_adc.c   0x00000000   Number         0  cw32l010_adc.o ABSOLUTE
    Driver\\Libraries\\src\\cw32l010_atim.c  0x00000000   Number         0  cw32l010_atim.o ABSOLUTE
    Driver\\Libraries\\src\\cw32l010_btim.c  0x00000000   Number         0  cw32l010_btim.o ABSOLUTE
    Driver\\Libraries\\src\\cw32l010_crc.c   0x00000000   Number         0  cw32l010_crc.o ABSOLUTE
    Driver\\Libraries\\src\\cw32l010_flash.c 0x00000000   Number         0  cw32l010_flash.o ABSOLUTE
    Driver\\Libraries\\src\\cw32l010_gpio.c  0x00000000   Number         0  cw32l010_gpio.o ABSOLUTE
    Driver\\Libraries\\src\\cw32l010_gtim.c  0x00000000   Number         0  cw32l010_gtim.o ABSOLUTE
    Driver\\Libraries\\src\\cw32l010_pwr.c   0x00000000   Number         0  cw32l010_pwr.o ABSOLUTE
    Driver\\Libraries\\src\\cw32l010_sysctrl.c 0x00000000   Number         0  cw32l010_sysctrl.o ABSOLUTE
    Driver\\Libraries\\src\\system_cw32l010.c 0x00000000   Number         0  system_cw32l010.o ABSOLUTE
    MOTOR\MOTOR.C                            0x00000000   Number         0  motor.o ABSOLUTE
    MOTOR\\MOTOR.C                           0x00000000   Number         0  motor.o ABSOLUTE
    MOTOR\\compu.c                           0x00000000   Number         0  compu.o ABSOLUTE
    MOTOR\\control.c                         0x00000000   Number         0  control.o ABSOLUTE
    MOTOR\\global.c                          0x00000000   Number         0  global.o ABSOLUTE
    MOTOR\\pid.c                             0x00000000   Number         0  pid.o ABSOLUTE
    MOTOR\\sensorless.c                      0x00000000   Number         0  sensorless.o ABSOLUTE
    MOTOR\compu.c                            0x00000000   Number         0  compu.o ABSOLUTE
    MOTOR\control.c                          0x00000000   Number         0  control.o ABSOLUTE
    MOTOR\global.c                           0x00000000   Number         0  global.o ABSOLUTE
    MOTOR\pid.c                              0x00000000   Number         0  pid.o ABSOLUTE
    MOTOR\sensorless.c                       0x00000000   Number         0  sensorless.o ABSOLUTE
    MOTOR\sensorlessP.c                      0x00000000   Number         0  sensorlessp.o ABSOLUTE
    User\\init.c                             0x00000000   Number         0  init.o ABSOLUTE
    User\\interrupts_cw32l010.c              0x00000000   Number         0  interrupts_cw32l010.o ABSOLUTE
    User\\main.c                             0x00000000   Number         0  main.o ABSOLUTE
    User\init.c                              0x00000000   Number         0  init.o ABSOLUTE
    User\interrupts_cw32l010.c               0x00000000   Number         0  interrupts_cw32l010.o ABSOLUTE
    User\main.c                              0x00000000   Number         0  main.o ABSOLUTE
    User\startup_cw32l010.s                  0x00000000   Number         0  startup_cw32l010.o ABSOLUTE
    cdcmple.s                                0x00000000   Number         0  cdcmple.o ABSOLUTE
    cdrcmple.s                               0x00000000   Number         0  cdrcmple.o ABSOLUTE
    cfcmple.s                                0x00000000   Number         0  cfcmple.o ABSOLUTE
    cfrcmple.s                               0x00000000   Number         0  cfrcmple.o ABSOLUTE
    dc.s                                     0x00000000   Number         0  dc.o ABSOLUTE
    handlers.s                               0x00000000   Number         0  handlers.o ABSOLUTE
    init.s                                   0x00000000   Number         0  init.o ABSOLUTE
    .ARM.Collect$$$$00000000                 0x000000c0   Section        0  entry.o(.ARM.Collect$$$$00000000)
    .ARM.Collect$$$$00000001                 0x000000c0   Section        4  entry2.o(.ARM.Collect$$$$00000001)
    .ARM.Collect$$$$00000004                 0x000000c4   Section        4  entry5.o(.ARM.Collect$$$$00000004)
    .ARM.Collect$$$$00000008                 0x000000c8   Section        0  entry7b.o(.ARM.Collect$$$$00000008)
    .ARM.Collect$$$$0000000A                 0x000000c8   Section        0  entry8b.o(.ARM.Collect$$$$0000000A)
    .ARM.Collect$$$$0000000B                 0x000000c8   Section        8  entry9a.o(.ARM.Collect$$$$0000000B)
    .ARM.Collect$$$$0000000E                 0x000000d0   Section        4  entry12b.o(.ARM.Collect$$$$0000000E)
    .ARM.Collect$$$$0000000F                 0x000000d4   Section        0  entry10a.o(.ARM.Collect$$$$0000000F)
    .ARM.Collect$$$$00000011                 0x000000d4   Section        0  entry11a.o(.ARM.Collect$$$$00000011)
    .ARM.Collect$$$$00002712                 0x000000d4   Section        4  entry2.o(.ARM.Collect$$$$00002712)
    __lit__00000000                          0x000000d4   Data           4  entry2.o(.ARM.Collect$$$$00002712)
    .text                                    0x000000d8   Section       40  startup_cw32l010.o(.text)
    .text                                    0x00000100   Section        0  cw32l010_adc.o(.text)
    .text                                    0x000006ac   Section        0  cw32l010_atim.o(.text)
    .text                                    0x000016f4   Section        0  cw32l010_btim.o(.text)
    .text                                    0x00001f88   Section        0  cw32l010_gpio.o(.text)
    .text                                    0x000020fc   Section        0  cw32l010_sysctrl.o(.text)
    .text                                    0x00002cfc   Section        0  system_cw32l010.o(.text)
    .text                                    0x00002d58   Section        0  main.o(.text)
    .text                                    0x00003100   Section        0  interrupts_cw32l010.o(.text)
    .text                                    0x0000312c   Section        0  init.o(.text)
    __NVIC_EnableIRQ                         0x000034d5   Thumb Code    26  init.o(.text)
    .text                                    0x00003510   Section        0  compu.o(.text)
    .text                                    0x000037a8   Section        0  control.o(.text)
    .text                                    0x00003ee4   Section        0  motor.o(.text)
    .text                                    0x00004250   Section        0  sensorless.o(.text)
    .text                                    0x000046d8   Section        0  pid.o(.text)
    .text                                    0x00004914   Section        0  uidiv.o(.text)
    .text                                    0x00004940   Section        0  idiv.o(.text)
    .text                                    0x00004968   Section        0  ldiv.o(.text)
    .text                                    0x000049b4   Section        0  memseta.o(.text)
    .text                                    0x000049d8   Section        0  fadd.o(.text)
    .text                                    0x00004a8a   Section        0  fmul.o(.text)
    .text                                    0x00004b04   Section        0  fdiv.o(.text)
    .text                                    0x00004b80   Section        0  dadd.o(.text)
    .text                                    0x00004ce8   Section        0  dmul.o(.text)
    .text                                    0x00004db8   Section        0  ddiv.o(.text)
    .text                                    0x00004ea8   Section        0  fflti.o(.text)
    .text                                    0x00004ebe   Section        0  ffltui.o(.text)
    .text                                    0x00004ecc   Section        0  dflti.o(.text)
    .text                                    0x00004ef4   Section        0  dfltui.o(.text)
    .text                                    0x00004f10   Section        0  ffixui.o(.text)
    .text                                    0x00004f38   Section        0  dfixi.o(.text)
    .text                                    0x00004f80   Section        0  f2d.o(.text)
    .text                                    0x00004fa8   Section       40  cdcmple.o(.text)
    .text                                    0x00004fd0   Section       40  cdrcmple.o(.text)
    .text                                    0x00004ff8   Section        0  d2f.o(.text)
    .text                                    0x00005030   Section       20  cfcmple.o(.text)
    .text                                    0x00005044   Section       20  cfrcmple.o(.text)
    .text                                    0x00005058   Section        0  uldiv.o(.text)
    .text                                    0x000050b8   Section        0  llshl.o(.text)
    .text                                    0x000050d8   Section        0  llushr.o(.text)
    .text                                    0x000050fa   Section        0  llsshr.o(.text)
    .text                                    0x00005120   Section        0  iusefp.o(.text)
    .text                                    0x00005120   Section        0  fepilogue.o(.text)
    .text                                    0x000051a2   Section        0  depilogue.o(.text)
    .text                                    0x00005260   Section       36  init.o(.text)
    .text                                    0x00005284   Section        0  __dczerorl.o(.text)
    i.__ARM_clz                              0x000052be   Section        0  depilogue.o(i.__ARM_clz)
    i.__ARM_common_switch8                   0x000052ec   Section        0  cw32l010_atim.o(i.__ARM_common_switch8)
    i.__scatterload_copy                     0x00005308   Section       14  handlers.o(i.__scatterload_copy)
    i.__scatterload_null                     0x00005316   Section        2  handlers.o(i.__scatterload_null)
    i.__scatterload_zeroinit                 0x00005318   Section       14  handlers.o(i.__scatterload_zeroinit)
    .constdata                               0x00005328   Section       64  cw32l010_sysctrl.o(.constdata)
    .constdata                               0x00005368   Section       24  sensorless.o(.constdata)
    .constdata                               0x00005380   Section       64  sensorlessp.o(.constdata)
    .data                                    0x20000000   Section        4  system_cw32l010.o(.data)
    .data                                    0x20000004   Section        4  main.o(.data)
    .data                                    0x20000008   Section      216  global.o(.data)
    .data                                    0x200000e0   Section        3  compu.o(.data)
    IErCount                                 0x200000e0   Data           1  compu.o(.data)
    VErCount                                 0x200000e1   Data           1  compu.o(.data)
    LVErCount                                0x200000e2   Data           1  compu.o(.data)
    .data                                    0x200000e3   Section        1  control.o(.data)
    slflag                                   0x200000e3   Data           1  control.o(.data)
    .data                                    0x200000e4   Section       41  sensorless.o(.data)
    cou                                      0x2000010c   Data           1  sensorless.o(.data)
    .data                                    0x20000110   Section       48  pid.o(.data)
    .bss                                     0x20000140   Section       12  global.o(.bss)
    STACK                                    0x20000150   Section      512  startup_cw32l010.o(STACK)

    Global Symbols

    Symbol Name                              Value     Ov Type        Size  Object(Section)

    BuildAttributes$$THM_ISAv3M$S$PE$A:L22$X:L11$S22$IEEE1$IW$USESV6$~STKCKD$USESV7$~SHL$OTIME$ROPI$EBA8$MICROLIB$REQ8$PRES8$EABIv2 0x00000000   Number         0  anon$$obj.o ABSOLUTE
    __ARM_use_no_argv                        0x00000000   Number         0  main.o ABSOLUTE
    __Vectors                                0x00000000   Data           0  startup_cw32l010.o(RESET)
    __arm_fini_                               - Undefined Weak Reference
    __cpp_initialize__aeabi_                  - Undefined Weak Reference
    __cxa_finalize                            - Undefined Weak Reference
    _clock_init                               - Undefined Weak Reference
    _microlib_exit                            - Undefined Weak Reference
    __Vectors_End                            0x000000c0   Data           0  startup_cw32l010.o(RESET)
    __Vectors_Size                           0x000000c0   Number         0  startup_cw32l010.o ABSOLUTE
    __main                                   0x000000c1   Thumb Code     0  entry.o(.ARM.Collect$$$$00000000)
    _main_stk                                0x000000c1   Thumb Code     0  entry2.o(.ARM.Collect$$$$00000001)
    _main_scatterload                        0x000000c5   Thumb Code     0  entry5.o(.ARM.Collect$$$$00000004)
    __main_after_scatterload                 0x000000c9   Thumb Code     0  entry5.o(.ARM.Collect$$$$00000004)
    _main_clock                              0x000000c9   Thumb Code     0  entry7b.o(.ARM.Collect$$$$00000008)
    _main_cpp_init                           0x000000c9   Thumb Code     0  entry8b.o(.ARM.Collect$$$$0000000A)
    _main_init                               0x000000c9   Thumb Code     0  entry9a.o(.ARM.Collect$$$$0000000B)
    __rt_lib_shutdown_fini                   0x000000d1   Thumb Code     0  entry12b.o(.ARM.Collect$$$$0000000E)
    __rt_final_cpp                           0x000000d5   Thumb Code     0  entry10a.o(.ARM.Collect$$$$0000000F)
    __rt_final_exit                          0x000000d5   Thumb Code     0  entry11a.o(.ARM.Collect$$$$00000011)
    Reset_Handler                            0x000000d9   Thumb Code    14  startup_cw32l010.o(.text)
    SysTick_Handler                          0x000000ef   Thumb Code     2  startup_cw32l010.o(.text)
    GTIM1_IRQHandler                         0x000000f1   Thumb Code     0  startup_cw32l010.o(.text)
    ADC_DeInit                               0x00000101   Thumb Code    26  cw32l010_adc.o(.text)
    ADC_Init                                 0x0000011b   Thumb Code   470  cw32l010_adc.o(.text)
    ADC_Enable                               0x000002f1   Thumb Code    18  cw32l010_adc.o(.text)
    ADC_Disable                              0x00000303   Thumb Code    18  cw32l010_adc.o(.text)
    ADC_WatchdogInit                         0x00000315   Thumb Code   194  cw32l010_adc.o(.text)
    ADC_GetITStatusAll                       0x000003d7   Thumb Code     8  cw32l010_adc.o(.text)
    ADC_GetITStatus                          0x000003df   Thumb Code    48  cw32l010_adc.o(.text)
    ADC_ClearITPendingAll                    0x0000040f   Thumb Code     8  cw32l010_adc.o(.text)
    ADC_ClearITPendingBit                    0x00000417   Thumb Code    42  cw32l010_adc.o(.text)
    ADC_ITConfig                             0x00000441   Thumb Code    74  cw32l010_adc.o(.text)
    ADC_SoftwareStartConvCmd                 0x0000048b   Thumb Code    62  cw32l010_adc.o(.text)
    ADC_ExtTrigCfg                           0x000004c9   Thumb Code   144  cw32l010_adc.o(.text)
    ADC_GetConversionValue                   0x00000559   Thumb Code    30  cw32l010_adc.o(.text)
    ADC_GetSqr0Result                        0x00000577   Thumb Code    16  cw32l010_adc.o(.text)
    ADC_GetSqr1Result                        0x00000587   Thumb Code    16  cw32l010_adc.o(.text)
    ADC_GetSqr2Result                        0x00000597   Thumb Code    16  cw32l010_adc.o(.text)
    ADC_GetSqr3Result                        0x000005a7   Thumb Code    16  cw32l010_adc.o(.text)
    ADC_GetSqr4Result                        0x000005b7   Thumb Code    16  cw32l010_adc.o(.text)
    ADC_GetSqr5Result                        0x000005c7   Thumb Code    16  cw32l010_adc.o(.text)
    ADC_GetSqr6Result                        0x000005d7   Thumb Code    16  cw32l010_adc.o(.text)
    ADC_GetSqr7Result                        0x000005e7   Thumb Code    16  cw32l010_adc.o(.text)
    ADC_SetTs                                0x000005f7   Thumb Code    42  cw32l010_adc.o(.text)
    ADC_GetTs                                0x00000621   Thumb Code   114  cw32l010_adc.o(.text)
    ATIM_DeInit                              0x000006ad   Thumb Code    28  cw32l010_atim.o(.text)
    ATIM_Init                                0x000006c9   Thumb Code   168  cw32l010_atim.o(.text)
    ATIM_Cmd                                 0x00000771   Thumb Code    20  cw32l010_atim.o(.text)
    ATIM_ITConfig                            0x00000785   Thumb Code    74  cw32l010_atim.o(.text)
    ATIM_GetITStatus                         0x000007cf   Thumb Code    44  cw32l010_atim.o(.text)
    ATIM_ClearITPendingBit                   0x000007fb   Thumb Code    36  cw32l010_atim.o(.text)
    ATIM_SetReloadValue                      0x0000081f   Thumb Code     6  cw32l010_atim.o(.text)
    ATIM_SetCounterValue                     0x00000825   Thumb Code     6  cw32l010_atim.o(.text)
    ATIM_MasterModeTrgo1Config               0x0000082b   Thumb Code    66  cw32l010_atim.o(.text)
    ATIM_MasterModeTrgo2Config               0x0000086d   Thumb Code    44  cw32l010_atim.o(.text)
    ATIM_SlaverModeConfig                    0x00000899   Thumb Code    62  cw32l010_atim.o(.text)
    ATIM_SetTriggerInput                     0x000008d7   Thumb Code   130  cw32l010_atim.o(.text)
    ATIM_IC1Init                             0x00000959   Thumb Code   164  cw32l010_atim.o(.text)
    ATIM_IC2Init                             0x000009fd   Thumb Code   228  cw32l010_atim.o(.text)
    ATIM_IC3Init                             0x00000ae1   Thumb Code   152  cw32l010_atim.o(.text)
    ATIM_IC4Init                             0x00000b79   Thumb Code   162  cw32l010_atim.o(.text)
    ATIM_IC5Init                             0x00000c1b   Thumb Code   160  cw32l010_atim.o(.text)
    ATIM_IC6Init                             0x00000cbb   Thumb Code   172  cw32l010_atim.o(.text)
    ATIM_OC1Init                             0x00000d67   Thumb Code   214  cw32l010_atim.o(.text)
    ATIM_OC2Init                             0x00000e3d   Thumb Code   242  cw32l010_atim.o(.text)
    ATIM_OC3Init                             0x00000f2f   Thumb Code   222  cw32l010_atim.o(.text)
    ATIM_OC4Init                             0x0000100d   Thumb Code   232  cw32l010_atim.o(.text)
    ATIM_OC5Init                             0x000010f5   Thumb Code   234  cw32l010_atim.o(.text)
    ATIM_OC6Init                             0x000011df   Thumb Code   244  cw32l010_atim.o(.text)
    ATIM_CH1Config                           0x000012d3   Thumb Code    54  cw32l010_atim.o(.text)
    ATIM_CH2Config                           0x00001309   Thumb Code    46  cw32l010_atim.o(.text)
    ATIM_CH3Config                           0x00001337   Thumb Code    50  cw32l010_atim.o(.text)
    ATIM_CH4Config                           0x00001369   Thumb Code    50  cw32l010_atim.o(.text)
    ATIM_CH5Config                           0x0000139b   Thumb Code    50  cw32l010_atim.o(.text)
    ATIM_CH6Config                           0x000013cd   Thumb Code    50  cw32l010_atim.o(.text)
    ATIM_GetCapture1                         0x000013ff   Thumb Code     8  cw32l010_atim.o(.text)
    ATIM_GetCapture2                         0x00001407   Thumb Code     8  cw32l010_atim.o(.text)
    ATIM_GetCapture3                         0x0000140f   Thumb Code     8  cw32l010_atim.o(.text)
    ATIM_GetCapture4                         0x00001417   Thumb Code    10  cw32l010_atim.o(.text)
    ATIM_GetCapture5                         0x00001421   Thumb Code    10  cw32l010_atim.o(.text)
    ATIM_GetCapture6                         0x0000142b   Thumb Code    10  cw32l010_atim.o(.text)
    ATIM_SetCompare1                         0x00001435   Thumb Code     6  cw32l010_atim.o(.text)
    ATIM_SetCompare2                         0x0000143b   Thumb Code     6  cw32l010_atim.o(.text)
    ATIM_SetCompare3                         0x00001441   Thumb Code     6  cw32l010_atim.o(.text)
    ATIM_SetCompare4                         0x00001447   Thumb Code     8  cw32l010_atim.o(.text)
    ATIM_SetCompare5                         0x0000144f   Thumb Code     8  cw32l010_atim.o(.text)
    ATIM_SetCompare6                         0x00001457   Thumb Code     8  cw32l010_atim.o(.text)
    ATIM_CtrlPWMOutputs                      0x0000145f   Thumb Code    54  cw32l010_atim.o(.text)
    ATIM_SetPWMDeadtime                      0x00001495   Thumb Code   130  cw32l010_atim.o(.text)
    ATIM_Brake1Config                        0x00001517   Thumb Code   114  cw32l010_atim.o(.text)
    ATIM_Brake2Config                        0x00001589   Thumb Code   114  cw32l010_atim.o(.text)
    ATIM_UpdateEventSelect                   0x000015fb   Thumb Code    46  cw32l010_atim.o(.text)
    ATIM_RemapTimerInput                     0x00001629   Thumb Code   190  cw32l010_atim.o(.text)
    BTIM_DeInit                              0x000016f5   Thumb Code    58  cw32l010_btim.o(.text)
    BTIM_TimeBaseInit                        0x0000172f   Thumb Code   164  cw32l010_btim.o(.text)
    BTIM_Cmd                                 0x000017d3   Thumb Code    80  cw32l010_btim.o(.text)
    BTIM_ITConfig                            0x00001823   Thumb Code    96  cw32l010_btim.o(.text)
    BTIM_GetITStatus                         0x00001883   Thumb Code    72  cw32l010_btim.o(.text)
    BTIM_ClearITPendingBit                   0x000018cb   Thumb Code    64  cw32l010_btim.o(.text)
    BTIM_GenerateEvent                       0x0000190b   Thumb Code    64  cw32l010_btim.o(.text)
    BTIM_ModeConfig                          0x0000194b   Thumb Code    76  cw32l010_btim.o(.text)
    BTIM_SelectOnePulseMode                  0x00001997   Thumb Code    68  cw32l010_btim.o(.text)
    BTIM_OutputToggleCmd                     0x000019db   Thumb Code    84  cw32l010_btim.o(.text)
    BTIM_SetCounter                          0x00001a2f   Thumb Code    42  cw32l010_btim.o(.text)
    BTIM_GetCounter                          0x00001a59   Thumb Code    42  cw32l010_btim.o(.text)
    BTIM_SetAutoreload                       0x00001a83   Thumb Code    42  cw32l010_btim.o(.text)
    BTIM_GetAutoreload                       0x00001aad   Thumb Code   100  cw32l010_btim.o(.text)
    BTIM_SetPrescaler                        0x00001b11   Thumb Code    68  cw32l010_btim.o(.text)
    BTIM_GetPrescaler                        0x00001b55   Thumb Code    44  cw32l010_btim.o(.text)
    BTIM_ConfigUpdateRemap                   0x00001b81   Thumb Code    88  cw32l010_btim.o(.text)
    BTIM_ETRConfig                           0x00001bd9   Thumb Code   142  cw32l010_btim.o(.text)
    BTIM_AutoReloadPreloadConfig             0x00001c67   Thumb Code    84  cw32l010_btim.o(.text)
    BTIM_UpdateRequestSourceConfig           0x00001cbb   Thumb Code    72  cw32l010_btim.o(.text)
    BTIM_EnableUpdateEvent                   0x00001d03   Thumb Code    48  cw32l010_btim.o(.text)
    BTIM_DisableUpdateEvent                  0x00001d33   Thumb Code    48  cw32l010_btim.o(.text)
    BTIM_TriggerInputConfig                  0x00001d63   Thumb Code   198  cw32l010_btim.o(.text)
    BTIM_ResetInputConfig                    0x00001e29   Thumb Code   150  cw32l010_btim.o(.text)
    BTIM_MasterOutputTriggerConfig           0x00001ebf   Thumb Code    92  cw32l010_btim.o(.text)
    BTIM_SlaveSynchronEnable                 0x00001f1b   Thumb Code    50  cw32l010_btim.o(.text)
    BTIM_SlaveSynchronDisable                0x00001f4d   Thumb Code    50  cw32l010_btim.o(.text)
    GPIO_Init                                0x00001f89   Thumb Code   206  cw32l010_gpio.o(.text)
    GPIO_DeInit                              0x00002057   Thumb Code    38  cw32l010_gpio.o(.text)
    GPIO_ReadPin                             0x0000207d   Thumb Code    18  cw32l010_gpio.o(.text)
    GPIO_WritePin                            0x0000208f   Thumb Code    12  cw32l010_gpio.o(.text)
    GPIO_Write                               0x0000209b   Thumb Code     4  cw32l010_gpio.o(.text)
    GPIO_TogglePin                           0x0000209f   Thumb Code     4  cw32l010_gpio.o(.text)
    GPIO_SWD2GPIO                            0x000020a3   Thumb Code    16  cw32l010_gpio.o(.text)
    GPIO_GPIO2SWD                            0x000020b3   Thumb Code    20  cw32l010_gpio.o(.text)
    GPIO_RST2GPIO                            0x000020c7   Thumb Code    16  cw32l010_gpio.o(.text)
    GPIO_GPIO2RST                            0x000020d7   Thumb Code    20  cw32l010_gpio.o(.text)
    GPIO_ConfigFilter                        0x000020eb   Thumb Code     8  cw32l010_gpio.o(.text)
    SYSCTRL_HCLKPRS_Config                   0x000020fd   Thumb Code    66  cw32l010_sysctrl.o(.text)
    SYSCTRL_PCLKPRS_Config                   0x0000213f   Thumb Code    68  cw32l010_sysctrl.o(.text)
    SYSCTRL_GetHClkFreq                      0x00002183   Thumb Code   108  cw32l010_sysctrl.o(.text)
    SYSCTRL_SystemCoreClockUpdate            0x000021ef   Thumb Code     6  cw32l010_sysctrl.o(.text)
    SYSCTRL_SYSCLKSRC_Config                 0x000021f5   Thumb Code    62  cw32l010_sysctrl.o(.text)
    SYSCTRL_CCS_Config                       0x00002233   Thumb Code    72  cw32l010_sysctrl.o(.text)
    SYSCTRL_LSELOCK_Config                   0x0000227b   Thumb Code    40  cw32l010_sysctrl.o(.text)
    SYSCTRL_WAKEUPCLK_Config                 0x000022a3   Thumb Code    44  cw32l010_sysctrl.o(.text)
    SYSCTRL_LOCKUP_Config                    0x000022cf   Thumb Code    44  cw32l010_sysctrl.o(.text)
    SYSCTRL_SWDIO_Config                     0x000022fb   Thumb Code    44  cw32l010_sysctrl.o(.text)
    SYSCTRL_DeInit                           0x00002327   Thumb Code   142  cw32l010_sysctrl.o(.text)
    SYSCTRL_GetPClkFreq                      0x000023b5   Thumb Code    28  cw32l010_sysctrl.o(.text)
    SYSCTRL_HSI_Enable                       0x000023d1   Thumb Code   240  cw32l010_sysctrl.o(.text)
    SYSCTRL_HSI_Disable                      0x000024c1   Thumb Code    20  cw32l010_sysctrl.o(.text)
    SYSCTRL_LSI_Enable                       0x000024d5   Thumb Code   162  cw32l010_sysctrl.o(.text)
    SYSCTRL_LSI_Disable                      0x00002577   Thumb Code    20  cw32l010_sysctrl.o(.text)
    SYSCTRL_HSEWaitClockSet                  0x0000258b   Thumb Code    16  cw32l010_sysctrl.o(.text)
    SYSCTRL_HEXEnablePinPolSet               0x0000259b   Thumb Code    80  cw32l010_sysctrl.o(.text)
    SYSCTRL_HSE_Enable                       0x000025eb   Thumb Code   196  cw32l010_sysctrl.o(.text)
    SYSCTRL_HSE_Disable                      0x000026af   Thumb Code    20  cw32l010_sysctrl.o(.text)
    SYSCTRL_LSE_Enable                       0x000026c3   Thumb Code   170  cw32l010_sysctrl.o(.text)
    SYSCTRL_LSE_Disable                      0x0000276d   Thumb Code    20  cw32l010_sysctrl.o(.text)
    SYSCTRL_SysClk_Switch                    0x00002781   Thumb Code   232  cw32l010_sysctrl.o(.text)
    SYSCTRL_ITConfig                         0x00002869   Thumb Code    90  cw32l010_sysctrl.o(.text)
    SYSCTRL_GetITStatus                      0x000028c3   Thumb Code    54  cw32l010_sysctrl.o(.text)
    SYSCTRL_ClearITPendingBit                0x000028f9   Thumb Code    84  cw32l010_sysctrl.o(.text)
    SYSCTRL_GetStableFlag                    0x0000294d   Thumb Code    58  cw32l010_sysctrl.o(.text)
    SYSCTRL_GetAllStableFlag                 0x00002987   Thumb Code     6  cw32l010_sysctrl.o(.text)
    SYSCTRL_AHBPeriphClk_Enable              0x0000298d   Thumb Code    68  cw32l010_sysctrl.o(.text)
    SYSCTRL_APBPeriphClk_Enable1             0x000029d1   Thumb Code    66  cw32l010_sysctrl.o(.text)
    SYSCTRL_APBPeriphClk_Enable2             0x00002a13   Thumb Code    68  cw32l010_sysctrl.o(.text)
    SYSCTRL_AHBPeriphReset                   0x00002a57   Thumb Code    68  cw32l010_sysctrl.o(.text)
    SYSCTRL_APBPeriphReset1                  0x00002a9b   Thumb Code    66  cw32l010_sysctrl.o(.text)
    SYSCTRL_APBPeriphReset2                  0x00002add   Thumb Code    66  cw32l010_sysctrl.o(.text)
    SYSCTRL_GetRstFlag                       0x00002b1f   Thumb Code    72  cw32l010_sysctrl.o(.text)
    SYSCTRL_GetAllRstFlag                    0x00002b67   Thumb Code     8  cw32l010_sysctrl.o(.text)
    SYSCTRL_ClearRstFlag                     0x00002b6f   Thumb Code    68  cw32l010_sysctrl.o(.text)
    SYSCTRL_PCLK_OUT                         0x00002bb3   Thumb Code    66  cw32l010_sysctrl.o(.text)
    SYSCTRL_MCO_OUT                          0x00002bf5   Thumb Code   168  cw32l010_sysctrl.o(.text)
    SYSCTRL_GotoSleep                        0x00002c9d   Thumb Code    20  cw32l010_sysctrl.o(.text)
    SYSCTRL_GotoDeepSleep                    0x00002cb1   Thumb Code    20  cw32l010_sysctrl.o(.text)
    SYSCTRL_ConfigSleepOnExit                0x00002cc5   Thumb Code    32  cw32l010_sysctrl.o(.text)
    SystemCoreClockUpdate                    0x00002cfd   Thumb Code     8  system_cw32l010.o(.text)
    SystemInit                               0x00002d05   Thumb Code    50  system_cw32l010.o(.text)
    FirmwareDelay                            0x00002d37   Thumb Code    18  system_cw32l010.o(.text)
    PowerOnDelay                             0x00002d59   Thumb Code   140  main.o(.text)
    PotentialCheck                           0x00002de5   Thumb Code    56  main.o(.text)
    main                                     0x00002e1d   Thumb Code   336  main.o(.text)
    BTIM1_IRQHandler                         0x00002f6d   Thumb Code   264  main.o(.text)
    assert_failed                            0x00003075   Thumb Code     2  main.o(.text)
    NMI_Handler                              0x00003101   Thumb Code     2  interrupts_cw32l010.o(.text)
    HardFault_Handler                        0x00003103   Thumb Code     4  interrupts_cw32l010.o(.text)
    SVC_Handler                              0x00003107   Thumb Code     2  interrupts_cw32l010.o(.text)
    PendSV_Handler                           0x00003109   Thumb Code     2  interrupts_cw32l010.o(.text)
    WDT_IRQHandler                           0x0000310b   Thumb Code     2  interrupts_cw32l010.o(.text)
    LVD_IRQHandler                           0x0000310d   Thumb Code     2  interrupts_cw32l010.o(.text)
    RTC_IRQHandler                           0x0000310f   Thumb Code     2  interrupts_cw32l010.o(.text)
    FLASHRAM_IRQHandler                      0x00003111   Thumb Code     2  interrupts_cw32l010.o(.text)
    SYSCTRL_IRQHandler                       0x00003113   Thumb Code     2  interrupts_cw32l010.o(.text)
    GPIOA_IRQHandler                         0x00003115   Thumb Code     2  interrupts_cw32l010.o(.text)
    GPIOB_IRQHandler                         0x00003117   Thumb Code     2  interrupts_cw32l010.o(.text)
    ATIM_IRQHandler                          0x00003119   Thumb Code     2  interrupts_cw32l010.o(.text)
    VC1_IRQHandler                           0x0000311b   Thumb Code     2  interrupts_cw32l010.o(.text)
    VC2_IRQHandler                           0x0000311d   Thumb Code     2  interrupts_cw32l010.o(.text)
    LPTIM_IRQHandler                         0x0000311f   Thumb Code     2  interrupts_cw32l010.o(.text)
    BTIM2_IRQHandler                         0x00003121   Thumb Code     2  interrupts_cw32l010.o(.text)
    I2C1_IRQHandler                          0x00003123   Thumb Code     2  interrupts_cw32l010.o(.text)
    SPI1_IRQHandler                          0x00003125   Thumb Code     2  interrupts_cw32l010.o(.text)
    UART1_IRQHandler                         0x00003127   Thumb Code     2  interrupts_cw32l010.o(.text)
    UART2_IRQHandler                         0x00003129   Thumb Code     2  interrupts_cw32l010.o(.text)
    CLKFAULT_IRQHandler                      0x0000312b   Thumb Code     2  interrupts_cw32l010.o(.text)
    RCC_Configuration                        0x0000312d   Thumb Code    48  init.o(.text)
    DPWMConfiguration                        0x0000315d   Thumb Code    72  init.o(.text)
    RST_KEYConfiguration                     0x000031a5   Thumb Code    50  init.o(.text)
    ADC_Configuration                        0x000031d7   Thumb Code   234  init.o(.text)
    BLDC_Configuration                       0x000032c1   Thumb Code   358  init.o(.text)
    BTIM1_Configuration                      0x00003427   Thumb Code    78  init.o(.text)
    SENSORLESS_TIM_Config                    0x00003475   Thumb Code    96  init.o(.text)
    SampleSpeed                              0x00003511   Thumb Code   218  compu.o(.text)
    SampleVI                                 0x000035eb   Thumb Code   338  compu.o(.text)
    MotorStartCheck                          0x000037a9   Thumb Code   172  control.o(.text)
    MotorStartDealy                          0x00003855   Thumb Code    94  control.o(.text)
    MotorStartOPEN                           0x000038b3   Thumb Code    90  control.o(.text)
    MotorRunOPEN                             0x0000390d   Thumb Code   184  control.o(.text)
    MotorStartPID                            0x000039c5   Thumb Code   360  control.o(.text)
    MotorRunPID                              0x00003b2d   Thumb Code   204  control.o(.text)
    MotorStop                                0x00003bf9   Thumb Code   110  control.o(.text)
    MotorError                               0x00003c67   Thumb Code    20  control.o(.text)
    MotorBreak                               0x00003c7b   Thumb Code   170  control.o(.text)
    MotorErrorOver                           0x00003d25   Thumb Code   212  control.o(.text)
    WaitStart                                0x00003df9   Thumb Code    14  control.o(.text)
    DirCheck                                 0x00003e07   Thumb Code   156  control.o(.text)
    Commutation                              0x00003ee5   Thumb Code   510  motor.o(.text)
    UPPWM                                    0x000040e3   Thumb Code   170  motor.o(.text)
    HALL_MOTOR_START                         0x0000418d   Thumb Code   100  motor.o(.text)
    MOTOR_STOP0                              0x000041f1   Thumb Code    22  motor.o(.text)
    BTIM3_IRQHandler                         0x00004251   Thumb Code   142  sensorless.o(.text)
    ADCS_chuli                               0x000042df   Thumb Code   398  sensorless.o(.text)
    ADC_IRQHandler                           0x0000446d   Thumb Code   148  sensorless.o(.text)
    Sensorless_START                         0x00004501   Thumb Code   464  sensorless.o(.text)
    PID_init                                 0x000046d9   Thumb Code   122  pid.o(.text)
    PIDcompute                               0x00004753   Thumb Code   380  pid.o(.text)
    __aeabi_uidiv                            0x00004915   Thumb Code     0  uidiv.o(.text)
    __aeabi_uidivmod                         0x00004915   Thumb Code    44  uidiv.o(.text)
    __aeabi_idiv                             0x00004941   Thumb Code     0  idiv.o(.text)
    __aeabi_idivmod                          0x00004941   Thumb Code    40  idiv.o(.text)
    __aeabi_ldivmod                          0x00004969   Thumb Code    76  ldiv.o(.text)
    __aeabi_memset                           0x000049b5   Thumb Code    14  memseta.o(.text)
    __aeabi_memset4                          0x000049b5   Thumb Code     0  memseta.o(.text)
    __aeabi_memset8                          0x000049b5   Thumb Code     0  memseta.o(.text)
    __aeabi_memclr                           0x000049c3   Thumb Code     4  memseta.o(.text)
    __aeabi_memclr4                          0x000049c3   Thumb Code     0  memseta.o(.text)
    __aeabi_memclr8                          0x000049c3   Thumb Code     0  memseta.o(.text)
    _memset$wrapper                          0x000049c7   Thumb Code    18  memseta.o(.text)
    __aeabi_fadd                             0x000049d9   Thumb Code   162  fadd.o(.text)
    __aeabi_fsub                             0x00004a7b   Thumb Code     8  fadd.o(.text)
    __aeabi_frsub                            0x00004a83   Thumb Code     8  fadd.o(.text)
    __aeabi_fmul                             0x00004a8b   Thumb Code   122  fmul.o(.text)
    __aeabi_fdiv                             0x00004b05   Thumb Code   124  fdiv.o(.text)
    __aeabi_dadd                             0x00004b81   Thumb Code   330  dadd.o(.text)
    __aeabi_dsub                             0x00004ccb   Thumb Code    12  dadd.o(.text)
    __aeabi_drsub                            0x00004cd7   Thumb Code    12  dadd.o(.text)
    __aeabi_dmul                             0x00004ce9   Thumb Code   202  dmul.o(.text)
    __aeabi_ddiv                             0x00004db9   Thumb Code   234  ddiv.o(.text)
    __aeabi_i2f                              0x00004ea9   Thumb Code    22  fflti.o(.text)
    __aeabi_ui2f                             0x00004ebf   Thumb Code    14  ffltui.o(.text)
    __aeabi_i2d                              0x00004ecd   Thumb Code    34  dflti.o(.text)
    __aeabi_ui2d                             0x00004ef5   Thumb Code    24  dfltui.o(.text)
    __aeabi_f2uiz                            0x00004f11   Thumb Code    40  ffixui.o(.text)
    __aeabi_d2iz                             0x00004f39   Thumb Code    62  dfixi.o(.text)
    __aeabi_f2d                              0x00004f81   Thumb Code    40  f2d.o(.text)
    __aeabi_cdcmpeq                          0x00004fa9   Thumb Code     0  cdcmple.o(.text)
    __aeabi_cdcmple                          0x00004fa9   Thumb Code    38  cdcmple.o(.text)
    __aeabi_cdrcmple                         0x00004fd1   Thumb Code    38  cdrcmple.o(.text)
    __aeabi_d2f                              0x00004ff9   Thumb Code    56  d2f.o(.text)
    __aeabi_cfcmpeq                          0x00005031   Thumb Code     0  cfcmple.o(.text)
    __aeabi_cfcmple                          0x00005031   Thumb Code    20  cfcmple.o(.text)
    __aeabi_cfrcmple                         0x00005045   Thumb Code    20  cfrcmple.o(.text)
    __aeabi_uldivmod                         0x00005059   Thumb Code    96  uldiv.o(.text)
    __aeabi_llsl                             0x000050b9   Thumb Code    32  llshl.o(.text)
    _ll_shift_l                              0x000050b9   Thumb Code     0  llshl.o(.text)
    __aeabi_llsr                             0x000050d9   Thumb Code    34  llushr.o(.text)
    _ll_ushift_r                             0x000050d9   Thumb Code     0  llushr.o(.text)
    __aeabi_lasr                             0x000050fb   Thumb Code    38  llsshr.o(.text)
    _ll_sshift_r                             0x000050fb   Thumb Code     0  llsshr.o(.text)
    __I$use$fp                               0x00005121   Thumb Code     0  iusefp.o(.text)
    _float_round                             0x00005121   Thumb Code    16  fepilogue.o(.text)
    _float_epilogue                          0x00005131   Thumb Code   114  fepilogue.o(.text)
    _double_round                            0x000051a3   Thumb Code    26  depilogue.o(.text)
    _double_epilogue                         0x000051bd   Thumb Code   164  depilogue.o(.text)
    __scatterload                            0x00005261   Thumb Code    28  init.o(.text)
    __scatterload_rt2                        0x00005261   Thumb Code     0  init.o(.text)
    __decompress                             0x00005285   Thumb Code     0  __dczerorl.o(.text)
    __decompress0                            0x00005285   Thumb Code    58  __dczerorl.o(.text)
    __ARM_clz                                0x000052bf   Thumb Code    46  depilogue.o(i.__ARM_clz)
    __ARM_common_switch8                     0x000052ed   Thumb Code    28  cw32l010_atim.o(i.__ARM_common_switch8)
    __scatterload_copy                       0x00005309   Thumb Code    14  handlers.o(i.__scatterload_copy)
    __scatterload_null                       0x00005317   Thumb Code     2  handlers.o(i.__scatterload_null)
    __scatterload_zeroinit                   0x00005319   Thumb Code    14  handlers.o(i.__scatterload_zeroinit)
    hsiprs_tbl                               0x00005328   Data          64  cw32l010_sysctrl.o(.constdata)
    TAB_RFling                               0x00005368   Data          12  sensorless.o(.constdata)
    TAB_BEMFChannel                          0x00005374   Data          12  sensorless.o(.constdata)
    RAMP_TABLE                               0x00005380   Data          64  sensorlessp.o(.constdata)
    Region$$Table$$Base                      0x000053c0   Number         0  anon$$obj.o(Region$$Table)
    Region$$Table$$Limit                     0x000053e0   Number         0  anon$$obj.o(Region$$Table)
    SystemCoreClock                          0x20000000   Data           4  system_cw32l010.o(.data)
    hte                                      0x20000004   Data           4  main.o(.data)
    TimeCountCompuSpeed                      0x20000008   Data           4  global.o(.data)
    TimeCountTemp                            0x2000000c   Data           4  global.o(.data)
    TimeCountSTDelay                         0x20000010   Data           4  global.o(.data)
    TimeCountRealSpd                         0x20000014   Data           4  global.o(.data)
    TimeCountPID                             0x20000018   Data           4  global.o(.data)
    TimeCountAvgSpd                          0x2000001c   Data           4  global.o(.data)
    TimeCountVI                              0x20000020   Data           4  global.o(.data)
    TimeCountStartUP                         0x20000024   Data           4  global.o(.data)
    Timesensor                               0x20000028   Data           4  global.o(.data)
    MOTORSTATE                               0x2000002c   Data           1  global.o(.data)
    ErrorCode                                0x2000002d   Data           1  global.o(.data)
    Motor_Start_F                            0x20000030   Data           4  global.o(.data)
    Cur_step                                 0x20000034   Data           4  global.o(.data)
    Dir                                      0x20000038   Data           1  global.o(.data)
    HALLcount                                0x2000003c   Data           4  global.o(.data)
    HALLcount1                               0x20000040   Data           4  global.o(.data)
    HALLcountTemp                            0x20000044   Data           4  global.o(.data)
    TargS1                                   0x20000048   Data           4  global.o(.data)
    RealS1                                   0x2000004c   Data           4  global.o(.data)
    RealS                                    0x20000050   Data           4  global.o(.data)
    SetSpeed                                 0x20000054   Data           4  global.o(.data)
    KKN                                      0x20000058   Data           4  global.o(.data)
    KPWMN                                    0x2000005c   Data           4  global.o(.data)
    OutPwmValue                              0x20000060   Data           4  global.o(.data)
    SCFlag                                   0x20000064   Data           1  global.o(.data)
    ErrCleFlag                               0x20000065   Data           1  global.o(.data)
    SpeedD                                   0x20000068   Data           4  global.o(.data)
    DIin                                     0x2000006c   Data           4  global.o(.data)
    CanshuV                                  0x20000070   Data           4  global.o(.data)
    CanshuI                                  0x20000074   Data           4  global.o(.data)
    ControlMode                              0x20000078   Data           4  global.o(.data)
    CanshuSPC                                0x2000007c   Data           4  global.o(.data)
    CanshuDir                                0x20000080   Data           4  global.o(.data)
    CanshuSTC                                0x20000084   Data           4  global.o(.data)
    PWMMin                                   0x20000088   Data           4  global.o(.data)
    PWMMax                                   0x2000008c   Data           4  global.o(.data)
    MPolePairs                               0x20000090   Data           4  global.o(.data)
    MAXSPEED                                 0x20000094   Data           4  global.o(.data)
    CanshuTimeDelay                          0x20000098   Data           4  global.o(.data)
    ISH                                      0x2000009c   Data           4  global.o(.data)
    VSH                                      0x200000a0   Data           4  global.o(.data)
    LSH                                      0x200000a4   Data           4  global.o(.data)
    TImeUP                                   0x200000a8   Data           4  global.o(.data)
    MINSPEED                                 0x200000ac   Data           4  global.o(.data)
    CanshuSTT                                0x200000b0   Data           4  global.o(.data)
    SP                                       0x200000b4   Data           4  global.o(.data)
    SI                                       0x200000b8   Data           4  global.o(.data)
    SD                                       0x200000bc   Data           4  global.o(.data)
    Tonoroff                                 0x200000c0   Data           1  global.o(.data)
    STEP_last                                0x200000c4   Data           4  global.o(.data)
    aa                                       0x200000c8   Data           4  global.o(.data)
    bb                                       0x200000cc   Data           4  global.o(.data)
    aac                                      0x200000d0   Data           4  global.o(.data)
    bbc                                      0x200000d4   Data           4  global.o(.data)
    suma                                     0x200000d8   Data           4  global.o(.data)
    sumb                                     0x200000dc   Data           4  global.o(.data)
    StOk                                     0x200000e4   Data           1  sensorless.o(.data)
    StCountComm                              0x200000e8   Data           4  sensorless.o(.data)
    NumCoun                                  0x200000ec   Data           4  sensorless.o(.data)
    FFlag                                    0x200000f0   Data           1  sensorless.o(.data)
    QDPwm                                    0x200000f1   Data           1  sensorless.o(.data)
    TimeAli                                  0x200000f4   Data           4  sensorless.o(.data)
    StepTime                                 0x200000f8   Data           4  sensorless.o(.data)
    Sta                                      0x200000fc   Data           1  sensorless.o(.data)
    RisingFalling                            0x200000fd   Data           1  sensorless.o(.data)
    BEMFConvertedValue                       0x20000100   Data           4  sensorless.o(.data)
    bHallStartStep1                          0x20000104   Data           4  sensorless.o(.data)
    MINOUT                                   0x20000108   Data           4  sensorless.o(.data)
    SPEED_P                                  0x20000110   Data           4  pid.o(.data)
    SPEED_I                                  0x20000114   Data           4  pid.o(.data)
    SPEED_D                                  0x20000118   Data           4  pid.o(.data)
    SSumError                                0x20000120   Data           8  pid.o(.data)
    SPrevError                               0x20000128   Data           8  pid.o(.data)
    SLastError                               0x20000130   Data           8  pid.o(.data)
    SdError                                  0x20000138   Data           4  pid.o(.data)
    SError                                   0x2000013c   Data           4  pid.o(.data)
    SampleData                               0x20000140   Data          12  global.o(.bss)
    __initial_sp                             0x20000350   Data           0  startup_cw32l010.o(STACK)



==============================================================================

Memory Map of the image

  Image Entry point : 0x000000c1

  Load Region LR_IROM1 (Base: 0x00000000, Size: 0x00005520, Max: 0x00010000, ABSOLUTE, COMPRESSED[0x00005410])

    Execution Region ER_IROM1 (Exec base: 0x00000000, Load base: 0x00000000, Size: 0x000053e0, Max: 0x00010000, ABSOLUTE)

    Exec Addr    Load Addr    Size         Type   Attr      Idx    E Section Name        Object

    0x00000000   0x00000000   0x000000c0   Data   RO            3    RESET               startup_cw32l010.o
    0x000000c0   0x000000c0   0x00000000   Code   RO          580  * .ARM.Collect$$$$00000000  mc_p.l(entry.o)
    0x000000c0   0x000000c0   0x00000004   Code   RO          627    .ARM.Collect$$$$00000001  mc_p.l(entry2.o)
    0x000000c4   0x000000c4   0x00000004   Code   RO          630    .ARM.Collect$$$$00000004  mc_p.l(entry5.o)
    0x000000c8   0x000000c8   0x00000000   Code   RO          632    .ARM.Collect$$$$00000008  mc_p.l(entry7b.o)
    0x000000c8   0x000000c8   0x00000000   Code   RO          634    .ARM.Collect$$$$0000000A  mc_p.l(entry8b.o)
    0x000000c8   0x000000c8   0x00000008   Code   RO          635    .ARM.Collect$$$$0000000B  mc_p.l(entry9a.o)
    0x000000d0   0x000000d0   0x00000004   Code   RO          642    .ARM.Collect$$$$0000000E  mc_p.l(entry12b.o)
    0x000000d4   0x000000d4   0x00000000   Code   RO          637    .ARM.Collect$$$$0000000F  mc_p.l(entry10a.o)
    0x000000d4   0x000000d4   0x00000000   Code   RO          639    .ARM.Collect$$$$00000011  mc_p.l(entry11a.o)
    0x000000d4   0x000000d4   0x00000004   Code   RO          628    .ARM.Collect$$$$00002712  mc_p.l(entry2.o)
    0x000000d8   0x000000d8   0x00000028   Code   RO            4    .text               startup_cw32l010.o
    0x00000100   0x00000100   0x000005ac   Code   RO           12    .text               cw32l010_adc.o
    0x000006ac   0x000006ac   0x00001048   Code   RO           80    .text               cw32l010_atim.o
    0x000016f4   0x000016f4   0x00000894   Code   RO          105    .text               cw32l010_btim.o
    0x00001f88   0x00001f88   0x00000174   Code   RO          174    .text               cw32l010_gpio.o
    0x000020fc   0x000020fc   0x00000c00   Code   RO          240    .text               cw32l010_sysctrl.o
    0x00002cfc   0x00002cfc   0x0000005c   Code   RO          263    .text               system_cw32l010.o
    0x00002d58   0x00002d58   0x000003a8   Code   RO          289    .text               main.o
    0x00003100   0x00003100   0x0000002c   Code   RO          343    .text               interrupts_cw32l010.o
    0x0000312c   0x0000312c   0x000003e4   Code   RO          364    .text               init.o
    0x00003510   0x00003510   0x00000298   Code   RO          419    .text               compu.o
    0x000037a8   0x000037a8   0x0000073c   Code   RO          447    .text               control.o
    0x00003ee4   0x00003ee4   0x0000036c   Code   RO          481    .text               motor.o
    0x00004250   0x00004250   0x00000488   Code   RO          512    .text               sensorless.o
    0x000046d8   0x000046d8   0x0000023c   Code   RO          556    .text               pid.o
    0x00004914   0x00004914   0x0000002c   Code   RO          583    .text               mc_p.l(uidiv.o)
    0x00004940   0x00004940   0x00000028   Code   RO          585    .text               mc_p.l(idiv.o)
    0x00004968   0x00004968   0x0000004c   Code   RO          587    .text               mc_p.l(ldiv.o)
    0x000049b4   0x000049b4   0x00000024   Code   RO          589    .text               mc_p.l(memseta.o)
    0x000049d8   0x000049d8   0x000000b2   Code   RO          591    .text               mf_p.l(fadd.o)
    0x00004a8a   0x00004a8a   0x0000007a   Code   RO          593    .text               mf_p.l(fmul.o)
    0x00004b04   0x00004b04   0x0000007c   Code   RO          595    .text               mf_p.l(fdiv.o)
    0x00004b80   0x00004b80   0x00000168   Code   RO          597    .text               mf_p.l(dadd.o)
    0x00004ce8   0x00004ce8   0x000000d0   Code   RO          599    .text               mf_p.l(dmul.o)
    0x00004db8   0x00004db8   0x000000f0   Code   RO          601    .text               mf_p.l(ddiv.o)
    0x00004ea8   0x00004ea8   0x00000016   Code   RO          603    .text               mf_p.l(fflti.o)
    0x00004ebe   0x00004ebe   0x0000000e   Code   RO          605    .text               mf_p.l(ffltui.o)
    0x00004ecc   0x00004ecc   0x00000028   Code   RO          607    .text               mf_p.l(dflti.o)
    0x00004ef4   0x00004ef4   0x0000001c   Code   RO          609    .text               mf_p.l(dfltui.o)
    0x00004f10   0x00004f10   0x00000028   Code   RO          611    .text               mf_p.l(ffixui.o)
    0x00004f38   0x00004f38   0x00000048   Code   RO          613    .text               mf_p.l(dfixi.o)
    0x00004f80   0x00004f80   0x00000028   Code   RO          615    .text               mf_p.l(f2d.o)
    0x00004fa8   0x00004fa8   0x00000028   Code   RO          617    .text               mf_p.l(cdcmple.o)
    0x00004fd0   0x00004fd0   0x00000028   Code   RO          619    .text               mf_p.l(cdrcmple.o)
    0x00004ff8   0x00004ff8   0x00000038   Code   RO          621    .text               mf_p.l(d2f.o)
    0x00005030   0x00005030   0x00000014   Code   RO          623    .text               mf_p.l(cfcmple.o)
    0x00005044   0x00005044   0x00000014   Code   RO          625    .text               mf_p.l(cfrcmple.o)
    0x00005058   0x00005058   0x00000060   Code   RO          643    .text               mc_p.l(uldiv.o)
    0x000050b8   0x000050b8   0x00000020   Code   RO          645    .text               mc_p.l(llshl.o)
    0x000050d8   0x000050d8   0x00000022   Code   RO          647    .text               mc_p.l(llushr.o)
    0x000050fa   0x000050fa   0x00000026   Code   RO          649    .text               mc_p.l(llsshr.o)
    0x00005120   0x00005120   0x00000000   Code   RO          651    .text               mc_p.l(iusefp.o)
    0x00005120   0x00005120   0x00000082   Code   RO          652    .text               mf_p.l(fepilogue.o)
    0x000051a2   0x000051a2   0x000000be   Code   RO          654    .text               mf_p.l(depilogue.o)
    0x00005260   0x00005260   0x00000024   Code   RO          658    .text               mc_p.l(init.o)
    0x00005284   0x00005284   0x0000003a   Code   RO          668    .text               mc_p.l(__dczerorl.o)
    0x000052be   0x000052be   0x0000002e   Code   RO          656    i.__ARM_clz         mf_p.l(depilogue.o)
    0x000052ec   0x000052ec   0x0000001c   Code   RO           95    i.__ARM_common_switch8  cw32l010_atim.o
    0x00005308   0x00005308   0x0000000e   Code   RO          662    i.__scatterload_copy  mc_p.l(handlers.o)
    0x00005316   0x00005316   0x00000002   Code   RO          663    i.__scatterload_null  mc_p.l(handlers.o)
    0x00005318   0x00005318   0x0000000e   Code   RO          664    i.__scatterload_zeroinit  mc_p.l(handlers.o)
    0x00005326   0x00005326   0x00000002   PAD
    0x00005328   0x00005328   0x00000040   Data   RO          241    .constdata          cw32l010_sysctrl.o
    0x00005368   0x00005368   0x00000018   Data   RO          513    .constdata          sensorless.o
    0x00005380   0x00005380   0x00000040   Data   RO          542    .constdata          sensorlessp.o
    0x000053c0   0x000053c0   0x00000020   Data   RO          660    Region$$Table       anon$$obj.o


    Execution Region RW_IRAM1 (Exec base: 0x20000000, Load base: 0x000053e0, Size: 0x00000350, Max: 0x00001000, ABSOLUTE, COMPRESSED[0x00000030])

    Exec Addr    Load Addr    Size         Type   Attr      Idx    E Section Name        Object

    0x20000000   COMPRESSED   0x00000004   Data   RW          264    .data               system_cw32l010.o
    0x20000004   COMPRESSED   0x00000004   Data   RW          290    .data               main.o
    0x20000008   COMPRESSED   0x000000d8   Data   RW          398    .data               global.o
    0x200000e0   COMPRESSED   0x00000003   Data   RW          420    .data               compu.o
    0x200000e3   COMPRESSED   0x00000001   Data   RW          448    .data               control.o
    0x200000e4   COMPRESSED   0x00000029   Data   RW          514    .data               sensorless.o
    0x2000010d   COMPRESSED   0x00000003   PAD
    0x20000110   COMPRESSED   0x00000030   Data   RW          557    .data               pid.o
    0x20000140        -       0x0000000c   Zero   RW          397    .bss                global.o
    0x2000014c   COMPRESSED   0x00000004   PAD
    0x20000150        -       0x00000200   Zero   RW            1    STACK               startup_cw32l010.o


==============================================================================

Image component sizes


      Code (inc. data)   RO Data    RW Data    ZI Data      Debug   Object Name

       664        108          0          3          0       1111   compu.o
      1852        160          0          1          0       3106   control.o
      1452         82          0          0          0     137097   cw32l010_adc.o
      4196        108          0          0          0      21787   cw32l010_atim.o
      2196         86          0          0          0      14278   cw32l010_btim.o
       372         10          0          0          0       2831   cw32l010_gpio.o
      3072        140         64          0          0      10914   cw32l010_sysctrl.o
         0          0          0        216         12       2592   global.o
       996         34          0          0          0      10326   init.o
        44          0          0          0          0       2439   interrupts_cw32l010.o
       936        152          0          4          0       2636   main.o
       876         74          0          0          0       1677   motor.o
       572         70          0         48          0       1479   pid.o
      1160        124         24         41          0       3137   sensorless.o
         0          0         64          0          0       1773   sensorlessp.o
        40         14        192          0        512        692   startup_cw32l010.o
        92         16          0          4          0       1691   system_cw32l010.o

    ----------------------------------------------------------------------
     18520       1178        376        320        528     219566   Object Totals
         0          0         32          0          0          0   (incl. Generated)
         0          0          0          3          4          0   (incl. Padding)

    ----------------------------------------------------------------------

      Code (inc. data)   RO Data    RW Data    ZI Data      Debug   Library Member Name

        58          0          0          0          0          0   __dczerorl.o
         0          0          0          0          0          0   entry.o
         0          0          0          0          0          0   entry10a.o
         0          0          0          0          0          0   entry11a.o
         4          0          0          0          0          0   entry12b.o
         8          4          0          0          0          0   entry2.o
         4          0          0          0          0          0   entry5.o
         0          0          0          0          0          0   entry7b.o
         0          0          0          0          0          0   entry8b.o
         8          4          0          0          0          0   entry9a.o
        30          0          0          0          0          0   handlers.o
        40          0          0          0          0         72   idiv.o
        36          8          0          0          0         68   init.o
         0          0          0          0          0          0   iusefp.o
        76          0          0          0          0         76   ldiv.o
        32          0          0          0          0         68   llshl.o
        38          0          0          0          0         68   llsshr.o
        34          0          0          0          0         68   llushr.o
        36          0          0          0          0        100   memseta.o
        44          0          0          0          0         72   uidiv.o
        96          0          0          0          0         84   uldiv.o
        40          2          0          0          0         68   cdcmple.o
        40          2          0          0          0         68   cdrcmple.o
        20          0          0          0          0         68   cfcmple.o
        20          0          0          0          0         68   cfrcmple.o
        56          0          0          0          0         68   d2f.o
       360          6          0          0          0        140   dadd.o
       240          6          0          0          0         84   ddiv.o
       236          0          0          0          0        216   depilogue.o
        72         10          0          0          0         72   dfixi.o
        40          6          0          0          0         68   dflti.o
        28          4          0          0          0         68   dfltui.o
       208          6          0          0          0         88   dmul.o
        40          0          0          0          0         60   f2d.o
       178          0          0          0          0        108   fadd.o
       124          0          0          0          0         72   fdiv.o
       130          0          0          0          0        144   fepilogue.o
        40          0          0          0          0         60   ffixui.o
        22          0          0          0          0         68   fflti.o
        14          0          0          0          0         68   ffltui.o
       122          0          0          0          0         72   fmul.o

    ----------------------------------------------------------------------
      2576         58          0          0          0       2404   Library Totals
         2          0          0          0          0          0   (incl. Padding)

    ----------------------------------------------------------------------

      Code (inc. data)   RO Data    RW Data    ZI Data      Debug   Library Name

       544         16          0          0          0        676   mc_p.l
      2030         42          0          0          0       1728   mf_p.l

    ----------------------------------------------------------------------
      2576         58          0          0          0       2404   Library Totals

    ----------------------------------------------------------------------

==============================================================================


      Code (inc. data)   RO Data    RW Data    ZI Data      Debug   

     21096       1236        376        320        528     219874   Grand Totals
     21096       1236        376         48        528     219874   ELF Image Totals (compressed)
     21096       1236        376         48          0          0   ROM Totals

==============================================================================

    Total RO  Size (Code + RO Data)                21472 (  20.97kB)
    Total RW  Size (RW Data + ZI Data)               848 (   0.83kB)
    Total ROM Size (Code + RO Data + RW Data)      21520 (  21.02kB)

==============================================================================

