:020000040000FA
:10000000780400209D010000B7010000B901000044
:1000100000000000000000000000000000000000E0
:10002000000000000000000000000000BB01000014
:100030000000000000000000BD010000910F000062
:10004000C1010000C1010000C1010000C1010000A8
:10005000C1010000C1010000C1010000C101000098
:10006000C1010000C1010000C1010000C101000088
:10007000C1010000C1010000C1010000C101000078
:10008000C1010000C1010000C1010000C101000068
:10009000A5060000C1010000C1010000C10100006F
:1000A000C1010000C1010000C1010000C101000048
:1000B000C1010000C1010000C1010000C101000038
:1000C00000F002F800F03EF80CA030C80838241800
:1000D0002D18A246671EAB4654465D46AC4201D180
:1000E00000F030F87E460F3E0FCCB6460126334274
:1000F00000D0FB1AA246AB4633431847D81600007F
:10010000F8160000103A02D378C878C1FAD852071E
:1001100001D330C830C101D504680C6070470000BD
:100120000023002400250026103A01D378C1FBD813
:10013000520700D330C100D50B6070471FB51FBDFB
:1001400010B510BD00F07AFA1146FFF7F7FF00F086
:100150007FFF00F092FA03B4FFF7F2FF03BC00F058
:1001600099FA000070B505460C46164602E00FCC21
:100170000FC5103E102EFAD2082E02D303CC03C5B1
:10018000083E042E07D301CC01C5361F03E02178B9
:100190002970641C6D1C761EF9D270BD0C480D4A86
:1001A000002100A1814200D902440B4802600B48A3
:1001B00080470B480047FEE7FEE7FEE7FEE7FEE765
:1001C000FEE7000007480849084A094B704700004D
:1001D000000000200000000008ED00E0B90F000062
:1001E000C100000078000020780400207802002080
:1001F00078020020002203098B422CD3030A8B4291
:1002000011D300239C464EE003460B433CD400220E
:1002100043088B4231D303098B421CD3030A8B4220
:1002200001D394463FE0C3098B4201D3CB01C01AEE
:10023000524183098B4201D38B01C01A52414309B9
:100240008B4201D34B01C01A524103098B4201D3A7
:100250000B01C01A5241C3088B4201D3CB00C01A14
:10026000524183088B4201D38B00C01A524143088C
:100270008B4201D34B00C01A5241411A00D20146B1
:100280005241104670475DE0CA0F00D0494203104A
:1002900000D34042534000229C4603098B422DD399
:1002A000030A8B4212D3FC22890112BA030A8B4241
:1002B0000CD3890192118B4208D3890192118B4290
:1002C00004D389013AD0921100E08909C3098B4215
:1002D00001D3CB01C01A524183098B4201D38B0158
:1002E000C01A524143098B4201D34B01C01A5241FB
:1002F00003098B4201D30B01C01A5241C3088B4240
:1003000001D3CB00C01A524183088B4201D38B002A
:10031000C01A5241D9D243088B4201D34B00C01AB4
:100320005241411A00D20146634652415B101046C9
:1003300001D34042002B00D54942704763465B1011
:1003400000D3404201B50020C046C04602BD704700
:10035000704770470346CA02400D10B510430A1596
:1003600004D00124E4072043002A05DB0A4CA21A2A
:1003700004D4D040FF2A00DD002010BD4A00002B2D
:1003800001D0012000E00020101801225205D042C7
:10039000F2D8C817C04310BD1E0400001F22030C72
:1003A00002D10F22000402D0030E03D004E000208B
:1003B000014670470002083A030F01D10001121FE5
:1003C000830F01D18000921E002801DB4000521EE5
:1003D000120551184205C012411810467047C10F4E
:1003E000C90700D04042012292071143D6E70121FC
:1003F0008907D3E7F0B58B4C0F09254689B0BD437B
:100400007BD01D092646AE43FAD00E465E402740FB
:10041000F60F3E43254071D024012142FBD0FF243A
:10042000AD19A4042D1B039501252D05DB02DB0A64
:10043000C9022B43C90A29431E010901040F130FE6
:10044000050121431701880B820391432D098C4636
:10045000A90B1E438A039543B30B9A0396433F09A6
:10046000BA0B9403A74302962E467E430497B646E2
:100470004E19D7190C460196544305977E43371BF6
:100480007646BF1B3601B646BE0B36190096764639
:10049000BC043719009C01D3641C00946400002F35
:1004A00001D001263443029E049F754366467E4375
:1004B0000496760034196E0034190094029C019E53
:1004C0001C196643751BAE46069465464519059C86
:1004D00005956C43594375460891691A0191049E2C
:1004E00001465143A41B0491611A009C0791E10647
:1004F00005D061090122114302E072E06EE061095A
:10050000089D00272C0A2D066918049D7C412A0AA3
:100510002D066918019D6241AC0DAD026D18544164
:10052000079A910D920255196141029A6446584307
:100530005443069B059A5A43121A131B9A0E9B01A9
:100540005B187A41010B0005C3185141220A2006AD
:1005500044195A419A4200D2491C0120400281426A
:1005600003D315230226F64302E014230326F643A1
:100570002020C51AA9401746AF40DA400A4320465A
:100580000399D8400914731819055118039A384370
:10059000D2075140AC4009D00122944006D300223A
:1005A000401C5141002C01D1400840001E4A93429A
:1005B00012D3012203989206904207DB05204007E0
:1005C00009181A480143C012414004E003204007C3
:1005D0000818C10FC907002009B0F0BD0020F107BD
:1005E000FAE705180C464C4111486D42A04115D35D
:1005F00094181A465A410E48644290410ED3012085
:100600004A004005824209D35A00824206D359402B
:10061000C90F084AC90700201143DDE70020064939
:10062000DAE700000000FF07FE070000FFFFFF7F82
:100630000000E0FF0000F07F0000F87F754600F04A
:1006400025F8AE46050069465346C008C0008546F9
:1006500018B020B5FFF7B6FD60BC00274908B646C4
:100660000026C0C5C0C5C0C5C0C5C0C5C0C5C0C5C1
:10067000C0C5403D49008D46704710B50446C04690
:10068000C0462046FFF767FD10BD000000487047D8
:100690001400002001491820ABBEFEE7260002002E
:1006A0007047000010B50121074800F021F800282C
:1006B00008D00121044800F00BF804480068401CF1
:1006C0000249086010BD00000048014010000020F1
:1006D000C2698A43C2617047002904D002690123BC
:1006E0001A43026103E00269520852000261704736
:1006F000024690690840002801D001207047002080
:10070000FCE7002A03D043690B43436102E04369DD
:100710008B434361704700001CB50121080300F0C2
:1007200001FB002168464180C1804F218180FF216B
:100730008131018069460D4800F01CF80122114604
:100740000A48FFF7DEFF01210848FFF7C5FF142024
:10075000002809DB00BF00BFC206D20E0121914074
:10076000034A116000BF00BF00BF1CBD004801402C
:1007700000E100E010B54A880B881A43CB881A4381
:100780000369034C23401A4302618A88026010BD4A
:1007900059F8FFFF00B5034603E07D20C00000F0DC
:1007A00005F818465B1E0028F7D100BD8101094AF3
:1007B0005161002191610521116100BF054909695D
:1007C0000122120411400029F8D00421014A1161CC
:1007D0007047000000E000E0002804D00822024337
:1007E00010231A4300E000221146024A0A43024B3A
:1007F0005A60704700005A5A002002404A68002A96
:1008000004D1C2690B681A43C26174E0C2690B6803
:100810009A43C26110234A681A40102A4ED10268D6
:100820000B681A4302604A68112A07D102690B68F3
:100830001A430261C2680B689A43C2604A68122A6E
:1008400007D1C2680B681A43C26002690B689A43F9
:100850000261426A0B689A434262826A0B689A4359
:100860008262C26A0B689A43C262026B0B689A4347
:10087000026381238A681A40812A03D1426A0B6885
:100880001A43426282238A681A40822A03D1826A0A
:100890000B681A43826284238A681A40842A03D12F
:1008A000C26A0B681A43C26288238A681A40882A7F
:1008B00021D1026B0B681A4302631CE002680B68CB
:1008C0009A4302604A68202A04D142680B689A431E
:1008D000426003E042680B681A434260064BCA68F4
:1008E0009A4204D182680B681A43826003E08268EE
:1008F0000B689A4382607047FFFF00000246106D4C
:100900000840002801D0012070470020FCE7012AA0
:1009100001D1C16500E08165704700001FB5104836
:10092000006B202108430E490863802002901220AA
:1009300001908815009069460A48FFF75FFF0A4852
:100940000390202001900001009069460548FFF7C0
:1009500055FF012040020349403188611FBD00005E
:100960000000014000040048FFFF0000F8B500202F
:100970000090012040021649C8610A20FFF716FFC7
:10098000012040021249886100BFFF210131104857
:100990004038FFF7B3FF0028F7D000200D4908606A
:1009A00000BFFF2101310A484038FFF7A7FF0128A7
:1009B000F7D008480068FFF71AFD0446064A074BBF
:1009C000FFF718FD0646FFF7C5FC00900098F8BD3C
:1009D0004004004810000020333333333333FB3FEF
:1009E00070B500240EE00021204600F0F9F8002543
:1009F00004E0002000F085F9681CC5B2802DF8DB0A
:100A0000601CC4B2082CEEDB70BD00001FB510489E
:100A1000006B102108430E490863802002902120BA
:100A20000190062000900020039069460920C0062E
:100A3000FFF7E4FE012202210920C006FFF767FF4D
:100A4000012204210920C006FFF761FF1FBD00003D
:100A50000000014070B5054600241FE080202041C1
:100A60002840002806D0012204210920C006FFF7F3
:100A70004EFF05E0002204210920C006FFF747FFD2
:100A8000012202210920C006FFF741FF00220221B6
:100A90000920C006FFF73BFF601CC4B2082CDDDB59
:100AA000012202210920C006FFF731FF00220221A6
:100AB0000920C006FFF72BFF70BD10B501220421ED
:100AC0000920C006FFF723FF012202210920C006EA
:100AD000FFF71DFF002204210920C006FFF717FFC2
:100AE000002202210920C006FFF711FF10BD10B53A
:100AF000002204210920C006FFF709FF012202217C
:100B00000920C006FFF703FF012204210920C006C7
:100B1000FFF7FDFE10BD70B5002407E0002500E0E2
:100B20006D1C7D20C0008542FAD3641C7D20C0006E
:100B30008442F3D3FFF76AFFAE2000F0D2F8D5204D
:100B400000F0CFF8802000F0CCF8A82000F0C9F821
:100B50003F2000F0C6F8D32000F0C3F8002000F0DA
:100B6000C0F8402000F0BDF8A12000F0BAF8C8207D
:100B700000F0B7F8DA2000F0B4F8122000F0B1F875
:100B8000812000F0AEF8CF2000F0ABF8D92000F0C3
:100B9000A8F8F12000F0A5F8DB2000F0A2F8302042
:100BA00000F09FF8A42000F09CF8A62000F099F82F
:100BB0008D2000F096F8142000F093F8AF2000F09C
:100BC00090F8FFF70DFF70BD10B50246012002E05E
:100BD0000346534318460B46491E002BF8D110BD5F
:100BE00070B505460C46B0212943084600F079F857
:100BF000F0212140091110221143084600F071F83C
:100C00002007000F00F06DF870BD0000F8B5054634
:100C10000E461746721ED206110E6A1E5206100E9E
:100C2000FFF7DEFF002409E0394620390901114AA7
:100C30008918085D00F065F8601CC4B2082CF3DB6D
:100C4000721ED206110E6A1E5200521CD0B2FFF75D
:100C5000C7FF00240BE0394620390901054A8A18EC
:100C600021460831505C00F04CF8601CC4B2082CDE
:100C7000F1DBF8BD04110000FFB583B00E46174646
:100C80001D46002417E0281B411E0A20FFF79CFF89
:100C9000014600903846FFF7ADFA0A210190FFF7B0
:100CA000A9FA303130190291C1B2029A0398FFF7C4
:100CB000ADFF601CC4B2AC42E5DB07B0F0BDF8B5D7
:100CC00007460E461546002407E02A5D3019C1B2DA
:100CD0003846FFF79BFF601CC4B2285D0028F4D1A2
:100CE000F8BD10B50446FFF7E8FE7820FFF7B2FE26
:100CF0000020FFF7AFFE2046FFF7ACFEFFF7F7FE40
:100D000010BD10B50446FFF7D8FE7820FFF7A2FE0D
:100D10004020FFF79FFE2046FFF79CFEFFF7E7FE0F
:100D200010BD0000002905D0054A526B0243044B58
:100D30005A6304E0024A526B8243014B5A63704784
:100D40000000014004490968044A1140044A891816
:100D50000143014A11607047000001401FFF00007D
:100D600000005A5AC1029322520212881143084AC3
:100D7000916111464968074A1143054A516000BF15
:100D8000034989690122D20311409142F8D1704789
:100D90000000014001005A5A04490968044A114000
:100DA000044A89180143014A11607047000001405C
:100DB000E7FF000000005A5AF0B58BB007460D4619
:100DC0001646002400200A900990254801460EC9C5
:100DD000C0680793069205910890142220491031AB
:100DE0006846FFF7BFF900BF08E0A00005A9085852
:100DF000A84201D90A9403E0601CC4B2042CF4D3C5
:100E000000BF284670430990002409E0A00069460D
:100E100009580998814201D9099403E0601CC4B2C1
:100E2000052CF3D300BF09984002072109030843AA
:100E3000310108430A998900084338430949886207
:100E400008464068084908430649486000BF05480D
:100E5000806A0121C90308408842F8D10BB0F0BD77
:100E6000E01000000000014004005A5A70B504462A
:100E70000C48006880B20C494018C008C0002043EC
:100E80000849086000F012F8054600F07BF80548B4
:100E900000684007400FA04201D0012070BD002033
:100EA000FCE700000000014000005A5AF8B5002598
:100EB000002700240026002000902D4800684707E6
:100EC0007F0F2B4880694004040F2948806A8007FF
:100ED000800F00902648806AC005C60E3B0000F0D7
:100EE000A9F805040C130E103400A000214A115873
:100EF0002148FFF77FF905462FE0204D2DE0204DDA
:100F00002BE00125ED0328E00098002804D00128FB
:100F100003D003280ED104E000BF184835464543EE
:100F200011E0A000134A11581348FFF763F970430A
:100F3000054608E0A0000F4A11580F48FFF75AF97C
:100F40007043054600BF00BF07E0A000094A1158E2
:100F50000948FFF74FF9054600BF00BF0448006885
:100F60000006410F2846C84005462846F8BD000047
:100F700000000140A0100000006CDC020024F4001E
:100F80002080000001490860704700000C0000202C
:100F90000348006803490978401801490860704710
:100FA0000000002008000020014802490860704746
:100FB00000127A000C00002010B5FFF7F5FF932116
:100FC000490209884805400D17498969C90AC902BB
:100FD0000143154A91619321490249888805800D92
:100FE0001146096A890A8902014311620520FFF747
:100FF000B9FE0020FFF7A6FE0020FFF7CDFE082275
:101000000A490320FFF7D8FE0748006B0221084376
:10101000054908630220FFF7DFFB0220FFF726FFE8
:101020000348FFF7AFFF10BD0000014000127A0037
:101030000090D00330B47446641E2578641CAB4223
:1010400004D3635D5B00E31830BC18471D46F8E726
:10105000FFF761FDFFF760FBFFF760FC0CA20121C9
:101060000846FFF72CFE0DA209210320FFF727FEFB
:101070000CE0FFF77BFC04460423224605210320F5
:10108000FFF7FAFDFF202D30FFF784FBF1E70000AA
:1010900044697374616E63653A0000006D6D000011
:1010A0000600000006000000060000000600000028
:1010B0000600000006000000010000000300000020
:1010C000020000000400000006000000080000000C
:1010D0000A0000000C0000000E00000010000000DC
:1010E000808D5B00001BB700002D310101366E01C1
:1010F00080A8120100366E0100512502006CDC024E
:1011000001A24A04000000000000000000000000EE
:1011100000000000000000F80000000000000033A4
:101120003000000000100C06100C0600000000004B
:101130000000000040C07840C0784000043F040434
:101140003F040400007088FC08300000001820FFF5
:10115000211E0000F008F000E018000000211C0330
:101160001E211E0000F00888700000001E212324AC
:101170001927211010160E000000000000000000CA
:1011800000000000000000E018040200000000075A
:101190001820400000020418E00000000040201861
:1011A00007000000404080F0804040000202010F34
:1011B00001020200000000F0000000000101011F18
:1011C00001010100000000000000000080B070007C
:1011D000000000000000000000000000000101010C
:1011E000010101010000000000000000003030009B
:1011F0000000000000000000806018040060180675
:101200000100000000E010080810E000000F1020AE
:1012100020100F00001010F8000000000020203FF8
:101220002020000000700808088870000030282482
:101230002221300000300888884830000018202023
:1012400020110E000000C02010F800000007042448
:10125000243F240000F8088888080800001921208D
:1012600020110E0000E0108888180000000F1120E7
:1012700020110E0000380808C83808000000003FA0
:10128000000000000070880808887000001C2221FF
:1012900021221C0000E010080810E00000003122AC
:1012A00022110F00000000C0C0000000000000304C
:1012B000300000000000008000000000000080609E
:1012C000000000000000804020100800000102041F
:1012D0000810200040404040404040000404040406
:1012E00004040400000810204080000000201008C2
:1012F00004020100007048080808F00000000030F7
:1013000036010000C030C828E810E0000718272484
:1013100023140B000000C038E0000000203C230232
:101320000227382008F8888888700000203F202095
:1013300020110E00C03008080808380007182020C7
:101340002010080008F808080810E000203F2020BE
:1013500020100F0008F88888E8081000203F20209F
:101360002320180008F88888E8081000203F200093
:1013700003000000C03008080838000007182020CB
:10138000221E020008F808000008F808203F21018A
:1013900001213F20000808F8080800000020203F35
:1013A0002020000000000808F8080800C0808080A5
:1013B0007F00000008F888C028180800203F20019E
:1013C0002638200008F8080000000000203F2020F8
:1013D0002020300008F8F800F8F80800203F003F0F
:1013E000003F200008F830C00008F808203F200027
:1013F00007183F00E01008080810E0000F10202038
:1014000020100F0008F808080808F000203F21010C
:1014100001010000E01008080810E0000F18242463
:1014200038504F0008F8888888887000203F2000D6
:10143000030C30200070880808083800003820218C
:1014400021221C00180808F8080818000000203F96
:101450002000000008F808000008F808001F2020FD
:1014600020201F000878880000C8380800000738CE
:101470000E010000F80800F80008F800033C07001F
:10148000073C0300081868808068180820302C0387
:10149000032C30200838C800C83808000000203F5E
:1014A0002000000010080808C8380800203826214D
:1014B00020201800000000FE020202000000007F51
:1014C00040404000000C30C000000000000000015F
:1014D0000638C00000020202FE000000004040404A
:1014E0007F0000000000040202020400000000006F
:1014F00000000000000000000000000080808080EC
:1015000080808080000202040000000000000000D3
:10151000000000000000808080800000001924226C
:1015200022223F2008F8008080000000003F1120A8
:1015300020110E000000008080800000000E1120AD
:1015400020201100000000808088F800000E11208B
:1015500020103F200000808080800000001F222299
:1015600022221300008080F0888888180020203F05
:10157000202000000000808080808000006B949418
:101580009493600008F8008080800000203F2100D4
:1015900000203F2000809898000000000020203F9D
:1015A00020200000000000809898000000C080808B
:1015B000807F000008F8000080808000203F240227
:1015C0002D302000000808F8000000000020203F17
:1015D000202000008080808080808000203F2000CC
:1015E0003F20003F8080008080800000203F21005D
:1015F00000203F200000808080800000001F20200D
:1016000020201F00808000808000000080FFA1203B
:1016100020110E000000008080808000000E11204C
:1016200020A0FF80808080008080800020203F21DB
:10163000200001000000808080808000003324248E
:1016400024241900008080E0808000000000001F3A
:10165000202000008080000000808000001F2020EB
:1016600020103F20808080000080808000010E30AC
:101670000806010080800080008080800F300C030D
:101680000C300F0000808000808080000020312E10
:101690000E312000808080000080808080818E70EC
:1016A0001806010000808080808080000021302C9E
:1016B0002221300000000000807C020200000000B7
:1016C000003F404000000000FF000000000000005C
:1016D000FF0000000002027C800000000040403F4C
:1016E00000000000000601010202040400000000E6
:1016F000000000000000F010101010FF101010107B
:10170000F000000000000F04040404FF04040404BB
:101710000F000000201008FC032020107F88888420
:1017200082E0000004040405040404FF040404042B
:1017300004040400000000000000C03FC0000000DE
:1017400000000000804020100C03000000030C107B
:10175000204080000000FE2222222222E2222222B9
:101760003E0000000000FF4121110101030D112185
:1017700041F100000000101010FF10101010FF10B9
:1017800010100000000484442417040404041724E7
:1017900044840400202424A4FE23222000F8080806
:1017A00008F8000010080601FF010600003F1010B5
:1017B000103F000000FE0212929292F29292921258
:1017C00002FE000000FF40484848484F484A4C4845
:1017D00040FF0000F417000000000020140000008B
:1017E0000401000008180000140000206404000038
:1017F00020010000000000000400000001000000C3
:0818000000127A000000000054
:04000005000000C136
:00000001FF
