Component: ARM Compiler 5.06 update 7 (build 960) Tool: armlink [4d3601]

==============================================================================

Image Symbol Table

    Local Symbols

    Symbol Name                              Value     Ov Type        Size  Object(Section)

    RESET                                    0x00000000   Section      192  startup_cw32f030.o(RESET)
    ../clib/microlib/division.c              0x00000000   Number         0  ldiv.o ABSOLUTE
    ../clib/microlib/division.c              0x00000000   Number         0  uldiv.o ABSOLUTE
    ../clib/microlib/division.c              0x00000000   Number         0  uidiv.o ABSOLUTE
    ../clib/microlib/init/entry.s            0x00000000   Number         0  entry5.o ABSOLUTE
    ../clib/microlib/init/entry.s            0x00000000   Number         0  entry11b.o ABSOLUTE
    ../clib/microlib/init/entry.s            0x00000000   Number         0  entry8a.o ABSOLUTE
    ../clib/microlib/init/entry.s            0x00000000   Number         0  entry11a.o ABSOLUTE
    ../clib/microlib/init/entry.s            0x00000000   Number         0  entry10b.o ABSOLUTE
    ../clib/microlib/init/entry.s            0x00000000   Number         0  entry8b.o ABSOLUTE
    ../clib/microlib/init/entry.s            0x00000000   Number         0  entry2.o ABSOLUTE
    ../clib/microlib/init/entry.s            0x00000000   Number         0  entry9a.o ABSOLUTE
    ../clib/microlib/init/entry.s            0x00000000   Number         0  entry9b.o ABSOLUTE
    ../clib/microlib/init/entry.s            0x00000000   Number         0  entry.o ABSOLUTE
    ../clib/microlib/init/entry.s            0x00000000   Number         0  entry10a.o ABSOLUTE
    ../clib/microlib/init/entry.s            0x00000000   Number         0  entry12b.o ABSOLUTE
    ../clib/microlib/init/entry.s            0x00000000   Number         0  entry12a.o ABSOLUTE
    ../clib/microlib/init/entry.s            0x00000000   Number         0  entry7b.o ABSOLUTE
    ../clib/microlib/init/entry.s            0x00000000   Number         0  entry7a.o ABSOLUTE
    ../clib/microlib/longlong.c              0x00000000   Number         0  llshl.o ABSOLUTE
    ../clib/microlib/longlong.c              0x00000000   Number         0  llsshr.o ABSOLUTE
    ../clib/microlib/longlong.c              0x00000000   Number         0  llushr.o ABSOLUTE
    ../clib/microlib/printf/printf.c         0x00000000   Number         0  printfb.o ABSOLUTE
    ../clib/microlib/printf/printf.c         0x00000000   Number         0  printf0.o ABSOLUTE
    ../clib/microlib/printf/printf.c         0x00000000   Number         0  printf1.o ABSOLUTE
    ../clib/microlib/printf/printf.c         0x00000000   Number         0  printf7.o ABSOLUTE
    ../clib/microlib/printf/printf.c         0x00000000   Number         0  printf2.o ABSOLUTE
    ../clib/microlib/printf/printf.c         0x00000000   Number         0  printfa.o ABSOLUTE
    ../clib/microlib/printf/printf.c         0x00000000   Number         0  printf3.o ABSOLUTE
    ../clib/microlib/printf/printf.c         0x00000000   Number         0  printf8.o ABSOLUTE
    ../clib/microlib/printf/printf.c         0x00000000   Number         0  printf6.o ABSOLUTE
    ../clib/microlib/printf/printf.c         0x00000000   Number         0  printf4.o ABSOLUTE
    ../clib/microlib/printf/printf.c         0x00000000   Number         0  printf5.o ABSOLUTE
    ../clib/microlib/printf/stubs.s          0x00000000   Number         0  stubs.o ABSOLUTE
    ../clib/microlib/stdio/streams.c         0x00000000   Number         0  stdout.o ABSOLUTE
    ../clib/microlib/string/memcpy.c         0x00000000   Number         0  memcpya.o ABSOLUTE
    ../clib/microlib/string/memcpy.c         0x00000000   Number         0  memcpyb.o ABSOLUTE
    ../clib/microlib/stubs.s                 0x00000000   Number         0  iusefp.o ABSOLUTE
    ../fplib/microlib/f2d.c                  0x00000000   Number         0  f2d.o ABSOLUTE
    ../fplib/microlib/fpadd.c                0x00000000   Number         0  dadd.o ABSOLUTE
    ../fplib/microlib/fpadd.c                0x00000000   Number         0  fadd.o ABSOLUTE
    ../fplib/microlib/fpdiv.c                0x00000000   Number         0  fdiv.o ABSOLUTE
    ../fplib/microlib/fpdiv.c                0x00000000   Number         0  ddiv.o ABSOLUTE
    ../fplib/microlib/fpepilogue.c           0x00000000   Number         0  depilogue.o ABSOLUTE
    ../fplib/microlib/fpepilogue.c           0x00000000   Number         0  fepilogue.o ABSOLUTE
    ../fplib/microlib/fpfix.c                0x00000000   Number         0  dfixul.o ABSOLUTE
    ../fplib/microlib/fpfix.c                0x00000000   Number         0  dfixui.o ABSOLUTE
    ../fplib/microlib/fpfix.c                0x00000000   Number         0  ffixui.o ABSOLUTE
    ../fplib/microlib/fpflt.c                0x00000000   Number         0  dfltui.o ABSOLUTE
    ../fplib/microlib/fpflt.c                0x00000000   Number         0  ffltui.o ABSOLUTE
    ../fplib/microlib/fpflt.c                0x00000000   Number         0  fflti.o ABSOLUTE
    ../fplib/microlib/fpmul.c                0x00000000   Number         0  fmul.o ABSOLUTE
    ../fplib/microlib/fpmul.c                0x00000000   Number         0  dmul.o ABSOLUTE
    ../fplib/microlib/fpscalb.c              0x00000000   Number         0  fscalb.o ABSOLUTE
    ../fplib/microlib/fpscalb.c              0x00000000   Number         0  dscalb.o ABSOLUTE
    ..\IdeSupport\MDK\startup_cw32f030.s     0x00000000   Number         0  startup_cw32f030.o ABSOLUTE
    ..\Libraries\src\cw32f030_adc.c          0x00000000   Number         0  cw32f030_adc.o ABSOLUTE
    ..\Libraries\src\cw32f030_atim.c         0x00000000   Number         0  cw32f030_atim.o ABSOLUTE
    ..\Libraries\src\cw32f030_btim.c         0x00000000   Number         0  cw32f030_btim.o ABSOLUTE
    ..\Libraries\src\cw32f030_crc.c          0x00000000   Number         0  cw32f030_crc.o ABSOLUTE
    ..\Libraries\src\cw32f030_dma.c          0x00000000   Number         0  cw32f030_dma.o ABSOLUTE
    ..\Libraries\src\cw32f030_flash.c        0x00000000   Number         0  cw32f030_flash.o ABSOLUTE
    ..\Libraries\src\cw32f030_gpio.c         0x00000000   Number         0  cw32f030_gpio.o ABSOLUTE
    ..\Libraries\src\cw32f030_gtim.c         0x00000000   Number         0  cw32f030_gtim.o ABSOLUTE
    ..\Libraries\src\cw32f030_rcc.c          0x00000000   Number         0  cw32f030_rcc.o ABSOLUTE
    ..\Libraries\src\cw32f030_spi.c          0x00000000   Number         0  cw32f030_spi.o ABSOLUTE
    ..\Libraries\src\cw32f030_uart.c         0x00000000   Number         0  cw32f030_uart.o ABSOLUTE
    ..\Libraries\src\system_cw32f030.c       0x00000000   Number         0  system_cw32f030.o ABSOLUTE
    ..\MyDriver\src\InputCapture.c           0x00000000   Number         0  inputcapture.o ABSOLUTE
    ..\MyDriver\src\MotorControl.c           0x00000000   Number         0  motorcontrol.o ABSOLUTE
    ..\MyDriver\src\delay.c                  0x00000000   Number         0  delay.o ABSOLUTE
    ..\MyDriver\src\oled.c                   0x00000000   Number         0  oled.o ABSOLUTE
    ..\MyDriver\src\sensorlessP.c            0x00000000   Number         0  sensorlessp.o ABSOLUTE
    ..\MyDriver\src\uart.c                   0x00000000   Number         0  uart.o ABSOLUTE
    ..\USER\src\interrupts_cw32f030.c        0x00000000   Number         0  interrupts_cw32f030.o ABSOLUTE
    ..\USER\src\main.c                       0x00000000   Number         0  main.o ABSOLUTE
    ..\\Libraries\\src\\cw32f030_adc.c       0x00000000   Number         0  cw32f030_adc.o ABSOLUTE
    ..\\Libraries\\src\\cw32f030_atim.c      0x00000000   Number         0  cw32f030_atim.o ABSOLUTE
    ..\\Libraries\\src\\cw32f030_btim.c      0x00000000   Number         0  cw32f030_btim.o ABSOLUTE
    ..\\Libraries\\src\\cw32f030_crc.c       0x00000000   Number         0  cw32f030_crc.o ABSOLUTE
    ..\\Libraries\\src\\cw32f030_dma.c       0x00000000   Number         0  cw32f030_dma.o ABSOLUTE
    ..\\Libraries\\src\\cw32f030_flash.c     0x00000000   Number         0  cw32f030_flash.o ABSOLUTE
    ..\\Libraries\\src\\cw32f030_gpio.c      0x00000000   Number         0  cw32f030_gpio.o ABSOLUTE
    ..\\Libraries\\src\\cw32f030_gtim.c      0x00000000   Number         0  cw32f030_gtim.o ABSOLUTE
    ..\\Libraries\\src\\cw32f030_rcc.c       0x00000000   Number         0  cw32f030_rcc.o ABSOLUTE
    ..\\Libraries\\src\\cw32f030_spi.c       0x00000000   Number         0  cw32f030_spi.o ABSOLUTE
    ..\\Libraries\\src\\cw32f030_uart.c      0x00000000   Number         0  cw32f030_uart.o ABSOLUTE
    ..\\Libraries\\src\\system_cw32f030.c    0x00000000   Number         0  system_cw32f030.o ABSOLUTE
    ..\\MyDriver\\src\\InputCapture.c        0x00000000   Number         0  inputcapture.o ABSOLUTE
    ..\\MyDriver\\src\\MotorControl.c        0x00000000   Number         0  motorcontrol.o ABSOLUTE
    ..\\MyDriver\\src\\delay.c               0x00000000   Number         0  delay.o ABSOLUTE
    ..\\MyDriver\\src\\oled.c                0x00000000   Number         0  oled.o ABSOLUTE
    ..\\MyDriver\\src\\uart.c                0x00000000   Number         0  uart.o ABSOLUTE
    ..\\USER\\src\\interrupts_cw32f030.c     0x00000000   Number         0  interrupts_cw32f030.o ABSOLUTE
    ..\\USER\\src\\main.c                    0x00000000   Number         0  main.o ABSOLUTE
    cdcmple.s                                0x00000000   Number         0  cdcmple.o ABSOLUTE
    cdrcmple.s                               0x00000000   Number         0  cdrcmple.o ABSOLUTE
    dc.s                                     0x00000000   Number         0  dc.o ABSOLUTE
    handlers.s                               0x00000000   Number         0  handlers.o ABSOLUTE
    init.s                                   0x00000000   Number         0  init.o ABSOLUTE
    .ARM.Collect$$$$00000000                 0x000000c0   Section        0  entry.o(.ARM.Collect$$$$00000000)
    .ARM.Collect$$$$00000001                 0x000000c0   Section        4  entry2.o(.ARM.Collect$$$$00000001)
    .ARM.Collect$$$$00000004                 0x000000c4   Section        4  entry5.o(.ARM.Collect$$$$00000004)
    .ARM.Collect$$$$00000008                 0x000000c8   Section        0  entry7b.o(.ARM.Collect$$$$00000008)
    .ARM.Collect$$$$0000000A                 0x000000c8   Section        0  entry8b.o(.ARM.Collect$$$$0000000A)
    .ARM.Collect$$$$0000000B                 0x000000c8   Section        8  entry9a.o(.ARM.Collect$$$$0000000B)
    .ARM.Collect$$$$0000000E                 0x000000d0   Section        4  entry12b.o(.ARM.Collect$$$$0000000E)
    .ARM.Collect$$$$0000000F                 0x000000d4   Section        0  entry10a.o(.ARM.Collect$$$$0000000F)
    .ARM.Collect$$$$00000011                 0x000000d4   Section        0  entry11a.o(.ARM.Collect$$$$00000011)
    .ARM.Collect$$$$00002712                 0x000000d4   Section        4  entry2.o(.ARM.Collect$$$$00002712)
    __lit__00000000                          0x000000d4   Data           4  entry2.o(.ARM.Collect$$$$00002712)
    .text                                    0x000000d8   Section       40  startup_cw32f030.o(.text)
    .text                                    0x00000100   Section        0  uidiv.o(.text)
    .text                                    0x0000012c   Section        0  memcpya.o(.text)
    .text                                    0x00000150   Section        0  fadd.o(.text)
    .text                                    0x00000202   Section        0  fmul.o(.text)
    .text                                    0x0000027c   Section        0  fdiv.o(.text)
    .text                                    0x000002f8   Section        0  fscalb.o(.text)
    .text                                    0x00000310   Section        0  dadd.o(.text)
    .text                                    0x00000478   Section        0  dmul.o(.text)
    .text                                    0x00000548   Section        0  ddiv.o(.text)
    .text                                    0x00000638   Section        0  dscalb.o(.text)
    .text                                    0x00000664   Section        0  fflti.o(.text)
    .text                                    0x0000067a   Section        0  ffltui.o(.text)
    .text                                    0x00000688   Section        0  dfltui.o(.text)
    .text                                    0x000006a4   Section        0  ffixui.o(.text)
    .text                                    0x000006cc   Section        0  dfixui.o(.text)
    .text                                    0x00000708   Section        0  f2d.o(.text)
    .text                                    0x00000730   Section       40  cdcmple.o(.text)
    .text                                    0x00000758   Section       40  cdrcmple.o(.text)
    .text                                    0x00000780   Section        0  llshl.o(.text)
    .text                                    0x000007a0   Section        0  llushr.o(.text)
    .text                                    0x000007c2   Section        0  llsshr.o(.text)
    .text                                    0x000007e8   Section        0  iusefp.o(.text)
    .text                                    0x000007e8   Section        0  fepilogue.o(.text)
    .text                                    0x0000086a   Section        0  depilogue.o(.text)
    .text                                    0x00000928   Section       36  init.o(.text)
    RAMCODE                                  0x0000094c   Section        0  cw32f030_btim.o(RAMCODE)
    i.ADCDMA_IRQHander                       0x00000954   Section        0  motorcontrol.o(i.ADCDMA_IRQHander)
    i.ADC_Enable                             0x000009ec   Section        0  cw32f030_adc.o(i.ADC_Enable)
    i.ADC_GetITStatus                        0x00000a08   Section        0  cw32f030_adc.o(i.ADC_GetITStatus)
    i.ADC_IRQHandler                         0x00000a1c   Section        0  interrupts_cw32f030.o(i.ADC_IRQHandler)
    i.ADC_Init                               0x00000a20   Section        0  cw32f030_adc.o(i.ADC_Init)
    i.ATIM_ClearITPendingBit                 0x00000a94   Section        0  cw32f030_atim.o(i.ATIM_ClearITPendingBit)
    i.ATIM_Cmd                               0x00000aa0   Section        0  cw32f030_atim.o(i.ATIM_Cmd)
    i.ATIM_CtrlPWMOutputs                    0x00000ab8   Section        0  cw32f030_atim.o(i.ATIM_CtrlPWMOutputs)
    i.ATIM_GetITStatus                       0x00000ad0   Section        0  cw32f030_atim.o(i.ATIM_GetITStatus)
    i.ATIM_IRQHandler                        0x00000ae4   Section        0  interrupts_cw32f030.o(i.ATIM_IRQHandler)
    i.ATIM_ITConfig                          0x00000aec   Section        0  cw32f030_atim.o(i.ATIM_ITConfig)
    i.ATIM_Init                              0x00000b08   Section        0  cw32f030_atim.o(i.ATIM_Init)
    i.ATIM_OC1AInit                          0x00000b6c   Section        0  cw32f030_atim.o(i.ATIM_OC1AInit)
    i.ATIM_OC2AInit                          0x00000bd0   Section        0  cw32f030_atim.o(i.ATIM_OC2AInit)
    i.ATIM_OC3AInit                          0x00000c3c   Section        0  cw32f030_atim.o(i.ATIM_OC3AInit)
    i.ATIM_OC4Init                           0x00000ca8   Section        0  cw32f030_atim.o(i.ATIM_OC4Init)
    i.ATIM_PWMOutputConfig                   0x00000ce8   Section        0  cw32f030_atim.o(i.ATIM_PWMOutputConfig)
    i.ATIM_SetCompare1A                      0x00000d20   Section        0  cw32f030_atim.o(i.ATIM_SetCompare1A)
    i.ATIM_SetCompare2A                      0x00000d2c   Section        0  cw32f030_atim.o(i.ATIM_SetCompare2A)
    i.ATIM_SetCompare3A                      0x00000d38   Section        0  cw32f030_atim.o(i.ATIM_SetCompare3A)
    i.ATIM_SetCompare4                       0x00000d44   Section        0  cw32f030_atim.o(i.ATIM_SetCompare4)
    i.AWT_IRQHandler                         0x00000d50   Section        0  interrupts_cw32f030.o(i.AWT_IRQHandler)
    i.BLDC_Start                             0x00000d54   Section        0  motorcontrol.o(i.BLDC_Start)
    i.BLDC_Stop                              0x00000d80   Section        0  motorcontrol.o(i.BLDC_Stop)
    i.BTIM1_IRQHandler                       0x00000d88   Section        0  interrupts_cw32f030.o(i.BTIM1_IRQHandler)
    i.BTIM2_IRQHandler                       0x00000d90   Section        0  interrupts_cw32f030.o(i.BTIM2_IRQHandler)
    i.BTIM3_IRQHandler                       0x00000d92   Section        0  interrupts_cw32f030.o(i.BTIM3_IRQHandler)
    i.BTIM_Cmd                               0x00000d9a   Section        0  cw32f030_btim.o(i.BTIM_Cmd)
    i.BTIM_GetCounter                        0x00000db2   Section        0  cw32f030_btim.o(i.BTIM_GetCounter)
    i.BTIM_GetITStatus                       0x00000db8   Section        0  cw32f030_btim.o(i.BTIM_GetITStatus)
    i.BTIM_ITConfig                          0x00000dc6   Section        0  cw32f030_btim.o(i.BTIM_ITConfig)
    i.BTIM_SetAutoreload                     0x00000dda   Section        0  cw32f030_btim.o(i.BTIM_SetAutoreload)
    i.BTIM_SetCounter                        0x00000dde   Section        0  cw32f030_btim.o(i.BTIM_SetCounter)
    i.BTIM_TimeBaseInit                      0x00000de4   Section        0  cw32f030_btim.o(i.BTIM_TimeBaseInit)
    i.CommutationDelayTIM_IRQHander          0x00000e04   Section        0  motorcontrol.o(i.CommutationDelayTIM_IRQHander)
    i.DMACH1_IRQHandler                      0x00000e78   Section        0  interrupts_cw32f030.o(i.DMACH1_IRQHandler)
    i.DMACH23_IRQHandler                     0x00000e80   Section        0  interrupts_cw32f030.o(i.DMACH23_IRQHandler)
    i.DMACH45_IRQHandler                     0x00000e82   Section        0  interrupts_cw32f030.o(i.DMACH45_IRQHandler)
    i.DMA_ClearITPendingBit                  0x00000e84   Section        0  cw32f030_dma.o(i.DMA_ClearITPendingBit)
    i.DMA_Cmd                                0x00000e94   Section        0  cw32f030_dma.o(i.DMA_Cmd)
    i.DMA_GetITStatus                        0x00000eac   Section        0  cw32f030_dma.o(i.DMA_GetITStatus)
    i.DMA_ITConfig                           0x00000ec0   Section        0  cw32f030_dma.o(i.DMA_ITConfig)
    i.DMA_Init                               0x00000ed4   Section        0  cw32f030_dma.o(i.DMA_Init)
    i.FAULT_IRQHandler                       0x00000f12   Section        0  interrupts_cw32f030.o(i.FAULT_IRQHandler)
    i.FLASHRAM_IRQHandler                    0x00000f14   Section        0  interrupts_cw32f030.o(i.FLASHRAM_IRQHandler)
    i.FLASH_SetLatency                       0x00000f18   Section        0  cw32f030_flash.o(i.FLASH_SetLatency)
    i.GPIOA_IRQHandler                       0x00000f44   Section        0  interrupts_cw32f030.o(i.GPIOA_IRQHandler)
    i.GPIOB_IRQHandler                       0x00000f46   Section        0  interrupts_cw32f030.o(i.GPIOB_IRQHandler)
    i.GPIOC_IRQHandler                       0x00000f48   Section        0  interrupts_cw32f030.o(i.GPIOC_IRQHandler)
    i.GPIOF_IRQHandler                       0x00000f4a   Section        0  interrupts_cw32f030.o(i.GPIOF_IRQHandler)
    i.GPIO_Init                              0x00000f4c   Section        0  cw32f030_gpio.o(i.GPIO_Init)
    i.GPIO_ReadPin                           0x00001040   Section        0  cw32f030_gpio.o(i.GPIO_ReadPin)
    i.GTIM1_IRQHandler                       0x0000104e   Section        0  interrupts_cw32f030.o(i.GTIM1_IRQHandler)
    i.GTIM2_IRQHandler                       0x00001050   Section        0  interrupts_cw32f030.o(i.GTIM2_IRQHandler)
    i.GTIM3_IRQHandler                       0x00001052   Section        0  interrupts_cw32f030.o(i.GTIM3_IRQHandler)
    i.GTIM4_IRQHandler                       0x00001054   Section        0  interrupts_cw32f030.o(i.GTIM4_IRQHandler)
    i.GTIM_ClearITPendingBit                 0x0000105c   Section        0  cw32f030_gtim.o(i.GTIM_ClearITPendingBit)
    i.GTIM_Cmd                               0x00001068   Section        0  cw32f030_gtim.o(i.GTIM_Cmd)
    i.GTIM_GetCapture1                       0x0000107e   Section        0  cw32f030_gtim.o(i.GTIM_GetCapture1)
    i.GTIM_GetITStatus                       0x00001088   Section        0  cw32f030_gtim.o(i.GTIM_GetITStatus)
    i.GTIM_ICInit                            0x0000109c   Section        0  cw32f030_gtim.o(i.GTIM_ICInit)
    i.GTIM_ITConfig                          0x000010d0   Section        0  cw32f030_gtim.o(i.GTIM_ITConfig)
    i.GTIM_TimeBaseInit                      0x000010ec   Section        0  cw32f030_gtim.o(i.GTIM_TimeBaseInit)
    i.HardFault_Handler                      0x00001120   Section        0  interrupts_cw32f030.o(i.HardFault_Handler)
    i.I2C1_IRQHandler                        0x00001122   Section        0  interrupts_cw32f030.o(i.I2C1_IRQHandler)
    i.I2C2_IRQHandler                        0x00001124   Section        0  interrupts_cw32f030.o(i.I2C2_IRQHandler)
    i.InputCapture_GetPulseWidth             0x00001128   Section        0  inputcapture.o(i.InputCapture_GetPulseWidth)
    i.InputCapture_IRQHander                 0x00001134   Section        0  inputcapture.o(i.InputCapture_IRQHander)
    i.InputCapture_Init                      0x000011b8   Section        0  inputcapture.o(i.InputCapture_Init)
    i.LVD_IRQHandler                         0x000011c4   Section        0  interrupts_cw32f030.o(i.LVD_IRQHandler)
    i.MCU_Init                               0x000011c6   Section        0  main.o(i.MCU_Init)
    i.Master_SendCmd                         0x000011e4   Section        0  oled.o(i.Master_SendCmd)
    i.Master_SendData                        0x0000122c   Section        0  oled.o(i.Master_SendData)
    i.MotorControl_AnalyseAdcData            0x00001274   Section        0  motorcontrol.o(i.MotorControl_AnalyseAdcData)
    MotorControl_AnalyseAdcData              0x00001275   Thumb Code   190  motorcontrol.o(i.MotorControl_AnalyseAdcData)
    i.MotorControl_Commutation               0x00001344   Section        0  motorcontrol.o(i.MotorControl_Commutation)
    MotorControl_Commutation                 0x00001345   Thumb Code   226  motorcontrol.o(i.MotorControl_Commutation)
    i.MotorControl_GetDutyCycle              0x0000143c   Section        0  motorcontrol.o(i.MotorControl_GetDutyCycle)
    i.MotorControl_GetSpeed                  0x00001448   Section        0  motorcontrol.o(i.MotorControl_GetSpeed)
    i.MotorControl_GetState                  0x00001454   Section        0  motorcontrol.o(i.MotorControl_GetState)
    i.MotorControl_Init                      0x00001460   Section        0  motorcontrol.o(i.MotorControl_Init)
    i.MotorControl_SetClockwise              0x0000148c   Section        0  motorcontrol.o(i.MotorControl_SetClockwise)
    i.MotorControl_SetCounterclockwise       0x00001498   Section        0  motorcontrol.o(i.MotorControl_SetCounterclockwise)
    i.MotorControl_SetDutyCrcle              0x000014a4   Section        0  motorcontrol.o(i.MotorControl_SetDutyCrcle)
    i.NMI_Handler                            0x000015a8   Section        0  interrupts_cw32f030.o(i.NMI_Handler)
    i.OLED_Clear                             0x000015ac   Section        0  oled.o(i.OLED_Clear)
    i.OLED_DrawPoint                         0x000015d8   Section        0  oled.o(i.OLED_DrawPoint)
    i.OLED_Init                              0x00001608   Section        0  oled.o(i.OLED_Init)
    i.OLED_Pow                               0x000016e8   Section        0  oled.o(i.OLED_Pow)
    i.OLED_Refresh                           0x000016fc   Section        0  oled.o(i.OLED_Refresh)
    i.OLED_ShowChar                          0x0000173c   Section        0  oled.o(i.OLED_ShowChar)
    i.OLED_ShowNum                           0x00001808   Section        0  oled.o(i.OLED_ShowNum)
    i.OLED_ShowString                        0x0000187e   Section        0  oled.o(i.OLED_ShowString)
    i.PWMTIM_IRQHandler                      0x000018b8   Section        0  motorcontrol.o(i.PWMTIM_IRQHandler)
    i.PendSV_Handler                         0x000018d0   Section        0  interrupts_cw32f030.o(i.PendSV_Handler)
    i.RCC_AHBPeriphClk_Enable                0x000018d4   Section        0  cw32f030_rcc.o(i.RCC_AHBPeriphClk_Enable)
    i.RCC_APBPeriphClk_Enable1               0x000018f0   Section        0  cw32f030_rcc.o(i.RCC_APBPeriphClk_Enable1)
    i.RCC_APBPeriphClk_Enable2               0x0000190c   Section        0  cw32f030_rcc.o(i.RCC_APBPeriphClk_Enable2)
    i.RCC_HCLKPRS_Config                     0x00001928   Section        0  cw32f030_rcc.o(i.RCC_HCLKPRS_Config)
    i.RCC_HSI_Enable                         0x00001948   Section        0  cw32f030_rcc.o(i.RCC_HSI_Enable)
    i.RCC_IRQHandler                         0x00001970   Section        0  interrupts_cw32f030.o(i.RCC_IRQHandler)
    i.RCC_PCLKPRS_Config                     0x00001974   Section        0  cw32f030_rcc.o(i.RCC_PCLKPRS_Config)
    i.RCC_PLL_Enable                         0x00001994   Section        0  cw32f030_rcc.o(i.RCC_PLL_Enable)
    i.RCC_SysClk_Switch                      0x00001a24   Section        0  cw32f030_rcc.o(i.RCC_SysClk_Switch)
    i.RCC_Sysctrl_GetHClkFreq                0x00001a5c   Section        0  cw32f030_rcc.o(i.RCC_Sysctrl_GetHClkFreq)
    i.RCC_Sysctrl_GetPClkFreq                0x00001af4   Section        0  cw32f030_rcc.o(i.RCC_Sysctrl_GetPClkFreq)
    i.RCC_SystemCoreClockUpdate              0x00001b0c   Section        0  cw32f030_rcc.o(i.RCC_SystemCoreClockUpdate)
    i.RTC_IRQHandler                         0x00001b18   Section        0  interrupts_cw32f030.o(i.RTC_IRQHandler)
    i.SPI1_IRQHandler                        0x00001b1a   Section        0  interrupts_cw32f030.o(i.SPI1_IRQHandler)
    i.SPI2_IRQHandler                        0x00001b1c   Section        0  interrupts_cw32f030.o(i.SPI2_IRQHandler)
    i.SPI_Cmd                                0x00001b1e   Section        0  cw32f030_spi.o(i.SPI_Cmd)
    i.SPI_GetFlagStatus                      0x00001b2e   Section        0  cw32f030_spi.o(i.SPI_GetFlagStatus)
    i.SPI_Init                               0x00001b3c   Section        0  cw32f030_spi.o(i.SPI_Init)
    i.SPI_NSSInternalSoftwareConfig          0x00001b70   Section        0  cw32f030_spi.o(i.SPI_NSSInternalSoftwareConfig)
    i.SVC_Handler                            0x00001b74   Section        0  interrupts_cw32f030.o(i.SVC_Handler)
    i.SensorlessMotor_Start                  0x00001b78   Section        0  motorcontrol.o(i.SensorlessMotor_Start)
    SensorlessMotor_Start                    0x00001b79   Thumb Code   152  motorcontrol.o(i.SensorlessMotor_Start)
    i.SensorlessMotor_Stop                   0x00001c1c   Section        0  motorcontrol.o(i.SensorlessMotor_Stop)
    SensorlessMotor_Stop                     0x00001c1d   Thumb Code    30  motorcontrol.o(i.SensorlessMotor_Stop)
    i.SysTick_Handler                        0x00001c40   Section        0  delay.o(i.SysTick_Handler)
    i.SysTick_Init                           0x00001c44   Section        0  delay.o(i.SysTick_Init)
    i.SystemCoreClockUpdate                  0x00001c84   Section        0  system_cw32f030.o(i.SystemCoreClockUpdate)
    i.SystemInit                             0x00001c94   Section        0  system_cw32f030.o(i.SystemInit)
    i.SystemRCC_Init                         0x00001cc8   Section        0  main.o(i.SystemRCC_Init)
    i.Systick_AccurateDelayMs                0x00001d08   Section        0  delay.o(i.Systick_AccurateDelayMs)
    i.Systick_AccurateDelayUs                0x00001d88   Section        0  delay.o(i.Systick_AccurateDelayUs)
    i.TickTIM_IRQHander                      0x00001e08   Section        0  motorcontrol.o(i.TickTIM_IRQHander)
    i.UART1_IRQHandler                       0x00001e7c   Section        0  interrupts_cw32f030.o(i.UART1_IRQHandler)
    i.UART2_IRQHandler                       0x00001e7e   Section        0  interrupts_cw32f030.o(i.UART2_IRQHandler)
    i.UART3_IRQHandler                       0x00001e80   Section        0  interrupts_cw32f030.o(i.UART3_IRQHandler)
    i.USART_GetFlagStatus                    0x00001e82   Section        0  cw32f030_uart.o(i.USART_GetFlagStatus)
    i.USART_Init                             0x00001e90   Section        0  cw32f030_uart.o(i.USART_Init)
    i.USART_SendData_8bit                    0x00001fb8   Section        0  cw32f030_uart.o(i.USART_SendData_8bit)
    i.VC1_IRQHandler                         0x00001fbc   Section        0  interrupts_cw32f030.o(i.VC1_IRQHandler)
    i.VC2_IRQHandler                         0x00001fbe   Section        0  interrupts_cw32f030.o(i.VC2_IRQHandler)
    i.WDT_IRQHandler                         0x00001fc0   Section        0  interrupts_cw32f030.o(i.WDT_IRQHandler)
    i._ADC_Init_                             0x00001fc4   Section        0  motorcontrol.o(i._ADC_Init_)
    _ADC_Init_                               0x00001fc5   Thumb Code    68  motorcontrol.o(i._ADC_Init_)
    i._DMA_Init_                             0x0000200c   Section        0  motorcontrol.o(i._DMA_Init_)
    _DMA_Init_                               0x0000200d   Thumb Code   240  motorcontrol.o(i._DMA_Init_)
    i._GPIO_Init_                            0x0000210c   Section        0  motorcontrol.o(i._GPIO_Init_)
    _GPIO_Init_                              0x0000210d   Thumb Code   130  motorcontrol.o(i._GPIO_Init_)
    i._GPIO_Init_                            0x0000219c   Section        0  inputcapture.o(i._GPIO_Init_)
    _GPIO_Init_                              0x0000219d   Thumb Code    50  inputcapture.o(i._GPIO_Init_)
    i._GPIO_Init_                            0x000021d4   Section        0  oled.o(i._GPIO_Init_)
    _GPIO_Init_                              0x000021d5   Thumb Code   146  oled.o(i._GPIO_Init_)
    i._SPI_Init_                             0x00002270   Section        0  oled.o(i._SPI_Init_)
    _SPI_Init_                               0x00002271   Thumb Code    72  oled.o(i._SPI_Init_)
    i._TIM_Init_                             0x000022bc   Section        0  motorcontrol.o(i._TIM_Init_)
    _TIM_Init_                               0x000022bd   Thumb Code   332  motorcontrol.o(i._TIM_Init_)
    i._TIM_Init_                             0x00002420   Section        0  inputcapture.o(i._TIM_Init_)
    _TIM_Init_                               0x00002421   Thumb Code   112  inputcapture.o(i._TIM_Init_)
    i.__0printf$1                            0x000024a0   Section        0  printf1.o(i.__0printf$1)
    i.__ARM_clz                              0x000024c0   Section        0  depilogue.o(i.__ARM_clz)
    i.__ARM_common_switch8                   0x000024ee   Section        0  cw32f030_rcc.o(i.__ARM_common_switch8)
    i.__NVIC_EnableIRQ                       0x00002508   Section        0  motorcontrol.o(i.__NVIC_EnableIRQ)
    __NVIC_EnableIRQ                         0x00002509   Thumb Code    18  motorcontrol.o(i.__NVIC_EnableIRQ)
    i.__NVIC_SetPriority                     0x00002520   Section        0  motorcontrol.o(i.__NVIC_SetPriority)
    __NVIC_SetPriority                       0x00002521   Thumb Code    60  motorcontrol.o(i.__NVIC_SetPriority)
    i.__scatterload_copy                     0x00002564   Section       14  handlers.o(i.__scatterload_copy)
    i.__scatterload_null                     0x00002572   Section        2  handlers.o(i.__scatterload_null)
    i.__scatterload_zeroinit                 0x00002574   Section       14  handlers.o(i.__scatterload_zeroinit)
    i._printf_core                           0x00002584   Section        0  printf1.o(i._printf_core)
    _printf_core                             0x00002585   Thumb Code   332  printf1.o(i._printf_core)
    i.fputc                                  0x000026d4   Section        0  uart.o(i.fputc)
    i.led_init                               0x000026f8   Section        0  main.o(i.led_init)
    i.main                                   0x00002748   Section        0  main.o(i.main)
    i.uart_init                              0x000029d0   Section        0  uart.o(i.uart_init)
    .constdata                               0x00002a58   Section       18  motorcontrol.o(.constdata)
    .constdata                               0x00002a6a   Section       64  sensorlessp.o(.constdata)
    .constdata                               0x00002aaa   Section     1520  oled.o(.constdata)
    .constdata                               0x0000309c   Section      100  cw32f030_rcc.o(.constdata)
    .data                                    0x20000000   Section       38  motorcontrol.o(.data)
    motor_dir                                0x20000000   Data           1  motorcontrol.o(.data)
    adc_state                                0x20000001   Data           1  motorcontrol.o(.data)
    duty_crcle                               0x20000002   Data           1  motorcontrol.o(.data)
    pole_pairs                               0x20000003   Data           1  motorcontrol.o(.data)
    motor_state                              0x20000004   Data           1  motorcontrol.o(.data)
    tick_counter                             0x20000005   Data           1  motorcontrol.o(.data)
    adc_start_pos                            0x20000006   Data           1  motorcontrol.o(.data)
    zero_point_flag                          0x20000007   Data           1  motorcontrol.o(.data)
    start_duty_crcle                         0x20000008   Data           1  motorcontrol.o(.data)
    commutation_state                        0x20000009   Data           1  motorcontrol.o(.data)
    motor_step                               0x2000000a   Data           1  motorcontrol.o(.data)
    zero_point_counter                       0x2000000b   Data           1  motorcontrol.o(.data)
    zero_point_check_counter                 0x2000000c   Data           1  motorcontrol.o(.data)
    interval_counter                         0x2000000d   Data           1  motorcontrol.o(.data)
    step_time                                0x2000000e   Data           2  motorcontrol.o(.data)
    pwm_tim_reload_value                     0x20000010   Data           2  motorcontrol.o(.data)
    pwm_tim_compare_value                    0x20000012   Data           2  motorcontrol.o(.data)
    motor_speed                              0x20000014   Data           4  motorcontrol.o(.data)
    step_counter                             0x20000018   Data           4  motorcontrol.o(.data)
    adc_start_moment_ratio                   0x2000001c   Data           4  motorcontrol.o(.data)
    adc_channel                              0x20000020   Data           6  motorcontrol.o(.data)
    .data                                    0x20000028   Section       12  inputcapture.o(.data)
    pin_state                                0x20000028   Data           1  inputcapture.o(.data)
    counter                                  0x20000029   Data           1  inputcapture.o(.data)
    start_time                               0x2000002a   Data           2  inputcapture.o(.data)
    end_start                                0x2000002c   Data           2  inputcapture.o(.data)
    pulse_width                              0x20000030   Data           4  inputcapture.o(.data)
    .data                                    0x20000034   Section        4  delay.o(.data)
    cycle_count                              0x20000034   Data           4  delay.o(.data)
    .data                                    0x20000038   Section        4  system_cw32f030.o(.data)
    .data                                    0x2000003c   Section        4  stdout.o(.data)
    .bss                                     0x20000040   Section       12  motorcontrol.o(.bss)
    adc_data                                 0x20000040   Data          12  motorcontrol.o(.bss)
    .bss                                     0x2000004c   Section     1024  oled.o(.bss)
    STACK                                    0x20000450   Section     1024  startup_cw32f030.o(STACK)

    Global Symbols

    Symbol Name                              Value     Ov Type        Size  Object(Section)

    BuildAttributes$$THM_ISAv3M$S$PE$A:L22$X:L11$S22$IEEE1$IW$USESV6$~STKCKD$USESV7$~SHL$OTIME$ROPI$EBA8$MICROLIB$REQ8$PRES8$EABIv2 0x00000000   Number         0  anon$$obj.o ABSOLUTE
    __ARM_use_no_argv                        0x00000000   Number         0  main.o ABSOLUTE
    __Vectors                                0x00000000   Data           0  startup_cw32f030.o(RESET)
    _printf_a                                0x00000000   Number         0  stubs.o ABSOLUTE
    _printf_c                                0x00000000   Number         0  stubs.o ABSOLUTE
    _printf_charcount                        0x00000000   Number         0  stubs.o ABSOLUTE
    _printf_d                                0x00000000   Number         0  stubs.o ABSOLUTE
    _printf_e                                0x00000000   Number         0  stubs.o ABSOLUTE
    _printf_f                                0x00000000   Number         0  stubs.o ABSOLUTE
    _printf_flags                            0x00000000   Number         0  stubs.o ABSOLUTE
    _printf_fp_dec                           0x00000000   Number         0  stubs.o ABSOLUTE
    _printf_fp_hex                           0x00000000   Number         0  stubs.o ABSOLUTE
    _printf_g                                0x00000000   Number         0  stubs.o ABSOLUTE
    _printf_i                                0x00000000   Number         0  stubs.o ABSOLUTE
    _printf_int_dec                          0x00000000   Number         0  stubs.o ABSOLUTE
    _printf_l                                0x00000000   Number         0  stubs.o ABSOLUTE
    _printf_lc                               0x00000000   Number         0  stubs.o ABSOLUTE
    _printf_ll                               0x00000000   Number         0  stubs.o ABSOLUTE
    _printf_lld                              0x00000000   Number         0  stubs.o ABSOLUTE
    _printf_lli                              0x00000000   Number         0  stubs.o ABSOLUTE
    _printf_llo                              0x00000000   Number         0  stubs.o ABSOLUTE
    _printf_llu                              0x00000000   Number         0  stubs.o ABSOLUTE
    _printf_llx                              0x00000000   Number         0  stubs.o ABSOLUTE
    _printf_longlong_dec                     0x00000000   Number         0  stubs.o ABSOLUTE
    _printf_longlong_hex                     0x00000000   Number         0  stubs.o ABSOLUTE
    _printf_longlong_oct                     0x00000000   Number         0  stubs.o ABSOLUTE
    _printf_ls                               0x00000000   Number         0  stubs.o ABSOLUTE
    _printf_mbtowc                           0x00000000   Number         0  stubs.o ABSOLUTE
    _printf_n                                0x00000000   Number         0  stubs.o ABSOLUTE
    _printf_o                                0x00000000   Number         0  stubs.o ABSOLUTE
    _printf_p                                0x00000000   Number         0  stubs.o ABSOLUTE
    _printf_percent                          0x00000000   Number         0  stubs.o ABSOLUTE
    _printf_pre_padding                      0x00000000   Number         0  stubs.o ABSOLUTE
    _printf_return_value                     0x00000000   Number         0  stubs.o ABSOLUTE
    _printf_s                                0x00000000   Number         0  stubs.o ABSOLUTE
    _printf_sizespec                         0x00000000   Number         0  stubs.o ABSOLUTE
    _printf_str                              0x00000000   Number         0  stubs.o ABSOLUTE
    _printf_truncate_signed                  0x00000000   Number         0  stubs.o ABSOLUTE
    _printf_truncate_unsigned                0x00000000   Number         0  stubs.o ABSOLUTE
    _printf_u                                0x00000000   Number         0  stubs.o ABSOLUTE
    _printf_wc                               0x00000000   Number         0  stubs.o ABSOLUTE
    _printf_wctomb                           0x00000000   Number         0  stubs.o ABSOLUTE
    _printf_widthprec                        0x00000000   Number         0  stubs.o ABSOLUTE
    _printf_x                                0x00000000   Number         0  stubs.o ABSOLUTE
    __arm_fini_                               - Undefined Weak Reference
    __cpp_initialize__aeabi_                  - Undefined Weak Reference
    __cxa_finalize                            - Undefined Weak Reference
    __decompress                              - Undefined Weak Reference
    _clock_init                               - Undefined Weak Reference
    _microlib_exit                            - Undefined Weak Reference
    __Vectors_End                            0x000000c0   Data           0  startup_cw32f030.o(RESET)
    __Vectors_Size                           0x000000c0   Number         0  startup_cw32f030.o ABSOLUTE
    __main                                   0x000000c1   Thumb Code     0  entry.o(.ARM.Collect$$$$00000000)
    _main_stk                                0x000000c1   Thumb Code     0  entry2.o(.ARM.Collect$$$$00000001)
    _main_scatterload                        0x000000c5   Thumb Code     0  entry5.o(.ARM.Collect$$$$00000004)
    __main_after_scatterload                 0x000000c9   Thumb Code     0  entry5.o(.ARM.Collect$$$$00000004)
    _main_clock                              0x000000c9   Thumb Code     0  entry7b.o(.ARM.Collect$$$$00000008)
    _main_cpp_init                           0x000000c9   Thumb Code     0  entry8b.o(.ARM.Collect$$$$0000000A)
    _main_init                               0x000000c9   Thumb Code     0  entry9a.o(.ARM.Collect$$$$0000000B)
    __rt_lib_shutdown_fini                   0x000000d1   Thumb Code     0  entry12b.o(.ARM.Collect$$$$0000000E)
    __rt_final_cpp                           0x000000d5   Thumb Code     0  entry10a.o(.ARM.Collect$$$$0000000F)
    __rt_final_exit                          0x000000d5   Thumb Code     0  entry11a.o(.ARM.Collect$$$$00000011)
    Reset_Handler                            0x000000d9   Thumb Code    14  startup_cw32f030.o(.text)
    __aeabi_uidiv                            0x00000101   Thumb Code     0  uidiv.o(.text)
    __aeabi_uidivmod                         0x00000101   Thumb Code    44  uidiv.o(.text)
    __aeabi_memcpy                           0x0000012d   Thumb Code    36  memcpya.o(.text)
    __aeabi_memcpy4                          0x0000012d   Thumb Code     0  memcpya.o(.text)
    __aeabi_memcpy8                          0x0000012d   Thumb Code     0  memcpya.o(.text)
    __aeabi_fadd                             0x00000151   Thumb Code   162  fadd.o(.text)
    __aeabi_fsub                             0x000001f3   Thumb Code     8  fadd.o(.text)
    __aeabi_frsub                            0x000001fb   Thumb Code     8  fadd.o(.text)
    __aeabi_fmul                             0x00000203   Thumb Code   122  fmul.o(.text)
    __aeabi_fdiv                             0x0000027d   Thumb Code   124  fdiv.o(.text)
    __ARM_scalbnf                            0x000002f9   Thumb Code    24  fscalb.o(.text)
    scalbnf                                  0x000002f9   Thumb Code     0  fscalb.o(.text)
    __aeabi_dadd                             0x00000311   Thumb Code   330  dadd.o(.text)
    __aeabi_dsub                             0x0000045b   Thumb Code    12  dadd.o(.text)
    __aeabi_drsub                            0x00000467   Thumb Code    12  dadd.o(.text)
    __aeabi_dmul                             0x00000479   Thumb Code   202  dmul.o(.text)
    __aeabi_ddiv                             0x00000549   Thumb Code   234  ddiv.o(.text)
    __ARM_scalbn                             0x00000639   Thumb Code    44  dscalb.o(.text)
    scalbn                                   0x00000639   Thumb Code     0  dscalb.o(.text)
    __aeabi_i2f                              0x00000665   Thumb Code    22  fflti.o(.text)
    __aeabi_ui2f                             0x0000067b   Thumb Code    14  ffltui.o(.text)
    __aeabi_ui2d                             0x00000689   Thumb Code    24  dfltui.o(.text)
    __aeabi_f2uiz                            0x000006a5   Thumb Code    40  ffixui.o(.text)
    __aeabi_d2uiz                            0x000006cd   Thumb Code    50  dfixui.o(.text)
    __aeabi_f2d                              0x00000709   Thumb Code    40  f2d.o(.text)
    __aeabi_cdcmpeq                          0x00000731   Thumb Code     0  cdcmple.o(.text)
    __aeabi_cdcmple                          0x00000731   Thumb Code    38  cdcmple.o(.text)
    __aeabi_cdrcmple                         0x00000759   Thumb Code    38  cdrcmple.o(.text)
    __aeabi_llsl                             0x00000781   Thumb Code    32  llshl.o(.text)
    _ll_shift_l                              0x00000781   Thumb Code     0  llshl.o(.text)
    __aeabi_llsr                             0x000007a1   Thumb Code    34  llushr.o(.text)
    _ll_ushift_r                             0x000007a1   Thumb Code     0  llushr.o(.text)
    __aeabi_lasr                             0x000007c3   Thumb Code    38  llsshr.o(.text)
    _ll_sshift_r                             0x000007c3   Thumb Code     0  llsshr.o(.text)
    __I$use$fp                               0x000007e9   Thumb Code     0  iusefp.o(.text)
    _float_round                             0x000007e9   Thumb Code    16  fepilogue.o(.text)
    _float_epilogue                          0x000007f9   Thumb Code   114  fepilogue.o(.text)
    _double_round                            0x0000086b   Thumb Code    26  depilogue.o(.text)
    _double_epilogue                         0x00000885   Thumb Code   164  depilogue.o(.text)
    __scatterload                            0x00000929   Thumb Code    28  init.o(.text)
    __scatterload_rt2                        0x00000929   Thumb Code     0  init.o(.text)
    BTIM_ClearITPendingBit                   0x0000094d   Thumb Code     8  cw32f030_btim.o(RAMCODE)
    ADCDMA_IRQHander                         0x00000955   Thumb Code   128  motorcontrol.o(i.ADCDMA_IRQHander)
    ADC_Enable                               0x000009ed   Thumb Code    24  cw32f030_adc.o(i.ADC_Enable)
    ADC_GetITStatus                          0x00000a09   Thumb Code    16  cw32f030_adc.o(i.ADC_GetITStatus)
    ADC_IRQHandler                           0x00000a1d   Thumb Code     2  interrupts_cw32f030.o(i.ADC_IRQHandler)
    ADC_Init                                 0x00000a21   Thumb Code   100  cw32f030_adc.o(i.ADC_Init)
    ATIM_ClearITPendingBit                   0x00000a95   Thumb Code     8  cw32f030_atim.o(i.ATIM_ClearITPendingBit)
    ATIM_Cmd                                 0x00000aa1   Thumb Code    18  cw32f030_atim.o(i.ATIM_Cmd)
    ATIM_CtrlPWMOutputs                      0x00000ab9   Thumb Code    18  cw32f030_atim.o(i.ATIM_CtrlPWMOutputs)
    ATIM_GetITStatus                         0x00000ad1   Thumb Code    16  cw32f030_atim.o(i.ATIM_GetITStatus)
    ATIM_IRQHandler                          0x00000ae5   Thumb Code     8  interrupts_cw32f030.o(i.ATIM_IRQHandler)
    ATIM_ITConfig                            0x00000aed   Thumb Code    22  cw32f030_atim.o(i.ATIM_ITConfig)
    ATIM_Init                                0x00000b09   Thumb Code    92  cw32f030_atim.o(i.ATIM_Init)
    ATIM_OC1AInit                            0x00000b6d   Thumb Code    96  cw32f030_atim.o(i.ATIM_OC1AInit)
    ATIM_OC2AInit                            0x00000bd1   Thumb Code   102  cw32f030_atim.o(i.ATIM_OC2AInit)
    ATIM_OC3AInit                            0x00000c3d   Thumb Code   102  cw32f030_atim.o(i.ATIM_OC3AInit)
    ATIM_OC4Init                             0x00000ca9   Thumb Code    60  cw32f030_atim.o(i.ATIM_OC4Init)
    ATIM_PWMOutputConfig                     0x00000ce9   Thumb Code    50  cw32f030_atim.o(i.ATIM_PWMOutputConfig)
    ATIM_SetCompare1A                        0x00000d21   Thumb Code     6  cw32f030_atim.o(i.ATIM_SetCompare1A)
    ATIM_SetCompare2A                        0x00000d2d   Thumb Code     6  cw32f030_atim.o(i.ATIM_SetCompare2A)
    ATIM_SetCompare3A                        0x00000d39   Thumb Code     6  cw32f030_atim.o(i.ATIM_SetCompare3A)
    ATIM_SetCompare4                         0x00000d45   Thumb Code     6  cw32f030_atim.o(i.ATIM_SetCompare4)
    AWT_IRQHandler                           0x00000d51   Thumb Code     2  interrupts_cw32f030.o(i.AWT_IRQHandler)
    BLDC_Start                               0x00000d55   Thumb Code    38  motorcontrol.o(i.BLDC_Start)
    BLDC_Stop                                0x00000d81   Thumb Code     8  motorcontrol.o(i.BLDC_Stop)
    BTIM1_IRQHandler                         0x00000d89   Thumb Code     8  interrupts_cw32f030.o(i.BTIM1_IRQHandler)
    BTIM2_IRQHandler                         0x00000d91   Thumb Code     2  interrupts_cw32f030.o(i.BTIM2_IRQHandler)
    BTIM3_IRQHandler                         0x00000d93   Thumb Code     8  interrupts_cw32f030.o(i.BTIM3_IRQHandler)
    BTIM_Cmd                                 0x00000d9b   Thumb Code    24  cw32f030_btim.o(i.BTIM_Cmd)
    BTIM_GetCounter                          0x00000db3   Thumb Code     6  cw32f030_btim.o(i.BTIM_GetCounter)
    BTIM_GetITStatus                         0x00000db9   Thumb Code    14  cw32f030_btim.o(i.BTIM_GetITStatus)
    BTIM_ITConfig                            0x00000dc7   Thumb Code    20  cw32f030_btim.o(i.BTIM_ITConfig)
    BTIM_SetAutoreload                       0x00000ddb   Thumb Code     4  cw32f030_btim.o(i.BTIM_SetAutoreload)
    BTIM_SetCounter                          0x00000ddf   Thumb Code     4  cw32f030_btim.o(i.BTIM_SetCounter)
    BTIM_TimeBaseInit                        0x00000de5   Thumb Code    28  cw32f030_btim.o(i.BTIM_TimeBaseInit)
    CommutationDelayTIM_IRQHander            0x00000e05   Thumb Code   108  motorcontrol.o(i.CommutationDelayTIM_IRQHander)
    DMACH1_IRQHandler                        0x00000e79   Thumb Code     8  interrupts_cw32f030.o(i.DMACH1_IRQHandler)
    DMACH23_IRQHandler                       0x00000e81   Thumb Code     2  interrupts_cw32f030.o(i.DMACH23_IRQHandler)
    DMACH45_IRQHandler                       0x00000e83   Thumb Code     2  interrupts_cw32f030.o(i.DMACH45_IRQHandler)
    DMA_ClearITPendingBit                    0x00000e85   Thumb Code    10  cw32f030_dma.o(i.DMA_ClearITPendingBit)
    DMA_Cmd                                  0x00000e95   Thumb Code    24  cw32f030_dma.o(i.DMA_Cmd)
    DMA_GetITStatus                          0x00000ead   Thumb Code    16  cw32f030_dma.o(i.DMA_GetITStatus)
    DMA_ITConfig                             0x00000ec1   Thumb Code    20  cw32f030_dma.o(i.DMA_ITConfig)
    DMA_Init                                 0x00000ed5   Thumb Code    62  cw32f030_dma.o(i.DMA_Init)
    FAULT_IRQHandler                         0x00000f13   Thumb Code     2  interrupts_cw32f030.o(i.FAULT_IRQHandler)
    FLASHRAM_IRQHandler                      0x00000f15   Thumb Code     2  interrupts_cw32f030.o(i.FLASHRAM_IRQHandler)
    FLASH_SetLatency                         0x00000f19   Thumb Code    32  cw32f030_flash.o(i.FLASH_SetLatency)
    GPIOA_IRQHandler                         0x00000f45   Thumb Code     2  interrupts_cw32f030.o(i.GPIOA_IRQHandler)
    GPIOB_IRQHandler                         0x00000f47   Thumb Code     2  interrupts_cw32f030.o(i.GPIOB_IRQHandler)
    GPIOC_IRQHandler                         0x00000f49   Thumb Code     2  interrupts_cw32f030.o(i.GPIOC_IRQHandler)
    GPIOF_IRQHandler                         0x00000f4b   Thumb Code     2  interrupts_cw32f030.o(i.GPIOF_IRQHandler)
    GPIO_Init                                0x00000f4d   Thumb Code   240  cw32f030_gpio.o(i.GPIO_Init)
    GPIO_ReadPin                             0x00001041   Thumb Code    14  cw32f030_gpio.o(i.GPIO_ReadPin)
    GTIM1_IRQHandler                         0x0000104f   Thumb Code     2  interrupts_cw32f030.o(i.GTIM1_IRQHandler)
    GTIM2_IRQHandler                         0x00001051   Thumb Code     2  interrupts_cw32f030.o(i.GTIM2_IRQHandler)
    GTIM3_IRQHandler                         0x00001053   Thumb Code     2  interrupts_cw32f030.o(i.GTIM3_IRQHandler)
    GTIM4_IRQHandler                         0x00001055   Thumb Code     8  interrupts_cw32f030.o(i.GTIM4_IRQHandler)
    GTIM_ClearITPendingBit                   0x0000105d   Thumb Code    12  cw32f030_gtim.o(i.GTIM_ClearITPendingBit)
    GTIM_Cmd                                 0x00001069   Thumb Code    22  cw32f030_gtim.o(i.GTIM_Cmd)
    GTIM_GetCapture1                         0x0000107f   Thumb Code    10  cw32f030_gtim.o(i.GTIM_GetCapture1)
    GTIM_GetITStatus                         0x00001089   Thumb Code    20  cw32f030_gtim.o(i.GTIM_GetITStatus)
    GTIM_ICInit                              0x0000109d   Thumb Code    52  cw32f030_gtim.o(i.GTIM_ICInit)
    GTIM_ITConfig                            0x000010d1   Thumb Code    26  cw32f030_gtim.o(i.GTIM_ITConfig)
    GTIM_TimeBaseInit                        0x000010ed   Thumb Code    48  cw32f030_gtim.o(i.GTIM_TimeBaseInit)
    HardFault_Handler                        0x00001121   Thumb Code     2  interrupts_cw32f030.o(i.HardFault_Handler)
    I2C1_IRQHandler                          0x00001123   Thumb Code     2  interrupts_cw32f030.o(i.I2C1_IRQHandler)
    I2C2_IRQHandler                          0x00001125   Thumb Code     2  interrupts_cw32f030.o(i.I2C2_IRQHandler)
    InputCapture_GetPulseWidth               0x00001129   Thumb Code     6  inputcapture.o(i.InputCapture_GetPulseWidth)
    InputCapture_IRQHander                   0x00001135   Thumb Code   124  inputcapture.o(i.InputCapture_IRQHander)
    InputCapture_Init                        0x000011b9   Thumb Code    12  inputcapture.o(i.InputCapture_Init)
    LVD_IRQHandler                           0x000011c5   Thumb Code     2  interrupts_cw32f030.o(i.LVD_IRQHandler)
    MCU_Init                                 0x000011c7   Thumb Code    28  main.o(i.MCU_Init)
    Master_SendCmd                           0x000011e5   Thumb Code    62  oled.o(i.Master_SendCmd)
    Master_SendData                          0x0000122d   Thumb Code    62  oled.o(i.Master_SendData)
    MotorControl_GetDutyCycle                0x0000143d   Thumb Code     6  motorcontrol.o(i.MotorControl_GetDutyCycle)
    MotorControl_GetSpeed                    0x00001449   Thumb Code     6  motorcontrol.o(i.MotorControl_GetSpeed)
    MotorControl_GetState                    0x00001455   Thumb Code     6  motorcontrol.o(i.MotorControl_GetState)
    MotorControl_Init                        0x00001461   Thumb Code    34  motorcontrol.o(i.MotorControl_Init)
    MotorControl_SetClockwise                0x0000148d   Thumb Code     8  motorcontrol.o(i.MotorControl_SetClockwise)
    MotorControl_SetCounterclockwise         0x00001499   Thumb Code     8  motorcontrol.o(i.MotorControl_SetCounterclockwise)
    MotorControl_SetDutyCrcle                0x000014a5   Thumb Code   240  motorcontrol.o(i.MotorControl_SetDutyCrcle)
    NMI_Handler                              0x000015a9   Thumb Code     2  interrupts_cw32f030.o(i.NMI_Handler)
    OLED_Clear                               0x000015ad   Thumb Code    38  oled.o(i.OLED_Clear)
    OLED_DrawPoint                           0x000015d9   Thumb Code    44  oled.o(i.OLED_DrawPoint)
    OLED_Init                                0x00001609   Thumb Code   212  oled.o(i.OLED_Init)
    OLED_Pow                                 0x000016e9   Thumb Code    20  oled.o(i.OLED_Pow)
    OLED_Refresh                             0x000016fd   Thumb Code    58  oled.o(i.OLED_Refresh)
    OLED_ShowChar                            0x0000173d   Thumb Code   200  oled.o(i.OLED_ShowChar)
    OLED_ShowNum                             0x00001809   Thumb Code   118  oled.o(i.OLED_ShowNum)
    OLED_ShowString                          0x0000187f   Thumb Code    58  oled.o(i.OLED_ShowString)
    PWMTIM_IRQHandler                        0x000018b9   Thumb Code    24  motorcontrol.o(i.PWMTIM_IRQHandler)
    PendSV_Handler                           0x000018d1   Thumb Code     2  interrupts_cw32f030.o(i.PendSV_Handler)
    RCC_AHBPeriphClk_Enable                  0x000018d5   Thumb Code    22  cw32f030_rcc.o(i.RCC_AHBPeriphClk_Enable)
    RCC_APBPeriphClk_Enable1                 0x000018f1   Thumb Code    22  cw32f030_rcc.o(i.RCC_APBPeriphClk_Enable1)
    RCC_APBPeriphClk_Enable2                 0x0000190d   Thumb Code    22  cw32f030_rcc.o(i.RCC_APBPeriphClk_Enable2)
    RCC_HCLKPRS_Config                       0x00001929   Thumb Code    18  cw32f030_rcc.o(i.RCC_HCLKPRS_Config)
    RCC_HSI_Enable                           0x00001949   Thumb Code    30  cw32f030_rcc.o(i.RCC_HSI_Enable)
    RCC_IRQHandler                           0x00001971   Thumb Code     2  interrupts_cw32f030.o(i.RCC_IRQHandler)
    RCC_PCLKPRS_Config                       0x00001975   Thumb Code    18  cw32f030_rcc.o(i.RCC_PCLKPRS_Config)
    RCC_PLL_Enable                           0x00001995   Thumb Code   132  cw32f030_rcc.o(i.RCC_PLL_Enable)
    RCC_SysClk_Switch                        0x00001a25   Thumb Code    48  cw32f030_rcc.o(i.RCC_SysClk_Switch)
    RCC_Sysctrl_GetHClkFreq                  0x00001a5d   Thumb Code   130  cw32f030_rcc.o(i.RCC_Sysctrl_GetHClkFreq)
    RCC_Sysctrl_GetPClkFreq                  0x00001af5   Thumb Code    18  cw32f030_rcc.o(i.RCC_Sysctrl_GetPClkFreq)
    RCC_SystemCoreClockUpdate                0x00001b0d   Thumb Code     6  cw32f030_rcc.o(i.RCC_SystemCoreClockUpdate)
    RTC_IRQHandler                           0x00001b19   Thumb Code     2  interrupts_cw32f030.o(i.RTC_IRQHandler)
    SPI1_IRQHandler                          0x00001b1b   Thumb Code     2  interrupts_cw32f030.o(i.SPI1_IRQHandler)
    SPI2_IRQHandler                          0x00001b1d   Thumb Code     2  interrupts_cw32f030.o(i.SPI2_IRQHandler)
    SPI_Cmd                                  0x00001b1f   Thumb Code    16  cw32f030_spi.o(i.SPI_Cmd)
    SPI_GetFlagStatus                        0x00001b2f   Thumb Code    14  cw32f030_spi.o(i.SPI_GetFlagStatus)
    SPI_Init                                 0x00001b3d   Thumb Code    48  cw32f030_spi.o(i.SPI_Init)
    SPI_NSSInternalSoftwareConfig            0x00001b71   Thumb Code     4  cw32f030_spi.o(i.SPI_NSSInternalSoftwareConfig)
    SVC_Handler                              0x00001b75   Thumb Code     2  interrupts_cw32f030.o(i.SVC_Handler)
    SysTick_Handler                          0x00001c41   Thumb Code     2  delay.o(i.SysTick_Handler)
    SysTick_Init                             0x00001c45   Thumb Code    56  delay.o(i.SysTick_Init)
    SystemCoreClockUpdate                    0x00001c85   Thumb Code     8  system_cw32f030.o(i.SystemCoreClockUpdate)
    SystemInit                               0x00001c95   Thumb Code    46  system_cw32f030.o(i.SystemInit)
    SystemRCC_Init                           0x00001cc9   Thumb Code    54  main.o(i.SystemRCC_Init)
    Systick_AccurateDelayMs                  0x00001d09   Thumb Code   112  delay.o(i.Systick_AccurateDelayMs)
    Systick_AccurateDelayUs                  0x00001d89   Thumb Code   114  delay.o(i.Systick_AccurateDelayUs)
    TickTIM_IRQHander                        0x00001e09   Thumb Code   102  motorcontrol.o(i.TickTIM_IRQHander)
    UART1_IRQHandler                         0x00001e7d   Thumb Code     2  interrupts_cw32f030.o(i.UART1_IRQHandler)
    UART2_IRQHandler                         0x00001e7f   Thumb Code     2  interrupts_cw32f030.o(i.UART2_IRQHandler)
    UART3_IRQHandler                         0x00001e81   Thumb Code     2  interrupts_cw32f030.o(i.UART3_IRQHandler)
    USART_GetFlagStatus                      0x00001e83   Thumb Code    14  cw32f030_uart.o(i.USART_GetFlagStatus)
    USART_Init                               0x00001e91   Thumb Code   286  cw32f030_uart.o(i.USART_Init)
    USART_SendData_8bit                      0x00001fb9   Thumb Code     4  cw32f030_uart.o(i.USART_SendData_8bit)
    VC1_IRQHandler                           0x00001fbd   Thumb Code     2  interrupts_cw32f030.o(i.VC1_IRQHandler)
    VC2_IRQHandler                           0x00001fbf   Thumb Code     2  interrupts_cw32f030.o(i.VC2_IRQHandler)
    WDT_IRQHandler                           0x00001fc1   Thumb Code     2  interrupts_cw32f030.o(i.WDT_IRQHandler)
    __0printf$1                              0x000024a1   Thumb Code    24  printf1.o(i.__0printf$1)
    __1printf$1                              0x000024a1   Thumb Code     0  printf1.o(i.__0printf$1)
    __2printf                                0x000024a1   Thumb Code     0  printf1.o(i.__0printf$1)
    __ARM_clz                                0x000024c1   Thumb Code    46  depilogue.o(i.__ARM_clz)
    __ARM_common_switch8                     0x000024ef   Thumb Code    26  cw32f030_rcc.o(i.__ARM_common_switch8)
    __scatterload_copy                       0x00002565   Thumb Code    14  handlers.o(i.__scatterload_copy)
    __scatterload_null                       0x00002573   Thumb Code     2  handlers.o(i.__scatterload_null)
    __scatterload_zeroinit                   0x00002575   Thumb Code    14  handlers.o(i.__scatterload_zeroinit)
    fputc                                    0x000026d5   Thumb Code    30  uart.o(i.fputc)
    led_init                                 0x000026f9   Thumb Code    66  main.o(i.led_init)
    main                                     0x00002749   Thumb Code   562  main.o(i.main)
    uart_init                                0x000029d1   Thumb Code   124  uart.o(i.uart_init)
    bemf_mapping_table                       0x00002a58   Data           6  motorcontrol.o(.constdata)
    compare_position_table                   0x00002a5e   Data          12  motorcontrol.o(.constdata)
    RAMP_TABLE                               0x00002a6a   Data          64  sensorlessp.o(.constdata)
    asc2_1608                                0x00002aaa   Data        1520  oled.o(.constdata)
    hsiprs_tbl                               0x0000309c   Data          64  cw32f030_rcc.o(.constdata)
    Region$$Table$$Base                      0x00003100   Number         0  anon$$obj.o(Region$$Table)
    Region$$Table$$Limit                     0x00003120   Number         0  anon$$obj.o(Region$$Table)
    SystemCoreClock                          0x20000038   Data           4  system_cw32f030.o(.data)
    __stdout                                 0x2000003c   Data           4  stdout.o(.data)
    OLED_GRAM                                0x2000004c   Data        1024  oled.o(.bss)
    __initial_sp                             0x20000850   Data           0  startup_cw32f030.o(STACK)



==============================================================================

Memory Map of the image

  Image Entry point : 0x000000c1

  Load Region LR_IROM1 (Base: 0x00000000, Size: 0x00003160, Max: 0x00010000, ABSOLUTE)

    Execution Region ER_IROM1 (Exec base: 0x00000000, Load base: 0x00000000, Size: 0x00003120, Max: 0x00010000, ABSOLUTE)

    Exec Addr    Load Addr    Size         Type   Attr      Idx    E Section Name        Object

    0x00000000   0x00000000   0x000000c0   Data   RO         2675    RESET               startup_cw32f030.o
    0x000000c0   0x000000c0   0x00000000   Code   RO         2742  * .ARM.Collect$$$$00000000  mc_p.l(entry.o)
    0x000000c0   0x000000c0   0x00000004   Code   RO         3046    .ARM.Collect$$$$00000001  mc_p.l(entry2.o)
    0x000000c4   0x000000c4   0x00000004   Code   RO         3049    .ARM.Collect$$$$00000004  mc_p.l(entry5.o)
    0x000000c8   0x000000c8   0x00000000   Code   RO         3051    .ARM.Collect$$$$00000008  mc_p.l(entry7b.o)
    0x000000c8   0x000000c8   0x00000000   Code   RO         3053    .ARM.Collect$$$$0000000A  mc_p.l(entry8b.o)
    0x000000c8   0x000000c8   0x00000008   Code   RO         3054    .ARM.Collect$$$$0000000B  mc_p.l(entry9a.o)
    0x000000d0   0x000000d0   0x00000004   Code   RO         3061    .ARM.Collect$$$$0000000E  mc_p.l(entry12b.o)
    0x000000d4   0x000000d4   0x00000000   Code   RO         3056    .ARM.Collect$$$$0000000F  mc_p.l(entry10a.o)
    0x000000d4   0x000000d4   0x00000000   Code   RO         3058    .ARM.Collect$$$$00000011  mc_p.l(entry11a.o)
    0x000000d4   0x000000d4   0x00000004   Code   RO         3047    .ARM.Collect$$$$00002712  mc_p.l(entry2.o)
    0x000000d8   0x000000d8   0x00000028   Code   RO         2676    .text               startup_cw32f030.o
    0x00000100   0x00000100   0x0000002c   Code   RO         2745    .text               mc_p.l(uidiv.o)
    0x0000012c   0x0000012c   0x00000024   Code   RO         2749    .text               mc_p.l(memcpya.o)
    0x00000150   0x00000150   0x000000b2   Code   RO         3014    .text               mf_p.l(fadd.o)
    0x00000202   0x00000202   0x0000007a   Code   RO         3016    .text               mf_p.l(fmul.o)
    0x0000027c   0x0000027c   0x0000007c   Code   RO         3018    .text               mf_p.l(fdiv.o)
    0x000002f8   0x000002f8   0x00000018   Code   RO         3020    .text               mf_p.l(fscalb.o)
    0x00000310   0x00000310   0x00000168   Code   RO         3022    .text               mf_p.l(dadd.o)
    0x00000478   0x00000478   0x000000d0   Code   RO         3024    .text               mf_p.l(dmul.o)
    0x00000548   0x00000548   0x000000f0   Code   RO         3026    .text               mf_p.l(ddiv.o)
    0x00000638   0x00000638   0x0000002c   Code   RO         3028    .text               mf_p.l(dscalb.o)
    0x00000664   0x00000664   0x00000016   Code   RO         3030    .text               mf_p.l(fflti.o)
    0x0000067a   0x0000067a   0x0000000e   Code   RO         3032    .text               mf_p.l(ffltui.o)
    0x00000688   0x00000688   0x0000001c   Code   RO         3034    .text               mf_p.l(dfltui.o)
    0x000006a4   0x000006a4   0x00000028   Code   RO         3036    .text               mf_p.l(ffixui.o)
    0x000006cc   0x000006cc   0x0000003c   Code   RO         3038    .text               mf_p.l(dfixui.o)
    0x00000708   0x00000708   0x00000028   Code   RO         3040    .text               mf_p.l(f2d.o)
    0x00000730   0x00000730   0x00000028   Code   RO         3042    .text               mf_p.l(cdcmple.o)
    0x00000758   0x00000758   0x00000028   Code   RO         3044    .text               mf_p.l(cdrcmple.o)
    0x00000780   0x00000780   0x00000020   Code   RO         3065    .text               mc_p.l(llshl.o)
    0x000007a0   0x000007a0   0x00000022   Code   RO         3067    .text               mc_p.l(llushr.o)
    0x000007c2   0x000007c2   0x00000026   Code   RO         3069    .text               mc_p.l(llsshr.o)
    0x000007e8   0x000007e8   0x00000000   Code   RO         3071    .text               mc_p.l(iusefp.o)
    0x000007e8   0x000007e8   0x00000082   Code   RO         3072    .text               mf_p.l(fepilogue.o)
    0x0000086a   0x0000086a   0x000000be   Code   RO         3074    .text               mf_p.l(depilogue.o)
    0x00000928   0x00000928   0x00000024   Code   RO         3080    .text               mc_p.l(init.o)
    0x0000094c   0x0000094c   0x00000008   Code   RO         1824    RAMCODE             cw32f030_btim.o
    0x00000954   0x00000954   0x00000098   Code   RO          353    i.ADCDMA_IRQHander  motorcontrol.o
    0x000009ec   0x000009ec   0x0000001c   Code   RO         1220    i.ADC_Enable        cw32f030_adc.o
    0x00000a08   0x00000a08   0x00000014   Code   RO         1226    i.ADC_GetITStatus   cw32f030_adc.o
    0x00000a1c   0x00000a1c   0x00000002   Code   RO          120    i.ADC_IRQHandler    interrupts_cw32f030.o
    0x00000a1e   0x00000a1e   0x00000002   PAD
    0x00000a20   0x00000a20   0x00000074   Code   RO         1235    i.ADC_Init          cw32f030_adc.o
    0x00000a94   0x00000a94   0x0000000c   Code   RO         1540    i.ATIM_ClearITPendingBit  cw32f030_atim.o
    0x00000aa0   0x00000aa0   0x00000018   Code   RO         1541    i.ATIM_Cmd          cw32f030_atim.o
    0x00000ab8   0x00000ab8   0x00000018   Code   RO         1542    i.ATIM_CtrlPWMOutputs  cw32f030_atim.o
    0x00000ad0   0x00000ad0   0x00000014   Code   RO         1551    i.ATIM_GetITStatus  cw32f030_atim.o
    0x00000ae4   0x00000ae4   0x00000008   Code   RO          121    i.ATIM_IRQHandler   interrupts_cw32f030.o
    0x00000aec   0x00000aec   0x0000001c   Code   RO         1558    i.ATIM_ITConfig     cw32f030_atim.o
    0x00000b08   0x00000b08   0x00000064   Code   RO         1559    i.ATIM_Init         cw32f030_atim.o
    0x00000b6c   0x00000b6c   0x00000064   Code   RO         1561    i.ATIM_OC1AInit     cw32f030_atim.o
    0x00000bd0   0x00000bd0   0x0000006c   Code   RO         1563    i.ATIM_OC2AInit     cw32f030_atim.o
    0x00000c3c   0x00000c3c   0x0000006c   Code   RO         1565    i.ATIM_OC3AInit     cw32f030_atim.o
    0x00000ca8   0x00000ca8   0x00000040   Code   RO         1567    i.ATIM_OC4Init      cw32f030_atim.o
    0x00000ce8   0x00000ce8   0x00000038   Code   RO         1568    i.ATIM_PWMOutputConfig  cw32f030_atim.o
    0x00000d20   0x00000d20   0x0000000c   Code   RO         1569    i.ATIM_SetCompare1A  cw32f030_atim.o
    0x00000d2c   0x00000d2c   0x0000000c   Code   RO         1571    i.ATIM_SetCompare2A  cw32f030_atim.o
    0x00000d38   0x00000d38   0x0000000c   Code   RO         1573    i.ATIM_SetCompare3A  cw32f030_atim.o
    0x00000d44   0x00000d44   0x0000000c   Code   RO         1575    i.ATIM_SetCompare4  cw32f030_atim.o
    0x00000d50   0x00000d50   0x00000002   Code   RO          122    i.AWT_IRQHandler    interrupts_cw32f030.o
    0x00000d52   0x00000d52   0x00000002   PAD
    0x00000d54   0x00000d54   0x0000002c   Code   RO          354    i.BLDC_Start        motorcontrol.o
    0x00000d80   0x00000d80   0x00000008   Code   RO          355    i.BLDC_Stop         motorcontrol.o
    0x00000d88   0x00000d88   0x00000008   Code   RO          123    i.BTIM1_IRQHandler  interrupts_cw32f030.o
    0x00000d90   0x00000d90   0x00000002   Code   RO          124    i.BTIM2_IRQHandler  interrupts_cw32f030.o
    0x00000d92   0x00000d92   0x00000008   Code   RO          125    i.BTIM3_IRQHandler  interrupts_cw32f030.o
    0x00000d9a   0x00000d9a   0x00000018   Code   RO         1825    i.BTIM_Cmd          cw32f030_btim.o
    0x00000db2   0x00000db2   0x00000006   Code   RO         1830    i.BTIM_GetCounter   cw32f030_btim.o
    0x00000db8   0x00000db8   0x0000000e   Code   RO         1831    i.BTIM_GetITStatus  cw32f030_btim.o
    0x00000dc6   0x00000dc6   0x00000014   Code   RO         1833    i.BTIM_ITConfig     cw32f030_btim.o
    0x00000dda   0x00000dda   0x00000004   Code   RO         1840    i.BTIM_SetAutoreload  cw32f030_btim.o
    0x00000dde   0x00000dde   0x00000004   Code   RO         1841    i.BTIM_SetCounter   cw32f030_btim.o
    0x00000de2   0x00000de2   0x00000002   PAD
    0x00000de4   0x00000de4   0x00000020   Code   RO         1842    i.BTIM_TimeBaseInit  cw32f030_btim.o
    0x00000e04   0x00000e04   0x00000074   Code   RO          356    i.CommutationDelayTIM_IRQHander  motorcontrol.o
    0x00000e78   0x00000e78   0x00000008   Code   RO          126    i.DMACH1_IRQHandler  interrupts_cw32f030.o
    0x00000e80   0x00000e80   0x00000002   Code   RO          127    i.DMACH23_IRQHandler  interrupts_cw32f030.o
    0x00000e82   0x00000e82   0x00000002   Code   RO          128    i.DMACH45_IRQHandler  interrupts_cw32f030.o
    0x00000e84   0x00000e84   0x00000010   Code   RO         2011    i.DMA_ClearITPendingBit  cw32f030_dma.o
    0x00000e94   0x00000e94   0x00000018   Code   RO         2012    i.DMA_Cmd           cw32f030_dma.o
    0x00000eac   0x00000eac   0x00000014   Code   RO         2015    i.DMA_GetITStatus   cw32f030_dma.o
    0x00000ec0   0x00000ec0   0x00000014   Code   RO         2016    i.DMA_ITConfig      cw32f030_dma.o
    0x00000ed4   0x00000ed4   0x0000003e   Code   RO         2017    i.DMA_Init          cw32f030_dma.o
    0x00000f12   0x00000f12   0x00000002   Code   RO          129    i.FAULT_IRQHandler  interrupts_cw32f030.o
    0x00000f14   0x00000f14   0x00000002   Code   RO          130    i.FLASHRAM_IRQHandler  interrupts_cw32f030.o
    0x00000f16   0x00000f16   0x00000002   PAD
    0x00000f18   0x00000f18   0x0000002c   Code   RO         2093    i.FLASH_SetLatency  cw32f030_flash.o
    0x00000f44   0x00000f44   0x00000002   Code   RO          131    i.GPIOA_IRQHandler  interrupts_cw32f030.o
    0x00000f46   0x00000f46   0x00000002   Code   RO          132    i.GPIOB_IRQHandler  interrupts_cw32f030.o
    0x00000f48   0x00000f48   0x00000002   Code   RO          133    i.GPIOC_IRQHandler  interrupts_cw32f030.o
    0x00000f4a   0x00000f4a   0x00000002   Code   RO          134    i.GPIOF_IRQHandler  interrupts_cw32f030.o
    0x00000f4c   0x00000f4c   0x000000f4   Code   RO         1131    i.GPIO_Init         cw32f030_gpio.o
    0x00001040   0x00001040   0x0000000e   Code   RO         1134    i.GPIO_ReadPin      cw32f030_gpio.o
    0x0000104e   0x0000104e   0x00000002   Code   RO          135    i.GTIM1_IRQHandler  interrupts_cw32f030.o
    0x00001050   0x00001050   0x00000002   Code   RO          136    i.GTIM2_IRQHandler  interrupts_cw32f030.o
    0x00001052   0x00001052   0x00000002   Code   RO          137    i.GTIM3_IRQHandler  interrupts_cw32f030.o
    0x00001054   0x00001054   0x00000008   Code   RO          138    i.GTIM4_IRQHandler  interrupts_cw32f030.o
    0x0000105c   0x0000105c   0x0000000c   Code   RO         2227    i.GTIM_ClearITPendingBit  cw32f030_gtim.o
    0x00001068   0x00001068   0x00000016   Code   RO         2228    i.GTIM_Cmd          cw32f030_gtim.o
    0x0000107e   0x0000107e   0x0000000a   Code   RO         2232    i.GTIM_GetCapture1  cw32f030_gtim.o
    0x00001088   0x00001088   0x00000014   Code   RO         2236    i.GTIM_GetITStatus  cw32f030_gtim.o
    0x0000109c   0x0000109c   0x00000034   Code   RO         2238    i.GTIM_ICInit       cw32f030_gtim.o
    0x000010d0   0x000010d0   0x0000001a   Code   RO         2239    i.GTIM_ITConfig     cw32f030_gtim.o
    0x000010ea   0x000010ea   0x00000002   PAD
    0x000010ec   0x000010ec   0x00000034   Code   RO         2248    i.GTIM_TimeBaseInit  cw32f030_gtim.o
    0x00001120   0x00001120   0x00000002   Code   RO          139    i.HardFault_Handler  interrupts_cw32f030.o
    0x00001122   0x00001122   0x00000002   Code   RO          140    i.I2C1_IRQHandler   interrupts_cw32f030.o
    0x00001124   0x00001124   0x00000002   Code   RO          141    i.I2C2_IRQHandler   interrupts_cw32f030.o
    0x00001126   0x00001126   0x00000002   PAD
    0x00001128   0x00001128   0x0000000c   Code   RO          544    i.InputCapture_GetPulseWidth  inputcapture.o
    0x00001134   0x00001134   0x00000084   Code   RO          545    i.InputCapture_IRQHander  inputcapture.o
    0x000011b8   0x000011b8   0x0000000c   Code   RO          546    i.InputCapture_Init  inputcapture.o
    0x000011c4   0x000011c4   0x00000002   Code   RO          142    i.LVD_IRQHandler    interrupts_cw32f030.o
    0x000011c6   0x000011c6   0x0000001c   Code   RO            3    i.MCU_Init          main.o
    0x000011e2   0x000011e2   0x00000002   PAD
    0x000011e4   0x000011e4   0x00000048   Code   RO          660    i.Master_SendCmd    oled.o
    0x0000122c   0x0000122c   0x00000048   Code   RO          661    i.Master_SendData   oled.o
    0x00001274   0x00001274   0x000000d0   Code   RO          357    i.MotorControl_AnalyseAdcData  motorcontrol.o
    0x00001344   0x00001344   0x000000f8   Code   RO          358    i.MotorControl_Commutation  motorcontrol.o
    0x0000143c   0x0000143c   0x0000000c   Code   RO          359    i.MotorControl_GetDutyCycle  motorcontrol.o
    0x00001448   0x00001448   0x0000000c   Code   RO          360    i.MotorControl_GetSpeed  motorcontrol.o
    0x00001454   0x00001454   0x0000000c   Code   RO          361    i.MotorControl_GetState  motorcontrol.o
    0x00001460   0x00001460   0x0000002c   Code   RO          363    i.MotorControl_Init  motorcontrol.o
    0x0000148c   0x0000148c   0x0000000c   Code   RO          364    i.MotorControl_SetClockwise  motorcontrol.o
    0x00001498   0x00001498   0x0000000c   Code   RO          365    i.MotorControl_SetCounterclockwise  motorcontrol.o
    0x000014a4   0x000014a4   0x00000104   Code   RO          366    i.MotorControl_SetDutyCrcle  motorcontrol.o
    0x000015a8   0x000015a8   0x00000002   Code   RO          143    i.NMI_Handler       interrupts_cw32f030.o
    0x000015aa   0x000015aa   0x00000002   PAD
    0x000015ac   0x000015ac   0x0000002c   Code   RO          662    i.OLED_Clear        oled.o
    0x000015d8   0x000015d8   0x00000030   Code   RO          669    i.OLED_DrawPoint    oled.o
    0x00001608   0x00001608   0x000000e0   Code   RO          670    i.OLED_Init         oled.o
    0x000016e8   0x000016e8   0x00000014   Code   RO          671    i.OLED_Pow          oled.o
    0x000016fc   0x000016fc   0x00000040   Code   RO          672    i.OLED_Refresh      oled.o
    0x0000173c   0x0000173c   0x000000cc   Code   RO          673    i.OLED_ShowChar     oled.o
    0x00001808   0x00001808   0x00000076   Code   RO          674    i.OLED_ShowNum      oled.o
    0x0000187e   0x0000187e   0x0000003a   Code   RO          675    i.OLED_ShowString   oled.o
    0x000018b8   0x000018b8   0x00000018   Code   RO          367    i.PWMTIM_IRQHandler  motorcontrol.o
    0x000018d0   0x000018d0   0x00000002   Code   RO          144    i.PendSV_Handler    interrupts_cw32f030.o
    0x000018d2   0x000018d2   0x00000002   PAD
    0x000018d4   0x000018d4   0x0000001c   Code   RO          790    i.RCC_AHBPeriphClk_Enable  cw32f030_rcc.o
    0x000018f0   0x000018f0   0x0000001c   Code   RO          792    i.RCC_APBPeriphClk_Enable1  cw32f030_rcc.o
    0x0000190c   0x0000190c   0x0000001c   Code   RO          793    i.RCC_APBPeriphClk_Enable2  cw32f030_rcc.o
    0x00001928   0x00001928   0x00000020   Code   RO          813    i.RCC_HCLKPRS_Config  cw32f030_rcc.o
    0x00001948   0x00001948   0x00000028   Code   RO          819    i.RCC_HSI_Enable    cw32f030_rcc.o
    0x00001970   0x00001970   0x00000002   Code   RO          145    i.RCC_IRQHandler    interrupts_cw32f030.o
    0x00001972   0x00001972   0x00000002   PAD
    0x00001974   0x00001974   0x00000020   Code   RO          831    i.RCC_PCLKPRS_Config  cw32f030_rcc.o
    0x00001994   0x00001994   0x00000090   Code   RO          834    i.RCC_PLL_Enable    cw32f030_rcc.o
    0x00001a24   0x00001a24   0x00000038   Code   RO          838    i.RCC_SysClk_Switch  cw32f030_rcc.o
    0x00001a5c   0x00001a5c   0x00000098   Code   RO          839    i.RCC_Sysctrl_GetHClkFreq  cw32f030_rcc.o
    0x00001af4   0x00001af4   0x00000018   Code   RO          840    i.RCC_Sysctrl_GetPClkFreq  cw32f030_rcc.o
    0x00001b0c   0x00001b0c   0x0000000c   Code   RO          841    i.RCC_SystemCoreClockUpdate  cw32f030_rcc.o
    0x00001b18   0x00001b18   0x00000002   Code   RO          146    i.RTC_IRQHandler    interrupts_cw32f030.o
    0x00001b1a   0x00001b1a   0x00000002   Code   RO          147    i.SPI1_IRQHandler   interrupts_cw32f030.o
    0x00001b1c   0x00001b1c   0x00000002   Code   RO          148    i.SPI2_IRQHandler   interrupts_cw32f030.o
    0x00001b1e   0x00001b1e   0x00000010   Code   RO         2558    i.SPI_Cmd           cw32f030_spi.o
    0x00001b2e   0x00001b2e   0x0000000e   Code   RO         2562    i.SPI_GetFlagStatus  cw32f030_spi.o
    0x00001b3c   0x00001b3c   0x00000034   Code   RO         2565    i.SPI_Init          cw32f030_spi.o
    0x00001b70   0x00001b70   0x00000004   Code   RO         2567    i.SPI_NSSInternalSoftwareConfig  cw32f030_spi.o
    0x00001b74   0x00001b74   0x00000002   Code   RO          149    i.SVC_Handler       interrupts_cw32f030.o
    0x00001b76   0x00001b76   0x00000002   PAD
    0x00001b78   0x00001b78   0x000000a4   Code   RO          368    i.SensorlessMotor_Start  motorcontrol.o
    0x00001c1c   0x00001c1c   0x00000024   Code   RO          369    i.SensorlessMotor_Stop  motorcontrol.o
    0x00001c40   0x00001c40   0x00000002   Code   RO          620    i.SysTick_Handler   delay.o
    0x00001c42   0x00001c42   0x00000002   PAD
    0x00001c44   0x00001c44   0x00000040   Code   RO          621    i.SysTick_Init      delay.o
    0x00001c84   0x00001c84   0x00000010   Code   RO         2684    i.SystemCoreClockUpdate  system_cw32f030.o
    0x00001c94   0x00001c94   0x00000034   Code   RO         2685    i.SystemInit        system_cw32f030.o
    0x00001cc8   0x00001cc8   0x00000040   Code   RO            4    i.SystemRCC_Init    main.o
    0x00001d08   0x00001d08   0x00000080   Code   RO          622    i.Systick_AccurateDelayMs  delay.o
    0x00001d88   0x00001d88   0x00000080   Code   RO          623    i.Systick_AccurateDelayUs  delay.o
    0x00001e08   0x00001e08   0x00000074   Code   RO          370    i.TickTIM_IRQHander  motorcontrol.o
    0x00001e7c   0x00001e7c   0x00000002   Code   RO          150    i.UART1_IRQHandler  interrupts_cw32f030.o
    0x00001e7e   0x00001e7e   0x00000002   Code   RO          151    i.UART2_IRQHandler  interrupts_cw32f030.o
    0x00001e80   0x00001e80   0x00000002   Code   RO          152    i.UART3_IRQHandler  interrupts_cw32f030.o
    0x00001e82   0x00001e82   0x0000000e   Code   RO         2422    i.USART_GetFlagStatus  cw32f030_uart.o
    0x00001e90   0x00001e90   0x00000128   Code   RO         2426    i.USART_Init        cw32f030_uart.o
    0x00001fb8   0x00001fb8   0x00000004   Code   RO         2431    i.USART_SendData_8bit  cw32f030_uart.o
    0x00001fbc   0x00001fbc   0x00000002   Code   RO          153    i.VC1_IRQHandler    interrupts_cw32f030.o
    0x00001fbe   0x00001fbe   0x00000002   Code   RO          154    i.VC2_IRQHandler    interrupts_cw32f030.o
    0x00001fc0   0x00001fc0   0x00000002   Code   RO          155    i.WDT_IRQHandler    interrupts_cw32f030.o
    0x00001fc2   0x00001fc2   0x00000002   PAD
    0x00001fc4   0x00001fc4   0x00000048   Code   RO          371    i._ADC_Init_        motorcontrol.o
    0x0000200c   0x0000200c   0x00000100   Code   RO          372    i._DMA_Init_        motorcontrol.o
    0x0000210c   0x0000210c   0x00000090   Code   RO          373    i._GPIO_Init_       motorcontrol.o
    0x0000219c   0x0000219c   0x00000038   Code   RO          547    i._GPIO_Init_       inputcapture.o
    0x000021d4   0x000021d4   0x0000009c   Code   RO          676    i._GPIO_Init_       oled.o
    0x00002270   0x00002270   0x0000004c   Code   RO          677    i._SPI_Init_        oled.o
    0x000022bc   0x000022bc   0x00000164   Code   RO          374    i._TIM_Init_        motorcontrol.o
    0x00002420   0x00002420   0x00000080   Code   RO          548    i._TIM_Init_        inputcapture.o
    0x000024a0   0x000024a0   0x00000020   Code   RO         2798    i.__0printf$1       mc_p.l(printf1.o)
    0x000024c0   0x000024c0   0x0000002e   Code   RO         3076    i.__ARM_clz         mf_p.l(depilogue.o)
    0x000024ee   0x000024ee   0x0000001a   Code   RO         1120    i.__ARM_common_switch8  cw32f030_rcc.o
    0x00002508   0x00002508   0x00000018   Code   RO          375    i.__NVIC_EnableIRQ  motorcontrol.o
    0x00002520   0x00002520   0x00000044   Code   RO          376    i.__NVIC_SetPriority  motorcontrol.o
    0x00002564   0x00002564   0x0000000e   Code   RO         3084    i.__scatterload_copy  mc_p.l(handlers.o)
    0x00002572   0x00002572   0x00000002   Code   RO         3085    i.__scatterload_null  mc_p.l(handlers.o)
    0x00002574   0x00002574   0x0000000e   Code   RO         3086    i.__scatterload_zeroinit  mc_p.l(handlers.o)
    0x00002582   0x00002582   0x00000002   PAD
    0x00002584   0x00002584   0x00000150   Code   RO         2805    i._printf_core      mc_p.l(printf1.o)
    0x000026d4   0x000026d4   0x00000024   Code   RO          594    i.fputc             uart.o
    0x000026f8   0x000026f8   0x00000050   Code   RO            5    i.led_init          main.o
    0x00002748   0x00002748   0x00000288   Code   RO            6    i.main              main.o
    0x000029d0   0x000029d0   0x00000088   Code   RO          595    i.uart_init         uart.o
    0x00002a58   0x00002a58   0x00000012   Data   RO          378    .constdata          motorcontrol.o
    0x00002a6a   0x00002a6a   0x00000040   Data   RO          530    .constdata          sensorlessp.o
    0x00002aaa   0x00002aaa   0x000005f0   Data   RO          679    .constdata          oled.o
    0x0000309a   0x0000309a   0x00000002   PAD
    0x0000309c   0x0000309c   0x00000064   Data   RO          843    .constdata          cw32f030_rcc.o
    0x00003100   0x00003100   0x00000020   Data   RO         3082    Region$$Table       anon$$obj.o


    Execution Region RW_IRAM1 (Exec base: 0x20000000, Load base: 0x00003120, Size: 0x00000850, Max: 0x00002000, ABSOLUTE)

    Exec Addr    Load Addr    Size         Type   Attr      Idx    E Section Name        Object

    0x20000000   0x00003120   0x00000026   Data   RW          379    .data               motorcontrol.o
    0x20000026   0x00003146   0x00000002   PAD
    0x20000028   0x00003148   0x0000000c   Data   RW          549    .data               inputcapture.o
    0x20000034   0x00003154   0x00000004   Data   RW          624    .data               delay.o
    0x20000038   0x00003158   0x00000004   Data   RW         2689    .data               system_cw32f030.o
    0x2000003c   0x0000315c   0x00000004   Data   RW         3062    .data               mc_p.l(stdout.o)
    0x20000040        -       0x0000000c   Zero   RW          377    .bss                motorcontrol.o
    0x2000004c        -       0x00000400   Zero   RW          678    .bss                oled.o
    0x2000044c   0x00003160   0x00000004   PAD
    0x20000450        -       0x00000400   Zero   RW         2673    STACK               startup_cw32f030.o


==============================================================================

Image component sizes


      Code (inc. data)   RO Data    RW Data    ZI Data      Debug   Object Name

       164         24          0          0          0       1966   cw32f030_adc.o
       692         84          0          0          0       8410   cw32f030_atim.o
       112          4          0          0          0       4684   cw32f030_btim.o
       142         10          0          0          0       3054   cw32f030_dma.o
        44         12          0          0          0        551   cw32f030_flash.o
       258          4          0          0          0       1647   cw32f030_gpio.o
       194          4          0          0          0       4200   cw32f030_gtim.o
       602        118        100          0          0       7297   cw32f030_rcc.o
        86          4          0          0          0       2509   cw32f030_spi.o
       314         10          0          0          0       2297   cw32f030_uart.o
       322         38          0          4          0       2373   delay.o
       340         36          0         12          0      18270   inputcapture.o
       102          0          0          0          0      16116   interrupts_cw32f030.o
       820        110          0          0          0     187006   main.o
      2400        238         18         38         12      61343   motorcontrol.o
      1156         66       1520          0       1024      15138   oled.o
         0          0         64          0          0       1657   sensorlessp.o
        40         14        192          0       1024        640   startup_cw32f030.o
        68         14          0          4          0       1187   system_cw32f030.o
       172         18          0          0          0       1148   uart.o

    ----------------------------------------------------------------------
      8054        808       1928         60       2064     341493   Object Totals
         0          0         32          0          0          0   (incl. Generated)
        26          0          2          2          4          0   (incl. Padding)

    ----------------------------------------------------------------------

      Code (inc. data)   RO Data    RW Data    ZI Data      Debug   Library Member Name

         0          0          0          0          0          0   entry.o
         0          0          0          0          0          0   entry10a.o
         0          0          0          0          0          0   entry11a.o
         4          0          0          0          0          0   entry12b.o
         8          4          0          0          0          0   entry2.o
         4          0          0          0          0          0   entry5.o
         0          0          0          0          0          0   entry7b.o
         0          0          0          0          0          0   entry8b.o
         8          4          0          0          0          0   entry9a.o
        30          0          0          0          0          0   handlers.o
        36          8          0          0          0         68   init.o
         0          0          0          0          0          0   iusefp.o
        32          0          0          0          0         68   llshl.o
        38          0          0          0          0         68   llsshr.o
        34          0          0          0          0         68   llushr.o
        36          0          0          0          0         60   memcpya.o
       368         12          0          0          0        168   printf1.o
         0          0          0          4          0          0   stdout.o
        44          0          0          0          0         72   uidiv.o
        40          2          0          0          0         68   cdcmple.o
        40          2          0          0          0         68   cdrcmple.o
       360          6          0          0          0        140   dadd.o
       240          6          0          0          0         84   ddiv.o
       236          0          0          0          0        216   depilogue.o
        60         10          0          0          0         68   dfixui.o
        28          4          0          0          0         68   dfltui.o
       208          6          0          0          0         88   dmul.o
        44          0          0          0          0         72   dscalb.o
        40          0          0          0          0         60   f2d.o
       178          0          0          0          0        108   fadd.o
       124          0          0          0          0         72   fdiv.o
       130          0          0          0          0        144   fepilogue.o
        40          0          0          0          0         60   ffixui.o
        22          0          0          0          0         68   fflti.o
        14          0          0          0          0         68   ffltui.o
       122          0          0          0          0         72   fmul.o
        24          0          0          0          0         60   fscalb.o

    ----------------------------------------------------------------------
      2594         64          0          4          0       2156   Library Totals
         2          0          0          0          0          0   (incl. Padding)

    ----------------------------------------------------------------------

      Code (inc. data)   RO Data    RW Data    ZI Data      Debug   Library Name

       642         28          0          4          0        572   mc_p.l
      1950         36          0          0          0       1584   mf_p.l

    ----------------------------------------------------------------------
      2594         64          0          4          0       2156   Library Totals

    ----------------------------------------------------------------------

==============================================================================


      Code (inc. data)   RO Data    RW Data    ZI Data      Debug   

     10648        872       1928         64       2064     336393   Grand Totals
     10648        872       1928         64       2064     336393   ELF Image Totals
     10648        872       1928         64          0          0   ROM Totals

==============================================================================

    Total RO  Size (Code + RO Data)                12576 (  12.28kB)
    Total RW  Size (RW Data + ZI Data)              2128 (   2.08kB)
    Total ROM Size (Code + RO Data + RW Data)      12640 (  12.34kB)

==============================================================================

