Component: ARM Compiler 5.06 update 7 (build 960) Tool: armlink [4d3601]

==============================================================================

Image Symbol Table

    Local Symbols

    Symbol Name                              Value     Ov Type        Size  Object(Section)

    RESET                                    0x00000000   Section      192  startup_cw32f030.o(RESET)
    ../clib/../cmprslib/zerorunl.c           0x00000000   Number         0  __dczerorl.o ABSOLUTE
    ../clib/microlib/division.c              0x00000000   Number         0  uldiv.o ABSOLUTE
    ../clib/microlib/division.c              0x00000000   Number         0  uidiv.o ABSOLUTE
    ../clib/microlib/division.c              0x00000000   Number         0  ldiv.o ABSOLUTE
    ../clib/microlib/init/entry.s            0x00000000   Number         0  entry8a.o ABSOLUTE
    ../clib/microlib/init/entry.s            0x00000000   Number         0  entry.o ABSOLUTE
    ../clib/microlib/init/entry.s            0x00000000   Number         0  entry2.o ABSOLUTE
    ../clib/microlib/init/entry.s            0x00000000   Number         0  entry9a.o ABSOLUTE
    ../clib/microlib/init/entry.s            0x00000000   Number         0  entry11b.o ABSOLUTE
    ../clib/microlib/init/entry.s            0x00000000   Number         0  entry10b.o ABSOLUTE
    ../clib/microlib/init/entry.s            0x00000000   Number         0  entry9b.o ABSOLUTE
    ../clib/microlib/init/entry.s            0x00000000   Number         0  entry5.o ABSOLUTE
    ../clib/microlib/init/entry.s            0x00000000   Number         0  entry12a.o ABSOLUTE
    ../clib/microlib/init/entry.s            0x00000000   Number         0  entry12b.o ABSOLUTE
    ../clib/microlib/init/entry.s            0x00000000   Number         0  entry10a.o ABSOLUTE
    ../clib/microlib/init/entry.s            0x00000000   Number         0  entry11a.o ABSOLUTE
    ../clib/microlib/init/entry.s            0x00000000   Number         0  entry8b.o ABSOLUTE
    ../clib/microlib/init/entry.s            0x00000000   Number         0  entry7b.o ABSOLUTE
    ../clib/microlib/init/entry.s            0x00000000   Number         0  entry7a.o ABSOLUTE
    ../clib/microlib/longlong.c              0x00000000   Number         0  llshl.o ABSOLUTE
    ../clib/microlib/longlong.c              0x00000000   Number         0  llsshr.o ABSOLUTE
    ../clib/microlib/longlong.c              0x00000000   Number         0  llushr.o ABSOLUTE
    ../clib/microlib/printf/printf.c         0x00000000   Number         0  printf6.o ABSOLUTE
    ../clib/microlib/printf/printf.c         0x00000000   Number         0  printf5.o ABSOLUTE
    ../clib/microlib/printf/printf.c         0x00000000   Number         0  printf4.o ABSOLUTE
    ../clib/microlib/printf/printf.c         0x00000000   Number         0  printf2.o ABSOLUTE
    ../clib/microlib/printf/printf.c         0x00000000   Number         0  printf3.o ABSOLUTE
    ../clib/microlib/printf/printf.c         0x00000000   Number         0  printfb.o ABSOLUTE
    ../clib/microlib/printf/printf.c         0x00000000   Number         0  printf0.o ABSOLUTE
    ../clib/microlib/printf/printf.c         0x00000000   Number         0  printf7.o ABSOLUTE
    ../clib/microlib/printf/printf.c         0x00000000   Number         0  printf1.o ABSOLUTE
    ../clib/microlib/printf/printf.c         0x00000000   Number         0  printfa.o ABSOLUTE
    ../clib/microlib/printf/printf.c         0x00000000   Number         0  printf8.o ABSOLUTE
    ../clib/microlib/stdio/streams.c         0x00000000   Number         0  stdout.o ABSOLUTE
    ../clib/microlib/string/memcmp.c         0x00000000   Number         0  memcmp.o ABSOLUTE
    ../clib/microlib/string/memcpy.c         0x00000000   Number         0  memcpyb.o ABSOLUTE
    ../clib/microlib/string/memcpy.c         0x00000000   Number         0  memcpya.o ABSOLUTE
    ../clib/microlib/stubs.s                 0x00000000   Number         0  iusefp.o ABSOLUTE
    ../fplib/microlib/f2d.c                  0x00000000   Number         0  f2d.o ABSOLUTE
    ../fplib/microlib/fpadd.c                0x00000000   Number         0  fadd.o ABSOLUTE
    ../fplib/microlib/fpadd.c                0x00000000   Number         0  dadd.o ABSOLUTE
    ../fplib/microlib/fpdiv.c                0x00000000   Number         0  fdiv.o ABSOLUTE
    ../fplib/microlib/fpdiv.c                0x00000000   Number         0  ddiv.o ABSOLUTE
    ../fplib/microlib/fpepilogue.c           0x00000000   Number         0  fepilogue.o ABSOLUTE
    ../fplib/microlib/fpepilogue.c           0x00000000   Number         0  depilogue.o ABSOLUTE
    ../fplib/microlib/fpfix.c                0x00000000   Number         0  dfixul.o ABSOLUTE
    ../fplib/microlib/fpfix.c                0x00000000   Number         0  dfixui.o ABSOLUTE
    ../fplib/microlib/fpfix.c                0x00000000   Number         0  ffixui.o ABSOLUTE
    ../fplib/microlib/fpflt.c                0x00000000   Number         0  dfltui.o ABSOLUTE
    ../fplib/microlib/fpflt.c                0x00000000   Number         0  ffltui.o ABSOLUTE
    ../fplib/microlib/fpflt.c                0x00000000   Number         0  fflti.o ABSOLUTE
    ../fplib/microlib/fpmul.c                0x00000000   Number         0  fmul.o ABSOLUTE
    ../fplib/microlib/fpmul.c                0x00000000   Number         0  dmul.o ABSOLUTE
    ../fplib/microlib/fpscalb.c              0x00000000   Number         0  fscalb.o ABSOLUTE
    ../fplib/microlib/fpscalb.c              0x00000000   Number         0  dscalb.o ABSOLUTE
    ..\IdeSupport\MDK\startup_cw32f030.s     0x00000000   Number         0  startup_cw32f030.o ABSOLUTE
    ..\Libraries\src\cw32f030_adc.c          0x00000000   Number         0  cw32f030_adc.o ABSOLUTE
    ..\Libraries\src\cw32f030_atim.c         0x00000000   Number         0  cw32f030_atim.o ABSOLUTE
    ..\Libraries\src\cw32f030_btim.c         0x00000000   Number         0  cw32f030_btim.o ABSOLUTE
    ..\Libraries\src\cw32f030_crc.c          0x00000000   Number         0  cw32f030_crc.o ABSOLUTE
    ..\Libraries\src\cw32f030_dma.c          0x00000000   Number         0  cw32f030_dma.o ABSOLUTE
    ..\Libraries\src\cw32f030_flash.c        0x00000000   Number         0  cw32f030_flash.o ABSOLUTE
    ..\Libraries\src\cw32f030_gpio.c         0x00000000   Number         0  cw32f030_gpio.o ABSOLUTE
    ..\Libraries\src\cw32f030_gtim.c         0x00000000   Number         0  cw32f030_gtim.o ABSOLUTE
    ..\Libraries\src\cw32f030_i2c.c          0x00000000   Number         0  cw32f030_i2c.o ABSOLUTE
    ..\Libraries\src\cw32f030_rcc.c          0x00000000   Number         0  cw32f030_rcc.o ABSOLUTE
    ..\Libraries\src\cw32f030_uart.c         0x00000000   Number         0  cw32f030_uart.o ABSOLUTE
    ..\Libraries\src\system_cw32f030.c       0x00000000   Number         0  system_cw32f030.o ABSOLUTE
    ..\MyDriver\src\ExchangeMessagePort.c    0x00000000   Number         0  exchangemessageport.o ABSOLUTE
    ..\MyDriver\src\InputCapture.c           0x00000000   Number         0  inputcapture.o ABSOLUTE
    ..\MyDriver\src\MotorControl.c           0x00000000   Number         0  motorcontrol.o ABSOLUTE
    ..\MyDriver\src\delay.c                  0x00000000   Number         0  delay.o ABSOLUTE
    ..\MyDriver\src\oled.c                   0x00000000   Number         0  oled.o ABSOLUTE
    ..\MyDriver\src\sensorlessP.c            0x00000000   Number         0  sensorlessp.o ABSOLUTE
    ..\USER\src\interrupts_cw32f030.c        0x00000000   Number         0  interrupts_cw32f030.o ABSOLUTE
    ..\USER\src\main.c                       0x00000000   Number         0  main.o ABSOLUTE
    ..\\Libraries\\src\\cw32f030_adc.c       0x00000000   Number         0  cw32f030_adc.o ABSOLUTE
    ..\\Libraries\\src\\cw32f030_atim.c      0x00000000   Number         0  cw32f030_atim.o ABSOLUTE
    ..\\Libraries\\src\\cw32f030_btim.c      0x00000000   Number         0  cw32f030_btim.o ABSOLUTE
    ..\\Libraries\\src\\cw32f030_crc.c       0x00000000   Number         0  cw32f030_crc.o ABSOLUTE
    ..\\Libraries\\src\\cw32f030_dma.c       0x00000000   Number         0  cw32f030_dma.o ABSOLUTE
    ..\\Libraries\\src\\cw32f030_flash.c     0x00000000   Number         0  cw32f030_flash.o ABSOLUTE
    ..\\Libraries\\src\\cw32f030_gpio.c      0x00000000   Number         0  cw32f030_gpio.o ABSOLUTE
    ..\\Libraries\\src\\cw32f030_gtim.c      0x00000000   Number         0  cw32f030_gtim.o ABSOLUTE
    ..\\Libraries\\src\\cw32f030_i2c.c       0x00000000   Number         0  cw32f030_i2c.o ABSOLUTE
    ..\\Libraries\\src\\cw32f030_rcc.c       0x00000000   Number         0  cw32f030_rcc.o ABSOLUTE
    ..\\Libraries\\src\\cw32f030_uart.c      0x00000000   Number         0  cw32f030_uart.o ABSOLUTE
    ..\\Libraries\\src\\system_cw32f030.c    0x00000000   Number         0  system_cw32f030.o ABSOLUTE
    ..\\MyDriver\\src\\ExchangeMessagePort.c 0x00000000   Number         0  exchangemessageport.o ABSOLUTE
    ..\\MyDriver\\src\\InputCapture.c        0x00000000   Number         0  inputcapture.o ABSOLUTE
    ..\\MyDriver\\src\\MotorControl.c        0x00000000   Number         0  motorcontrol.o ABSOLUTE
    ..\\MyDriver\\src\\delay.c               0x00000000   Number         0  delay.o ABSOLUTE
    ..\\MyDriver\\src\\oled.c                0x00000000   Number         0  oled.o ABSOLUTE
    ..\\USER\\src\\interrupts_cw32f030.c     0x00000000   Number         0  interrupts_cw32f030.o ABSOLUTE
    ..\\USER\\src\\main.c                    0x00000000   Number         0  main.o ABSOLUTE
    cdcmple.s                                0x00000000   Number         0  cdcmple.o ABSOLUTE
    cdrcmple.s                               0x00000000   Number         0  cdrcmple.o ABSOLUTE
    dc.s                                     0x00000000   Number         0  dc.o ABSOLUTE
    handlers.s                               0x00000000   Number         0  handlers.o ABSOLUTE
    init.s                                   0x00000000   Number         0  init.o ABSOLUTE
    .ARM.Collect$$$$00000000                 0x000000c0   Section        0  entry.o(.ARM.Collect$$$$00000000)
    .ARM.Collect$$$$00000001                 0x000000c0   Section        4  entry2.o(.ARM.Collect$$$$00000001)
    .ARM.Collect$$$$00000004                 0x000000c4   Section        4  entry5.o(.ARM.Collect$$$$00000004)
    .ARM.Collect$$$$00000008                 0x000000c8   Section        0  entry7b.o(.ARM.Collect$$$$00000008)
    .ARM.Collect$$$$0000000A                 0x000000c8   Section        0  entry8b.o(.ARM.Collect$$$$0000000A)
    .ARM.Collect$$$$0000000B                 0x000000c8   Section        8  entry9a.o(.ARM.Collect$$$$0000000B)
    .ARM.Collect$$$$0000000E                 0x000000d0   Section        4  entry12b.o(.ARM.Collect$$$$0000000E)
    .ARM.Collect$$$$0000000F                 0x000000d4   Section        0  entry10a.o(.ARM.Collect$$$$0000000F)
    .ARM.Collect$$$$00000011                 0x000000d4   Section        0  entry11a.o(.ARM.Collect$$$$00000011)
    .ARM.Collect$$$$00002712                 0x000000d4   Section        4  entry2.o(.ARM.Collect$$$$00002712)
    __lit__00000000                          0x000000d4   Data           4  entry2.o(.ARM.Collect$$$$00002712)
    .text                                    0x000000d8   Section       40  startup_cw32f030.o(.text)
    .text                                    0x00000100   Section        0  uidiv.o(.text)
    .text                                    0x0000012c   Section        0  memcpya.o(.text)
    .text                                    0x00000150   Section        0  fadd.o(.text)
    .text                                    0x00000202   Section        0  fmul.o(.text)
    .text                                    0x0000027c   Section        0  dadd.o(.text)
    .text                                    0x000003e4   Section        0  dmul.o(.text)
    .text                                    0x000004b4   Section        0  ddiv.o(.text)
    .text                                    0x000005a4   Section        0  dscalb.o(.text)
    .text                                    0x000005d0   Section        0  fflti.o(.text)
    .text                                    0x000005e6   Section        0  ffltui.o(.text)
    .text                                    0x000005f4   Section        0  dfltui.o(.text)
    .text                                    0x00000610   Section        0  ffixui.o(.text)
    .text                                    0x00000638   Section        0  dfixui.o(.text)
    .text                                    0x00000674   Section       40  cdcmple.o(.text)
    .text                                    0x0000069c   Section       40  cdrcmple.o(.text)
    .text                                    0x000006c4   Section        0  llshl.o(.text)
    .text                                    0x000006e4   Section        0  llushr.o(.text)
    .text                                    0x00000706   Section        0  llsshr.o(.text)
    .text                                    0x0000072c   Section        0  iusefp.o(.text)
    .text                                    0x0000072c   Section        0  fepilogue.o(.text)
    .text                                    0x000007ae   Section        0  depilogue.o(.text)
    .text                                    0x0000086c   Section       36  init.o(.text)
    .text                                    0x00000890   Section        0  __dczerorl.o(.text)
    RAMCODE                                  0x000008ca   Section        0  cw32f030_btim.o(RAMCODE)
    i.ADCDMA_IRQHander                       0x000008d4   Section        0  motorcontrol.o(i.ADCDMA_IRQHander)
    i.ADC_Enable                             0x0000096c   Section        0  cw32f030_adc.o(i.ADC_Enable)
    i.ADC_GetITStatus                        0x00000988   Section        0  cw32f030_adc.o(i.ADC_GetITStatus)
    i.ADC_IRQHandler                         0x0000099c   Section        0  interrupts_cw32f030.o(i.ADC_IRQHandler)
    i.ADC_Init                               0x000009a0   Section        0  cw32f030_adc.o(i.ADC_Init)
    i.ATIM_ClearITPendingBit                 0x00000a14   Section        0  cw32f030_atim.o(i.ATIM_ClearITPendingBit)
    i.ATIM_Cmd                               0x00000a20   Section        0  cw32f030_atim.o(i.ATIM_Cmd)
    i.ATIM_CtrlPWMOutputs                    0x00000a38   Section        0  cw32f030_atim.o(i.ATIM_CtrlPWMOutputs)
    i.ATIM_GetITStatus                       0x00000a50   Section        0  cw32f030_atim.o(i.ATIM_GetITStatus)
    i.ATIM_IRQHandler                        0x00000a64   Section        0  interrupts_cw32f030.o(i.ATIM_IRQHandler)
    i.ATIM_ITConfig                          0x00000a6c   Section        0  cw32f030_atim.o(i.ATIM_ITConfig)
    i.ATIM_Init                              0x00000a88   Section        0  cw32f030_atim.o(i.ATIM_Init)
    i.ATIM_OC1AInit                          0x00000aec   Section        0  cw32f030_atim.o(i.ATIM_OC1AInit)
    i.ATIM_OC2AInit                          0x00000b50   Section        0  cw32f030_atim.o(i.ATIM_OC2AInit)
    i.ATIM_OC3AInit                          0x00000bbc   Section        0  cw32f030_atim.o(i.ATIM_OC3AInit)
    i.ATIM_OC4Init                           0x00000c28   Section        0  cw32f030_atim.o(i.ATIM_OC4Init)
    i.ATIM_PWMOutputConfig                   0x00000c68   Section        0  cw32f030_atim.o(i.ATIM_PWMOutputConfig)
    i.ATIM_SetCompare1A                      0x00000ca0   Section        0  cw32f030_atim.o(i.ATIM_SetCompare1A)
    i.ATIM_SetCompare2A                      0x00000cac   Section        0  cw32f030_atim.o(i.ATIM_SetCompare2A)
    i.ATIM_SetCompare3A                      0x00000cb8   Section        0  cw32f030_atim.o(i.ATIM_SetCompare3A)
    i.ATIM_SetCompare4                       0x00000cc4   Section        0  cw32f030_atim.o(i.ATIM_SetCompare4)
    i.AWT_IRQHandler                         0x00000cd0   Section        0  interrupts_cw32f030.o(i.AWT_IRQHandler)
    i.BLDC_Start                             0x00000cd4   Section        0  motorcontrol.o(i.BLDC_Start)
    i.BTIM1_IRQHandler                       0x00000cec   Section        0  interrupts_cw32f030.o(i.BTIM1_IRQHandler)
    i.BTIM2_IRQHandler                       0x00000cf4   Section        0  interrupts_cw32f030.o(i.BTIM2_IRQHandler)
    i.BTIM3_IRQHandler                       0x00000cf6   Section        0  interrupts_cw32f030.o(i.BTIM3_IRQHandler)
    i.BTIM_Cmd                               0x00000cfe   Section        0  cw32f030_btim.o(i.BTIM_Cmd)
    i.BTIM_GetCounter                        0x00000d16   Section        0  cw32f030_btim.o(i.BTIM_GetCounter)
    i.BTIM_GetITStatus                       0x00000d1c   Section        0  cw32f030_btim.o(i.BTIM_GetITStatus)
    i.BTIM_ITConfig                          0x00000d2a   Section        0  cw32f030_btim.o(i.BTIM_ITConfig)
    i.BTIM_SetAutoreload                     0x00000d3e   Section        0  cw32f030_btim.o(i.BTIM_SetAutoreload)
    i.BTIM_SetCounter                        0x00000d42   Section        0  cw32f030_btim.o(i.BTIM_SetCounter)
    i.BTIM_TimeBaseInit                      0x00000d48   Section        0  cw32f030_btim.o(i.BTIM_TimeBaseInit)
    i.CRC16_Calc_8bit                        0x00000d68   Section        0  cw32f030_crc.o(i.CRC16_Calc_8bit)
    i.CommutationDelayTIM_IRQHander          0x00000d84   Section        0  motorcontrol.o(i.CommutationDelayTIM_IRQHander)
    i.DMACH1_IRQHandler                      0x00000df8   Section        0  interrupts_cw32f030.o(i.DMACH1_IRQHandler)
    i.DMACH23_IRQHandler                     0x00000e00   Section        0  interrupts_cw32f030.o(i.DMACH23_IRQHandler)
    i.DMACH45_IRQHandler                     0x00000e02   Section        0  interrupts_cw32f030.o(i.DMACH45_IRQHandler)
    i.DMA_ClearITPendingBit                  0x00000e04   Section        0  cw32f030_dma.o(i.DMA_ClearITPendingBit)
    i.DMA_Cmd                                0x00000e14   Section        0  cw32f030_dma.o(i.DMA_Cmd)
    i.DMA_GetFlagStatus                      0x00000e2c   Section        0  cw32f030_dma.o(i.DMA_GetFlagStatus)
    i.DMA_GetITStatus                        0x00000e34   Section        0  cw32f030_dma.o(i.DMA_GetITStatus)
    i.DMA_ITConfig                           0x00000e48   Section        0  cw32f030_dma.o(i.DMA_ITConfig)
    i.DMA_Init                               0x00000e5c   Section        0  cw32f030_dma.o(i.DMA_Init)
    i.DMA_SWTrigCmd                          0x00000e9a   Section        0  cw32f030_dma.o(i.DMA_SWTrigCmd)
    i.ExcMesPort_IRQHandler                  0x00000ea4   Section        0  exchangemessageport.o(i.ExcMesPort_IRQHandler)
    i.FAULT_IRQHandler                       0x00001020   Section        0  interrupts_cw32f030.o(i.FAULT_IRQHandler)
    i.FLASHRAM_IRQHandler                    0x00001022   Section        0  interrupts_cw32f030.o(i.FLASHRAM_IRQHandler)
    i.FLASH_ErasePage                        0x00001024   Section        0  cw32f030_flash.o(i.FLASH_ErasePage)
    i.FLASH_LockPage                         0x00001074   Section        0  cw32f030_flash.o(i.FLASH_LockPage)
    i.FLASH_SetLatency                       0x00001094   Section        0  cw32f030_flash.o(i.FLASH_SetLatency)
    i.FLASH_UnlockPage                       0x000010c0   Section        0  cw32f030_flash.o(i.FLASH_UnlockPage)
    i.GPIOA_IRQHandler                       0x000010e0   Section        0  interrupts_cw32f030.o(i.GPIOA_IRQHandler)
    i.GPIOB_IRQHandler                       0x000010e2   Section        0  interrupts_cw32f030.o(i.GPIOB_IRQHandler)
    i.GPIOC_IRQHandler                       0x000010e4   Section        0  interrupts_cw32f030.o(i.GPIOC_IRQHandler)
    i.GPIOF_IRQHandler                       0x000010e6   Section        0  interrupts_cw32f030.o(i.GPIOF_IRQHandler)
    i.GPIO_Init                              0x000010e8   Section        0  cw32f030_gpio.o(i.GPIO_Init)
    i.GPIO_ReadPin                           0x000011dc   Section        0  cw32f030_gpio.o(i.GPIO_ReadPin)
    i.GTIM1_IRQHandler                       0x000011ea   Section        0  interrupts_cw32f030.o(i.GTIM1_IRQHandler)
    i.GTIM2_IRQHandler                       0x000011ec   Section        0  interrupts_cw32f030.o(i.GTIM2_IRQHandler)
    i.GTIM3_IRQHandler                       0x000011ee   Section        0  interrupts_cw32f030.o(i.GTIM3_IRQHandler)
    i.GTIM4_IRQHandler                       0x000011f0   Section        0  interrupts_cw32f030.o(i.GTIM4_IRQHandler)
    i.GTIM_ClearITPendingBit                 0x000011f8   Section        0  cw32f030_gtim.o(i.GTIM_ClearITPendingBit)
    i.GTIM_GetCapture1                       0x00001204   Section        0  cw32f030_gtim.o(i.GTIM_GetCapture1)
    i.GTIM_GetITStatus                       0x0000120e   Section        0  cw32f030_gtim.o(i.GTIM_GetITStatus)
    i.HardFault_Handler                      0x00001222   Section        0  interrupts_cw32f030.o(i.HardFault_Handler)
    i.I2C1_IRQHandler                        0x00001224   Section        0  interrupts_cw32f030.o(i.I2C1_IRQHandler)
    i.I2C2_IRQHandler                        0x00001226   Section        0  interrupts_cw32f030.o(i.I2C2_IRQHandler)
    i.InputCapture_IRQHander                 0x00001228   Section        0  inputcapture.o(i.InputCapture_IRQHander)
    i.LVD_IRQHandler                         0x000012ac   Section        0  interrupts_cw32f030.o(i.LVD_IRQHandler)
    i.MCU_Init                               0x000012ae   Section        0  main.o(i.MCU_Init)
    i.MotorControl_AnalyseAdcData            0x000012c4   Section        0  motorcontrol.o(i.MotorControl_AnalyseAdcData)
    MotorControl_AnalyseAdcData              0x000012c5   Thumb Code   190  motorcontrol.o(i.MotorControl_AnalyseAdcData)
    i.MotorControl_Commutation               0x00001394   Section        0  motorcontrol.o(i.MotorControl_Commutation)
    MotorControl_Commutation                 0x00001395   Thumb Code   226  motorcontrol.o(i.MotorControl_Commutation)
    i.MotorControl_GetDutyCycle              0x0000148c   Section        0  motorcontrol.o(i.MotorControl_GetDutyCycle)
    i.MotorControl_GetTotalCurrent           0x00001498   Section        0  motorcontrol.o(i.MotorControl_GetTotalCurrent)
    i.MotorControl_Init                      0x000014e0   Section        0  motorcontrol.o(i.MotorControl_Init)
    i.MotorControl_SetDutyCrcle              0x0000150c   Section        0  motorcontrol.o(i.MotorControl_SetDutyCrcle)
    i.NMI_Handler                            0x00001610   Section        0  interrupts_cw32f030.o(i.NMI_Handler)
    i.PWMTIM_IRQHandler                      0x00001612   Section        0  motorcontrol.o(i.PWMTIM_IRQHandler)
    i.PendSV_Handler                         0x0000162a   Section        0  interrupts_cw32f030.o(i.PendSV_Handler)
    i.RCC_AHBPeriphClk_Enable                0x0000162c   Section        0  cw32f030_rcc.o(i.RCC_AHBPeriphClk_Enable)
    i.RCC_APBPeriphClk_Enable2               0x00001648   Section        0  cw32f030_rcc.o(i.RCC_APBPeriphClk_Enable2)
    i.RCC_HCLKPRS_Config                     0x00001664   Section        0  cw32f030_rcc.o(i.RCC_HCLKPRS_Config)
    i.RCC_HSI_Enable                         0x00001684   Section        0  cw32f030_rcc.o(i.RCC_HSI_Enable)
    i.RCC_IRQHandler                         0x000016ac   Section        0  interrupts_cw32f030.o(i.RCC_IRQHandler)
    i.RCC_PCLKPRS_Config                     0x000016b0   Section        0  cw32f030_rcc.o(i.RCC_PCLKPRS_Config)
    i.RCC_PLL_Enable                         0x000016d0   Section        0  cw32f030_rcc.o(i.RCC_PLL_Enable)
    i.RCC_SysClk_Switch                      0x00001760   Section        0  cw32f030_rcc.o(i.RCC_SysClk_Switch)
    i.RCC_Sysctrl_GetHClkFreq                0x00001798   Section        0  cw32f030_rcc.o(i.RCC_Sysctrl_GetHClkFreq)
    i.RCC_Sysctrl_GetPClkFreq                0x00001830   Section        0  cw32f030_rcc.o(i.RCC_Sysctrl_GetPClkFreq)
    i.RCC_SystemCoreClockUpdate              0x00001848   Section        0  cw32f030_rcc.o(i.RCC_SystemCoreClockUpdate)
    i.RTC_IRQHandler                         0x00001854   Section        0  interrupts_cw32f030.o(i.RTC_IRQHandler)
    i.SPI1_IRQHandler                        0x00001856   Section        0  interrupts_cw32f030.o(i.SPI1_IRQHandler)
    i.SPI2_IRQHandler                        0x00001858   Section        0  interrupts_cw32f030.o(i.SPI2_IRQHandler)
    i.SVC_Handler                            0x0000185a   Section        0  interrupts_cw32f030.o(i.SVC_Handler)
    i.SensorlessMotor_Start                  0x0000185c   Section        0  motorcontrol.o(i.SensorlessMotor_Start)
    i.SysTick_Handler                        0x00001914   Section        0  delay.o(i.SysTick_Handler)
    i.SysTick_Init                           0x00001918   Section        0  delay.o(i.SysTick_Init)
    i.SystemCoreClockUpdate                  0x00001958   Section        0  system_cw32f030.o(i.SystemCoreClockUpdate)
    i.SystemInit                             0x00001968   Section        0  system_cw32f030.o(i.SystemInit)
    i.SystemRCC_Init                         0x0000199c   Section        0  main.o(i.SystemRCC_Init)
    i.Systick_AccurateDelayMs                0x000019dc   Section        0  delay.o(i.Systick_AccurateDelayMs)
    i.Systick_AccurateDelayUs                0x00001a5c   Section        0  delay.o(i.Systick_AccurateDelayUs)
    i.TickTIM_IRQHander                      0x00001adc   Section        0  motorcontrol.o(i.TickTIM_IRQHander)
    i.UART1_IRQHandler                       0x00001b48   Section        0  interrupts_cw32f030.o(i.UART1_IRQHandler)
    i.UART2_IRQHandler                       0x00001b4a   Section        0  interrupts_cw32f030.o(i.UART2_IRQHandler)
    i.UART3_IRQHandler                       0x00001b4c   Section        0  interrupts_cw32f030.o(i.UART3_IRQHandler)
    i.USART_ClearFlag                        0x00001b4e   Section        0  cw32f030_uart.o(i.USART_ClearFlag)
    i.USART_ClearITPendingBit                0x00001b56   Section        0  cw32f030_uart.o(i.USART_ClearITPendingBit)
    i.USART_GetFlagStatus                    0x00001b5e   Section        0  cw32f030_uart.o(i.USART_GetFlagStatus)
    i.USART_GetITStatus                      0x00001b6c   Section        0  cw32f030_uart.o(i.USART_GetITStatus)
    i.USART_SendData_8bit                    0x00001b7a   Section        0  cw32f030_uart.o(i.USART_SendData_8bit)
    i.VC1_IRQHandler                         0x00001b7e   Section        0  interrupts_cw32f030.o(i.VC1_IRQHandler)
    i.VC2_IRQHandler                         0x00001b80   Section        0  interrupts_cw32f030.o(i.VC2_IRQHandler)
    i.WDT_IRQHandler                         0x00001b82   Section        0  interrupts_cw32f030.o(i.WDT_IRQHandler)
    i._ADC_Init_                             0x00001b84   Section        0  motorcontrol.o(i._ADC_Init_)
    _ADC_Init_                               0x00001b85   Thumb Code    68  motorcontrol.o(i._ADC_Init_)
    i._DMA_Init_                             0x00001bcc   Section        0  motorcontrol.o(i._DMA_Init_)
    _DMA_Init_                               0x00001bcd   Thumb Code   232  motorcontrol.o(i._DMA_Init_)
    i._GPIO_Init_                            0x00001cc4   Section        0  motorcontrol.o(i._GPIO_Init_)
    _GPIO_Init_                              0x00001cc5   Thumb Code   130  motorcontrol.o(i._GPIO_Init_)
    i._TIM_Init_                             0x00001d54   Section        0  motorcontrol.o(i._TIM_Init_)
    _TIM_Init_                               0x00001d55   Thumb Code   332  motorcontrol.o(i._TIM_Init_)
    i.__0printf$bare                         0x00001eb8   Section        0  printfb.o(i.__0printf$bare)
    i.__ARM_clz                              0x00001ecc   Section        0  depilogue.o(i.__ARM_clz)
    i.__ARM_common_switch8                   0x00001efa   Section        0  cw32f030_rcc.o(i.__ARM_common_switch8)
    i.__NVIC_EnableIRQ                       0x00001f14   Section        0  motorcontrol.o(i.__NVIC_EnableIRQ)
    __NVIC_EnableIRQ                         0x00001f15   Thumb Code    18  motorcontrol.o(i.__NVIC_EnableIRQ)
    i.__NVIC_SetPriority                     0x00001f2c   Section        0  motorcontrol.o(i.__NVIC_SetPriority)
    __NVIC_SetPriority                       0x00001f2d   Thumb Code    60  motorcontrol.o(i.__NVIC_SetPriority)
    i.__scatterload_copy                     0x00001f70   Section       14  handlers.o(i.__scatterload_copy)
    i.__scatterload_null                     0x00001f7e   Section        2  handlers.o(i.__scatterload_null)
    i.__scatterload_zeroinit                 0x00001f80   Section       14  handlers.o(i.__scatterload_zeroinit)
    i._printf_core                           0x00001f8e   Section        0  printfb.o(i._printf_core)
    _printf_core                             0x00001f8f   Thumb Code    30  printfb.o(i._printf_core)
    i.fputc                                  0x00001fac   Section        0  exchangemessageport.o(i.fputc)
    i.led_init                               0x00001fd0   Section        0  main.o(i.led_init)
    i.main                                   0x00002008   Section        0  main.o(i.main)
    .constdata                               0x0000205c   Section       18  motorcontrol.o(.constdata)
    .constdata                               0x0000206e   Section       64  sensorlessp.o(.constdata)
    .constdata                               0x000020b0   Section      100  cw32f030_rcc.o(.constdata)
    .data                                    0x20000000   Section       38  motorcontrol.o(.data)
    motor_dir                                0x20000000   Data           1  motorcontrol.o(.data)
    adc_state                                0x20000001   Data           1  motorcontrol.o(.data)
    duty_crcle                               0x20000002   Data           1  motorcontrol.o(.data)
    pole_pairs                               0x20000003   Data           1  motorcontrol.o(.data)
    motor_state                              0x20000004   Data           1  motorcontrol.o(.data)
    tick_counter                             0x20000005   Data           1  motorcontrol.o(.data)
    adc_start_pos                            0x20000006   Data           1  motorcontrol.o(.data)
    zero_point_flag                          0x20000007   Data           1  motorcontrol.o(.data)
    commutation_state                        0x20000008   Data           1  motorcontrol.o(.data)
    motor_step                               0x20000009   Data           1  motorcontrol.o(.data)
    drive_method                             0x2000000a   Data           1  motorcontrol.o(.data)
    zero_point_counter                       0x2000000b   Data           1  motorcontrol.o(.data)
    zero_point_check_counter                 0x2000000c   Data           1  motorcontrol.o(.data)
    step_time                                0x2000000e   Data           2  motorcontrol.o(.data)
    pwm_tim_reload_value                     0x20000010   Data           2  motorcontrol.o(.data)
    pwm_tim_compare_value                    0x20000012   Data           2  motorcontrol.o(.data)
    motor_speed                              0x20000014   Data           4  motorcontrol.o(.data)
    step_counter                             0x20000018   Data           4  motorcontrol.o(.data)
    adc_start_moment_ratio                   0x2000001c   Data           4  motorcontrol.o(.data)
    adc_channel                              0x20000020   Data           6  motorcontrol.o(.data)
    .data                                    0x20000028   Section        4  delay.o(.data)
    cycle_count                              0x20000028   Data           4  delay.o(.data)
    .data                                    0x2000002c   Section       12  inputcapture.o(.data)
    pin_state                                0x2000002c   Data           1  inputcapture.o(.data)
    counter                                  0x2000002d   Data           1  inputcapture.o(.data)
    start_time                               0x2000002e   Data           2  inputcapture.o(.data)
    end_start                                0x20000030   Data           2  inputcapture.o(.data)
    .data                                    0x20000038   Section      531  exchangemessageport.o(.data)
    upd_state                                0x20000038   Data           1  exchangemessageport.o(.data)
    upd_counter_max_num                      0x20000039   Data           1  exchangemessageport.o(.data)
    upd_addr                                 0x2000003c   Data           4  exchangemessageport.o(.data)
    __tagsym$$used                           0x20000040   Number         0  exchangemessageport.o(.data)
    cmd_state                                0x20000040   Data           1  exchangemessageport.o(.data)
    cmd                                      0x20000041   Data          10  exchangemessageport.o(.data)
    upd_buffer                               0x2000004b   Data         512  exchangemessageport.o(.data)
    .data                                    0x2000024c   Section        4  system_cw32f030.o(.data)
    .data                                    0x20000250   Section        4  stdout.o(.data)
    .bss                                     0x20000254   Section       12  motorcontrol.o(.bss)
    adc_data                                 0x20000254   Data          12  motorcontrol.o(.bss)
    STACK                                    0x20000260   Section     1024  startup_cw32f030.o(STACK)

    Global Symbols

    Symbol Name                              Value     Ov Type        Size  Object(Section)

    BuildAttributes$$THM_ISAv3M$S$PE$A:L22$X:L11$S22$IEEE1$IW$USESV6$~STKCKD$USESV7$~SHL$OTIME$ROPI$EBA8$MICROLIB$REQ8$PRES8$EABIv2 0x00000000   Number         0  anon$$obj.o ABSOLUTE
    __ARM_use_no_argv                        0x00000000   Number         0  main.o ABSOLUTE
    __Vectors                                0x00000000   Data           0  startup_cw32f030.o(RESET)
    __arm_fini_                               - Undefined Weak Reference
    __cpp_initialize__aeabi_                  - Undefined Weak Reference
    __cxa_finalize                            - Undefined Weak Reference
    _clock_init                               - Undefined Weak Reference
    _microlib_exit                            - Undefined Weak Reference
    __Vectors_End                            0x000000c0   Data           0  startup_cw32f030.o(RESET)
    __Vectors_Size                           0x000000c0   Number         0  startup_cw32f030.o ABSOLUTE
    __main                                   0x000000c1   Thumb Code     0  entry.o(.ARM.Collect$$$$00000000)
    _main_stk                                0x000000c1   Thumb Code     0  entry2.o(.ARM.Collect$$$$00000001)
    _main_scatterload                        0x000000c5   Thumb Code     0  entry5.o(.ARM.Collect$$$$00000004)
    __main_after_scatterload                 0x000000c9   Thumb Code     0  entry5.o(.ARM.Collect$$$$00000004)
    _main_clock                              0x000000c9   Thumb Code     0  entry7b.o(.ARM.Collect$$$$00000008)
    _main_cpp_init                           0x000000c9   Thumb Code     0  entry8b.o(.ARM.Collect$$$$0000000A)
    _main_init                               0x000000c9   Thumb Code     0  entry9a.o(.ARM.Collect$$$$0000000B)
    __rt_lib_shutdown_fini                   0x000000d1   Thumb Code     0  entry12b.o(.ARM.Collect$$$$0000000E)
    __rt_final_cpp                           0x000000d5   Thumb Code     0  entry10a.o(.ARM.Collect$$$$0000000F)
    __rt_final_exit                          0x000000d5   Thumb Code     0  entry11a.o(.ARM.Collect$$$$00000011)
    Reset_Handler                            0x000000d9   Thumb Code    14  startup_cw32f030.o(.text)
    __aeabi_uidiv                            0x00000101   Thumb Code     0  uidiv.o(.text)
    __aeabi_uidivmod                         0x00000101   Thumb Code    44  uidiv.o(.text)
    __aeabi_memcpy                           0x0000012d   Thumb Code    36  memcpya.o(.text)
    __aeabi_memcpy4                          0x0000012d   Thumb Code     0  memcpya.o(.text)
    __aeabi_memcpy8                          0x0000012d   Thumb Code     0  memcpya.o(.text)
    __aeabi_fadd                             0x00000151   Thumb Code   162  fadd.o(.text)
    __aeabi_fsub                             0x000001f3   Thumb Code     8  fadd.o(.text)
    __aeabi_frsub                            0x000001fb   Thumb Code     8  fadd.o(.text)
    __aeabi_fmul                             0x00000203   Thumb Code   122  fmul.o(.text)
    __aeabi_dadd                             0x0000027d   Thumb Code   330  dadd.o(.text)
    __aeabi_dsub                             0x000003c7   Thumb Code    12  dadd.o(.text)
    __aeabi_drsub                            0x000003d3   Thumb Code    12  dadd.o(.text)
    __aeabi_dmul                             0x000003e5   Thumb Code   202  dmul.o(.text)
    __aeabi_ddiv                             0x000004b5   Thumb Code   234  ddiv.o(.text)
    __ARM_scalbn                             0x000005a5   Thumb Code    44  dscalb.o(.text)
    scalbn                                   0x000005a5   Thumb Code     0  dscalb.o(.text)
    __aeabi_i2f                              0x000005d1   Thumb Code    22  fflti.o(.text)
    __aeabi_ui2f                             0x000005e7   Thumb Code    14  ffltui.o(.text)
    __aeabi_ui2d                             0x000005f5   Thumb Code    24  dfltui.o(.text)
    __aeabi_f2uiz                            0x00000611   Thumb Code    40  ffixui.o(.text)
    __aeabi_d2uiz                            0x00000639   Thumb Code    50  dfixui.o(.text)
    __aeabi_cdcmpeq                          0x00000675   Thumb Code     0  cdcmple.o(.text)
    __aeabi_cdcmple                          0x00000675   Thumb Code    38  cdcmple.o(.text)
    __aeabi_cdrcmple                         0x0000069d   Thumb Code    38  cdrcmple.o(.text)
    __aeabi_llsl                             0x000006c5   Thumb Code    32  llshl.o(.text)
    _ll_shift_l                              0x000006c5   Thumb Code     0  llshl.o(.text)
    __aeabi_llsr                             0x000006e5   Thumb Code    34  llushr.o(.text)
    _ll_ushift_r                             0x000006e5   Thumb Code     0  llushr.o(.text)
    __aeabi_lasr                             0x00000707   Thumb Code    38  llsshr.o(.text)
    _ll_sshift_r                             0x00000707   Thumb Code     0  llsshr.o(.text)
    __I$use$fp                               0x0000072d   Thumb Code     0  iusefp.o(.text)
    _float_round                             0x0000072d   Thumb Code    16  fepilogue.o(.text)
    _float_epilogue                          0x0000073d   Thumb Code   114  fepilogue.o(.text)
    _double_round                            0x000007af   Thumb Code    26  depilogue.o(.text)
    _double_epilogue                         0x000007c9   Thumb Code   164  depilogue.o(.text)
    __scatterload                            0x0000086d   Thumb Code    28  init.o(.text)
    __scatterload_rt2                        0x0000086d   Thumb Code     0  init.o(.text)
    __decompress                             0x00000891   Thumb Code     0  __dczerorl.o(.text)
    __decompress0                            0x00000891   Thumb Code    58  __dczerorl.o(.text)
    BTIM_ClearITPendingBit                   0x000008cb   Thumb Code     8  cw32f030_btim.o(RAMCODE)
    ADCDMA_IRQHander                         0x000008d5   Thumb Code   128  motorcontrol.o(i.ADCDMA_IRQHander)
    ADC_Enable                               0x0000096d   Thumb Code    24  cw32f030_adc.o(i.ADC_Enable)
    ADC_GetITStatus                          0x00000989   Thumb Code    16  cw32f030_adc.o(i.ADC_GetITStatus)
    ADC_IRQHandler                           0x0000099d   Thumb Code     2  interrupts_cw32f030.o(i.ADC_IRQHandler)
    ADC_Init                                 0x000009a1   Thumb Code   100  cw32f030_adc.o(i.ADC_Init)
    ATIM_ClearITPendingBit                   0x00000a15   Thumb Code     8  cw32f030_atim.o(i.ATIM_ClearITPendingBit)
    ATIM_Cmd                                 0x00000a21   Thumb Code    18  cw32f030_atim.o(i.ATIM_Cmd)
    ATIM_CtrlPWMOutputs                      0x00000a39   Thumb Code    18  cw32f030_atim.o(i.ATIM_CtrlPWMOutputs)
    ATIM_GetITStatus                         0x00000a51   Thumb Code    16  cw32f030_atim.o(i.ATIM_GetITStatus)
    ATIM_IRQHandler                          0x00000a65   Thumb Code     8  interrupts_cw32f030.o(i.ATIM_IRQHandler)
    ATIM_ITConfig                            0x00000a6d   Thumb Code    22  cw32f030_atim.o(i.ATIM_ITConfig)
    ATIM_Init                                0x00000a89   Thumb Code    92  cw32f030_atim.o(i.ATIM_Init)
    ATIM_OC1AInit                            0x00000aed   Thumb Code    96  cw32f030_atim.o(i.ATIM_OC1AInit)
    ATIM_OC2AInit                            0x00000b51   Thumb Code   102  cw32f030_atim.o(i.ATIM_OC2AInit)
    ATIM_OC3AInit                            0x00000bbd   Thumb Code   102  cw32f030_atim.o(i.ATIM_OC3AInit)
    ATIM_OC4Init                             0x00000c29   Thumb Code    60  cw32f030_atim.o(i.ATIM_OC4Init)
    ATIM_PWMOutputConfig                     0x00000c69   Thumb Code    50  cw32f030_atim.o(i.ATIM_PWMOutputConfig)
    ATIM_SetCompare1A                        0x00000ca1   Thumb Code     6  cw32f030_atim.o(i.ATIM_SetCompare1A)
    ATIM_SetCompare2A                        0x00000cad   Thumb Code     6  cw32f030_atim.o(i.ATIM_SetCompare2A)
    ATIM_SetCompare3A                        0x00000cb9   Thumb Code     6  cw32f030_atim.o(i.ATIM_SetCompare3A)
    ATIM_SetCompare4                         0x00000cc5   Thumb Code     6  cw32f030_atim.o(i.ATIM_SetCompare4)
    AWT_IRQHandler                           0x00000cd1   Thumb Code     2  interrupts_cw32f030.o(i.AWT_IRQHandler)
    BLDC_Start                               0x00000cd5   Thumb Code    20  motorcontrol.o(i.BLDC_Start)
    BTIM1_IRQHandler                         0x00000ced   Thumb Code     8  interrupts_cw32f030.o(i.BTIM1_IRQHandler)
    BTIM2_IRQHandler                         0x00000cf5   Thumb Code     2  interrupts_cw32f030.o(i.BTIM2_IRQHandler)
    BTIM3_IRQHandler                         0x00000cf7   Thumb Code     8  interrupts_cw32f030.o(i.BTIM3_IRQHandler)
    BTIM_Cmd                                 0x00000cff   Thumb Code    24  cw32f030_btim.o(i.BTIM_Cmd)
    BTIM_GetCounter                          0x00000d17   Thumb Code     6  cw32f030_btim.o(i.BTIM_GetCounter)
    BTIM_GetITStatus                         0x00000d1d   Thumb Code    14  cw32f030_btim.o(i.BTIM_GetITStatus)
    BTIM_ITConfig                            0x00000d2b   Thumb Code    20  cw32f030_btim.o(i.BTIM_ITConfig)
    BTIM_SetAutoreload                       0x00000d3f   Thumb Code     4  cw32f030_btim.o(i.BTIM_SetAutoreload)
    BTIM_SetCounter                          0x00000d43   Thumb Code     4  cw32f030_btim.o(i.BTIM_SetCounter)
    BTIM_TimeBaseInit                        0x00000d49   Thumb Code    28  cw32f030_btim.o(i.BTIM_TimeBaseInit)
    CRC16_Calc_8bit                          0x00000d69   Thumb Code    24  cw32f030_crc.o(i.CRC16_Calc_8bit)
    CommutationDelayTIM_IRQHander            0x00000d85   Thumb Code   108  motorcontrol.o(i.CommutationDelayTIM_IRQHander)
    DMACH1_IRQHandler                        0x00000df9   Thumb Code     8  interrupts_cw32f030.o(i.DMACH1_IRQHandler)
    DMACH23_IRQHandler                       0x00000e01   Thumb Code     2  interrupts_cw32f030.o(i.DMACH23_IRQHandler)
    DMACH45_IRQHandler                       0x00000e03   Thumb Code     2  interrupts_cw32f030.o(i.DMACH45_IRQHandler)
    DMA_ClearITPendingBit                    0x00000e05   Thumb Code    10  cw32f030_dma.o(i.DMA_ClearITPendingBit)
    DMA_Cmd                                  0x00000e15   Thumb Code    24  cw32f030_dma.o(i.DMA_Cmd)
    DMA_GetFlagStatus                        0x00000e2d   Thumb Code     8  cw32f030_dma.o(i.DMA_GetFlagStatus)
    DMA_GetITStatus                          0x00000e35   Thumb Code    16  cw32f030_dma.o(i.DMA_GetITStatus)
    DMA_ITConfig                             0x00000e49   Thumb Code    20  cw32f030_dma.o(i.DMA_ITConfig)
    DMA_Init                                 0x00000e5d   Thumb Code    62  cw32f030_dma.o(i.DMA_Init)
    DMA_SWTrigCmd                            0x00000e9b   Thumb Code    10  cw32f030_dma.o(i.DMA_SWTrigCmd)
    ExcMesPort_IRQHandler                    0x00000ea5   Thumb Code   344  exchangemessageport.o(i.ExcMesPort_IRQHandler)
    FAULT_IRQHandler                         0x00001021   Thumb Code     2  interrupts_cw32f030.o(i.FAULT_IRQHandler)
    FLASHRAM_IRQHandler                      0x00001023   Thumb Code     2  interrupts_cw32f030.o(i.FLASHRAM_IRQHandler)
    FLASH_ErasePage                          0x00001025   Thumb Code    72  cw32f030_flash.o(i.FLASH_ErasePage)
    FLASH_LockPage                           0x00001075   Thumb Code    24  cw32f030_flash.o(i.FLASH_LockPage)
    FLASH_SetLatency                         0x00001095   Thumb Code    32  cw32f030_flash.o(i.FLASH_SetLatency)
    FLASH_UnlockPage                         0x000010c1   Thumb Code    24  cw32f030_flash.o(i.FLASH_UnlockPage)
    GPIOA_IRQHandler                         0x000010e1   Thumb Code     2  interrupts_cw32f030.o(i.GPIOA_IRQHandler)
    GPIOB_IRQHandler                         0x000010e3   Thumb Code     2  interrupts_cw32f030.o(i.GPIOB_IRQHandler)
    GPIOC_IRQHandler                         0x000010e5   Thumb Code     2  interrupts_cw32f030.o(i.GPIOC_IRQHandler)
    GPIOF_IRQHandler                         0x000010e7   Thumb Code     2  interrupts_cw32f030.o(i.GPIOF_IRQHandler)
    GPIO_Init                                0x000010e9   Thumb Code   240  cw32f030_gpio.o(i.GPIO_Init)
    GPIO_ReadPin                             0x000011dd   Thumb Code    14  cw32f030_gpio.o(i.GPIO_ReadPin)
    GTIM1_IRQHandler                         0x000011eb   Thumb Code     2  interrupts_cw32f030.o(i.GTIM1_IRQHandler)
    GTIM2_IRQHandler                         0x000011ed   Thumb Code     2  interrupts_cw32f030.o(i.GTIM2_IRQHandler)
    GTIM3_IRQHandler                         0x000011ef   Thumb Code     2  interrupts_cw32f030.o(i.GTIM3_IRQHandler)
    GTIM4_IRQHandler                         0x000011f1   Thumb Code     8  interrupts_cw32f030.o(i.GTIM4_IRQHandler)
    GTIM_ClearITPendingBit                   0x000011f9   Thumb Code    12  cw32f030_gtim.o(i.GTIM_ClearITPendingBit)
    GTIM_GetCapture1                         0x00001205   Thumb Code    10  cw32f030_gtim.o(i.GTIM_GetCapture1)
    GTIM_GetITStatus                         0x0000120f   Thumb Code    20  cw32f030_gtim.o(i.GTIM_GetITStatus)
    HardFault_Handler                        0x00001223   Thumb Code     2  interrupts_cw32f030.o(i.HardFault_Handler)
    I2C1_IRQHandler                          0x00001225   Thumb Code     2  interrupts_cw32f030.o(i.I2C1_IRQHandler)
    I2C2_IRQHandler                          0x00001227   Thumb Code     2  interrupts_cw32f030.o(i.I2C2_IRQHandler)
    InputCapture_IRQHander                   0x00001229   Thumb Code   124  inputcapture.o(i.InputCapture_IRQHander)
    LVD_IRQHandler                           0x000012ad   Thumb Code     2  interrupts_cw32f030.o(i.LVD_IRQHandler)
    MCU_Init                                 0x000012af   Thumb Code    20  main.o(i.MCU_Init)
    MotorControl_GetDutyCycle                0x0000148d   Thumb Code     6  motorcontrol.o(i.MotorControl_GetDutyCycle)
    MotorControl_GetTotalCurrent             0x00001499   Thumb Code    48  motorcontrol.o(i.MotorControl_GetTotalCurrent)
    MotorControl_Init                        0x000014e1   Thumb Code    34  motorcontrol.o(i.MotorControl_Init)
    MotorControl_SetDutyCrcle                0x0000150d   Thumb Code   240  motorcontrol.o(i.MotorControl_SetDutyCrcle)
    NMI_Handler                              0x00001611   Thumb Code     2  interrupts_cw32f030.o(i.NMI_Handler)
    PWMTIM_IRQHandler                        0x00001613   Thumb Code    24  motorcontrol.o(i.PWMTIM_IRQHandler)
    PendSV_Handler                           0x0000162b   Thumb Code     2  interrupts_cw32f030.o(i.PendSV_Handler)
    RCC_AHBPeriphClk_Enable                  0x0000162d   Thumb Code    22  cw32f030_rcc.o(i.RCC_AHBPeriphClk_Enable)
    RCC_APBPeriphClk_Enable2                 0x00001649   Thumb Code    22  cw32f030_rcc.o(i.RCC_APBPeriphClk_Enable2)
    RCC_HCLKPRS_Config                       0x00001665   Thumb Code    18  cw32f030_rcc.o(i.RCC_HCLKPRS_Config)
    RCC_HSI_Enable                           0x00001685   Thumb Code    30  cw32f030_rcc.o(i.RCC_HSI_Enable)
    RCC_IRQHandler                           0x000016ad   Thumb Code     2  interrupts_cw32f030.o(i.RCC_IRQHandler)
    RCC_PCLKPRS_Config                       0x000016b1   Thumb Code    18  cw32f030_rcc.o(i.RCC_PCLKPRS_Config)
    RCC_PLL_Enable                           0x000016d1   Thumb Code   132  cw32f030_rcc.o(i.RCC_PLL_Enable)
    RCC_SysClk_Switch                        0x00001761   Thumb Code    48  cw32f030_rcc.o(i.RCC_SysClk_Switch)
    RCC_Sysctrl_GetHClkFreq                  0x00001799   Thumb Code   130  cw32f030_rcc.o(i.RCC_Sysctrl_GetHClkFreq)
    RCC_Sysctrl_GetPClkFreq                  0x00001831   Thumb Code    18  cw32f030_rcc.o(i.RCC_Sysctrl_GetPClkFreq)
    RCC_SystemCoreClockUpdate                0x00001849   Thumb Code     6  cw32f030_rcc.o(i.RCC_SystemCoreClockUpdate)
    RTC_IRQHandler                           0x00001855   Thumb Code     2  interrupts_cw32f030.o(i.RTC_IRQHandler)
    SPI1_IRQHandler                          0x00001857   Thumb Code     2  interrupts_cw32f030.o(i.SPI1_IRQHandler)
    SPI2_IRQHandler                          0x00001859   Thumb Code     2  interrupts_cw32f030.o(i.SPI2_IRQHandler)
    SVC_Handler                              0x0000185b   Thumb Code     2  interrupts_cw32f030.o(i.SVC_Handler)
    SensorlessMotor_Start                    0x0000185d   Thumb Code   172  motorcontrol.o(i.SensorlessMotor_Start)
    SysTick_Handler                          0x00001915   Thumb Code     2  delay.o(i.SysTick_Handler)
    SysTick_Init                             0x00001919   Thumb Code    56  delay.o(i.SysTick_Init)
    SystemCoreClockUpdate                    0x00001959   Thumb Code     8  system_cw32f030.o(i.SystemCoreClockUpdate)
    SystemInit                               0x00001969   Thumb Code    46  system_cw32f030.o(i.SystemInit)
    SystemRCC_Init                           0x0000199d   Thumb Code    54  main.o(i.SystemRCC_Init)
    Systick_AccurateDelayMs                  0x000019dd   Thumb Code   112  delay.o(i.Systick_AccurateDelayMs)
    Systick_AccurateDelayUs                  0x00001a5d   Thumb Code   114  delay.o(i.Systick_AccurateDelayUs)
    TickTIM_IRQHander                        0x00001add   Thumb Code    90  motorcontrol.o(i.TickTIM_IRQHander)
    UART1_IRQHandler                         0x00001b49   Thumb Code     2  interrupts_cw32f030.o(i.UART1_IRQHandler)
    UART2_IRQHandler                         0x00001b4b   Thumb Code     2  interrupts_cw32f030.o(i.UART2_IRQHandler)
    UART3_IRQHandler                         0x00001b4d   Thumb Code     2  interrupts_cw32f030.o(i.UART3_IRQHandler)
    USART_ClearFlag                          0x00001b4f   Thumb Code     8  cw32f030_uart.o(i.USART_ClearFlag)
    USART_ClearITPendingBit                  0x00001b57   Thumb Code     8  cw32f030_uart.o(i.USART_ClearITPendingBit)
    USART_GetFlagStatus                      0x00001b5f   Thumb Code    14  cw32f030_uart.o(i.USART_GetFlagStatus)
    USART_GetITStatus                        0x00001b6d   Thumb Code    14  cw32f030_uart.o(i.USART_GetITStatus)
    USART_SendData_8bit                      0x00001b7b   Thumb Code     4  cw32f030_uart.o(i.USART_SendData_8bit)
    VC1_IRQHandler                           0x00001b7f   Thumb Code     2  interrupts_cw32f030.o(i.VC1_IRQHandler)
    VC2_IRQHandler                           0x00001b81   Thumb Code     2  interrupts_cw32f030.o(i.VC2_IRQHandler)
    WDT_IRQHandler                           0x00001b83   Thumb Code     2  interrupts_cw32f030.o(i.WDT_IRQHandler)
    __0printf$bare                           0x00001eb9   Thumb Code    12  printfb.o(i.__0printf$bare)
    __1printf$bare                           0x00001eb9   Thumb Code     0  printfb.o(i.__0printf$bare)
    __2printf                                0x00001eb9   Thumb Code     0  printfb.o(i.__0printf$bare)
    __ARM_clz                                0x00001ecd   Thumb Code    46  depilogue.o(i.__ARM_clz)
    __ARM_common_switch8                     0x00001efb   Thumb Code    26  cw32f030_rcc.o(i.__ARM_common_switch8)
    __scatterload_copy                       0x00001f71   Thumb Code    14  handlers.o(i.__scatterload_copy)
    __scatterload_null                       0x00001f7f   Thumb Code     2  handlers.o(i.__scatterload_null)
    __scatterload_zeroinit                   0x00001f81   Thumb Code    14  handlers.o(i.__scatterload_zeroinit)
    fputc                                    0x00001fad   Thumb Code    30  exchangemessageport.o(i.fputc)
    led_init                                 0x00001fd1   Thumb Code    48  main.o(i.led_init)
    main                                     0x00002009   Thumb Code    66  main.o(i.main)
    bemf_mapping_table                       0x0000205c   Data           6  motorcontrol.o(.constdata)
    compare_position_table                   0x00002062   Data          12  motorcontrol.o(.constdata)
    RAMP_TABLE                               0x0000206e   Data          64  sensorlessp.o(.constdata)
    hsiprs_tbl                               0x000020b0   Data          64  cw32f030_rcc.o(.constdata)
    Region$$Table$$Base                      0x00002114   Number         0  anon$$obj.o(Region$$Table)
    Region$$Table$$Limit                     0x00002134   Number         0  anon$$obj.o(Region$$Table)
    pulse_width                              0x20000034   Data           4  inputcapture.o(.data)
    SystemCoreClock                          0x2000024c   Data           4  system_cw32f030.o(.data)
    __stdout                                 0x20000250   Data           4  stdout.o(.data)
    __initial_sp                             0x20000660   Data           0  startup_cw32f030.o(STACK)



==============================================================================

Memory Map of the image

  Image Entry point : 0x000000c1

  Load Region LR_IROM1 (Base: 0x00000000, Size: 0x00002388, Max: 0x00010000, ABSOLUTE, COMPRESSED[0x00002154])

    Execution Region ER_IROM1 (Exec base: 0x00000000, Load base: 0x00000000, Size: 0x00002134, Max: 0x00010000, ABSOLUTE)

    Exec Addr    Load Addr    Size         Type   Attr      Idx    E Section Name        Object

    0x00000000   0x00000000   0x000000c0   Data   RO         2736    RESET               startup_cw32f030.o
    0x000000c0   0x000000c0   0x00000000   Code   RO         2803  * .ARM.Collect$$$$00000000  mc_p.l(entry.o)
    0x000000c0   0x000000c0   0x00000004   Code   RO         3108    .ARM.Collect$$$$00000001  mc_p.l(entry2.o)
    0x000000c4   0x000000c4   0x00000004   Code   RO         3111    .ARM.Collect$$$$00000004  mc_p.l(entry5.o)
    0x000000c8   0x000000c8   0x00000000   Code   RO         3113    .ARM.Collect$$$$00000008  mc_p.l(entry7b.o)
    0x000000c8   0x000000c8   0x00000000   Code   RO         3115    .ARM.Collect$$$$0000000A  mc_p.l(entry8b.o)
    0x000000c8   0x000000c8   0x00000008   Code   RO         3116    .ARM.Collect$$$$0000000B  mc_p.l(entry9a.o)
    0x000000d0   0x000000d0   0x00000004   Code   RO         3123    .ARM.Collect$$$$0000000E  mc_p.l(entry12b.o)
    0x000000d4   0x000000d4   0x00000000   Code   RO         3118    .ARM.Collect$$$$0000000F  mc_p.l(entry10a.o)
    0x000000d4   0x000000d4   0x00000000   Code   RO         3120    .ARM.Collect$$$$00000011  mc_p.l(entry11a.o)
    0x000000d4   0x000000d4   0x00000004   Code   RO         3109    .ARM.Collect$$$$00002712  mc_p.l(entry2.o)
    0x000000d8   0x000000d8   0x00000028   Code   RO         2737    .text               startup_cw32f030.o
    0x00000100   0x00000100   0x0000002c   Code   RO         2806    .text               mc_p.l(uidiv.o)
    0x0000012c   0x0000012c   0x00000024   Code   RO         2810    .text               mc_p.l(memcpya.o)
    0x00000150   0x00000150   0x000000b2   Code   RO         3076    .text               mf_p.l(fadd.o)
    0x00000202   0x00000202   0x0000007a   Code   RO         3078    .text               mf_p.l(fmul.o)
    0x0000027c   0x0000027c   0x00000168   Code   RO         3084    .text               mf_p.l(dadd.o)
    0x000003e4   0x000003e4   0x000000d0   Code   RO         3086    .text               mf_p.l(dmul.o)
    0x000004b4   0x000004b4   0x000000f0   Code   RO         3088    .text               mf_p.l(ddiv.o)
    0x000005a4   0x000005a4   0x0000002c   Code   RO         3090    .text               mf_p.l(dscalb.o)
    0x000005d0   0x000005d0   0x00000016   Code   RO         3092    .text               mf_p.l(fflti.o)
    0x000005e6   0x000005e6   0x0000000e   Code   RO         3094    .text               mf_p.l(ffltui.o)
    0x000005f4   0x000005f4   0x0000001c   Code   RO         3096    .text               mf_p.l(dfltui.o)
    0x00000610   0x00000610   0x00000028   Code   RO         3098    .text               mf_p.l(ffixui.o)
    0x00000638   0x00000638   0x0000003c   Code   RO         3100    .text               mf_p.l(dfixui.o)
    0x00000674   0x00000674   0x00000028   Code   RO         3104    .text               mf_p.l(cdcmple.o)
    0x0000069c   0x0000069c   0x00000028   Code   RO         3106    .text               mf_p.l(cdrcmple.o)
    0x000006c4   0x000006c4   0x00000020   Code   RO         3127    .text               mc_p.l(llshl.o)
    0x000006e4   0x000006e4   0x00000022   Code   RO         3129    .text               mc_p.l(llushr.o)
    0x00000706   0x00000706   0x00000026   Code   RO         3131    .text               mc_p.l(llsshr.o)
    0x0000072c   0x0000072c   0x00000000   Code   RO         3133    .text               mc_p.l(iusefp.o)
    0x0000072c   0x0000072c   0x00000082   Code   RO         3134    .text               mf_p.l(fepilogue.o)
    0x000007ae   0x000007ae   0x000000be   Code   RO         3136    .text               mf_p.l(depilogue.o)
    0x0000086c   0x0000086c   0x00000024   Code   RO         3142    .text               mc_p.l(init.o)
    0x00000890   0x00000890   0x0000003a   Code   RO         3152    .text               mc_p.l(__dczerorl.o)
    0x000008ca   0x000008ca   0x00000008   Code   RO         1822    RAMCODE             cw32f030_btim.o
    0x000008d2   0x000008d2   0x00000002   PAD
    0x000008d4   0x000008d4   0x00000098   Code   RO          351    i.ADCDMA_IRQHander  motorcontrol.o
    0x0000096c   0x0000096c   0x0000001c   Code   RO         1218    i.ADC_Enable        cw32f030_adc.o
    0x00000988   0x00000988   0x00000014   Code   RO         1224    i.ADC_GetITStatus   cw32f030_adc.o
    0x0000099c   0x0000099c   0x00000002   Code   RO          118    i.ADC_IRQHandler    interrupts_cw32f030.o
    0x0000099e   0x0000099e   0x00000002   PAD
    0x000009a0   0x000009a0   0x00000074   Code   RO         1233    i.ADC_Init          cw32f030_adc.o
    0x00000a14   0x00000a14   0x0000000c   Code   RO         1538    i.ATIM_ClearITPendingBit  cw32f030_atim.o
    0x00000a20   0x00000a20   0x00000018   Code   RO         1539    i.ATIM_Cmd          cw32f030_atim.o
    0x00000a38   0x00000a38   0x00000018   Code   RO         1540    i.ATIM_CtrlPWMOutputs  cw32f030_atim.o
    0x00000a50   0x00000a50   0x00000014   Code   RO         1549    i.ATIM_GetITStatus  cw32f030_atim.o
    0x00000a64   0x00000a64   0x00000008   Code   RO          119    i.ATIM_IRQHandler   interrupts_cw32f030.o
    0x00000a6c   0x00000a6c   0x0000001c   Code   RO         1556    i.ATIM_ITConfig     cw32f030_atim.o
    0x00000a88   0x00000a88   0x00000064   Code   RO         1557    i.ATIM_Init         cw32f030_atim.o
    0x00000aec   0x00000aec   0x00000064   Code   RO         1559    i.ATIM_OC1AInit     cw32f030_atim.o
    0x00000b50   0x00000b50   0x0000006c   Code   RO         1561    i.ATIM_OC2AInit     cw32f030_atim.o
    0x00000bbc   0x00000bbc   0x0000006c   Code   RO         1563    i.ATIM_OC3AInit     cw32f030_atim.o
    0x00000c28   0x00000c28   0x00000040   Code   RO         1565    i.ATIM_OC4Init      cw32f030_atim.o
    0x00000c68   0x00000c68   0x00000038   Code   RO         1566    i.ATIM_PWMOutputConfig  cw32f030_atim.o
    0x00000ca0   0x00000ca0   0x0000000c   Code   RO         1567    i.ATIM_SetCompare1A  cw32f030_atim.o
    0x00000cac   0x00000cac   0x0000000c   Code   RO         1569    i.ATIM_SetCompare2A  cw32f030_atim.o
    0x00000cb8   0x00000cb8   0x0000000c   Code   RO         1571    i.ATIM_SetCompare3A  cw32f030_atim.o
    0x00000cc4   0x00000cc4   0x0000000c   Code   RO         1573    i.ATIM_SetCompare4  cw32f030_atim.o
    0x00000cd0   0x00000cd0   0x00000002   Code   RO          120    i.AWT_IRQHandler    interrupts_cw32f030.o
    0x00000cd2   0x00000cd2   0x00000002   PAD
    0x00000cd4   0x00000cd4   0x00000018   Code   RO          352    i.BLDC_Start        motorcontrol.o
    0x00000cec   0x00000cec   0x00000008   Code   RO          121    i.BTIM1_IRQHandler  interrupts_cw32f030.o
    0x00000cf4   0x00000cf4   0x00000002   Code   RO          122    i.BTIM2_IRQHandler  interrupts_cw32f030.o
    0x00000cf6   0x00000cf6   0x00000008   Code   RO          123    i.BTIM3_IRQHandler  interrupts_cw32f030.o
    0x00000cfe   0x00000cfe   0x00000018   Code   RO         1823    i.BTIM_Cmd          cw32f030_btim.o
    0x00000d16   0x00000d16   0x00000006   Code   RO         1828    i.BTIM_GetCounter   cw32f030_btim.o
    0x00000d1c   0x00000d1c   0x0000000e   Code   RO         1829    i.BTIM_GetITStatus  cw32f030_btim.o
    0x00000d2a   0x00000d2a   0x00000014   Code   RO         1831    i.BTIM_ITConfig     cw32f030_btim.o
    0x00000d3e   0x00000d3e   0x00000004   Code   RO         1838    i.BTIM_SetAutoreload  cw32f030_btim.o
    0x00000d42   0x00000d42   0x00000004   Code   RO         1839    i.BTIM_SetCounter   cw32f030_btim.o
    0x00000d46   0x00000d46   0x00000002   PAD
    0x00000d48   0x00000d48   0x00000020   Code   RO         1840    i.BTIM_TimeBaseInit  cw32f030_btim.o
    0x00000d68   0x00000d68   0x0000001c   Code   RO         1958    i.CRC16_Calc_8bit   cw32f030_crc.o
    0x00000d84   0x00000d84   0x00000074   Code   RO          354    i.CommutationDelayTIM_IRQHander  motorcontrol.o
    0x00000df8   0x00000df8   0x00000008   Code   RO          124    i.DMACH1_IRQHandler  interrupts_cw32f030.o
    0x00000e00   0x00000e00   0x00000002   Code   RO          125    i.DMACH23_IRQHandler  interrupts_cw32f030.o
    0x00000e02   0x00000e02   0x00000002   Code   RO          126    i.DMACH45_IRQHandler  interrupts_cw32f030.o
    0x00000e04   0x00000e04   0x00000010   Code   RO         2006    i.DMA_ClearITPendingBit  cw32f030_dma.o
    0x00000e14   0x00000e14   0x00000018   Code   RO         2007    i.DMA_Cmd           cw32f030_dma.o
    0x00000e2c   0x00000e2c   0x00000008   Code   RO         2009    i.DMA_GetFlagStatus  cw32f030_dma.o
    0x00000e34   0x00000e34   0x00000014   Code   RO         2010    i.DMA_GetITStatus   cw32f030_dma.o
    0x00000e48   0x00000e48   0x00000014   Code   RO         2011    i.DMA_ITConfig      cw32f030_dma.o
    0x00000e5c   0x00000e5c   0x0000003e   Code   RO         2012    i.DMA_Init          cw32f030_dma.o
    0x00000e9a   0x00000e9a   0x0000000a   Code   RO         2013    i.DMA_SWTrigCmd     cw32f030_dma.o
    0x00000ea4   0x00000ea4   0x0000017c   Code   RO          741    i.ExcMesPort_IRQHandler  exchangemessageport.o
    0x00001020   0x00001020   0x00000002   Code   RO          127    i.FAULT_IRQHandler  interrupts_cw32f030.o
    0x00001022   0x00001022   0x00000002   Code   RO          128    i.FLASHRAM_IRQHandler  interrupts_cw32f030.o
    0x00001024   0x00001024   0x00000050   Code   RO         2076    i.FLASH_ErasePage   cw32f030_flash.o
    0x00001074   0x00001074   0x00000020   Code   RO         2085    i.FLASH_LockPage    cw32f030_flash.o
    0x00001094   0x00001094   0x0000002c   Code   RO         2088    i.FLASH_SetLatency  cw32f030_flash.o
    0x000010c0   0x000010c0   0x00000020   Code   RO         2091    i.FLASH_UnlockPage  cw32f030_flash.o
    0x000010e0   0x000010e0   0x00000002   Code   RO          129    i.GPIOA_IRQHandler  interrupts_cw32f030.o
    0x000010e2   0x000010e2   0x00000002   Code   RO          130    i.GPIOB_IRQHandler  interrupts_cw32f030.o
    0x000010e4   0x000010e4   0x00000002   Code   RO          131    i.GPIOC_IRQHandler  interrupts_cw32f030.o
    0x000010e6   0x000010e6   0x00000002   Code   RO          132    i.GPIOF_IRQHandler  interrupts_cw32f030.o
    0x000010e8   0x000010e8   0x000000f4   Code   RO         1129    i.GPIO_Init         cw32f030_gpio.o
    0x000011dc   0x000011dc   0x0000000e   Code   RO         1132    i.GPIO_ReadPin      cw32f030_gpio.o
    0x000011ea   0x000011ea   0x00000002   Code   RO          133    i.GTIM1_IRQHandler  interrupts_cw32f030.o
    0x000011ec   0x000011ec   0x00000002   Code   RO          134    i.GTIM2_IRQHandler  interrupts_cw32f030.o
    0x000011ee   0x000011ee   0x00000002   Code   RO          135    i.GTIM3_IRQHandler  interrupts_cw32f030.o
    0x000011f0   0x000011f0   0x00000008   Code   RO          136    i.GTIM4_IRQHandler  interrupts_cw32f030.o
    0x000011f8   0x000011f8   0x0000000c   Code   RO         2222    i.GTIM_ClearITPendingBit  cw32f030_gtim.o
    0x00001204   0x00001204   0x0000000a   Code   RO         2227    i.GTIM_GetCapture1  cw32f030_gtim.o
    0x0000120e   0x0000120e   0x00000014   Code   RO         2231    i.GTIM_GetITStatus  cw32f030_gtim.o
    0x00001222   0x00001222   0x00000002   Code   RO          137    i.HardFault_Handler  interrupts_cw32f030.o
    0x00001224   0x00001224   0x00000002   Code   RO          138    i.I2C1_IRQHandler   interrupts_cw32f030.o
    0x00001226   0x00001226   0x00000002   Code   RO          139    i.I2C2_IRQHandler   interrupts_cw32f030.o
    0x00001228   0x00001228   0x00000084   Code   RO          692    i.InputCapture_IRQHander  inputcapture.o
    0x000012ac   0x000012ac   0x00000002   Code   RO          140    i.LVD_IRQHandler    interrupts_cw32f030.o
    0x000012ae   0x000012ae   0x00000014   Code   RO            3    i.MCU_Init          main.o
    0x000012c2   0x000012c2   0x00000002   PAD
    0x000012c4   0x000012c4   0x000000d0   Code   RO          355    i.MotorControl_AnalyseAdcData  motorcontrol.o
    0x00001394   0x00001394   0x000000f8   Code   RO          356    i.MotorControl_Commutation  motorcontrol.o
    0x0000148c   0x0000148c   0x0000000c   Code   RO          357    i.MotorControl_GetDutyCycle  motorcontrol.o
    0x00001498   0x00001498   0x00000048   Code   RO          360    i.MotorControl_GetTotalCurrent  motorcontrol.o
    0x000014e0   0x000014e0   0x0000002c   Code   RO          361    i.MotorControl_Init  motorcontrol.o
    0x0000150c   0x0000150c   0x00000104   Code   RO          362    i.MotorControl_SetDutyCrcle  motorcontrol.o
    0x00001610   0x00001610   0x00000002   Code   RO          141    i.NMI_Handler       interrupts_cw32f030.o
    0x00001612   0x00001612   0x00000018   Code   RO          363    i.PWMTIM_IRQHandler  motorcontrol.o
    0x0000162a   0x0000162a   0x00000002   Code   RO          142    i.PendSV_Handler    interrupts_cw32f030.o
    0x0000162c   0x0000162c   0x0000001c   Code   RO          788    i.RCC_AHBPeriphClk_Enable  cw32f030_rcc.o
    0x00001648   0x00001648   0x0000001c   Code   RO          791    i.RCC_APBPeriphClk_Enable2  cw32f030_rcc.o
    0x00001664   0x00001664   0x00000020   Code   RO          811    i.RCC_HCLKPRS_Config  cw32f030_rcc.o
    0x00001684   0x00001684   0x00000028   Code   RO          817    i.RCC_HSI_Enable    cw32f030_rcc.o
    0x000016ac   0x000016ac   0x00000002   Code   RO          143    i.RCC_IRQHandler    interrupts_cw32f030.o
    0x000016ae   0x000016ae   0x00000002   PAD
    0x000016b0   0x000016b0   0x00000020   Code   RO          829    i.RCC_PCLKPRS_Config  cw32f030_rcc.o
    0x000016d0   0x000016d0   0x00000090   Code   RO          832    i.RCC_PLL_Enable    cw32f030_rcc.o
    0x00001760   0x00001760   0x00000038   Code   RO          836    i.RCC_SysClk_Switch  cw32f030_rcc.o
    0x00001798   0x00001798   0x00000098   Code   RO          837    i.RCC_Sysctrl_GetHClkFreq  cw32f030_rcc.o
    0x00001830   0x00001830   0x00000018   Code   RO          838    i.RCC_Sysctrl_GetPClkFreq  cw32f030_rcc.o
    0x00001848   0x00001848   0x0000000c   Code   RO          839    i.RCC_SystemCoreClockUpdate  cw32f030_rcc.o
    0x00001854   0x00001854   0x00000002   Code   RO          144    i.RTC_IRQHandler    interrupts_cw32f030.o
    0x00001856   0x00001856   0x00000002   Code   RO          145    i.SPI1_IRQHandler   interrupts_cw32f030.o
    0x00001858   0x00001858   0x00000002   Code   RO          146    i.SPI2_IRQHandler   interrupts_cw32f030.o
    0x0000185a   0x0000185a   0x00000002   Code   RO          147    i.SVC_Handler       interrupts_cw32f030.o
    0x0000185c   0x0000185c   0x000000b8   Code   RO          364    i.SensorlessMotor_Start  motorcontrol.o
    0x00001914   0x00001914   0x00000002   Code   RO          526    i.SysTick_Handler   delay.o
    0x00001916   0x00001916   0x00000002   PAD
    0x00001918   0x00001918   0x00000040   Code   RO          527    i.SysTick_Init      delay.o
    0x00001958   0x00001958   0x00000010   Code   RO         2745    i.SystemCoreClockUpdate  system_cw32f030.o
    0x00001968   0x00001968   0x00000034   Code   RO         2746    i.SystemInit        system_cw32f030.o
    0x0000199c   0x0000199c   0x00000040   Code   RO            4    i.SystemRCC_Init    main.o
    0x000019dc   0x000019dc   0x00000080   Code   RO          528    i.Systick_AccurateDelayMs  delay.o
    0x00001a5c   0x00001a5c   0x00000080   Code   RO          529    i.Systick_AccurateDelayUs  delay.o
    0x00001adc   0x00001adc   0x0000006c   Code   RO          365    i.TickTIM_IRQHander  motorcontrol.o
    0x00001b48   0x00001b48   0x00000002   Code   RO          148    i.UART1_IRQHandler  interrupts_cw32f030.o
    0x00001b4a   0x00001b4a   0x00000002   Code   RO          149    i.UART2_IRQHandler  interrupts_cw32f030.o
    0x00001b4c   0x00001b4c   0x00000002   Code   RO          150    i.UART3_IRQHandler  interrupts_cw32f030.o
    0x00001b4e   0x00001b4e   0x00000008   Code   RO         2599    i.USART_ClearFlag   cw32f030_uart.o
    0x00001b56   0x00001b56   0x00000008   Code   RO         2600    i.USART_ClearITPendingBit  cw32f030_uart.o
    0x00001b5e   0x00001b5e   0x0000000e   Code   RO         2605    i.USART_GetFlagStatus  cw32f030_uart.o
    0x00001b6c   0x00001b6c   0x0000000e   Code   RO         2606    i.USART_GetITStatus  cw32f030_uart.o
    0x00001b7a   0x00001b7a   0x00000004   Code   RO         2614    i.USART_SendData_8bit  cw32f030_uart.o
    0x00001b7e   0x00001b7e   0x00000002   Code   RO          151    i.VC1_IRQHandler    interrupts_cw32f030.o
    0x00001b80   0x00001b80   0x00000002   Code   RO          152    i.VC2_IRQHandler    interrupts_cw32f030.o
    0x00001b82   0x00001b82   0x00000002   Code   RO          153    i.WDT_IRQHandler    interrupts_cw32f030.o
    0x00001b84   0x00001b84   0x00000048   Code   RO          366    i._ADC_Init_        motorcontrol.o
    0x00001bcc   0x00001bcc   0x000000f8   Code   RO          367    i._DMA_Init_        motorcontrol.o
    0x00001cc4   0x00001cc4   0x00000090   Code   RO          368    i._GPIO_Init_       motorcontrol.o
    0x00001d54   0x00001d54   0x00000164   Code   RO          369    i._TIM_Init_        motorcontrol.o
    0x00001eb8   0x00001eb8   0x00000014   Code   RO         2817    i.__0printf$bare    mc_p.l(printfb.o)
    0x00001ecc   0x00001ecc   0x0000002e   Code   RO         3138    i.__ARM_clz         mf_p.l(depilogue.o)
    0x00001efa   0x00001efa   0x0000001a   Code   RO         1118    i.__ARM_common_switch8  cw32f030_rcc.o
    0x00001f14   0x00001f14   0x00000018   Code   RO          370    i.__NVIC_EnableIRQ  motorcontrol.o
    0x00001f2c   0x00001f2c   0x00000044   Code   RO          371    i.__NVIC_SetPriority  motorcontrol.o
    0x00001f70   0x00001f70   0x0000000e   Code   RO         3146    i.__scatterload_copy  mc_p.l(handlers.o)
    0x00001f7e   0x00001f7e   0x00000002   Code   RO         3147    i.__scatterload_null  mc_p.l(handlers.o)
    0x00001f80   0x00001f80   0x0000000e   Code   RO         3148    i.__scatterload_zeroinit  mc_p.l(handlers.o)
    0x00001f8e   0x00001f8e   0x0000001e   Code   RO         2824    i._printf_core      mc_p.l(printfb.o)
    0x00001fac   0x00001fac   0x00000024   Code   RO          744    i.fputc             exchangemessageport.o
    0x00001fd0   0x00001fd0   0x00000038   Code   RO            5    i.led_init          main.o
    0x00002008   0x00002008   0x00000054   Code   RO            6    i.main              main.o
    0x0000205c   0x0000205c   0x00000012   Data   RO          373    .constdata          motorcontrol.o
    0x0000206e   0x0000206e   0x00000040   Data   RO          512    .constdata          sensorlessp.o
    0x000020ae   0x000020ae   0x00000002   PAD
    0x000020b0   0x000020b0   0x00000064   Data   RO          841    .constdata          cw32f030_rcc.o
    0x00002114   0x00002114   0x00000020   Data   RO         3144    Region$$Table       anon$$obj.o


    Execution Region RW_IRAM1 (Exec base: 0x20000000, Load base: 0x00002134, Size: 0x00000660, Max: 0x00002000, ABSOLUTE, COMPRESSED[0x00000020])

    Exec Addr    Load Addr    Size         Type   Attr      Idx    E Section Name        Object

    0x20000000   COMPRESSED   0x00000026   Data   RW          374    .data               motorcontrol.o
    0x20000026   COMPRESSED   0x00000002   PAD
    0x20000028   COMPRESSED   0x00000004   Data   RW          530    .data               delay.o
    0x2000002c   COMPRESSED   0x0000000c   Data   RW          696    .data               inputcapture.o
    0x20000038   COMPRESSED   0x00000213   Data   RW          745    .data               exchangemessageport.o
    0x2000024b   COMPRESSED   0x00000001   PAD
    0x2000024c   COMPRESSED   0x00000004   Data   RW         2750    .data               system_cw32f030.o
    0x20000250   COMPRESSED   0x00000004   Data   RW         3124    .data               mc_p.l(stdout.o)
    0x20000254        -       0x0000000c   Zero   RW          372    .bss                motorcontrol.o
    0x20000260        -       0x00000400   Zero   RW         2734    STACK               startup_cw32f030.o


==============================================================================

Image component sizes


      Code (inc. data)   RO Data    RW Data    ZI Data      Debug   Object Name

       164         24          0          0          0       1990   cw32f030_adc.o
       692         84          0          0          0       8478   cw32f030_atim.o
       112          4          0          0          0       4720   cw32f030_btim.o
        28          4          0          0          0        950   cw32f030_crc.o
       160         10          0          0          0       4094   cw32f030_dma.o
       188         36          0          0          0       2409   cw32f030_flash.o
       258          4          0          0          0       1667   cw32f030_gpio.o
        42          0          0          0          0       1995   cw32f030_gtim.o
       574        112        100          0          0       6786   cw32f030_rcc.o
        48          0          0          0          0       3144   cw32f030_uart.o
       322         38          0          4          0       2397   delay.o
       416         42          0        531          0       2416   exchangemessageport.o
       132          8          0         12          0       8151   inputcapture.o
       102          0          0          0          0      16284   interrupts_cw32f030.o
       224         36          0          0          0     186222   main.o
      2364        238         18         38         12      58975   motorcontrol.o
         0          0         64          0          0       1665   sensorlessp.o
        40         14        192          0       1024        644   startup_cw32f030.o
        68         14          0          4          0       1199   system_cw32f030.o

    ----------------------------------------------------------------------
      5948        668        408        592       1036     314186   Object Totals
         0          0         32          0          0          0   (incl. Generated)
        14          0          2          3          0          0   (incl. Padding)

    ----------------------------------------------------------------------

      Code (inc. data)   RO Data    RW Data    ZI Data      Debug   Library Member Name

        58          0          0          0          0          0   __dczerorl.o
         0          0          0          0          0          0   entry.o
         0          0          0          0          0          0   entry10a.o
         0          0          0          0          0          0   entry11a.o
         4          0          0          0          0          0   entry12b.o
         8          4          0          0          0          0   entry2.o
         4          0          0          0          0          0   entry5.o
         0          0          0          0          0          0   entry7b.o
         0          0          0          0          0          0   entry8b.o
         8          4          0          0          0          0   entry9a.o
        30          0          0          0          0          0   handlers.o
        36          8          0          0          0         68   init.o
         0          0          0          0          0          0   iusefp.o
        32          0          0          0          0         68   llshl.o
        38          0          0          0          0         68   llsshr.o
        34          0          0          0          0         68   llushr.o
        36          0          0          0          0         60   memcpya.o
        50          8          0          0          0        144   printfb.o
         0          0          0          4          0          0   stdout.o
        44          0          0          0          0         72   uidiv.o
        40          2          0          0          0         68   cdcmple.o
        40          2          0          0          0         68   cdrcmple.o
       360          6          0          0          0        140   dadd.o
       240          6          0          0          0         84   ddiv.o
       236          0          0          0          0        216   depilogue.o
        60         10          0          0          0         68   dfixui.o
        28          4          0          0          0         68   dfltui.o
       208          6          0          0          0         88   dmul.o
        44          0          0          0          0         72   dscalb.o
       178          0          0          0          0        108   fadd.o
       130          0          0          0          0        144   fepilogue.o
        40          0          0          0          0         60   ffixui.o
        22          0          0          0          0         68   fflti.o
        14          0          0          0          0         68   ffltui.o
       122          0          0          0          0         72   fmul.o

    ----------------------------------------------------------------------
      2144         60          0          4          0       1940   Library Totals
         0          0          0          0          0          0   (incl. Padding)

    ----------------------------------------------------------------------

      Code (inc. data)   RO Data    RW Data    ZI Data      Debug   Library Name

       382         24          0          4          0        548   mc_p.l
      1762         36          0          0          0       1392   mf_p.l

    ----------------------------------------------------------------------
      2144         60          0          4          0       1940   Library Totals

    ----------------------------------------------------------------------

==============================================================================


      Code (inc. data)   RO Data    RW Data    ZI Data      Debug   

      8092        728        408        596       1036     310042   Grand Totals
      8092        728        408         32       1036     310042   ELF Image Totals (compressed)
      8092        728        408         32          0          0   ROM Totals

==============================================================================

    Total RO  Size (Code + RO Data)                 8500 (   8.30kB)
    Total RW  Size (RW Data + ZI Data)              1632 (   1.59kB)
    Total ROM Size (Code + RO Data + RW Data)       8532 (   8.33kB)

==============================================================================

