:020000040000FA
:10000000E8180020D50000003F1B0000F517000095
:1000100000000000000000000000000000000000E0
:10002000000000000000000000000000653100003A
:100030000000000000000000A9240000F5380000C6
:10004000D14F00003D1B0000912A0000F316000074
:1000500067310000F5160000F7160000F9160000E1
:10006000FB160000AF160000B1160000B31600002A
:10007000F510000041160000CD4F0000CF4F0000EA
:10008000DF170000E1170000E3170000E51700008C
:10009000A9160000AB160000AD160000F91700000D
:1000A000FB17000061310000633100006D3B000070
:1000B0006F3B0000D53B000043160000ED00000040
:1000C0000348854600F088FF00480047C95D0000EE
:1000D000E818002006490868854606488047064813
:1000E0000047FEE7FEE7FEE7FEE7FEE7FEE700006B
:1000F000000000001D390000C100000030B50B46B3
:10010000014600202022012409E00D46D5409D42F1
:1001100005D31D469540491B254695404019154677
:10012000521E002DF1DC30BD70B50024254600289C
:1001300001DA01244042002901DA01254942FFF792
:10014000DDFFAC4200D04042002C00D0494270BDDF
:1001500001464139192900D82030704703460B4326
:100160009B0703D009E008C9121F08C0042AFAD26D
:1001700003E00B780370401C491C521EF9D27047F3
:10018000D2B201E00270401C491EFBD2704700222F
:10019000F6E710B513460A4604461946FFF7F0FF86
:1001A000204610BD421C0178401C0029FBD1801A5A
:1001B000704710B5002200E0521C835C8C5CA342A7
:1001C00001D1002BF8D1D8B2E1B2401A10BD0346DC
:1001D0000A780270401C491C002AF9D11846704761
:1001E00030B505460020034600E05B1C934205D273
:1001F000EC5CC85C201A01D1002CF6D130BD0000A7
:10020000FFB5087889B01546FF2805D0491C2D2870
:1002100004D00022002407E000240BE00122F9E7CB
:100220000A235C430419491C0878FF28F8D1002AE6
:1002300000D06442002004902A7801462D2A01D083
:100240002B2A0FD16D1C2D2A02D00022049209E026
:100250000122FBE700260A2233466D1C00F008FD50
:10026000381871412F78FF2FF4D10C9AA2180692FA
:1002700002460A4304D0FF23069A9133DA4205DA94
:10028000002109980A4606C00DB0F0BD0024B74A07
:10029000B54D2646079200F071FE02900698039134
:1002A000002801DA474200E0074639050020AF4A3E
:1002B000001C51410191009012E0F80707D022463E
:1002C0002B463046079900F0DBFA06460791224696
:1002D0002B461046194600F0D3FA04460D467F100F
:1002E000002FEAD10698019B0028009A03990298F2
:1002F00006DA00F02DFB3246079B00F029FB05E0F3
:1003000000F0BEFA3246079B00F0BAFA049A002ABF
:1003100002D00122D2075140099A03C2B4E7FFB5C7
:1003200091B0002009900025ED432E209E685C6866
:100330001F460190B9696D1C129888470090396A70
:1003400088470028F6D10098401C0AD00D20C00133
:100350008443002E12DD00982B2809D02D280DD1C2
:1003600003E00020C04315B0F0BD0120800204432B
:10037000B9696D1C12988847761E009003A9600524
:1003800001D52D2000E02B206A461073491C0CA8D3
:100390000F9102900AE0B9696D1C1298884700908D
:1003A0000120400204431398761E0560002E02DDF2
:1003B00000983028EFD001990098884246D18020DB
:1003C000044308E00998401E0990012040020443BC
:1003D0001399681C0860B9696D1C761E12988847CD
:1003E00000903028EED031E00199884205D12006F6
:1003F00003D480200443761E1EE0009804F08CFF96
:10040000002826D001204002044307A90F98033199
:10041000761E88420BD200980F99303808700F98DA
:10042000401C0F90200607D50998401E03E02006C7
:1004300002D40998401C0990A00502D51399681CA4
:100440000860B9696D1C129888470090002ECBDCBB
:1004500059E0002E57DD0098652801D0452852D17B
:10046000A00550D5032000028443B9696D1C761E97
:10047000129888470090002E0CDD2B2804D02D28E0
:1004800008D1FF2001300443B9696D1C12988847D8
:10049000761E0090E00501D52D2100E02B21029869
:1004A00001700298401C0290019025E0012040025A
:1004B00004430EA902980131761E88420ED200989C
:1004C000029930380006000E087003D10299019895
:1004D00081420AD90298401C029006E0E00501D54D
:1004E000234801E0224840420990B9696D1C1298E6
:1004F0008847009013980560002E04DD009804F0F2
:100500000BFF0028D2D1F969129888470F99FF2074
:100510000870029903AA087000200A900B900CA999
:100520000AA8099BFFF76CFEA00502D40120C04376
:1005300019E72420044209D0E00713D138680B9A48
:100540000A99031D3B60006806C00BE00B990A98EE
:1005500000F038FB0146E00704D13868021D3A601C
:10056000006801602846FEE6000014400000F03FED
:10057000F1D8FFFFF8B502464A40D40F42004B00C5
:1005800052085B089A4202D20246084611464A00C7
:1005900023D0C30D4A00DDB2120EAD1A202D35DA7C
:1005A00049020126490AF6058A19002C00D0524258
:1005B00020214F1B1146B9402A411018C20D9A4202
:1005C00021D0002C17D0012D08DCDA05801AD20FBB
:1005D0008019D207DBB200F039FCF8BDDA05801AC9
:1005E000012340001B06C01880185A428018CA0F09
:1005F0001043490007E04908C2071143DA05801A91
:1006000080194008801800F019FCF8BD6100012233
:10061000511A001BF7E70122D2075140AAE7012235
:10062000D2075040A6E7024670B54A40D30FDB0719
:1006300040002DD04A002AD0010E140E00021202F2
:100640000919400A520A8418E50104465443000A75
:10065000120A2E045043A4194219200CC543AA18AB
:10066000120C0125AD03521C521912047F392404C7
:1006700000D0521C104301D44000491EC2B20C06E7
:10068000C0092018401C4008802A02D003E0002046
:1006900070BD40084000002900DA0020184370BDFA
:1006A00070B502464A40D50F40004A00ED074008A9
:1006B0005208002814D0002A12D0C40DD30D4102D4
:1006C0000120C0055202490A520AE41A09181218F8
:1006D0007D34914201D3641C00E04900002C01DA12
:1006E000002070BD0023914201D3891A03434008C2
:1006F00049000028F7D100290AD0914202D10121F6
:10070000C90705E0914201D2012101E00121C9435D
:10071000E005C018401900F091FB70BDF0B5074628
:100720000846584087B0C00F049048000E46590054
:1007300040084908BC1A884105D2384631461E4651
:1007400017460B4602465800400810434CD0300D67
:10075000039040055900400D490D0590401A029044
:10076000402872DA18030121000B090508430190A3
:1007700004980092002805D0019952420020884137
:1007800000920190029840210A1A0199009800F005
:10079000ACFA05460C466B4607CB00F0C7FAC01909
:1007A0007141039A0E0D0023D71756401A467A401E
:1007B000164344D0049A002A2DD0029A012A039AA3
:1007C00015DC1205C01A914101263605001C714145
:1007D000D20F059ED2070093019202962A46234625
:1007E00000F07AFB07B0F0BD38463146FAE716054F
:1007F000224A0F46B218C01AB74101210905001C50
:100800004F4100187F41114618187941E20F1043FB
:100810006D19644113E0E2076D0815436408C207CF
:100820001443039A01261205C01A91413605001C93
:100830007141CE07400830434908C01851412A464B
:10084000234600F03CFBCDE7FFE70498012240007F
:10085000C117121A00238B4104983146C417381A65
:10086000A141EEE730B40124E407634030BC55E712
:1008700030B40124E407614030BC4FE70000E0FFE2
:10088000F0B51FB488B00B99099800244840099925
:10089000C00F490049080991C0070B990090490011
:1008A00049080B9109990898A64608431CD00B9952
:1008B0000A98084318D0099801244000420D4800C6
:1008C000410D099824050003000B204309900B9863
:1008D0000003000B20430B9050181C4940180022C5
:1008E00001901446104605E0002001460DB0F0BD11
:1008F000032801DA034600E003239C46C11A0AAE2E
:100900000AE05F0008ADED5B4F00F75B7D43002719
:10091000AA187C41491C5B1E6145F2DD410004AB15
:100920005A522104120C0A43240C401C0828DFDB15
:10093000019802900099704601910090059B049ADD
:100940000799069800F0C8FAD0E700000DFCFFFFF9
:10095000F0B50C465C4085B0E40FE40703944C000E
:10096000002664085900944649080246029622432C
:1009700021D062460A431ED06200570D4A000E0382
:100980002303550D012402462C492405781B1B0B1B
:10099000360B401823432643614600901C46501AEC
:1009A000B44103D30098401C009002E092180098D4
:1009B0005B41002803DA0020014605B0F0BD0020AD
:1009C000012109050746864611E064461D46141BB1
:1009D000B54106D36546521BB341744607430C43E9
:1009E000A646CD0740084908284392185B410546B2
:1009F0000D43EAD11046184313D0604619465040C3
:100A00007140084306D06046101AB34106D2012255
:100A1000002306E000220123DB0702E00122D2438B
:100A20005310009874460105381C6141029C039DD7
:100A30000019694100F043FABFE70000FD03000020
:100A400010B500229623114600F000FA10BD0000F8
:100A50000EB505490291002100910A460B4601910D
:100A600000F03AFA03B000BD33040000C20F4100A9
:100A700040020123400ADB05D207090EC0187F2976
:100A800001DA00207047962903DC9623591AC840E2
:100A900001E096398840002AF4D040427047410076
:100AA00040020122400AD205090E80187F2901DA8E
:100AB00000207047962903DC9622511AC8407047DF
:100AC000963988407047000070B5CD0F4A00090381
:100AD0000123090B1B0519430B4BED070024520D95
:100AE0009A4201DA002070BD074B34339A4203DC8E
:100AF0009A1A00F00AF902E00449511888402C4380
:100B0000F1D0404270BD0000FF030000CDFBFFFFAD
:100B10004A0009030123090B1B051943094B10B5B2
:100B2000520D9A4201DA002010BD064B34339A422E
:100B300003DC9A1A00F0E9F810BD03495118884007
:100B400010BD0000FF030000CDFBFFFFC20FD20766
:100B5000400040080BD0C10D0723DB01C91840023B
:100B60000905400A1143C20840071143704700209D
:100B70000146704710B5002904DB0124E407404218
:100B80008C412146002B04DB1C460123DB0752422B
:100B9000A3418B4200D1824210BD000010B5002954
:100BA00004DB0124E40740428C412146002B04DB96
:100BB0001C460123DB075242A341994200D19042D7
:100BC00010BD0000CB0FDB07490010B549080246F5
:100BD0000A4307D00A0D07240903E401090B121B7D
:100BE000002A01DC002010BDC900440F0C43C100E5
:100BF000E018D205801800F021F910BD0122D207BB
:100C0000002800DB101A002900DB511A81427047CE
:100C1000F0B51FB40646002082B00546402401917D
:100C200000901BE0019922460F46304600F06DF817
:100C3000049A059B801A994110D310461946224602
:100C400000F053F8361A8F41019722460120002107
:100C5000009F00F04AF838184D4100902046641E6D
:100C60000028DFDC019B00982946324607B0F0BD22
:100C7000F0B51FB486B00020009001900290069855
:100C8000069980B204900798090C020400141143DD
:100C900007900027089D099806913E463C46039020
:100CA0000398A9B20204000C039004982D0C15437C
:100CB00048430021224600F018F8C719714110344A
:100CC0000E46402CECDB3846029A00F00EF8009AF3
:100CD000019B8018009059410298019110300290B8
:100CE0004028CCDB00980BB0F0BD10B5202A04DB07
:100CF0000146203A9140002010BD914020239C1ACB
:100D00000346E3401943904010BD10B5202A04DB90
:100D10000846203AD040002110BD0B46D340D040B9
:100D20002024A21A91400843194610BD10B5202A6C
:100D300006DBCB170846203A1041C1170B4306E0EB
:100D40000B461341D0402024A21A91400843194673
:100D500010BD4268002A08D001680B78491C002B9E
:100D600003D0521E06C0184670470121C160881E7C
:100D700070474268002A0BD0C3680168002B07D176
:100D800083688B4204D0491E521C06C00020704765
:100D90000020C043704700000FB400B589B00CA913
:100DA00000910B990023CB60204B214A06930792B8
:100DB000042201921F4A02921F4A089202466B4681
:100DC0000020FFF7ACFA09B008BC04B0184770B5B2
:100DD00086B006460020C0430190002015460C4610
:100DE0000091029104903246694604A8FFF7D4FFAF
:100DF000024604982118002D05D0002801D008468D
:100E000000E020462860049800280DD0002A02DD6A
:100E10000098884208D0081B019000943246694629
:100E2000029404A8FFF7B8FF06B070BD530D000090
:100E3000730D0000FFFFFF7FFD0F0000002904DAA3
:100E4000401C490001D140084000704770B40024A4
:100E5000050C05D11024000402D1002921D0112451
:100E6000050E01D100020834050F01D10001241D37
:100E7000850F01D18000A41C002801DB4000641C08
:100E8000002908D020252E1B0D46F540A14000D09A
:100E900001212943084301061B1B000ADB1D02D563
:100EA000002070BC7047DB05181880180029F8DA9C
:100EB000401C4900F5D170BC40084000704710B597
:100EC000002B08DA0024401C614192185B411A4350
:100ED00001D14008400010BDF0B51FB482B00546F6
:100EE0000C0003D0084604F085F802E004F082F814
:100EF00020300246009021462846FFF7F6FE049B6C
:100F0000059A04460F4618431143084314D0184667
:100F100010431BD0009840210A1A18460599FFF784
:100F2000F4FE05460E46009A05990498FFF7DDFE8B
:100F3000084305D0012004E02046394607B0F0BD43
:100F40000020C11705430E432C43374300990E98E8
:100F50006305401A7905E40A00220C43FD0A0A30B1
:100F600002D500200146E9E70105101969410C9CF2
:100F70000D9D00196941FFF7A2FFDFE70EB5054A95
:100F800002920022009213460192FFF7A5FF03B0E0
:100F900000BD0000330400004A0009030123090BCF
:100FA0001B0519430A4B10B5520D9A4202DA002074
:100FB000014610BD064B34339A4203DC9A1AFFF700
:100FC000A4FE10BD034BD218FFF78FFE10BD00002A
:100FD000FF030000CDFBFFFF064C0125064E05E098
:100FE000E36807CC2B430C3C98471034B442F7D34A
:100FF000FFF76AF8F8A6000018A7000010B50F2147
:10100000C0B2490200F002F810BD00007F2801D9EB
:10101000002207E0054B42089A5CC00700D1120984
:101020001207120F0120904008407047B8A6000038
:10103000034800684008400001490860704700000C
:101040000024014010B50C4C0C48006801210843F5
:101050000A49086000BF802000F018F8002804D179
:101060002046611E8CB20028F5D1002C01D1012050
:1010700010BD0020FCE70000FFFF0000002401403D
:101080000148006A80B270470024014010B5044650
:10109000802C0DD0402C0BD0202C09D0102C07D048
:1010A000082C05D0042C03D0022C01D0012C00D137
:1010B00003E0602105A004F0D3FC0D48C068204087
:1010C000002801D0012010BD0020FCE72E2E5C2E50
:1010D0002E5C4C69627261726965735C7372635CE9
:1010E000637733326C3038335F6164632E630000A2
:1010F000402401407047000010B5044620680028D5
:1011000011D0206802280ED0206804280BD0206857
:10111000062808D02068082805D020680A2802D0B0
:1011200020680C2800D103E0C32166A004F098FCDD
:101130006068002821D0FF210131606888421CD0FE
:1011400049006068884218D003210902606888421B
:1011500013D001218902606888420ED0052109025E
:101160006068884209D0032149026068884204D03F
:10117000072109026068884200D103E0C42151A020
:1011800004F06EFCA06800280DD00121C902A068FF
:10119000884208D04900A068884204D00321C902CF
:1011A000A068884200D103E0C52146A004F058FCA5
:1011B000E068002808D0E068402805D0E068802872
:1011C00002D0E068C02800D103E0C6213DA004F0B1
:1011D00047FC2069002804D0012149032069884286
:1011E00000D103E0C72137A004F03AFC6069002871
:1011F00002D06069202800D103E0C82131A004F0AA
:101200002FFCA069002804D00121C903A0698842ED
:1012100000D103E0C9212BA004F022FCE0690028E2
:1012200002D0E069402800D103E0CA2125A004F0E3
:1012300017FC206A002804D0FF210131206A88426F
:1012400000D103E0CB211FA004F00AFCA1682069B3
:10125000084361680843E1680843616908432168FD
:10126000084321490968214A114008431E49086082
:10127000E169A06908431C4949681D4A11400843B7
:1012800019494860206A00280BD0084600690321EC
:101290000902884301225202216A1143084312497C
:1012A0000861E06880280CD11248006B20210843B7
:1012B000104908631048C06940084000401C0E49AE
:1012C000C86110BD2E2E5C2E2E5C4C69627261725C
:1012D0006965735C7372635C637733326C30383387
:1012E0005F6164632E6300000024014011C0FFFFB2
:1012F000BF7FFFFF000001400004004810B5044616
:10130000002C1DD0012C1BD0022C19D0032C17D07F
:10131000042C15D0052C13D0062C11D0072C0FD07F
:10132000082C0DD0092C0BD00A2C09D00B2C07D07F
:101330000C2C05D00D2C03D00E2C01D00F2C00D17D
:1013400003E0114911A004F08BFB0D2C03D00E2CEF
:1013500001D00F2C06D1164800680121490308432B
:10136000134908600E2C05D111480068202108435C
:101370000F4908600E484068000900012107090F65
:1013800008430B49486010BD420200002E2E5C2E1F
:101390002E5C4C69627261726965735C7372635C26
:1013A000637733326C3038335F6164632E630000DF
:1013B0000024014010B50446206800282CD0206885
:1013C000012829D02068022826D02068032823D0AD
:1013D0002068042820D0206805281DD02068062811
:1013E0001AD02068072817D02068082814D0206851
:1013F000092811D020680A280ED020680B280BD0AD
:1014000020680C2808D020680D2805D020680E28F8
:1014100002D020680F2800D104E0FF218C3115A0F4
:1014200004F01EFB6068002802D06068202800D10C
:1014300004E0FF218D310FA004F012FB204608309C
:10144000FFF75AFE2068FFF759FF01214903206B7F
:10145000884203D120462C3000F03CF821686068B7
:1014600008430D4949682F22914308430A494860BF
:1014700010BD00002E2E5C2E2E5C4C6962726172D3
:101480006965735C7372635C637733326C303833D5
:101490005F6164632E6300000024014010B50446C0
:1014A0002046FFF787FF034800680E218843014963
:1014B000086010BD0024014000210160416081608E
:1014C000C021C1600021016141618161C16101628E
:1014D0007047000010B504462068002849D0FF215D
:1014E00001312068884244D049002068884240D0B9
:1014F00003210902206888423BD00121890220682B
:10150000884236D0052109022068884231D0032163
:101510004902206888422CD00721090220688842AD
:1015200027D00121C9022068884222D0092109025E
:10153000206888421DD0052149022068884218D0C1
:101540000B2109022068884213D0032189022068F8
:1015500088420ED00D2109022068884209D0072157
:1015600049022068884204D00F210902206888427D
:1015700000D103E0A42128A004F072FA60680028DA
:1015800004D0012149036068884200D103E0A5210D
:1015900021A004F065FAA068002802D0A0682028E5
:1015A00000D103E0A6211CA004F05AFAE06800284C
:1015B00002D0E068102800D103E0A72116A004F0B3
:1015C0004FFA2069002802D02069082800D103E0E2
:1015D000A82111A004F044FA216860680843174963
:1015E00049682F2212029143084314494860E16878
:1015F000A0680843216908431049403149683822EE
:10160000914308430D49403148600C496069486185
:10161000A069886110BD00002E2E5C2E2E5C4C69E6
:10162000627261726965735C7372635C6377333293
:101630006C3038335F6164632E6300000024014026
:101640007047704700B59BB0242112A8FEF79FFD9C
:1016500048216846FEF79BFD1248406B0421084371
:101660001049486312A8FFF727FF0E48006B1021AE
:1016700008430C4908630920C006C06940084000BF
:10168000401C0921C906C861002001900090242255
:1016900012A902A8FEF762FD6846FFF7FFFE1BB025
:1016A00000BD000000000140704770477047704760
:1016B0007047704700B5222000F054FEF72000F07C
:1016C0004BFE202000F04EFE00F002F800BD0000AE
:1016D00008E006480069012149020840400A002844
:1016E00000D100E0F5E700BF704700004008004867
:1016F0007047704770477047704770474A68002AC4
:1017000004D1C2690B681A43C26167E0C2690B6801
:101710009A43C26110234A681A40102A4ED10268C7
:101720000B681A4302604A68112A07D102690B68E4
:101730001A430261C2680B689A43C2604A68122A5F
:1017400007D1C2680B681A43C26002690B689A43EA
:101750000261426A0B689A434262826A0B689A434A
:101760008262C26A0B689A43C262026B0B689A4338
:10177000026381238A681A40812A03D1426A0B6876
:101780001A43426282238A681A40822A03D1826AFB
:101790000B681A43826284238A681A40842A03D120
:1017A000C26A0B681A43C26288238A681A40882A70
:1017B00014D1026B0B681A4302630FE002680B68D6
:1017C0009A4302604A68202A04D142680B689A430F
:1017D000426003E042680B681A43426070477047FA
:1017E000704770477047000001480068704700006C
:1017F0007400002000BFFEE77047704700B5144832
:101800000068012149038843114908600120000351
:101810000F4940318861022004F060FA0120400342
:101820000B4940318861022004F058FA012000037E
:1018300007494031C861022004F050FA012000033A
:10184000034940318861012004F048FA00BD0000DE
:101850000004004800B5144800680121490388438A
:1018600011490860012000030F49403188610220BE
:1018700004F034FA012040030B494031C8610220D2
:1018800004F02CFA0120000307494031C86102200E
:1018900004F024FA0120400303494031886101200B
:1018A00004F01CFA00BD00000004004810B500233D
:1018B0001948006801214903884340181649086007
:1018C000012004F00BFA00241CE00120000312495F
:1018D00040318861022004F001FA012000030E4922
:1018E0004031C8615806030E0846006901214903CA
:1018F0000840002801D001200343012004F0EEF944
:10190000601CC4B2082CE0DB012000030249403116
:101910008861184610BD00000004004810B5034659
:101920001B480068012149038843194908600120C8
:101930000003174940318861002425E080201840C9
:10194000002805D00120400311494031C86104E05E
:10195000012040030E49403188615806030E0220E1
:1019600004F0BCF90120000309494031C86102209C
:1019700004F0B4F9012000030549403188610220D8
:1019800004F0ACF9601CC4B2082CD7DB10BD000019
:101990000004004800B50F4800680121490388434E
:1019A0000C490860012040030A494031C8614010D9
:1019B000C861042004F092F9012040030549403138
:1019C0008861042004F08AF90120000301494031B4
:1019D000886100BD0004004800B51148006801217D
:1019E000490388430E490860012000030C49403137
:1019F000886140008861042004F070F90120000330
:101A000007494031C861042004F068F9012040030F
:101A100003494031C861042004F060F900BD0000B2
:101A20000004004800B5C823284800680121490384
:101A30008843264908600120400324494031C86199
:101A4000012004F04BF90120000320494031886156
:101A5000012004F043F91D4800680121490388432F
:101A600040181A490860012004F038F910E0581EA7
:101A7000C3B2012004F032F9002B06D1012000038B
:101A8000124940318861012000BD012004F026F98F
:101A90000E48403000690121490308400028E6D182
:101AA000012004F01BF90120000308494031C861FE
:101AB000012004F013F9012000030449403188613A
:101AC000012004F00BF90020DEE7000000040048CC
:101AD00070B50546154801787D20C000FEF70EFB65
:101AE000064631462846FEF709FB0446601E1049AB
:101AF000884201D901200CE0601E0E494861032193
:101B0000081F03F0ADFA00200A4988610720086128
:101B10000020002800D070BD0021481E03F0A0FA6C
:101B200000200549086000BFF5E700007C000020A8
:101B3000FFFFFF0000E000E07800002070477047E2
:101B400010B572B6022003F07BFA1C2003F078FA7D
:101B500062B610BD30B50246002110E0002008E05A
:101B6000094C248A4C432318074D2D68EA54441C21
:101B7000A0B2054C248A8442F2DC4C1CA1B2024C77
:101B8000648A8C42EADC30BDD4100020FCB50446E7
:101B90000027FA20019010200090242000F0E2FBA2
:101BA00000260AE0002504E0E05D00F0D5FB7F1C84
:101BB0006D1C01988542F7D3761C00988642F1D3BC
:101BC000FFF778FDFCBDFFB582B005460E46002448
:101BD000049F049F78000321081A80B201900B989B
:101BE000002861D05DE0009443E0009AB21891B201
:101BF0002A1990B2059A00F0D0F8009AB21891B262
:101C00002A1B90B2059A00F0C8F8321991B2009AD6
:101C1000AA1A90B2059A00F0C0F8321B91B2009A4D
:101C2000AA1A90B2059A00F0B8F8009AB21A91B2C6
:101C30002A1B90B2059A00F0B0F8009AB21A91B23D
:101C40002A1990B2059A00F0A8F8321B91B2009AB6
:101C5000AA1890B2059A00F0A0F8321991B2009A31
:101C6000AA1890B2059A00F098F80098401C80B22B
:101C700000900098B842B8DD0198002806DAA0006C
:101C8000801D0199401880B2019008E0E01B80009F
:101C90000A300199401880B20190781E87B2601C0A
:101CA00084B2BC429FDD4FE04CE0F21991B22A1998
:101CB00090B2059A00F071F8F21991B22A1B90B215
:101CC000059A00F06AF8321991B2EA1B90B2059AAF
:101CD00000F063F8321B91B2EA1B90B2059A00F053
:101CE0005CF8F21B91B22A1B90B2059A00F055F8ED
:101CF000F21B91B22A1990B2059A00F04EF8321BED
:101D000091B2EA1990B2059A00F047F8321991B2EF
:101D1000EA1990B2059A00F040F80198002806DA16
:101D2000A000801D0199401880B2019008E0E01BDE
:101D300080000A300199401880B20190781E87B265
:101D4000601C84B2BC42B0DD06B0F0BDFFB50546F4
:101D50000E4617460024012D00DA0125FA2F00DD7A
:101D6000FA27039886420BD12C4606E031462046DE
:101D7000099A00F012F8601C84B2BC42F6DB0BE05A
:101D8000344606E021462846099A00F006F8601C11
:101D900084B203988442F5DBFFBD70B504460D465E
:101DA00016466A1E91B2621E90B2324600F01CFBCB
:101DB00070BDFFB581B00E461F460A9C0B980028E7
:101DC0000DD0354608E02B4600942946039A019829
:101DD000FFF7BCFF681C85B2BD42F4DB1BE0334655
:101DE00000943146039A0198FFF7B0FF3B460094F8
:101DF0003146019A1046FFF7A9FF33460094394651
:101E0000039A1046FFF7A2FF3B4600943946019A19
:101E10000398FFF79BFF05B0F0BD00000EB5012150
:101E2000502000F067FB1F2000020090202001904E
:101E300069460920C006FFF761FCFF20013009490F
:101E4000C8614000C8614000C8614000C8614000EE
:101E5000C861C01000901020019069460248FFF749
:101E60004DFC0EBD400000480008004810B5FFF7CB
:101E7000D5FFFF20013032498861142003F022FF92
:101E8000FF2001302E49C861142003F01BFFFFF72B
:101E90001FFC122000F066FAFFF71AFC012000F088
:101EA00061FA272000F058FA012000F055FA0120CD
:101EB00000F052FA112000F055FA012000F04CFA1F
:101EC000442000F04FFA002000F046FA0F2000F006
:101ED00043FA452000F046FA272000F03DFA0120A1
:101EE00000F03AFA002000F037FA002000F034FA4F
:101EF0003C2000F037FA052000F02EFA212000F0F7
:101F000031FA002000F028FA802000F025FA18208D
:101F100000F028FA802000F01FFA4E2000F022FA8C
:101F2000002000F019FA4F2000F01CFA272000F0E2
:101F300013FA012000F010FAFFF7CAFB10BD0000F1
:101F40004000004810B50246012002E0034653431A
:101F500018460B464C1EA1B2002BF7D110BD000055
:101F6000FFB586B007461C46781C87B20798401C10
:101F700080B207900297079801902046E217520F0F
:101F80001218D210E3175B0F1B18DB10DB00009454
:101F9000E31A01D0012300E00023D2182146E30F09
:101FA0005B185B105A4392B20392402C03D00898FE
:101FB000203886B202E00898303886B200255CE00E
:101FC0000C2C06D10C2070432E494018405D049023
:101FD0001AE0102C05D130012B494018405D0490C7
:101FE00012E0182C06D12420704328494018405D87
:101FF000049009E0402C05D1300225494018405D8D
:10200000049001E00AB0F0BD0020059020E00498A3
:10201000C007C00F002805D038460F9A0799FFF770
:10202000BCFE0AE00F98002801D1012000E000204A
:10203000024638460799FFF7B0FE04984010049016
:102040000798401C80B207900598401C80B205900C
:1020500005980828DBDB781C87B20299791AE20F11
:1020600012195210914204D1029F0198083080B297
:10207000019001980790681C85B2039885429FDB08
:1020800000BFBFE7D87F00004C8400003C8A0000FE
:1020900098970000FFB584B005461C462046E2171D
:1020A000520F1218D2102146E3175B0F5B18DB109A
:1020B000DB00E31A01D0012300E00023D2186243C1
:1020C00092B20092681C85B20598401C86B20596B3
:1020D0000195059E00273EE0102C06D10698400190
:1020E0001F494018C05D029001E008B0F0BD00201B
:1020F000039020E00298C007C00F002805D02846B2
:102100000D9A0599FFF749FE0AE00D98002801D1C4
:10211000012000E00020024628460599FFF73DFE19
:102120000298401002900598401C80B205900398D8
:10213000401C80B2039003980828DBDB681C85B242
:102140000198281AA04203D1019D3046083086B27A
:102150000596781C87B200988742BDDB00BFC4E7B4
:1021600098A10000FFB585B007460E9C00200490A2
:10217000082C01D102200490002538E00898401B6B
:10218000401E81B20A20FFF7DDFE0146029007984B
:10219000FDF7B4FF0A210390FDF7B0FF0E46002EB5
:1021A00011D10F9803940090E00F0019411004988A
:1021B00008186843C01980B223463022029006995D
:1021C000FFF7CEFE11E00F9803940090E00F001986
:1021D0004110049808186843C01980B2234632465B
:1021E000303202900699FFF7BBFE681CC5B2089812
:1021F0008542C3DB09B0F0BDFFB586B005460E468B
:102200001C4600200590681C85B2701C86B20195A2
:1022100000962046E217520F1218D2102146E317FB
:102220005B0F5B18DB10DB00E31A01D0012300E039
:102230000023D21894B2002746E0002004903DE02D
:1022400005990F98405C03900598401C80B205905A
:10225000002002901EE00398C007C00F00280BD09A
:102260001098002801D1012000E0002002463146EC
:102270002846FFF792FD04E031462846109AFFF702
:102280008CFD039840100390701C86B20298401C8D
:1022900080B2029002980828DDDB681C85B20198A4
:1022A000291A0898814204D1019D0098083080B213
:1022B0000090009E0498401C80B2049008990498F5
:1022C0008842BDDB781C87B2A742B6DB0AB0F0BDFE
:1022D000F8B506460F4615461C4613E006980090D2
:1022E0002A78234639463046FFF73AFE6D1CE62E23
:1022F00002DD381987B200262046E10F091849107F
:1023000089198EB228780028E8D1F8BD01229202FE
:10231000104B9A61002116E00122D2020D4B9A6106
:1023200080220240002A02D09A01DA6103E00122F1
:102330001203084B9A610122D202064BDA6142066F
:10234000100E4A1CD1B20829E6DB01229202014B91
:10235000DA6170474000004810B504462046FFF798
:10236000D5FF10BD10B50446012040020449886124
:102370002046FFF7CBFF012040020149C86110BD94
:1023800040000048FFB50020164C206000982060F7
:102390002046018142810998A0810C46CE17760F14
:1023A0003619F610F6008E1B05D10D46EE17760F86
:1023B0007619F61005E00846CE17760F3618F61097
:1023C000761C084F3E8238464282C381002B01D0E2
:1023D000B42B03D103488280C18002E00148818090
:1023E000C280FFBDD4100020F7B581B003462D4D4B
:1023F000ED89002D08D05A2D0DD0B42D16D0FF3DFB
:102400000F3D002D1CD118E0264D2D896D1A6D1E33
:10241000A8B21A4615E0234D2D89ED1A6D1EA8B2FB
:10242000204D6D896D1A6D1EAAB20AE008461D4D39
:102430006D89ED1A6D1EAAB203E018460A4600E047
:10244000FFBD00BF0546C617760F7619F710154E6B
:10245000368A5643BC19134D2D682D5D0095039D9A
:10246000002D0ED10546C617760F7619F610F60028
:10247000861B80273741009EBE430A4F3F683E556A
:102480000DE00546C617760F7619F610F600871B85
:1024900080263E41009F3E43024F3F683E5500BFAD
:1024A000CEE70000D4100020704700000EB50121D7
:1024B0001120400100F01EF88020009020200190A3
:1024C00069460A48FFF71AF9802008494031C86177
:1024D000C00100902020019069460548FFF70EF9E1
:1024E0000120800302494031C8610EBD001400483C
:1024F0000004004870B504460D460D4820400028F1
:1025000002D1002C00D004E0AB21890009A003F027
:10251000A7FA002D05D01048006B20430E49086330
:1025200004E00D48006BA0430B49086370BD000038
:1025300008F0FFFF2E2E5C2E2E5C4C6962726172D9
:102540006965735C7372635C637733326C30383304
:102550005F7263632E6300000000014070B50446A3
:102560000D460C482040002802D1002C00D003E08A
:1025700009490AA003F074FA002D05D01048806BB9
:1025800020430F49886304E00D48806BA0430C4949
:10259000886370BD0146FFFFC70200002E2E5C2E2F
:1025A0002E5C4C69627261726965735C7372635C04
:1025B000637733326C3038335F7263632E630000AD
:1025C0000000014010B50446402C11D0012C0FD062
:1025D000082C0DD0102C0BD0202C09D0FF2001305E
:1025E000844205D04000844202D00748844200D192
:1025F00004E00549223905A003F032FA0C48C0680E
:10260000A0430B49C86010BD790300002E2E5C2E3C
:102610002E5C4C69627261726965735C7372635C93
:10262000637733326C3038335F7263632E6300003C
:10263000400001400148C068704700004000014070
:1026400070B504461B4D062C0FD0082C0DD0092C5C
:102650000BD0052C09D00B2C07D00C2C05D00D2C41
:1026600003D00E2C01D00F2C00D104E0FF21233128
:1026700011A003F0F5F9E002184909880843184948
:10268000886108464068174908431549486000BFFB
:10269000134880690121C9030840884204D02846B4
:1026A000691E8DB20028F3D1002D01D1012070BD2B
:1026B0000020FCE7FFFF00002E2E5C2E2E5C4C69F4
:1026C000627261726965735C7372635C63773332E3
:1026D0006C3038335F7263632E630000000A1000B1
:1026E0000000014001005A5AF8B506460C4615464E
:1026F000394F002E01D0402E00D104E0FF21C0311F
:1027000036A003F0ADF9002C05D0042C03D0082C22
:1027100001D00C2C00D104E0FF21C1312FA003F027
:102720009FF9002D05D0012D03D0022D01D0032DDE
:1027300000D104E0FF21C23128A003F091F9304814
:10274000006B402108432E490863002E07D12D4815
:10275000C0690321890308432A49C8611BE029484D
:10276000C0690121890388432649C8610846006879
:1027700001218903084323490860084600690121B3
:10278000890308401F4908610846C0680121890380
:1027900008431C49C8603046302108432043284381
:1027A0001749486208464068174908431449486079
:1027B00000BF1348406A0121C9030840884204D081
:1027C0003846791E8FB20028F3D1002F01D10120A5
:1027D000F8BD0020FCE70000FFFF00002E2E5C2E5D
:1027E0002E5C4C69627261726965735C7372635CC2
:1027F000637733326C3038335F7263632E6300006B
:10280000000001400008004850015A5A10B5044623
:10281000082C01D0002C00D103E0752106A003F0A4
:102820001FF90E4880680E4908400E4940182043A1
:102830000A49886010BD00002E2E5C2E2E5C4C696B
:10284000627261726965735C7372635C6377333261
:102850006C3038335F7263632E6300000000014008
:10286000F7FF000000005A5A0146F0200840000916
:102870000A23584302460807000F8018C0B2704769
:1028800010B5044620202040002803D1E0B24028A3
:1028900000DA03E0AC2111A003F0E2F800BF184811
:1028A0000068000A0002CA3015490860084600683E
:1028B000000A00025330086000BFE043886300BF95
:1028C00008460068000A0002CA300860084600682E
:1028D000000A00025530086000BF10BD2E2E5C2E8D
:1028E0002E5C4C69627261726965735C7372635CC1
:1028F000637733326C3038335F7274632E63000059
:102900000028004010B50446002C01D0012C00D155
:1029100003E0672115A003F0A3F800BF1C4800687E
:10292000000A0002CA301A49086008460068000A16
:1029300000025330086000BF084640688021884389
:10294000E1018022114008431149486000BF084658
:102950000068000A0002CA30086008460068000AE1
:1029600000025530086000BF10BD00002E2E5C2E06
:102970002E5C4C69627261726965735C7372635C30
:10298000637733326C3038335F7274632E630000C8
:102990000028004000210D4A516901E00B4A5169AD
:1029A0000A4A52698A42F9D10170FF2212020A4092
:1029B000120A4270FF2212040A40120C827007228F
:1029C00012060A40120EC270704700000028004034
:1029D00070B50446402C09D0102C07D0082C05D027
:1029E000042C03D0022C01D0012C00D103E07A2169
:1029F00008A003F035F800BF0F48456B406BA842B4
:102A0000FAD128462040002801D0012070BD0020C6
:102A1000FCE700002E2E5C2E2E5C4C696272617207
:102A20006965735C7372635C637733326C3038331F
:102A30005F7274632E630000002800400021134A77
:102A400052681207D20F0271104A916901E00F4AD1
:102A500091690E4A92698A42F9D13F2212040A40D2
:102A6000120C82707F2212020A40120A42704A0639
:102A7000520E02700279002A06D182785211C27079
:102A80008278D206D20E8270704700000028004083
:102A900010B500F001F810BD10B54020FFF798FF09
:102AA000002805D00120034908704020FFF7E8FE08
:102AB00010BD00000400002070B504460D462F4EE6
:102AC00020202040002803D1E0B2402800DA03E0B3
:102AD0008D212BA002F0C4FF002D01D0012D00D1CB
:102AE00003E08E2126A002F0BBFF00BF2D48006846
:102AF000000A0002CA302B49086008460068000A34
:102B000000025330086000BF08468068400840005B
:102B1000401C886000BF234880688007C00F0028E1
:102B200004D13046711E8EB20028F4D1002E01D19E
:102B3000012070BD002D05D11A48006BA043194932
:102B4000086304E01748006B2043164908631548E2
:102B50008068400840001349886000BF084600684C
:102B6000000A0002CA30086008460068000A000235
:102B70005530086000BF0020DBE70000FFFF0000C9
:102B80002E2E5C2E2E5C4C69627261726965735CDC
:102B90007372635C637733326C3038335F727463A3
:102BA0002E6300000028004010B50446206800286D
:102BB00017D0012149022068884212D049002068BC
:102BC00088420ED0052109022068884209D00321DD
:102BD00049022068884204D00721090220688842FF
:102BE00000D103E0522115A002F03AFF1C48806B8F
:102BF0000821884308301A498863FFF71BFDC00786
:102C0000C00F002804D11748FFF7DCFC012010BDDD
:102C10000020FFF777FE206800F026F820460930F4
:102C200000F072F8201D00F04BF90120FFF76AFE5A
:102C30000C48FFF7C7FC0120E9E700002E2E5C2EB0
:102C40002E5C4C69627261726965735C7372635C5D
:102C5000637733326C3038335F7274632E630000F5
:102C6000000001407903000010B50446002C12D08A
:102C70000120400284420ED0400084420BD0052047
:102C80000002844207D003204002844203D0072080
:102C90000002844200D104E09721890010A002F0D4
:102CA000DFFE00BF17480068000A0002CA3015495D
:102CB000086008460068000A00025330086000BF40
:102CC0000846846000BF0068000A0002CA3008603D
:102CD00008460068000A00025530086000BF10BDB9
:102CE0002E2E5C2E2E5C4C69627261726965735C7B
:102CF0007372635C637733326C3038335F72746342
:102D00002E6300000028004010B50446A078FFF7AD
:102D1000ABFD632800DC03E0DF2129A002F0A0FE68
:102D20006078FFF7A1FD012805DB6078FFF79CFDC7
:102D30000C2800DC03E0E02121A002F091FE2078C5
:102D4000FFF792FD012805DB2078FFF78DFD1F2896
:102D500000DC03E0E1211AA002F082FEE0780728FF
:102D600000DA03E0E22116A002F07AFE00BF1D485F
:102D70000068000A0002CA301A4908600846006864
:102D8000000A00025330086000BFE0780006A17816
:102D9000090408436178090208432178084311496E
:102DA000486100BF08460068000A0002CA30086097
:102DB00008460068000A00025530086000BF10BDD8
:102DC0002E2E5C2E2E5C4C69627261726965735C9A
:102DD0007372635C637733326C3038335F72746361
:102DE0002E6300000028004070B50446294D072CD2
:102DF00000DA04E00921890127A002F031FE00BFBA
:102E00002E480068000A0002CA302C4908600846B3
:102E10000068000A00025330086000BF084640689E
:102E200080210840002816D02448806840084000CF
:102E3000401C2249886000BF204880688007C00F7E
:102E4000002804D12846691E8DB20028F4D1002D37
:102E500001D1012070BD19484068C008C000610759
:102E6000490F0843154948600846806840084000FB
:102E7000886000BF08460068000A0002CA30086087
:102E800008460068000A00025530086000BF0020B4
:102E9000E0E70000FFFF00002E2E5C2E2E5C4C6948
:102EA000627261726965735C7372635C63773332FB
:102EB0006C3038335F7274632E630000002800406A
:102EC00010B504462078FFF7CFFC3B2800DC03E078
:102ED000BC2139A002F0C4FD6078FFF7C5FC3B2897
:102EE00000DC03E0BD2134A002F0BAFD2079002807
:102EF0000FD1A078FFF7B8FC012805DBA078FFF719
:102F0000B3FC0C2800DC0EE0BF212BA002F0A8FDD2
:102F100009E0A078FFF7A8FC172800DC03E0C12136
:102F200025A002F09DFD00BF2C480068000A0002A9
:102F3000CA302A49086008460068000A0002533077
:102F4000086000BF08464068082188432179C9000D
:102F500008221140084321494860207900280CD1FB
:102F6000E0784005A1780904084361780902084324
:102F7000217808431949886108E0A0780004617845
:102F8000090208432178084314498861134880687E
:102F9000400840001149886000BF08460068000AE8
:102FA0000002CA30086008460068000A0002553076
:102FB000086000BF10BD00002E2E5C2E2E5C4C69F8
:102FC000627261726965735C7372635C63773332DA
:102FD0006C3038335F7274632E6300000028004049
:102FE0000EB501212020FFF785FA03200003009091
:102FF0002020019069460548FEF780FB0120000370
:1030000002494031C8614000C8610EBD000400485B
:10301000F0B58DB004460020089009900A90FEF7A4
:10302000B9FC6106080EFEF779FCFEF7FBFC2C20CC
:10303000FEF774FCFEF7F6FC0620FEF76FFCFEF7C9
:10304000F1FCFEF7C9FC322002F03CFEFEF7A2FCC8
:103050006100491CC8B2FEF761FCFEF7E3FC0028E2
:1030600029D1FEF723FC69460884FEF7C7FBFEF76B
:103070001DFC014668464184FEF7C0FBFEF716FCC6
:10308000014668468184FEF7B9FBFEF70FFC014656
:103090006846C184FEF7B2FBFEF708FC01466846AD
:1030A0000185FEF7ABFBFEF701FC69464885FEF79C
:1030B000D1FBFEF791FC6846008C01026846408C0B
:1030C00001438FB26846C08C00026946098D0843EF
:1030D00080B20B903846FDF7B3FC0190FDF736FD4A
:1030E0000022194B03910290FDF7CAFB054600220E
:1030F000164BFDF72DFC0022154B05910490FDF7B2
:10310000B1FB07910690FDF75DFD124908600B9831
:10311000FDF796FC0390FDF719FD054600220E4BC6
:10312000FDF7AEFB0022094B05910490FDF710FC62
:1031300007910690FDF746FD0849086000200B90B6
:1031400000270DB0F0BD000000E06540E0FFEF405B
:10315000008046408000002000005940840000208C
:103160007047704770477047F0B58BB0FEF77EFE32
:10317000FF200023FA227A210090F848FFF702F995
:10318000FF20FEF7E7FC8020F5498861FEF76EFE20
:1031900001F064FE01F0DEFD012000214A234922F6
:1031A0000091019044214620FEF703FE00201423E5
:1031B000FA22194600900120FEF7C8FD0020642382
:1031C000FA22194600900120FEF7C0FD00203C23A2
:1031D000CD22194600909620FEF7B8FD00207D23F1
:1031E0009622142100901046FEF7B0FD00206423C3
:1031F000CD22142100901046FEF7A8FDFDF722FF16
:10320000D848806801210843D649886000BF00BFC4
:10321000FDF736FF0A90FDF70BFF0A98FDF718FC43
:103220000022D14B01910090FDF72AFBCF4AD04BF1
:1032300003910290FDF716FBCE4ACF4B0591049007
:10324000FDF786FB0022CD4B07910690FDF70AFBA8
:1032500009910890FDF75CFCC7B2122F00DD122720
:103260000A98FDF7F5FB0022BF4B03910290FDF792
:1032700007FBBE4ABE4B05910490FDF7F3FAC04A26
:10328000C04B07910690FDF763FB09910890FDF78D
:103290003FFCC6B2642E00DD6426FF20BA490C2331
:1032A0001822009101900221E320FEF7A5FF0120E2
:1032B000002100910190F921C91B88B20E23F92247
:1032C0000421FEF776FD642E0AD100200C21032391
:1032D0006422009101900221CA20FEF743FF09E019
:1032E00000200C2102233246009101901946D02083
:1032F000FEF738FF00200C23252202210090DC205D
:10330000FEF72EFEA1480078062805DB9F480078CE
:10331000122801DC012500E000259DA19D48FCF755
:1033200048FF002805D1002D01D09B4CE7E19B4CC4
:10333000E5E19BA19748FCF73CFF002805D1002D53
:1033400001D0984CDBE1984CD9E198A19148FCF769
:1033500030FF002801D1964CD1E196A18D48FCF7B1
:1033600028FF002805D1002D01D0934CC7E1934CD4
:10337000C5E193A18748FCF71CFF002801D1914CBF
:10338000BDE191A18348FCF714FF002801D18F4CC7
:10339000B5E18FA17F48FCF70CFF002801D18D4CCF
:1033A000ADE18DA17B48FCF704FF002805D08BA17F
:1033B0007848FCF7FEFE002801D1894C9FE189A1E5
:1033C0007448FCF7F6FE002805D087A17148FCF789
:1033D000F0FE002801D1854C91E185A16D48FCF7F4
:1033E000E8FE002805D083A16A48FCF7E2FE002829
:1033F00001D1814C83E181A16648FCF7DAFE002807
:1034000005D07FA16348FCF7D4FE002801D17D4C94
:1034100075E17DA15F48FCF7CCFE002811D07BA1AF
:103420005C48FCF7C6FE00280BD079A15948FCF790
:10343000C0FE002805D077A15648FCF7BAFE002848
:1034400001D1754C5BE175A15248FCF7B2FE002832
:1034500001D1734C53E173A14E48FCF7AAFE00283A
:1034600005D071A14B48FCF7A4FE002801D16F4C98
:1034700045E16FA14748FCF79CFE002805D06DA1EF
:103480004448FCF796FE002801D16B4C37E16BA154
:103490004048FCF78EFE002805D069A13D48FCF7A6
:1034A00088FE002801D1674C29E167A13948FCF763
:1034B00080FE002805D065A13648FCF77AFE00287A
:1034C00001D1634C1BE163A13248FCF772FE002876
:1034D00001D1614C13E161A12E48FCF76AFE00287E
:1034E00001D15F4C0BE15FA12A48FCF762FE002886
:1034F00005D05DA12748FCF75CFE002801D15B4C9C
:10350000FDE05BA12348FCF754FE002801D1594C93
:10351000F5E059A11F48FCF74CFE002801D1574C9B
:10352000EDE057A11B48FCF744FE00280BD055A145
:103530001848FCF73EFE002805D053A11548FCF7BB
:1035400038FE002801D1514CD9E051A11148FCF7B7
:1035500030FE002801D14F4CD1E09DE0A8000020B2
:1035600040140048002401400000483F9A9999996E
:103570009999F53F3CBD5296218E953F0000E03F62
:10358000FCA9F1D24D62703F706700006E00002010
:103590003030000009000020A067000068680000CB
:1035A0003031000030690000F8690000303200005E
:1035B000C06A000030330000886B0000506C0000CF
:1035C00030340000186D000030350000E06D000060
:1035D00030360000A86E0000303700003330310074
:1035E000706F000030380000323100003870000089
:1035F000303900003232000000710000313000002C
:1036000032330000C8710000313100003132000057
:103610003234000032350000907200003133000077
:103620005873000031340000333032002074000041
:103630003135000032360000E874000031360000F9
:1036400032370000B075000031370000323800001A
:1036500078760000313800004077000031390000F2
:10366000087800003230000033310000D0780000CC
:10367000323900009879000033300000607A000091
:10368000333200003439000035380000287B000058
:1036900033330000F07B000082A18348FCF789FDF2
:1036A000002801D1814C2AE081A17F48FCF781FDEF
:1036B000002801D17F4C22E07FA17B48FCF779FDF7
:1036C000002811D07DA17848FCF773FD00280BD0AD
:1036D0007BA17548FCF76DFD002805D079A17248E3
:1036E000FCF767FD002801D1774C08E077A16E4810
:1036F000FCF75FFD002801D1754C00E0754CFF2000
:1037000028231A46182100940190D220FEF774FD58
:10371000002171480068FDF771FA07D200200C23E0
:103720002D224B210090CE20FEF71AFC6A4800683B
:10373000FDF7B5F9099000201821022300910190AE
:103740004321D420099AFEF70DFD644962480068C0
:10375000FCF769FF0790FDF789F90A210890FCF74B
:10376000E3FC0020099118210123009101904321DD
:10377000EF20099AFEF7F6FC012000215823F022E1
:10378000009101905621EE20FEF713FB0020034626
:10379000022245210090F920FEF715FA5048142125
:1037A0004156002907DA00200C232D226C210090BD
:1037B0009820FEF7D5FB0020182100910190484881
:1037C00014228256022364219E20FEF7CBFC0020A7
:1037D0001823432264210090B620FEF7C1FB00208D
:1037E0000346022268210090B820FEF7ECF9002081
:1037F00018237E226E210090C320FEF7B1FB3848CB
:1038000015214156002907DA00200C232D226C21B6
:103810000090D120FEF7A4FB002018210091019018
:103820002F481522825602236421D720FEF79AFCE6
:1038300000201823432264210090EF20FEF790FB24
:1038400000200346022268210090F120FEF7BBF918
:1038500000200C2323A2162100900520FEF738FD3E
:1038600000200C23204A162100901720FEF730FD7F
:1038700001211B4800F04CFD002010232822682164
:1038800000904320FEF706FC002115480A3000F0A6
:103890003FFD1648FEF77AF980201549C8610BB044
:1038A000F0BD00003334000009000020B87C0000A7
:1038B00033350000807D00003533000035340000D2
:1038C0003535000035360000487E000035370000F1
:1038D000107F0000C06A000014000020000020419A
:1038E0002C00002069703A0018000020A800002079
:1038F000401400480348006803490978401801490A
:1039000008607047740000207C00002001480249D4
:103910000860704700127A000000002000B5FFF731
:10392000F5FF0B4909884805400D0A498969C90A0C
:10393000C9020143074A9161054949888805800DFC
:103940001146096A890A89020143116200BD00001B
:10395000000A100000000140F0B585B00026FEF717
:1039600069FEC007C00F002869D00120800372499A
:103970008861002405E07D20C00002F0A3F9601CEE
:10398000C4B23C2CF7DB6DA001F024FB002408E05E
:10399000642002F097F9601CC4B2C82C01DD012636
:1039A00003E0674800780128F2D100BF01208003BE
:1039B0006149C861002E38D1624802F0C8F8074654
:1039C00061A1384602F0ACF8007D6049087060A142
:1039D000384602F0A5F8007D5C4948705DA1384684
:1039E00002F09EF8007D594988705BA1384602F0CC
:1039F00097F8007D5549C87058A1384602F090F8F4
:103A0000007D5249087156A1384602F089F8808A33
:103A10004E49C88053A1384602F082F8007D4B49D8
:103A20000872384602F046F800BF80214548FCF78E
:103A3000AEFB00204C4908804149087000BF0020BF
:103A4000009001900290039001210820FEF786FD6E
:103A50003E49C8886421FCF767FBCDB20A2128469D
:103A6000FCF762FB04010A212846FCF75DFB6018A5
:103A7000C1B26846C172354908790A21FCF754FB86
:103A80000401324908790A21FCF74EFB6018C1B2E3
:103A9000684681722D48017A684601732B49C878BF
:103AA0000A21FCF741FB04012849C8780A21FCF7E8
:103AB0003BFB6018C1B268464172244988780A21EC
:103AC000FCF732FB0401214988780A21FCF72CFB22
:103AD0006018C1B2684681711C4948780A21FCF718
:103AE00023FB0401194948780A21FCF71DFB6018E3
:103AF000C1B268464171154908780A21FCF714FBE8
:103B00000401124908780A21FCF70EFB6018C1B2C3
:103B1000684601710021C1710121017200200090ED
:103B20006846FFF741F80320FFF75EF901214020C6
:103B3000FEF7C2FF05B0F0BD4004004835000000AC
:103B40006F00002052100020730000004810002079
:103B50006D00000068000000640000006D6F000050
:103B6000790000007700000070000020704710B559
:103B700000F002F810BD000010B50421114800F05B
:103B8000C5F800281CD004210E4800F025F80D4887
:103B900000F0E8FA04460C480078002810D10B48E1
:103BA0000B490988445400787B2804D108480088D0
:103BB000401C074908807D2C02D101200249087071
:103BC00010BD0000004400406F0000205210002093
:103BD000700000207047000070B504460D46144880
:103BE00084420ED0134884420BD01348844208D03C
:103BF0001248844205D01248844202D011488442BF
:103C000000D104E0FF216D310FA001F029FF17481A
:103C10002840002802D1002D00D004E0FF216E31A1
:103C200009A001F01DFF206AA843206270BD0000BA
:103C3000003801400044004000480040004C004073
:103C400000500040001401402E2E5C2E2E5C4C696A
:103C5000627261726965735C7372635C637733323D
:103C60006C3038335F756172742E6300A1FF000001
:103C700070B504460D46164884420ED0154884425D
:103C80000BD01548844208D01448844205D014480B
:103C9000844202D01348844200D104E0FF218831DD
:103CA00011A001F0DDFE7F2040022840002802D153
:103CB000002D00D004E0FF2189310BA001F0D0FEDF
:103CC000E0692840002801D0012070BD0020FCE7F9
:103CD000003801400044004000480040004C0040D3
:103CE00000500040001401402E2E5C2E2E5C4C69CA
:103CF000627261726965735C7372635C637733329D
:103D00006C3038335F756172742E630070B5044691
:103D10000D46164884420ED0154884420BD01548F3
:103D2000844208D01448844205D01448844202D00A
:103D30001348844200D104E0FF21543111A001F066
:103D40008FFE19482840002802D1002D00D004E041
:103D5000FF2155310BA001F083FEE06928400028C7
:103D600001D0012070BD0020FCE7000000380140B8
:103D70000044004000480040004C0040005000401B
:103D8000001401402E2E5C2E2E5C4C696272617212
:103D90006965735C7372635C637733326C3038339C
:103DA0005F756172742E6300A0FF000070B5044659
:103DB0000D4616461C4884420ED01C4884420BD047
:103DC0001B48844208D01B48844205D01A488442CC
:103DD00002D01A48844200D104E0FF21323118A0F9
:103DE00001F03EFE1F482840002802D1002D00D0DF
:103DF00004E0FF21333112A001F032FE002E01D089
:103E0000012E00D104E0FF2134310DA001F028FE85
:103E1000002E03D0A0682843A06004E0A068E94316
:103E200089B20840A06070BD0038014000440040E5
:103E300000480040004C0040005000400014014089
:103E40002E2E5C2E2E5C4C69627261726965735C09
:103E50007372635C637733326C3038335F756172D1
:103E6000742E6300A0FF0000F0B589B005460C4633
:103E70000026002008900027A64885420ED0A648BC
:103E800085420BD0A548854208D0A548854205D07B
:103E9000A448854202D0A448854200D103E077219E
:103EA000A2A001F0DDFD2068002804D0A849206808
:103EB000884200D803E078219CA001F0D1FDA088C1
:103EC00000280DD0A08801214902884208D0A0888E
:103ED0004900884204D0A08803214902884200D1C9
:103EE00003E0792191A001F0BBFDE088002809D012
:103EF000E08801214902884204D0E08803210902B8
:103F0000884200D103E07A2188A001F0A9FDA068D1
:103F1000002804D08F49A068884200D803E07B21A4
:103F200082A001F09DFDA089002804D0A089FF2176
:103F30000131884200D103E07C217CA001F090FD9A
:103F4000E089002805D0E089202802D0E0891028E7
:103F500000D103E07D2175A001F082FD208A0028B8
:103F600008D0208A082805D0208A0C2802D0208A70
:103F7000042800D103E07E216CA001F071FD608A6D
:103F800075490840002803D1608A002800D003E06A
:103F90007F2166A001F064FDA08A002808D0A08AD5
:103FA000082805D0A08A042802D0A08A0C2800D1B5
:103FB00003E080215DA001F053FDA088A1890843A2
:103FC000E1890843218A0843618A08432968634AD2
:103FD000114008432860E088A18A08436968C32229
:103FE0009200914308436860A08800282FD121687F
:103FF0000801FCF725FD0790A068FCF721FD06905D
:104000000799FCF74DFB07463846FCF748FD86B29A
:104010003046FCF715FD39460190FCF700FB832183
:10402000C9050290FCF7FFFA0390FCF78FFD002210
:104030004B4B05910490FCF771FB07910690FCF740
:1040400067FD80B20890EE600898286160E0A08863
:104050000121490288421BD12168C800FCF7F0FC0D
:104060000290A068FCF7ECFC01900299FCF718FBA9
:104070000390FCF76BFD0022394B05910490FCF78F
:104080004DFB07910690FCF743FD86B2EE603FE0E2
:10409000A0880121890288421BD121688800FCF791
:1040A000CFFC0290A068FCF7CBFC01900299FCF7D2
:1040B000F7FA0390FCF74AFD0022294B0591049082
:1040C000FCF72CFB07910690FCF722FD86B2EE6010
:1040D0001EE02068FCF7B4FC0290A068FCF7B0FC7E
:1040E0008721C9050090FCF79EFA01900299FCF720
:1040F000D7FA0390FCF72AFD0022194B0591049092
:10410000FCF70CFB07910690FCF702FD86B2EE600F
:1041100009B0F0BD003801400044004000480040B4
:10412000004C004000500040001401402E2E5C2E38
:104130002E5C4C69627261726965735C7372635C58
:10414000637733326C3038335F756172742E63007D
:104150000024F4000090D003FCFF0000C0F8FFFF33
:104160000000E03F10B504460C4884420ED00C48D5
:1041700084420BD00B48844208D00B48844205D0BF
:104180000A48844202D00A48844200D103E06421F4
:1041900008A001F065FC606AC0B210BD00380140A3
:1041A0000044004000480040004C004000500040E7
:1041B000001401402E2E5C2E2E5C4C6962726172DE
:1041C0006965735C7372635C637733326C30383368
:1041D0005F756172742E630070B504460D46104819
:1041E00084420ED00F4884420BD00F48844208D03E
:1041F0000E48844205D00E48844202D00D488442C5
:1042000000D103E045210CA001F02AFCFF2D00DCC9
:1042100003E0462108A001F023FCA56270BD000068
:10422000003801400044004000480040004C00407D
:1042300000500040001401402E2E5C2E2E5C4C6974
:10424000627261726965735C7372635C6377333247
:104250006C3038335F756172742E630000B589B0BD
:10426000002006900790089018216846FBF78FFF02
:1042700001212020FEF73EF901218020FEF76EF992
:10428000214880690F2109038843012189034018CF
:104290001D498861084680690F210904884301216E
:1042A000890440181849886108200690202007904A
:1042B00006A91548FDF722FA102006901120079054
:1042C00006A91148FDF71AFA4B20C00100900321FE
:1042D00049026846818001214902C180880102901B
:1042E000002168468181C18101828182032141824E
:1042F00069460648FFF7B8FD012204210348FFF78D
:1043000055FD09B000BD0000000400480044004015
:10431000F3B585B0069800280AD00E241E252E2657
:10432000052715200490252003903520029009E0F0
:104330005924692579265027602004907020039025
:1043400080200290FEA10598FBF733FF002807D1DB
:1043500010230B22682100902846FDF79BFE38E3CE
:10436000F8A10598FBF725FF00280FD110230C2298
:10437000682100900498FDF78DFE002010230D2287
:10438000682100900398FDF785FE22E3EEA10598D1
:10439000FBF70FFF002807D110230E2268210090A1
:1043A0002846FDF777FE14E3E8A10598FBF701FF27
:1043B00000280FD110230F22682100900498FDF7E8
:1043C00069FE002010231A46682100900398FDF72B
:1043D00061FEFEE2DEA10598FBF7EBFE002817D197
:1043E00010231122682100902046FDF753FE002083
:1043F00010230F22682100902846FDF74BFE002075
:1044000010231A46682100903046FDF743FEE0E293
:10441000D0A10598FBF7CDFE00281FD11023112253
:10442000682100903846FDF735FE002010230F224A
:10443000682100900498FDF72DFE002010231A46F5
:10444000682100900398FDF725FE0020102312221A
:10445000682100900298FDF71DFEBAE2BEA1059802
:10446000FBF7A7FE002817D110231A4668210090F9
:104470002046FDF70FFE0020102313226821009034
:104480002846FDF707FE0020102314226821009023
:104490003046FDF7FFFD9CE2B0A10598FBF789FED1
:1044A000002805D0AEA10598FBF783FE002810D1A7
:1044B000002010231522682100900498FDF7EAFDE2
:1044C000002010231A46682100900398FDF7E2FDB2
:1044D0007FE2A4A10598FBF76CFE002805D0A2A1FD
:1044E0000598FBF766FE002810D100201023162245
:1044F000682100900498FDF7CDFD002010231A4696
:10450000682100900398FDF7C5FD62E297A1059828
:10451000FBF74FFE002805D095A10598FBF749FE53
:10452000002810D100201023172268210090049841
:10453000FDF7B0FD002010231A4668210090039873
:10454000FDF7A8FD45E28BA10598FBF732FE002898
:1045500005D089A10598FBF72CFE002810D100207A
:1045600010231822682100900498FDF793FD002085
:1045700010231A46682100900398FDF78BFD28E26E
:104580007EA10598FBF715FE002811D07CA10598A7
:10459000FBF70FFE00280BD07AA10598FBF709FE68
:1045A000002805D078A10598FBF703FE002818D154
:1045B000002010231722682100902046FDF76AFD95
:1045C000002010231822682100902846FDF762FD84
:1045D000002010231A46682100903046FDF75AFD4E
:1045E000F7E16AA10598FBF7E4FD00280FD110233D
:1045F0000F22682100900498FDF74CFD0020102345
:104600001422682100900398FDF744FDE1E160A1C8
:104610000598FBF7CEFD002805D05EA10598FBF7B5
:10462000C8FD002810D10020102315226821009019
:104630000498FDF72FFD002010231422682100901C
:104640000398FDF727FDC4E153A10598FBF7B1FDE1
:10465000002805D051A10598FBF7ABFD002810D12B
:10466000002010231622682100900498FDF712FD07
:10467000002010231422682100900398FDF70AFD02
:10468000A7E147A10598FBF794FD002805D045A1B7
:104690000598FBF78EFD002810D10020102317226B
:1046A000682100900498FDF7F5FC002010231422E7
:1046B000682100900398FDF7EDFC8AE13AA1059886
:1046C000FBF777FD002805D038A10598FBF771FDB1
:1046D000002810D10020102318226821009004988F
:1046E000FDF7D8FC002010231422682100900398C5
:1046F000FDF7D0FC6DE12EA10598FBF75AFD0028CF
:1047000007D110231922682100902846FDF7C2FC2A
:104710005FE128A10598FBF74CFD00284CD1102340
:104720001A22682100900498FDF7B4FC00201023A1
:104730001422682100900398FDF7ACFC49E10000C9
:1047400030300000303100003032000030330000E3
:1047500030340000303500003036000030370000C3
:104760003330310030380000323100003039000081
:1047700032320000313000003233000031310000AD
:104780003132000032340000323500003133000095
:104790003134000033303200313500003236000051
:1047A0003136000032370000313700003238000067
:1047B000313800003139000087A10598FBF7F9FC7A
:1047C000002805D085A10598FBF7F3FC002818D137
:1047D000002010231B22682100902046FDF75AFC80
:1047E000002010231C22682100902846FDF752FC6F
:1047F000002010231822682100903046FDF74AFC63
:10480000E7E077A10598FBF7D4FC00280FD110232F
:104810001D22682100900498FDF73CFC0020102325
:104820001C22682100900398FDF734FCD1E06DA1B3
:104830000598FBF7BEFC00280FD110231E2268212B
:1048400000900498FDF726FC002010231C2268210C
:1048500000900398FDF71EFCBBE063A10598FBF7F1
:10486000A8FC00280BD061A10598FBF7A2FC00284A
:1048700005D05FA10598FBF79CFC002810D1002013
:1048800010231F22682100900498FDF703FC0020EC
:1048900010231922682100900398FDF7FBFB98E094
:1048A00054A10598FBF785FC002817D1102320227E
:1048B000682100902046FDF7EDFB00201023212207
:1048C000682100902846FDF7E5FB002010232222F6
:1048D000682100903046FDF7DDFB7AE046A105989F
:1048E000FBF767FC00281FD11023232268210090CA
:1048F0003846FDF7CFFB00201023242268210090CA
:104900000498FDF7C7FB00201023252268210090A2
:104910000398FDF7BFFB00201023142268210090AC
:104920000298FDF7B7FB54E034A10598FBF741FC72
:1049300000280FD110232622682100900498FDF74B
:10494000A9FB002010231922682100900398FDF78D
:10495000A1FB3EE02AA10598FBF72BFC002811D013
:1049600028A10598FBF725FC00280BD026A1059867
:10497000FBF71FFC002805D024A10598FBF719FCC4
:10498000002808D100201023272268210090284603
:10499000FDF780FB1DE01EA10598FBF70AFC00282F
:1049A0000FD110231722682100900498FDF772FBA5
:1049B000002010231922682100900398FDF76AFB5C
:1049C00007E0002010230E22682100902846FDF702
:1049D00061FB07B0F0BD0000323000003331000051
:1049E0003239000033300000333200003439000027
:1049F0003538000033330000333400003335000015
:104A00003533000035340000353500003536000000
:104A100035370000F8B5012080032E498861002455
:104A2000002705E07D20C00001F04CF9601CC4B2F5
:104A3000142CF7DB28A000F0CDFA002408E0642055
:104A400001F040F9601CC4B2C82C01DD012703E06D
:104A5000224800780128F2D100BF012080031D49BF
:104A6000C861002F2CD11E4801F071F800900A2176
:104A70001C48FBF78CFB14211B48FBF788FB1BA190
:104A8000009801F04DF8056929461648FBF79FFB91
:104A900017A1009801F044F88569C1692846FCF720
:104AA00091F81449086014A1009801F039F80569DB
:104AB00029460D48FBF78BFB009800F0FBFF00BF79
:104AC00080210748FBF763FB00200C49088003495D
:104AD0000870F8BD40040048360000006F00002058
:104AE0005210002009000020180000206300000080
:104AF00074000000140000206970000070000020A5
:104B0000F8B501208003854988610024002505E06F
:104B10007D20C00001F0D6F8601CC4B2142CF7DB75
:104B20007FA000F057FA002408E0642001F0CAF8E2
:104B3000601CC4B2C82C01DD012503E0794800786F
:104B40000128F2D100BF002D33D1774800F0FFFFDC
:104B500007460A217548FBF71AFB0A2173480A30F9
:104B6000FBF715FB72A1384600F0DAFF0669314603
:104B70006E48FBF72CFB6FA1384600F0D1FF0669A9
:104B800031466A480A30FBF722FB6BA1384600F039
:104B9000C7FF007D40B26549087568A1384600F03E
:104BA000BFFF007D40B261494875384600F082FF82
:104BB00000BF80215C48FBF7EAFA002060490880CA
:104BC0005849087000255FA000F004FA002408E0AE
:104BD000642001F077F8601CC4B2C82C01DD012507
:104BE00003E0504800780128F2D100BF002D33D1F6
:104BF0004D4800F0ACFF07460A215348FBF7C7FABF
:104C00000A2151480A30FBF7C2FA49A1384600F0A0
:104C100087FF066931464C48FBF7D9FA45A138466B
:104C200000F07EFF0669314647480A30FBF7CFFAAD
:104C300041A1384600F074FF007D40B2424908753A
:104C40003EA1384600F06CFF007D40B23E494875F9
:104C5000384600F02FFF00BF80213348FBF797FA5A
:104C60000020374908802F490870002537A000F040
:104C7000B1F9002408E0642001F024F8601CC4B2FB
:104C8000C82C01DD012503E0264800780128F2D177
:104C900000BF012080032149C861002D33D1224883
:104CA00000F055FF07460A212948FBF770FA0A2150
:104CB00027480A30FBF76BFA1DA1384600F030FF99
:104CC000066931462248FBF782FA1AA1384600F0FD
:104CD00027FF066931461E480A30FBF778FA16A10D
:104CE000384600F01DFF007D40B21949087513A138
:104CF000384600F015FF007D40B21549487538462A
:104D000000F0D8FE00BF80210748FBF740FA0020E2
:104D10000B49088003490870F8BD000040040048B2
:104D2000370000006F000020521000202C000020EF
:104D3000640000006E000000680000006C000000CD
:104D40007000002038000000420000203900000000
:104D5000580000207CB54420FEF75AF93C48006812
:104D6000FBF79DFE044600201821022322460091F5
:104D700001901B219820FDF7F5F936493448006869
:104D8000FBF751FC0646FBF771FE05460A21FBF7CF
:104D9000CBF90C46002018210123224600910190F6
:104DA0001B21B320FDF7DEF9012000213023B422BE
:104DB000009101902E21B220FCF7FBFF0020182368
:104DC00043221B210090BF20FDF7CAF800200346B4
:104DD00002221E210090C320FCF7F5FE1E48006849
:104DE000FBF75DFE044600201821022322460091B5
:104DF000019043219820FDF7B5F91649164800683F
:104E0000FBF711FC0646FBF731FE05460A21FBF7CE
:104E10008BF90C46002018210123224600910190B5
:104E20004321B320FDF79EF9012000215823B4222D
:104E3000009101905621B220FCF7BBFF00201823FF
:104E4000252243210090BF20FDF78AF87CBD000099
:104E500080000020000020418400002000B585B0C3
:104E6000002003900490029002A8FDF793FD03A890
:104E7000FDF7E4FD0020102102231422009101908F
:104E800001460520FDF76EF90020102100910190E8
:104E90006846807A0107090F6846807A00110A2364
:104EA00058430A18022300211520FDF75BF9002062
:104EB00010230722014600902820FDF7EBF8002080
:104EC0001021009101906846407A0107090F684659
:104ED000407A00110A2358430A18022300213C207B
:104EE000FDF740F9002010230822014600904F20D2
:104EF000FDF7D0F800201021009101906846007A5B
:104F00000107090F6846007A00110A2358430A185E
:104F1000022300216420FDF725F90020102302461A
:104F2000014600907620FDF7B5F8002010230922F5
:104F3000014600908A20FDF7ADF8002010230A22D8
:104F4000014600909B20FDF7A5F8002000906846E0
:104F5000C27A10230021AF20FDF79CF86846807BC1
:104F60000107090F6846807B00110A225043081888
:104F70001549087000204021022300910190124839
:104F800002781C210020FDF7EDF80020402100915F
:104F900001906846407B0107090F6846407B00117D
:104FA0000A2358430A1802231C214C20FDF7DAF883
:104FB0000120002136234922009101903021462012
:104FC000FCF7F7FE05B000BD6E000020704770478B
:104FD000704700000FB410B503A9044B044A0298AF
:104FE00000F0A2F910BC08BC04B01847F15C000046
:104FF000880000202021020C01D010211046020A56
:1050000001D010460839020901D01046091F820854
:1050100001D01046891E420801D0881E7047081A28
:10502000704730B47446641E2578641CAB4204D3C8
:10503000635D5B00E31830BC18471D46F8E70000CD
:10504000002809DB00BF00BFC206D20E012191403B
:10505000024A116000BF00BF7047000000E100E09D
:1050600010B5002819DB1A4A03231B02D218830843
:105070009B00D2588307DC0EFF23A3409A438B0783
:105080001B0E8407E40EA3401A43114B0324240291
:105090001B198408A4001A5118E00E4A03071B0FBD
:1050A000083B9B089B00D2588307DC0EFF23A340DC
:1050B0009A438B071B0E8407E40EA3401A43054B4B
:1050C0000407240F083CA408A4001A5110BD0000D6
:1050D00000E100E01CED00E030B5002805D0164CE2
:1050E000021F20680023014605E0084630BD9042BB
:1050F00003D8034640680028F9D1002B00D0596836
:10510000002B0AD01C68D51AA54204D11268A41835
:105110001A461C6002E05A6000E02260002807D0B6
:105120001468851AA54203D10568641914604068A3
:105130005060184630BD0000A0000020F1B50E4CB4
:105140000F480C4E001B0D4FC508ED000022114604
:10515000009800F011FE002803D13068002801D02B
:105160000020F8BD3C6000202560606001203060B8
:10517000ECE70000A4000020EC100020A0000020BC
:10518000E814002002E008C8121F08C1002AFAD162
:1051900070477047002001E001C1121F002AFBD1B7
:1051A00070470000F0B51FB486B00998089A030D47
:1051B0000021024314D05148514A18185043051495
:1051C0001198012810981AD0281A401C00264D4F1B
:1051D0004D49009601910490002812DA444211E0F2
:1051E0001198012449A3012801D11098C1430698C0
:1051F000119A84600360C26041600BB0F0BD404210
:10520000E4E70446210500203F4A001C5141039178
:10521000029012E0E00707D032463B460199009821
:10522000FBF72EFB0191009032463B461046194693
:10523000FBF726FB06460F466410002CEAD10498C3
:10524000039B0028029A0999089806DAFBF718FBD5
:10525000019B009AFBF714FB05E0FBF779FB019B30
:10526000009AFBF775FB04460E460022284BFBF71D
:1052700095FC03D80020C043014607E00022254BDF
:1052800020463146FBF74AFAFBF786FE102409E078
:10529000002C0ADB0A220023FBF7BAFC079B303202
:1052A0001A55641E02460A43F2D11122641C079B60
:1052B000121B1C19119B012B03D0012308430ED193
:1052C0000AE0084304D0112010900020119077E7E5
:1052D0001098151A6D1E0BE01098824202DD002313
:1052E0006D1C03E0824201DA00236D1E002BEED01C
:1052F000069811998260C16030C07EE701FCFFFF13
:10530000104D0000000014400000F03F300000008D
:105310000000F0430000E03F30380A2801D20120AD
:105320007047002070470000FFB597B00646002583
:1053300018E2252877D100242746FD49049400E08F
:105340000443761C32780120203A90400842F7D17D
:1053500030782A280ED002223078014630390929C7
:1053600016D804990A235943303940181443761C3F
:105370000490F1E7189802C804911890002904DA03
:105380000120400304434842049002200443761C59
:1053900030782E2814D1042004437078761C2A28F3
:1053A00009D11898761C80C8189009E00A214F434B
:1053B000303FC719761C3078014630390929F5D9B4
:1053C00030786C2810D006DC4C281AD068280ED013
:1053D0006A2817D104E0742813D07A2812D110E07B
:1053E0000120400504430CE00121090501E00321EF
:1053F00009050C437178814203D10120000524186E
:10540000761C761C3078119066280BD013DC582857
:105410007DD009DC00287BD04528F6D04628F4D082
:1054200047281AD1A5E118E0632835D0642870D048
:10543000652812D19DE170286CD008DC6728F1D076
:1054400069287BD06E280DD06F2806D1BAE073286A
:105450002ED0752871D0782859D01A9A199990476A
:105460006D1C7EE16002400F022809D003280DD098
:105470000428189801680DD00D60001D189070E187
:105480001898EA1701680D604A60F6E718980168F5
:105490000D80F2E70D70F0E718986A4601781172F6
:1054A000001D18900020507202A80090012005E015
:1054B000189802C8189000200091C04361070DD5CC
:1054C000002101E00199491C0191B94212DA81429F
:1054D000F8DB009A515C0029F4D10BE0002101E0D7
:1054E0000199491C01918142FADB019A0099895C7A
:1054F0000029F5D1019904981A9B471A214638468C
:10550000199A00F097FA0199401945180BE04FE0FD
:105510002CE113E04EE0009800990078491C0091BE
:105520001A9A199990470198401E0190401CF2D197
:10553000214638461A9B199A10E137E00A200021CB
:10554000009001916002410F022907D0189A01CA08
:105550001892C2179446032908D00AE01898C01D73
:10556000C108C90005C91891944607E000B2C217E6
:105570009446042902D140B2C1178C4600226146EC
:10558000944506DA0A460021404291418C462D217D
:1055900002E0210504D52B216A461173012103E0A5
:1055A000E10701D02021F7E7029155E00A200AE047
:1055B000102008E0102000900021042004430191F5
:1055C000082703E008200021019100906002410FAC
:1055D000022907D0189A01CA18920022944603297A
:1055E00008D008E01898C01DC108C90005C9189165
:1055F000944603E080B2042900D1C0B20021029198
:10560000210729D51199702906D0009A1021019BF4
:105610004A401A4305D00EE040216A461173012129
:1056200008E06146014306D030216A4611731199A2
:10563000517302210291009A0821019B4A401A43AA
:105640000AD16146014301D1610705D530216A467F
:10565000117301217F1E02911199582904D035A19F
:105660000E910DA90D910DE037A1F9E76146019B5F
:10567000009AFBF7CDFA0E9B8C469B5C0D9A521E4E
:105680000D92137061460143F0D10D9805A9081AD7
:1056900020300190600703D501200004844300E01E
:1056A00001270198874201DD381A00E000200199A6
:1056B00000904118029809180498401A0490E003D9
:1056C00006D421461A9B199A049800F0B3F945199B
:1056D000002706E003A81A9AC05D199990476D1C2F
:1056E0007F1C02988742F5DBE0030CD521461A9B0C
:1056F000199A049800F09EF9451904E01A9A30208E
:10570000199990476D1C0099481E00900029F5DCFE
:1057100008E00D980D990078491C0D911A9A199975
:1057200090476D1C0199481E01900029F1DC63E14E
:105730000928010030313233343536373839616267
:10574000636465660000000030313233343536372B
:1057500038394142434445460000000000F05AF900
:105760004519761C3078002800D0E2E528461BB0A9
:10577000F0BD600700D406271898C01DC108C900F5
:1057800048680A680831C30FDB071891190001D077
:105790009CA108E0210501D59BA104E0E10701D00F
:1057A0009AA100E09AA1430011985B081091652826
:1057B0000CD006DC452809D046281DD0472841D109
:1057C00041E0662818D067283CD13CE00021112F29
:1057D00001DB112000E0781C0191009008A911A8BC
:1057E000FFF7E0FC139905910021119A15927F1C97
:1057F00012980197009150E00120C007039001200A
:10580000019008A9009711A8FFF7CCFC139A1499EE
:1058100005920022119B009212981593059A01920D
:10582000002901D0104602E0791C40180190381A76
:1058300001D5019804E04042401E0090781C019080
:10584000C01B029043E0012F00DA01270021112F35
:1058500001DD112000E038460191009008A911A84F
:10586000FFF7A0FC13990591119A00211298159247
:105870000091019721070CD40599B94201DB0199E8
:1058800000E00191012904DD159A491E515C30297F
:1058900006D0B84201DA011D05DA0121029115E0B6
:1058A0000199491EEDE7002805DC00994118009197
:1058B0000199091A03E0019A411C914200DD01910E
:1058C0000099401A401C02900120C0070390200755
:1058D00006D402990198814202DB0020C043029065
:1058E00000206946C87707AF012103980337C9072D
:1058F000884224D0022011902B2012900398002877
:105900000CDA404203902D20129007E00A21039800
:10591000FAF7F4FB30317F1E039039701199481E5D
:1059200011900029F2DC03980028EFD1791E12981B
:1059300008703078202108404530BF1E387006A816
:10594000C01BC01D039010980078002800D00120D3
:10595000019941180298C01709180398091804986A
:10596000401A401E0490E00306D421461A9B199A5F
:10597000049800F05FF8451910980078002803D0CB
:105980001A9A199990476D1CE00324D521461A9B59
:10599000199A049800F04EF845191CE00098002868
:1059A00007DB00990598884203DD1598405C19993A
:1059B00001E0199930201A9A904700986D1C401CFC
:1059C00000900298401E0290002804D11A9A2E20BE
:1059D000199990476D1C0199481E01900029DDDC42
:1059E00005E038781A9A7F1C199990476D1C039925
:1059F000481E03900029F4DC21461A9B199A04984A
:105A0000ACE600002D0000002B000000200000008C
:105A100000000000F8B5044600251E46174688041D
:105A200004D405E039462020B0476D1C641EF9D52A
:105A30002846F8BDFFB50446002581B01E46C803C0
:105A400001D5302700E02027880404D505E038463A
:105A50000399B0476D1C641EF9D5284605B0F0BD0A
:105A600070470146002902D00868002801D10020B3
:105A70007047002903D04A688868904201D30846DD
:105A8000F6E702E08868401C8860002908D04A6870
:105A90008868904204D28A680868805C2028F1DD1A
:105AA0004A688868904202D18868401E886008462B
:105AB000DEE7000070B5044600252BE02568FF21D5
:105AC0000131E0680840002805D1A068002802D014
:105AD000A068FFF7EFFFFF210131E06808400028D0
:105AE00006D12069002803D00C4A206951688847F4
:105AF00001214902E0680840002806D1206A0028F8
:105B000003D0064A206A5168884704484168204605
:105B100088472C46002CD1D170BD00009400002095
:105B200070B504460D4600222946204600F0F4F8E0
:105B300070BD70B504462820216888470546002DB1
:105B400003D028212846FAF722FB284670BD10B55D
:105B5000044600221146204600F074F810BD0000F3
:105B6000FFB589B004460E4615461C2102A8FAF777
:105B70000EFB00270020314908604860002C01D04E
:105B8000002E00D135E002940396002004902C4AA8
:105B900007CA06AB07C32A48FFF7CBFF0746002F0B
:105BA00000D126E002A800F00DFD0090FFF759FF9C
:105BB00001460190384600F021FC002800D118E091
:105BC0000C9800280CD002A8FFF74BFF039904980B
:105BD000884204D204990298405C002800D008E072
:105BE000002D03D0049902984018286038460DB063
:105BF000F0BD002F02D03846FFF75CFF002C1AD012
:105C000000940020019003990498884202D20498DD
:105C1000019005E00398002802D00398401E0190EF
:105C2000002D03D001990098401828600348019A7C
:105C3000009906C000BF0020D9E700008C000020BA
:105C400094000020F8B504460D461646002C00D1FD
:105C5000F8BD2046FAF7A6FA471C33462A463946CD
:105C60002046FFF77DFFF3E770B504460D46002C94
:105C700001D0002D01D1012070BDAC4201D1002026
:105C8000FAE705E02078002800D1F5E7641C6D1CD8
:105C90002078FAF75DFA06462878FAF759FA86422C
:105CA000F0D02078FAF754FA06462878FAF750FA36
:105CB000301AE1E710B50248FBF70AFF10BD0000FB
:105CC00000127A0070B50446FBF78EFD054600BF52
:105CD000FBF78AFD401BA042FAD370BD002101E012
:105CE0004A1CD1B2420082188A42F9DC7047000097
:105CF00070B504460D46E1B20548FEF76DFA00BFE7
:105D000001210348FDF7B4FF0028F9D0204670BDFB
:105D1000004400402E207047F8B505460E46174651
:105D20000024002D01D0002E01D10020F8BDAC6868
:105D3000002F0DD000E02468002C13D0206A00282A
:105D400010D03046216AFAF734FA0028F3D109E07E
:105D500000E02468002C05D03046216AFFF784FF5C
:105D60000028F6D1002C02D0206A002801D10020A2
:105D7000DCE72046DAE70000F8B50B30C608F6008D
:105D8000104D19E02068B04215D3B0420BD96368BA
:105D9000871B201D0093FAF7E1F9A019009B07600B
:105DA0004360286004E060682860201DFAF7D6F997
:105DB000201D2660F8BD251D2C68002CE2D1002096
:105DC000F8BD0000A00000200520FCF739FC0222ED
:105DD00008210020FCF788FCFBF7B2FEFFF76AFF02
:105DE000FCF764FBFDF7FCF8FEF738FAFBF72AFC3A
:105DF0000020FCF70BFDFEF70DFEFEF781FEFDF720
:105E0000ABFDFDF7B1F92AE015480078002826D04F
:105E100000201349087013480088401C114908806D
:105E200011480078401C104908700E4800882D2148
:105E30004901884204DD00200A490880FEF760FE1F
:105E4000094800781E2804DD002007490870FEF785
:105E5000E1FDFDF789F904200449086130BFD3E76B
:105E600004000020060000200800002000ED00E0F3
:105E7000F3B581B00C46002500277D21C900E068FC
:105E8000884201D30020FEBDE068401CE060A168AC
:105E90002068405C5B2800D067E0A068401CA060E0
:105EA0002046FFF7DEFD002C09D06168A06888421B
:105EB00005D2A1682068405C5D2800D145E0002C37
:105EC00003D06168A068884203D3A068401EA06028
:105ED0004BE0A068401EA06000BF20461030FFF7D6
:105EE00028FE0646002E00D13FE0002D02D13546A7
:105EF000374602E03E6077603746A068401CA060ED
:105F00002046FFF7AEFD2146384600F077FA00281C
:105F100000D12AE02046FFF7A4FD002C08D06168DC
:105F2000A068884204D2A1682068405C2C28D4D0A4
:105F3000002C08D06168A068884204D2A16820685B
:105F4000405C5D2800D010E000BFE068401EE060CB
:105F5000002D00D06F6020210198C16001988560FC
:105F6000A068401CA06001208DE7002D02D02846CB
:105F7000FFF7A0FD002086E702460023002100BFB6
:105F800023E0505C302806DB505C392803DC505C91
:105F90003038C31815E0505C412806DB505C4628B9
:105FA00003DC505C3738C3180BE0505C612806DB1B
:105FB000505C662803DC505C5738C31801E00020B1
:105FC0007047032900D21B01491C0429D9D3184664
:105FD000F6E70000F3B593B00C4600BF0020129026
:105FE000FFF798FE01900025002C02D020680028C1
:105FF00002D1002015B0F0BD00253CE0A16820686A
:106000004018405D34281FD009DC2B380300FFF70F
:1060100008F809212F222B2F1718191A2F003828BA
:1060200016D006DC352810D036280FD037281FD1DF
:106030000DE039280DD045280FD0652818D10BE088
:1060400000BF00BF00BF00BF00BF00BF00BF00BF58
:1060500000BF00BF00BF00BF00BFA168206840189C
:10606000405D02A9485504E002A90198485500E0A6
:106070000BE000BF6D1C3F2D06D2002C04D0A068A1
:10608000401961688842B9D300BF002002A9485571
:1060900012A902A800F0BAFA06460F4602A8129901
:1060A000884201D10020A5E71398C7618661144A90
:1060B000144B30463946FAF771FD03D8124913984C
:1060C000416111E00022114B30463946FAF752FD8A
:1060D00004D80121C9071398416105E030463946CB
:1060E000FAF7F2FC1399486108211398C160A0687F
:1060F00002AA1299891A4018A06001207AE70000CC
:106100000000C0FFFFFFDF41FFFFFF7F0000E0C195
:10611000F3B581B00C46002600257D21C900E0685A
:10612000884201D30020FEBDE068401CE060002CE6
:1061300008D06168A068884204D2A1682068405CE9
:106140007B2800D087E0A068401CA0602046FFF7B5
:1061500088FC002C09D06168A068884205D2A1683B
:106160002068405C7D2800D165E0002C03D0616888
:10617000A068884203D3A068401EA0606BE0A068BE
:10618000401EA06000BF20461030FFF7D2FC07463B
:10619000002F00D15FE0002E02D13E463D4602E0D6
:1061A0002F607D603D46A068401CA0602046FFF740
:1061B00058FC2146284600F055F8002800D14AE056
:1061C0002046FFF74EFC2869286200202861002C39
:1061D00008D06168A068884204D2A1682068405C49
:1061E0003A2800D037E0A068401CA0602046FFF7A6
:1061F00038FC2146284600F001F9002800D12AE0A9
:106200002046FFF72EFC002C08D06168A068884269
:1062100004D2A1682068405C2C28B4D0002C08D09F
:106220006168A068884204D2A1682068405C7D282B
:1062300000D010E000BFE068401EE060002E00D0FB
:10624000756040210198C16001988660A068401C7B
:10625000A060012067E7002E02D03046FFF72AFC3D
:10626000002060E7F3B583B00C46A16820684018B1
:10627000461CA16820684018451C00200290002799
:10628000A1682068405C222800D0AAE0002001908C
:1062900000900EE028785C280AD1681C2168401A1A
:1062A0006168884200D39CE00098401C00906D1CFF
:1062B0006D1C2068281A6168884202D2287822283A
:1062C000E8D12068281A6168884202D228782228FA
:1062D00000D086E0A16820684018291A0098081AA2
:1062E000019021690198401C88470746002F00D182
:1062F00077E0029762E030785C2807D03078029926
:106300000870761C0298401C029057E00220019011
:10631000A81B012800DA64E07078662819D008DC30
:10632000222832D02F2832D05C282FD0622840D1AA
:1063300008E06E2814D0722819D074281ED0752851
:1063400037D12BE00820029908700298401C029077
:1063500030E00C20029908700298401C029029E05D
:106360000A20029908700298401C029022E00D2039
:10637000029908700298401C02901BE009200299C3
:1063800008700298401C029014E000BF00BF7078B3
:10639000029908700298401C02900BE002AA29465C
:1063A000304600F041F901900198002800D118E032
:1063B00000E016E000BF0198361800BFAE429AD345
:1063C00000200299087010210398C16003980761AA
:1063D0002068281AA060A068401CA060012005B0B9
:1063E000F0BD002F02D0384661698847002E02D0E8
:1063F0002068301AA0600020F1E7000070B5054663
:106400000C46002C02D02068002801D1002070BD6D
:10641000002C14D0A068001D616888420FD8A268C3
:1064200021688818042244A1F9F7DAFE002806D171
:106430000420E860A068001DA0600120E7E7002CB0
:1064400014D0A068401D616888420FD8A2682168F6
:10645000881805223AA1F9F7C3FE002806D10120C9
:10646000E860A068401DA0600120D0E7002C16D095
:10647000A068001D6168884211D8A2682168881848
:10648000042231A1F9F7ACFE002808D10220E8600F
:1064900001206861A068001DA0600120B7E7002C02
:1064A0000DD06168A068884209D2A1682068405C6C
:1064B000222804D121462846FFF7D4FEA7E7002C66
:1064C00017D06168A068884213D2A1682068405C38
:1064D0002D2809D0A1682068405C302809DBA1681C
:1064E0002068405C392804DC21462846FFF772FD0D
:1064F0008DE7002C0DD06168A068884209D2A168A0
:106500002068405C5B2804D121462846FFF7B0FC98
:106510007DE7002C0DD06168A068884209D2A1688F
:106520002068405C7B2804D121462846FFF7F0FD17
:106530006DE700206BE700006E756C6C00000000DA
:1065400066616C7365000000747275650000000080
:10655000F3B583B005001AD028680190284680382A
:106560000290C76F04983E1F864200D9064628460F
:10657000FEF7B2FD04460091324629460498FFF723
:10658000FBFB0199002806D0016005B0F0BD04981E
:10659000FEF7D4FDF9E729600299002CCF670AD0F5
:1065A00021686218291F8A4202D9291B091F21600C
:1065B00000996160E9E7024A00991160E5E700008F
:1065C000A000002010B50446002C05D0206800284B
:1065D00002D0A068002801D0002010BD002C10D0EF
:1065E000A068001D616888420BD2A26821688818E3
:1065F000032205A1F9F7F4FD002802D1A068C01C10
:10660000A0602046E9E70000EFBBBF0000B50A46E6
:1066100083B000210091019101466846FAF7D7FB4B
:106620000199009803B000BDF7B586B01546002467
:106630000026069805900020049003900290019097
:1066400007990598081A062800DA88E00598801C42
:10665000FFF792FC064637208002864203D341486A
:10666000864200D87BE01B20C00286422CD33E48E5
:10667000864229D80598871D002000900C200290A2
:106680000798C01B062800DA69E038785C2802D138
:106690007878752800D062E0B81CFFF76DFC009098
:1066A000372189020098884203D32E4900988842F6
:1066B00000D954E0B005000B00998905890D084305
:1066C00001210904441802E0062002903446802C7F
:1066D00002D2012004901AE00120C002844204D2B8
:1066E00002200490C020019011E0012000048442A7
:1066F00004D203200490E020019008E01B4884426B
:1067000004D804200490F020019000E027E00498D1
:10671000401EC0B203900CE0204680210843BF21F8
:1067200008402A6803995054A4090398401EC0B237
:10673000039003980028EFDC0498012804DD0198F9
:1067400020432968087003E06006400E296808703D
:106750002968049808182860029809B0F0BD002044
:10676000FBE70000FFDF0000FFDB0000FFFF100081
:1067700000F8FF0101010101010101010101010115
:106780000101010101FF000000010F0808080808CD
:10679000080808080808080808080808080F000082
:1067A0000000000000C0E0E0E0C080000000000049
:1067B0000000FEFFFFFF0000000000000080C0C0DE
:1067C000E0E0C0000000000000000000000103073E
:1067D0000F1F3F3F3EBCC0C0E0E0F7F7F7F7E0E037
:1067E000E0C0B83C3F3F1F0F07030100000000005E
:1067F000383C3C3C3C3C3C3C3C3C3C007EFFFFFF8E
:10680000FFC38100008183E7FFFFFF7E003C3C3C2B
:106810003C3C3C3C3C3C3C3C00000000000080C058
:10682000E0F0F8FC7C3C03030707EFEFEFEF07070E
:1068300007033D7CFCFCF8F0E0C080000000000095
:10684000000000000003070707030100000000002C
:106850000000FFFFFFFF0000000000000001030731
:10686000070707000000000000000000000080C0D3
:10687000E0F0F8F8FCFCFC1C000000000000000048
:106880000000000000000C6C7C3E7C7C0C000000D2
:106890000000C0F8FEFFFFFFFFFFFFFFFFFF8000CB
:1068A0000000000000307070F0F0F0FCFFFFFCF022
:1068B000F0F07070000000000000FFFFFFFFFFFF1E
:1068C000FFFFFFFFFFFFFFFCF0E0C08000000000C3
:1068D0001C1F0F0F070F0F1F1F18000000000000E4
:1068E0000000031F7FFFFFFFFFFFFFFFFFFFFFFF12
:1068F000FFFFFFFFFFFEFCFCF8F8F8F8F0F0F0F007
:10690000F8F8F8F8F878180000000000000001031B
:10691000070F1F1F3F3F3F7F7F7F7FFFFFFFFFFF6F
:106920007F7F7F7F3F3F1F1F0F0F07030000000087
:106930000000000000000000000000000000F0F077
:10694000F0E0C0800000007FFFFF7E000000C0C0BC
:10695000F0F0F0F000000000000000000000000077
:106960000000C0E0E0E0E0E1C30707F3F8FCFE3E12
:106970001E1E3EFEFCF8F307C3E3E1E0E0E0E0C0EA
:106980000000000000C0E0F0F0F8F97D7D7D7D7929
:10699000F9F8F0F3FFFFFFFFDEDE9F1F0F07F3F0B4
:1069A000F0E1C18101010101C0F0F8FCFF7F3F0F60
:1069B00001000000000000000001010101010307C7
:1069C0003F3F3F1E3E3E7CFDFBF7E703000000001B
:1069D000071F3F7F7EF8F8F0F0F0F0F0F0F0F0F0F5
:1069E000F0F0F0F0F0F0F0F0F0F0F0F0F8F87C7F7C
:1069F0003F1F0F000000000000000000000000002A
:106A0000000000000080E0F0F8FCFCFEFEFE060046
:106A10000000000000000000000000000000000076
:106A2000000000000000000000000000FCFFFFFF6D
:106A3000FFFFFFFFFFFFF8E0C08000000000000044
:106A400000000000000000000000000080E0F0F006
:106A5000F8FCFCFCFCFDFDFDFDFBFBF7F7F7F7F791
:106A6000EFEFDF3EFEFCFCFCFCFCFCFCFE7E3E0E81
:106A7000C0F0F8FCFFFFFFFFFFFFFFFFFFFFFFFF7E
:106A8000FFFFFFFFFFFFFFFFFFFFFFFFFEFEFEFC1C
:106A9000FDFBF3C100000000071F3F7F7F7FFFFF6A
:106AA000FFFFFFFFFFFFFFFFFFFFFFFFFFFFFFFFF6
:106AB000FFFFFFFFFFFF7F7F3F3F1F07000000003A
:106AC00000000000000000000000000000000000C6
:106AD00080C0C0C0E0E0E0E0C0C0808080800000F6
:106AE0000000000000000000000000000000008026
:106AF00080C0C0C0E0F0FCFFFFFF87030303030377
:106B000007070707070F7F7F7E7C78F8F8F0E080A3
:106B1000000080C0F8FEFF7F0F0707030303030791
:106B2000070F0F0F0F0F1F3EFEFCF8F8F8F8F8F8EC
:106B3000F8F8787C7F3F1F077EFFFFFFE7C3818067
:106B40008080808080808080808080808080808045
:106B50008181818181C3E7FFFFFF7E00000000008B
:106B600000000103070707070707070707070707CD
:106B700007070707070707070707070707070703A9
:106B80000100000000000000000000000000000004
:106B9000000000000000000000000020F0F0F0C045
:106BA000000000C0F8FCFC1800000000000000001D
:106BB00000000000E0F8FCFCFEFEFFFFFFFFFFFF0F
:106BC000FFFEFCFCFCFDFFFBFCFCFC9CBDFDF8F0AB
:106BD000C00E0E0F0F070700F0FCFEFFFFFFFFFFC8
:106BE000FFFFFFFFFFFFFFFFFFFFFFFFFFFFFFFFB5
:106BF000FFFFFFFFFFFFFFFFFFFCF7070F0F0F0F68
:106C00000003070F0F1F1F1F1F1F1F1F9FDF9F1F47
:106C10001F1F1F1F9FDFDF1F1F1F1F1F1F1F0F0FA4
:106C2000070300000000000000000000000000005A
:106C300000001E3F3F3F1F0000000C1F3F3F1F0092
:106C40000000000000000000000000000000000044
:106C50000000000000000000000000000000000034
:106C6000000000000000C0F0F8FCFEFE0E00000076
:106C700000000000000000000000000080E0F0F8CC
:106C8000F8FCFCFCFCFCFCFCFCFCF8F0F0F0F7F77A
:106C9000EFCF9F3FFFFCF8F0F0E0E0E0E0E0F02015
:106CA000C0F0F8FCFFFFFFFFFFFFFFFFFFFFFFFF4C
:106CB000FFFFFFFFFFFFFFFFFFFFFFFFFFFEFEFEE7
:106CC000FDFBE70303010000010F1F3F3F7F7F7FB4
:106CD0007F7F7F7F7F7F7F7F7F7F7F7F7F7F7F7FC4
:106CE0007F7F7F7F7F7F3F3F1F0F030000000000FB
:106CF00000000000000000000000387C7E7F7F0064
:106D00000000307C7E7F7F38000000000000000023
:106D100000000000000000000000000000C0E0F0E3
:106D2000F8FCFEFEFEFFFFFFFFFFFEFEFCFCF8F896
:106D3000F8F8F8F0F0E0800000000000000000002B
:106D400000E0F8FCFEFFFFFFFFFFFFFFFFFFFFFF7C
:106D5000FF3FBFBFBFBFBFBF7FFFFFFFFFFFFFFF03
:106D6000FFFFFFFEFEF8F0C000070F3F3F7F7F7F71
:106D7000FFFFFFFFFF7F3FC7F8FFFFFFFF3F1F67DA
:106D8000787F7F7FFFFFFFFF7F7F7F3F3F1F0F01E8
:106D90000000000000000000000000000070FEFF86
:106DA0007F7F7FFFFEFEFEFF7F3F0F0000000000A1
:106DB00000000000000000000000000000000000D3
:106DC0000000000000000000F0FCFF7F3F0F070103
:106DD00000000000000000000000000000000000B3
:106DE0000000000000C0F0F8FCFCFEFEFFFFFFFF0B
:106DF000FFFFFFFEFEFCFCFCFCF8F8F8F0E0800072
:106E0000000000000000000000F0F8FCFEFFFF3F63
:106E1000BF9F9F9F9FBF7FFFFFFFFFFFFFFFFFFF02
:106E2000FFFFFFFFFFFFFFFFFFFFFFFEFEFCF00085
:106E300000071F1F3F87F0FEFFFFFF7F1F67783EA1
:106E40007F7F7F7F7F7F7F7F7F7F7F7F7F7F7F7F52
:106E50007F7F7F3F1F1F0700000000007C7F7F7F38
:106E60007FBFFFFEFFFFFF3F0F0600183C7E7E3C0A
:106E70003C000000003C3C7E7E3C1800000000000E
:106E800000000000000070F8FFFF3F0F0701000046
:106E900000000000000000003E3E3E3E3E000000BC
:106EA00000000000000000000000000000C0E0F052
:106EB000F8F8FCFCFCFCFCFCFCFCFCFCF8F0F0F042
:106EC000F0F0F0E0C08000000000000000000000D2
:106ED000C0E0F0F8FFFFFFFFFFFFFFFFFFFFFFFF36
:106EE000FFFFFFFFFFFFFFFFFFFFFFFFFFFFFFFEB3
:106EF000FEFCFCFCF8F0E0C01F3F7FFFFFFFFFFF40
:106F0000FFFFFFFFFFFFFFFFFFFFFFFFFFFFFFFF91
:106F1000FFFFFFFFFFFFFFFFFFFFFFFFFF7F3F1FA1
:106F2000000000000101C3E3F3E3C3030303E3F341
:106F3000FBF3E303030303E3E3E3C3FBFBC3E3E389
:106F4000E30101010000000000000000000000015A
:106F50000171F8FCFEFCF871010100000000000C5A
:106F60000E0F073F3F070F0E0E000000000000004D
:106F7000000000000000000080C0C0C0E0E0E0E0D1
:106F8000E0E0E0C0C0808080000000000000000061
:106F9000000000000000000000000080E0F8FEFF9C
:106FA000FFFFFFFFFFFFFFFFFFFFFFFFFFFFFFFFF1
:106FB000FFFFFFFFFEFCF8E0E0E0E0C0C080000063
:106FC00078FEFFFFFFFFFFFFFFFFFFFFFFFFFFFF59
:106FD000FFFFFFFFFFFFFFFFFFFFFFFFFFFFFFFFC1
:106FE000FFFFFFFFFFFFFF7C000103070F0F1F1FC5
:106FF0001F1F1F1F1F1F1F1F1F1F1F9F9F9F9F1FA1
:107000001F1F1F1F1F1F1F1F1F1F0F0F070701001D
:107010000000000000000000000000000000000070
:107020003C3E3F3F1F0F0700000000000000000033
:107030000000000000000000000000000000000050
:1070400000000000808080006070F8F8FCFCFCFC10
:10705000F8F8F0F0F0F0F0E0C08000000000000070
:1070600000000080F0F8FCFEFFFFFFFFFFFFFFFFC6
:10707000FFFFFEFEFEFEFDFDFDFBF7EFDFDFBFBF06
:107080003F7FFFFFFFFEFCF8F8FEFFFFFFFFFFFF63
:10709000FFFFFFFFFFFFFFFFFFFFFFFFFFFFFFFF00
:1070A000FFFFFFFFFFFFFFFFFFFFFEF907070301E1
:1070B00001070F1F1F1F1F3F3FBFFF3F3F3F3F3FC6
:1070C0003F3F3F3F3F3F3FBFFFFF3F3F3F1F1F1F30
:1070D0000F0F0701000000000000000000000C1E60
:1070E0003F3F1F000000000000000000000C1F3F99
:1070F0003F1F000000000000000000000000000032
:10710000000000000000000080C0C0C0C0C0C0C0BF
:10711000D8DCBCBE7E7E7E7EFEFEFCFCFCF8F8F079
:10712000E0C0C0C080000000000080C0F8FCFFFF8D
:10713000FFFFFFFFFFFFFFFFFFFFFFFFFFFFFFFF5F
:10714000FEFEFDF3E7EFEFEFDFDF3F7FFFFFFE38EF
:107150003CFFFFFFFFFFFFFFFFFFFFFFFFFFFFFF02
:10716000FFFFFFFFFFFFFFFFFFFFFFFFFFFFFFFF2F
:10717000FFFFFF3E010100000000010387879F3FE2
:107180003F3F0F07078787BF3F3F1F070787879F3F
:107190003F3F1F0F07070707030100000000000023
:1071A000000070FEFF7F1F07000070FCFF7F3F0F95
:1071B000000060FCFFFF7F0F0300000000000000E4
:1071C000000000000000000000000000000000803F
:1071D00080C0C0C0E0E0E0C0D8DCBEBE7E7E7E7E67
:1071E0007EFEFCFCFCFCF8F8F0C0C0C08080000013
:1071F000000080C0F8FEFFFFFFFFFFFFFFFFFFFF63
:10720000FFFFFFFFFFFFFFFFFFFEFDFBF7F7EFEFC5
:10721000DFDF3F7FFFFFFF3C3CFFFFFFFFFFFFFF84
:10722000FFFFFFFFFFFFFFFFFFFFFFFFFFFFFFFF6E
:10723000FFFFFFFFFFFFFFFFFFFFFF3E0101000019
:107240000000010383879F1F3F1F8F879F3F3F9F42
:10725000878F1F3F1F8F879F3F3F1F07070707032A
:107260000301000000000000000078FEFF7F1F7790
:10727000FCFF7F3F0F78FEFF7F1F67FCFFFF3F0F84
:1072800003000000000000000000000000000000FB
:10729000000000000000000080C0C0C0C0C0C0C02E
:1072A000D8DCBCBE7E7E7E7EFEFEFCFCFCF8F8F0E8
:1072B000E0C0C0C080800000000080C0F8FCFFFF7C
:1072C000FFFFFFFFFFFFFFFFFFFFFFFFFFFFFFFFCE
:1072D000FEFEFDFBE7EFEFEFDFDF3F7FFFFFFE3856
:1072E0003CFFFFFFFFFFFFFFFFFFFFFFFFFFFFFF71
:1072F000FFFFFFFFFFFFFFFFFFFFFFFFFFFFFFFF9E
:10730000FFFFFF3E01010000000001030707377F78
:10731000FF7F37070707377FFF7F37070707377F6D
:10732000FF7F370707070707030100000000000081
:107330000000000000000000787E7F7F3C0000001D
:10734000787E7F7F3C00000000000000000000000D
:10735000000000000000000000000000000000002D
:1073600000008080808080808000001838F8F0E085
:1073700000000060F8FC7C3C000000808080000081
:1073800000000080F0F8FEFEFFFFFFFFFFFFFFFFA1
:10739000FFFFFFFEFEFEFEFCFEFECECEFEFCFCF07E
:1073A00006C7C7C78381000000FEFFFFFFFFFFFF86
:1073B000FFFFFFFFFFFFFFFFFFFFFFFFFFFFFFFFDD
:1073C000FFFFFFFFFFFFFFFFFEFC79010303030048
:1073D000000001030707070707074757275F8707CD
:1073E00087FF8707875F27574707070707070703B1
:1073F000010000000000000000000000000000008C
:10740000000026A646A6160910F0100916A646A6E4
:107410002600000000000000000000000000000046
:1074200000000000000080C0E0E0F0F0F0F8F8F8A4
:10743000F8F8F0F0F0E0C0C0C0C0C08080000000EC
:1074400000000000000000000080C0E0F8FEFFFF28
:10745000FFFFFFFFFFFFFFFFFFFFFFFFFFFFFFFF3C
:10746000FFFFFFFFFFFFFCF8F8F8F8F0F0E0C000C6
:107470001E7FFFFFFFFFFFFFFFFFFFFFFFFFFFFF7D
:10748000FFFFFFFFFFFFFFFFFFFFFFFFFFFFFFFF0C
:10749000FFFFFFFFFFFFFF3F00000101030707079A
:1074A000070707070707C7C7C787B7FFB787C7C754
:1074B000C7070707070707070707070303010000B8
:1074C0000000000000000000000000000000393B48
:1074D0003B1FDFFFDF1F3F393900000000000000C5
:1074E000000000000000000000000000000000801C
:1074F000C0E0E0F0F0F0F0F0F0F0F0E0E0C0C0C08C
:10750000C0C08080000000000000000000000000FB
:107510000000C0E0F8FEFFFFFFFFFFFFFFFFFFFFDF
:10752000FFFFFFFFFFFFFFFFFFFFFFFFFFFEF8F87A
:10753000F8F0F0E0E0C00000007FFFFFFFFFFFFF7A
:10754000FFFFFFFFFFFFFFFFFFFFFFFFFFFFFFFF4B
:10755000FFFFFFFFFFFFFFFFFFFFFFFFFFFF7F00BA
:107560000000000193A7C7F70707FF0707F7C7A7A2
:1075700097070707070797A7C7F70707FF0707F743
:10758000C7A79303010000000000000048281878F6
:107590000502FF020578182848000000000048286E
:1075A00018780502FF02057818284800000000003E
:1075B0000000000000000080C0E0E0F0F0F0F0F01B
:1075C000F0F0F0E0E0C0C0C0C0C08080000000006B
:1075D0000000000000000000000080C0F0FCFFFF81
:1075E000FFFFFFFFFFFFFFFFFFFFFFFFFFFFFFFFAB
:1075F000FFFFFFFFFFFEF8F8F0F0F0E0E0C0000052
:10760000007FFFFFFFFFFFFFFFFFFFFFFFFFFFFF09
:10761000FFFFFFFFFFFFFFFFFFFFFFFFFFFFFFFF7A
:10762000FFFFFFFFFFFF7F00000000010307C7C748
:10763000C7F7F7E7C7C7C707F7F7FFFFF7F7E7870A
:10764000C7C7E7F7F7C7C7C78707070301000000E9
:107650000000000000001D1F1F7F7F7F1F1F1D00F7
:10766000030307070303011D1F1F3F7F7F1F1F1F0A
:107670000D00000000000000000000000080E0F0AD
:10768000F8FCFCFCFEFEFEFEFEFEFEFCFCF8F8F83C
:10769000F8F8F0F0E0C080000000000000000000FA
:1076A00000E0F0F8FCFFFFFFFFFFFFFFFFFFFFFF21
:1076B000FFFFFFFFFFFFFFFFFFFFFFFFFFFFFFFFDA
:1076C000FEFEFEFCFCF8F080000F1F3F7FFFFFFF77
:1076D000FFFFFFFFFFFFFFFFFFFFFFFFFFFFFFFFBA
:1076E000FFFFFFFFFFFFFFFFFFFFFF7F7F3F1F0346
:1076F0000000000000006CFCFCFFFFFFFCFCFC0332
:107700000707CFCFCF070703FCFCFCFFFFFFFCFC04
:107710004800000000000000000000000000000021
:10772000000103030000003B3F3F7FFF7F3F3F3BE3
:107730000000000303010000000000000000000042
:107740000000000000000000000000000000000039
:107750000000000000000000000000000000000029
:107760000000000000000000003C3C3C3C3C3C3C75
:107770003C3C1800183C3C3C3C3C3C3C3C3C000045
:10778000183C3C3C3C3C3C3C3C18000000000000E9
:10779000000000000000007078F8F8F8F8F8F8F839
:1077A00070000070F8F8F8F8F8F8F8700000207829
:1077B000F8F8F8F8F8F8F87000E0F0F0F0F0F0F011
:1077C000F0E0400040E0F0F0F0F0F0F0F0E0000019
:1077D000E0F0F0F0F0F0F0F0E0E000000000000079
:1077E0000000010101010101010000000000010190
:1077F000010101010100000000010101010101017D
:107800000100000000000000000000000000000077
:107810000000000000000000607078F8F8F8F8F848
:10782000F8F8F0F0F0E0E0E0C00000000000000038
:1078300000000000E0F8FCFEFEFFFFFFFFFFFFFF7F
:10784000FFFFFEFCFCFCFDFDF9FBF7CFDF9FBFBF98
:107850003F7FFFFFFEFEFCF0F0FCFEFFFFFFFFFF9F
:10786000FFFFFFFFFFFFFFFFFFFFFFFFFFFFFFFF28
:10787000FFFFFFFFFFFFFFFFFFFFFCF10707030014
:107880000003070F1F0FE7F3F97D1C9ECECE9C3D32
:10789000FDFBF3C70103C6CEDE1E3CFDF9E30F0F6F
:1078A0000F07030000000000000000000000070FA9
:1078B0001F3E387973730100000F1F3F3C787B73C4
:1078C0007B783C3F1F070000000000000000000024
:1078D0000000000080C0DCFEDECCC0C0C0C0C0C064
:1078E000C0DEDEDECEC0C0C0C0C0C0C080BCBC3CFC
:1078F000180000000000000000E0E0E0E1030303E6
:10790000030303737B7B732303030303F3F3F3E3A7
:1079100003038383C3EFFFFF7E00008E8F0F0F04EE
:10792000000001C1C0C0C40E0E0E0E0E0E0E6E6E13
:107930006E0E0E0E8ECEDEFEFEFC030303C3E1E1EF
:10794000C000070F0F0700000000000103030180C3
:10795000CECFCFCFCF8F0F0F7F7F7E3E1901C1E1FA
:10796000E1E000000001C3C3C1800000000000008E
:10797000000000000070F0F3730307070707000022
:107980001C3E1E1C0000000101010000000003035A
:1079900003030000000000000000000000000000E1
:1079A000000000003C3E3E1C000000000000001CE7
:1079B0003E3E3C000000000000000000000000000F
:1079C00000000F0F0F0E00000000000080C080803C
:1079D000000000000000008080C080000000000067
:1079E00000000F0F0F070000000080C0C0800000E3
:1079F000000000000707070300000000000000036C
:107A000007070700000000000000C0C0C0800000A1
:107A1000000003070703000000000000E0F0E0E0C2
:107A200000000000000000E0E0F0E00000000000C6
:107A3000000003030303000000307878787878783A
:107A400078787878787979787878787878787878B4
:107A500079797978787878787878787878787830EB
:107A6000000070F8F8F00000000000001C3C3E3CF4
:107A70001C000000000000000E1F1F1E0CC0E0C014
:107A8000C0C08070F8F8F0600000000080808C9E1C
:107A90009E9E8C80808080B8FCFCFCB880808080BA
:107AA0009E9E9F9E8C818383C3FFFFFFFE0000008C
:107AB00060F0F0F0F7F7F7F7F7F7F7F7F7F7F7F702
:107AC000F7F7F7F7E7070707E7F7F7F7E707070716
:107AD0000783839F1E1F1E0C0000000000387C7C63
:107AE000780000081C1E1E1E1E1E1E1E9EDEDEDEF0
:107AF0009E1F3F3DFCFCF8F083070F0F07000000BE
:107B00000000000078787878300000000030787845
:107B100078780000030707077B78787C7F3F1F0F8A
:107B20000100007878787800000000000000000074
:107B30000000000000000000000000000000000045
:107B40000000000000000000000000000000000035
:107B5000008080808080809E9E1E1E1E9E9E9E9E17
:107B600080808C9E9E1E1E1E9E9E9E8C80809E9E51
:107B70001E1E1E1E1E1E1E0003070707070707E71F
:107B8000E7E7E0E0E7E7E7E70707C7E7E7E0E0E385
:107B9000E7E7E7C70707E7E7E7E0E0E0E0E0E00066
:107BA000307878F8F8F8F8F9797101017179F9F914
:107BB000F8F8F879790101217979F9F9F8F8F97982
:107BC000710101010101010000000000000000003E
:107BD00000000000000000000000000000000000A5
:107BE0000000000000000000000000000000000095
:107BF00000000000000000000080E0F0F8FCFCFE47
:107C0000FEFEFEFEFEFEFCFCF8F8F8F8F8F0F0C010
:107C1000C0C080800000000000000000000038FEAE
:107C2000FFFFFFFFFFFFFFFFFFFFFFFFFFFFFFFF64
:107C3000FFFFFFFFFFFFFFFFFFFFFFFFFFFE7C00D7
:107C4000000000000000000001838307070777F7AA
:107C5000F7F7F7F7F7F7F7F7F7F7F7F7F7F7F7F7B4
:107C6000770703030100000000000080E0F8FCFE3D
:107C70000707FFFFFEF8E083070F1F3F3F7F7FFFEF
:107C8000FFFFFFFFFFFFF1C0000000000000000049
:107C9000787C7F7F7F7F7F7F66667F7F7F7F7F7F30
:107CA0007F7C7040387C7E1F0F0F0F0F070703008B
:107CB00000000000000000000000000000000000C4
:107CC00000000000000000E0E0ECFEFEFCF8FCFE1E
:107CD000FEEEE0E0400000000000000000000000B8
:107CE000000000000044C62838EF3828C6440000D1
:107CF000000D1F1F0F070F1F1F19000007070F0F91
:107D0000FFFEFCF80000000000C0E0E0EEEFEFEF47
:107D1000EFEFEFEFEFEFEFEFEFEFEFEFCF0F0F0F33
:107D20000F0F0F0F0F0F0FEFEFC7E3E14000000041
:107D3000000101010101010101010139393D3D3D10
:107D40003D3D3D3D3D3C3C3C3C3C78F8F8F7E71F71
:107D50001F0F1F1F1F070000000000000000000091
:107D600000000000000000000000000000000030E3
:107D70007078787C3F3F1F03000000000000000087
:107D80000000000000000080C0E0F0F0F0F0F8F823
:107D9000F8F0F0F0F0E0C0C0C0C0C080800000008B
:107DA00000000000000000000000C0E0F0FCFFFF49
:107DB000FFFFFFFFFFFFFFFFFFFFFFFFFFFFFFFFD3
:107DC000FFFFFFFFFFFFFCF8F8F8F8F0F0E0C0005D
:107DD000001E7FFFFFFFFFFFFFFFFFFFFFFFFFFF13
:107DE000FFFFFFFFFFFFFFFFFFFFFFFFFFFFFFFFA3
:107DF000FFFFFFFFFFFF3F0E00C0E0E0E1E3E3E332
:107E0000E3E3C30303E3E3E3E3E3E3E3E3C3030302
:107E1000E3E3E3E3E3E3E3E3C3030301010000007F
:107E20000000010101010111797978787879797977
:107E30003101017979787878797979310101797925
:107E4000787878787878380000000000000000C06A
:107E5000E0E0C00000000000000080C0C080000022
:107E60000000000000C0E0E0E000000000000000B2
:107E7000000080C0E0F0F0F17B7B79787878F8F052
:107E8000F0E0C3C7C7C3E0F0F0F878787879797983
:107E9000F0F0F0E0C080000038FFFFFFC7010000F5
:107EA00000000000000000000183FFFFFFFF8301CE
:107EB0000000000000000000000001C7FFFFFF38C5
:107EC0000001070F0F1F1E3C3C3C3C3C3C3C3C1E51
:107ED0001F0F0F87878F1F1F3E3C3C3C3C3C3C3CA8
:107EE0003E1E1F0F0F0701000000000000000006EB
:107EF0000F0F0F0600000000000003070F0703002C
:107F00000000000000070F0F0E000000000000003E
:107F10000000000000008080C0E0E0E0E0E0E0E081
:107F2000E0E0DCDC9E9EBFBF7F7EFEFEFCFCFCFC36
:107F3000F8F0E0E0C0C080000080C0E0F8FEFFFF85
:107F4000FFFFFFFFFFFFFFFFFFFFFFFFFFFFFFFF41
:107F5000FFFFFEF9FBF3F7F7EFDF9F7FFFFF7F1EC9
:107F6000003F7FFFFFFFFFFFFFFFFFFFFFFFFFFF60
:107F7000FFFFFFFFFFFFFFFFFFFFFFFFFFFFFFFF11
:107F8000FF7F3F000000000000383C3C3DBDB9933E
:107F900083831B3F3F3FBFBB9383831B3B3F3FBF5D
:107FA000BF9B838303393D3DBCBCB880800000008B
:107FB000007070F8FBFF772707077370F8FBFF77F7
:107FC0002707072370F8FBFF777707070370F8F997
:107FD000FF777707070300000000000000000000A3
:107FE000000000000000FC00000000000200000093
:107FF000000C020C020000000000000090D0BCD079
:10800000BC900003000300001824FE448C0003020F
:10801000070201001824D8B04C80000300010201BF
:10802000C038E438E0000102020102020806000044
:108030000000000000000000000000F80402000042
:1080400000010204000204F8000000040201000024
:108050009060F86090000000010000002020FC20EB
:1080600020000000010000000000000000000806E1
:108070000000000020202020200000000000000060
:108080000000000000000002000000000080601CF2
:108090000200040300000000F8040404F8000102D8
:1080A000020201000008FC000000000203020000C0
:1080B0001884442418000302020202000804242445
:1080C000D80001020202010040B088FC80000000DC
:1080D000000302003C242424C40001020202010027
:1080E000F824242CC0000102020201000C04E41C4C
:1080F0000400000003000000D8242424D80001025A
:108100000202010038444444F80000030202010066
:10811000000010000000000002000000000020002D
:10812000000000000600000000205088040200004B
:10813000000001029090909090000000000000006C
:108140000002048850200002010000001804C4242A
:108150001800000002000000F804E494F800010296
:108160000202020000E09CF0800002030000030213
:1081700004FC2424D800020302020100F8040404D1
:108180000C0001020202010004FC0404F8000203D6
:108190000202010004FC24740C000203020203002A
:1081A00004FC24740C00020302000000F0080444E4
:1081B000CC4000010202010004FC2020FC04020368
:1081C000000003020404FC04040002020302020093
:1081D000000404FC040406040403000004FC24D08E
:1081E0000C0402030200030204FC0400000002036A
:1081F00002020203FC3CC03CFC000300030003003D
:1082000004FC30C4FC04020302000300F80404046C
:10821000F80001020202010004FC242418000203F9
:1082200002000000F8848404F8000102020705003F
:1082300004FC24649800020302000302182424446E
:108240008C000302020201000C04FC040C0000027A
:108250000302000004FC0000FC0400010202010013
:10826000047C80E01C040000030000001CE03CE0F3
:108270001C00000300030000049C609C0400020337
:1082800000030200041CE01C0400000203020000C2
:108290000C84641C04000203020203000000FE02BE
:1082A0000200000007040400000E30C000000000BF
:1082B00000010200000202FE0000000404070000AA
:1082C00000040204000000000000000000000000A4
:1082D000000008080808080800000200000000006C
:1082E000000000000040A0A0C00000010202030244
:1082F00004FC2020C00000030202010000C0202076
:10830000600000010202020000C02024FC00000105
:108310000202030200C0A0A0C0000001020202008D
:108320000020F82424040002030202000040A0A060
:10833000602000070A0A0A0404FC2020C00002038F
:10834000020003020020E40000000002030200001B
:10835000000020E4000008080807000004FC80E09A
:1083600020200203020003020404FC0000000202B9
:1083700003020200E020E020C0000300030003002D
:1083800020E02020C00002030200030200C02020E1
:10839000C00000010202010020E02020C000080F00
:1083A0000A02010000C02020E0000001020A0F08BC
:1083B00020E0402020000203020000000060A0A096
:1083C00020000002020203000020F820000000004C
:1083D0000102020020E00020E0000001020203028E
:1083E00020E0208060200000030100006080E08029
:1083F0006000000300030000206080602000020392
:108400000003020020E0208060200808070100002F
:108410000020A0602000000203020200000020DE15
:108420000200000000070400000000FF0000000040
:10843000000F00000002DE20000000040700000022
:10844000020102040402000000000000000000001D
:10845000000000000000000000000000000000F824
:1084600000000000000000333000000000100C0687
:10847000100C0600000000000000000040C0784022
:10848000C0784000043F04043F040400007088FCEE
:1084900008300000001820FF211E0000F008F00046
:1084A000E018000000211C031E211E0000F00888B7
:1084B000700000001E2123241927211010160E0021
:1084C000000000000000000000000000000000E0CC
:1084D00018040200000000071820400000020418E1
:1084E000E00000000040201807000000404080F03D
:1084F000804040000202010F01020200000000F073
:10850000000000000101011F010101000000000046
:108510000000000080B070000000000000000000BB
:108520000000000000010101010101010000000044
:1085300000000000003030000000000000000000DB
:1085400080601804006018060100000000E01008B8
:108550000810E000000F102020100F00001010F88D
:10856000000000000020203F2020000000700808CC
:10857000088870000030282422213000003008884C
:10858000884830000018202020110E000000C02074
:1085900010F8000000070424243F240000F8088895
:1085A000880808000019212020110E0000E0108822
:1085B00088180000000F112020110E000038080854
:1085C000C83808000000003F000000000070880864
:1085D00008887000001C222121221C0000E01008E5
:1085E0000810E0000000312222110F00000000C03E
:1085F000C0000000000000303000000000000080DB
:1086000000000000000080600000000000008040CA
:1086100020100800000102040810200040404040E3
:108620004040400004040404040404000008102036
:10863000408000000020100804020100007048087B
:108640000808F0000000003036010000C030C828E3
:10865000E810E0000718272423140B000000C0389E
:10866000E0000000203C23020227382008F8888818
:1086700088700000203F202020110E00C030080824
:1086800008083800071820202010080008F80808FB
:108690000810E000203F202020100F0008F88888F4
:1086A000E8081000203F20202320180008F88888C0
:1086B000E8081000203F200003000000C030080838
:1086C0000838000007182020221E020008F80800C1
:1086D0000008F808203F210101213F20000808F888
:1086E000080800000020203F2020000000000808AB
:1086F000F8080800C08080807F00000008F888C06B
:1087000028180800203F20012638200008F808001B
:1087100000000000203F20202020300008F8F80052
:10872000F8F80800203F003F003F200008F830C064
:108730000008F808203F200007183F00E010080854
:108740000810E0000F10202020100F0008F8080883
:108750000808F000203F210101010000E010080896
:108760000810E0000F18242438504F0008F88888BB
:1087700088887000203F2000030C3020007088089B
:10878000080838000038202121221C00180808F8A9
:10879000080818000000203F2000000008F808002A
:1087A0000008F808001F202020201F0008788800FB
:1087B00000C83808000007380E010000F80800F86B
:1087C0000008F800033C0700073C03000818688015
:1087D0008068180820302C03032C30200838C8008B
:1087E000C83808000000203F2000000010080808DA
:1087F000C83808002038262120201800000000FE7C
:10880000020202000000007F40404000000C30C027
:1088100000000000000000010638C0000002020253
:10882000FE000000004040407F0000000000040205
:108830000202040000000000000000000000000030
:108840000000000080808080808080800002020420
:108850000000000000000000000000000000808018
:10886000808000000019242222223F2008F8008086
:1088700080000000003F112020110E000000008049
:1088800080800000000E11202020110000000080D8
:108890008088F800000E112020103F20000080800A
:1088A00080800000001F222222221300008080F01E
:1088B000888888180020203F202000000000808049
:1088C00080808000006B94949493600008F800808E
:1088D00080800000203F210000203F2000809898E9
:1088E000000000000020203F202000000000008049
:1088F0009898000000C08080807F000008F8000089
:1089000080808000203F24022D302000000808F8DD
:10891000000000000020203F202000008080808098
:1089200080808000203F20003F20003F808000802A
:1089300080800000203F210000203F200000808038
:1089400080800000001F202020201F0080800080E9
:108950008000000080FFA12020110E000000008098
:1089600080808000000E112020A0FF808080800089
:108970008080800020203F212000010000008080B6
:10898000808080000033242424241900008080E0AB
:10899000808000000000001F202000008080000078
:1089A00000808000001F202020103F208080800059
:1089B0000080808000010E30080601008080008069
:1089C000008080800F300C030C300F00008080008E
:1089D000808080000020312E0E31200080808000B9
:1089E0000080808080818E70180601000080808069
:1089F000808080000021302C222130000000000007
:108A0000807C020200000000003F404000000000A7
:108A1000FF00000000000000FF0000000002027CD8
:108A2000800000000040403F0000000000060101FF
:108A3000020204040000000000000000000000002A
:108A40000000000000000000000000000000000026
:108A50000000000000000000000000000000000016
:108A60000000000000F0F0F0000000000000000036
:108A700000017F010000000000000000001C1C1C21
:108A80000000000000008060301C8C60301C0C0076
:108A900000000000000000000000000000000000D6
:108AA0000000000000000000000000E000000000E6
:108AB00000E000000086E69F86868686E69F8600A8
:108AC00000011F01010101011F010100000080C020
:108AD0006020F820E0C00000000003070C18FF70C1
:108AE000E18100000000070F10107F100F07000049
:108AF0008060206080000000E02000000F30203007
:108B00009F70DC371030C0000000100E0300071803
:108B1000101807000000C02020E0C0000000000086
:108B200080E01F38E88703C43C040000070F1810DA
:108B3000100B070D1010080000808C4C380000004E
:108B40000000000000000000000000000000000025
:108B50000000000000000000000000000000000015
:108B6000000080E0300804000000000000FEFF016B
:108B700000000000000000000000030F182040006B
:108B800000040830E0800000000000000000000049
:108B900001FFFE0000000000004020180F0300004D
:108BA00000000000000000000000C0000000000005
:108BB000004266663C18FF183C66664200000000F2
:108BC0000000030000000000000000000000800022
:108BD00000000000001010101010FF1010101010F6
:108BE0000000000000000300000000000000000082
:108BF0000000000000000000000000000000000075
:108C00000000000000808C4C3800000000000000D4
:108C10000000000000000000000000000010101024
:108C200010101010101010000000000000000000D4
:108C30000000000000000000000000000000000034
:108C400000000000000000000000000000001C1CEC
:108C50001C000000000000000000000000000000F8
:108C6000E0380C000000000080701C0300000000D1
:108C70000060380E0100000000000000000080C00D
:108C800060202060C080000000FEFF0100000000A6
:108C900001FFFE000001070E181010180E0701005A
:108CA0000000808080C0E0000000000000000000A4
:108CB00000FFFF000000000000001010101F1F1038
:108CC000101000000080402020202060C0800000A4
:108CD00000030300804020381F070000001C1A1901
:108CE00018181818181F00000080C020202060C02D
:108CF00080000000000303001010182FE780000020
:108D000000070F10101010180F07000000000000DF
:108D10000000C0E0F000000000C0B088868180FF45
:108D2000FF808000000000000010101F1F101000C6
:108D30000000E060606060606060000000003F1064
:108D400008080818F0E0000000070B101010101CB5
:108D50000F030000000080C040202020E0C0000081
:108D600000FCFF211008080818F0E0000001070CC3
:108D700018101010080F03000000C0E06060606071
:108D800060E06000000003000000E0180700000041
:108D900000000000001F1F00000000000080C060F5
:108DA0002020202060C080000087EF2C1818303071
:108DB00068CF830000070F0810101010180F07006D
:108DC0000000C0C020202020C0800000001F3F60A5
:108DD0004040402010FFFE0000000C1C1010100846
:108DE0000F03000000000000000000000000000071
:108DF00000000000000E0E0E000000000000000049
:108E0000001C1C1C0000000000000000000000000E
:108E10000000000000000000000C0C00000000003A
:108E200000000000005838000000000000000000B2
:108E30000000008040201000000010284482010043
:108E40000000000000000000000001020408100003
:108E50000000000000000000000000000084848486
:108E60008484848484848400000000000000000066
:108E70000000000000001020408000000000000002
:108E800000000000000001824428100000001008CB
:108E9000040201000000000000C02020101010108B
:108EA00030E0C0000003030000F010080C070300CE
:108EB000000000001C1C1C0000000000000000C09E
:108EC000406020202040C00000FCFF01F00E03C1E4
:108ED000FE03807F0001070E081111101109040222
:108EE0000000000080E0E000000000000000807C46
:108EF0004340477FF880000010181F10000000005A
:108F0000131F1C1020E0E02020202060C080000003
:108F100000FFFF10101010182FE78000101F1F1007
:108F200010101010180F0700000080C040202020F3
:108F30002060E00000FCFF010000000000000100D4
:108F40000001070E181010100804030020E0E020B4
:108F500020202040C080000000FFFF000000000033
:108F600001FFFE00101F1F10101018080E0701004F
:108F700020E0E020202020202060800000FFFF1063
:108F80001010107C00000000101F1F101010101097
:108F90001018060020E0E0202020202060608000E3
:108FA00000FFFF101010107C00000100101F1F10A8
:108FB0000000000000000000000080C060202020B1
:108FC00040E0000000FCFF0100004040C0C1404004
:108FD0000001070E181010100F0F000020E0E02015
:108FE0000000000020E0E02000FFFF101010101033
:108FF00010FFFF00101F1F1000000000101F1F10A7
:109000000000202020E0E0202020000000000000E0
:1090100000FFFF000000000000001010101F1F10D4
:109020001010000000000000202020E0E0202020A0
:1090300000000000000000FFFF0000000060E08072
:109040008080C07F3F00000020E0E020000020A0E2
:109050006020200000FFFF30187CE3C0000000000B
:10906000101F1F10000001131F1C181020E0E0202B
:10907000000000000000000000FFFF0000000000F2
:1090800000000000101F1F10101010101018060014
:1090900020E0E0E000000000E0E0E02000FF013F11
:1090A000FEC0E01E01FFFF00101F1000031F0300A1
:1090B000101F1F1020E0E0C0000000000020E02092
:1090C00000FF0003071C78E08000FF00101F100065
:1090D00000000000030F1F00000080C0602020601F
:1090E000C080000000FEFF010000000000FFFE0045
:1090F0000001070E181010180C07010020E0E020F6
:109100002020202060C0800000FFFF2020202020A1
:10911000301F0F00101F1F10000000000000000093
:10912000000080C060202060C080000000FEFF01C1
:109130000000000000FFFE000001070E1111133CAB
:109140007C67210020E0E0202020202060C08000FB
:1091500000FFFF101030F0D0080F0700101F1F1085
:10916000000000030F1C10100080C0602020202091
:109170004040E00000070F0C1818303060E081001C
:10918000001F0C0810101010180F0700806020201E
:1091900020E0E020202060800100000000FFFF00B0
:1091A0000000000100000000101F1F100000000060
:1091B00020E0E020000000000020E02000FFFF0091
:1091C000000000000000FF0000070F181010101032
:1091D000100807002060E0E02000000020E0602090
:1091E0000000077FF88000807C0300000000000082
:1091F000071F1C070000000020E0E02000E0E02046
:109200000020E0200007FFF8E01FFFFCE01F000047
:109210000000031F0300011F03000000002060E0A6
:10922000A0000020E0602000000000038F7CF8C652
:10923000010000000010181E130001171F18100075
:109240002060E0E02000000020E060200000010736
:109250003EF8E0180700000000000010101F1F106B
:109260001000000000806020202020A0E0E020000E
:1092700000000000C0F03E0F0300000000101C1FA3
:1092800017101010101806000000000000FC040465
:10929000040404000000000000FF000000000000C3
:1092A00000000000007F404040404000000010E00F
:1092B000000000000000000000000000031C6080AF
:1092C0000000000000000000000000030C7080009F
:1092D00000000404040404FC00000000000000007E
:1092E000000000FF00000000000040404040407FC0
:1092F0000000000000000010080C040C0810000022
:10930000000000000000000000000000000000005D
:10931000000000000000000000000000000000004D
:10932000000000000000000000000000000000003D
:109330008080808080808080808080800000000429
:109340000408080000000000000000000000000009
:10935000000000000000000000000000000000000D
:10936000000000000000000000000000000098D88D
:1093700044642424FCF80000000F1F18101010088B
:109380001F1F10180020E0F0000000000000000087
:109390000000FFFF180804040CF8F00000001F0F85
:1093A00018101010180F030000000000000000004B
:1093B0000000000000E0F8180404043C380000003D
:1093C00000030F0C10101010080600000000000031
:1093D00000000020E0F0000000E0F81C0404040895
:1093E000FFFF000000030F18101010081F0F0800E7
:1093F0000000000000000000000000000000E0F895
:10940000484444444C7870000000030F0C181010BE
:10941000100804000000000080C0602020E0C000B0
:1094200000040404FFFF0404040400000000101002
:109430001F1F1010100000000000000000000000BE
:1094400000000000000070F88C04048CF874040C18
:10945000007076CF8D8D8D89C87870000020E0F087
:1094600000000000000000000000FFFF08040404EA
:10947000FCF8000000101F1F100000101F1F10003C
:109480000000000000606000000000000000040414
:1094900004FCFC000000000000001010101F1F1052
:1094A00010100000000000000000006060000000DC
:1094B00000000000040404FCFC0000000000C0C028
:1094C0008080C07F3F0000000020E0F0000000002E
:1094D000000000000000FFFF80C0F41C0404000036
:1094E00000101F1F1100031F1C101000000020207F
:1094F00020E0F000000000000000000000FFFF007E
:109500000000000000001010101F1F1010100000BD
:1095100000000000000000000000000004FCFC0847
:1095200004FCFC0804FCFC00101F1F10001F1F108F
:10953000001F1F10000000000000000000000000DD
:109540000004FCFC08080404FCF8000000101F1FC5
:10955000100000101F1F100000000000000000009D
:109560000000000000E0F0180C04040C18F0E0000B
:1095700000030F0C101010100C0F0300000000006F
:1095800000000000000000000004FCFC08040404CB
:109590000CF8F0000080FFFF889010101C0F0300F3
:1095A00000000000000000000000000000E0F81CC7
:1095B00004040408F8FC000000030F181010908841
:1095C000FFFF80000000000000000000000000001D
:1095D000040404FCFC100804040C0C001010101F00
:1095E0001F1010100000000000000000000000002C
:1095F0000000000000003078CCC48484840C1C007F
:1096000000001E1810101011190F060000000000B5
:1096100000C000000000000000040404FFFF040478
:1096200004000000000000000F1F1010100C0000CC
:109630000000000000000000000000000004FCFE2C
:1096400000000004FCFE000000000F1F18101008AE
:109650001F0F0800000000000000000000000000D4
:1096600000040C3CFCC40000C43C0C0400000000DE
:10967000010F1E0E010000000000000000000000AD
:1096800000000000043CFCC400E47CFC84807C04FA
:109690000000071F070000071F0700000000000070
:1096A00000000000000000000004041C7CE4C03442
:1096B0001C0404000010101C1601131F1C181000BD
:1096C00000000000000000000000000000040C3C4E
:1096D000FCC400C43C0404000000C080C1370E017B
:1096E000000000000000000000000000000000007A
:1096F00000001C0404C4F47C1C0400000000101CC6
:109700001F17111010180E0000000000000000F8D4
:109710000C04000000000000001028EF0000000012
:10972000000000000000003F60400000000000005A
:109730000000FF0000000000000000000000FF002B
:1097400000000000000000000000FF00000000001A
:109750000000040CF8000000000000000000000001
:10976000EF28100000000000000040603F000000F3
:109770000000000000180602020408102020300833
:1097800000000000000000000000000000000000D9
:1097900000000000000000000000000000000000C9
:1097A00000000000000000000000000000000000B9
:1097B000000000000000000000000000F0F0D0B049
:1097C00070F0F0F0F0F0F0F0F0F0F0F0F0F0F0F019
:1097D000F0F0F0703090D0E000000000FFFFFFFFDD
:1097E000FF0000000000000000000000000000007A
:1097F000000000FEFFFFFFFF000000003F7F3F3F33
:109800001F00000000000000000000000000000039
:109810000000001F3F7F7F3F00000000FCFEFCFCBB
:10982000F800000000000000000000000000000040
:10983000000000F8FCFCFEFC00000000FFFFFFFF42
:10984000FF00000000000000000000000000000019
:10985000000000FFFFFFFFFF000000000F071319CB
:109860001C1E1E1E1E1E1E1E1E1E1E1E1E1E1E1E1A
:109870001E1E1E1C1913170F000000000000000020
:1098800000000000000000000000000000000000D8
:1098900000000000000000000000000000000000C8
:1098A00000000000000000000000000000000000B8
:1098B0000000000000000000000000000000008028
:1098C000C0E0F0F800000000000000000000000010
:1098D000000000000000000000000000000000FF89
:1098E000FFFFFFFF0000000000000000000000007C
:1098F0000000000000000000000000000000001F49
:109900001F3F7F3F0000000000000000000000003B
:10991000000000000000000000000000000000F84F
:10992000FCFCFEFC00000000000000000000000045
:10993000000000000000000000000000000000FF28
:10994000FFFFFFFF0000000000000000000000001B
:109950000000000000000000000000000000000007
:109960000103070F000000000000000000000000DD
:1099700000000000000000000000000000000000E7
:1099800000000000000000000000000000000000D7
:1099900000000000000000000000000000000000C7
:1099A00000000000000000000000000000000000B7
:1099B0000000000000000000000000000000103067
:1099C00070F0F0F0F0F0F0F0F0F0F0F0F0F0F0F017
:1099D000F0F0F0703090D0E00000000000000000D7
:1099E0000000000000000000000000000000000077
:1099F000000000FFFFFFFFFF0000000000000080EC
:109A000080C0C0C0C0C0C0C0C0C0C0C0C0C0C0C096
:109A1000C0C0C09FBF7F7F3F00000000FCFEFCF97C
:109A2000F903030303030303030303030303030310
:109A3000030303010100000000000000FFFFFFFF1F
:109A4000FF00000000000000000000000000000017
:109A50000000000000000000000000000F071319C4
:109A60001C1E1E1E1E1E1E1E1E1E1E1E1E1E1E1E18
:109A70001E1E1E1C18101000000000000000000038
:109A800000000000000000000000000000000000D6
:109A900000000000000000000000000000000000C6
:109AA00000000000000000000000000000000000B6
:109AB0000000000000000000000000000000103066
:109AC00070F0F0F0F0F0F0F0F0F0F0F0F0F0F0F016
:109AD000F0F0F070B0D0F0F00000000000000000E6
:109AE0000000000000000000000000000000000076
:109AF000000000FFFFFFFFFF00000000000000006B
:109B000080C0C0C0C0C0C0C0C0C0C0C0C0C0C0C095
:109B1000C0C0C0DFBF3F7F3F00000000000000006A
:109B20000103030303030303030303030303030307
:109B3000030303FBFDFCFEFC00000000000000002E
:109B40000000000000000000000000000000000015
:109B5000000000FFFFFFFFFF0000000000001018E2
:109B60001C1E1E1E1E1E1E1E1E1E1E1E1E1E1E1E17
:109B70001E1E1E1C1913170F00000000000000001D
:109B800000000000000000000000000000000000D5
:109B900000000000000000000000000000000000C5
:109BA00000000000000000000000000000000000B5
:109BB000000000000000000000000000F8F0E0C01D
:109BC0008000000000000000000000000000000015
:109BD0000000000080C0E0F000000000FFFFFFFF79
:109BE000FF00000000000000000000000000000076
:109BF000000000FFFFFFFFFF000000003F7F3F9FCE
:109C00009FC0C0C0C0C0C0C0C0C0C0C0C0C0C0C075
:109C1000C0C0C09FBF3F7F3F0000000000000001A8
:109C20000103030303030303030303030303030306
:109C3000030303F9FDFCFEFC00000000000000002F
:109C40000000000000000000000000000000000014
:109C5000000000FFFFFFFFFF000000000000000009
:109C600000000000000000000000000000000000F4
:109C7000000000000103070F0000000000000000CA
:109C800000000000000000000000000000000000D4
:109C900000000000000000000000000000000000C4
:109CA00000000000000000000000000000000000B4
:109CB000000000000000000000000000E0C0903044
:109CC00070F0F0F0F0F0F0F0F0F0F0F0F0F0F0F014
:109CD000F0F0F0703010100000000000FFFFFFFFF8
:109CE000FF00000000000000000000000000000075
:109CF0000000000000000000000000003F7F7FBF68
:109D00009FC0C0C0C0C0C0C0C0C0C0C0C0C0C0C074
:109D1000C0C0C08080000000000000000000000102
:109D20000103030303030303030303030303030305
:109D3000030303F9F9FCFEFC000000000000000032
:109D40000000000000000000000000000000000013
:109D5000000000FFFFFFFFFF0000000000001018E0
:109D60001C1E1E1E1E1E1E1E1E1E1E1E1E1E1E1E15
:109D70001E1E1E1C1913170F00000000000000001B
:109D800000000000000000000000000000000000D3
:109D900000000000000000000000000000000000C3
:109DA00000000000000000000000000000000000B3
:109DB000000000000000000000000000F0F0D0B043
:109DC00070F0F0F0F0F0F0F0F0F0F0F0F0F0F0F013
:109DD000F0F0F0703010100000000000FFFFFFFFF7
:109DE000FF00000000000000000000000000000074
:109DF0000000000000000000000000003F7F3FBFA7
:109E00009FC0C0C0C0C0C0C0C0C0C0C0C0C0C0C073
:109E1000C0C0C0808000000000000000FCFEFCFD0F
:109E2000F90303030303030303030303030303030C
:109E3000030303F9FDFCFEFC00000000FFFFFFFF31
:109E4000FF00000000000000000000000000000013
:109E5000000000FFFFFFFFFF000000000F071319C5
:109E60001C1E1E1E1E1E1E1E1E1E1E1E1E1E1E1E14
:109E70001E1E1E1C1913170F00000000000000001A
:109E800000000000000000000000000000000000D2
:109E900000000000000000000000000000000000C2
:109EA00000000000000000000000000000000000B2
:109EB0000000000000000000000000000000103062
:109EC00070F0F0F0F0F0F0F0F0F0F0F0F0F0F0F012
:109ED000F0F0F070B0D0F0F00000000000000000E2
:109EE0000000000000000000000000000000000072
:109EF000000000FFFFFFFFFF000000000000000067
:109F00000000000000000000000000000000000051
:109F10000000001F3F3F7F3F0000000000000000E6
:109F20000000000000000000000000000000000031
:109F3000000000F8FCFCFEFC000000000000000037
:109F40000000000000000000000000000000000011
:109F5000000000FFFFFFFFFF000000000000000006
:109F600000000000000000000000000000000000F1
:109F7000000000000103070F0000000000000000C7
:109F800000000000000000000000000000000000D1
:109F900000000000000000000000000000000000C1
:109FA00000000000000000000000000000000000B1
:109FB000000000000000000000000000F0F0D0B041
:109FC00070F0F0F0F0F0F0F0F0F0F0F0F0F0F0F011
:109FD000F0F0F0703090D0E000000000FFFFFFFFD5
:109FE000FF00000000000000000000000000000072
:109FF000000000FEFFFFFFFF000000003F7F3FBFAB
:10A000009FC0C0C0C0C0C0C0C0C0C0C0C0C0C0C071
:10A01000C0C0C09FBF7F7F3F00000000FCFEFCFD72
:10A02000F90303030303030303030303030303030A
:10A03000030303F9FDFCFEFC00000000FFFFFFFF2F
:10A04000FF00000000000000000000000000000011
:10A05000000000FFFFFFFFFF000000000F071319C3
:10A060001C1E1E1E1E1E1E1E1E1E1E1E1E1E1E1E12
:10A070001E1E1E1C1913170F000000000000000018
:10A0800000000000000000000000000000000000D0
:10A0900000000000000000000000000000000000C0
:10A0A00000000000000000000000000000000000B0
:10A0B000000000000000000000000000F0F0D0B040
:10A0C00070F0F0F0F0F0F0F0F0F0F0F0F0F0F0F010
:10A0D000F0F0F070B0D0F0F000000000FFFFFFFFE4
:10A0E000FF00000000000000000000000000000071
:10A0F000000000FFFFFFFFFF000000003F7F3FBFA9
:10A100009FC0C0C0C0C0C0C0C0C0C0C0C0C0C0C070
:10A11000C0C0C09FBF3F7F3F0000000000000001A3
:10A120000103030303030303030303030303030301
:10A13000030303F9FDFCFEFC00000000000000002A
:10A14000000000000000000000000000000000000F
:10A15000000000FFFFFFFFFF0000000000001018DC
:10A160001C1E1E1E1E1E1E1E1E1E1E1E1E1E1E1E11
:10A170001E1E1E1C1913170F000000000000000017
:10A1800000000000000000000000000000000000CF
:10A190000000000000000000000000FE82828282B9
:10A1A000828282FE00000000000000FF404040402C
:10A1B000404040FF000000008080808080808080E0
:10A1C000808080808080800000000000000000000F
:10A1D000000000000000000000000808080808084F
:10A1E00008080808080000001010101010101010C7
:10A1F00010101010101010000004848484848484D3
:10A2000084848484840400002020202020202020B6
:10A21000202020202020200000FC040404FC040452
:10A2200004FC040404FC0000007F282423202020D8
:10A2300020212222227F00000002424242C27E42AE
:10A24000424242C202020000404040407847404043
:10A250004040407F404040002020202020202122FC
:10A260002C20202020202000004020100C03000083
:10A270000001020418600000002018C74444444450
:10A28000FC4444444404000004040407040404049B
:10A29000FF04040404040400000000FE2222222221
:10A2A00022222222FE0000008040300F0202020221
:10A2B000020242827F000000000000BE2A2A2AEA31
:10A2C0002A2A2A3E00000000004442494949497FA9
:10A2D00049494949414000000004FF242424FF0467
:10A2E00000FE222222FE000088482F090919AF48EB
:10A2F000300F0242827F000000FC8484FC00445442
:10A3000054547F5454544400003F10103F0000FF49
:10A3100015151555957F00000000101098A44744AE
:10A32000A4540C04000000000081898944444A318F
:10A330002111090503000000404042424242C2424E
:10A340004242424242404000002070282423202004
:10A3500020242830E000000000FE0222DA0600FE81
:10A360002222222222FE000000FF08108847300F20
:10A3700002020242827F000000FE0222DA0608C8C2
:10A38000B88FE8888888080000FF081008070808C8
:10A390000808FF080808080002E22222222222FE02
:10A3A0002222222222E2020000FF00000912007F86
:10A3B00000091240807F000020180AAAAAAA0AFEFB
:10A3C0000AAAAAAA0A2818000000FE92929292FEF7
:10A3D00092929292FE000000100C0555D555057F13
:10A3E0000555555505140C000004027D959595956D
:10A3F0009D91A19F80C0000000080828480808FF20
:10A4000008084828080800008181414121110D03F6
:10A410000D11214141818100100C05555555057FD5
:10A420000555555505140C00000041494949494955
:10A4300049494949FF000000000000E0000000FF1A
:10A440000000002040800000080403000040807FDE
:10A450000000000000010E000000F010101010FFBE
:10A4600010101010F000000000000F04040404FF9E
:10A47000040404040F00000020202020202020FFDE
:10A48000202020202020200080804020100C03006D
:10A49000030C1020408080000040405FF55555556A
:10A4A0005555F55F40400000090985452B51817DD8
:10A4B00001112B4585090900100C055555D5057F5F
:10A4C0000555555505140C001010108AA96B35253B
:10A4D00025ABE9081010100000020C8060088868A5
:10A4E000180FE8080808080002027E010020110D7C
:10A4F00041817F01050930001060028C00806018E6
:10A5000000FF00008810600004047E01008080408D
:10A510004023100C03000000004020100C00007FBE
:10A520000000040810600000404044444444447F5C
:10A5300044444444444040001060020CC00094A4D1
:10A540008494A282A31A000004047C03000404047F
:10A5500044847E0504040400101010FF1090004293
:10A56000E2524AC64240C0000444827F0120108C5F
:10A570004320184780403F001060028C201808C814
:10A5800038CF08082898000004047E01040201FF67
:10A590004021060A112040001010101010FF10106A
:10A5A000F0101116D0101000804020180641201025
:10A5B0003F444241404078000040484ACC48784FF0
:10A5C0004848CC4A48400000040402017E8282824E
:10A5D00092A29E81F20404000000FE021222C20236
:10A5E000C23202FE0000000080601F0020100C0339
:10A5F0000C30000F3040F80000F2929292929E00D0
:10A60000F2929292929E00000010114A88443F00FC
:10A6100010114A88443F000004040404F494959601
:10A620009494F4040404040000FE02027A4A4A4AA4
:10A630004A4A7A0282FE000000FC0404FC8040309A
:10A640000FC8080828180000000F04048F402018C5
:10A650000601061820408000C8B88FE888888082EC
:10A660004222121A26428000081808FF04044042C1
:10A6700042427E4242424000504CA535D59545DFCE
:10A680004555D55545D40C00424A29A5927C005722
:10A6900055557F5555574000C8B88FE888884048C1
:10A6A00048E85F4848484000081808FF04040002D2
:10A6B0000B1222D20A060000DDDDDDDDDCBBBBDDD6
:10A6C000DDDDDDDDDDDDDDDD988888888888888852
:10A6D0007777777777888888855555566666666672
:10A6E0006666666666688888833333322222222251
:10A6F000222222222228888D18A700000000002094
:10A70000A800000084510000C0A70000A80000209D
:10A71000401800009451000000127A000000000070
:10A7200000303000000000000000000000000000C9
:10A730005461697975616E0000000000000000003E
:10A740000000000030300000000000000000303049
:10A750000000000000000000000030300000000099
:10A760000000000030300000000000000000000089
:10A770003030000000000000000030300000000019
:10A7800000000000000000000000000000000000C9
:10A7900004000000010000000000000000000000B4
:10A7A0000000000000000000000000003D5100001B
:10A7B000D9500000516500000000000000000000BA
:04000005000000C136
:00000001FF
