:020000040000FA
:10000000800400209D010000B7010000B90100003C
:1000100000000000000000000000000000000000E0
:10002000000000000000000000000000BB01000014
:100030000000000000000000BD010000890E00006B
:10004000C1010000C1010000C1010000C1010000A8
:10005000C1010000C1010000C1010000C101000098
:10006000C1010000C1010000C1010000C101000088
:10007000C1010000C1010000C1010000C101000078
:10008000C1010000C1010000C1010000C101000068
:10009000C1010000C1010000C1010000C101000058
:1000A000C1010000C1010000C1010000C101000048
:1000B000C1010000C1010000C1010000C101000038
:1000C00000F002F800F03EF80CA030C80838241800
:1000D0002D18A246671EAB4654465D46AC4201D180
:1000E00000F030F87E460F3E0FCCB6460126334274
:1000F00000D0FB1AA246AB4633431847F81700005E
:1001000018180000103A02D378C878C1FAD85207FC
:1001100001D330C830C101D504680C6070470000BD
:100120000023002400250026103A01D378C1FBD813
:10013000520700D330C100D50B6070471FB51FBDFB
:1001400010B510BD00F006F91146FFF7F7FF00F0FB
:100150002DFF00F01EF903B4FFF7F2FF03BC00F01F
:1001600025F9000070B505460C46164602E00FCC96
:100170000FC5103E102EFAD2082E02D303CC03C5B1
:10018000083E042E07D301CC01C5361F03E02178B9
:100190002970641C6D1C761EF9D270BD0C480D4A86
:1001A000002100A1814200D902440B4802600B48A3
:1001B00080470B480047FEE7FEE7FEE7FEE7FEE765
:1001C000FEE7000007480849084A094B704700004D
:1001D000000000200000000008ED00E0B10E00006B
:1001E000C100000080000020800400208002002068
:1001F00080020020002203098B422CD3030A8B4289
:1002000011D300239C464EE003460B433CD400220E
:1002100043088B4231D303098B421CD3030A8B4220
:1002200001D394463FE0C3098B4201D3CB01C01AEE
:10023000524183098B4201D38B01C01A52414309B9
:100240008B4201D34B01C01A524103098B4201D3A7
:100250000B01C01A5241C3088B4201D3CB00C01A14
:10026000524183088B4201D38B00C01A524143088C
:100270008B4201D34B00C01A5241411A00D20146B1
:100280005241104670475DE0CA0F00D0494203104A
:1002900000D34042534000229C4603098B422DD399
:1002A000030A8B4212D3FC22890112BA030A8B4241
:1002B0000CD3890192118B4208D3890192118B4290
:1002C00004D389013AD0921100E08909C3098B4215
:1002D00001D3CB01C01A524183098B4201D38B0158
:1002E000C01A524143098B4201D34B01C01A5241FB
:1002F00003098B4201D30B01C01A5241C3088B4240
:1003000001D3CB00C01A524183088B4201D38B002A
:10031000C01A5241D9D243088B4201D34B00C01AB4
:100320005241411A00D20146634652415B101046C9
:1003300001D34042002B00D54942704763465B1011
:1003400000D3404201B50020C046C04602BD704700
:1003500070477047754600F025F8AE4605006946BF
:100360005346C008C000854618B020B5FFF72AFFE5
:1003700060BC00274908B6460026C0C5C0C5C0C538
:10038000C0C5C0C5C0C5C0C5C0C5403D49008D463B
:10039000704710B50446C046C0462046FFF7DBFE56
:1003A00010BD0000004870471C00002001491820C3
:1003B000ABBEFEE726000200704700B5034603E02F
:1003C0007D20C00000F006F818465B1E0028F7D11B
:1003D00000BD00008101094A5161002191610521A0
:1003E000116100BF05490969012212041140002969
:1003F000F8D00421014A11617047000000E000E0DC
:10040000002804D00822024310231A4300E00022EF
:100410001146024A0A43024B5A60704700005A5A7A
:10042000002002404A68002A04D1C2690B681A43BE
:10043000C26174E0C2690B689A43C26110234A68C2
:100440001A40102A4ED102680B681A4302604A68AB
:10045000112A07D102690B681A430261C2680B684E
:100460009A43C2604A68122A07D1C2680B681A43CD
:10047000C26002690B689A430261426A0B689A4340
:100480004262826A0B689A438262C26A0B689A432C
:10049000C262026B0B689A43026381238A681A4026
:1004A000812A03D1426A0B681A43426282238A6816
:1004B0001A40822A03D1826A0B681A43826284231B
:1004C0008A681A40842A03D1C26A0B681A43C2623E
:1004D00088238A681A40882A21D1026B0B681A4344
:1004E00002631CE002680B689A4302604A68202A93
:1004F00004D142680B689A43426003E042680B688B
:100500001A434260064BCA689A4204D182680B685B
:100510001A43826003E082680B689A4382607047E6
:10052000FFFF00000246106D0840002801D00120A6
:1005300070470020FCE7012A01D1C16500E0816518
:10054000704700001FB50948006B20210843074988
:100550000863802002902120019030200090044800
:10056000039069460348FFF75DFF1FBD000001408F
:10057000FFFF00000004004810B5FFF7E3FF092269
:100580006B21D02000F0D2FC06221A21D02000F0EE
:10059000CDFC09221921D02000F0C8FC18221B2113
:1005A000D02000F0C3FC18221C21D02000F0BEFC9B
:1005B00010BD10B50820FFF70DFF10BD70B501226A
:1005C00010211248FFF7B7FF0120FFF703FF0025B6
:1005D00018E0012220210D48FFF7ADFF6006040E50
:1005E00010210A48FFF79EFF012800D10443FFF7BE
:1005F000E0FF002220210548FFF79DFFFFF7D9FF0C
:10060000681CC5B2082DE4DB204670BD000400481C
:1006100010B50446224610210848FFF78CFF01223E
:1006200020210648FFF787FFFFF7C3FF00222021A4
:100630000248FFF780FFFFF7BCFF10BD0004004831
:1006400070B50446002220211448FFF774FF0025EE
:1006500020E080202040002805D0012210210F48F2
:10066000FFF769FF04E0002210210C48FFF763FF49
:10067000012220210948FFF75EFFFFF79AFF0022C1
:1006800020210648FFF757FF6006040EFFF791FF91
:10069000681CC5B2082DDCDB70BD000000040048FA
:1006A00010B5012210211448FFF745FF0122202137
:1006B0001148FFF740FFFFF77CFF10210E48FFF7BE
:1006C00031FF002800D110BD002210210A48FFF799
:1006D00032FFFFF76EFF10210748FFF723FF0128C5
:1006E00001D10020EFE7002220210348FFF723FF7C
:1006F000FFF75FFF0120E6E70004004810B5002285
:1007000010210B48FFF717FF002220210848FFF7B0
:1007100012FFFFF74EFF012220210548FFF70BFFD4
:10072000FFF747FF012210210148FFF704FF10BD2A
:100730000004004810B5012210211848FFF7FBFE05
:10074000012220211548FFF7F6FE07E0601C80B269
:100750000446FF21F531884200D105E010210F4801
:10076000FFF7E0FE0128F1D000BF10210B48FFF792
:10077000D9FE012806D1002220210848FFF7DBFE20
:10078000002010BDFFF715FF002220210348FFF7CE
:10079000D2FEFFF70EFF0120F3E70000000400483F
:1007A0001FB5002000900190029003900E236A462E
:1007B0003B21D02000F01AFB684600780102684611
:1007C0004078014308B218490880684680780102E1
:1007D0006846C078014308B21349488068460079EA
:1007E000010268464079014308B20F498880684693
:1007F000007A01026846407A014308B20B4908803A
:100800006846807A01026846C07A014308B2074907
:1008100048806846007B00026946497B084300B275
:10082000024988801FBD0000100000201600002033
:1008300070B500240EE00021204600F0FFF80025EE
:1008400004E0002000F09BF9681CC5B2802DF8DBA5
:10085000601CC4B2082CEEDB70BD00001FB513484D
:10086000006B102108431149086380200290212069
:100870000190062000900020039069460920C006E0
:10088000FFF7D0FD012206210920C006FFF753FE25
:10089000012202210920C006FFF74DFE012204219A
:1008A0000920C006FFF747FE1FBD00000000014001
:1008B00070B5054600241FE0802020412840002814
:1008C00006D0012204210920C006FFF734FE05E00E
:1008D000002204210920C006FFF72DFE012202217B
:1008E0000920C006FFF727FE002202210920C006CA
:1008F000FFF721FE601CC4B2082CDDDB01220221BF
:100900000920C006FFF717FE002202210920C006B9
:10091000FFF711FE70BD10B5012204210920C006A9
:10092000FFF709FE012202210920C006FFF703FE9E
:10093000002204210920C006FFF7FDFD002202214C
:100940000920C006FFF7F7FD10BD10B500220421F5
:100950000920C006FFF7EFFD012202210920C00691
:10096000FFF7E9FD012204210920C006FFF7E3FD9E
:1009700010BD70B5002407E0002500E06D1C7D204F
:10098000C0008542FAD3641C7D20C0008442F3D3AA
:10099000FFF764FFAE2000F0E2F8D52000F0DFF8AA
:1009A000802000F0DCF8A82000F0D9F83F2000F00B
:1009B000D6F8D32000F0D3F8002000F0D0F8402083
:1009C00000F0CDF8A12000F0CAF8C82000F0C7F868
:1009D000DA2000F0C4F8122000F0C1F8812000F005
:1009E000BEF8CF2000F0BBF8D92000F0B8F8F12015
:1009F00000F0B5F8DB2000F0B2F8302000F0AFF8DE
:100A0000A42000F0ACF8A62000F0A9F88D2000F09A
:100A1000A6F8142000F0A3F8AF2000F0A0F8FFF72C
:100A200007FF70BD10B50246012002E003465343A4
:100A300018460B46491E002BF8D110BD70B505466F
:100A40000C46B0212943084600F089F8F0212140E6
:100A5000091110221143084600F081F82007000F09
:100A600000F07DF870BD0000F8B505460E4617464B
:100A7000721ED206110E6A1E5206100EFFF7DEFF1E
:100A8000002409E0394620390901114A8918085D16
:100A900000F075F8601CC4B2082CF3DB721ED2069D
:100AA000110E6A1E5200521CD0B2FFF7C7FF00247D
:100AB0000BE0394620390901054A8A1821460831D8
:100AC000505C00F05CF8601CC4B2082CF1DBF8BD8F
:100AD000A4100000FFB583B015461E46002D06DBAE
:100AE0002B2204990398FFF7BFFF2F4605E02D2224
:100AF00004990398FFF7B8FF6F42002419E0301BF8
:100B0000411E0A20FFF78EFF014600903846FFF78E
:100B100071FB0A210190FFF76DFB303102910498BF
:100B20000019401CC1B2029A0398FFF79DFF601C98
:100B3000C4B2B442E3DB07B0F0BDF8B507460E46D9
:100B40001546002407E02A5D3019C1B23846FFF788
:100B50008BFF601CC4B2285D0028F4D1F8BD10B52D
:100B60000446FFF7D8FE7820FFF7A2FE0020FFF72B
:100B70009FFE2046FFF79CFEFFF7E7FE10BD10B575
:100B80000446FFF7C8FE7820FFF792FE4020FFF7EB
:100B90008FFE2046FFF78CFEFFF7D7FE10BD00004A
:100BA00004490968044A1140044A89180143014A6A
:100BB00011607047000001401FFF000000005A5AFA
:100BC000C1029322520212881143084A91611146D0
:100BD0004968074A1143054A516000BF03498969C2
:100BE0000122D20311409142F8D170470000014028
:100BF00001005A5A04490968044A1140044A8918F4
:100C00000143014A1160704700000140E7FF000006
:100C100000005A5AF0B58BB007460D461646002420
:100C200000200A900990254801460EC9C068079324
:100C30000692059108901422204910316846FFF76A
:100C400091FA00BF08E0A00005A90858A84201D900
:100C50000A9403E0601CC4B2042CF4D300BF2846FD
:100C600070430990002409E0A000694609580998DA
:100C7000814201D9099403E0601CC4B2052CF3D36E
:100C800000BF0998400207210903084331010843C6
:100C90000A99890008433843094988620846406830
:100CA000084908430649486000BF0548806A012199
:100CB000C90308408842F8D10BB0F0BD8010000095
:100CC0000000014004005A5A70B504460C48006800
:100CD00080B20C494018C008C00020430849086091
:100CE00000F012F8054600F07BF805480068400760
:100CF000400FA04201D0012070BD0020FCE70000A1
:100D00000000014000005A5AF8B5002500270024D1
:100D10000026002000902D48006847077F0F2B48D1
:100D200080694004040F2948806A8007800F009082
:100D30002648806AC005C60E3B0000F028F905046D
:100D40000C130E103400A000214A11582148FFF75F
:100D500051FA05462FE0204D2DE0204D2BE00125D6
:100D6000ED0328E00098002804D0012803D00328D0
:100D70000ED104E000BF18483546454311E0A000FD
:100D8000134A11581348FFF735FA7043054608E037
:100D9000A0000F4A11580F48FFF72CFA7043054680
:100DA00000BF00BF07E0A000094A11580948FFF73B
:100DB00021FA054600BF00BF044800680006410F45
:100DC0002846C84005462846F8BD000000000140FE
:100DD00040100000006CDC020024F40020800000C1
:100DE00001490860704700000C000020F8B5054676
:100DF0000E4614461F46FFF753FC002803D1FFF7A9
:100E00007DFC0020F8BD2846FFF71AFCFFF792FC96
:100E1000002803D1FFF772FC0020F3E73046FFF70C
:100E20000FFCFFF787FC002803D1FFF767FC0020C9
:100E3000E8E7FFF735FC002803D1FFF75FFC00204F
:100E4000E0E7691CC8B2FFF7FBFBFFF773FC002863
:100E500003D1FFF753FC0020D4E706E0FFF7AEFB19
:100E60002070641C0020FFF7D3FB781EC0B2071E61
:100E7000F4D1FFF7A3FB20700120FFF7C9FBFFF7B8
:100E80003DFC0120BEE700000348006803490978E3
:100E90004018014908607047000000200800002049
:100EA000014802490860704700127A000C000020D7
:100EB00010B5FFF7F5FF9321490209884805400D59
:100EC00017498969C90AC9020143154A91619321E9
:100ED000490249888805800D1146096A890A8902F4
:100EE000014311620520FFF76BFE0020FFF758FE5B
:100EF0000020FFF77FFE08220A490320FFF78AFE41
:100F00000748006B02210843054908630220FFF7E8
:100F100077FA0220FFF7D8FE0348FFF761FF10BD04
:100F20000000014000127A000090D00370B5064620
:100F30000C461546FFF7B4FB002803D1FFF7DEFB94
:100F4000002070BD3046FFF77BFBFFF7F3FB002866
:100F500003D1FFF7D3FB0020F3E72046FFF770FB38
:100F6000FFF7E8FB002803D1FFF7C8FB0020E8E704
:100F70002846FFF765FBFFF7DDFB002803D1FFF7ED
:100F8000BDFB0020DDE7FFF7B9FB0120D9E730B456
:100F90007446641E2578641CAB4204D3635D5B0019
:100FA000E31830BC18471D46F8E70000FFF7E1FCE6
:100FB000FFF7E2FA1DA201210846FFF7BEFD34E06B
:100FC000FFF7EEFB1C480022825E05230121022070
:100FD000FFF780FD18480222825E052301210320CD
:100FE000FFF778FD14480422825E052301210420C6
:100FF000FFF770FD11480022825E052309210220BF
:10100000FFF768FD0D480222825E052309210320B7
:10101000FFF760FD09480422825E052309210420B0
:10102000FFF758FD6420FFF7C8F9C9E7413A2020CF
:1010300020202020473A0000100000201600002049
:101040000600000006000000060000000600000088
:101050000600000006000000010000000300000080
:10106000020000000400000006000000080000006C
:101070000A0000000C0000000E000000100000003C
:10108000808D5B00001BB700002D310101366E0121
:1010900080A8120100366E0100512502006CDC02AE
:1010A00001A24A040000000000000000000000004F
:1010B00000000000000000F8000000000000003305
:1010C0003000000000100C06100C060000000000AC
:1010D0000000000040C07840C0784000043F040495
:1010E0003F040400007088FC08300000001820FF56
:1010F000211E0000F008F000E018000000211C0391
:101100001E211E0000F00888700000001E2123240C
:101110001927211010160E0000000000000000002A
:1011200000000000000000E01804020000000007BA
:101130001820400000020418E000000000402018C1
:1011400007000000404080F0804040000202010F94
:1011500001020200000000F0000000000101011F78
:1011600001010100000000000000000080B07000DC
:10117000000000000000000000000000000101016C
:1011800001010101000000000000000000303000FB
:1011900000000000000000008060180400601806D5
:1011A0000100000000E010080810E000000F10200F
:1011B00020100F00001010F8000000000020203F59
:1011C00020200000007008080888700000302824E3
:1011D0002221300000300888884830000018202084
:1011E00020110E000000C02010F8000000070424A9
:1011F000243F240000F808888808080000192120EE
:1012000020110E0000E0108888180000000F112047
:1012100020110E0000380808C83808000000003F00
:10122000000000000070880808887000001C22215F
:1012300021221C0000E010080810E000000031220C
:1012400022110F00000000C0C000000000000030AC
:1012500030000000000000800000000000008060FE
:10126000000000000000804020100800000102047F
:101270000810200040404040404040000404040466
:101280000404040000081020408000000020100822
:1012900004020100007048080808F0000000003057
:1012A00036010000C030C828E810E00007182724E5
:1012B00023140B000000C038E0000000203C230293
:1012C0000227382008F8888888700000203F2020F6
:1012D00020110E00C0300808080838000718202028
:1012E0002010080008F808080810E000203F20201F
:1012F00020100F0008F88888E8081000203F202000
:101300002320180008F88888E8081000203F2000F3
:1013100003000000C030080808380000071820202B
:10132000221E020008F808000008F808203F2101EA
:1013300001213F20000808F8080800000020203F95
:101340002020000000000808F8080800C080808005
:101350007F00000008F888C028180800203F2001FE
:101360002638200008F8080000000000203F202058
:101370002020300008F8F800F8F80800203F003F6F
:10138000003F200008F830C00008F808203F200087
:1013900007183F00E01008080810E0000F10202098
:1013A00020100F0008F808080808F000203F21016D
:1013B00001010000E01008080810E0000F182424C4
:1013C00038504F0008F8888888887000203F200037
:1013D000030C3020007088080808380000382021ED
:1013E00021221C00180808F8080818000000203FF7
:1013F0002000000008F808000008F808001F20205E
:1014000020201F000878880000C83808000007382E
:101410000E010000F80800F80008F800033C07007F
:10142000073C0300081868808068180820302C03E7
:10143000032C30200838C800C83808000000203FBE
:101440002000000010080808C838080020382621AD
:1014500020201800000000FE020202000000007FB1
:1014600040404000000C30C00000000000000001BF
:101470000638C00000020202FE00000000404040AA
:101480007F000000000004020202040000000000CF
:10149000000000000000000000000000808080804C
:1014A0008080808000020204000000000000000034
:1014B00000000000000080808080000000192422CD
:1014C00022223F2008F8008080000000003F112009
:1014D00020110E000000008080800000000E11200E
:1014E00020201100000000808088F800000E1120EC
:1014F00020103F200000808080800000001F2222FA
:1015000022221300008080F0888888180020203F65
:10151000202000000000808080808000006B949478
:101520009493600008F8008080800000203F210034
:1015300000203F2000809898000000000020203FFD
:1015400020200000000000809898000000C08080EB
:10155000807F000008F8000080808000203F240287
:101560002D302000000808F8000000000020203F77
:10157000202000008080808080808000203F20002C
:101580003F20003F8080008080800000203F2100BD
:1015900000203F200000808080800000001F20206D
:1015A00020201F00808000808000000080FFA1209C
:1015B00020110E000000008080808000000E1120AD
:1015C00020A0FF80808080008080800020203F213C
:1015D00020000100000080808080800000332424EF
:1015E00024241900008080E0808000000000001F9B
:1015F000202000008080000000808000001F20204C
:1016000020103F20808080000080808000010E300C
:101610000806010080800080008080800F300C036D
:101620000C300F0000808000808080000020312E70
:101630000E312000808080000080808080818E704C
:101640001806010000808080808080000021302CFE
:101650002221300000000000807C02020000000017
:10166000003F404000000000FF00000000000000BC
:10167000FF0000000002027C800000000040403FAC
:101680000000000000060101020204040000000046
:10169000000000000000F010101010FF10101010DB
:1016A000F000000000000F04040404FF040404041C
:1016B0000F000000201008FC032020107F88888481
:1016C00082E0000004040405040404FF040404048C
:1016D00004040400000000000000C03FC00000003F
:1016E00000000000804020100C03000000030C10DC
:1016F000204080000000FE2222222222E22222221A
:101700003E0000000000FF4121110101030D1121E5
:1017100041F100000000101010FF10101010FF1019
:101720001010000000048444241704040404172447
:1017300044840400202424A4FE23222000F8080866
:1017400008F8000010080601FF010600003F101015
:10175000103F000000FE0212929292F292929212B8
:1017600002FE000000FF40484848484F484A4C48A5
:1017700040FF000020242424FE23222020FF2022DA
:101780002CA02000000848847F02414020130C1444
:101790002241F80080642C342424EC322222322EA0
:1017A00023A260000041219189874D552525554D83
:1017B00081808000008060F8074020180F08C8086A
:1017C00008281800010000FF00100C0340807F0073
:1017D000010618000000FEAAAAA9F900A09E8282B4
:1017E0009EA0200040300F0222423E8080432C10F9
:1017F0002C43800000FE22FE00FE22FE00FC162587
:1018000084FC0000601F22BF403F82FF00131212C1
:1018100052827E001010FF1010F00000FE222222E3
:10182000FE00000080601F00003F40404F444444E1
:101830004F407800201888888888898E8888888812
:1018400088281800000000000040807F0000000091
:1018500000000000807000FF08104060504C4340C2
:101860005060C000000000FF000000FE4242424203
:1018700042FE000000FC848484FC0000FC444444DC
:10188000C2434200003F1010103F80601F00000064
:10189000FF00000020202020202020FF20202020EA
:1018A0002020200080804020100C0300030C10201A
:1018B00040808000102C2424A4A465A62424242481
:1018C000A4340C0040494929241452897F040A1188
:1018D000102020001010F01F10F000808282E29291
:1018E0008A868000402215081661000040807F0033
:1018F0000000000014190000000000201C0000007F
:1019000004010000301900001C00002064040000E5
:1019100020010000000000000400000001000000A1
:1019200000127A000000000000000000000000002B
:04000005000000C136
:00000001FF
