:1000000000200020950300005B0100005D0100005E
:1000100000000000000000000000000000000000E0
:100020000000000000000000000000005F01000070
:100030000000000000000000610100002903000032
:100040006301000065010000670100006901000014
:100050006B0100006D0100006F01000071010000E4
:1000600073010000750100007701000079010000B4
:100070007B0100007D0100007F0100008101000084
:100080008301000085010000870100008901000054
:100090008B0100008D0100008F0100009101000024
:1000A00093010000950100009701000099010000F4
:1000B0009B0100009D0100009F010000A1010000C4
:1000C00010B5064C2378002B07D1054B002B02D02E
:1000D000044800E000BF0123237010BD0800002089
:1000E000000000002C040000044B10B5002B03D0CE
:1000F0000349044800E000BF10BDC04600000000F6
:100100000C0000202C04000070B584B001214020B8
:1001100000F0EAF8202301930C4B03938023029311
:1001200080239B0100936946094800F03BF80020BA
:1001300000F0BEF88026B601054D064C31002800BF
:1001400000F0B4F8200000F01BF9F7E7FFFF000013
:100150000008004840420F0070477047FEE77047B4
:1001600070477047704770477047704770477047D7
:1001700070477047704770477047704770477047C7
:1001800070477047704770477047704770477047B7
:1001900070477047704770477047704770477047A7
:1001A000704700004B68002B04D1C3690A681343F1
:1001B000C3617047C3690A689343C3614B68DB0638
:1001C00053D503680A68134303604B68112B2BD087
:1001D0004B68122B31D0436A0A6893434362836AA7
:1001E0000A6893438362C36A0A689343C362036BDA
:1001F0000A689343036381238A681340812B25D0C7
:1002000082238A681340822B25D084238A68134076
:10021000842B25D088238A681340882BC9D1036B8F
:100220000A6813430363C4E703690A68134303615D
:10023000C3680A689343C360CAE7C3680A68134384
:10024000C36003690A6893430361C4E7436A0A68A9
:1002500013434362D4E7836A0A6813438362D4E793
:10026000C36A0A681343C362D4E703680A68934306
:1002700003604B68202B0CD043680A68134343602B
:10028000094BCA689A4209D083680A68934383601D
:100290008FE743680A6893434360F1E783680A681D
:1002A0001343836085E7C046FFFF00000166704787
:1002B00010B50400022302009A4303D08A210648A5
:1002C000FFF74AFF054A9068054B18402043054B4D
:1002D0001843906010BDC046440400000000014077
:1002E000FDFF000000005A5A70B504000D000A4BD3
:1002F000184201D1002803D108490948FFF72CFF13
:10030000002D04D0074B186B04431C6370BD054AD5
:10031000136BA3431363F9E788FDFFFFA9020000F5
:100320004404000000000140034A1168034B1B789D
:100330005B1813607047C0462400002000000020B6
:100340000B4B0C4A1A6093235B021B880A495B051E
:100350005A0D0B8BDB0ADB0213430B83074B1B8805
:100360009B059A0D0B8C9B0A9B0213430B847047D1
:100370000400002000127A00000001400226010063
:1003800082B00190019B5A1E0192002BFAD102B05B
:10039000704700000D488546FFF7D2FF0C480D4915
:1003A0000D4A002302E0D458C4500433C4188C42D0
:1003B000F9D30A4A0A4C002301E013600432A24236
:1003C000FBD300F00FF8FFF79FFEFEE700200020B0
:1003D00000000020080000207C040000080000202D
:1003E0002800002070B500260C4D0D4C641BA41095
:1003F000A64209D1002600F019F80A4D0A4C641BE8
:10040000A410A64205D170BDB300EB589847013641
:10041000EEE7B300EB5898470136F2E774040000AA
:10042000740400007404000078040000F8B5C046AD
:10043000F8BC08BC9E467047F8B5C046F8BC08BC7E
:040440009E4670471D
:100444004C69627261726965732F43573332463067
:100454003330785F5374644C69622F7372632F6313
:10046400773332663033305F7263632E630000008B
:04047400E90000009B
:04047800C1000000BF
:08047C000100000000127A00EB
:040000030000039561
:00000001FF
