:020000040000FA
:1000000030020020D9000000C91100004B0C000094
:1000100000000000000000000000000000000000E0
:10002000000000000000000000000000A315000018
:100030000000000000000000F9110000A5150000FC
:1000400035180000191000009D1500001F0A00005F
:10005000A1130000590A00005B0A00005D0A0000BD
:100060005F0A0000170A0000190A00001B0A0000BE
:10007000050A00000D0A00003118000033180000C6
:10008000050C0000210C0000230C0000250C0000D2
:10009000110A0000130A0000150A00007D0C000080
:1000A0007F0C00009F150000A115000065160000E0
:1000B00067160000691600000F0A00001D0A000004
:1000C0000448854600F082FC0048004731220000C9
:1000D000C046C0463002002004488047044800471C
:1000E000FEE7FEE7FEE7FEE7FEE7FEE72916000073
:1000F000C100000030B50B4601460020202201243B
:1001000009E00D46D5409D4205D31D469540491B4B
:100110002546954040191546521E002DF1DC30BD94
:10012000F8B500242546002904DA0E4601240021F2
:100130004042B141002B04DA1E4600235242012501
:10014000B34100F0A3FA8C4617461E46AC4203D0DA
:10015000002540428D41AC46002C02D0002657427B
:100160009E4161463A46334601B0F0BD03460B431B
:100170009B0703D009E008C9121F08C0042AFAD25D
:1001800003E00B780370401C491C521EF9D27047E3
:10019000F8B502464A40D40F42004B0052085B08B3
:1001A0009A4202D20246084611464A0023D0C30DA5
:1001B0004A00DDB2120EAD1A202D35DA49020126B1
:1001C000490AF6058A19002C00D0524220214F1B03
:1001D0001146B9402A411018C20D9A4221D0002C74
:1001E00017D0012D08DCDA05801AD20F8019D2074A
:1001F000DBB200F0B7FAF8BDDA05801A012340003F
:100200001B06C01880185A428018CA0F10434900B4
:1002100007E04908C2071143DA05801A801940082F
:10022000801800F097FAF8BD61000122511A001BF6
:10023000F7E70122D2075140AAE70122D207504036
:10024000A6E7024670B54A40D30FDB0740002DD029
:100250004A002AD0010E140E000212020919400AA7
:10026000520A8418E50104465443000A120A2E0477
:100270005043A4194219200CC543AA18120C012599
:10028000AD03521C521912047F39240400D0521CB1
:10029000104301D44000491EC2B20C06C009201808
:1002A000401C4008802A02D003E0002070BD4008B6
:1002B0004000002900DA0020184370BD70B50246E6
:1002C0004A40D50F40004A00ED0740085208002878
:1002D00014D0002A12D0C40DD30D41020120C00554
:1002E0005202490A520AE41A091812187D3491423E
:1002F00001D3641C00E04900002C01DA002070BD2D
:100300000023914201D3891A034340084900002881
:10031000F7D100290AD0914202D10121C90705E095
:10032000914201D2012101E00121C943E005C01839
:10033000401900F00FFA70BDF0B507460846584066
:1003400087B0C00F049048000E4659004008490885
:10035000BC1A884105D2384631461E4617460B4620
:1003600002465800400810434DD0300D0390400520
:100370005900400D490D0590401A0290402873DA4B
:1003800018030121000B090508430190049800920D
:10039000002806D01146019A494200209041009160
:1003A0000190029840210A1A0199009800F09EF9E4
:1003B00005460C466B4607CB00F0B9F9C0197141F0
:1003C000039A0E0D0023D71756401A467A4016435B
:1003D00044D0049A002A2DD0029A012A039A15DCEF
:1003E0001205C01A914101263605001C7141D20F39
:1003F000059ED2070093019202962A46234600F0FA
:10040000F7F907B0F0BD38463146FAE71605234A3A
:100410000F46B218C01AB74101210905001C4F410F
:1004200000187F41114618187941E20F10436D19E9
:10043000644113E0E2076D0815436408C2071443E2
:10044000039A01261205C01A91413605001C71411C
:10045000CE07400830434908C01851412A46234678
:1004600000F0B9F9CDE7FFE7049801224000C11779
:10047000121A00238B4104983146C417381AA1413F
:10048000EEE730B40124E407634030BC54E730B4F5
:100490000124E407614030BC4EE700000000E0FFAB
:1004A000F0B50C465C4085B0E40FE40703944C00C3
:1004B00000266408590094464908024602962243E1
:1004C00021D062460A431ED06200570D4A000E0337
:1004D0002303550D012402462C492405781B1B0BD0
:1004E000360B401823432643614600901C46501AA1
:1004F000B44103D30098401C009002E09218009889
:100500005B41002803DA0020014605B0F0BD002061
:10051000012109050746864611E064461D46141B65
:10052000B54106D36546521BB341744607430C439D
:10053000A646CD0740084908284392185B41054666
:100540000D43EAD11046184313D060461946504077
:100550007140084306D06046101AB34106D201220A
:10056000002306E000220123DB0702E00122D24340
:100570005310009874460105381C6141029C039D8C
:100580000019694100F027F9BFE70000FD030000F2
:1005900010B500229623114600F0E4F810BD0000CB
:1005A0000EB5C217C10F5040CA0740180021054BB5
:1005B0000293019200910A460B4600F019F903B02C
:1005C00000BD000033040000410040020122400A47
:1005D000D205090E80187F2901DA0020704796297C
:1005E00003DC9622511AC8407047963988407047FC
:1005F0004A0009030123090B1B051943094B10B5D8
:10060000520D9A4201DA002010BD064B34339A4253
:1006100003DC9A1A00F07AF810BD0349511888409B
:1006200010BD0000FF030000CDFBFFFFC20FD2078B
:10063000400040080BD0C10D0723DB01C918400260
:100640000905400A1143C2084007114370470020C2
:1006500001467047CB0FDB07490010B54908024639
:100660000A4307D00A0D07240903E401090B121BF2
:10067000002A01DC002010BDC900440F0C43C1005A
:10068000E018D205801800F065F810BDF0B51FB471
:100690000646002082B005464024019100901BE0F0
:1006A000019922460F46304600F030F8049A059B27
:1006B000801A994110D310461946224600F016F8C8
:1006C000361A8F410197224601200021009F00F039
:1006D0000DF838184D4100902046641E0028DFDCDC
:1006E000019B00982946324607B0F0BD10B5202A7C
:1006F00004DB0146203A9140002010BD91402023A8
:100700009C1A0346E3401943904010BD10B5202ABF
:1007100004DB0846203AD040002110BD0B46D340F0
:10072000D0402024A21A91400843194610BD10B5AC
:10073000202A06DBCB170846203A1041C1170B438D
:1007400006E00B461341D0402024A21A91400843F2
:10075000194610BD002904DA401C490001D14008A7
:100760004000704770B40024050C05D1102400042B
:1007700002D1002921D01124050E01D10002083434
:10078000050F01D10001241D850F01D18000A41C9B
:10079000002801DB4000641C002908D020252E1B06
:1007A0000D46F540A14000D0012129430843010630
:1007B0001B1B000ADB1D02D5002070BC7047DB0547
:1007C000181880180029F8DA401C4900F5D170BCCF
:1007D00040084000704710B5002B08DA0024401C88
:1007E000614192185B411A4301D14008400010BD9D
:1007F000F0B51FB482B005460C0003D0084601F0E6
:100800002BF802E001F028F8203002460090214643
:100810002846FFF76BFF049B059A04460F461843D2
:100820001143084314D0184610431BD000984021B0
:100830000A1A18460599FFF769FF05460E46009A01
:1008400005990498FFF752FF084305D0012004E002
:100850002046394607B0F0BD0020C11705430E43BE
:100860002C43374300990E986305401A7905E40A32
:1008700000220C43FD0A0A3002D500200146E9E7B8
:100880000105101969410C9C0D9D00196941FFF784
:10089000A2FFDFE7F0B51FB488B00B9909980024D8
:1008A00048400999C00F490049080991C0070B99B0
:1008B0000090490049080B9109990898A6460843F9
:1008C0001CD00B990A98084318D0099801244000BD
:1008D000420D4800410D099824050003000B2043F8
:1008E00009900B980003000B20430B9050181C49F3
:1008F0004018002201901446104605E000200146F1
:100900000DB0F0BD032801DA034600E003239C4646
:10091000C11A0AAE0AE05F0008ADED5B4F00F75B5D
:100920007D430027AA187C41491C5B1E6145F2DD0E
:10093000410004AB5A522104120C0A43240C401CFF
:100940000828DFDB01980290009970460191009021
:10095000059B049A07990698FFF74AFFD0E7000025
:100960000DFCFFFF4A0009030123090B1B05194376
:100970000A4B10B5520D9A4202DA0020014610BD12
:10098000064B34339A4203DC9A1AFFF7BFFE10BDC0
:10099000034BD218FFF7AAFE10BD0000FF030000B2
:1009A000CDFBFFFF10B5002904DB0124E407404222
:1009B0008C412146002B04DB1C460123DB075242FD
:1009C000A341994200D1904210BD0000064C012580
:1009D000064E05E0E36807CC2B430C3C98471034E7
:1009E000B442F7D3FFF770FB28240000482400002E
:1009F0000348806BC009C00101498863704700004B
:100A00000024014010B5FFF7F3FF10BD7047704799
:100A1000704770477047704770477047704770471E
:100A20000A4A126B02239A43921C084B1A6300284D
:100A300004D00822024310231A4300E0002211468A
:100A4000034A0A43034B5A6070470000000001400C
:100A500000005A5A002002407047704770477047A4
:100A60001FB5264840690F21090288430321090266
:100A7000401822494861084640690F21090388430C
:100A80000321090340181D4948610320800200909A
:100A9000212001901A4803906946184800F032F866
:100AA0000920C0064069F021884310300921C90699
:100AB0004861084640690F2109028843FF30013030
:100AC0000921C906486101204002009020200190C0
:100AD000802002900A48039069460920C00600F071
:100AE00011F80120800200901120019080200290D6
:100AF00069460920C00600F005F81FBD0004004843
:100B0000FFFF00004A68002A04D1C2690B681A433B
:100B1000C26174E0C2690B689A43C26110234A68DB
:100B20001A40102A4ED102680B681A4302604A68C4
:100B3000112A07D102690B681A430261C2680B6867
:100B40009A43C2604A68122A07D1C2680B681A43E6
:100B5000C26002690B689A430261426A0B689A4359
:100B60004262826A0B689A438262C26A0B689A4345
:100B7000C262026B0B689A43026381238A681A403F
:100B8000812A03D1426A0B681A43426282238A682F
:100B90001A40822A03D1826A0B681A438262842334
:100BA0008A681A40842A03D1C26A0B681A43C26257
:100BB00088238A681A40882A21D1026B0B681A435D
:100BC00002631CE002680B689A4302604A68202AAC
:100BD00004D142680B689A43426003E042680B68A4
:100BE0001A434260064BCA689A4204D182680B6875
:100BF0001A43826003E082680B689A438260704700
:100C0000FFFF000010B50121044800F012F8002891
:100C100003D00121014800F006F810BD0004004097
:100C2000704770477047CA4303231B02C318DA6139
:100C3000704702460320000210188069084000280F
:100C400001D0012070470020FCE700BFFEE7000054
:100C5000084880680121C90288430649886008461F
:100C60008068C914884340180249886000200249FE
:100C70008860704740000140005400407047704752
:100C8000002905D0826804239A43121D826003E084
:100C9000826804239A4382607047002905D0026865
:100CA00052085200521C026003E0026852085200CF
:100CB00002607047FFB581B0064617461C46002506
:100CC0000121304600F0F2F874E000BF304600F039
:100CD0001EF90028FAD0304600F01FF90090009865
:100CE0004107490F002959D1C010030000F0CBFD86
:100CF0000C56071C1156165648264D2D3C56002101
:100D0000304600F0D3F80022D021304600F028F918
:100D100049E03046029900F02CF944E0B068202107
:100D200088432030B0603EE00021304600F0BEF83D
:100D30000122D021304600F013F934E0012C03D910
:100D400001213046FFF79CFF2DE0304600F004F90A
:100D500029466A1CD5B27854601EA84203D10021EE
:100D60003046FFF78DFF1EE0304600F0F5F82946CB
:100D70006A1CD5B278540121304600F0BBF812E06D
:100D80000121304600F092F80DE00121304600F0DC
:100D9000B1F80121304600F089F804E00121304625
:100DA00000F084F800BF00BF304600F060F8A542B4
:100DB00000D100E089E700BF05B0F0BDFFB581B00C
:100DC00015461E4600270121019800F06FF84AE001
:100DD00000BF019800F09BF80028FAD0019800F0BD
:100DE0009CF804462046282C1BD006DC082809D095
:100DF000182811D0202827D11BE030281FD03828F0
:100E000022D117E00021019800F050F80022D021F3
:100E1000019800F0A5F818E00299019800F0A9F8EF
:100E200013E038467A1CD7B2295C019800F0A1F88B
:100E30000BE000BF0121019800F038F805E0012126
:100E4000019800F057F800E000BF00BFB74207D993
:100E50000121019800F04EF8019800F008F803E035
:100E6000019800F004F8B3E700BF05B0F0BD816859
:100E70000822914381607047002905D08268402391
:100E80009A434032826003E0826840239A43826042
:100E90007047002905D0826852085200521C8260B7
:100EA00003E08268520852008260704700291CD01B
:100EB0004269F82A09D0826820239A43203282604E
:100EC000826808239A43826004E0826820239A4360
:100ED0002032826000BF826808231A40002AFAD0BC
:100EE000826820239A43826003E0826820239A4329
:100EF00082607047002905D0826810239A4310321F
:100F0000826003E0826810239A4382607047014642
:100F1000886808221040C008704701464869C0B27E
:100F2000704730B505460C466178284600F023F836
:100F300021782846FFF7B1FEA1792846FFF7A9FFDF
:100F4000E1792846FFF79CFE6078092803DC01213F
:100F50002846FFF79EFF30BD0146C868C0B2704703
:100F6000002A02D00123194301E0FE231940C16089
:100F70007047C16070474160704700001CB5012197
:100F8000684601700E2141700121C17100218171FB
:100F9000FFF75EFE69460448FFF7C3FF01210248E0
:100FA000FFF76AFF1CBD00000054004070B5054605
:100FB000154801787D20C000FFF79CF806463146B1
:100FC0002846FFF797F80446601E1049884201D969
:100FD00001200CE0601E0E4948610321081F00F04B
:100FE00071FC00200A498861072008610020002860
:100FF00000D070BD0021481E00F064FC00200549AF
:10100000086000BFF5E7000024000020FFFFFF009C
:1010100000E000E02000002070471CB504460622D6
:1010200069463B2000F08CF868460078010268466B
:101030004078014308B22080684680780102684603
:10104000C078014308B260806846007900026946B2
:101050004979084300B2A0801CBD1CB50446062295
:101060006946432000F06CF8684600780102684643
:101070004078014308B220806846807801026846C3
:10108000C078014308B26080684600790002694672
:101090004979084300B2A0801CBD000008B50021BA
:1010A000009101226946752000F04AF868460078F0
:1010B000682804D0054800F0BFFB002008BD684642
:1010C000017803A000F0B8FB0120F7E7DC23000063
:1010D0003C3C2D4D50552D494E464F2D3E3E204D0A
:1010E000505536303530204944203D2025640D0AC6
:1010F0000A00000070B50024002500BF07E00025AD
:1011000000E06D1C7D20C0008542FADB641C7D2060
:10111000C0008442F3DB00216B2000F049F8072176
:10112000192000F045F806211A2000F041F80121AD
:101130001C2000F03DF818211B2000F039F870BD8C
:1011400070B504460D46164633462A4621460248E7
:10115000FFF7B0FD70BD000000540040F0B585B051
:101160000446022204A94120FFF7EAFF6946087CF1
:101170000002497C084307B23846FFF711FA0546DA
:101180000022084BFFF78CF9074A084B01910090A9
:10119000FFF7D2F803910290FFF75CFA206005B0E8
:1011A000F0BD000000407540A4703D0AD7434240A6
:1011B00073B5044601AD08232A4621460148FFF7CE
:1011C000FDFD7CBD005400407047000010B572B6B4
:1011D00007480921C9068863052000F063FB04481D
:1011E00004498863062000F05DFB62B610BD000074
:1011F0000000FFFF0004004870470000002905D0F0
:10120000054A126B0243044B1A6304E0024A126B54
:101210008243014B1A63704700000140002905D04A
:10122000054A926B0243044B9A6304E0024A926BB4
:101230008243014B9A6370470000014010B50023C0
:1012400002221949184600F045F8002000F032F853
:10125000002000F0A7F806221349002000F0B2F8A1
:101260001248006B02210843104908630120FFF770
:10127000D7FB022000F000F90D4800F089F90B4877
:10128000006B20210843094908630846806BC91494
:1012900008430649886301211020FFF7AFFF0121B1
:1012A0000802FFF7BBFF10BD00127A0000000140EA
:1012B000006CDC0204490968044A1140044A891898
:1012C0000143014A11607047000001401FFF000008
:1012D00000005A5AF8B505460C4616461F4600202F
:1012E00000902948006B0121490208432649086300
:1012F000002D06D12548C069032108432349C86150
:1013000016E02248C069400840002049C8610846EC
:101310000068012108431D4908600846006940082B
:10132000400008610846C068012108431749C860A9
:101330001748844201D1032003E016492046FEF7F6
:10134000D9FEC0B200902246002313480121FEF7C7
:10135000E7FE0102284620221043009A9200104323
:101360003043384301430848C16140680B49084392
:101370000549486000BF0448C0690121C90408400C
:101380008842F8D1F8BD0000000001400014004878
:101390000048E80100127A000050D6DC82015A5A57
:1013A0007047000004490968044A1140044A89183A
:1013B0000143014A1160704700000140E7FF00004F
:1013C00000005A5AF0B58BB007460D461646002469
:1013D00000200A900990254801460EC9C06807936D
:1013E0000692059108901422204910316846FEF7B4
:1013F000BDFE00BF08E0A00005A90858A84201D919
:101400000A9403E0601CC4B2042CF4D300BF284645
:1014100070430990002409E0A00069460958099822
:10142000814201D9099403E0601CC4B2052CF3D3B6
:1014300000BF09984002072109030843310108430E
:101440000A99890008433843094988620846406878
:10145000084908430649486000BF0548806A0121E1
:10146000C90308408842F8D10BB0F0BDB823000092
:101470000000014004005A5A70B504460C48006848
:1014800080B20C494018C008C000204308490860D9
:1014900000F012F8054600F07BF8054800684007A8
:1014A000400FA04201D0012070BD0020FCE70000E9
:1014B0000000014000005A5AF8B50025002700241A
:1014C0000026002000902D48006847077F0F2B481A
:1014D00080694004040F2948806A8007800F0090CB
:1014E0002648806AC005C60E3B0000F0CCF9050412
:1014F0000C130E103400A000214A11582148FEF7A9
:10150000F9FD05462FE0204D2DE0204D2BE0012573
:10151000ED0328E00098002804D0012803D0032818
:101520000ED104E000BF18483546454311E0A00045
:10153000134A11581348FEF7DDFD7043054608E0D5
:10154000A0000F4A11580F48FEF7D4FD704305461E
:1015500000BF00BF07E0A000094A11580948FEF784
:10156000C9FD054600BF00BF044800680006410FE2
:101570002846C84005462846F8BD00000000014046
:1015800078230000006CDC020024F40020800000BE
:10159000014908607047000028000020704770472C
:1015A0007047704710B5002407E0A000154908589F
:1015B000401CA100134A5050641C022CF5DB11485A
:1015C00000687D21C900884202D300200D490860CF
:1015D0000C484068FF21F531884212D300200949A8
:1015E00048600948006800280BD10848FFF715FD3E
:1015F0000748FFF732FD0748FFF7B0FD0120024919
:10160000086010BD1000002018000020000000201D
:10161000060000200C0000200148024908607047C5
:1016200000127A002800002000B5FFF7F5FF932193
:10163000490209884805400D09498969C90AC90252
:101640000143074A91619321490249888805800D29
:101650001146096A890A89020143116200BD00002E
:1016600000000140704770477047000000B587B028
:101670004B20C0010190002168460181418107484B
:101680000390684601824182818201830321C182E5
:1016900001A9034800F010F807B000BD006CDC029F
:1016A000004800400246D0690840002801D00120CF
:1016B00070470020FCE70000F0B589B005460C46F5
:1016C0000026002008900027A088A1890843E1890E
:1016D0000843218A0843618A08432968514A114016
:1016E00008432860E088A18A08436968C322920001
:1016F000914308436860A08800282FD12168080121
:10170000FEF746FF0790A068FEF742FF0690079994
:10171000FEF7D4FD07463846FEF756FF86B2304640
:10172000FEF736FF39460190FEF787FD8321C90594
:101730000290FEF786FD0390FEF778FF00223A4BF9
:1017400005910490FEF7F8FD07910690FEF750FF13
:1017500080B20890EE600898286160E0A0880121BE
:10176000490288421BD12168C800FEF711FF029090
:10177000A068FEF70DFF01900299FEF79FFD039010
:10178000FEF754FF0022284B05910490FEF7D4FD8C
:1017900007910690FEF72CFF86B2EE603FE0A0882E
:1017A0000121890288421BD121688800FEF7F0FEE2
:1017B0000290A068FEF7ECFE01900299FEF77EFD14
:1017C0000390FEF733FF0022174B05910490FEF7BC
:1017D000B3FD07910690FEF70BFF86B2EE601EE0A8
:1017E0002068FEF7D5FE0290A068FEF7D1FE8721A3
:1017F000C9050090FEF725FD01900299FEF75EFDF8
:101800000390FEF713FF0022074B05910490FEF7AB
:1018100093FD07910690FEF7EBFE86B2EE6009B0ED
:10182000F0BD0000C0F8FFFF0000E03F816270479C
:1018300070477047704700000FB410B503A9044B00
:10184000044A029800F044F910BC08BC04B01847E0
:101850000D2200002C0000202021020C01D01021BC
:101860001046020A01D010460839020901D010467C
:10187000091F820801D01046891E420801D0881E27
:101880007047081A704730B47446641E2578641C8B
:10189000AB4204D3635D5B00E31830BC18471D46C0
:1018A000F8E70000002809DB00BF00BFC206D20E27
:1018B00001219140024A116000BF00BF7047000043
:1018C00000E100E010B5002819DB1A4A03231B02CF
:1018D000D21883089B00D2588307DC0EFF23A34055
:1018E0009A438B071B0E8407E40EA3401A43114B47
:1018F000032424021B198408A4001A5118E00E4A7C
:1019000003071B0F083B9B089B00D2588307DC0E84
:10191000FF23A3409A438B071B0E8407E40EA340CA
:101920001A43054B0407240F083CA408A4001A51CD
:1019300010BD000000E100E01CED00E002E008C87E
:10194000121F08C1002AFAD170477047002001E039
:1019500001C1121F002AFBD170470000F0B51FB46F
:1019600086B00998089A030D0021024314D051480B
:10197000514A1818504305141198012810981AD08C
:10198000281A401C00264D4F4D49009601910490A5
:10199000002812DA444211E01198012449A30128D9
:1019A00001D11098C1430698119A84600360C26007
:1019B00041600BB0F0BD4042E4E704462105002041
:1019C0003F4A001C51410391029012E0E00707D00A
:1019D00032463B4601990098FEF75CFF019100906A
:1019E00032463B4610461946FEF754FF06460F4660
:1019F0006410002CEAD10498039B0028029A0999EC
:101A0000089806DAFEF746FF019B009AFEF742FFB0
:101A100005E0FEF745FD019B009AFEF741FD0446F7
:101A20000E460022284BFEF7BDFF03D80020C0431E
:101A3000014607E00022254B20463146FEF77CFC9C
:101A4000FEF790FF102409E0002C0ADB0A22002395
:101A5000FEF71CFE079B30321A55641E02460A43ED
:101A6000F2D11122641C079B121B1C19119B012B24
:101A700003D0012308430ED10AE0084304D011200B
:101A800010900020119077E71098151A6D1E0BE04A
:101A90001098824202DD00236D1C03E0824201DACD
:101AA00000236D1E002BEED0069811998260C16054
:101AB00030C07EE701FCFFFF104D00000000144025
:101AC0000000F03F300000000000F0430000E03F65
:101AD000FFB597B0064600251BE2252876D10024E5
:101AE0002746F749049400E00443761C327801202D
:101AF000203A90400842F7D130782A280ED00222AE
:101B0000307801463039092916D804990A235943F7
:101B1000303940181443761C0490F1E7189802C835
:101B200004911890002904DA01204003044348423C
:101B3000049002200443761C30782E2814D104200F
:101B400004437078761C2A2809D11898761C80C81E
:101B5000189009E00A214F43303FC719761C3078AE
:101B6000014630390929F5D930786C2810D006DCC7
:101B70004C281AD068280ED06A2817D104E074289F
:101B800013D07A2812D110E00120400504430CE064
:101B90000121090501E0032109050C437178814207
:101BA00003D1012000052418761C761C30786628A5
:101BB0000BD013DC58287DD009DC00287BD04528C9
:101BC000F6D04628F4D047281AD1A9E118E06328B6
:101BD00035D0642870D0652812D1A1E170286CD06E
:101BE00008DC6728F1D069287DD06E280DD06F28D9
:101BF00006D1BCE073282ED0752873D0782859D030
:101C00001A9A199990476D1C82E16002400F0228D0
:101C100009D003280DD00428189801680DD00D6054
:101C2000001D189074E11898EA1701680D604A6069
:101C3000F6E7189801680D80F2E70D70F0E7189844
:101C40006A4601781172001D18900020507202A897
:101C50000090012005E0189802C81890002000911B
:101C6000C04361070ED5002101E00199491C019193
:101C7000B94213DA8142F8DB019A0099895C0029A4
:101C8000F3D10BE0002101E00199491C019181424F
:101C9000FADB019A0099895C0029F5D10199049831
:101CA0001A9B471A21463846199A00F099FA4019AA
:101CB000019903E051E030E115E050E0451807E0FC
:101CC000009800990078491C00911A9A1999904738
:101CD0000198401E0190401CF2D1214638461A9BC3
:101CE000199A12E137E00A20002100900191600268
:101CF000410F022907D0189A01CA1892C2179446B8
:101D0000032908D00AE01898C01DC108C90005C9F8
:101D10001891944607E000B2C2179446042902D1F4
:101D200040B2C1178C4600226146944506DA0A4645
:101D30000021404291418C462D2102E0210504D52D
:101D40002B216A461173012103E0E10701D0202114
:101D5000F7E7029156E00A200AE0102008E0102080
:101D600000900021042004430191082703E008208B
:101D70000021019100906002410F022907D0189ABA
:101D800001CA189200229446032908D008E0189846
:101D9000C01DC108C90005C91891944603E080B26E
:101DA000042900D1C0B20021029121072AD531783F
:101DB0000D91702906D0009A1021019B4A401A43C8
:101DC00005D00EE040216A461173012108E061460A
:101DD000014306D030216A4611730D9951730221D7
:101DE0000291009A0821019B4A401A430AD1614698
:101DF000014301D1610705D530216A4611730121E4
:101E00007F1E02913178582904D02EA10E910DA980
:101E10000D910DE030A1F9E76146019B009AFEF7B4
:101E200035FC0E9B8C469B5C0D9A521E0D921370D6
:101E300061460143F0D10D9805A9081A20300190A0
:101E4000600703D501200004844300E001270198C6
:101E5000874201DD381A00E0002001990090411806
:101E6000029809180498401A0490E00306D4214609
:101E70001A9B199A049800F0B3F94519002706E057
:101E800003A81A9AC05D199990476D1C7F1C02988F
:101E90008742F5DBE0030CD521461A9B199A04987A
:101EA00000F09EF9451904E01A9A302019999047DC
:101EB0006D1C0099481E00900029F5DC1FE0000011
:101EC0000928010030313233343536373839616210
:101ED00063646566000000003031323334353637D4
:101EE0003839414243444546000000000D980D99A1
:101EF0000078491C0D911A9A199990476D1C019907
:101F0000481E01900029F1DC4DE100F059F9451916
:101F1000761C3078002800D0DFE528461BB0F0BDE5
:101F2000600700D406271898C01DC108C90048687A
:101F30000A680831C30FDB071891190001D09CA172
:101F400008E0210501D59BA104E0E10701D09AA199
:101F500000E09AA14300109130785B0865280CD00E
:101F600006DC452809D046281DD0472841D141E04C
:101F7000662818D067283CD13CE00021112F01DBF6
:101F8000112000E0781C0191009008A911A8FFF72A
:101F9000E5FC139905910021119A15927F1C129866
:101FA0000197009150E00120C007039001200190AB
:101FB00008A9009711A8FFF7D1FC139A149905926C
:101FC0000022119B009212981593059A0192002904
:101FD00001D0104602E0791C40180190381A01D552
:101FE000019804E04042401E0090781C0190C01B04
:101FF000029043E0012F00DA01270021112F01DDBB
:10200000112000E038460191009008A911A8FFF7BF
:10201000A5FC13990591119A00211298159200912F
:10202000019721070CD40599B94201DB019900E021
:102030000191012904DD159A491E515C302906D011
:10204000B84201DA011D05DA0121029115E001997A
:10205000491EEDE7002805DC00994118009101991F
:10206000091A03E0019A411C914200DD0191009997
:10207000401A401C02900120C0070390200706D49C
:1020800002990198814202DB0020C04302900020A7
:102090006946C87707AF012103980337C90788420B
:1020A00024D0022011902B201290039800280CDAE3
:1020B000404203902D20129007E00A210398FEF77A
:1020C00019F830317F1E039039701199481E119014
:1020D0000029F2DC03980028EFD1791E12980870CD
:1020E0003078202108404530BF1E387006A8C01B3C
:1020F000C01D039010980078002800D0012001999D
:1021000041180298C0170918039809180498401A32
:10211000401E0490E00306D421461A9B199A0498A5
:1021200000F05EF8451910980078002803D01A9A3C
:10213000199990476D1CE00324D521461A9B199AE2
:10214000049800F04DF845191CE00098002807DBC2
:1021500000990598884203DD1598405C199901E0C3
:10216000199930201A9A904700986D1C401C0090D5
:102170000298401E0290002804D11A9A2E20199924
:1021800090476D1C0199481E01900029DDDC05E097
:1021900038781A9A7F1C199990476D1C0399481E2C
:1021A00003900029F4DC21461A9B199A0498ACE6A6
:1021B0002D0000002B0000002000000000000000A7
:1021C000F8B5044600251E461746880404D405E0E9
:1021D00039462020B0476D1C641EF9D52846F8BD4D
:1021E000FFB50446002581B01E46C80301D530273F
:1021F00000E02027880404D505E038460399B0475D
:102200006D1C641EF9D5284605B0F0BD70B50446B6
:102210000D46E1B20548FFF709FB00BF0121034865
:10222000FFF740FA0028F9D0204670BD0048004072
:10223000FFF704F824480068FEF7B8FE2348006959
:102240000121084321490861FEF70AFCFFF70EFA55
:10225000FEF794FEFEF7BAFF1DA0FFF7EDFAFEF7BA
:1022600049FFFEF71BFF002803D122A0FFF7E4FA85
:1022700002E028A0FFF7E0FA24E02D4800680028DB
:1022800020D02C480423C35E0222825E0021415EDE
:1022900029A0FFF7D1FA2D480423C35E0222825EF3
:1022A0000021415E2AA0FFF7C7FA2E480068FEF71A
:1022B000BDF9044622460B462BA0FFF7BDFA0020CD
:1022C0001B490860D9E700002800002000E000E07A
:1022D0000D0A435733324630333020554152542093
:1022E0005072696E74662053756363657373210D54
:1022F0000A0000000D0AC3BBD3D0BCECB2E2B5BDEE
:102300004D505536303530B4ABB8D0C6F7A3A10D1B
:102310000A0000000D0ABCECB2E2B5BD4D505536C6
:10232000303530B4ABB8D0C6F7A3A10D0A00000019
:102330001800002000000020BCD3CBD9B6C8A3BA37
:102340002538642538642538640000000600002024
:1023500020202020CDD3C2DDD2C7253864253864A3
:10236000253864000C00002020202020CEC2B6C8F2
:1023700025382E32660D0A00060000000600000017
:102380000600000006000000060000000600000035
:102390000100000003000000020000000400000033
:1023A00006000000080000000A0000000C00000009
:1023B0000E00000010000000808D5B00001BB700C5
:1023C000002D310101366E0180A8120100366E0128
:1023D00000512502006CDC0201A24A043C3C2D4D58
:1023E00050552D4552524F522D3E3E204D505536A0
:1023F000303530206465637465637465642065728C
:10240000726F72210D0ABCECB2E2B2BBB5BD4D5089
:102410005536303530C4A3BFE9A3ACC7EBBCECB232
:10242000E9A3A10A000000004824000000000020E9
:10243000300000003C19000078240000300000202B
:10244000000200004C190000000000000000000025
:10245000000000000000000000000000000000007C
:102460000000000000000000040000000100000067
:0824700000127A0000000000D8
:04000005000000C136
:00000001FF
