:020000040000FA
:10000000C8040020BD010000D7010000D901000094
:1000100000000000000000000000000000000000E0
:10002000000000000000000000000000DB010000F4
:100030000000000000000000DD010000092D0000AC
:10004000E1010000E1010000E1010000E101000028
:10005000E1010000E1010000E1010000E101000018
:10006000E1010000E1010000E1010000E101000008
:10007000E1010000E1010000E1010000E1010000F8
:10008000E1010000E1010000E1010000E1010000E8
:10009000E5230000E1010000E1010000E1010000B2
:1000A000E1010000E1010000E1010000E1010000C8
:1000B000E1010000E1010000E1010000E1010000B8
:1000C00000F002F800F04EF80CA030C808382418F0
:1000D0002D18A246671EAB4654465D46AC4201D180
:1000E00000F040F87E460F3E0FCCB6460126334264
:1000F00000D0FB1AA246AB4633431847687800008D
:1001000088780000103A02D378C878C1FAD852072C
:1001100001D330C830C101D504680C6070470000BD
:100120000023002400250026103A01D378C1FBD813
:10013000520700D330C100D50B60704710B5662957
:1001400002D106F065F810BD002010BD1FB501F00A
:10015000E5FB04000020002105F08CFEE0601FBDDF
:1001600010B510BD02F090F81146FFF7EFFF04F054
:1001700073FC02F0A8F803B4FFF7F2FF03BC02F02F
:1001800029F9000070B505460C46164602E00FCC72
:100190000FC5103E102EFAD2082E02D303CC03C591
:1001A000083E042E07D301CC01C5361F03E0217899
:1001B0002970641C6D1C761EF9D270BD0C480D4A66
:1001C000002100A1814200D902440B4802600B4883
:1001D00080470B480047FEE7FEE7FEE7FEE7FEE745
:1001E000FEE7000007480849084A094B704700002D
:1001F000000000200000000008ED00E0312D0000AC
:10020000C1000000C8000020C8040020C80200206F
:10021000C80200204343514330B55C18010C130C55
:100220000D4692B25D4380B251432C1905465543A9
:100230000A0C09044D1962415843010C000440198D
:10024000514130BD70B500252C46AD1A9C4112DAE3
:1002500000252C462D1A8C4102DA00F022FE70BDDA
:10026000002440428C41214600F01BFE0024404205
:100270008C41214619E000252C462D1A8C410ADAC2
:10028000002452429C41234600F00BFE00244042D1
:100290008C41214670BD002452429C41404223467D
:1002A00000248C41214600F0FCFD002452429C4178
:1002B000234670BD0FB41CB5074B06AA7B446946A4
:1002C0000090059801F08BF80020694601F09AF83B
:1002D0001CBC08BC04B0184745110000F3B5044627
:1002E000002081B020622046E168884700287AD04B
:1002F000252802D06268A16871E0E16820460025E7
:10030000884706460020E0610746A0612A2E0AD0F1
:10031000304602F011FE002827D0B8000019303E08
:100320000090866119E00298BA00121902C8916122
:1003300002902046E1688847012F064617D1E06900
:1003400000281FDA202085431CE000980A218069DC
:10035000484300998019303888612046E168884711
:10036000064602F0E9FD0028EFD1012F0AD02E2E1B
:1003700008D12046E16888470646202005437F1CB7
:10038000022FC3DBA069002803DA4042A0610120EC
:100390000543E80701D010208543002E23D03046C6
:1003A0004138192803D80120C002054320362046D1
:1003B00025603146029A1546FFF7C0FE00280BD093
:1003C000012806D0ED1DE808C000083002908AE739
:1003D00009E02D1D029586E762683046A1689047C6
:1003E000206A401C7EE7206AFEBD034610B50B4321
:1003F0009B070FD1042A0DD308C810C9121FA342AE
:10040000F8D018BA21BA884201D9012010BD0020C5
:10041000C04310BD002A03D0D30703D0521C07E00D
:10042000002010BD03780C78401C491C1B1B07D111
:1004300003780C78401C491C1B1B01D1921EF1D182
:10044000184610BDD2B210B513029A1813049A18A8
:1004500000F00EF810BD01E004C0091F0429FBD212
:100460008B0701D50280801CC90700D0027070473D
:1004700000290BD0C30702D00270401C491E02297C
:1004800004D3830702D50280801C891EE3E7002283
:10049000EEE70022DFE7002203098B422CD3030A98
:1004A0008B4211D300239C464EE003460B433CD4C1
:1004B000002243088B4231D303098B421CD3030A29
:1004C0008B4201D394463FE0C3098B4201D3CB0159
:1004D000C01A524183098B4201D38B01C01A524189
:1004E00043098B4201D34B01C01A524103098B428D
:1004F00001D30B01C01A5241C3088B4201D3CB0078
:10050000C01A524183088B4201D38B00C01A52415A
:1005100043088B4201D34B00C01A5241411A00D20A
:1005200001465241104670475DE0CA0F00D0494273
:10053000031000D34042534000229C4603098B42E3
:100540002DD3030A8B4212D3FC22890112BA030A6B
:100550008B420CD3890192118B4208D389019211ED
:100560008B4204D389013AD0921100E08909C30972
:100570008B4201D3CB01C01A524183098B4201D374
:100580008B01C01A524143098B4201D34B01C01A5F
:10059000524103098B4201D30B01C01A5241C308D7
:1005A0008B4201D3CB00C01A524183088B4201D346
:1005B0008B00C01A5241D9D243088B4201D34B0061
:1005C000C01A5241411A00D20146634652415B10A3
:1005D000104601D34042002B00D549427047634684
:1005E0005B1000D3404201B50020C046C04602BDAA
:1005F00070477047704700000246C80FC00781432C
:100600004B0030B54B405B009B0D20D01923DB061F
:10061000C91801231B05994220DB0324A4070425E4
:100620001346AB400BD3002B04D1EB0613409B00C9
:10063000E34204D401246407002312195941FF2323
:100640001B0599420BD2C9000143500F09E0CB02B0
:1006500004D501430803024305D0054830BDFF21FE
:10066000C905084330BD084607210905884330BD48
:100670000000C07FF0B50C46871A9C410D46861AD3
:100680009D4103D2C01BA141D21963410D0D1F0D25
:10069000C94EEC1BAE435CD07F057F0D0026002FBA
:1006A00051D02D05AC46A943DD020123ED0A1B05FF
:1006B0001D4320231B1B24D41746E74038187141E3
:1006C0002F46E740CC199D402818314661410C0D5A
:1006D00027D161449A4013D50023401C5941520050
:1006E0000ED14008400001224B005205D34207D3EF
:1006F00005204007C14201D5B04900E0B04930466D
:10070000F0BD6B00002A00D001229A181F23203C64
:100710001B1B01D5002302E0E540281871410C0D98
:10072000D7D0012424050919C407CD07400849087A
:10073000E40F28436144002CD5D00024401C6141C3
:100740009A40D0D1CDE76A05520DD9D1C90FC9075A
:10075000D5E79C4D4E00002801D0012400E0002484
:1007600034195F00002A01D0012600E00026BE19DE
:10077000954FAC420CD8AE420AD8B44206D00125FF
:100780006D05EC42BCD010461946F0BD9942FCD034
:1007900000203946F0BDF0B51FB40C460F46811A53
:1007A0009F412546861A9D4106D20125ED076F40DF
:1007B000401ABC4152187B41210D1E0D8D1BAC46C9
:1007C0007D4D8D437ED075056D0D7CD00D05AE46FB
:1007D000AC431B031B0B794D52429D4120236646BF
:1007E0009B1B14D31746F74038180026009074411D
:1007F00060462F460741E41900989D40281866413D
:1008000016D4714671189A4025D5012320E093181B
:100810002A466A415200002B00D0521C1E23203E63
:100820009B1B002B61DD3541EE1728186641E8D58A
:10083000001876415B1C9A4000D3401C4B05F3180E
:100840001524E34010D3002B52D071467118D30FFA
:10085000C01802D3491C05B0F0BD0123DB079A4242
:10086000F9D140084000F6E701225205B21801D143
:10087000002853D00123CC0ADB029943891E002AA9
:1008800008D1020C03D0020C0004103902E0024629
:10089000002020390023550B05D112020823550BE7
:1008A00001D152010D23550C01D112011B1DD50C94
:1008B00001D192009B1C150D01D152005B1C20251B
:1008C000EE1A01E02CE022E00546F5401543984081
:1008D000CA1AE10769181305C918002ABBDA0320F0
:1008E00040070818C10FC9070FE071466118B2E749
:1008F000F10740080843711071444A000CD00123ED
:100900005B059A42A7D2C90FC9070020A3E7490592
:10091000490D26D1002001E00028F4D100219AE7FA
:10092000284D6600002801D0012100E00021711847
:100930005F00002A01D0012600E00026BE19224FE8
:10094000A94210D8AE420ED8B14208D001256D059B
:10095000E94206D01946A802414010467BE79C4276
:1009600001D0214677E70020394674E710B50C46E0
:100970005C4005D50124E4076340FFF70CFF10BD80
:10098000FFF778FE10BD30B40C465C4004D501245E
:10099000E407634030BC6DE630BCFCE670B5012472
:1009A000E40761400D465D4002D4FFF763FE70BD71
:1009B0006340FFF7F0FE70BDFF0700000000F0FF8E
:1009C0000000F07F0000E0FF0000F87FF0B58B4CE6
:1009D0000F09254689B0BD437BD01D092646AE438D
:1009E000FAD00E465E402740F60F3E43254071D0B8
:1009F00024012142FBD0FF24AD19A4042D1B039533
:100A000001252D05DB02DB0AC9022B43C90A294354
:100A10001E010901040F130F050121431701880B63
:100A2000820391432D098C46A90B1E438A039543EB
:100A3000B30B9A0396433F09BA0B9403A74302965C
:100A40002E467E430497B6464E19D7190C4601969A
:100A5000544305977E43371B7646BF1B3601B64687
:100A6000BE0B361900967646BC043719009C01D39C
:100A7000641C00946400002F01D001263443029EC0
:100A8000049F754366467E430496760034196E00D3
:100A900034190094029C019E1C196643751BAE46D6
:100AA000069465464519059C05956C435943754662
:100AB0000891691A0191049E01465143A41B0491B7
:100AC000611A009C0791E10605D0610901221143DA
:100AD00002E072E06EE06109089D00272C0A2D06F5
:100AE0006918049D7C412A0A2D066918019D6241FE
:100AF000AC0DAD026D185441079A910D9202551933
:100B00006141029A644658435443069B059A5A43EE
:100B1000121A131B9A0E9B015B187A41010B0005F8
:100B2000C3185141220A200644195A419A4200D260
:100B3000491C01204002814203D315230226F643BB
:100B400002E014230326F6432020C51AA9401746C5
:100B5000AF40DA400A4320460399D840091473187D
:100B600019055118039A3843D2075140AC4009D0B7
:100B70000122944006D30022401C5141002C01D197
:100B8000400840001E4A934212D301220398920665
:100B9000904207DB0520400709181A480143C0129C
:100BA000414004E0032040070818C10FC907002096
:100BB00009B0F0BD0020F107FAE705180C464C41DA
:100BC00011486D42A04115D394181A465A410E4857
:100BD000644290410ED301204A004005824209D36D
:100BE0005A00824206D35940C90F084AC90700205B
:100BF0001143DDE700200649DAE700000000FF07A7
:100C0000FE070000FFFFFF7F0000E0FF0000F07F15
:100C10000000F87F0121C9050123411842001B068D
:100C2000D3185B0E0AD0C1100722D20689184007DC
:100C30005242D14201D5520089187047090208D5A5
:100C40000146002A03D0C10FC90700207047104693
:100C50007047420202D0002002497047072109056F
:100C60000143F4E70000F87FF0B5FF252D04C60925
:100C7000C209FF2704462E400137CB093E434840B6
:100C80002A402B400746002A6BD0002B69D0AA428D
:100C900067D0AB4265D0002800DA32460125ED0569
:100CA00029432C4309022002090AD21A4B0C7F2443
:100CB000E31A434C000A7C44E35C7D2424041219AB
:100CC00014145B00A218884201D3521C00E04000BB
:100CD00049420C465C4324115C43DB016415E31874
:100CE000040A5C43C502200D0C4644436419250ADE
:100CF0005D432303EC0C0D46654300030019EB181C
:100D00004C42A34201D35B18401CD4052018002B91
:100D100007D05B00C91804D3401C002901D140084A
:100D200040003F2189048A4209D3002A08DC1106C9
:100D3000090F04D0032149074018C00FC007F0BDB8
:100D400001224100120689187F2252069142F6D2F2
:100D500005214907C84201D59010F0BDFF20C0050C
:100D6000F0BD002F00DA32461648AA4207D2AB4245
:100D700005D21902090E17D0F80FC007F0BDFF25E4
:100D800063002D06AB42F9D84900A942F6D8AB4220
:100D900001D1A942F2D0A94201D1002101E06100B4
:100DA0004908D0050843F0BD1102090EFBD0FF2011
:100DB0000243D005F0BD0A460146104654E7000044
:100DC000606A00000000C07F10B501469E2400024A
:100DD000CA15A307002A02D01843002A04DBA21A6E
:100DE000002A0CDDD04010BD1206120E01D14000C9
:100DF0004008A21A03D4D04040420028F3DDFF226D
:100E000048001206904201D9002010BDC817C04307
:100E1000584010BD0102C21504D00123DB0719435D
:100E2000002A0ADB9E239A1A02D40846D040704753
:100E3000FF2241001206914201D900207047C017DD
:100E4000C04370471F22030C02D10F2200041CD0A4
:100E5000030E01D10002083A030F01D10001121F55
:100E6000830F01D18000921E002801DB4000521E3A
:100E7000D2055118021251181922904004D3491C6E
:100E8000002801D14908490008467047C10FC90729
:100E900000D04042012292071143D3E70121890784
:100EA000D0E7FEB5054610460C46184373D0AE4653
:100EB0008C460020AD1A01469C4167D36646002748
:100EC00001243D46B61A9D4102D313463A462124D9
:100ED000654676462F04360C3E432D0CB61A9D41CE
:100EE00004D3150C1B042B431204103465467646BC
:100EF0002F06360A3E432D0AB61A9D4104D3150E1D
:100F00001B022B4312020834654676462F0736092A
:100F10003E432D09B61A9D4104D3150F1B012B43E7
:100F20001201241D65467646AF07B6083E43AD085C
:100F3000B61A9D4104D3950F9B002B439200A41C2D
:100F400065467646EF0776083E436D08B61A9D4122
:100F50001AD392185B41641C16E000187646654669
:100F60004941B71A9D410191009009D36046B11AD9
:100F700098418E468446009801990025401C69419D
:100F8000DD0752082A435B08641EE6D572466346B5
:100F900003B0F0BDFFE700200146C046C0462A4628
:100FA0002346F5E710B500F0BDFC006810BD10B594
:100FB000044600F0B7FC046010BD00007047FFB5A8
:100FC0000C461E468FB003CA089009914F007D0D54
:100FD00000D16D1E002108460020C0460321099A59
:100FE00089050840002A03DA82008018400808407A
:100FF000800D01280A9002DD0020C0430A90089865
:1010000007430DD0F048F1492818484307141898B1
:1010100000281DD07542291E1DDD0A9842421BE0A2
:101020001898012802D00020302104E00020F2436B
:1010300005E02154401CB042FBDB30460022189BE7
:10104000002121540F998B600A60486013B0F0BDF5
:10105000BD1B6D1CDFE70A9A002900DA69420BA864
:1010600000F0E6FC0BAB07CB03AB07C3089909986C
:1010700000F04AFD6B4607C30146D5480918002D0C
:1010800000910BDDD24903980A9A49424018002387
:1010900003A90390684600F0A7FF08E003990A9AA5
:1010A0000023081803A90390684600F047FF6B4629
:1010B00007C30004000C03D00020C043410800E037
:1010C0001046189A002A03D00022009215461EE00E
:1010D000751E05D400F02AFC303262556D1EF9D51C
:1010E00001220843079602D000227F1C04E02078EA
:1010F000302801D100227F1E002A069787D01EE0EB
:10110000112D07DA00F012FC303262556D1C0246D8
:101110000A43F5D1084303D00098002819D00EE007
:101120000021681E05E0235C625C63542254401E6B
:10113000491C8142F7DBA81B401E07950690079AC1
:1011400018990020A0540F98079B069A81600CC044
:101150007CE711260020189059E7D21DF0B50D4606
:101160000446D10893B0C90003C90C900D9101F059
:101170005BFE02460D98C00F01D02D2007E02068CD
:10118000810701D52B2002E04007C00F4001032A50
:101190000F9001D0072A05DB03462946204600F0C0
:1011A00003FC0EE12078800601D5E76900E0062700
:1011B0002846652D04D0662814D0672D69D12DE00E
:1011C0000020112F009001DB112300E07B1C0CAAF2
:1011D00003A910A8FFF7F3FE1199002610987D1CB3
:1011E0000E9142E001203B460CAAC0070B90012063
:1011F000009003A910A8FFF7E2FE119D1298109924
:10120000002600280E9501D1781C0D18781B02D4F9
:1012100046427D1C761EE81B00903AE0012F00DA62
:1012200001270020112F009001DD112300E03B4633
:101230000CAA03A910A8FFF7C2FE11993D46109809
:1012400000260E91217809070BD40E99A94200DAE5
:101250000D4603A9012D04DD4A19203AD27F302A18
:1012600006D0B84201DA011D04DA012100910FE035
:101270006D1EEFE7002802DC86192D1A03E0411CE1
:10128000A94200DD0D46801B401C00900120C007D4
:101290000B902078000705D40098A84202DB0020BC
:1012A000C043009069460020C8720B98012102AF2C
:1012B0000337C907884225D0022010902B201190B7
:1012C0000B9800280BDA40420B902D20119006E07D
:1012D0000B9800F0D9FE30317F1E0B9039701099B9
:1012E000481E00291090F3DC0B980028F0D11198CB
:1012F0007F1E38702088000501D5452000E065205C
:101300007F1E387001A8C01BC01D0B900F980028CD
:1013100000D0012041190098C01709180B9808182F
:10132000A169081A401EA0612078C00602D4204698
:10133000C046C0460F98002805D06268A168904753
:10134000206A401C20622078C00625D52046C04671
:10135000C04621E0002E07DB0E98B04204DD03A852
:101360006268805DA16802E06268A16830209047F1
:10137000206A761C401C20620098401E00280090C5
:101380000AD100F0CBFAC06862680168405CA168CD
:101390009047206A401C206228466D1E0028D9DC38
:1013A00007E062683878A1687F1C9047206A401C7B
:1013B00020620B99481E00290B90F2DC2046C046A3
:1013C000C046032042E6000001FCFFFF104D000074
:1013D000E1DFFFFF01694A1C02610878704700B530
:1013E0008FB0029100210591054901937944039141
:1013F000114604906846FEF771FF0FB000BD000073
:10140000E5FFFFFF0A681070521C0A607047000079
:10141000F0B5F94D0C091E092C402E402F468BB01B
:10142000A7437DD0B543FCD0002E7AD0002CFCD051
:101430000D465D40ED0F2543AC1BFF25AD0464193F
:101440000894C502440DC9022143500DDC02044337
:101450000120C00701430443D2020191200C110C6A
:1014600000958C46010423468B430A91614609048A
:10147000E24D8A430991010A7D444919803909786E
:1014800005464D4301266D18F605751B6943C90CC9
:10149000640B891C4C436418B5012C1B250C2E04CD
:1014A000B4434C434D43210C691889090591009DB3
:1014B000E90701D00121C90704912C460199670869
:1014C000CD072F434C08059DE10B4D432D0C2946BC
:1014D0006646754302950D4645432E46029D7D1B8B
:1014E000B44100950D465D4301942C0C2F040D462C
:1014F0005543AE462D0C3D43029503947546049C1E
:101500002D04641B049406D2029C039D641C0026D7
:1015100075410395029401AC70CC009F7D1B01E0E6
:101520003EE162E1B44109040095079101940599F7
:10153000A4086143090C0C464443650BE7040C46C0
:1015400066467443A646640B3C4303950294744676
:10155000049DE4042C1B049406D2029C039D641C8D
:10156000002675410395029401AC70CC009F7D1B51
:10157000B44101940C465C430095650FE7000C46AE
:101580005443A646640F3C43039502947446049D5D
:10159000E4002C1B049406D2029C039D641C0026CC
:1015A00075410395029401AC70CC009F7D1BB44142
:1015B000AE09AF06049DC900AD092F43049DA406E2
:1015C000AD060495079D344369180791059DE10B0D
:1015D0004D432D0C29466646754302950D464543FD
:1015E0002E46029D7D1BB44100950D465D4301943E
:1015F0002C0C2F040D465543AE462D0C3D43029551
:1016000003947546049C2D04641B049406D2029C2A
:10161000039D641C002675410395029401AC70CCB7
:10162000009F7D1BB44101948C050694079C890A98
:10163000611800950791019C0599A4086143090C64
:101640000D464543680BEF040D46644665436C0B3D
:101650003C43049FED047D1BAC4602D20025641C74
:101660006841009E019D371B8541084658430195FE
:101670000C46460FC5005443600F28436546E400FE
:101680002C1B02D20025401C6E41019D3F1AB54122
:101690002846BD09800628438446A009BF064E029D
:1016A0000699A40676180743079D002068410A9909
:1016B000079019430020099B00906046FF191343CF
:1016C0004041E20F64003A43A4460446D71A8C41D5
:1016D000A04203D90120009020463A46C70F941833
:1016E00040416246D20F2243644664000494009C49
:1016F000BE466400D71AA446044602978C4177463A
:10170000002F01D1A04204D96046401C8446029AB1
:101710002046C40FA64694184041049A0546D20FAD
:10172000224364466400D31A8D417146002901D1D9
:10173000A84202D928461A46641C104301220028F8
:1017400000D0164361020020079B891904465C41C2
:101750000223002C02DB491813466441089DCE0A7F
:101760002D145D194B056705E10A2C050D19089923
:101770003E43C9076940002B08D0934006D300229E
:10178000761C5141002B01D1760876001C4A002DB1
:1017900043DB154241D0AA433FD030460BB0F0BDE9
:1017A00006180D464D41174C7642AC411AD3951898
:1017B0001C465C41134A6D42A24113D301225205DB
:1017C0004C00D4420AD15C00D4420BD04B4002D52D
:1017D00092021143E2E749004908DFE75940C90F87
:1017E000C90718E000200849D8E7054801420DD193
:1017F0000342F7D0F2E700000000FF073463000067
:101800000000F07F0000E0FF0000F87F1148594021
:101810000143C01241400020C0E70123089A9B0603
:101820009A4205DC032252078918C90FC907B5E798
:10183000052252078918074A1143D2125140ADE7D9
:1018400070B515461C4602460B4628462146FFF752
:10185000DFFD70BDFFFFFF7F70B505464800440DFA
:10186000124B0020002C0AD0634008D09A4206DABE
:101870006642B24203DD12054019514170BD002C91
:1018800008D0002B09D0C90FC907002AF6DB084A87
:10189000114370BDC90FC90770BD28460A03104324
:1018A00002D00020034970BD284670BDFF0700002C
:1018B0000000F07F0000F87F10B5FF231B064400F6
:1018C0009C421DD84C009C421AD80346124A0B4336
:1018D00007D4401A02D3EFF3008010BDEFF300806D
:1018E00010BD081A06D2EFF3008001219043C9070A
:1018F000084302E0EFF30080904380F3008810BDBE
:101900000D231B041A4204D01146002000F0D0FB26
:1019100010BD00F0ADFC10BD000000900048704705
:101920008400002000487047640000200B4670B51A
:10193000024689078008084319469D08141AA941E0
:1019400025090807054308092C194841250A0106FD
:101950000D43010A2C194141200C0D0428430D0CA4
:1019600000194D41002140194D41C0086907084345
:10197000E908840F8D002543840024184D41241963
:101980006D41121BAB4107E00925ED432C115219A3
:1019900063410024401C61411C460A250026551B5A
:1019A000B441F1D270BD0000F8B51F4604460123D2
:1019B0000068DB02032601461840072A05DB0028E1
:1019C00001D017A506E017A504E0002801D016A550
:1019D00000E016A5102081432160A069C01E002FE1
:1019E000A06101D0401EA0612046C046C046002F25
:1019F00009D038466268A1689047206A401C20627E
:101A0000C01C206206E0206AFAE762682878A168B4
:101A10006D1C9047761EF8D22046C046C046F8BDE1
:101A20004E414E006E616E00494E4600696E660082
:101A3000F7B516468AB0334878446C4603467C3383
:101A4000C06F5A689B680DC42E487844763003AC4A
:101A50000DC80DC43720C001081837211B30FEF710
:101A600024FD05460C46803D1B3C02D56442012006
:101A700000E000200027099010E0E0070CD00C20C7
:101A800020497843794432464C394118684601234D
:101A900000F054FA6B4607C364107F1C002CECD195
:101AA000184F7F442E3F16E0E80712D02001C019DE
:101AB0000EC80691089307920068F04201D1981968
:101AC00008903246012306A903A800F037FA03ABB9
:101AD00007C36D10641C002DE6D10998002806D0BC
:101AE00032466946012303A800F07EFA05E001238F
:101AF0003246694603A800F021FA0A9B07C30DB0DD
:101B0000F0BD0000945E0000034640000A4610B598
:101B1000400D0BD00121C9070F24A40200191C039A
:101B200064082143540D2143D20207E00021012023
:101B3000F2E7D40F490021435200401E0029F8DA91
:101B4000DB0FDB07184310BDFFB50D46144685B00B
:101B50004868516801F042F900910190A868A168B5
:101B600001F03CF902910390A868616801F036F930
:101B7000029A12188242029201D2012000E0002053
:101B8000019A0B18D2180028019202D08A4202D979
:101B900003E08A4201D2012000E0002000990818E9
:101BA00000906868A16801F019F9029A121882423F
:101BB000029201D2012000E00020019A0B18D218F5
:101BC0000028019202D08A4202D903E08A4201D25F
:101BD000012000E000200099081800902868216882
:101BE00040004900400849084018FA49471814E0E5
:101BF00001994000C90F08430090019802994000E4
:101C0000C90F08430190029803994000C90F084387
:101C10000290039840007F1E039000980028E7DAA6
:101C20000898002801D0EC4E00E00026B74201DA07
:101C3000012000E00020002804902AD0F71BF806BD
:101C4000C00E15D0029B2021091A039A8B401A431B
:101C50000392029A019BC2408B401A430292019A5E
:101C6000009BC2408B4000991A430192C1400091F1
:101C70007B110DD06F460320C11A03D500218200CD
:101C8000B95003E08A008100BA587A50401EF3D55B
:101C9000374603980299002800D001200143089894
:101CA0000291002808460CD0002800D0012001999C
:101CB000019A490508430121D20AC902D2020192C0
:101CC00000E001210E9B0122D207012B02D0002B44
:101CD00003D013E0002807D120E0904204D89042BE
:101CE0000CD1019B0B4209D0019B5918019105D1E0
:101CF0000099491C009101D17F1C009200280DD051
:101D0000102108460020C0460498002806D00F98ED
:101D1000002803D0082108460020C0462868216812
:101D2000019B009A4840C10F0598C90739430EC06E
:101D300009B0F0BDFFB587B0099A089808995368B3
:101D40009268406889689646002203931746944635
:101D5000089A12685300099A5B08126852005208E8
:101D60009A1A9E4BD4180A9A002A01D0352200E014
:101D7000402206920022012315460492DB070593B8
:101D800024E0002D05D175460346039E4D1BB3414B
:101D900009D375466646039B491B049D9841059BE4
:101DA0007519AC465F4163463B4308D0059B049ED2
:101DB000DD0776082E435B080496059301E0521E6A
:101DC000641EC50FED0749184041521C069B9A42FC
:101DD000D7DB002D04D17546039A6B1A824101D2DC
:101DE00003200CE0039A0B466B404240134303D0A0
:101DF000014303D0012002E0022000E00020614600
:101E000001910021009702910A99002905D06146AD
:101E100040020143704B019102E0800700230290D1
:101E20009C4201DA012000E0002007003AD01A1B92
:101E3000D006C00E15D0029D2021019C091AC54074
:101E40008C402543029C8C4000D001242543019CFA
:101E50000295009DC4408D4000992C430194C140DF
:101E6000009154111DD06D460221002202290CD18F
:101E70000320001B07E0002804DB8600AE59002E7B
:101E800000D00122401C0328F5DB081B02D5880086
:101E90002A5004E08000285810438A00A850491EA8
:101EA000E3D51C460A98002802980CD0002800D0E0
:101EB00001200199019A490508430121D20AC9026A
:101EC000D202019200E00121109B0122D207012BD6
:101ED00002D0002B03D013E0002807D11FE090426E
:101EE00004D890420CD1019B0B4209D0019B591898
:101EF000019105D10099491C009101D1641C009207
:101F000000280CD0102108460020C046002F06D023
:101F10001198002803D0082108460020C0460898E0
:101F20000999019A009B006809684840C10F079809
:101F3000C907214382600AC00BB0F0BD00B585B06F
:101F4000019300920A460146002302A8FFF7FCFD18
:101F500002A807C805B000BDFFB50A461F4685B0F8
:101F60000799019301230091014602A8FFF7ECFDB8
:101F700002990398049ECA0F4900D20700920F22CB
:101F8000490892028C1A0021002800DB0C4645000B
:101F900013486D08844214D3079A002A04DA441EB9
:101FA0000026104DF64302E004460D460E46102171
:101FB00008460020C046002F03D004210846002018
:101FC000C0462005E90A0843009908436905F20A5A
:101FD0001143ADE602C0FFFF013C0000FF3F0000DF
:101FE000FF070000FFFFFF7F00B585B0019300925F
:101FF0000A460146002302A8FFF79CFE02A807C874
:10200000A8E7FFB50A461F4685B00799019301234B
:102010000091014602A8FFF78DFE02990398049EE5
:10202000CA0F4900D20700920F22490892028C1A67
:102030000021002800DB0C46450011486D08844251
:1020400014D3079A002A04DA441E00260D4DF643E5
:1020500002E004460D460E46102108460020C04608
:10206000002F03D0042108460020C0462005E90ABD
:102070000843009908436905F20A114358E6000035
:10208000FF070000FFFFFF7F01468008081A0209D2
:102090001018020A1018020C1018C008820012183A
:1020A0005200891A01E0401C0A390A29FBD2704704
:1020B000C80212D54803400F002804D0C803C0430B
:1020C000012188407047EFF30080000100090321DF
:1020D0000907084380F3008870470020704700001C
:1020E000F8B5224C4E00069DA6420AD8A64201D160
:1020F000002806D15E00A64203D8A6420AD1002AD3
:1021000008D00D24240425422CD029460020FFF7B6
:10211000CFFFF8BD0C461C430CD4994202D0EFF31C
:102120000080F8BD904202D0EFF30080F8BDEFF3DD
:102130000080F8BD09242407E5008B4206D0EFF3A8
:102140000080A043591A06D2284304E0101A05D390
:10215000EFF30080A04380F30088F8BDEFF3008028
:10216000A043F1E7009500F0FBF8F8BD0000E0FFA8
:10217000F0B53D4B02460C461C400020002C63D0BD
:102180003A4D8B4366D000296BDB0B0D1D05A9432F
:1021900001252D0529430124FD33E34001D3921885
:1021A0004941FF3381339C468B02940D0121234327
:1021B00089074C42920200271B198C105D1A04D427
:1021C0002D1B02D42B466500491992185B41640807
:1021D000F4D15C1A08D40125ED07EE1755197441A6
:1021E00002D42A462346491C94185B4101229207D7
:1021F0001D46E61B8D4106D4B61A854103D42B46F5
:10220000550034467F1924195B415208802AEFD1CA
:10221000234300D0022338460A22D04001D30122B2
:1022200013438A0510436246890A12058918002B58
:1022300009D00122D34002D30022401C5141002B7F
:1022400001D140084000F0BD0B03134307D0C90F74
:10225000C907F0BD0803104303D1002901DB104674
:10226000F0BD00202946F0BD0000F07F0000F87F9F
:1022700010B5024800F07EF810BD00000000C07FDD
:1022800000487047640000207546FFF7F9FFAE462E
:10229000050069465346C008C000854618B020B501
:1022A000FDF7A0FF60BC00274908B6460026C0C560
:1022B000C0C5C0C5C0C5C0C5C0C5C0C5C0C5403DFE
:1022C00049008D46704710B50446C046C0462046BA
:1022D000FDF751FF10BD0000024670B50A4392079A
:1022E0002AD11E4DEE0104C808C9541B9443344042
:1022F00017D0D0B2D9B2401A2106014310D190B202
:1023000099B2401A210401430AD110021902000AAD
:10231000090A401A2102014302D1100E190E401A77
:1023200070BD9A42DFD010BA19BA884201D9012093
:1023300070BD0020C04370BD02780B78401C491C62
:10234000002A09D09A4207D102780B78401C491C18
:10235000002A01D09A42EFD0D01A70BD01010101CC
:1023600010B500200249029A00F004F810BD0000E8
:102370000000F87F10B50C461107090F092904D099
:102380000A290AD008290CD104E011460820FFF7D9
:102390008FFE06E0510606D501E0510601D5012069
:1023A000C007214610BDD10607D501010909CC0897
:1023B0004907000E0006044309E0410F20024907C7
:1023C000000A0143200E00061D22D14101430846A8
:1023D000E7E7000001491820ABBEFEE72600020037
:1023E0007047000010B50121074800F025F80028CB
:1023F00008D00121044800F00FF8044A04490548B8
:1024000002F0CAFB10BD000000480140500000204F
:102410004C00002048000020C2698A43C261704716
:10242000002904D0026901231A43026103E0026912
:102430005208520002617047024690690840002825
:1024400001D0012070470020FCE7002A03D0436937
:102450000B43436102E043698B43436170470000D3
:102460001CB50121080300F019FB002168464180DA
:10247000C1801049818003210902018069460E480C
:1024800000F01EF8012211460B48FFF7DEFF012184
:102490000948FFF7C5FF1420002809DB00BF00BF73
:1024A000C206D20E01219140044A116000BF00BF54
:1024B00000BF1CBD871300000048014000E100E0A0
:1024C00010B54A880B881A43CB881A430369034C1A
:1024D00023401A4302618A88026010BD59F8FFFF49
:1024E00000B5034603E07D20C00000F005F8184663
:1024F0005B1E0028F7D100BD8101094A516100210E
:1025000091610521116100BF054909690122120489
:1025100011400029F8D00421014A116170470000E0
:1025200000E000E0002804D00822024310231A43F0
:1025300000E000221146024A0A43024B5A607047EB
:1025400000005A5A002002404A68002A04D1C26999
:102550000B681A43C26174E0C2690B689A43C26196
:1025600010234A681A40102A4ED102680B681A4399
:1025700002604A68112A07D102690B681A43026196
:10258000C2680B689A43C2604A68122A07D1C268BF
:102590000B681A43C26002690B689A430261426A7F
:1025A0000B689A434262826A0B689A438262C26AEB
:1025B0000B689A43C262026B0B689A4302638123E1
:1025C0008A681A40812A03D1426A0B681A43426220
:1025D00082238A681A40822A03D1826A0B681A43CE
:1025E000826284238A681A40842A03D1C26A0B68F3
:1025F0001A43C26288238A681A40882A21D1026B52
:102600000B681A4302631CE002680B689A4302607D
:102610004A68202A04D142680B689A43426003E06A
:1026200042680B681A434260064BCA689A4204D15A
:1026300082680B681A43826003E082680B689A43E1
:1026400082607047FFFF00000246106D08400028BE
:1026500001D0012070470020FCE7012A01D1C165AB
:1026600000E08165704710B500F002F810BD000071
:102670001FB50848006B2021084306490863212044
:102680000190302000900448039069460348FFF70A
:102690005BFF1FBD00000140FFFF00000004004879
:1026A00010B510210448FFF7CFFF04460220FFF7C2
:1026B00023FF204610BD00000004004810B5012093
:1026C00000F07AF8012000F069F8FFF7E9FF04460E
:1026D000002000F063F8204610BD70B500240120F2
:1026E00000F06AF800250EE0012000F057F86006BF
:1026F000040EFFF7D5FF012800D10443002000F0AD
:102700004DF8681CC5B2082DEEDB204670BD10B533
:102710000446204600F050F8012000F03FF8002069
:1027200000F03CF810BD70B50446002000F036F80B
:10273000002514E080202040002803D0012000F074
:102740003BF802E0002000F037F8012000F026F806
:10275000002000F023F86006040E681CC5B2082DA6
:10276000E8DB70BD10B5012000F026F8012000F074
:1027700015F8002000F020F8002000F00FF810BD40
:1027800010B5002000F018F8002000F007F8012034
:1027900000F004F8012000F00FF810BD10B5044659
:1027A000224620210348FFF758FF0220FFF7A4FE2E
:1027B00010BD00000004004810B504462246102158
:1027C0000348FFF74AFF0220FFF796FE10BD000006
:1027D0000004004870B500240EE00021204600F0FF
:1027E000DFF8002504E0002000F048F9681CC5B2BD
:1027F000802DF8DB601CC4B2082CEEDB70BD00003D
:102800001FB51048006B102108430E490863802053
:10281000029021200190062000900020039069463C
:102820000920C006FFF790FE012202210920C00600
:10283000FFF713FF012204210920C006FFF70DFF57
:102840001FBD00000000014070B5054600241FE0D8
:10285000802020412840002806D0012204210920A0
:10286000C006FFF7FAFE05E0002204210920C00699
:10287000FFF7F3FE012202210920C006FFF7EDFE5B
:10288000002202210920C006FFF7E7FE601CC4B247
:10289000082CDDDB012202210920C006FFF7DDFE46
:1028A000002202210920C006FFF7D7FE70BD10B537
:1028B000012204210920C006FFF7CFFE01220221D8
:1028C0000920C006FFF7C9FE002204210920C00626
:1028D000FFF7C3FE002202210920C006FFF7BDFE5C
:1028E00010BD10B5002204210920C006FFF7B5FE77
:1028F000012202210920C006FFF7AFFE01220421B8
:102900000920C006FFF7A9FE10BD10B5FFF778FF3C
:10291000AE2000F0A3F8D52000F0A0F8802000F051
:102920009DF8A82000F09AF83F2000F097F8D320F7
:1029300000F094F8002000F091F8402000F08EF8AC
:10294000A12000F08BF8C82000F088F8DA2000F011
:1029500085F8122000F082F8812000F07FF8CF2067
:1029600000F07CF8D92000F079F8F12000F076F83A
:10297000DB2000F073F8302000F070F8A42000F0A5
:102980006DF8A62000F06AF88D2000F067F814209A
:1029900000F064F8AF2000F061F8FFF71BFF10BDF6
:1029A00070B505460C46B0212943084600F056F89C
:1029B000F0212140091110221143084600F04EF881
:1029C0002007000F00F04AF870BD0000F8B505467A
:1029D0000E461746721ED206110E6A1E5206100EC1
:1029E000FFF7DEFF002409E0394620390901114ACA
:1029F0008918085D00F042F8601CC4B2082CF3DBB3
:102A0000721ED206110E6A1E5200521CD0B2FFF77F
:102A1000C7FF00240BE0394620390901054A8A180E
:102A200021460831505C00F029F8601CC4B2082C23
:102A3000F1DBF8BD84620000F8B507460E46154686
:102A4000002407E02A5D3019C1B23846FFF7BEFF07
:102A5000601CC4B2285D0028F4D1F8BD10B504464E
:102A6000FFF725FF7820FFF7EFFE0020FFF7ECFED1
:102A70002046FFF7E9FEFFF734FF10BD10B504460E
:102A8000FFF715FF7820FFF7DFFE4020FFF7DCFEA1
:102A90002046FFF7D9FEFFF724FF10BD002905D01F
:102AA000054A526B0243044B5A6304E0024A526BDC
:102AB0008243014B5A637047000001400449096892
:102AC000044A1140044A89180143014A11607047C1
:102AD000000001401FFF000000005A5AC10293226B
:102AE000520212881143084A916111464968074A07
:102AF0001143054A516000BF034989690122D2038D
:102B000011409142F8D170470000014001005A5A2B
:102B100004490968044A1140044A89180143014ADA
:102B20001160704700000140E7FF000000005A5AA2
:102B3000F0B58BB007460D461646002400200A90DB
:102B40000990254801460EC9C06807930692059171
:102B500008901422204910316846FDF713FB00BF8E
:102B600008E0A00005A90858A84201D90A9403E08A
:102B7000601CC4B2042CF4D300BF284670430990F3
:102B8000002409E0A000694609580998814201D94A
:102B9000099403E0601CC4B2052CF3D300BF09986C
:102BA0004002072109030843310108430A998900BB
:102BB0000843384309498862084640680849084381
:102BC0000649486000BF0548806A0121C9030840E2
:102BD0008842F8D10BB0F0BD6062000000000140F7
:102BE00004005A5A70B504460C48006880B20C497B
:102BF0004018C008C00020430849086000F012F8DF
:102C0000054600F07BF8054800684007400FA042E9
:102C100001D0012070BD0020FCE700000000014051
:102C200000005A5AF8B5002500270024002600208D
:102C300000902D48006847077F0F2B4880694004AB
:102C4000040F2948806A8007800F00902648806A18
:102C5000C005C60E3B0000F0D9F805040C130E1099
:102C60003400A000214A11582148FDF714FC054604
:102C70002FE0204D2DE0204D2BE00125ED0328E035
:102C80000098002804D0012803D003280ED104E0C6
:102C900000BF18483546454311E0A000134A1158BB
:102CA0001348FDF7F8FB7043054608E0A0000F4A03
:102CB00011580F48FDF7EFFB7043054600BF00BFFA
:102CC00007E0A000094A11580948FDF7E4FB054652
:102CD00000BF00BF044800680006410F2846C840F6
:102CE00005462846F8BD00000000014020620000B3
:102CF000006CDC020024F400208000000149086020
:102D0000704700000C000020034800680349097860
:102D100040180149086070470000002008000020AA
:102D2000014802490860704700127A000C00002038
:102D300010B5FFF7F5FF9321490209884805400DBA
:102D400017498969C90AC9020143154A916193214A
:102D5000490249888805800D1146096A890A890255
:102D6000014311620520FFF7B9FE0020FFF7A6FE20
:102D70000020FFF7CDFE08220A490320FFF7D8FE06
:102D80000748006B02210843054908630220FFF74A
:102D9000C9FB0220FFF726FF0348FFF7AFFF10BD76
:102DA0000000014000127A000090D003F8B582B212
:102DB0008BB204140D1410465843002126465E437E
:102DC000371436048019794116466E433714360499
:102DD0008019794126466E438919F8BDF8B5040C6F
:102DE0008BB2264682B25E43104658430D0C370C18
:102DF000360400218019164679416E43370C36049B
:102E00008019264679416E438919F8BD30B474465D
:102E1000641E2578641CAB4204D3635D5B00E31839
:102E200030BC18471D46F8E74900CA0202431000AB
:102E300000D004204A0D01D001221043044A490D5C
:102E4000914201D102210843012800D10520704799
:102E5000FF070000F8B504464F1EC80008382118C7
:102E600015461E46086849683A4606239A4310D01C
:102E70002A463346FDF7AAFD3A46D200083AA3187F
:102E80001A687F1E5B68FDF771FD06223B4693437F
:102E9000EED1022F23D0042F11D0062F2FD12A4696
:102EA0003346FDF793FDE36AA26AFDF75FFD2A460C
:102EB0003346FDF78BFD636A226AFDF757FD2A460C
:102EC0003346FDF783FDE369A269FDF74FFD2A460E
:102ED0003346FDF77BFD63692269FDF747FD2A460E
:102EE0003346FDF773FDE368A268FDF73FFD2A4610
:102EF0003346FDF76BFD63682268FDF737FDF8BDCB
:102F000010B50122FEF7A8FC10BD10B5FDF72EFD8F
:102F100010BD002210B5134610461146FEF778FA90
:102F200010BD0000034A10B500201107FEF794FC05
:102F300010BD000001FDFFFF30380A2801D201203A
:102F40007047002070470000F3B587B00F46002699
:102F500004A801F0ABF9002446E0A100079840580E
:102F6000A1007958401A0290002801DB029901E083
:102F7000029949420846FDF789FF8F21C905019052
:102F8000FDF772FE0390A10004AA5058002102F040
:102F9000FFFF19D0A00004AA11580398FDF764FEA2
:102FA0007F21C905029003F0CBF8054600BF6800F9
:102FB000400802900F48416A029803F095F812D237
:102FC0000120A04006430EE00A48C169039803F0BF
:102FD00009F805D30748016A039803F085F802D27F
:102FE0000120A0400643641C032CB6DB304609B028
:102FF000F0BD0000FC6A0000F0B504464F008E48AA
:103000008FB07F080D460D91874228DB404238186B
:1030100020430CD08948874203DC874218D1002C1A
:1030200016D020462946FFF76BFF0FB0F0BD844A4B
:10303000844B20462946FDF7C9FC07460E46824AC6
:10304000824B20462946FDF7C1FC3A46334649E00B
:103050000120FDF7ACFFFFF75CFF0FB0F0BD7C482F
:10306000874243DAF920800587420BDA2046294659
:10307000FFF7DAFE042801D1FFF754FF2046294666
:103080000FB0F0BD22462B4610462946FDF79EFCA8
:10309000064602466F480F460B4606217844FFF766
:1030A000D9FE32463B46FDF791FC06906A480791EF
:1030B00032463B4604217844FFF7CCFE32463B467D
:1030C000FDF784FC00225C4BFDF750FC02460B46EA
:1030D00007990698FEF79CF922462B46FDF776FCE9
:1030E00022462B46FDF742FC0FB0F0BD2046524C65
:1030F0006900490800222346FDF750FC0022D24314
:10310000FEF7AAFB0546024654480E460B4606212A
:103110007844FFF79FFE2A463346FDF757FC06909A
:103120004F4807912A46334604217844FFF792FE20
:103130002A463346FDF74AFC00222346FDF716FCDB
:10314000059104902846314602F070FE08904548EB
:103150000C46874219DB059B049A07990698FEF7EF
:1031600057F902460B4621460898FDF72FFC2346E7
:10317000089AFDF7FBFB0122FEF76EFB304A314B4C
:10318000FDF701FC304A314B4AE000273A460B4636
:103190000898FDF7EBFB3A4623460A910E9010463D
:1031A0001946FDF713FC2A463346FDF7F7FB0A9B49
:1031B0000E9AFEF72DF905460E46059B049A0799CF
:1031C0000698FEF725F90091049001222846314621
:1031D000FEF742FB1A4A1B4BFDF7E0FB0E46054685
:1031E000012221460898FEF737FB009B049AFDF761
:1031F000EDFB2A463346FDF7C6FB05460E46012287
:1032000038462146FEF728FB0F4C174F22463B4617
:10321000FDF7C4FB2A463346FDF7C0FB22463B467A
:10322000FDF7BCFB0D9A002A00DD5DE70122D20705
:1032300051400FB0F0BD00000000F03F0000F07FF3
:10324000075C143326A6913C182D4454FB21F93F0A
:103250000000E03FC0460000D64600004C4600009B
:10326000624600003333EF3FFB21E93FF0B589B000
:1032700004460D464800069172494008884215DB15
:103280007149884203DC884207D1002C05D02046D2
:103290002946FFF735FE09B0F0BD6C48002D02DD70
:1032A0006B4909B0F0BD6B4909B0F0BD6A4988426D
:1032B00011DA6A4988420BDA20462946FFF7B4FD45
:1032C000042801D1FFF72EFE2046294609B0F0BDA3
:1032D0000026F6435DE06D0061496D08884232DAF0
:1032E0006049884219DA0026012332469B072046AE
:1032F0002946FDF73BFB074601910122204629465E
:10330000FEF7AAFA0022584BFDF73DFB3A46019B17
:10331000FEF77EF804460D463BE001260022524BA4
:1033200020462946FDF722FB0746009100224E4B1E
:1033300020462946FDF727FB3A46009BFEF768F832
:1033400004460D4625E04949884219DA0226002242
:10335000474B20462946FDF739FB0022424BFDF73B
:1033600005FB074602910022414B20462946FDF706
:103370000AFB3A46029BFEF74BF804460D4608E06E
:10338000032622462B4600203A49FEF741F8044620
:103390000D4622462B4610461946FDF717FB0746F9
:1033A0000B4602460191FDF711FB0246029032489E
:1033B0000B46039106217844FFF74CFD3A46019BEA
:1033C000FDF704FB00902D48019105217844039BF3
:1033D000029AFFF73FFD039B029AFDF7F7FA0246B8
:1033E0000B4601990098002E0BDAFDF7BFFA224632
:1033F0002B46FDF7EBFA22462B46FDF7CFFA09B034
:10340000F0BDFDF7B3FA22462B46FDF7DFFA1C4A62
:10341000F6007A4493191A685B68FDF7B4FA2246FD
:103420002B46FDF7B0FA174A7A4493191A685B687D
:10343000FDF7B4FA069A002AE1DA0122D2075140D8
:1034400009B0F0BD000010440000F07F182D445476
:10345000FB21F93FFB21F9BF0000DC3F0000203ECB
:103460000000F33F0000E63F0000F03F0080034013
:103470000000F83F0000F0BFDE440000A044000060
:103480003A44000004440000F0B51FB4039A029DC2
:1034900053006E422E439446F40F5B084A00574E89
:1034A00052081C438E46B44205D847420743FC0FDE
:1034B0001443B44205D92A466346FFF726FD05B0FA
:1034C000F0BD4F4E66442E430AD0CC0F6646B61769
:1034D00002273E40264304464A4F144304D00BE0E3
:1034E000FFF7C4FE05B0F0BD002EFBD0012EF9D0D1
:1034F000022E32D0032E34D01C462C430BD03F4C2E
:10350000A34216D1A2420AD1012189078B438A43E3
:10351000114603930DE0704600280FDB25E03A4D7D
:103520007D44002E0ED0012E10D0022E15D0032E79
:1035300017D0A2421DD17046002816DA314833490F
:1035400005B0F0BD6968286805B0F0BD0122696862
:10355000D2072868514005B0F0BD38462C4905B067
:10356000F0BD38462B4905B0F0BD26482A4905B0C4
:10357000F0BDD21A12153C2A02DD224D264C12E073
:103580006346002B05DA3C23DA4202DA00252C469A
:1035900009E0039B029AFDF73BFF49004908FFF74A
:1035A00065FE05460C46002E12D0012E0DD01B4A9A
:1035B0001B4B022E2846214618D0FDF7E4F93A4667
:1035C000134BFDF7E0F905B0F0BD0120C007444002
:1035D000002213462846214602F062FC02D1022056
:1035E000FDF7E5FC2846214605B0F0BDFDF7CBF917
:1035F0003A46074BFDF7D2F905B0F0BD0000F07F69
:10360000000010C0182D4454A4430000FB21F9BF52
:10361000FB210940FB2109C0FB21F93F075C143362
:1036200026A6A13CF8B50446E078C02108400090E9
:10363000E0788506AD0E6078C007C00F002813D073
:10364000EE102846E917490F0918C910C900691A70
:10365000491CCFB20C480068002804D00A483946FB
:1036600002683046904700BF607808210840002873
:1036700008D005484068002804D0009A9011024AFA
:10368000516888470020F8BD5400002038B5044632
:10369000002C09D02021684601702821417030217A
:1036A00081703821C17004E0A32204216846FCF730
:1036B000C9FE6A460421034802F0DAFA01F09AFED4
:1036C00038BD00009E0A00003EB50446022168464F
:1036D0000170CA214170E32181700921C1706A46DD
:1036E0000421682002F0C4FAA3216846017040203A
:1036F0002040002807D0C02168464170C821817051
:10370000C221C17004E0A321684641708170C1707C
:10371000FF2081302040002807D0C4216846017175
:10372000CC214171C621817104E0A3216846017159
:1037300041718171A3216846C171017241726A466B
:103740000A21644802F094FAA007800F002803D0F1
:1037500020206946087002E0D820694608706A4651
:1037600001215C480F3002F083FA2020204000281D
:1037700003D0012000F0B6F802E0002000F0B2F81B
:10378000FF208130204000281DD0FF200130204044
:10379000002809D0B221684601708B214170B62102
:1037A00081709B21C17008E0B021684601708021C2
:1037B0004170B42181709021C1706A46042145484E
:1037C000401F02F055FAE007C00F002824D0F8206F
:1037D000694608706A4601218B20000102F048FA10
:1037E000FA21072000F068FC072000F02CFC0120E3
:1037F00000F04FFC642000F035FDFF20F53000F0B4
:1038000043FDC821344800F0DDFB282000F0F7FB21
:103810000A2000F006FC08E0D820694608706A46D5
:1038200001218B20000102F023FA02202040002811
:1038300003D0D9206946087002E0D8206946087094
:103840006A460121254802F013FA0420204000288E
:1038500003D0012000F072F802E0002000F06EF8C2
:1038600010202040002803D00120FFF70FFF02E0C6
:103870000020FFF70BFF082020431949488101F081
:10388000B9FD00201649887340202040002803D04D
:103890000846807B801D8873FF20813020400028EF
:1038A00004D00F48807B801D0D4988731420204070
:1038B000002804D00A48807B103009498873A0078B
:1038C000800F002804D00648807B001D04498873BF
:1038D00000203EBDA70A000009E3CA023D07000020
:1038E000540000203EB50446002C0DD00DA10A68FE
:1038F000486889680092029101906A4609219720E0
:10390000C00002F0B5F93EBD09A211685068926886
:103910000292009101906A4609219720C00002F0AE
:10392000A7F9F0E7B8AAB38DB4980D355D00000093
:10393000B8AAAAAAB088C3C5C700000038B5044613
:10394000002C09D0C02168460170C2214170C421F9
:103950008170C621C17004E08B2204216846FCF707
:1039600071FD6A460421034802F082F901F042FD2C
:1039700038BD0000980A000010B5C8230122920249
:103980000249034801F0C6FB10BD0000246B000093
:10399000F60B0000FFB58DB007461546169E0024B5
:1039A000002030806E49887B05A9179A01F078FCC9
:1039B000002802D0601E11B0F0BD69484089142172
:1039C0000840002869D06946087D0006497D090441
:1039D00008436946897D090208436946C97D084351
:1039E00028606946087E0006497E09040843694646
:1039F000897E090208436946C97E084368606946B2
:103A0000087F0006497F090408436946897F090247
:103A100008436946C97F0843A86008A908780006DA
:103A200049780904084308A989780902084308A9C4
:103A3000C9780843E86020461030C4B228680014F2
:103A40000190686800140290A86800140390E86868
:103A50000014049001984043029949434118039887
:103A60004043091804984043081800900F210906A4
:103A70000098884204DB112109060098884205DD80
:103A800001F0B8FC00203080401E94E70020305E3A
:103A9000FF2101310843308000BF31484089402177
:103AA0000840002824D005A8005D000205AA611C7A
:103AB000515C084301B20E98018005A9A01C085C66
:103AC0000002E11C515C084301B20E98418005A937
:103AD000201D085C0002611D515C084301B20E9874
:103AE0008180A01DC4B20020305E082108433080D0
:103AF0001B484089FF2181310840002821D005A8BA
:103B0000005D000205AA611C515C084300B23880C8
:103B100005A9A01C085C0002E11C515C084300B22E
:103B2000788005A9201D085C0002611D515C0843D6
:103B300000B2B880A01DC4B20020305E70210843DE
:103B400030800748807A8007800F002803D005A9BD
:103B50000819FFF767FD109802F0C8F800202AE75F
:103B600054000020F1B592B001A801F073F9684645
:103B700080880021420CC9031143C00303910290C5
:103B80004F48007A8007010F1298405807904C4820
:103B9000008904210840002802D00798404207907D
:103BA0004748007AC006800F81001298405808905C
:103BB0004348008920210840002802D0089840424C
:103BC00008903F48007A0006800F81001298405804
:103BD00009903B480089FF2101310840002802D0AC
:103BE0000998404209900798C117039D029C2246FC
:103BF0002B4610911190FCF70DFB8900800F0843B4
:103C000007900898C117039D029C26462F4632460E
:103C10003B460E910F90FCF7FDFA8900800F084398
:103C200008900998C117039D029C22462B460A95CD
:103C30000B940C910D90FCF7EDFA8900800F08436E
:103C400009900798010E6846017407980002010E5A
:103C50006846417407980004010E6846817407980D
:103C6000C1B26846C1740898010E6846017508988B
:103C70000002010E6846417508980004010E68466E
:103C800081750898C1B26846C1750998010E6846E9
:103C9000017609980002010E6846417609980004F1
:103CA000010E684681760998C1B26846C17604AAB9
:103CB0000C21A520800001F0DBFF13B0F0BD000057
:103CC0005400002030B585B0044616A207CA02ABE6
:103CD00007C3C82C03DD0020C04305B030BD21461A
:103CE000C820FCF7E2FB401E85B228126946087026
:103CF0004D706A4602210E4801F0BAFF002802D03A
:103D00000020C043E9E702AA0C210A4801F0B0FFF5
:103D1000002802D00020C043DFE70748848100204C
:103D2000DBE70000FEF2ABC4AAF1DFDFBBAFDFDFF1
:103D300016020000C10A0000540000201FB504460E
:103D40004D48007A8007000F205801904A480089AA
:103D500004210840002802D00198404201904648C2
:103D6000007AC006800F80002058029042480089E7
:103D700020210840002802D00298404202903E488C
:103D8000007A0006800F8000205803903A4800898E
:103D9000FF2101310840002802D0039840420390DF
:103DA00036490198FFF702F88900800F0843019017
:103DB00032490298FEF7FAFF8900800F084302900B
:103DC0002E490398FEF7F2FF8900800F0843039005
:103DD0000198010E6846017001980002010E6846C4
:103DE000417001980004010E684681700198C1B2CB
:103DF0006846C1706A4604213D20000101F038FF89
:103E0000002803D00020C04304B010BD0298010E6A
:103E10006846017002980002010E684641700298DF
:103E20000004010E684681700298C1B26846C170F4
:103E30006A460421F520800001F01AFF002802D014
:103E40000020C043E0E70398010E68460170039824
:103E50000002010E6846417003980004010E684696
:103E600081700398C1B26846C1706A4604217B2004
:103E7000C00001F0FDFEC7E75400002009E3CA02BC
:103E800010B586B0044649A00068039048A00068B9
:103E9000029048A00068019047A000680090A00729
:103EA000800F03A9095C68460175E006800F03A92D
:103EB000095C684641752006800F03A9095C6846C5
:103EC0008175A007800F02A9095C68460174E006AD
:103ED000800F02A9095C684641742006800F02A980
:103EE000095C6846817405AA0321344801F0C0FECC
:103EF000002803D00020C04306B010BD04AA03214F
:103F00002E48001D01F0B4FE002802D00020C0435E
:103F1000F2E70198059000980490042020400028C2
:103F20000AD06846017D0120014368460175007C86
:103F300001210843694608742020204000280AD047
:103F40006846417D0120014368464175407C01215E
:103F5000084369464874FF200130204000280AD0F9
:103F60006846817D0120014368468175807C01217E
:103F700008436946887405AA03211120800101F0D5
:103F800077FE002802D00020C043B5E704AA032131
:103F90000A480B3001F06CFE002802D00020C0431C
:103FA000AAE7074804810020A6E700004CCD6C007A
:103FB0000CC92C0036567600264666002604000002
:103FC00054000020F8B506460D467D21C900304654
:103FD000FCF76BFA68430446210E68460170200224
:103FE000010E684641702004010E68468170C4705D
:103FF0006A460421FF205D3001F03AFEF8BD38B575
:10400000044605212046FCF750FA84B22112684686
:10401000017044706A460221FF205B3001F028FEE7
:1040200038BD38B5044605212046FCF73EFA84B277
:1040300021126846017044706A460221FF205930FF
:1040400001F016FE38BD38B5044600200090E007A8
:10405000C00F002804D0694608783021084300903A
:1040600002202040002804D0694608780C2108432B
:10407000009004202040002804D0694608780321DD
:10408000084300906A460121FF20493001F0F0FD0D
:1040900038BD38B50446012C01DA012402E0042CB5
:1040A00000DD0424601EC0B200906A460121FF209A
:1040B000503001F0DDFD38BDF0B585B006460F4645
:1040C0007007400F002803D019208001874203DDCC
:1040D0000020C04305B0F0BD3846FCF7DFFE5C4968
:1040E0000090FCF7C1FD019002A800F08BFE68462D
:1040F000007A022806D0042816D0082826D01028D6
:1041000048D135E08D21C905019801F095FF009057
:10411000FCF780FE84B24F49019801F08DFF0090BA
:10412000FCF778FE85B238E023214906019801F0BA
:1041300083FF0090FCF76EFE84B24749019801F0BE
:104140007BFF0090FCF766FE85B226E08B21C90557
:10415000019801F071FF0090FCF75CFE84B23F49CA
:10416000019801F069FF0090FCF754FE85B214E05D
:1041700045210906019801F05FFF0090FCF74AFE17
:1041800084B23749019801F057FF0090FCF742FED6
:1041900085B202E00020C0439CE700BF21126846C0
:1041A0000173447329128173C573F007C00F00288F
:1041B00016D003AA0221FF20D53001F059FD0028B6
:1041C00002D00020C04385E703AA02320221FF206B
:1041D000253001F04DFD002802D00020C04379E7D2
:1041E00002203040002816D003AA0221FF20D93037
:1041F00001F03EFD002802D00020C0436AE703AA78
:1042000002320221FF20293001F032FD002802D0C5
:104210000020C0435EE704203040002816D003AAE7
:104220000221FF20DD3001F023FD002802D0002014
:10423000C0434FE703AA02320221FF202D3001F0D4
:1042400017FD002802D00020C04343E7002041E7CB
:1042500000004843000040460000C04500004045C3
:104260000000C04438B5054605212846FCF71DF975
:1042700084B221126846017044706A460221FF2010
:10428000DF3001F0F5FC38BD38B50546052128467C
:10429000FCF70BF984B221126846017044706A463B
:1042A0000221FF20DB3001F0E3FC38BD7CB5054680
:1042B00029494968087801AB04220D2100F03AFB36
:1042C000002801D007207CBD68460079E021084025
:1042D000C1106846C0793022104000110143684681
:1042E00001704079E0210840C1106846C0790C2275
:1042F000104080100143684641708079E0210840F9
:10430000C1106846C0798007800F014368468170FC
:1043100000241CE06846005D002802D1A10068501E
:1043200013E00E48A100685006E0A10068580C494F
:1043300001F082FEA10068506846005D401EC0B2D8
:10434000694608550028F0D100BF601CC4B2032C98
:10435000E0DB0020B7E700001C0000207B14AE3E2D
:104360001D5A843FF0B58BB005460C461746012117
:1043700008A8017000214170FE480068817CFD485A
:104380004068007808AB0222059000F007FB002887
:1043900003D00020C0430BB0F0BDC820FEF7A0F84A
:1043A000002008A90870F3480068C17BF148406804
:1043B000007808AB0122059000F0F0FA002802D046
:1043C0000020C043E7E7EB4800684179E9484068CE
:1043D000007808AB0122059000F0E0FA002802D036
:1043E0000020C043D7E7E3480068817CE14840688B
:1043F000007808AB0122059000F0D0FA002802D026
:104400000020C043C7E7DB480068C17DD948406849
:10441000007808AB0122059000F0C0FA002802D015
:104420000020C043B7E7D34800680179D14840680D
:10443000007808AB0122059000F0B0FA002802D005
:104440000020C043A7E70C2008A90870C9480068ED
:104450000179C8484068007808AB0122059000F057
:104460009DFA002802D00020C04394E70F20FEF7F9
:1044700037F8C048806A407A08A90870BD480068CB
:104480008178BC484068007808AB0122059000F0B4
:1044900085FA002802D00020C0437CE7B548806A36
:1044A000007A08A90870B34800684178B1484068AC
:1044B000007808AB0122059000F070FA002802D0C5
:1044C0000020C04367E7002F07D0AA48806A807A9F
:1044D000E021084308A9087004E0A648806A807AB1
:1044E00008A90870A34800688179A248406800784C
:1044F00008AB0122059000F051FA002802D00020FC
:10450000C04348E7002F07D09A48806AC07AE0216C
:10451000084308A9087003E09748C07A08A9087002
:1045200094480068C17993484068007808AB01223C
:10453000059000F033FA002802D00020C0432AE79B
:10454000002F02D0C820FDF7CBFF402008A908703B
:1045500088480068017987484068007808AB0122E4
:10456000059000F01BFA002802D00020C04312E79B
:10457000782008A908707F48006841797D48406824
:10458000007808AB0122059000F008FA002802D05C
:104590000020C043FFE678498889FDF7A1FF00208D
:1045A00008A908707348006841797248406800782B
:1045B00008AB0122059000F0F1F9002802D000209C
:1045C000C043E8E66B480068817A6A484068007832
:1045D00008AB0222059000F0ADF9002802D00020BF
:1045E000C043D8E608A90878000249780843069035
:1045F0000C210698FBF759FFC6B20020A86068603E
:104600002860A0606060206007906BE059480068F7
:10461000C17A58484068007808AB0C22019000F03D
:1046200089F9002802D00020C043B4E608A8007829
:10463000010208A84078014309B26846018208A82F
:104640008078010208A8C078014309B26846418217
:1046500008A80079010208A84079014309B2684618
:1046600081821022825E21688818206068461222AA
:10467000825E61688818606068461422825EA16864
:104680008818A06008A88079010208A8C0790143B1
:1046900009B26846018108A8007A010208A8407A98
:1046A000014309B26846418108A8807A010208A83E
:1046B000C07A014309B2684681810822825E296876
:1046C0008818286068460A22825E696888186860CF
:1046D00068460C22825EA9688818A8600798401C6A
:1046E000C0B207900798B04290DB2348006803905F
:1046F0002868C117020C09041143000401910090BD
:104700000023039AFBF79EFD324600230591049097
:10471000FBF798FD28601848006803906868C11787
:10472000020C090411430004019100900023039A34
:10473000FBF788FD3246002305910490FBF782FDCC
:1047400068600D4800680390A868C117020C09044E
:1047500011430004019100900023039AFBF772FDBE
:104760003246002305910490FBF76CFDA8600248D7
:10477000406803E01C000020FC6A000003902068F1
:10478000C117020C09041143000401910090002399
:10479000039AFBF757FD3246002305910490FBF77F
:1047A00051FD20601D48406803906068C117020CED
:1047B000090411430004019100900023039AFBF7C0
:1047C00041FD3246002305910490FBF73BFD6060FC
:1047D000124840680390A068C117020C09041143F5
:1047E0000004019100900023039AFBF72BFD324651
:1047F000002305910490FBF725FDA060A068002828
:1048000005DD01210904A068401AA06004E001212F
:104810000904A0684018A0600020BCE5FC6A000004
:10482000F3B585B0074600263E484068007804ABE3
:1048300003220D21019000F07DF8002802D007200E
:1048400007B0F0BD6846007CC106C90E6846017419
:10485000407CC106C90E68464174807CC106C90E01
:1048600068468174002459E0A0003958A2000698D7
:104870008058081A0190002801DB019901E0019994
:1048800049420846FCF702FB8F21C9050090FCF75E
:10489000EBF9029004A8005D00282FD02249086897
:1048A000FCF7FCFA014601902048FCF7DDF9039083
:1048B00004E01F49039801F0BFFB039004A8005DCA
:1048C000401EC0B204A908550028F2D103990298ED
:1048D000FCF7CAF97F21C905019001F031FC0546BA
:1048E00000BF6800400801900F488169019801F0FD
:1048F000FBFB12D20120A04006430EE00A480169EA
:10490000029801F06FFB05D307484169029801F056
:10491000EBFB02D20120A0400643641C032CA3DB66
:1049200030468DE71C000020FC6A000000B04C45BA
:1049300054E3853FF8B506460F4614461D46FDF77D
:1049400011FF7106080EFDF7EEFEFDF7B7FE3846C3
:10495000FDF7E9FEFDF7B2FEFDF704FF7100491C0B
:10496000C8B2FDF7E0FEFDF7A9FE11E0012C06D16B
:10497000FDF7B3FE28700120FDF7C9FE05E0FDF745
:10498000ACFE28700020FDF7C2FE6D1C601EC4B294
:10499000002CEBD1FDF7F4FE0020F8BDFFB581B08F
:1049A000054616461F46FDF7DDFE6906080EFDF7B3
:1049B000BAFEFDF783FE0298FDF7B5FEFDF77EFE19
:1049C000002406E0385DFDF7AEFEFDF777FE601CC3
:1049D00084B2B442F6DBFDF7D3FE002005B0F0BD93
:1049E00070B50546284600F00FF80446E81C00F0B4
:1049F0000BF8C000204384B2A81D00F005F8800128
:104A0000204384B2204670BD014600228A56002A07
:104A100001DD00201EE000228A56002A01DA04206F
:104A200018E001228A56002A01DD012012E001224D
:104A30008A56002A01DA05200CE002228A56002A52
:104A400001DD022006E002228A56002A01DA062051
:104A500000E00720704700000EB500200090019094
:104A60000290FDF752FFFDF7FBFCFDF7FCFD00F0A7
:104A7000A3F91BA205210120FDF7DEFF2FE01A4854
:104A80000068FCF7C7F8044622460B4617A16846A3
:104A9000FBF710FC6A4601210220FDF7CDFF164806
:104AA0000068FCF7B7F8044622460B4613A1684697
:104AB000FBF700FC6A4601210320FDF7BDFF124809
:104AC0000068FCF7A7F8044622460B460FA168468B
:104AD000FBF7F0FB6A4601210420FDF7ADFFCEE7AE
:104AE0004D50553630353000480000205069746311
:104AF000683A252E326620004C000020526F6C6C04
:104B0000203A252E3266200050000020596177207F
:104B1000203A252E3266200070B50446002664082F
:104B200064001C48007F002801D0002070BD194897
:104B30000838807A002801D1401EF7E71548083868
:104B4000057C807A20401349083908740846007CA7
:104B5000A04202D00026F64300E00026002C04D13B
:104B60000C480838007D002803D0012001F008F926
:104B700002E0002001F004F9002C09D000F03AFC1A
:104B8000002805D00348083805740020C043CDE74D
:104B90003046CBE724000020F0B59FB004460D4618
:104BA00016467F27FF0500201D901C901B9014A81F
:104BB00015A91AAB10AA0091019016A918A8FEF722
:104BC000E9FE002802D001201FB0F0BD10A914207A
:104BD000085EFF210131084000287DD01098FCF7C5
:104BE00055F99D21C9050F90FCF73EF8074611982D
:104BF000FCF74CF99D21C9050F90FCF735F81D9085
:104C00001298FCF743F99D21C9050F90FCF72CF889
:104C10001C901398FCF73AF99D21C9050F90FCF7F9
:104C200023F81B9039460120800701F005FA069011
:104C30001C9901F001FA0890032080071D9901F0EA
:104C4000FBF906901B9901F0F7F90790089901F01C
:104C500059F90990FBF7DEFF0B910A90FEF7CCF9AA
:104C6000534A544B0D910C90FBF7B0FE0F910E90F0
:104C7000FBF7C2FC2060012080071C9901F0DCF9E1
:104C800003901C9901F0D8F90590032080071D9925
:104C900001F0D2F903901D9901F0CEF90490059925
:104CA00001F04EFA7F21C905069001F02BF907901B
:104CB000FBF7B0FF0B910A9039460120800701F005
:104CC000BBF904901D9901F0B7F906900120800707
:104CD0001C9901F0B1F900E066E004901B9901F025
:104CE000ABF90590069901F00DF90790FBF792FFDB
:104CF000099108900B9B0A9AFEF7C6FB2C4A2D4B94
:104D00000D910C90FBF762FE0F910E90FBF774FC77
:104D100028601B99084601F08FF906901C990846F7
:104D200001F08AF904901D99084601F085F9394689
:104D30000290384601F080F90190029901F0E2F802
:104D40000390049901F0FCF90590069901F0F8F937
:104D50000790FBF75FFF0B910A9038461B9901F013
:104D60006BF905901C991D9801F066F9049005995E
:104D700001F0C8F801218907069001F05DF907905C
:104D8000FBF748FF099108900B9B0A9AFEF77CFB02
:104D9000074A084B0D910C90FBF718FE0F910E90EF
:104DA000FBF72AFC306001E002200DE700200BE752
:104DB0006666666666A64C4010B500F003F90028EA
:104DC0001CD1782000F0E4FE7820FFF7A5FEC82073
:104DD00000F08AFEFEF7D0FD0948FFF701FE044609
:104DE000FFF74EF8FF207430FEF76EFCC820FEF788
:104DF00069FF00F07CFF012000F068FD002010BD7D
:104E00001000002001461248407A002806D00128F0
:104E100007D0022808D003280CD108E0022008702F
:104E20000BE00420087008E00820087005E010205E
:104E3000087002E00020C043704700BF0448C07CF7
:104E4000002803D008784006000E08700020F3E721
:104E50001C00002001461348407A002806D0012893
:104E600008D0022809D003280FD10AE001208003CE
:104E700008800DE00C4808800AE00120000308804B
:104E800006E00120C002088002E00020C043704715
:104E900000BF0448C07C002802D008884010088069
:104EA0000020F4E71C0000209C1F0000014602487F
:104EB000007C0870002070471C000020014610484C
:104EC000007A002806D0012807D0022809D003283C
:104ED0000FD10AE0FA2008800EE0FF20F5300880AC
:104EE0000AE07D20C000088006E07D2000010880E7
:104EF00002E00020088000BF00BF002070470000D3
:104F00001C00002001460E48007A002806D0012827
:104F100007D0022808D003280CD108E0094808600F
:104F20000BE00948086008E00848086005E0084808
:104F3000086002E00020C043704700BF0020FBE78C
:104F40001C0000200000034300008342333303426F
:104F50003333834100B501461148C07A0300FDF7A1
:104F600055FF081805080B0E11141917BC200880EE
:104F700013E06220088010E02A2008800DE0142051
:104F800008800AE00A20088007E00520088004E085
:104F900000BF00BF0020088000BF00BF002000BD90
:104FA0001C00002001460648007F002802D0002097
:104FB000C043704702480838C08908800020F8E7DD
:104FC000240000201CB5802168460170504A1268F8
:104FD000917C4F4A526810786B460122FFF7DEFC45
:104FE0006420FDF77DFA002168460170484A126886
:104FF000917C474A526810786B460122FFF7CEFC3D
:10500000434A1268917D424A526810786B460622E4
:10501000FFF790FC68464079C007410F6846C078AA
:10502000C007800F084369464978C907C90F08437C
:105030000446002C0DD0012C03D101213448C17449
:1050400024E0022C03D100213148C1741EE000BFCE
:105050001CE02F4A1268D1782D4A526810786B46AE
:105060000122FFF767FC684600780407240F002C34
:1050700001D100BF0AE0042C05D100BF00BF01210F
:105080002348C17402E000212148C174FF21204857
:105090008172FF201E490872FF211D484172C172B2
:1050A0000021C943C181FF21017481740121017371
:1050B000083081760021C1760838417501750C21D0
:1050C0001630FBF7E4F900211148083001774177E9
:1050D0000838C1847D20000100F040FC022000F06F
:1050E00003FB2A2000F0BEFC322000F0FDFC002073
:1050F000FFF712FD002000F039FB002802D000204D
:10510000C0431CBD002000F043FD0020F9E7000073
:105110001C000020FFB587B005460E462C48407F96
:10512000002803D00020C0430BB0F0BD002E01D1F9
:10513000701EF9E7002426E0281B102801DD10204E
:1051400000E0281B87B232193946204600F090FD56
:10515000002802D00020C043E6E703AA39462046D3
:1051600000F00AF9002802D00020C043DCE7301923
:105170003A4603A9FBF739F9002802D00120C043C1
:10518000D2E7E01984B2AC42D6DB09980112684636
:1051900001720998C1B2684641720D48083800682A
:1051A000817E0B4808384068007802AB02220190EB
:1051B000FFF7F4FB002802D00020C043B4E7012130
:1051C00003484177024908390A98C8840020ABE7B0
:1051D0002400002038B50446282C02DD0020C043FE
:1051E00038BD002C16D1002000F002FC00216846DA
:1051F000017007214170294A1268917C274A526840
:1052000010786B460222FFF7C9FB00212348017585
:105210000020E5E7012000F0EBFB20206946087044
:10522000012C05D100204870052000F01BFC17E080
:10523000052C06DC012069464870052000F012FCB0
:105240000EE0142C06DC0220694648700A2000F0AB
:1052500009FC05E0032069464870142000F002FCB8
:10526000684640788001C01DC1B2684641700B4A53
:105270001268917C094A526810786B460222FFF747
:105280008DFB082105488172002101730121017500
:105290000020FFF741FC0020A2E700001C000020D6
:1052A000F8B504460F4616463248007F002801D163
:1052B000401EF8BD2F480838807A002801D1401ED2
:1052C000F7E72C4A083A1268917A2A4A083A526853
:1052D00010786B460222FFF72DFB002802D0002039
:1052E000C043E6E769460878050249780D43A542C0
:1052F00003DA00203070401EDBE71E4808384068A3
:1053000040884010A8421BDA1A4A083A1268517CB9
:10531000184A083A526810786B460122FFF70AFBD8
:10532000002802D00020C043C3E76846007810215F
:105330000840002804D000F05DF80120C043B8E721
:10534000E2B20C4B083B1B68D97A0A4B083B5B68FE
:1053500018783B46FFF7EEFA002802D00020C04341
:10536000A7E721462846FBF7A0F8401E3070002032
:105370009FE7000024000020F8B504460D461646BD
:10538000002E01D1501EF8BD1948807A002801D1A5
:10539000401EF8E7211268460170447040784019B9
:1053A000134949684989884202DD0020C043EAE781
:1053B0000F4A1268117E0E4A526810786B4602221C
:1053C000FFF7ECFA002802D00020C043DBE7EAB286
:1053D000074B1B68597D064B5B6818783346FFF70F
:1053E000A9FA002802D00020C043CCE70020CAE779
:1053F0001C00002008B57448807A002801D1401EA6
:1054000008BD00200090704A1268D17B6E4A526835
:1054100010786B460122FFF7C1FA002802D0002065
:10542000C043EDE7684A12685179674A52681078BC
:105430006B460122FFF7B2FA002802D00020C043D9
:10544000DEE7614A126811795F4A526810786B464C
:105450000122FFF7A3FA002802D00020C043CFE7C3
:1054600059480830007F002855D00C200090564A3B
:1054700012681179544A526810786B460122FFF77E
:105480008DFA002802D00020C043B9E7C020009068
:105490004D48807AC007C00F002804D069460878BC
:1054A000202108430090484A12681179464A526800
:1054B00010786B460122FFF771FA002802D0002015
:1054C000C0439DE74048407C002802D00220009065
:1054D00001E0002000903C4A1268D17B3A4A5268B1
:1054E00010786B460122FFF759FA002802D00020FD
:1054F000C04385E700200090334A12685179324A50
:10550000526810786B460122FFF748FA002859D0FC
:105510000020C04374E7042000902B4A12681179E0
:10552000294A526810786B460122FFF737FA0028A3
:1055300002D00020C04363E72348807C002805D1C7
:105540002148807AC007C00F002802D14020009077
:1055500001E0602000901C4A126811791A4A5268D2
:1055600010786B460122FFF719FA002802D00020BC
:10557000C04345E71448407C002802D00120009039
:1055800001E000200090104A1268D17B0E4A526858
:1055900010786B460122FFF701FA002802D00020A4
:1055A000C0432DE7084A12685179074A52681078BB
:1055B000054B10330122FFF7F1F9002802D000203B
:1055C000C0431DE700201BE71C000020F3B58FB08F
:1055D00002200E904348007F002804D0002000F0F5
:1055E00075F9012600E0002603A8FFF767FC06A86E
:1055F000FFF708FC01A8FFF7ADFC02A8FFF7D2FCFB
:1056000038480838807A049005A8FFF74FFC00243A
:1056100008E0002210990F98FEF7A4FE002800D1A0
:1056200002E0641C022CF4DB00BF022C01D1002537
:1056300027E0002408E0012208A90BA8FEF792FE4B
:10564000002800D102E0641C022CF4DB00BF022C15
:1056500001D1002515E008A91098FDF775FCC0B22E
:1056600007900BA90F98FFF7DBF8C7B20025002FB2
:1056700001D1012005430798002801D102200543EC
:1056800000BFFF20174908390872FF211548083864
:105690004172C1720021C943C181FF21817201742D
:1056A000012101736846808900F058F96846007E40
:1056B00000F01AF86846808800F0D4F9684600893E
:1056C00000F012FA049800F063FA6846007DFFF7D4
:1056D00023FA002E02D0012000F0F8F8284611B07D
:1056E000F0BD00002400002038B504461E48807A32
:1056F000002801D1401E38BD022C06D0042C07D052
:10570000082C08D0102C0CD108E0002000900BE0F1
:105710000820009008E01020009005E0182000907C
:1057200002E00020C043E6E700BF0F48407A694628
:105730000978C910884201D10020DCE70A4A1268C2
:10574000D179094A526810786B460122FFF726F991
:10575000002802D00020C043CDE768460078C11081
:10576000014841720020C6E71C00002038B50446FD
:105770005548807CA04201D1002038BD002C4AD081
:10578000514A12681179504A526810786B460122CA
:10579000FFF7D0F8002802D00020C043EDE76946AB
:1057A0000878202188430090474A12681179464AB8
:1057B000526810786B460122FFF7F0F8002802D0FB
:1057C0000020C043D9E70320FCF78AFE02200090A6
:1057D0003D480830807E002804D069460878802142
:1057E0000843009038480830C07E002804D069463D
:1057F0000878302108430090334A1268117D324AFC
:10580000526810786B460122FFF7C8F8002857D07D
:105810000020C043B1E72C4A126811792A4A526825
:1058200010786B460122FFF785F8002802D000208F
:10583000C043A2E72448807AC007C00F002805D0E3
:105840006946087820210843009004E069460878FA
:105850002021884300901C4A126811791A4A526824
:1058600010786B460122FFF799F8002802D000203B
:10587000C04382E70320FCF733FE13480830807EE4
:10588000002802D08020009001E0002000900E4807
:105890000830C07E002804D06946087830210843CB
:1058A0000090094A1268117D074A526810786B46C9
:1058B0000122FFF773F8002802D00020C0435CE704
:1058C00001488474002058E71C00002038B50446C5
:1058D0002148007FA04201D1002038BD002C24D0F7
:1058E0001D48407F002801D1401EF6E7002000F04F
:1058F00047FA0020FFF73AFF17490839C88C00F033
:10590000F3F80020009014490839496808786B467C
:1059100001222321FFF742F801210F4801770120DE
:1059200000F02EFAFFF766FD14E0002000F028FAE0
:1059300009480838007C0090074908394968087808
:105940006B4601222321FFF729F800210248017745
:10595000FFF750FD0020C0E72400002038B50446C2
:105960002248807A002801D1401E38BD2046FA2CFA
:105970000CD0FF38F53800280BD0FF38F538002858
:105980000AD07D21C900401A0CD108E00020009007
:105990000BE00820009008E01020009005E018209F
:1059A000009002E00020C043DFE700BF0F48007A0C
:1059B00069460978C910884201D10020D5E70B4A11
:1059C00012689179094A526810786B460122FEF7F5
:1059D000E5FF002802D00020C043C6E768460078F3
:1059E000C010024908720020BFE700001C00002020
:1059F00038B504461A48C07EA04201D1002038BD07
:105A0000002C02D03020009001E0002000901448CB
:105A10000838807C002804D06946087802210843B1
:105A200000900F48807E002804D0694608788021C5
:105A3000084300900A4A083A1268117D084A083A59
:105A4000526810786B460122FEF7A8FF002802D0AA
:105A50000020C043D3E70248C4760020CFE700000F
:105A60002400002038B504461E48807A002801D161
:105A7000401E38BDBC2C02DB0120009015E0622CDA
:105A800002DB0220009010E02A2C02DB03200090B1
:105A90000BE0142C02DB0420009006E00A2C02DB51
:105AA0000520009001E0062000900E48C07A69466B
:105AB0000978884201D10020DBE70A4A1268917810
:105AC000084A526810786B460122FEF767FF0028EB
:105AD00002D00020C043CCE7684601780148C1727B
:105AE0000020C6E71C00002038B504462748807A0D
:105AF000002801D1401E38BD24480830007F00280E
:105B000002D00020C043F6E72048007D00280BD0DB
:105B1000002C06D0282C04DCE0B2FFF75BFB002051
:105B2000E9E70020FFF756FB042C01DA042404E027
:105B30007D20C000844200DD044621467D20C00057
:105B4000FAF7B3FC401EC0B20090104A12685178B8
:105B50000E4A526810786B460122FEF71FFF00289C
:105B600002D00020C043C6E768460078411C7D2073
:105B7000C000FAF79AFC81B20448C1810146C98984
:105B80004810FFF76FFF0020B5E700001C00002061
:105B900038B5044670202040002802D00120009033
:105BA00006E0002C02D00020009001E04020009090
:105BB0002E4A1268917C2D4A526810786B46012259
:105BC000FEF7ECFE002804D0002128488172481E10
:105BD00038BD684600784021884324490873002175
:105BE000009140202040002804D169460878042113
:105BF0000843009020202040002804D169460878FE
:105C000002210843009010202040002804D169465A
:105C1000087801210843009008202040002804D182
:105C200069460878382108430090104A1268D17CF0
:105C30000E4A526810786B460122FEF7AFFE00282C
:105C400004D0002109488172481EC1E7002C04D00D
:105C5000082C02D00020FFF7CBFE044884720021FC
:105C600001753220FCF73CFC0020B1E71C0000204D
:105C7000F8B504460D461646002E01D1501EF8BD5B
:105C80001948807A002801D1401EF8E721126846A1
:105C90000170447040784019134949684989884225
:105CA00002DD0020C043EAE70F4A1268117E0E4A67
:105CB000526810786B460222FEF770FE002802D070
:105CC0000020C043DBE7EAB2074B1B68597D064B57
:105CD0005B6818783346FEF761FE002802D000208A
:105CE000C043CCE70020CAE71C000020704770B515
:105CF00088B002A905A8FFF769FC0446072C3CD12F
:105D000001A8FFF7FFF80598FBF7C0F806460199D0
:105D100000F092F90546FBF757F805900698FBF757
:105D2000B5F80646019900F087F90546FBF74CF8EF
:105D300006900798FBF7AAF80646019900F07CF94F
:105D40000546FBF741F8079005A8FDF7F7FF684601
:105D5000FFF780F869460988029848430290684630
:105D60000088039941430391694609880498484390
:105D7000049002A8FDF7F6FE00BF08B070BD000059
:105D800038B504462848007F00281DD0002C02D0DA
:105D90000220009001E000200090234A083A126897
:105DA000D17B214A083A526810786B460122FEF7EF
:105DB000F5FD002802D00020C04338BD68460178B8
:105DC0001948083841742CE017480838807A0028B0
:105DD00001D1401EF1E7002C06D013480838407C62
:105DE000002801D00020E8E7002C02D0012000901C
:105DF00001E0002000900C4A083A1268D17B0A4A60
:105E0000083A526810786B460122FEF7C7FD002859
:105E100002D00020C043D0E7684601780248083825
:105E200041740020C9E7000024000020F8B50646B0
:105E30000C46FCF79DF9051E0F4600D001200143DA
:105E400049000B484908411AC90F0DD0002E01D056
:105E5000012100E000210C4361004908401AC00FF5
:105E600002D10120FBF7A3F828463946F8BD00000F
:105E70000000F07F10B500290AD00878002807D06C
:105E800005487844FCF728FA002801D0002010BD0E
:105E90000248784410BD0000021B0000FA1A0000FE
:105EA00070B501250C002D051C4310D4EC4206D41E
:105EB000AC420AD4994200D070BD904270BDE94214
:105EC00017D4EB4215D4994270BD894270BDEC42A3
:105ED00006D5AC42F9D58B4200D070BD824270BD70
:105EE0006D004C00EC4204D25C00EC4201D28B42CB
:105EF00070BD034C30B4FCF7F3F830BC70BD00BF8C
:105F00001900120470B501250400ED074C4020D49F
:105F1000441A01D2001B0919C60D4B00F2B2FF2A28
:105F200029D01B0E2CD000020C02D31A2C43DC40CB
:105F30002843051910D2280A02D3401C6D0611D03F
:105F4000761EF6058019FF2A00DA70BDC00DC00567
:105F500070BD694000F0FAF801200543C541521CAC
:105F6000761CE8E764089C40C90161408900E7D1DC
:105F70000124A043E4E71B0E440200D0034870BD97
:105F8000002AFCD1C00FC00770BD00BF0000C07F59
:105F900001230200DB050A430DD4DA4203D49A42FE
:105FA00007D488427047D84214D4D94212D48842C8
:105FB000704780427047DA4203D59A42F9D5814250
:105FC00070475B004200DA4204D24A00DA4201D252
:105FD0008142704710B5024AFBF76EFC10BD00BF4E
:105FE0000900120401230200DB050A430DD4DA4242
:105FF00003D49A4207D488427047D84214D4D94275
:1060000012D48842704780427047DA4203D59A42E0
:10601000F9D5814270475B004200DA4204D24A005F
:10602000DA4201D28142704710B5024AFBF744FCC4
:1060300010BD00BF0900160470B5420064414B005A
:106040005C41120E39D01B0E38D0FF2A3CD0FF2BFA
:106050003AD040024902400A490A060045184E4318
:10606000000A090AD2184843ED017F3A0104731A65
:106070004019190C4318990F04D001215B084907F6
:106080005B1A521CD80904D3401CF50301D19D06AC
:1060900007D0FF2A08D2D50506D0E40720434019CF
:1060A00070BD0125A843F4E7002A01DCE00770BDBC
:1060B0002402FF202043C00570BD1B0EFF2A03D021
:1060C000FF2B01D0E00770BDFF2645003606B54224
:1060D00006D84D00B54203D8D218FF2A00D0E7E712
:1060E000004870BD0000C07F01230A00DB050243A9
:1060F0000DD4DA4203D49A4207D481427047D94280
:1061000014D4D84212D48142704789427047DA428F
:1061100003D59A42F9D5884270475B004A00DA42BB
:1061200004D24200DA4201D28842704748404140DE
:1061300010B5024A4840FBF7BFFB10BD090016042A
:1061400070B501250400ED074C4022D4441A02D258
:106150006C40001B0919C60D4B00F2B2FF2A4BD050
:106160001B0E50D000020C02D31A2C43DC40A84373
:10617000051B05D5AD0019D36D08761E521E37D00C
:10618000F605280A01D2801970BD70416D0603D052
:1061900070BD6940FFF7BCFE9C40090261404900A8
:1061A00001D0401E70BD0124A04370BD6D081DD0FC
:1061B00001202B0C01D12D0410302B0E01D12D020A
:1061C00008302B0F01D12D01001DAB0F01D1AD0007
:1061D000801CEB0F01D16D00401C6D00361A121AA5
:1061E000680AF5054019012A02DB70BD002070BD68
:1061F000C036300AC00770BD1B0E440201D1FF2B10
:1062000000D1024870BD002AF0D070BD0000C07FF0
:1062100003B402487844844603BC604743AFFFFFA1
:106220000600000006000000060000000600000056
:10623000060000000600000001000000030000004E
:10624000020000000400000006000000080000003A
:106250000A0000000C0000000E000000100000000A
:10626000808D5B00001BB700002D310101366E01EF
:1062700080A8120100366E0100512502006CDC027C
:1062800001A24A040000000000000000000000001D
:1062900000000000000000F80000000000000033D3
:1062A0003000000000100C06100C0600000000007A
:1062B0000000000040C07840C0784000043F040463
:1062C0003F040400007088FC08300000001820FF24
:1062D000211E0000F008F000E018000000211C035F
:1062E0001E211E0000F00888700000001E212324DB
:1062F0001927211010160E000000000000000000F9
:1063000000000000000000E0180402000000000788
:106310001820400000020418E0000000004020188F
:1063200007000000404080F0804040000202010F62
:1063300001020200000000F0000000000101011F46
:1063400001010100000000000000000080B07000AA
:10635000000000000000000000000000000101013A
:1063600001010101000000000000000000303000C9
:1063700000000000000000008060180400601806A3
:106380000100000000E010080810E000000F1020DD
:1063900020100F00001010F8000000000020203F27
:1063A00020200000007008080888700000302824B1
:1063B0002221300000300888884830000018202052
:1063C00020110E000000C02010F800000007042477
:1063D000243F240000F808888808080000192120BC
:1063E00020110E0000E0108888180000000F112016
:1063F00020110E0000380808C83808000000003FCF
:10640000000000000070880808887000001C22212D
:1064100021221C0000E010080810E00000003122DA
:1064200022110F00000000C0C0000000000000307A
:1064300030000000000000800000000000008060CC
:10644000000000000000804020100800000102044D
:106450000810200040404040404040000404040434
:1064600004040400000810204080000000201008F0
:1064700004020100007048080808F0000000003025
:1064800036010000C030C828E810E00007182724B3
:1064900023140B000000C038E0000000203C230261
:1064A0000227382008F8888888700000203F2020C4
:1064B00020110E00C03008080808380007182020F6
:1064C0002010080008F808080810E000203F2020ED
:1064D00020100F0008F88888E8081000203F2020CE
:1064E0002320180008F88888E8081000203F2000C2
:1064F00003000000C03008080838000007182020FA
:10650000221E020008F808000008F808203F2101B8
:1065100001213F20000808F8080800000020203F63
:106520002020000000000808F8080800C0808080D3
:106530007F00000008F888C028180800203F2001CC
:106540002638200008F8080000000000203F202026
:106550002020300008F8F800F8F80800203F003F3D
:10656000003F200008F830C00008F808203F200055
:1065700007183F00E01008080810E0000F10202066
:1065800020100F0008F808080808F000203F21013B
:1065900001010000E01008080810E0000F18242492
:1065A00038504F0008F8888888887000203F200005
:1065B000030C3020007088080808380000382021BB
:1065C00021221C00180808F8080818000000203FC5
:1065D0002000000008F808000008F808001F20202C
:1065E00020201F000878880000C8380800000738FD
:1065F0000E010000F80800F80008F800033C07004E
:10660000073C0300081868808068180820302C03B5
:10661000032C30200838C800C83808000000203F8C
:106620002000000010080808C8380800203826217B
:1066300020201800000000FE020202000000007F7F
:1066400040404000000C30C000000000000000018D
:106650000638C00000020202FE0000000040404078
:106660007F0000000000040202020400000000009D
:10667000000000000000000000000000808080801A
:106680008080808000020204000000000000000002
:10669000000000000000808080800000001924229B
:1066A00022223F2008F8008080000000003F1120D7
:1066B00020110E000000008080800000000E1120DC
:1066C00020201100000000808088F800000E1120BA
:1066D00020103F200000808080800000001F2222C8
:1066E00022221300008080F0888888180020203F34
:1066F000202000000000808080808000006B949447
:106700009493600008F8008080800000203F210002
:1067100000203F2000809898000000000020203FCB
:1067200020200000000000809898000000C08080B9
:10673000807F000008F8000080808000203F240255
:106740002D302000000808F8000000000020203F45
:10675000202000008080808080808000203F2000FA
:106760003F20003F8080008080800000203F21008B
:1067700000203F200000808080800000001F20203B
:1067800020201F00808000808000000080FFA1206A
:1067900020110E000000008080808000000E11207B
:1067A00020A0FF80808080008080800020203F210A
:1067B00020000100000080808080800000332424BD
:1067C00024241900008080E0808000000000001F69
:1067D000202000008080000000808000001F20201A
:1067E00020103F20808080000080808000010E30DB
:1067F0000806010080800080008080800F300C033C
:106800000C300F0000808000808080000020312E3E
:106810000E312000808080000080808080818E701A
:106820001806010000808080808080000021302CCC
:106830002221300000000000807C020200000000E5
:10684000003F404000000000FF000000000000008A
:10685000FF0000000002027C800000000040403F7A
:106860000000000000060101020204040000000014
:10687000000000000000F010101010FF10101010A9
:10688000F000000000000F04040404FF04040404EA
:106890000F000000201008FC032020107F8888844F
:1068A00082E0000004040405040404FF040404045A
:1068B00004040400000000000000C03FC00000000D
:1068C00000000000804020100C03000000030C10AA
:1068D000204080000000FE2222222222E2222222E8
:1068E0003E0000000000FF4121110101030D1121B4
:1068F00041F100000000101010FF10101010FF10E8
:106900001010000000048444241704040404172415
:1069100044840400202424A4FE23222000F8080834
:1069200008F8000010080601FF010600003F1010E3
:10693000103F000000FE0212929292F29292921286
:1069400002FE000000FF40484848484F484A4C4873
:1069500040FF000020242424FE23222020FF2022A8
:106960002CA02000000848847F02414020130C1412
:106970002241F80080642C342424EC322222322E6E
:1069800023A260000041219189874D552525554D51
:1069900081808000008060F8074020180F08C80838
:1069A00008281800010000FF00100C0340807F0041
:1069B000010618000000FEAAAAA9F900A09E828282
:1069C0009EA0200040300F0222423E8080432C10C7
:1069D0002C43800000FE22FE00FE22FE00FC162555
:1069E00084FC0000601F22BF403F82FF0013121290
:1069F00052827E001010FF1010F00000FE222222B2
:106A0000FE00000080601F00003F40404F444444AF
:106A10004F407800201888888888898E88888888E0
:106A200088281800000000000040807F000000005F
:106A300000000000807000FF08104060504C434090
:106A40005060C000000000FF000000FE42424242D1
:106A500042FE000000FC848484FC0000FC444444AA
:106A6000C2434200003F1010103F80601F00000032
:106A7000FF00000020202020202020FF20202020B8
:106A80002020200080804020100C0300030C1020E8
:106A900040808000102C2424A4A465A6242424244F
:106AA000A4340C0040494929241452897F040A1156
:106AB000102020001010F01F10F000808282E2925F
:106AC0008A868000402215081661000040807F0001
:106AD000000000006800000476005401F7FD00018A
:106AE00075191A0C6A231B1C1F207274433B413812
:106AF000393A6B6C376F06246D6E700083000000AE
:106B000000080000000100183200050000002041CC
:106B10000000D242295C0F3E9A99993E3333733F6D
:106B2000295C0F3E000070000000002400000002FD
:106B30000003000000650054FFEF0000FA80000B26
:106B400012820001030C30C30E8C8CE914D5400274
:106B500013710F8E3883F8833000F883258EF88305
:106B60003000F883FFFFFFFF0FFEA9D624000400CA
:106B70001A8279A10000003CFFFF00000010000015
:106B800038836FA2003E03304000000002CAE309D0
:106B90003E800000200000000000000040000000D7
:106BA00060000000000C0000000C186E000006924F
:106BB0000A16C0DFFFFF0256FD8CD377FFE1C496B3
:106BC000E0C5BEAA00000000FFFF0B2B0000165717
:106BD000000003594000000000001DFA00026C1D77
:106BE000000000003FFFDFEB003EB3B6000D22784F
:106BF00000002F3C00000000001942B5000039A23F
:106C00000000B365D90E9FC91DCF4C343000000081
:106C1000500000003BB67AE80064000000C80000A5
:106C200000000000100000001000FA921000225E28
:106C3000000D229F0001000000320000FF4600000E
:106C400063D400001000000004D6000004CC000053
:106C500004CC0000000010720000004000000000A2
:106C60000000000000060002000500070000000010
:106C70000064000000000000000000050005006442
:106C800000200000000000000000000000004000A4
:106C90000000030000000032F8980000FF650000CB
:106CA000830F0000FF9BFC000000000000000000BC
:106CB00000000000000000000000000000000000D4
:106CC00000000000000000000000000000000000C4
:106CD0000000100040000000000000060000B26A42
:106CE000000200000001FB830068000000D9FC00E6
:106CF0007CF1FF830000000000650000006403E8F1
:106D000000640028000000250000000016A000001C
:106D10000000100000001000002F0000000001F42F
:106D20000000100000280000FFFF4581FFFFFA72FD
:106D30000000000000000000004400050005BAC685
:106D4000004778A2000000010000000000000600DB
:106D5000000000140000254D002F706D000005AEEE
:106D6000000C02D000000000000000000000000045
:106D700000000000001B00000000000000000000F8
:106D80000000000000640000000800000000000097
:106D900000000000000000000000000000000000F3
:106DA00000000000000000000000000000000000E3
:106DB00000000000000000000000000000000000D3
:106DC00000000000000000000000000000000000C3
:106DD00000000000000000000000000000000000B3
:106DE00000000000001B0000000000000000000088
:106DF000000E000E00000AC7000400000000003270
:106E0000FFFFFF9C00000B2B0000000200000001B0
:106E100000000064FFE5000000000000000000002A
:106E20000000000000000001000000000001000060
:106E300000000000000180000001800000018000CF
:106E4000002426D30000000000000000000600100F
:106E50000096003C00000000000000000000000060
:106E6000000000000C0A4E68CDCF77095016675914
:106E7000C619CE82000000000000000000000000E3
:106E800000000000000000000000000017D7840090
:106E9000030000000000000000000000C7938F9D69
:106EA0001E1B1C1900000000000000000000000074
:106EB0000000000000000000000000000203188530
:106EC000000040000000000300000003000000007C
:106ED0000000000040000000000000000000000072
:106EE00000000000000000000000000000000000A2
:106EF0000000000000000000000000000000000092
:106F00000000000000000000677DDF7E72902E55BB
:106F10004CF6E688000000000000000000000000C1
:106F200000000000D8DCB4B8B0D8B9ABF3F8FAB3BD
:106F3000B7BB8E9EAEF132F51BF1B4B8B08097F1BD
:106F4000A9DFDFDFAADFDFDFF2AAC5CDC7A90CC941
:106F50002C97F1A989264666B28999A92D557DB04D
:106F6000B08AA896365676F1BAA3B4B280C0B8A853
:106F70009711B28398BAA3F0240844106418B2B9E8
:106F8000B49883F1A329557DBAB5B1A38393F000DA
:106F90002850F5B2B6AA839328547CF1B9A3829302
:106FA00061BAA2DADEDFDB819AB9AEF5606870F112
:106FB000DABAA2DFD9BAA2FAB9A38292DB31BAA2B5
:106FC000D9BAA2F8DF85A4D0C1BBAD83C2C5C7B80A
:106FD000A2DFDFDFBAA0DFDFDFD8D8F1B8AAB38D38
:106FE000B4980D355DB2B6BAAF8C96198F9FA70EC7
:106FF000161EB49AB8AA872C547CBAA4B08AB6914B
:10700000325676B28494A4C808CDD8B8B4B0F199F9
:1070100082A82D557D98A80E161EA22C547C92A4F1
:10702000F02C5078F184A898C4CDFCD80DDBA8FCD6
:107030002DF3D9BAA6F8DABAA6DED8BAB2B68696D1
:10704000A6D0F3C841DAA6C8F8D8B0B4B882A892DE
:10705000F52C548898F135D9F418D8F1A2D0F8F964
:10706000A884D9C7DFF8F883C5DADF69DF83C1D820
:10707000F40114F1A8824EA884F311D182F5D992BB
:10708000289788F109F41C1CD884A8F3C0F9D1D939
:107090009782F129F40DD8F3F9F9D1D982F4C2031A
:1070A000D8DEDF1AD8F1A2FAF9A88498D9C7DFF898
:1070B000F8F883C7DADF69DFF883C3D8F40114F185
:1070C00098A8822EA884F311D182F5D9925097887E
:1070D000F109F41CD884A8F3C0F8F9D1D99782F14A
:1070E00049F40DD8F3F9F9D1D982F4C403D8DEDF1D
:1070F000D8F1AD8898CCA809F9D98292A8F57CF18D
:10710000883ACF944A6E98DB6931DAADF2DEF9D86D
:107110008795A8F221D1DAA5F9F417D9F1AE8ED06E
:10712000C0C3AE82C684C3A88595C8A588F2C0F145
:10713000F4010EF18E9EA8C63E56F554F18872F405
:107140000115F19845856EF58E9E0488F142985A96
:107150008E9E068869F4011CF1981E1108D0F50472
:10716000F11E970202983625DBF9D985A5F3C1DA1D
:1071700085A5F3DFD88595A8F309DAA5FAD8829218
:10718000A8F578F1881A849F26889821DAF41DF3EF
:10719000D8879F39D1AFD9DFDFFBF9F40CF3D8FAE8
:1071A000D0F8DAF9F9D0DFD9F9D8F40BD8F3879F02
:1071B00039D1AFD9DFDFF41DF3D8FAFCA869F9F9AA
:1071C000AFD0DADEFAD9F88F9FA8F1CCF398DB457F
:1071D000D9AFDFD0F8D8F18F9FA8CAF38809DAAF0A
:1071E0008FCBF8D8F2AD978D0CD9A5DFF9BAA6F3FD
:1071F000FAF412F2D8950DD1D9BAA6F3FADAA5F2BB
:10720000C1BAA6F3DFD8F1BAB2B68696A6D0CAF351
:1072100049DAA6CBF8D8B0B4B8D8AD84F2C0DFF163
:107220008FCBC3A8B2B68696C8C1CBC3F3B0B4881F
:1072300098A821DB718D9D71859521D9ADF2FAD881
:107240008597A828D9F408D8F28D29DAF405D9F25F
:1072500085A4C2F2D8A88D9401D1D9F411F2D887AF
:1072600021D8F40AD8F28498A8C801D1D9F411D849
:10727000F3A4C8BBAFD0F2DEF8F8F8F8F8F8F8F8E5
:10728000D8F1B8F6B5B9B08A95A3DE3CA3D9F8D841
:107290005CA3D9F8D87CA3D9F8D8F8F9D1A5D9DF5F
:1072A000DAFAD8B18530F7D9DED8F830ADDADED8E1
:1072B000F2B48C99A32D557DA083DFDFDFB591A0BB
:1072C000F629D9FBD8A0FC29D9FAD8A0D051D9F8F1
:1072D000D8FC51D9F9D879D9FBD8A0D0FC79D9FA02
:1072E000D8A1F9F9F9F9F9A0DADFDFDFD8A1F8F8C8
:1072F000F8F8F8ACDEF8ADDE8393AC2C547CF1A842
:10730000DFDFDFF69D2CDAA0DFD9FADB2DF8D8A875
:1073100050DAA0D0DED9D0F8F8F8DB55F8D8A87844
:10732000DAA0D0DFD9D0FAF8F8F8F8DB7DF8D89CED
:10733000A88CF530DB38D9D0DEDFA0D0DEDFD8A8CE
:1073400048DB58D9DFD0DEA0DFD0DED8A868DB70FC
:10735000D9DFDFA0DFDFD8F1A888902C547C98A873
:10736000D05C38D1DAF2AE8CDFF9D8B087A8C1C1D1
:10737000B188A8C6F9F9DA36D8A8F9DA36D8A8F962
:10738000DA36D8A8F9DA36D8A8F9DA36D8F78D9DE2
:10739000ADF818DAF2AEDFD8F7ADFA30D9A4DEF9DD
:1073A000D8F2AEDEFAF983A7D9C3C5C7F1889BA787
:1073B0007AADF7DEDFA4F8849408A797F300AEF265
:1073C0009819A488C6A39488F632DFF28393DB0968
:1073D000D9F2AADFD8D8AEF8F9D1DAF3A4DEA7F152
:1073E000889B7AD8F38494AE19F9DAAAF1DFD8A889
:1073F00081C0C3C5C7A39283F628ADDED9F8D8A350
:1074000050ADD9F8D8A378ADD9F8D8F8F9D1A1DA28
:10741000DEC3C5C7D8A18194F818F2B089ACC3C542
:10742000C7F1D8B8B4B09786A8319B069907AB9737
:1074300028889BF00C201440B0B4B8F0A88A9A2891
:107440005078B79BA8295179247059446938644809
:1074500031F1BBAB88002C547CF0B38BB8A8042866
:107460005078F1B088B49726A85998BBABB38B027B
:10747000264666B0B8F08A9CA82951798B295179A3
:107480008A2470598B2058718A4469388B39406836
:107490008A6448318B30496088F1AC002C547CF010
:1074A0008CA804285078F1889726A85998AC8C02AB
:1074B000264666F0899CA829517924705944693878
:1074C000644831A98809205970AB11384069A8195E
:1074D0003148608CA83C415C207C00F1879819867B
:1074E000A86E767EA999882D557DD8B1B5B9A3DF50
:1074F000DFDFAED0DFAAD0DEF2ABF8F9D9B087C4B7
:10750000AAF1DFDFBBAFDFDFB9D8B1F1A3978E609F
:10751000DFB084F2C8F8F9D9DED89385F14AB18397
:10752000A308B5839A0810B79F10D8F1B0BAAEB0CF
:107530008AC2B2B68E9EF1FBD9F41DD8F9D90CF1EE
:10754000D8F8F8AD61D9AEFBD8F40CF1D8F8F8ADA5
:1075500019D9AEFBDFD8F416F1D8F8AD8D61D9F4A6
:10756000F4ACF59C9C8DDF2BBAB6AEFAF8F40BD8D0
:10757000F1AED0F8AD51DAAEFAF8F1D8B9B1B6A3A0
:10758000839C08B9B1839AB5AAC0FD3083B79F1018
:10759000B58B93F20202D1ABDADED8F1B080BAAB90
:1075A000C0C3B284C1C3D8B1B9F38BA391B609B437
:1075B000D9ABDEB0879CB9A3DDF1B38B8B8B8B8B02
:1075C000B087A3A3A3A3B28BB69BF2A3A3A3A3A349
:1075D000A3A3A3A3A3F1B087B59AA3F39BA3A3DCB2
:1075E000BAACDFB9A3A3A3A3A3A3A3A3A3A3A3A3F9
:1075F000A3A3A3A3D8D8D8BBB3B7F1AAF9DAFFD90C
:10760000809AAA28B48098A720B79787A86688F0A0
:107610007951F1902C870CA781976293F07171607A
:1076200085940129517990A5F1284C6C870C951807
:107630008578A38390284C6C886CD8F3A28200F2E2
:1076400010A8921980A2F2D926D8F188A84DD9485D
:10765000D896A83980D93CD89580A839A68698D9DB
:107660002CDA87A72CD8A8899519A980D938D8A849
:107670008939A980DA3CD8A82EA83990D90CD8A885
:10768000953198D90CD8A809D9FFD801DAFFD89537
:1076900039A9DA26FFD890A80D8999A810809821D9
:1076A000DA2ED88999A83180DA2ED8A8869631802A
:1076B000DA2ED8A8873180DA2ED8A88292F34180BA
:1076C000F1D92ED8A882F31980F1D92ED882ACF343
:1076D000C0A28022F1A62EA72EA92298A829DAAC52
:1076E000DEFFD8A2F22AF1A92E8292A8F23180A65A
:1076F00096F1D900AC8C9C0C30ACDED0DEFFD88C7F
:107700009CACD010ACDE8092A2F24C82A8F1CAF2FE
:1077100035F19688A6D900D8F1FF818283848586C9
:107720008788898B8C8D8E8F919293959697999A55
:107730009C9D9FA0A2A3A5A7A8AAACAEB0B2B3B5CA
:10774000B7B9BCBEC0C2C5C7C9CCCED1D4D7D9DCAD
:10775000DFE2E6E9ECF0F3F7FAFE000000000000DB
:10776000555555555555C53F7D6FEB0312D6D4BFC2
:107770005544880E55C1C93F3B8F68B52882A4BFC8
:1077800088B20175E0EF493F09F7FD0DE13D023F89
:107790004B2D8A1C273A03C0C88A599CE52A004011
:1077A00059018D1B6C06E6BF82922EB1C5B8B33F5E
:1077B00080807F7E7D7C7B7A79787776767574732E
:1077C000727171706F6E6E6D6C6C6B6A6A696868ED
:1077D000676666656464636362616160605F5F5E83
:1077E0005E5D5D5C5C5B5B5A5A59595858575756F9
:1077F000565555555454535352525251515050505E
:107800004F4F4F4E4E4D4D4D4C4C4C4B4B4B4A4AAF
:107810004A494949484848474747474646464545F3
:10782000454444444443434343424242424141412C
:107830004FBB610567ACDD3F182D4454FB21E93F88
:107840009BF681D20B73EF3F182D4454FB21F93F77
:10785000E2652F227F2B7A3C075C143326A6813CFD
:10786000BDCBF07A8807703C075C143326A6913CA8
:10787000C4EB98999999C9BF711623FEC671BCBF14
:107880006D9A74AFF2B0B3BF9AFDDE522DDEADBF7C
:107890002F6C6A2C44B4A2BF0D5555555555D53F94
:1078A000FF8300922449C23F6E204CC5CD45B73FAF
:1078B000513DD0A0660DB13FEB0D76244B7BA93F27
:1078C00011DA22E33AAD903F000000000000000012
:1078D00002400000000000A0000000000540000081
:1078E000000000C8000000000C4000000000409CA8
:1078F00000000000194000000020BCBE0000000095
:1079000034400000BFC91B8E00000004B5400000D9
:10791000504BCFD06607E2CF010000006C41000061
:107920003E8251AADFEEA73401000000D9420000D8
:10793000DCB5A0E23A301F97FFFFFFFFB44500001F
:10794000FD25A0C8E9A3C14FFFFFFFFFFF3F0000D7
:107950000000008000000000FF3F000000000080E9
:1079600000000000A079000000000020540000008A
:1079700004010000F47900005400002074040000A9
:10798000200100001C00000043000000F8FFFFFF82
:107990000C0000000E0000000F0000002E00000090
:1079A00000000000040000000100000000127A0046
:1079B000FF000000FF00000001000000E06A00007E
:1079C000D46A000000000000000000000000000079
:1079D00000000000000000000000000000000000A7
:1079E00000000000FC6A0000000000000000000031
:0479F0000000000093
:04000005000000C136
:00000001FF
