Component: ARM Compiler 5.06 update 7 (build 960) Tool: armlink [4d3601]

==============================================================================

Image Symbol Table

    Local Symbols

    Symbol Name                              Value     Ov Type        Size  Object(Section)

    RESET                                    0x00000000   Section      192  startup_cw32l010.o(RESET)
    ../clib/microlib/division.c              0x00000000   Number         0  uldiv.o ABSOLUTE
    ../clib/microlib/division.c              0x00000000   Number         0  uidiv.o ABSOLUTE
    ../clib/microlib/division.c              0x00000000   Number         0  ldiv.o ABSOLUTE
    ../clib/microlib/init/entry.s            0x00000000   Number         0  entry2.o ABSOLUTE
    ../clib/microlib/init/entry.s            0x00000000   Number         0  entry5.o ABSOLUTE
    ../clib/microlib/init/entry.s            0x00000000   Number         0  entry8a.o ABSOLUTE
    ../clib/microlib/init/entry.s            0x00000000   Number         0  entry7b.o ABSOLUTE
    ../clib/microlib/init/entry.s            0x00000000   Number         0  entry11a.o ABSOLUTE
    ../clib/microlib/init/entry.s            0x00000000   Number         0  entry12b.o ABSOLUTE
    ../clib/microlib/init/entry.s            0x00000000   Number         0  entry11b.o ABSOLUTE
    ../clib/microlib/init/entry.s            0x00000000   Number         0  entry10b.o ABSOLUTE
    ../clib/microlib/init/entry.s            0x00000000   Number         0  entry10a.o ABSOLUTE
    ../clib/microlib/init/entry.s            0x00000000   Number         0  entry9b.o ABSOLUTE
    ../clib/microlib/init/entry.s            0x00000000   Number         0  entry9a.o ABSOLUTE
    ../clib/microlib/init/entry.s            0x00000000   Number         0  entry8b.o ABSOLUTE
    ../clib/microlib/init/entry.s            0x00000000   Number         0  entry12a.o ABSOLUTE
    ../clib/microlib/init/entry.s            0x00000000   Number         0  entry.o ABSOLUTE
    ../clib/microlib/init/entry.s            0x00000000   Number         0  entry7a.o ABSOLUTE
    ../clib/microlib/longlong.c              0x00000000   Number         0  llsshr.o ABSOLUTE
    ../clib/microlib/longlong.c              0x00000000   Number         0  llushr.o ABSOLUTE
    ../clib/microlib/longlong.c              0x00000000   Number         0  llshl.o ABSOLUTE
    ../clib/microlib/string/memset.c         0x00000000   Number         0  memseta.o ABSOLUTE
    ../clib/microlib/stubs.s                 0x00000000   Number         0  iusefp.o ABSOLUTE
    ../fplib/microlib/f2d.c                  0x00000000   Number         0  f2d.o ABSOLUTE
    ../fplib/microlib/fpadd.c                0x00000000   Number         0  dadd.o ABSOLUTE
    ../fplib/microlib/fpadd.c                0x00000000   Number         0  fadd.o ABSOLUTE
    ../fplib/microlib/fpdiv.c                0x00000000   Number         0  fdiv.o ABSOLUTE
    ../fplib/microlib/fpepilogue.c           0x00000000   Number         0  depilogue.o ABSOLUTE
    ../fplib/microlib/fpepilogue.c           0x00000000   Number         0  fepilogue.o ABSOLUTE
    ../fplib/microlib/fpfix.c                0x00000000   Number         0  ffixui.o ABSOLUTE
    ../fplib/microlib/fpfix.c                0x00000000   Number         0  dfixui.o ABSOLUTE
    ../fplib/microlib/fpflt.c                0x00000000   Number         0  ffltui.o ABSOLUTE
    ../fplib/microlib/fpmul.c                0x00000000   Number         0  fmul.o ABSOLUTE
    ../fplib/microlib/fpscalb.c              0x00000000   Number         0  fscalb.o ABSOLUTE
    Driver\\cw32l010_adc.c                   0x00000000   Number         0  cw32l010_adc.o ABSOLUTE
    Driver\\cw32l010_atim.c                  0x00000000   Number         0  cw32l010_atim.o ABSOLUTE
    Driver\\cw32l010_btim.c                  0x00000000   Number         0  cw32l010_btim.o ABSOLUTE
    Driver\\cw32l010_crc.c                   0x00000000   Number         0  cw32l010_crc.o ABSOLUTE
    Driver\\cw32l010_debug.c                 0x00000000   Number         0  cw32l010_debug.o ABSOLUTE
    Driver\\cw32l010_digitalsign.c           0x00000000   Number         0  cw32l010_digitalsign.o ABSOLUTE
    Driver\\cw32l010_flash.c                 0x00000000   Number         0  cw32l010_flash.o ABSOLUTE
    Driver\\cw32l010_gpio.c                  0x00000000   Number         0  cw32l010_gpio.o ABSOLUTE
    Driver\\cw32l010_gtim.c                  0x00000000   Number         0  cw32l010_gtim.o ABSOLUTE
    Driver\\cw32l010_i2c.c                   0x00000000   Number         0  cw32l010_i2c.o ABSOLUTE
    Driver\\cw32l010_iwdt.c                  0x00000000   Number         0  cw32l010_iwdt.o ABSOLUTE
    Driver\\cw32l010_lptim.c                 0x00000000   Number         0  cw32l010_lptim.o ABSOLUTE
    Driver\\cw32l010_lvd.c                   0x00000000   Number         0  cw32l010_lvd.o ABSOLUTE
    Driver\\cw32l010_pwr.c                   0x00000000   Number         0  cw32l010_pwr.o ABSOLUTE
    Driver\\cw32l010_rtc.c                   0x00000000   Number         0  cw32l010_rtc.o ABSOLUTE
    Driver\\cw32l010_spi.c                   0x00000000   Number         0  cw32l010_spi.o ABSOLUTE
    Driver\\cw32l010_sysctrl.c               0x00000000   Number         0  cw32l010_sysctrl.o ABSOLUTE
    Driver\\cw32l010_systick.c               0x00000000   Number         0  cw32l010_systick.o ABSOLUTE
    Driver\\cw32l010_uart.c                  0x00000000   Number         0  cw32l010_uart.o ABSOLUTE
    Driver\\cw32l010_vc.c                    0x00000000   Number         0  cw32l010_vc.o ABSOLUTE
    Driver\\system_cw32l010.c                0x00000000   Number         0  system_cw32l010.o ABSOLUTE
    Driver\cw32l010_adc.c                    0x00000000   Number         0  cw32l010_adc.o ABSOLUTE
    Driver\cw32l010_atim.c                   0x00000000   Number         0  cw32l010_atim.o ABSOLUTE
    Driver\cw32l010_btim.c                   0x00000000   Number         0  cw32l010_btim.o ABSOLUTE
    Driver\cw32l010_crc.c                    0x00000000   Number         0  cw32l010_crc.o ABSOLUTE
    Driver\cw32l010_debug.c                  0x00000000   Number         0  cw32l010_debug.o ABSOLUTE
    Driver\cw32l010_digitalsign.c            0x00000000   Number         0  cw32l010_digitalsign.o ABSOLUTE
    Driver\cw32l010_flash.c                  0x00000000   Number         0  cw32l010_flash.o ABSOLUTE
    Driver\cw32l010_gpio.c                   0x00000000   Number         0  cw32l010_gpio.o ABSOLUTE
    Driver\cw32l010_gtim.c                   0x00000000   Number         0  cw32l010_gtim.o ABSOLUTE
    Driver\cw32l010_i2c.c                    0x00000000   Number         0  cw32l010_i2c.o ABSOLUTE
    Driver\cw32l010_iwdt.c                   0x00000000   Number         0  cw32l010_iwdt.o ABSOLUTE
    Driver\cw32l010_lptim.c                  0x00000000   Number         0  cw32l010_lptim.o ABSOLUTE
    Driver\cw32l010_lvd.c                    0x00000000   Number         0  cw32l010_lvd.o ABSOLUTE
    Driver\cw32l010_pwr.c                    0x00000000   Number         0  cw32l010_pwr.o ABSOLUTE
    Driver\cw32l010_rtc.c                    0x00000000   Number         0  cw32l010_rtc.o ABSOLUTE
    Driver\cw32l010_spi.c                    0x00000000   Number         0  cw32l010_spi.o ABSOLUTE
    Driver\cw32l010_sysctrl.c                0x00000000   Number         0  cw32l010_sysctrl.o ABSOLUTE
    Driver\cw32l010_systick.c                0x00000000   Number         0  cw32l010_systick.o ABSOLUTE
    Driver\cw32l010_uart.c                   0x00000000   Number         0  cw32l010_uart.o ABSOLUTE
    Driver\cw32l010_vc.c                     0x00000000   Number         0  cw32l010_vc.o ABSOLUTE
    Driver\startup_cw32l010.s                0x00000000   Number         0  startup_cw32l010.o ABSOLUTE
    Driver\system_cw32l010.c                 0x00000000   Number         0  system_cw32l010.o ABSOLUTE
    User\\main.c                             0x00000000   Number         0  main.o ABSOLUTE
    User\interrupts_cw32l010.c               0x00000000   Number         0  interrupts_cw32l010.o ABSOLUTE
    User\main.c                              0x00000000   Number         0  main.o ABSOLUTE
    dc.s                                     0x00000000   Number         0  dc.o ABSOLUTE
    handlers.s                               0x00000000   Number         0  handlers.o ABSOLUTE
    init.s                                   0x00000000   Number         0  init.o ABSOLUTE
    .ARM.Collect$$$$00000000                 0x000000c0   Section        0  entry.o(.ARM.Collect$$$$00000000)
    .ARM.Collect$$$$00000001                 0x000000c0   Section        4  entry2.o(.ARM.Collect$$$$00000001)
    .ARM.Collect$$$$00000004                 0x000000c4   Section        4  entry5.o(.ARM.Collect$$$$00000004)
    .ARM.Collect$$$$00000008                 0x000000c8   Section        0  entry7b.o(.ARM.Collect$$$$00000008)
    .ARM.Collect$$$$0000000A                 0x000000c8   Section        0  entry8b.o(.ARM.Collect$$$$0000000A)
    .ARM.Collect$$$$0000000B                 0x000000c8   Section        8  entry9a.o(.ARM.Collect$$$$0000000B)
    .ARM.Collect$$$$0000000E                 0x000000d0   Section        4  entry12b.o(.ARM.Collect$$$$0000000E)
    .ARM.Collect$$$$0000000F                 0x000000d4   Section        0  entry10a.o(.ARM.Collect$$$$0000000F)
    .ARM.Collect$$$$00000011                 0x000000d4   Section        0  entry11a.o(.ARM.Collect$$$$00000011)
    .ARM.Collect$$$$00002712                 0x000000d4   Section        4  entry2.o(.ARM.Collect$$$$00002712)
    __lit__00000000                          0x000000d4   Data           4  entry2.o(.ARM.Collect$$$$00002712)
    .text                                    0x000000d8   Section       40  startup_cw32l010.o(.text)
    .text                                    0x00000100   Section        0  uidiv.o(.text)
    .text                                    0x0000012c   Section       36  init.o(.text)
    i.ADC_IRQHandler                         0x00000150   Section        0  interrupts_cw32l010.o(i.ADC_IRQHandler)
    i.ATIM_IRQHandler                        0x00000152   Section        0  interrupts_cw32l010.o(i.ATIM_IRQHandler)
    i.BTIM1_IRQHandler                       0x00000154   Section        0  interrupts_cw32l010.o(i.BTIM1_IRQHandler)
    i.BTIM2_IRQHandler                       0x00000156   Section        0  interrupts_cw32l010.o(i.BTIM2_IRQHandler)
    i.BTIM3_IRQHandler                       0x00000158   Section        0  interrupts_cw32l010.o(i.BTIM3_IRQHandler)
    i.FAULT_IRQHandler                       0x0000015a   Section        0  interrupts_cw32l010.o(i.FAULT_IRQHandler)
    i.FLASHRAM_IRQHandler                    0x0000015c   Section        0  interrupts_cw32l010.o(i.FLASHRAM_IRQHandler)
    i.GPIOA_IRQHandler                       0x0000015e   Section        0  interrupts_cw32l010.o(i.GPIOA_IRQHandler)
    i.GPIOB_IRQHandler                       0x00000160   Section        0  interrupts_cw32l010.o(i.GPIOB_IRQHandler)
    i.GTIM1_IRQHandler                       0x00000162   Section        0  interrupts_cw32l010.o(i.GTIM1_IRQHandler)
    i.HardFault_Handler                      0x00000164   Section        0  interrupts_cw32l010.o(i.HardFault_Handler)
    i.I2C1_IRQHandler                        0x00000166   Section        0  interrupts_cw32l010.o(i.I2C1_IRQHandler)
    i.LPTIM_IRQHandler                       0x00000168   Section        0  interrupts_cw32l010.o(i.LPTIM_IRQHandler)
    i.LVD_IRQHandler                         0x0000016a   Section        0  interrupts_cw32l010.o(i.LVD_IRQHandler)
    i.NMI_Handler                            0x0000016c   Section        0  interrupts_cw32l010.o(i.NMI_Handler)
    i.PendSV_Handler                         0x0000016e   Section        0  interrupts_cw32l010.o(i.PendSV_Handler)
    i.RCC_Configuration                      0x00000170   Section        0  main.o(i.RCC_Configuration)
    i.RTC_IRQHandler                         0x0000018e   Section        0  interrupts_cw32l010.o(i.RTC_IRQHandler)
    i.SPI1_IRQHandler                        0x00000190   Section        0  interrupts_cw32l010.o(i.SPI1_IRQHandler)
    i.SVC_Handler                            0x00000192   Section        0  interrupts_cw32l010.o(i.SVC_Handler)
    i.SYSCTRL_GetHClkFreq                    0x00000194   Section        0  cw32l010_sysctrl.o(i.SYSCTRL_GetHClkFreq)
    i.SYSCTRL_HCLKPRS_Config                 0x000001f8   Section        0  cw32l010_sysctrl.o(i.SYSCTRL_HCLKPRS_Config)
    i.SYSCTRL_HSI_Enable                     0x00000260   Section        0  cw32l010_sysctrl.o(i.SYSCTRL_HSI_Enable)
    i.SYSCTRL_IRQHandler                     0x00000358   Section        0  interrupts_cw32l010.o(i.SYSCTRL_IRQHandler)
    i.SYSCTRL_PCLKPRS_Config                 0x0000035c   Section        0  cw32l010_sysctrl.o(i.SYSCTRL_PCLKPRS_Config)
    i.SYSCTRL_SYSCLKSRC_Config               0x000003c4   Section        0  cw32l010_sysctrl.o(i.SYSCTRL_SYSCLKSRC_Config)
    i.SYSCTRL_SystemCoreClockUpdate          0x00000424   Section        0  cw32l010_sysctrl.o(i.SYSCTRL_SystemCoreClockUpdate)
    i.SysTick_Handler                        0x00000430   Section        0  cw32l010_systick.o(i.SysTick_Handler)
    i.SystemCoreClockUpdate                  0x00000440   Section        0  system_cw32l010.o(i.SystemCoreClockUpdate)
    i.SystemInit                             0x00000450   Section        0  system_cw32l010.o(i.SystemInit)
    i.UART1_IRQHandler                       0x00000484   Section        0  interrupts_cw32l010.o(i.UART1_IRQHandler)
    i.UART2_IRQHandler                       0x00000486   Section        0  interrupts_cw32l010.o(i.UART2_IRQHandler)
    i.VC1_IRQHandler                         0x00000488   Section        0  interrupts_cw32l010.o(i.VC1_IRQHandler)
    i.VC2_IRQHandler                         0x0000048a   Section        0  interrupts_cw32l010.o(i.VC2_IRQHandler)
    i.WDT_IRQHandler                         0x0000048c   Section        0  interrupts_cw32l010.o(i.WDT_IRQHandler)
    i.__scatterload_copy                     0x0000048e   Section       14  handlers.o(i.__scatterload_copy)
    i.__scatterload_null                     0x0000049c   Section        2  handlers.o(i.__scatterload_null)
    i.__scatterload_zeroinit                 0x0000049e   Section       14  handlers.o(i.__scatterload_zeroinit)
    i.assert_failed                          0x000004ac   Section        0  main.o(i.assert_failed)
    i.main                                   0x000004ae   Section        0  main.o(i.main)
    .constdata                               0x000004b4   Section       64  cw32l010_sysctrl.o(.constdata)
    .data                                    0x20000000   Section       12  cw32l010_systick.o(.data)
    .data                                    0x2000000c   Section        4  system_cw32l010.o(.data)
    STACK                                    0x20000010   Section      512  startup_cw32l010.o(STACK)

    Global Symbols

    Symbol Name                              Value     Ov Type        Size  Object(Section)

    BuildAttributes$$THM_ISAv3M$S$PE$A:L22$X:L11$S22$IEEE1$IW$USESV6$~STKCKD$USESV7$~SHL$OTIME$ROPI$EBA8$MICROLIB$REQ8$PRES8$EABIv2 0x00000000   Number         0  anon$$obj.o ABSOLUTE
    __ARM_use_no_argv                        0x00000000   Number         0  main.o ABSOLUTE
    __Vectors                                0x00000000   Data           0  startup_cw32l010.o(RESET)
    __arm_fini_                               - Undefined Weak Reference
    __cpp_initialize__aeabi_                  - Undefined Weak Reference
    __cxa_finalize                            - Undefined Weak Reference
    __decompress                              - Undefined Weak Reference
    _clock_init                               - Undefined Weak Reference
    _microlib_exit                            - Undefined Weak Reference
    __Vectors_End                            0x000000c0   Data           0  startup_cw32l010.o(RESET)
    __Vectors_Size                           0x000000c0   Number         0  startup_cw32l010.o ABSOLUTE
    __main                                   0x000000c1   Thumb Code     0  entry.o(.ARM.Collect$$$$00000000)
    _main_stk                                0x000000c1   Thumb Code     0  entry2.o(.ARM.Collect$$$$00000001)
    _main_scatterload                        0x000000c5   Thumb Code     0  entry5.o(.ARM.Collect$$$$00000004)
    __main_after_scatterload                 0x000000c9   Thumb Code     0  entry5.o(.ARM.Collect$$$$00000004)
    _main_clock                              0x000000c9   Thumb Code     0  entry7b.o(.ARM.Collect$$$$00000008)
    _main_cpp_init                           0x000000c9   Thumb Code     0  entry8b.o(.ARM.Collect$$$$0000000A)
    _main_init                               0x000000c9   Thumb Code     0  entry9a.o(.ARM.Collect$$$$0000000B)
    __rt_lib_shutdown_fini                   0x000000d1   Thumb Code     0  entry12b.o(.ARM.Collect$$$$0000000E)
    __rt_final_cpp                           0x000000d5   Thumb Code     0  entry10a.o(.ARM.Collect$$$$0000000F)
    __rt_final_exit                          0x000000d5   Thumb Code     0  entry11a.o(.ARM.Collect$$$$00000011)
    Reset_Handler                            0x000000d9   Thumb Code    14  startup_cw32l010.o(.text)
    CLKFAULT_IRQHandler                      0x000000f1   Thumb Code     0  startup_cw32l010.o(.text)
    __aeabi_uidiv                            0x00000101   Thumb Code     0  uidiv.o(.text)
    __aeabi_uidivmod                         0x00000101   Thumb Code    44  uidiv.o(.text)
    __scatterload                            0x0000012d   Thumb Code    28  init.o(.text)
    __scatterload_rt2                        0x0000012d   Thumb Code     0  init.o(.text)
    ADC_IRQHandler                           0x00000151   Thumb Code     2  interrupts_cw32l010.o(i.ADC_IRQHandler)
    ATIM_IRQHandler                          0x00000153   Thumb Code     2  interrupts_cw32l010.o(i.ATIM_IRQHandler)
    BTIM1_IRQHandler                         0x00000155   Thumb Code     2  interrupts_cw32l010.o(i.BTIM1_IRQHandler)
    BTIM2_IRQHandler                         0x00000157   Thumb Code     2  interrupts_cw32l010.o(i.BTIM2_IRQHandler)
    BTIM3_IRQHandler                         0x00000159   Thumb Code     2  interrupts_cw32l010.o(i.BTIM3_IRQHandler)
    FAULT_IRQHandler                         0x0000015b   Thumb Code     2  interrupts_cw32l010.o(i.FAULT_IRQHandler)
    FLASHRAM_IRQHandler                      0x0000015d   Thumb Code     2  interrupts_cw32l010.o(i.FLASHRAM_IRQHandler)
    GPIOA_IRQHandler                         0x0000015f   Thumb Code     2  interrupts_cw32l010.o(i.GPIOA_IRQHandler)
    GPIOB_IRQHandler                         0x00000161   Thumb Code     2  interrupts_cw32l010.o(i.GPIOB_IRQHandler)
    GTIM1_IRQHandler                         0x00000163   Thumb Code     2  interrupts_cw32l010.o(i.GTIM1_IRQHandler)
    HardFault_Handler                        0x00000165   Thumb Code     2  interrupts_cw32l010.o(i.HardFault_Handler)
    I2C1_IRQHandler                          0x00000167   Thumb Code     2  interrupts_cw32l010.o(i.I2C1_IRQHandler)
    LPTIM_IRQHandler                         0x00000169   Thumb Code     2  interrupts_cw32l010.o(i.LPTIM_IRQHandler)
    LVD_IRQHandler                           0x0000016b   Thumb Code     2  interrupts_cw32l010.o(i.LVD_IRQHandler)
    NMI_Handler                              0x0000016d   Thumb Code     2  interrupts_cw32l010.o(i.NMI_Handler)
    PendSV_Handler                           0x0000016f   Thumb Code     2  interrupts_cw32l010.o(i.PendSV_Handler)
    RCC_Configuration                        0x00000171   Thumb Code    30  main.o(i.RCC_Configuration)
    RTC_IRQHandler                           0x0000018f   Thumb Code     2  interrupts_cw32l010.o(i.RTC_IRQHandler)
    SPI1_IRQHandler                          0x00000191   Thumb Code     2  interrupts_cw32l010.o(i.SPI1_IRQHandler)
    SVC_Handler                              0x00000193   Thumb Code     2  interrupts_cw32l010.o(i.SVC_Handler)
    SYSCTRL_GetHClkFreq                      0x00000195   Thumb Code    78  cw32l010_sysctrl.o(i.SYSCTRL_GetHClkFreq)
    SYSCTRL_HCLKPRS_Config                   0x000001f9   Thumb Code    62  cw32l010_sysctrl.o(i.SYSCTRL_HCLKPRS_Config)
    SYSCTRL_HSI_Enable                       0x00000261   Thumb Code   204  cw32l010_sysctrl.o(i.SYSCTRL_HSI_Enable)
    SYSCTRL_IRQHandler                       0x00000359   Thumb Code     2  interrupts_cw32l010.o(i.SYSCTRL_IRQHandler)
    SYSCTRL_PCLKPRS_Config                   0x0000035d   Thumb Code    62  cw32l010_sysctrl.o(i.SYSCTRL_PCLKPRS_Config)
    SYSCTRL_SYSCLKSRC_Config                 0x000003c5   Thumb Code    54  cw32l010_sysctrl.o(i.SYSCTRL_SYSCLKSRC_Config)
    SYSCTRL_SystemCoreClockUpdate            0x00000425   Thumb Code     6  cw32l010_sysctrl.o(i.SYSCTRL_SystemCoreClockUpdate)
    SysTick_Handler                          0x00000431   Thumb Code    12  cw32l010_systick.o(i.SysTick_Handler)
    SystemCoreClockUpdate                    0x00000441   Thumb Code     8  system_cw32l010.o(i.SystemCoreClockUpdate)
    SystemInit                               0x00000451   Thumb Code    44  system_cw32l010.o(i.SystemInit)
    UART1_IRQHandler                         0x00000485   Thumb Code     2  interrupts_cw32l010.o(i.UART1_IRQHandler)
    UART2_IRQHandler                         0x00000487   Thumb Code     2  interrupts_cw32l010.o(i.UART2_IRQHandler)
    VC1_IRQHandler                           0x00000489   Thumb Code     2  interrupts_cw32l010.o(i.VC1_IRQHandler)
    VC2_IRQHandler                           0x0000048b   Thumb Code     2  interrupts_cw32l010.o(i.VC2_IRQHandler)
    WDT_IRQHandler                           0x0000048d   Thumb Code     2  interrupts_cw32l010.o(i.WDT_IRQHandler)
    __scatterload_copy                       0x0000048f   Thumb Code    14  handlers.o(i.__scatterload_copy)
    __scatterload_null                       0x0000049d   Thumb Code     2  handlers.o(i.__scatterload_null)
    __scatterload_zeroinit                   0x0000049f   Thumb Code    14  handlers.o(i.__scatterload_zeroinit)
    assert_failed                            0x000004ad   Thumb Code     2  main.o(i.assert_failed)
    main                                     0x000004af   Thumb Code     6  main.o(i.main)
    hsiprs_tbl                               0x000004b4   Data          64  cw32l010_sysctrl.o(.constdata)
    Region$$Table$$Base                      0x000004f4   Number         0  anon$$obj.o(Region$$Table)
    Region$$Table$$Limit                     0x00000514   Number         0  anon$$obj.o(Region$$Table)
    uwTickFreq                               0x20000000   Data           1  cw32l010_systick.o(.data)
    uwTickPrio                               0x20000004   Data           4  cw32l010_systick.o(.data)
    uwTick                                   0x20000008   Data           4  cw32l010_systick.o(.data)
    SystemCoreClock                          0x2000000c   Data           4  system_cw32l010.o(.data)
    __initial_sp                             0x20000210   Data           0  startup_cw32l010.o(STACK)



==============================================================================

Memory Map of the image

  Image Entry point : 0x000000c1

  Load Region LR_IROM1 (Base: 0x00000000, Size: 0x00000524, Max: 0x00010000, ABSOLUTE)

    Execution Region ER_IROM1 (Exec base: 0x00000000, Load base: 0x00000000, Size: 0x00000514, Max: 0x00010000, ABSOLUTE)

    Exec Addr    Load Addr    Size         Type   Attr      Idx    E Section Name        Object

    0x00000000   0x00000000   0x000000c0   Data   RO         2783    RESET               startup_cw32l010.o
    0x000000c0   0x000000c0   0x00000000   Code   RO         3005  * .ARM.Collect$$$$00000000  mc_p.l(entry.o)
    0x000000c0   0x000000c0   0x00000004   Code   RO         3032    .ARM.Collect$$$$00000001  mc_p.l(entry2.o)
    0x000000c4   0x000000c4   0x00000004   Code   RO         3035    .ARM.Collect$$$$00000004  mc_p.l(entry5.o)
    0x000000c8   0x000000c8   0x00000000   Code   RO         3037    .ARM.Collect$$$$00000008  mc_p.l(entry7b.o)
    0x000000c8   0x000000c8   0x00000000   Code   RO         3039    .ARM.Collect$$$$0000000A  mc_p.l(entry8b.o)
    0x000000c8   0x000000c8   0x00000008   Code   RO         3040    .ARM.Collect$$$$0000000B  mc_p.l(entry9a.o)
    0x000000d0   0x000000d0   0x00000004   Code   RO         3047    .ARM.Collect$$$$0000000E  mc_p.l(entry12b.o)
    0x000000d4   0x000000d4   0x00000000   Code   RO         3042    .ARM.Collect$$$$0000000F  mc_p.l(entry10a.o)
    0x000000d4   0x000000d4   0x00000000   Code   RO         3044    .ARM.Collect$$$$00000011  mc_p.l(entry11a.o)
    0x000000d4   0x000000d4   0x00000004   Code   RO         3033    .ARM.Collect$$$$00002712  mc_p.l(entry2.o)
    0x000000d8   0x000000d8   0x00000028   Code   RO         2784    .text               startup_cw32l010.o
    0x00000100   0x00000100   0x0000002c   Code   RO         3008    .text               mc_p.l(uidiv.o)
    0x0000012c   0x0000012c   0x00000024   Code   RO         3063    .text               mc_p.l(init.o)
    0x00000150   0x00000150   0x00000002   Code   RO         2788    i.ADC_IRQHandler    interrupts_cw32l010.o
    0x00000152   0x00000152   0x00000002   Code   RO         2789    i.ATIM_IRQHandler   interrupts_cw32l010.o
    0x00000154   0x00000154   0x00000002   Code   RO         2790    i.BTIM1_IRQHandler  interrupts_cw32l010.o
    0x00000156   0x00000156   0x00000002   Code   RO         2791    i.BTIM2_IRQHandler  interrupts_cw32l010.o
    0x00000158   0x00000158   0x00000002   Code   RO         2792    i.BTIM3_IRQHandler  interrupts_cw32l010.o
    0x0000015a   0x0000015a   0x00000002   Code   RO         2793    i.FAULT_IRQHandler  interrupts_cw32l010.o
    0x0000015c   0x0000015c   0x00000002   Code   RO         2794    i.FLASHRAM_IRQHandler  interrupts_cw32l010.o
    0x0000015e   0x0000015e   0x00000002   Code   RO         2795    i.GPIOA_IRQHandler  interrupts_cw32l010.o
    0x00000160   0x00000160   0x00000002   Code   RO         2796    i.GPIOB_IRQHandler  interrupts_cw32l010.o
    0x00000162   0x00000162   0x00000002   Code   RO         2797    i.GTIM1_IRQHandler  interrupts_cw32l010.o
    0x00000164   0x00000164   0x00000002   Code   RO         2798    i.HardFault_Handler  interrupts_cw32l010.o
    0x00000166   0x00000166   0x00000002   Code   RO         2799    i.I2C1_IRQHandler   interrupts_cw32l010.o
    0x00000168   0x00000168   0x00000002   Code   RO         2800    i.LPTIM_IRQHandler  interrupts_cw32l010.o
    0x0000016a   0x0000016a   0x00000002   Code   RO         2801    i.LVD_IRQHandler    interrupts_cw32l010.o
    0x0000016c   0x0000016c   0x00000002   Code   RO         2802    i.NMI_Handler       interrupts_cw32l010.o
    0x0000016e   0x0000016e   0x00000002   Code   RO         2803    i.PendSV_Handler    interrupts_cw32l010.o
    0x00000170   0x00000170   0x0000001e   Code   RO         2949    i.RCC_Configuration  main.o
    0x0000018e   0x0000018e   0x00000002   Code   RO         2804    i.RTC_IRQHandler    interrupts_cw32l010.o
    0x00000190   0x00000190   0x00000002   Code   RO         2805    i.SPI1_IRQHandler   interrupts_cw32l010.o
    0x00000192   0x00000192   0x00000002   Code   RO         2806    i.SVC_Handler       interrupts_cw32l010.o
    0x00000194   0x00000194   0x00000064   Code   RO         2061    i.SYSCTRL_GetHClkFreq  cw32l010_sysctrl.o
    0x000001f8   0x000001f8   0x00000068   Code   RO         2066    i.SYSCTRL_HCLKPRS_Config  cw32l010_sysctrl.o
    0x00000260   0x00000260   0x000000f8   Code   RO         2072    i.SYSCTRL_HSI_Enable  cw32l010_sysctrl.o
    0x00000358   0x00000358   0x00000002   Code   RO         2807    i.SYSCTRL_IRQHandler  interrupts_cw32l010.o
    0x0000035a   0x0000035a   0x00000002   PAD
    0x0000035c   0x0000035c   0x00000068   Code   RO         2081    i.SYSCTRL_PCLKPRS_Config  cw32l010_sysctrl.o
    0x000003c4   0x000003c4   0x00000060   Code   RO         2084    i.SYSCTRL_SYSCLKSRC_Config  cw32l010_sysctrl.o
    0x00000424   0x00000424   0x0000000c   Code   RO         2086    i.SYSCTRL_SystemCoreClockUpdate  cw32l010_sysctrl.o
    0x00000430   0x00000430   0x00000010   Code   RO         2305    i.SysTick_Handler   cw32l010_systick.o
    0x00000440   0x00000440   0x00000010   Code   RO         2746    i.SystemCoreClockUpdate  system_cw32l010.o
    0x00000450   0x00000450   0x00000034   Code   RO         2747    i.SystemInit        system_cw32l010.o
    0x00000484   0x00000484   0x00000002   Code   RO         2808    i.UART1_IRQHandler  interrupts_cw32l010.o
    0x00000486   0x00000486   0x00000002   Code   RO         2809    i.UART2_IRQHandler  interrupts_cw32l010.o
    0x00000488   0x00000488   0x00000002   Code   RO         2810    i.VC1_IRQHandler    interrupts_cw32l010.o
    0x0000048a   0x0000048a   0x00000002   Code   RO         2811    i.VC2_IRQHandler    interrupts_cw32l010.o
    0x0000048c   0x0000048c   0x00000002   Code   RO         2812    i.WDT_IRQHandler    interrupts_cw32l010.o
    0x0000048e   0x0000048e   0x0000000e   Code   RO         3067    i.__scatterload_copy  mc_p.l(handlers.o)
    0x0000049c   0x0000049c   0x00000002   Code   RO         3068    i.__scatterload_null  mc_p.l(handlers.o)
    0x0000049e   0x0000049e   0x0000000e   Code   RO         3069    i.__scatterload_zeroinit  mc_p.l(handlers.o)
    0x000004ac   0x000004ac   0x00000002   Code   RO         2950    i.assert_failed     main.o
    0x000004ae   0x000004ae   0x00000006   Code   RO         2951    i.main              main.o
    0x000004b4   0x000004b4   0x00000040   Data   RO         2088    .constdata          cw32l010_sysctrl.o
    0x000004f4   0x000004f4   0x00000020   Data   RO         3065    Region$$Table       anon$$obj.o


    Execution Region RW_IRAM1 (Exec base: 0x20000000, Load base: 0x00000514, Size: 0x00000210, Max: 0x00001000, ABSOLUTE)

    Exec Addr    Load Addr    Size         Type   Attr      Idx    E Section Name        Object

    0x20000000   0x00000514   0x0000000c   Data   RW         2307    .data               cw32l010_systick.o
    0x2000000c   0x00000520   0x00000004   Data   RW         2748    .data               system_cw32l010.o
    0x20000010        -       0x00000200   Zero   RW         2781    STACK               startup_cw32l010.o


==============================================================================

Image component sizes


      Code (inc. data)   RO Data    RW Data    ZI Data      Debug   Object Name

         0          0          0          0          0       4588   cw32l010_adc.o
       664        198         64          0          0       4185   cw32l010_sysctrl.o
        16          4          0         12          0       1629   cw32l010_systick.o
        50          0          0          0          0      10654   interrupts_cw32l010.o
        38          0          0          0          0       1571   main.o
        40         14        192          0        512        604   startup_cw32l010.o
        68         16          0          4          0       1135   system_cw32l010.o

    ----------------------------------------------------------------------
       878        232        288         16        512      24366   Object Totals
         0          0         32          0          0          0   (incl. Generated)
         2          0          0          0          0          0   (incl. Padding)

    ----------------------------------------------------------------------

      Code (inc. data)   RO Data    RW Data    ZI Data      Debug   Library Member Name

         0          0          0          0          0          0   entry.o
         0          0          0          0          0          0   entry10a.o
         0          0          0          0          0          0   entry11a.o
         4          0          0          0          0          0   entry12b.o
         8          4          0          0          0          0   entry2.o
         4          0          0          0          0          0   entry5.o
         0          0          0          0          0          0   entry7b.o
         0          0          0          0          0          0   entry8b.o
         8          4          0          0          0          0   entry9a.o
        30          0          0          0          0          0   handlers.o
        36          8          0          0          0         68   init.o
        44          0          0          0          0         72   uidiv.o

    ----------------------------------------------------------------------
       134         16          0          0          0        140   Library Totals
         0          0          0          0          0          0   (incl. Padding)

    ----------------------------------------------------------------------

      Code (inc. data)   RO Data    RW Data    ZI Data      Debug   Library Name

       134         16          0          0          0        140   mc_p.l

    ----------------------------------------------------------------------
       134         16          0          0          0        140   Library Totals

    ----------------------------------------------------------------------

==============================================================================


      Code (inc. data)   RO Data    RW Data    ZI Data      Debug   

      1012        248        288         16        512      23206   Grand Totals
      1012        248        288         16        512      23206   ELF Image Totals
      1012        248        288         16          0          0   ROM Totals

==============================================================================

    Total RO  Size (Code + RO Data)                 1300 (   1.27kB)
    Total RW  Size (RW Data + ZI Data)               528 (   0.52kB)
    Total ROM Size (Code + RO Data + RW Data)       1316 (   1.29kB)

==============================================================================

