Component: ARM Compiler 5.06 update 7 (build 960) Tool: armlink [4d3601]

==============================================================================

Image Symbol Table

    Local Symbols

    Symbol Name                              Value     Ov Type        Size  Object(Section)

    RESET                                    0x00000000   Section      192  startup_cw32l010.o(RESET)
    ../clib/../cmprslib/zerorunl2.c          0x00000000   Number         0  __dczerorl2.o ABSOLUTE
    ../clib/microlib/division.c              0x00000000   Number         0  uldiv.o ABSOLUTE
    ../clib/microlib/division.c              0x00000000   Number         0  uidiv.o ABSOLUTE
    ../clib/microlib/division.c              0x00000000   Number         0  idiv.o ABSOLUTE
    ../clib/microlib/division.c              0x00000000   Number         0  ldiv.o ABSOLUTE
    ../clib/microlib/init/entry.s            0x00000000   Number         0  entry2.o ABSOLUTE
    ../clib/microlib/init/entry.s            0x00000000   Number         0  entry12a.o ABSOLUTE
    ../clib/microlib/init/entry.s            0x00000000   Number         0  entry11b.o ABSOLUTE
    ../clib/microlib/init/entry.s            0x00000000   Number         0  entry12b.o ABSOLUTE
    ../clib/microlib/init/entry.s            0x00000000   Number         0  entry11a.o ABSOLUTE
    ../clib/microlib/init/entry.s            0x00000000   Number         0  entry10b.o ABSOLUTE
    ../clib/microlib/init/entry.s            0x00000000   Number         0  entry9a.o ABSOLUTE
    ../clib/microlib/init/entry.s            0x00000000   Number         0  entry9b.o ABSOLUTE
    ../clib/microlib/init/entry.s            0x00000000   Number         0  entry10a.o ABSOLUTE
    ../clib/microlib/init/entry.s            0x00000000   Number         0  entry.o ABSOLUTE
    ../clib/microlib/init/entry.s            0x00000000   Number         0  entry7a.o ABSOLUTE
    ../clib/microlib/init/entry.s            0x00000000   Number         0  entry8b.o ABSOLUTE
    ../clib/microlib/init/entry.s            0x00000000   Number         0  entry8a.o ABSOLUTE
    ../clib/microlib/init/entry.s            0x00000000   Number         0  entry5.o ABSOLUTE
    ../clib/microlib/init/entry.s            0x00000000   Number         0  entry7b.o ABSOLUTE
    ../clib/microlib/longlong.c              0x00000000   Number         0  llushr.o ABSOLUTE
    ../clib/microlib/longlong.c              0x00000000   Number         0  llshl.o ABSOLUTE
    ../clib/microlib/longlong.c              0x00000000   Number         0  llsshr.o ABSOLUTE
    ../clib/microlib/string/memset.c         0x00000000   Number         0  memseta.o ABSOLUTE
    ../clib/microlib/stubs.s                 0x00000000   Number         0  iusefp.o ABSOLUTE
    ../fplib/microlib/d2f.c                  0x00000000   Number         0  d2f.o ABSOLUTE
    ../fplib/microlib/f2d.c                  0x00000000   Number         0  f2d.o ABSOLUTE
    ../fplib/microlib/fpadd.c                0x00000000   Number         0  fadd.o ABSOLUTE
    ../fplib/microlib/fpadd.c                0x00000000   Number         0  dadd.o ABSOLUTE
    ../fplib/microlib/fpdiv.c                0x00000000   Number         0  fdiv.o ABSOLUTE
    ../fplib/microlib/fpdiv.c                0x00000000   Number         0  ddiv.o ABSOLUTE
    ../fplib/microlib/fpepilogue.c           0x00000000   Number         0  depilogue.o ABSOLUTE
    ../fplib/microlib/fpepilogue.c           0x00000000   Number         0  fepilogue.o ABSOLUTE
    ../fplib/microlib/fpfix.c                0x00000000   Number         0  dfixi.o ABSOLUTE
    ../fplib/microlib/fpfix.c                0x00000000   Number         0  ffixui.o ABSOLUTE
    ../fplib/microlib/fpflt.c                0x00000000   Number         0  ffltui.o ABSOLUTE
    ../fplib/microlib/fpflt.c                0x00000000   Number         0  fflti.o ABSOLUTE
    ../fplib/microlib/fpflt.c                0x00000000   Number         0  dfltui.o ABSOLUTE
    ../fplib/microlib/fpflt.c                0x00000000   Number         0  dflti.o ABSOLUTE
    ../fplib/microlib/fpmul.c                0x00000000   Number         0  fmul.o ABSOLUTE
    ../fplib/microlib/fpmul.c                0x00000000   Number         0  dmul.o ABSOLUTE
    Driver\Libraries\src\cw32l010_adc.c      0x00000000   Number         0  cw32l010_adc.o ABSOLUTE
    Driver\Libraries\src\cw32l010_atim.c     0x00000000   Number         0  cw32l010_atim.o ABSOLUTE
    Driver\Libraries\src\cw32l010_btim.c     0x00000000   Number         0  cw32l010_btim.o ABSOLUTE
    Driver\Libraries\src\cw32l010_crc.c      0x00000000   Number         0  cw32l010_crc.o ABSOLUTE
    Driver\Libraries\src\cw32l010_flash.c    0x00000000   Number         0  cw32l010_flash.o ABSOLUTE
    Driver\Libraries\src\cw32l010_gpio.c     0x00000000   Number         0  cw32l010_gpio.o ABSOLUTE
    Driver\Libraries\src\cw32l010_gtim.c     0x00000000   Number         0  cw32l010_gtim.o ABSOLUTE
    Driver\Libraries\src\cw32l010_pwr.c      0x00000000   Number         0  cw32l010_pwr.o ABSOLUTE
    Driver\Libraries\src\cw32l010_sysctrl.c  0x00000000   Number         0  cw32l010_sysctrl.o ABSOLUTE
    Driver\Libraries\src\system_cw32l010.c   0x00000000   Number         0  system_cw32l010.o ABSOLUTE
    Driver\\Libraries\\src\\cw32l010_adc.c   0x00000000   Number         0  cw32l010_adc.o ABSOLUTE
    Driver\\Libraries\\src\\cw32l010_atim.c  0x00000000   Number         0  cw32l010_atim.o ABSOLUTE
    Driver\\Libraries\\src\\cw32l010_btim.c  0x00000000   Number         0  cw32l010_btim.o ABSOLUTE
    Driver\\Libraries\\src\\cw32l010_crc.c   0x00000000   Number         0  cw32l010_crc.o ABSOLUTE
    Driver\\Libraries\\src\\cw32l010_flash.c 0x00000000   Number         0  cw32l010_flash.o ABSOLUTE
    Driver\\Libraries\\src\\cw32l010_gpio.c  0x00000000   Number         0  cw32l010_gpio.o ABSOLUTE
    Driver\\Libraries\\src\\cw32l010_gtim.c  0x00000000   Number         0  cw32l010_gtim.o ABSOLUTE
    Driver\\Libraries\\src\\cw32l010_pwr.c   0x00000000   Number         0  cw32l010_pwr.o ABSOLUTE
    Driver\\Libraries\\src\\cw32l010_sysctrl.c 0x00000000   Number         0  cw32l010_sysctrl.o ABSOLUTE
    Driver\\Libraries\\src\\system_cw32l010.c 0x00000000   Number         0  system_cw32l010.o ABSOLUTE
    MOTOR\MOTOR.C                            0x00000000   Number         0  motor.o ABSOLUTE
    MOTOR\\MOTOR.C                           0x00000000   Number         0  motor.o ABSOLUTE
    MOTOR\\compu.c                           0x00000000   Number         0  compu.o ABSOLUTE
    MOTOR\\control.c                         0x00000000   Number         0  control.o ABSOLUTE
    MOTOR\\global.c                          0x00000000   Number         0  global.o ABSOLUTE
    MOTOR\\pid.c                             0x00000000   Number         0  pid.o ABSOLUTE
    MOTOR\\sensorless.c                      0x00000000   Number         0  sensorless.o ABSOLUTE
    MOTOR\compu.c                            0x00000000   Number         0  compu.o ABSOLUTE
    MOTOR\control.c                          0x00000000   Number         0  control.o ABSOLUTE
    MOTOR\global.c                           0x00000000   Number         0  global.o ABSOLUTE
    MOTOR\pid.c                              0x00000000   Number         0  pid.o ABSOLUTE
    MOTOR\sensorless.c                       0x00000000   Number         0  sensorless.o ABSOLUTE
    MOTOR\sensorlessP.c                      0x00000000   Number         0  sensorlessp.o ABSOLUTE
    User\\init.c                             0x00000000   Number         0  init.o ABSOLUTE
    User\\interrupts_cw32l010.c              0x00000000   Number         0  interrupts_cw32l010.o ABSOLUTE
    User\\main.c                             0x00000000   Number         0  main.o ABSOLUTE
    User\init.c                              0x00000000   Number         0  init.o ABSOLUTE
    User\interrupts_cw32l010.c               0x00000000   Number         0  interrupts_cw32l010.o ABSOLUTE
    User\main.c                              0x00000000   Number         0  main.o ABSOLUTE
    User\startup_cw32l010.s                  0x00000000   Number         0  startup_cw32l010.o ABSOLUTE
    cdcmple.s                                0x00000000   Number         0  cdcmple.o ABSOLUTE
    cdrcmple.s                               0x00000000   Number         0  cdrcmple.o ABSOLUTE
    cfcmple.s                                0x00000000   Number         0  cfcmple.o ABSOLUTE
    cfrcmple.s                               0x00000000   Number         0  cfrcmple.o ABSOLUTE
    dc.s                                     0x00000000   Number         0  dc.o ABSOLUTE
    handlers.s                               0x00000000   Number         0  handlers.o ABSOLUTE
    init.s                                   0x00000000   Number         0  init.o ABSOLUTE
    .ARM.Collect$$$$00000000                 0x000000c0   Section        0  entry.o(.ARM.Collect$$$$00000000)
    .ARM.Collect$$$$00000001                 0x000000c0   Section        4  entry2.o(.ARM.Collect$$$$00000001)
    .ARM.Collect$$$$00000004                 0x000000c4   Section        4  entry5.o(.ARM.Collect$$$$00000004)
    .ARM.Collect$$$$00000008                 0x000000c8   Section        0  entry7b.o(.ARM.Collect$$$$00000008)
    .ARM.Collect$$$$0000000A                 0x000000c8   Section        0  entry8b.o(.ARM.Collect$$$$0000000A)
    .ARM.Collect$$$$0000000B                 0x000000c8   Section        8  entry9a.o(.ARM.Collect$$$$0000000B)
    .ARM.Collect$$$$0000000E                 0x000000d0   Section        4  entry12b.o(.ARM.Collect$$$$0000000E)
    .ARM.Collect$$$$0000000F                 0x000000d4   Section        0  entry10a.o(.ARM.Collect$$$$0000000F)
    .ARM.Collect$$$$00000011                 0x000000d4   Section        0  entry11a.o(.ARM.Collect$$$$00000011)
    .ARM.Collect$$$$00002712                 0x000000d4   Section        4  entry2.o(.ARM.Collect$$$$00002712)
    __lit__00000000                          0x000000d4   Data           4  entry2.o(.ARM.Collect$$$$00002712)
    .text                                    0x000000d8   Section       40  startup_cw32l010.o(.text)
    .text                                    0x00000100   Section        0  cw32l010_adc.o(.text)
    .text                                    0x000006ac   Section        0  cw32l010_atim.o(.text)
    .text                                    0x000016f4   Section        0  cw32l010_btim.o(.text)
    .text                                    0x00001f88   Section        0  cw32l010_gpio.o(.text)
    .text                                    0x000020fc   Section        0  cw32l010_sysctrl.o(.text)
    .text                                    0x00002cfc   Section        0  system_cw32l010.o(.text)
    .text                                    0x00002d58   Section        0  main.o(.text)
    .text                                    0x00003100   Section        0  interrupts_cw32l010.o(.text)
    .text                                    0x0000312c   Section        0  init.o(.text)
    __NVIC_EnableIRQ                         0x000034cd   Thumb Code    26  init.o(.text)
    .text                                    0x00003508   Section        0  compu.o(.text)
    .text                                    0x0000378c   Section        0  control.o(.text)
    .text                                    0x00003eb4   Section        0  motor.o(.text)
    .text                                    0x00004234   Section        0  sensorless.o(.text)
    .text                                    0x000046b0   Section        0  pid.o(.text)
    .text                                    0x000048e8   Section        0  uidiv.o(.text)
    .text                                    0x00004914   Section        0  idiv.o(.text)
    .text                                    0x0000493c   Section        0  ldiv.o(.text)
    .text                                    0x00004988   Section        0  memseta.o(.text)
    .text                                    0x000049ac   Section        0  fadd.o(.text)
    .text                                    0x00004a5e   Section        0  fmul.o(.text)
    .text                                    0x00004ad8   Section        0  fdiv.o(.text)
    .text                                    0x00004b54   Section        0  dadd.o(.text)
    .text                                    0x00004cbc   Section        0  dmul.o(.text)
    .text                                    0x00004d8c   Section        0  ddiv.o(.text)
    .text                                    0x00004e7c   Section        0  fflti.o(.text)
    .text                                    0x00004e92   Section        0  ffltui.o(.text)
    .text                                    0x00004ea0   Section        0  dflti.o(.text)
    .text                                    0x00004ec8   Section        0  dfltui.o(.text)
    .text                                    0x00004ee4   Section        0  ffixui.o(.text)
    .text                                    0x00004f0c   Section        0  dfixi.o(.text)
    .text                                    0x00004f54   Section        0  f2d.o(.text)
    .text                                    0x00004f7c   Section       40  cdcmple.o(.text)
    .text                                    0x00004fa4   Section       40  cdrcmple.o(.text)
    .text                                    0x00004fcc   Section        0  d2f.o(.text)
    .text                                    0x00005004   Section       20  cfcmple.o(.text)
    .text                                    0x00005018   Section       20  cfrcmple.o(.text)
    .text                                    0x0000502c   Section        0  uldiv.o(.text)
    .text                                    0x0000508c   Section        0  llshl.o(.text)
    .text                                    0x000050ac   Section        0  llushr.o(.text)
    .text                                    0x000050ce   Section        0  llsshr.o(.text)
    .text                                    0x000050f4   Section        0  iusefp.o(.text)
    .text                                    0x000050f4   Section        0  fepilogue.o(.text)
    .text                                    0x00005176   Section        0  depilogue.o(.text)
    .text                                    0x00005234   Section       36  init.o(.text)
    .text                                    0x00005258   Section        0  __dczerorl2.o(.text)
    i.__ARM_clz                              0x000052ae   Section        0  depilogue.o(i.__ARM_clz)
    i.__ARM_common_switch8                   0x000052dc   Section        0  cw32l010_atim.o(i.__ARM_common_switch8)
    i.__scatterload_copy                     0x000052f8   Section       14  handlers.o(i.__scatterload_copy)
    i.__scatterload_null                     0x00005306   Section        2  handlers.o(i.__scatterload_null)
    i.__scatterload_zeroinit                 0x00005308   Section       14  handlers.o(i.__scatterload_zeroinit)
    .constdata                               0x00005318   Section       64  cw32l010_sysctrl.o(.constdata)
    .constdata                               0x00005358   Section       24  sensorless.o(.constdata)
    .constdata                               0x00005370   Section       64  sensorlessp.o(.constdata)
    .data                                    0x20000000   Section        4  system_cw32l010.o(.data)
    .data                                    0x20000004   Section        4  main.o(.data)
    .data                                    0x20000008   Section      228  global.o(.data)
    .data                                    0x200000ec   Section        3  compu.o(.data)
    IErCount                                 0x200000ec   Data           1  compu.o(.data)
    VErCount                                 0x200000ed   Data           1  compu.o(.data)
    LVErCount                                0x200000ee   Data           1  compu.o(.data)
    .data                                    0x200000ef   Section        1  control.o(.data)
    slflag                                   0x200000ef   Data           1  control.o(.data)
    .data                                    0x200000f0   Section       25  motor.o(.data)
    fflagfors                                0x20000108   Data           1  motor.o(.data)
    .data                                    0x2000010c   Section       37  sensorless.o(.data)
    cou                                      0x20000130   Data           1  sensorless.o(.data)
    .data                                    0x20000138   Section       48  pid.o(.data)
    .bss                                     0x20000168   Section       12  global.o(.bss)
    STACK                                    0x20000178   Section      512  startup_cw32l010.o(STACK)

    Global Symbols

    Symbol Name                              Value     Ov Type        Size  Object(Section)

    BuildAttributes$$THM_ISAv3M$S$PE$A:L22$X:L11$S22$IEEE1$IW$USESV6$~STKCKD$USESV7$~SHL$OTIME$ROPI$EBA8$MICROLIB$REQ8$PRES8$EABIv2 0x00000000   Number         0  anon$$obj.o ABSOLUTE
    __ARM_use_no_argv                        0x00000000   Number         0  main.o ABSOLUTE
    __Vectors                                0x00000000   Data           0  startup_cw32l010.o(RESET)
    __arm_fini_                               - Undefined Weak Reference
    __cpp_initialize__aeabi_                  - Undefined Weak Reference
    __cxa_finalize                            - Undefined Weak Reference
    _clock_init                               - Undefined Weak Reference
    _microlib_exit                            - Undefined Weak Reference
    __Vectors_End                            0x000000c0   Data           0  startup_cw32l010.o(RESET)
    __Vectors_Size                           0x000000c0   Number         0  startup_cw32l010.o ABSOLUTE
    __main                                   0x000000c1   Thumb Code     0  entry.o(.ARM.Collect$$$$00000000)
    _main_stk                                0x000000c1   Thumb Code     0  entry2.o(.ARM.Collect$$$$00000001)
    _main_scatterload                        0x000000c5   Thumb Code     0  entry5.o(.ARM.Collect$$$$00000004)
    __main_after_scatterload                 0x000000c9   Thumb Code     0  entry5.o(.ARM.Collect$$$$00000004)
    _main_clock                              0x000000c9   Thumb Code     0  entry7b.o(.ARM.Collect$$$$00000008)
    _main_cpp_init                           0x000000c9   Thumb Code     0  entry8b.o(.ARM.Collect$$$$0000000A)
    _main_init                               0x000000c9   Thumb Code     0  entry9a.o(.ARM.Collect$$$$0000000B)
    __rt_lib_shutdown_fini                   0x000000d1   Thumb Code     0  entry12b.o(.ARM.Collect$$$$0000000E)
    __rt_final_cpp                           0x000000d5   Thumb Code     0  entry10a.o(.ARM.Collect$$$$0000000F)
    __rt_final_exit                          0x000000d5   Thumb Code     0  entry11a.o(.ARM.Collect$$$$00000011)
    Reset_Handler                            0x000000d9   Thumb Code    14  startup_cw32l010.o(.text)
    SysTick_Handler                          0x000000ef   Thumb Code     2  startup_cw32l010.o(.text)
    GTIM1_IRQHandler                         0x000000f1   Thumb Code     0  startup_cw32l010.o(.text)
    ADC_DeInit                               0x00000101   Thumb Code    26  cw32l010_adc.o(.text)
    ADC_Init                                 0x0000011b   Thumb Code   470  cw32l010_adc.o(.text)
    ADC_Enable                               0x000002f1   Thumb Code    18  cw32l010_adc.o(.text)
    ADC_Disable                              0x00000303   Thumb Code    18  cw32l010_adc.o(.text)
    ADC_WatchdogInit                         0x00000315   Thumb Code   194  cw32l010_adc.o(.text)
    ADC_GetITStatusAll                       0x000003d7   Thumb Code     8  cw32l010_adc.o(.text)
    ADC_GetITStatus                          0x000003df   Thumb Code    48  cw32l010_adc.o(.text)
    ADC_ClearITPendingAll                    0x0000040f   Thumb Code     8  cw32l010_adc.o(.text)
    ADC_ClearITPendingBit                    0x00000417   Thumb Code    42  cw32l010_adc.o(.text)
    ADC_ITConfig                             0x00000441   Thumb Code    74  cw32l010_adc.o(.text)
    ADC_SoftwareStartConvCmd                 0x0000048b   Thumb Code    62  cw32l010_adc.o(.text)
    ADC_ExtTrigCfg                           0x000004c9   Thumb Code   144  cw32l010_adc.o(.text)
    ADC_GetConversionValue                   0x00000559   Thumb Code    30  cw32l010_adc.o(.text)
    ADC_GetSqr0Result                        0x00000577   Thumb Code    16  cw32l010_adc.o(.text)
    ADC_GetSqr1Result                        0x00000587   Thumb Code    16  cw32l010_adc.o(.text)
    ADC_GetSqr2Result                        0x00000597   Thumb Code    16  cw32l010_adc.o(.text)
    ADC_GetSqr3Result                        0x000005a7   Thumb Code    16  cw32l010_adc.o(.text)
    ADC_GetSqr4Result                        0x000005b7   Thumb Code    16  cw32l010_adc.o(.text)
    ADC_GetSqr5Result                        0x000005c7   Thumb Code    16  cw32l010_adc.o(.text)
    ADC_GetSqr6Result                        0x000005d7   Thumb Code    16  cw32l010_adc.o(.text)
    ADC_GetSqr7Result                        0x000005e7   Thumb Code    16  cw32l010_adc.o(.text)
    ADC_SetTs                                0x000005f7   Thumb Code    42  cw32l010_adc.o(.text)
    ADC_GetTs                                0x00000621   Thumb Code   114  cw32l010_adc.o(.text)
    ATIM_DeInit                              0x000006ad   Thumb Code    28  cw32l010_atim.o(.text)
    ATIM_Init                                0x000006c9   Thumb Code   168  cw32l010_atim.o(.text)
    ATIM_Cmd                                 0x00000771   Thumb Code    20  cw32l010_atim.o(.text)
    ATIM_ITConfig                            0x00000785   Thumb Code    74  cw32l010_atim.o(.text)
    ATIM_GetITStatus                         0x000007cf   Thumb Code    44  cw32l010_atim.o(.text)
    ATIM_ClearITPendingBit                   0x000007fb   Thumb Code    36  cw32l010_atim.o(.text)
    ATIM_SetReloadValue                      0x0000081f   Thumb Code     6  cw32l010_atim.o(.text)
    ATIM_SetCounterValue                     0x00000825   Thumb Code     6  cw32l010_atim.o(.text)
    ATIM_MasterModeTrgo1Config               0x0000082b   Thumb Code    66  cw32l010_atim.o(.text)
    ATIM_MasterModeTrgo2Config               0x0000086d   Thumb Code    44  cw32l010_atim.o(.text)
    ATIM_SlaverModeConfig                    0x00000899   Thumb Code    62  cw32l010_atim.o(.text)
    ATIM_SetTriggerInput                     0x000008d7   Thumb Code   130  cw32l010_atim.o(.text)
    ATIM_IC1Init                             0x00000959   Thumb Code   164  cw32l010_atim.o(.text)
    ATIM_IC2Init                             0x000009fd   Thumb Code   228  cw32l010_atim.o(.text)
    ATIM_IC3Init                             0x00000ae1   Thumb Code   152  cw32l010_atim.o(.text)
    ATIM_IC4Init                             0x00000b79   Thumb Code   162  cw32l010_atim.o(.text)
    ATIM_IC5Init                             0x00000c1b   Thumb Code   160  cw32l010_atim.o(.text)
    ATIM_IC6Init                             0x00000cbb   Thumb Code   172  cw32l010_atim.o(.text)
    ATIM_OC1Init                             0x00000d67   Thumb Code   214  cw32l010_atim.o(.text)
    ATIM_OC2Init                             0x00000e3d   Thumb Code   242  cw32l010_atim.o(.text)
    ATIM_OC3Init                             0x00000f2f   Thumb Code   222  cw32l010_atim.o(.text)
    ATIM_OC4Init                             0x0000100d   Thumb Code   232  cw32l010_atim.o(.text)
    ATIM_OC5Init                             0x000010f5   Thumb Code   234  cw32l010_atim.o(.text)
    ATIM_OC6Init                             0x000011df   Thumb Code   244  cw32l010_atim.o(.text)
    ATIM_CH1Config                           0x000012d3   Thumb Code    54  cw32l010_atim.o(.text)
    ATIM_CH2Config                           0x00001309   Thumb Code    46  cw32l010_atim.o(.text)
    ATIM_CH3Config                           0x00001337   Thumb Code    50  cw32l010_atim.o(.text)
    ATIM_CH4Config                           0x00001369   Thumb Code    50  cw32l010_atim.o(.text)
    ATIM_CH5Config                           0x0000139b   Thumb Code    50  cw32l010_atim.o(.text)
    ATIM_CH6Config                           0x000013cd   Thumb Code    50  cw32l010_atim.o(.text)
    ATIM_GetCapture1                         0x000013ff   Thumb Code     8  cw32l010_atim.o(.text)
    ATIM_GetCapture2                         0x00001407   Thumb Code     8  cw32l010_atim.o(.text)
    ATIM_GetCapture3                         0x0000140f   Thumb Code     8  cw32l010_atim.o(.text)
    ATIM_GetCapture4                         0x00001417   Thumb Code    10  cw32l010_atim.o(.text)
    ATIM_GetCapture5                         0x00001421   Thumb Code    10  cw32l010_atim.o(.text)
    ATIM_GetCapture6                         0x0000142b   Thumb Code    10  cw32l010_atim.o(.text)
    ATIM_SetCompare1                         0x00001435   Thumb Code     6  cw32l010_atim.o(.text)
    ATIM_SetCompare2                         0x0000143b   Thumb Code     6  cw32l010_atim.o(.text)
    ATIM_SetCompare3                         0x00001441   Thumb Code     6  cw32l010_atim.o(.text)
    ATIM_SetCompare4                         0x00001447   Thumb Code     8  cw32l010_atim.o(.text)
    ATIM_SetCompare5                         0x0000144f   Thumb Code     8  cw32l010_atim.o(.text)
    ATIM_SetCompare6                         0x00001457   Thumb Code     8  cw32l010_atim.o(.text)
    ATIM_CtrlPWMOutputs                      0x0000145f   Thumb Code    54  cw32l010_atim.o(.text)
    ATIM_SetPWMDeadtime                      0x00001495   Thumb Code   130  cw32l010_atim.o(.text)
    ATIM_Brake1Config                        0x00001517   Thumb Code   114  cw32l010_atim.o(.text)
    ATIM_Brake2Config                        0x00001589   Thumb Code   114  cw32l010_atim.o(.text)
    ATIM_UpdateEventSelect                   0x000015fb   Thumb Code    46  cw32l010_atim.o(.text)
    ATIM_RemapTimerInput                     0x00001629   Thumb Code   190  cw32l010_atim.o(.text)
    BTIM_DeInit                              0x000016f5   Thumb Code    58  cw32l010_btim.o(.text)
    BTIM_TimeBaseInit                        0x0000172f   Thumb Code   164  cw32l010_btim.o(.text)
    BTIM_Cmd                                 0x000017d3   Thumb Code    80  cw32l010_btim.o(.text)
    BTIM_ITConfig                            0x00001823   Thumb Code    96  cw32l010_btim.o(.text)
    BTIM_GetITStatus                         0x00001883   Thumb Code    72  cw32l010_btim.o(.text)
    BTIM_ClearITPendingBit                   0x000018cb   Thumb Code    64  cw32l010_btim.o(.text)
    BTIM_GenerateEvent                       0x0000190b   Thumb Code    64  cw32l010_btim.o(.text)
    BTIM_ModeConfig                          0x0000194b   Thumb Code    76  cw32l010_btim.o(.text)
    BTIM_SelectOnePulseMode                  0x00001997   Thumb Code    68  cw32l010_btim.o(.text)
    BTIM_OutputToggleCmd                     0x000019db   Thumb Code    84  cw32l010_btim.o(.text)
    BTIM_SetCounter                          0x00001a2f   Thumb Code    42  cw32l010_btim.o(.text)
    BTIM_GetCounter                          0x00001a59   Thumb Code    42  cw32l010_btim.o(.text)
    BTIM_SetAutoreload                       0x00001a83   Thumb Code    42  cw32l010_btim.o(.text)
    BTIM_GetAutoreload                       0x00001aad   Thumb Code   100  cw32l010_btim.o(.text)
    BTIM_SetPrescaler                        0x00001b11   Thumb Code    68  cw32l010_btim.o(.text)
    BTIM_GetPrescaler                        0x00001b55   Thumb Code    44  cw32l010_btim.o(.text)
    BTIM_ConfigUpdateRemap                   0x00001b81   Thumb Code    88  cw32l010_btim.o(.text)
    BTIM_ETRConfig                           0x00001bd9   Thumb Code   142  cw32l010_btim.o(.text)
    BTIM_AutoReloadPreloadConfig             0x00001c67   Thumb Code    84  cw32l010_btim.o(.text)
    BTIM_UpdateRequestSourceConfig           0x00001cbb   Thumb Code    72  cw32l010_btim.o(.text)
    BTIM_EnableUpdateEvent                   0x00001d03   Thumb Code    48  cw32l010_btim.o(.text)
    BTIM_DisableUpdateEvent                  0x00001d33   Thumb Code    48  cw32l010_btim.o(.text)
    BTIM_TriggerInputConfig                  0x00001d63   Thumb Code   198  cw32l010_btim.o(.text)
    BTIM_ResetInputConfig                    0x00001e29   Thumb Code   150  cw32l010_btim.o(.text)
    BTIM_MasterOutputTriggerConfig           0x00001ebf   Thumb Code    92  cw32l010_btim.o(.text)
    BTIM_SlaveSynchronEnable                 0x00001f1b   Thumb Code    50  cw32l010_btim.o(.text)
    BTIM_SlaveSynchronDisable                0x00001f4d   Thumb Code    50  cw32l010_btim.o(.text)
    GPIO_Init                                0x00001f89   Thumb Code   206  cw32l010_gpio.o(.text)
    GPIO_DeInit                              0x00002057   Thumb Code    38  cw32l010_gpio.o(.text)
    GPIO_ReadPin                             0x0000207d   Thumb Code    18  cw32l010_gpio.o(.text)
    GPIO_WritePin                            0x0000208f   Thumb Code    12  cw32l010_gpio.o(.text)
    GPIO_Write                               0x0000209b   Thumb Code     4  cw32l010_gpio.o(.text)
    GPIO_TogglePin                           0x0000209f   Thumb Code     4  cw32l010_gpio.o(.text)
    GPIO_SWD2GPIO                            0x000020a3   Thumb Code    16  cw32l010_gpio.o(.text)
    GPIO_GPIO2SWD                            0x000020b3   Thumb Code    20  cw32l010_gpio.o(.text)
    GPIO_RST2GPIO                            0x000020c7   Thumb Code    16  cw32l010_gpio.o(.text)
    GPIO_GPIO2RST                            0x000020d7   Thumb Code    20  cw32l010_gpio.o(.text)
    GPIO_ConfigFilter                        0x000020eb   Thumb Code     8  cw32l010_gpio.o(.text)
    SYSCTRL_HCLKPRS_Config                   0x000020fd   Thumb Code    66  cw32l010_sysctrl.o(.text)
    SYSCTRL_PCLKPRS_Config                   0x0000213f   Thumb Code    68  cw32l010_sysctrl.o(.text)
    SYSCTRL_GetHClkFreq                      0x00002183   Thumb Code   108  cw32l010_sysctrl.o(.text)
    SYSCTRL_SystemCoreClockUpdate            0x000021ef   Thumb Code     6  cw32l010_sysctrl.o(.text)
    SYSCTRL_SYSCLKSRC_Config                 0x000021f5   Thumb Code    62  cw32l010_sysctrl.o(.text)
    SYSCTRL_CCS_Config                       0x00002233   Thumb Code    72  cw32l010_sysctrl.o(.text)
    SYSCTRL_LSELOCK_Config                   0x0000227b   Thumb Code    40  cw32l010_sysctrl.o(.text)
    SYSCTRL_WAKEUPCLK_Config                 0x000022a3   Thumb Code    44  cw32l010_sysctrl.o(.text)
    SYSCTRL_LOCKUP_Config                    0x000022cf   Thumb Code    44  cw32l010_sysctrl.o(.text)
    SYSCTRL_SWDIO_Config                     0x000022fb   Thumb Code    44  cw32l010_sysctrl.o(.text)
    SYSCTRL_DeInit                           0x00002327   Thumb Code   142  cw32l010_sysctrl.o(.text)
    SYSCTRL_GetPClkFreq                      0x000023b5   Thumb Code    28  cw32l010_sysctrl.o(.text)
    SYSCTRL_HSI_Enable                       0x000023d1   Thumb Code   240  cw32l010_sysctrl.o(.text)
    SYSCTRL_HSI_Disable                      0x000024c1   Thumb Code    20  cw32l010_sysctrl.o(.text)
    SYSCTRL_LSI_Enable                       0x000024d5   Thumb Code   162  cw32l010_sysctrl.o(.text)
    SYSCTRL_LSI_Disable                      0x00002577   Thumb Code    20  cw32l010_sysctrl.o(.text)
    SYSCTRL_HSEWaitClockSet                  0x0000258b   Thumb Code    16  cw32l010_sysctrl.o(.text)
    SYSCTRL_HEXEnablePinPolSet               0x0000259b   Thumb Code    80  cw32l010_sysctrl.o(.text)
    SYSCTRL_HSE_Enable                       0x000025eb   Thumb Code   196  cw32l010_sysctrl.o(.text)
    SYSCTRL_HSE_Disable                      0x000026af   Thumb Code    20  cw32l010_sysctrl.o(.text)
    SYSCTRL_LSE_Enable                       0x000026c3   Thumb Code   170  cw32l010_sysctrl.o(.text)
    SYSCTRL_LSE_Disable                      0x0000276d   Thumb Code    20  cw32l010_sysctrl.o(.text)
    SYSCTRL_SysClk_Switch                    0x00002781   Thumb Code   232  cw32l010_sysctrl.o(.text)
    SYSCTRL_ITConfig                         0x00002869   Thumb Code    90  cw32l010_sysctrl.o(.text)
    SYSCTRL_GetITStatus                      0x000028c3   Thumb Code    54  cw32l010_sysctrl.o(.text)
    SYSCTRL_ClearITPendingBit                0x000028f9   Thumb Code    84  cw32l010_sysctrl.o(.text)
    SYSCTRL_GetStableFlag                    0x0000294d   Thumb Code    58  cw32l010_sysctrl.o(.text)
    SYSCTRL_GetAllStableFlag                 0x00002987   Thumb Code     6  cw32l010_sysctrl.o(.text)
    SYSCTRL_AHBPeriphClk_Enable              0x0000298d   Thumb Code    68  cw32l010_sysctrl.o(.text)
    SYSCTRL_APBPeriphClk_Enable1             0x000029d1   Thumb Code    66  cw32l010_sysctrl.o(.text)
    SYSCTRL_APBPeriphClk_Enable2             0x00002a13   Thumb Code    68  cw32l010_sysctrl.o(.text)
    SYSCTRL_AHBPeriphReset                   0x00002a57   Thumb Code    68  cw32l010_sysctrl.o(.text)
    SYSCTRL_APBPeriphReset1                  0x00002a9b   Thumb Code    66  cw32l010_sysctrl.o(.text)
    SYSCTRL_APBPeriphReset2                  0x00002add   Thumb Code    66  cw32l010_sysctrl.o(.text)
    SYSCTRL_GetRstFlag                       0x00002b1f   Thumb Code    72  cw32l010_sysctrl.o(.text)
    SYSCTRL_GetAllRstFlag                    0x00002b67   Thumb Code     8  cw32l010_sysctrl.o(.text)
    SYSCTRL_ClearRstFlag                     0x00002b6f   Thumb Code    68  cw32l010_sysctrl.o(.text)
    SYSCTRL_PCLK_OUT                         0x00002bb3   Thumb Code    66  cw32l010_sysctrl.o(.text)
    SYSCTRL_MCO_OUT                          0x00002bf5   Thumb Code   168  cw32l010_sysctrl.o(.text)
    SYSCTRL_GotoSleep                        0x00002c9d   Thumb Code    20  cw32l010_sysctrl.o(.text)
    SYSCTRL_GotoDeepSleep                    0x00002cb1   Thumb Code    20  cw32l010_sysctrl.o(.text)
    SYSCTRL_ConfigSleepOnExit                0x00002cc5   Thumb Code    32  cw32l010_sysctrl.o(.text)
    SystemCoreClockUpdate                    0x00002cfd   Thumb Code     8  system_cw32l010.o(.text)
    SystemInit                               0x00002d05   Thumb Code    50  system_cw32l010.o(.text)
    FirmwareDelay                            0x00002d37   Thumb Code    18  system_cw32l010.o(.text)
    PowerOnDelay                             0x00002d59   Thumb Code   140  main.o(.text)
    PotentialCheck                           0x00002de5   Thumb Code    56  main.o(.text)
    main                                     0x00002e1d   Thumb Code   336  main.o(.text)
    BTIM1_IRQHandler                         0x00002f6d   Thumb Code   264  main.o(.text)
    assert_failed                            0x00003075   Thumb Code     2  main.o(.text)
    NMI_Handler                              0x00003101   Thumb Code     2  interrupts_cw32l010.o(.text)
    HardFault_Handler                        0x00003103   Thumb Code     4  interrupts_cw32l010.o(.text)
    SVC_Handler                              0x00003107   Thumb Code     2  interrupts_cw32l010.o(.text)
    PendSV_Handler                           0x00003109   Thumb Code     2  interrupts_cw32l010.o(.text)
    WDT_IRQHandler                           0x0000310b   Thumb Code     2  interrupts_cw32l010.o(.text)
    LVD_IRQHandler                           0x0000310d   Thumb Code     2  interrupts_cw32l010.o(.text)
    RTC_IRQHandler                           0x0000310f   Thumb Code     2  interrupts_cw32l010.o(.text)
    FLASHRAM_IRQHandler                      0x00003111   Thumb Code     2  interrupts_cw32l010.o(.text)
    SYSCTRL_IRQHandler                       0x00003113   Thumb Code     2  interrupts_cw32l010.o(.text)
    GPIOA_IRQHandler                         0x00003115   Thumb Code     2  interrupts_cw32l010.o(.text)
    GPIOB_IRQHandler                         0x00003117   Thumb Code     2  interrupts_cw32l010.o(.text)
    ATIM_IRQHandler                          0x00003119   Thumb Code     2  interrupts_cw32l010.o(.text)
    VC1_IRQHandler                           0x0000311b   Thumb Code     2  interrupts_cw32l010.o(.text)
    VC2_IRQHandler                           0x0000311d   Thumb Code     2  interrupts_cw32l010.o(.text)
    LPTIM_IRQHandler                         0x0000311f   Thumb Code     2  interrupts_cw32l010.o(.text)
    BTIM2_IRQHandler                         0x00003121   Thumb Code     2  interrupts_cw32l010.o(.text)
    I2C1_IRQHandler                          0x00003123   Thumb Code     2  interrupts_cw32l010.o(.text)
    SPI1_IRQHandler                          0x00003125   Thumb Code     2  interrupts_cw32l010.o(.text)
    UART1_IRQHandler                         0x00003127   Thumb Code     2  interrupts_cw32l010.o(.text)
    UART2_IRQHandler                         0x00003129   Thumb Code     2  interrupts_cw32l010.o(.text)
    CLKFAULT_IRQHandler                      0x0000312b   Thumb Code     2  interrupts_cw32l010.o(.text)
    RCC_Configuration                        0x0000312d   Thumb Code    48  init.o(.text)
    LEDConfiguration                         0x0000315d   Thumb Code    72  init.o(.text)
    RST_KEYConfiguration                     0x000031a5   Thumb Code    58  init.o(.text)
    ADC_Configuration                        0x000031df   Thumb Code   218  init.o(.text)
    BLDC_Configuration                       0x000032b9   Thumb Code   360  init.o(.text)
    BTIM1_Configuration                      0x00003421   Thumb Code    76  init.o(.text)
    SENSORLESS_TIM_Config                    0x0000346d   Thumb Code    96  init.o(.text)
    SampleSpeed                              0x00003509   Thumb Code   192  compu.o(.text)
    SampleVI                                 0x000035c9   Thumb Code   338  compu.o(.text)
    MotorStartCheck                          0x0000378d   Thumb Code   172  control.o(.text)
    MotorStartDealy                          0x00003839   Thumb Code    94  control.o(.text)
    MotorStartOPEN                           0x00003897   Thumb Code    88  control.o(.text)
    MotorRunOPEN                             0x000038ef   Thumb Code   180  control.o(.text)
    MotorStartPID                            0x000039a3   Thumb Code   360  control.o(.text)
    MotorRunPID                              0x00003b0b   Thumb Code   206  control.o(.text)
    MotorStop                                0x00003bd9   Thumb Code    94  control.o(.text)
    MotorError                               0x00003c37   Thumb Code    20  control.o(.text)
    MotorBreak                               0x00003c4b   Thumb Code   170  control.o(.text)
    MotorErrorOver                           0x00003cf5   Thumb Code   212  control.o(.text)
    WaitStart                                0x00003dc9   Thumb Code    14  control.o(.text)
    DirCheck                                 0x00003dd7   Thumb Code   156  control.o(.text)
    Commutation                              0x00003eb5   Thumb Code   526  motor.o(.text)
    UPPWM                                    0x000040c3   Thumb Code   168  motor.o(.text)
    HALL_MOTOR_START                         0x0000416b   Thumb Code   100  motor.o(.text)
    MOTOR_STOP0                              0x000041cf   Thumb Code    22  motor.o(.text)
    BTIM3_IRQHandler                         0x00004235   Thumb Code   142  sensorless.o(.text)
    ADCS_chuli                               0x000042c3   Thumb Code   346  sensorless.o(.text)
    ADC_IRQHandler                           0x0000441d   Thumb Code   162  sensorless.o(.text)
    Sensorless_START                         0x000044bf   Thumb Code   490  sensorless.o(.text)
    PID_init                                 0x000046b1   Thumb Code   122  pid.o(.text)
    PIDcompute                               0x0000472b   Thumb Code   382  pid.o(.text)
    __aeabi_uidiv                            0x000048e9   Thumb Code     0  uidiv.o(.text)
    __aeabi_uidivmod                         0x000048e9   Thumb Code    44  uidiv.o(.text)
    __aeabi_idiv                             0x00004915   Thumb Code     0  idiv.o(.text)
    __aeabi_idivmod                          0x00004915   Thumb Code    40  idiv.o(.text)
    __aeabi_ldivmod                          0x0000493d   Thumb Code    76  ldiv.o(.text)
    __aeabi_memset                           0x00004989   Thumb Code    14  memseta.o(.text)
    __aeabi_memset4                          0x00004989   Thumb Code     0  memseta.o(.text)
    __aeabi_memset8                          0x00004989   Thumb Code     0  memseta.o(.text)
    __aeabi_memclr                           0x00004997   Thumb Code     4  memseta.o(.text)
    __aeabi_memclr4                          0x00004997   Thumb Code     0  memseta.o(.text)
    __aeabi_memclr8                          0x00004997   Thumb Code     0  memseta.o(.text)
    _memset$wrapper                          0x0000499b   Thumb Code    18  memseta.o(.text)
    __aeabi_fadd                             0x000049ad   Thumb Code   162  fadd.o(.text)
    __aeabi_fsub                             0x00004a4f   Thumb Code     8  fadd.o(.text)
    __aeabi_frsub                            0x00004a57   Thumb Code     8  fadd.o(.text)
    __aeabi_fmul                             0x00004a5f   Thumb Code   122  fmul.o(.text)
    __aeabi_fdiv                             0x00004ad9   Thumb Code   124  fdiv.o(.text)
    __aeabi_dadd                             0x00004b55   Thumb Code   330  dadd.o(.text)
    __aeabi_dsub                             0x00004c9f   Thumb Code    12  dadd.o(.text)
    __aeabi_drsub                            0x00004cab   Thumb Code    12  dadd.o(.text)
    __aeabi_dmul                             0x00004cbd   Thumb Code   202  dmul.o(.text)
    __aeabi_ddiv                             0x00004d8d   Thumb Code   234  ddiv.o(.text)
    __aeabi_i2f                              0x00004e7d   Thumb Code    22  fflti.o(.text)
    __aeabi_ui2f                             0x00004e93   Thumb Code    14  ffltui.o(.text)
    __aeabi_i2d                              0x00004ea1   Thumb Code    34  dflti.o(.text)
    __aeabi_ui2d                             0x00004ec9   Thumb Code    24  dfltui.o(.text)
    __aeabi_f2uiz                            0x00004ee5   Thumb Code    40  ffixui.o(.text)
    __aeabi_d2iz                             0x00004f0d   Thumb Code    62  dfixi.o(.text)
    __aeabi_f2d                              0x00004f55   Thumb Code    40  f2d.o(.text)
    __aeabi_cdcmpeq                          0x00004f7d   Thumb Code     0  cdcmple.o(.text)
    __aeabi_cdcmple                          0x00004f7d   Thumb Code    38  cdcmple.o(.text)
    __aeabi_cdrcmple                         0x00004fa5   Thumb Code    38  cdrcmple.o(.text)
    __aeabi_d2f                              0x00004fcd   Thumb Code    56  d2f.o(.text)
    __aeabi_cfcmpeq                          0x00005005   Thumb Code     0  cfcmple.o(.text)
    __aeabi_cfcmple                          0x00005005   Thumb Code    20  cfcmple.o(.text)
    __aeabi_cfrcmple                         0x00005019   Thumb Code    20  cfrcmple.o(.text)
    __aeabi_uldivmod                         0x0000502d   Thumb Code    96  uldiv.o(.text)
    __aeabi_llsl                             0x0000508d   Thumb Code    32  llshl.o(.text)
    _ll_shift_l                              0x0000508d   Thumb Code     0  llshl.o(.text)
    __aeabi_llsr                             0x000050ad   Thumb Code    34  llushr.o(.text)
    _ll_ushift_r                             0x000050ad   Thumb Code     0  llushr.o(.text)
    __aeabi_lasr                             0x000050cf   Thumb Code    38  llsshr.o(.text)
    _ll_sshift_r                             0x000050cf   Thumb Code     0  llsshr.o(.text)
    __I$use$fp                               0x000050f5   Thumb Code     0  iusefp.o(.text)
    _float_round                             0x000050f5   Thumb Code    16  fepilogue.o(.text)
    _float_epilogue                          0x00005105   Thumb Code   114  fepilogue.o(.text)
    _double_round                            0x00005177   Thumb Code    26  depilogue.o(.text)
    _double_epilogue                         0x00005191   Thumb Code   164  depilogue.o(.text)
    __scatterload                            0x00005235   Thumb Code    28  init.o(.text)
    __scatterload_rt2                        0x00005235   Thumb Code     0  init.o(.text)
    __decompress                             0x00005259   Thumb Code     0  __dczerorl2.o(.text)
    __decompress1                            0x00005259   Thumb Code    86  __dczerorl2.o(.text)
    __ARM_clz                                0x000052af   Thumb Code    46  depilogue.o(i.__ARM_clz)
    __ARM_common_switch8                     0x000052dd   Thumb Code    28  cw32l010_atim.o(i.__ARM_common_switch8)
    __scatterload_copy                       0x000052f9   Thumb Code    14  handlers.o(i.__scatterload_copy)
    __scatterload_null                       0x00005307   Thumb Code     2  handlers.o(i.__scatterload_null)
    __scatterload_zeroinit                   0x00005309   Thumb Code    14  handlers.o(i.__scatterload_zeroinit)
    hsiprs_tbl                               0x00005318   Data          64  cw32l010_sysctrl.o(.constdata)
    TAB_RFling                               0x00005358   Data          12  sensorless.o(.constdata)
    TAB_BEMFChannel                          0x00005364   Data          12  sensorless.o(.constdata)
    RAMP_TABLE                               0x00005370   Data          64  sensorlessp.o(.constdata)
    Region$$Table$$Base                      0x000053b0   Number         0  anon$$obj.o(Region$$Table)
    Region$$Table$$Limit                     0x000053d0   Number         0  anon$$obj.o(Region$$Table)
    SystemCoreClock                          0x20000000   Data           4  system_cw32l010.o(.data)
    hte                                      0x20000004   Data           4  main.o(.data)
    TimeCountCompuSpeed                      0x20000008   Data           4  global.o(.data)
    TimeCountTemp                            0x2000000c   Data           4  global.o(.data)
    TimeCountSTDelay                         0x20000010   Data           4  global.o(.data)
    TimeCountRealSpd                         0x20000014   Data           4  global.o(.data)
    TimeCountPID                             0x20000018   Data           4  global.o(.data)
    TimeCountAvgSpd                          0x2000001c   Data           4  global.o(.data)
    TimeCountVI                              0x20000020   Data           4  global.o(.data)
    TimeCountStartUP                         0x20000024   Data           4  global.o(.data)
    Timesensor                               0x20000028   Data           4  global.o(.data)
    MOTORSTATE                               0x2000002c   Data           1  global.o(.data)
    ErrorCode                                0x2000002d   Data           1  global.o(.data)
    Motor_Start_F                            0x20000030   Data           4  global.o(.data)
    Cur_step                                 0x20000034   Data           4  global.o(.data)
    Dir                                      0x20000038   Data           1  global.o(.data)
    HALLcount                                0x2000003c   Data           4  global.o(.data)
    HALLcount1                               0x20000040   Data           4  global.o(.data)
    HALLcountTemp                            0x20000044   Data           4  global.o(.data)
    TargS1                                   0x20000048   Data           4  global.o(.data)
    RealS1                                   0x2000004c   Data           4  global.o(.data)
    RealS                                    0x20000050   Data           4  global.o(.data)
    SetSpeed                                 0x20000054   Data           4  global.o(.data)
    KKN                                      0x20000058   Data           4  global.o(.data)
    KPWMN                                    0x2000005c   Data           4  global.o(.data)
    OutPwmValue                              0x20000060   Data           4  global.o(.data)
    SCFlag                                   0x20000064   Data           1  global.o(.data)
    ErrCleFlag                               0x20000065   Data           1  global.o(.data)
    SpeedD                                   0x20000068   Data           4  global.o(.data)
    DIin                                     0x2000006c   Data           4  global.o(.data)
    CanshuV                                  0x20000070   Data           4  global.o(.data)
    CanshuI                                  0x20000074   Data           4  global.o(.data)
    ControlMode                              0x20000078   Data           4  global.o(.data)
    CanshuSPC                                0x2000007c   Data           4  global.o(.data)
    CanshuDir                                0x20000080   Data           4  global.o(.data)
    CanshuSTC                                0x20000084   Data           4  global.o(.data)
    PWMMin                                   0x20000088   Data           4  global.o(.data)
    PWMMax                                   0x2000008c   Data           4  global.o(.data)
    MPolePairs                               0x20000090   Data           4  global.o(.data)
    MAXSPEED                                 0x20000094   Data           4  global.o(.data)
    CanshuTimeDelay                          0x20000098   Data           4  global.o(.data)
    ISH                                      0x2000009c   Data           4  global.o(.data)
    VSH                                      0x200000a0   Data           4  global.o(.data)
    LSH                                      0x200000a4   Data           4  global.o(.data)
    TImeUP                                   0x200000a8   Data           4  global.o(.data)
    MINSPEED                                 0x200000ac   Data           4  global.o(.data)
    CanshuSTT                                0x200000b0   Data           4  global.o(.data)
    SP                                       0x200000b4   Data           4  global.o(.data)
    SI                                       0x200000b8   Data           4  global.o(.data)
    SD                                       0x200000bc   Data           4  global.o(.data)
    Tonoroff                                 0x200000c0   Data           1  global.o(.data)
    STEP_last                                0x200000c4   Data           4  global.o(.data)
    StepTime                                 0x200000c8   Data           4  global.o(.data)
    StepTime_1                               0x200000cc   Data           4  global.o(.data)
    StepTimeCOM                              0x200000d0   Data           4  global.o(.data)
    aa                                       0x200000d4   Data           4  global.o(.data)
    bb                                       0x200000d8   Data           4  global.o(.data)
    aac                                      0x200000dc   Data           4  global.o(.data)
    bbc                                      0x200000e0   Data           4  global.o(.data)
    suma                                     0x200000e4   Data           4  global.o(.data)
    sumb                                     0x200000e8   Data           4  global.o(.data)
    ADCBEMF                                  0x200000f0   Data          24  motor.o(.data)
    StOk                                     0x2000010c   Data           1  sensorless.o(.data)
    StCountComm                              0x20000110   Data           4  sensorless.o(.data)
    NumCoun                                  0x20000114   Data           4  sensorless.o(.data)
    FFlag                                    0x20000118   Data           1  sensorless.o(.data)
    QDPwm                                    0x20000119   Data           1  sensorless.o(.data)
    TimeAli                                  0x2000011c   Data           4  sensorless.o(.data)
    Sta                                      0x20000120   Data           1  sensorless.o(.data)
    RisingFalling                            0x20000121   Data           1  sensorless.o(.data)
    BEMFConvertedValue                       0x20000124   Data           4  sensorless.o(.data)
    bHallStartStep1                          0x20000128   Data           4  sensorless.o(.data)
    MINOUT                                   0x2000012c   Data           4  sensorless.o(.data)
    SPEED_P                                  0x20000138   Data           4  pid.o(.data)
    SPEED_I                                  0x2000013c   Data           4  pid.o(.data)
    SPEED_D                                  0x20000140   Data           4  pid.o(.data)
    SSumError                                0x20000148   Data           8  pid.o(.data)
    SPrevError                               0x20000150   Data           8  pid.o(.data)
    SLastError                               0x20000158   Data           8  pid.o(.data)
    SdError                                  0x20000160   Data           4  pid.o(.data)
    SError                                   0x20000164   Data           4  pid.o(.data)
    SampleData                               0x20000168   Data          12  global.o(.bss)
    __initial_sp                             0x20000378   Data           0  startup_cw32l010.o(STACK)



==============================================================================

Memory Map of the image

  Image Entry point : 0x000000c1

  Load Region LR_IROM1 (Base: 0x00000000, Size: 0x00005538, Max: 0x00010000, ABSOLUTE, COMPRESSED[0x0000540c])

    Execution Region ER_IROM1 (Exec base: 0x00000000, Load base: 0x00000000, Size: 0x000053d0, Max: 0x00010000, ABSOLUTE)

    Exec Addr    Load Addr    Size         Type   Attr      Idx    E Section Name        Object

    0x00000000   0x00000000   0x000000c0   Data   RO            3    RESET               startup_cw32l010.o
    0x000000c0   0x000000c0   0x00000000   Code   RO          625  * .ARM.Collect$$$$00000000  mc_p.l(entry.o)
    0x000000c0   0x000000c0   0x00000004   Code   RO          672    .ARM.Collect$$$$00000001  mc_p.l(entry2.o)
    0x000000c4   0x000000c4   0x00000004   Code   RO          675    .ARM.Collect$$$$00000004  mc_p.l(entry5.o)
    0x000000c8   0x000000c8   0x00000000   Code   RO          677    .ARM.Collect$$$$00000008  mc_p.l(entry7b.o)
    0x000000c8   0x000000c8   0x00000000   Code   RO          679    .ARM.Collect$$$$0000000A  mc_p.l(entry8b.o)
    0x000000c8   0x000000c8   0x00000008   Code   RO          680    .ARM.Collect$$$$0000000B  mc_p.l(entry9a.o)
    0x000000d0   0x000000d0   0x00000004   Code   RO          687    .ARM.Collect$$$$0000000E  mc_p.l(entry12b.o)
    0x000000d4   0x000000d4   0x00000000   Code   RO          682    .ARM.Collect$$$$0000000F  mc_p.l(entry10a.o)
    0x000000d4   0x000000d4   0x00000000   Code   RO          684    .ARM.Collect$$$$00000011  mc_p.l(entry11a.o)
    0x000000d4   0x000000d4   0x00000004   Code   RO          673    .ARM.Collect$$$$00002712  mc_p.l(entry2.o)
    0x000000d8   0x000000d8   0x00000028   Code   RO            4    .text               startup_cw32l010.o
    0x00000100   0x00000100   0x000005ac   Code   RO           12    .text               cw32l010_adc.o
    0x000006ac   0x000006ac   0x00001048   Code   RO           80    .text               cw32l010_atim.o
    0x000016f4   0x000016f4   0x00000894   Code   RO          105    .text               cw32l010_btim.o
    0x00001f88   0x00001f88   0x00000174   Code   RO          174    .text               cw32l010_gpio.o
    0x000020fc   0x000020fc   0x00000c00   Code   RO          240    .text               cw32l010_sysctrl.o
    0x00002cfc   0x00002cfc   0x0000005c   Code   RO          263    .text               system_cw32l010.o
    0x00002d58   0x00002d58   0x000003a8   Code   RO          289    .text               main.o
    0x00003100   0x00003100   0x0000002c   Code   RO          374    .text               interrupts_cw32l010.o
    0x0000312c   0x0000312c   0x000003dc   Code   RO          407    .text               init.o
    0x00003508   0x00003508   0x00000284   Code   RO          462    .text               compu.o
    0x0000378c   0x0000378c   0x00000728   Code   RO          490    .text               control.o
    0x00003eb4   0x00003eb4   0x00000380   Code   RO          524    .text               motor.o
    0x00004234   0x00004234   0x0000047c   Code   RO          557    .text               sensorless.o
    0x000046b0   0x000046b0   0x00000238   Code   RO          601    .text               pid.o
    0x000048e8   0x000048e8   0x0000002c   Code   RO          628    .text               mc_p.l(uidiv.o)
    0x00004914   0x00004914   0x00000028   Code   RO          630    .text               mc_p.l(idiv.o)
    0x0000493c   0x0000493c   0x0000004c   Code   RO          632    .text               mc_p.l(ldiv.o)
    0x00004988   0x00004988   0x00000024   Code   RO          634    .text               mc_p.l(memseta.o)
    0x000049ac   0x000049ac   0x000000b2   Code   RO          636    .text               mf_p.l(fadd.o)
    0x00004a5e   0x00004a5e   0x0000007a   Code   RO          638    .text               mf_p.l(fmul.o)
    0x00004ad8   0x00004ad8   0x0000007c   Code   RO          640    .text               mf_p.l(fdiv.o)
    0x00004b54   0x00004b54   0x00000168   Code   RO          642    .text               mf_p.l(dadd.o)
    0x00004cbc   0x00004cbc   0x000000d0   Code   RO          644    .text               mf_p.l(dmul.o)
    0x00004d8c   0x00004d8c   0x000000f0   Code   RO          646    .text               mf_p.l(ddiv.o)
    0x00004e7c   0x00004e7c   0x00000016   Code   RO          648    .text               mf_p.l(fflti.o)
    0x00004e92   0x00004e92   0x0000000e   Code   RO          650    .text               mf_p.l(ffltui.o)
    0x00004ea0   0x00004ea0   0x00000028   Code   RO          652    .text               mf_p.l(dflti.o)
    0x00004ec8   0x00004ec8   0x0000001c   Code   RO          654    .text               mf_p.l(dfltui.o)
    0x00004ee4   0x00004ee4   0x00000028   Code   RO          656    .text               mf_p.l(ffixui.o)
    0x00004f0c   0x00004f0c   0x00000048   Code   RO          658    .text               mf_p.l(dfixi.o)
    0x00004f54   0x00004f54   0x00000028   Code   RO          660    .text               mf_p.l(f2d.o)
    0x00004f7c   0x00004f7c   0x00000028   Code   RO          662    .text               mf_p.l(cdcmple.o)
    0x00004fa4   0x00004fa4   0x00000028   Code   RO          664    .text               mf_p.l(cdrcmple.o)
    0x00004fcc   0x00004fcc   0x00000038   Code   RO          666    .text               mf_p.l(d2f.o)
    0x00005004   0x00005004   0x00000014   Code   RO          668    .text               mf_p.l(cfcmple.o)
    0x00005018   0x00005018   0x00000014   Code   RO          670    .text               mf_p.l(cfrcmple.o)
    0x0000502c   0x0000502c   0x00000060   Code   RO          688    .text               mc_p.l(uldiv.o)
    0x0000508c   0x0000508c   0x00000020   Code   RO          690    .text               mc_p.l(llshl.o)
    0x000050ac   0x000050ac   0x00000022   Code   RO          692    .text               mc_p.l(llushr.o)
    0x000050ce   0x000050ce   0x00000026   Code   RO          694    .text               mc_p.l(llsshr.o)
    0x000050f4   0x000050f4   0x00000000   Code   RO          696    .text               mc_p.l(iusefp.o)
    0x000050f4   0x000050f4   0x00000082   Code   RO          697    .text               mf_p.l(fepilogue.o)
    0x00005176   0x00005176   0x000000be   Code   RO          699    .text               mf_p.l(depilogue.o)
    0x00005234   0x00005234   0x00000024   Code   RO          703    .text               mc_p.l(init.o)
    0x00005258   0x00005258   0x00000056   Code   RO          713    .text               mc_p.l(__dczerorl2.o)
    0x000052ae   0x000052ae   0x0000002e   Code   RO          701    i.__ARM_clz         mf_p.l(depilogue.o)
    0x000052dc   0x000052dc   0x0000001c   Code   RO           95    i.__ARM_common_switch8  cw32l010_atim.o
    0x000052f8   0x000052f8   0x0000000e   Code   RO          707    i.__scatterload_copy  mc_p.l(handlers.o)
    0x00005306   0x00005306   0x00000002   Code   RO          708    i.__scatterload_null  mc_p.l(handlers.o)
    0x00005308   0x00005308   0x0000000e   Code   RO          709    i.__scatterload_zeroinit  mc_p.l(handlers.o)
    0x00005316   0x00005316   0x00000002   PAD
    0x00005318   0x00005318   0x00000040   Data   RO          241    .constdata          cw32l010_sysctrl.o
    0x00005358   0x00005358   0x00000018   Data   RO          558    .constdata          sensorless.o
    0x00005370   0x00005370   0x00000040   Data   RO          587    .constdata          sensorlessp.o
    0x000053b0   0x000053b0   0x00000020   Data   RO          705    Region$$Table       anon$$obj.o


    Execution Region RW_IRAM1 (Exec base: 0x20000000, Load base: 0x000053d0, Size: 0x00000378, Max: 0x00001000, ABSOLUTE, COMPRESSED[0x0000003c])

    Exec Addr    Load Addr    Size         Type   Attr      Idx    E Section Name        Object

    0x20000000   COMPRESSED   0x00000004   Data   RW          264    .data               system_cw32l010.o
    0x20000004   COMPRESSED   0x00000004   Data   RW          290    .data               main.o
    0x20000008   COMPRESSED   0x000000e4   Data   RW          441    .data               global.o
    0x200000ec   COMPRESSED   0x00000003   Data   RW          463    .data               compu.o
    0x200000ef   COMPRESSED   0x00000001   Data   RW          491    .data               control.o
    0x200000f0   COMPRESSED   0x00000019   Data   RW          525    .data               motor.o
    0x20000109   COMPRESSED   0x00000003   PAD
    0x2000010c   COMPRESSED   0x00000025   Data   RW          559    .data               sensorless.o
    0x20000131   COMPRESSED   0x00000007   PAD
    0x20000138   COMPRESSED   0x00000030   Data   RW          602    .data               pid.o
    0x20000168        -       0x0000000c   Zero   RW          440    .bss                global.o
    0x20000174   COMPRESSED   0x00000004   PAD
    0x20000178        -       0x00000200   Zero   RW            1    STACK               startup_cw32l010.o


==============================================================================

Image component sizes


      Code (inc. data)   RO Data    RW Data    ZI Data      Debug   Object Name

       644        114          0          3          0       1087   compu.o
      1832        162          0          1          0       3082   control.o
      1452         82          0          0          0     136869   cw32l010_adc.o
      4196        108          0          0          0      21667   cw32l010_atim.o
      2196         86          0          0          0      14166   cw32l010_btim.o
       372         10          0          0          0       2755   cw32l010_gpio.o
      3072        140         64          0          0      10802   cw32l010_sysctrl.o
         0          0          0        228         12       2680   global.o
       988         34          0          0          0      10289   init.o
        44          0          0          0          0       2403   interrupts_cw32l010.o
       936        152          0          4          0     147288   main.o
       896         80          0         25          0       2383   motor.o
       568         64          0         48          0       1459   pid.o
      1148        124         24         37          0       3072   sensorless.o
         0          0         64          0          0       1697   sensorlessp.o
        40         14        192          0        512        664   startup_cw32l010.o
        92         16          0          4          0       1583   system_cw32l010.o

    ----------------------------------------------------------------------
     18476       1186        376        360        528     363946   Object Totals
         0          0         32          0          0          0   (incl. Generated)
         0          0          0         10          4          0   (incl. Padding)

    ----------------------------------------------------------------------

      Code (inc. data)   RO Data    RW Data    ZI Data      Debug   Library Member Name

        86          0          0          0          0          0   __dczerorl2.o
         0          0          0          0          0          0   entry.o
         0          0          0          0          0          0   entry10a.o
         0          0          0          0          0          0   entry11a.o
         4          0          0          0          0          0   entry12b.o
         8          4          0          0          0          0   entry2.o
         4          0          0          0          0          0   entry5.o
         0          0          0          0          0          0   entry7b.o
         0          0          0          0          0          0   entry8b.o
         8          4          0          0          0          0   entry9a.o
        30          0          0          0          0          0   handlers.o
        40          0          0          0          0         72   idiv.o
        36          8          0          0          0         68   init.o
         0          0          0          0          0          0   iusefp.o
        76          0          0          0          0         76   ldiv.o
        32          0          0          0          0         68   llshl.o
        38          0          0          0          0         68   llsshr.o
        34          0          0          0          0         68   llushr.o
        36          0          0          0          0        100   memseta.o
        44          0          0          0          0         72   uidiv.o
        96          0          0          0          0         84   uldiv.o
        40          2          0          0          0         68   cdcmple.o
        40          2          0          0          0         68   cdrcmple.o
        20          0          0          0          0         68   cfcmple.o
        20          0          0          0          0         68   cfrcmple.o
        56          0          0          0          0         68   d2f.o
       360          6          0          0          0        140   dadd.o
       240          6          0          0          0         84   ddiv.o
       236          0          0          0          0        216   depilogue.o
        72         10          0          0          0         72   dfixi.o
        40          6          0          0          0         68   dflti.o
        28          4          0          0          0         68   dfltui.o
       208          6          0          0          0         88   dmul.o
        40          0          0          0          0         60   f2d.o
       178          0          0          0          0        108   fadd.o
       124          0          0          0          0         72   fdiv.o
       130          0          0          0          0        144   fepilogue.o
        40          0          0          0          0         60   ffixui.o
        22          0          0          0          0         68   fflti.o
        14          0          0          0          0         68   ffltui.o
       122          0          0          0          0         72   fmul.o

    ----------------------------------------------------------------------
      2604         58          0          0          0       2404   Library Totals
         2          0          0          0          0          0   (incl. Padding)

    ----------------------------------------------------------------------

      Code (inc. data)   RO Data    RW Data    ZI Data      Debug   Library Name

       572         16          0          0          0        676   mc_p.l
      2030         42          0          0          0       1728   mf_p.l

    ----------------------------------------------------------------------
      2604         58          0          0          0       2404   Library Totals

    ----------------------------------------------------------------------

==============================================================================


      Code (inc. data)   RO Data    RW Data    ZI Data      Debug   

     21080       1244        376        360        528     364254   Grand Totals
     21080       1244        376         60        528     364254   ELF Image Totals (compressed)
     21080       1244        376         60          0          0   ROM Totals

==============================================================================

    Total RO  Size (Code + RO Data)                21456 (  20.95kB)
    Total RW  Size (RW Data + ZI Data)               888 (   0.87kB)
    Total ROM Size (Code + RO Data + RW Data)      21516 (  21.01kB)

==============================================================================

