:020000040000FA
:1000000010040020D9000000730200006902000003
:1000100000000000000000000000000000000000E0
:100020000000000000000000000000003503000098
:10003000000000000000000075020000390300000D
:10004000A7030000710200002F030000510100000F
:100050002D0300005301000055010000570100006E
:10006000590100003101000033010000350100009A
:100070002501000027010000A3030000A5030000E4
:1000800061020000630200006502000067020000D8
:100090002B0100002D0100002F0100006D02000067
:1000A0006F02000031030000330300009D030000D5
:1000B0009F030000A1030000290100004F01000080
:1000C0000448854600F01CF800480047C9030000BA
:1000D000C046C04610040020064908688546064808
:1000E000804706480047FEE7FEE7FEE7FEE7FEE73B
:1000F000FEE700000000000061030000C1000000F6
:10010000064C0125064E05E0E36807CC2B430C3C6A
:1001100098471034B442F7D3FFF7D6FF1804000015
:100120003804000070477047704770477047704749
:1001300070477047704701B504E068460088401E6C
:1001400081B20091684600880028F6D108BD70474A
:100150007047704770477047704700004A68002A30
:1001600004D1C2690B681A43C26174E0C2690B68AA
:100170009A43C26110234A681A40102A4ED102687D
:100180000B681A4302604A68112A07D102690B689A
:100190001A430261C2680B689A43C2604A68122A15
:1001A00007D1C2680B681A43C26002690B689A43A0
:1001B0000261426A0B689A434262826A0B689A4300
:1001C0008262C26A0B689A43C262026B0B689A43EE
:1001D000026381238A681A40812A03D1426A0B682C
:1001E0001A43426282238A681A40822A03D1826AB1
:1001F0000B681A43826284238A681A40842A03D1D6
:10020000C26A0B681A43C26288238A681A40882A25
:1002100021D1026B0B681A4302631CE002680B6871
:100220009A4302604A68202A04D142680B689A43C4
:10023000426003E042680B681A434260064BCA689A
:100240009A4204D182680B681A43826003E0826894
:100250000B689A4382607047FFFF00000166704799
:10026000704770477047704700BFFEE770477047A0
:10027000704770477047000070B504461D4D062C4E
:1002800011D0082C0FD0072C0DD0092C0BD0052C29
:1002900009D00B2C07D00C2C05D00D2C03D00E2C24
:1002A00001D00F2C00D104E0FF21163112A000F084
:1002B0008AF8E002932149020988084319498861B4
:1002C00008464068184908431649486000BF154869
:1002D00080690121C9030840884204D02846691E6C
:1002E0008DB20028F3D1002D01D1012070BD002076
:1002F000FCE70000FFFF00002E2E5C2E2E5C2E2E51
:100300005C2E2E5C4C69627261726965735C7372FB
:10031000635C63773332663033305F7263632E63BE
:10032000000000000000014001005A5A7047704769
:100330007047704770470000034800680349097818
:100340004018014908607047040000200C0000209C
:10035000014802490860704700127A00000000203E
:1003600000B5FFF7F5FF9321490209884805400DC4
:1003700009498969C90AC9020143074A9161932160
:10038000490249888805800D1146096A890A89024F
:100390000143116200BD000000000140704770473A
:1003A000704770477047704702E008C8121F08C1C5
:1003B000002AFAD170477047002001E001C1121FE6
:1003C000002AFBD1704770471FB50520FFF754FF87
:1003D0000E48006B202108430C49086380200290DE
:1003E00020200190032000020090094803906946F4
:1003F0000848FFF7B3FE07E0032109020548FFF7AD
:100400002DFF0348FFF797FEF6E7000000000140CC
:10041000FFFF000000040048380400000000002036
:1004200010000000A8030000480400001000002095
:1004300000040000B803000000127A000000000071
:080440000400000001000000AF
:04000005000000C136
:00000001FF
