:020000040000FA
:1000000058050020D90000003B0D0000E30A000065
:1000100000000000000000000000000000000000E0
:10002000000000000000000000000000C3110000FC
:1000300000000000000000006D0F0000C51100006E
:10004000D3130000390D0000BD1100008D09000020
:1000500049100000AD090000B1090000DD090000F1
:10006000DF090000850900008709000089090000F8
:10007000D306000035070000CF130000D1130000A5
:10008000DB0A0000DD0A0000DF0A0000E10A0000D0
:1000900069080000ED080000EF080000050B0000F3
:1000A000070B0000BF110000C11100001112000079
:1000B00079120000A1120000650800008B09000001
:1000C0000448854600F0C8FA00480047A919000016
:1000D000C046C0465805002009480A4A002100A130
:1000E000814200D902440848026008488047084815
:1000F0000047FEE7FEE7FEE7FEE7FEE7FEE700005B
:10010000000000200000000008ED00E0D511000014
:10011000C100000030B50B4601460020202201241A
:1001200009E00D46D5409D4205D31D469540491B2B
:100130002546954040191546521E002DF1DC30BD74
:1001400003460B439B0703D009E008C9121F08C0F0
:10015000042AFAD203E00B780370401C491C521E9B
:10016000F9D27047F8B502464A40D40F42004B001E
:1001700052085B089A4202D20246084611464A00DB
:1001800023D0C30D4A00DDB2120EAD1A202D35DA90
:1001900049020126490AF6058A19002C00D052426C
:1001A00020214F1B1146B9402A411018C20D9A4216
:1001B00021D0002C17D0012D08DCDA05801AD20FCF
:1001C0008019D207DBB200F0AFF9F8BDDA05801A6A
:1001D000012340001B06C01880185A428018CA0F1D
:1001E0001043490007E04908C2071143DA05801AA5
:1001F00080194008801800F08FF9F8BD61000122D5
:10020000511A001BF7E70122D2075140AAE7012249
:10021000D2075040A6E770B502464A40D50F4000CD
:100220004A00ED0740085208002814D0002A12D0D6
:10023000C40DD30D41020120C0055202490A520AE1
:10024000E41A091812187D34914201D3641C00E0AD
:100250004900002C01DA002070BD0023914201D337
:10026000891A0343400849000028F7D100290AD021
:10027000914202D10121C90705E0914201D2012139
:1002800001E00121C943E005C018401900F044F91C
:1002900070BD420005D04200120E52428A4201DB7C
:1002A00000207047C905081870470000F0B50746E0
:1002B0000846584087B0C00F049048000E465900C9
:1002C00040084908BC1A884105D2384631461E46C6
:1002D00017460B4602465800400810434DD0300DDB
:1002E000039040055900400D490D0590401A0290B9
:1002F000402873DA18030121000B09050843019017
:1003000004980092002806D01146019A4942002024
:10031000904100910190029840210A1A0199009899
:1003200000F0C6F805460C466B4607CB00F0E1F836
:10033000C0197141039A0E0D0023D71756401A4673
:100340007A40164344D0049A002A2DD0029A012AFA
:10035000039A15DC1205C01A914101263605001CCE
:100360007141D20F059ED2070093019202962A4650
:10037000234600F01FF907B0F0BD38463146FAE7D2
:100380001605234A0F46B218C01AB74101210905C4
:10039000001C4F4100187F41114618187941E20FA7
:1003A00010436D19644113E0E2076D0815436408BA
:1003B000C2071443039A01261205C01A914136055B
:1003C000001C7141CE07400830434908C018514114
:1003D0002A46234600F0E1F8CDE7FFE70498012222
:1003E0004000C117121A00238B4104983146C417EC
:1003F000381AA141EEE730B40124E407634030BC71
:1004000054E730B40124E407614030BC4EE70000FB
:100410000000E0FF10B500229623114600F084F89A
:1004200010BD410040020122400AD205090E801889
:100430007F2901DA00207047962903DC9622511AA1
:10044000C840704796398840704700004A00090349
:100450000123090B1B051943094B10B5520D9A4294
:1004600001DA002010BD064B34339A4203DC9A1A9D
:1004700000F02EF810BD03495118884010BD00004F
:10048000FF030000CDFBFFFFC20FD2074000400872
:100490000BD0C10D0723DB01C91840020905400A32
:1004A0001143C208400711437047002001467047BE
:1004B00010B5202A04DB0146203A9140002010BDEF
:1004C000914020239C1A0346E3401943904010BDFD
:1004D00010B5202A04DB0846203AD040002110BD88
:1004E0000B46D340D0402024A21A9140084319461D
:1004F00010BD10B5202A06DBCB170846203A104164
:10050000C1170B4306E00B461341D0402024A21A2A
:1005100091400843194610BD002904DA401C4900E7
:1005200001D140084000704770B40024050C05D18B
:100530001024000402D1002921D01124050E01D17C
:1005400000020834050F01D10001241D850F01D1DF
:100550008000A41C002801DB4000641C002908D096
:1005600020252E1B0D46F540A14000D00121294336
:10057000084301061B1B000ADB1D02D5002070BCCE
:100580007047DB05181880180029F8DA401C49006C
:10059000F5D170BC40084000704710B5002B08DA58
:1005A0000024401C614192185B411A4301D140086C
:1005B000400010BDF0B51FB482B005460C0003D05A
:1005C000084600F03FFF02E000F03CFF203002460A
:1005D000009021462846FFF76BFF049B059A0446CE
:1005E0000F4618431143084314D0184610431BD03C
:1005F000009840210A1A18460599FFF769FF054639
:100600000E46009A05990498FFF752FF084305D05B
:10061000012004E02046394607B0F0BD0020C11794
:1006200005430E432C43374300990E986305401A47
:100630007905E40A00220C43FD0A0A3002D50020A5
:100640000146E9E70105101969410C9C0D9D00194F
:100650006941FFF7A2FFDFE7064C0125064E05E0E2
:10066000E36807CC2B430C3C98471034B442F7D3D3
:10067000FFF72AFD542600007426000070B58C1880
:100680000578401C6B075B0F01D10378401C2A11D1
:1006900006D10278401C03E006780E70401C491C0D
:1006A0005B1EF9D12B0705D40023521E0DD40B700D
:1006B000491CFAE70378401CCB1A921C03E01D7812
:1006C0000D70491C5B1C521EF9D5A142D8D30020E5
:1006D00070BD7047044A0029516A01D0014300E00F
:1006E0008143516270470000002C0140044A0029F8
:1006F000916A01D0014300E081439162704700009C
:10070000002C01400449CA68C00752085200C00FBB
:100710000243CA6070470000002C0140044A116B7C
:100720009314C0079943C00C014311637047000044
:10073000002C014070470000044A0029D16801D014
:10074000014300E08143D16070470000002C01406C
:1007500010B50268416883680A43016919430A4376
:10076000017B002900D080210A4341690C4B0A43D8
:10077000D9680C4C21400A43DA608169196001464E
:1007800020310A464978002900D099151278002AAC
:1007900001D001225202C06911430143596310BDC7
:1007A000002C01400B8FFFF710B54168026809016A
:1007B000D20111430F4AD369F024A3431943D161F5
:1007C00081680B03817B002900D080210B43017BD2
:1007D000002901D00121C902407B0B43002801D030
:1007E000012040020343506A7521C9018843034335
:1007F000536210BD002C014010B541680268090326
:10080000D2031143104AD3690F242403A34319438D
:10081000D16181680B03817B002900D080210B43CB
:10082000017B002901D00121C902407B0B43002834
:1008300001D0012040020343906A7521C901884319
:100840000343936210BD0000002C01400149086081
:1008500070470000402C014001498860704700004B
:10086000402C01407047000070B51D4C012120460E
:1008700000F04CF8002831D00121204600F038F873
:100880000925ED0600240121284600F01BF9002867
:1008900000D108240221284600F014F9002801D1D3
:1008A000042004438021284600F00CF9002801D1DF
:1008B00002200443FF210131284600F003F90028FB
:1008C00001D10120044301218903064800F0FAF810
:1008D000002801D1102004430348047070BD0000BB
:1008E00000480140000800481A0000207047704787
:1008F000C2698A43C26170470029016902D001229E
:10090000114301E0490849000161704780690840CE
:1009100000D001207047002A426901D00A4300E05C
:100920008A4342617047000030B54A880B880469E9
:100930001A43CB88034D2C4023431A430261898814
:10094000016030BD59F8FFFF10B500F035FB00F035
:10095000D9F900F013FA00F0F1F901F0EDF801F027
:1009600001F800F05BFE00F0C5FF4B24E4012046D7
:1009700001F080F9204601F0D3F901F055F900F0BB
:10098000C9FE10BD70477047704770477047000040
:10099000002801D018210843024908430249486051
:1009A0007047000000005A5A0020024070470000C3
:1009B00010B50848416B89040AD5816B01225203A6
:1009C00091438163044901200870052001F0F6F885
:1009D00010BD0000000400485B0200207047704713
:1009E0000CC90839002B0DD0C3699343C3610A7940
:1009F000D20602680B684DD51A4302604A68112A74
:100A000004D00BE0C1691143C161704702690B68F2
:100A10001A430261C2680B689A43C2604A68122A8C
:100A200007D1C2680B681A43C26002690B689A4317
:100A30000261426A0B689A434262826A0B689A4377
:100A40008262C26A0B689A43C262026B0B689A4365
:100A500002638B6881229A4303D1426A0B681A436E
:100A600042628B6882229A4303D1826A0B681A43DE
:100A700082628B6884229A4303D1C26A0B681A434C
:100A8000C2628B6888229A43BFD1026B09680A430D
:100A9000026370479A4302604A68202A42680B68E2
:100AA00009D01A434260064BCA689A4282680968B4
:100AB00003D10A4302E09A43F4E78A438260704715
:100AC000FFFF0000006D084000D001207047012AA0
:100AD00001D081657047C1657047704770477047A6
:100AE0007047FEE705488268C1148A4382608268C5
:100AF0000A4382600249002088607047400001403C
:100B0000005400407047704704220029816801D0DA
:100B1000114300E09143816070470029016802D0D1
:100B20000122114301E049084900016070478168D2
:100B3000082291438160704740220029816801D0DA
:100B4000114300E0914381607047000010B51B48DD
:100B500086B0816BC21411438163016B2022114363
:100B60000163174881690F2212069143032212067E
:100B70008918816181691201090109098918816156
:100B8000C0210091212101910E4903916946FFF78F
:100B900027FF0120694608740420487400208875E6
:100BA000C875FFF79FFF084C04A9204600F086F89F
:100BB00001212046FFF7C0FF06B010BD0000014034
:100BC00000040048FFFF0000005400400029816835
:100BD00002D00122114301E04908490081607047B9
:100BE000202200290CD04169F829816805D01143E1
:100BF000816081680822914300E011438160704761
:100C00008168F8E710220029816801D0114300E0D3
:100C100091438160704780680007C00F704740694A
:100C2000C0B27047FFB581B00F461D46164600247E
:100C300001210198FFF7D4FF0198FFF7ECFF00288E
:100C4000FAD00198FFF7EBFF282818D006DC082817
:100C500009D0182811D0202821D117E030281AD027
:100C600038281CD112E000210198FFF7B9FF0022BB
:100C70007821019800F03BF811E0394602E0315D3F
:100C8000641CE4B2019800F03BF808E001210198EF
:100C9000FFF7A6FF03E001210198FFF7B3FFAC4285
:100CA00008D901210198FFF7ADFF0198FFF73FFF39
:100CB00005B0F0BD0198FFF73AFFBDE710B5044657
:100CC00048780B46606009782046FFF726FF99793F
:100CD0002046FFF77BFFD9792046FFF715FF5878AC
:100CE000092803D801212046FFF770FF10BD002A14
:100CF00002D00122114301E049084900C160704758
:100D0000C16070471FB50948016B40221143016360
:100D1000802002902020019000020090044803905F
:100D200069460448FFF75CFE1FBD0000000001405B
:100D3000FFFF0000000800487047704710B5002012
:100D400000F001F810BD70B5064600252846B03009
:100D5000C0B200F03FFB002000F03CFB102000F090
:100D600039FB0024304600F03FFB641CE4B2802CC9
:100D7000F8D36D1CEDB2082DE8D370BD10B5FFF7A8
:100D8000E5FE642000F07EFDAE2000F023FB202075
:100D900000F020FB102000F01DFBB02000F01AFB3B
:100DA000C82000F017FB002000F014FB102000F01A
:100DB00011FB402000F00EFB812000F00BFBFF2018
:100DC00000F008FBA12000F005FBA62000F002FBCC
:100DD000A82000F0FFFA3F2000F0FCFAA42000F069
:100DE000F9FAD32000F0F6FA002000F0F3FAD5204B
:100DF00000F0F0FAF02000F0EDFAD92000F0EAFA65
:100E0000222000F0E7FADA2000F0E4FA122000F0E5
:100E1000E1FADB2000F0DEFA202000F0DBFA8D2082
:100E200000F0D8FA142000F0D5FAAF2000F0D2FA82
:100E300010BD10B50446B031C8B200F0CBFA20099D
:100E4000103000F0C7FA2007000F0121084300F01E
:100E5000C1FA10BDF7B50F46002554010098FFF701
:100E6000E8FF0C4E305D00F0BFFA6D1CEDB2641C63
:100E7000102DF7D37F1CF9B20098FFF7DAFF002599
:100E8000305D00F0B1FA6D1CEDB2641C102DF7D38B
:100E9000FEBD00001B000020FFB5002681B00F46FC
:100EA0000446012B22D0022B24D155E02038C0B2B9
:100EB00000907E2C02D900247F1CFFB239462046C8
:100EC000FFF7B7FF00980621484326490025401840
:100ED0000090405D00F088FA6D1CEDB2062D01D245
:100EE0000098F6E7A41D761CE4B2F6B20398805D84
:100EF0000028DBD105B0F0BD2038C0B20090782CBE
:100F000002D900247F1CFFB239462046FFF791FF2B
:100F1000009800250001009041191348405C00F042
:100F200063FA6D1CEDB2082D01D20098F4E7781C2D
:100F3000C1B22046FFF77DFF0025009841190A48FD
:100F40000818007A00F050FA6D1CEDB2082DF4D3A9
:100F50000834761CE4B2F6B20398805D0028CBD149
:100F6000C8E700003C1E000064200000704700003D
:100F7000044A0029116B01D0014300E08143116351
:100F80007047000000000140044A0029916B01D025
:100F9000014300E08143916370470000000001407D
:100FA000044A0029516B01D0014300E081435163A1
:100FB000704700000000014010B5052000F030F837
:100FC000002000F01DF8002000F040F80822094938
:100FD000032000F04BF80848016B02221143016323
:100FE0001046FFF7D5FC022000F084F8034800F01B
:100FF000DFF810BD00127A00000001400090D0031D
:10100000044A1168044B194001430448014311602C
:1010100070470000000001401FFF000000005A5A06
:10102000C102932040020088014305488161416864
:10103000044A1143416081690904FCD570470000EE
:101040000000014001005A5A70470000044A11682C
:10105000044B1940014304480143116070470000EC
:1010600000000140E7FF000000005A5AF7B51E4893
:1010700017460D460FC88AB003936B4607C31A493B
:10108000002426461422103104A8FFF759F86846B8
:10109000A1004158A94201D9264603E0641CE4B2EC
:1010A000042CF5D37D43002004A982008A58AA426B
:1010B00001D9054603E0401CC0B20528F5D36902FA
:1010C00038010143B00001430A980143072000039F
:1010D0000143064881624168054A11434160816AC3
:1010E0000904FCD50DB0F0BD181E00000000014041
:1010F00004005A5A70B50B4C054620680A4908434B
:101100000A4908402843206000F014F808490860A4
:1011100020684007400FA84201D0012070BD002088
:1011200070BD00000000014000005A5AF8FF5A5AF2
:101130000C000020F8B5194C20684707A0697F0F04
:101140004004010FA06A8207A06A920FC005C50E75
:10115000134E14483B0000F08CF9050409100B0DE8
:10116000040089007158FEF7D5FF0FE00E480DE02E
:101170000E480BE00120C00308E0002A0BD0012A32
:1011800009D089007158FEF7C5FF68432168090638
:10119000490FC840F8BD04486843F7E70000014024
:1011A000D81D0000006CDC020024F4002080000048
:1011B00001490860704700000C000020704770472C
:1011C00070477047024881680278891881607047CB
:1011D000000000200C490B4893235B02086018882C
:1011E00041050A48490D8269D20AD2020A43826146
:1011F0005988026A8905890D920A92020A4302629D
:101200007047000000127A000C000020000001402E
:1012100010B5164C0421204600F04CF8002820D0D0
:101220000421204600F03DF8204600F0CBF811499B
:101230000F4A4B88D0544B880020C72B0ED24B88C6
:10124000D318203BDB7F0A2B0CD04B88D318203BD4
:10125000DB7F0D2B06D04A88521C4A804880012033
:10126000087010BD4B88D054F8E7000000380140EA
:10127000780200201000002010B5084C0421204600
:1012800000F018F8002808D00421204600F009F8E2
:10129000204600F097F800F067FA10BD00440040C7
:1012A0007047026A8A4302627047C069084000D0F2
:1012B00001207047C069084000D001207047002A13
:1012C000826804D00A43826082680A4305E0C94309
:1012D00089B20A40826082680A40826070470000DA
:1012E000F8B505460C4688888989228A0843E18931
:1012F00011430843618A08432968304A1140084372
:101300002860E088A18A08436968C322920091435B
:1013100008436860A0882A4E002813D0C11FFF39F7
:10132000FA390CD001218902884220682ED1800030
:10133000FFF770F80746A068FFF76CF82FE0206809
:10134000C000F5E720680001FFF764F80746A068D1
:10135000FFF760F83946FEF75EFF0446FFF761F8D5
:1013600087B23846FFF756F82146FEF750FF0421B2
:10137000FEF78FFFFFF788F800223346FEF796FF4F
:10138000FFF764F880B2EF602861F8BDFFF742F81C
:101390000746A068FFF73EF80821FEF77AFF3946B6
:1013A000FEF739FFFFF770F800223346FEF77EFFA5
:1013B000FFF74CF880B2E860F8BD0000C0F8FFFF0E
:1013C0000000E03F406AC0B27047816270477047DA
:1013D0007047704701B501236A4600210148FFF7B5
:1013E00021FC08BD0054004001B501236A4640219C
:1013F0000148FFF717FC08BD005400400FB410B5BA
:1014000003A9044B044A029800F050F810BC08BC31
:1014100004B01847D11800005C0200200FB410B5CA
:1014200004A9074B02AA039800F040F8044602A959
:10143000002000F0E3F8204610BC08BC04B01847B8
:10144000FD1500002021020C01D010211046020AD7
:1014500001D010460839020901D01046091F820840
:1014600001D01046891E420801D0881E7047081A14
:10147000704730B47446641E2578641CAB4200D2B9
:101480001D46635D5B00E31830BC184702E008C8E6
:10149000121F08C1002AFAD170477047002001E0EE
:1014A00001C1121F002AFBD170470000FFB58DB0AB
:1014B0000446002506E025280AD0109A0F99904787
:1014C000641C6D1C20780028F5D1284611B0F0BDB1
:1014D00000270121484A009700E00743641C237855
:1014E0000846203B98401042F7D120782E2817D18B
:1014F000042007436078641C2A280CD10E98641CD1
:1015000002C800910E900BE000990A225143303935
:101510004018641C00902078014630390929F3D91D
:1015200020780028D1D0642808D0692806D07528F2
:101530001ED0109A0F9990476D1C5BE00A200E99FF
:10154000019001C90E91002802DA40422D2102E0EB
:10155000390504D52B216A461172012103E0F907F0
:1015600004D02021F7E70BAE0B910DE00021FAE744
:101570000A200E99019001C90E91F7E70199FEF733
:10158000C9FD3031761E31700028F7D103A8801BC9
:1015900020300190780701D5009801E001200090EB
:1015A0000199884201DD401A00E0002000270090E8
:1015B00006E002A8109AC05D0F9990476D1C7F1C31
:1015C0000B988742F5DB04E0109A30200F99904782
:1015D0006D1C0099481E00900029F5DC05E030786C
:1015E000109A761C0F9990476D1C0199481E019026
:1015F0000029F4DC641C65E7092801000A68531C13
:101600000B601070704710B580B2FFF71FF910BD66
:1016100010B580B2FFF720F910BD000070B5394851
:1016200092B0416B802421434163016B2025294303
:101630000163016B10221143016308200D90324EAB
:10164000324810960E950F9481690F221203914330
:1016500007221203891881610DA9FFF7C1F9200241
:101660000D90092010960E950F94C006416907222F
:10167000090109091207891841610DA9FFF7B0F99D
:10168000002469460C73280205940290009408A96E
:1016900001944C70302004901D48069007940C7003
:1016A0006846FFF755F8012008A988740C740B9060
:1016B000487406200A90099409A8FFF79DF809A824
:1016C000FFF772F801210807FFF736F801214802F9
:1016D000FFF70CF80020FFF7BFF80120FFF712F822
:1016E0000120FFF71BF801210802FEF7F3FF00209D
:1016F000FFF7ACF80120FFF705F80120FFF70EF81F
:1017000012B070BD00000140FFFF0000000400485F
:101710000F2700001CB51148416B8214114341632F
:1017200072B601200E490005086062B600206946C5
:101730004880C880401E888001204002094C0880F3
:101740002046FFF7F1F8012211462046FFF7E3F8A3
:1017500001212046FFF7D0F81CBD00000000014029
:1017600000E100E00048014010B5444B0022197828
:10177000434C612801D06B2801D1002904D0622894
:101780000BD06D2809D00AE0227000F06BF9A18817
:10179000608800F025F9002015E0002908D06528B0
:1017A00017D0374A632812781DD070281BD01CE050
:1017B0000120207000F056F9A08841426088404224
:1017C00000F00EF9012000F0F9F93AE000F0DAF942
:1017D00010BD1A7000F062F9642000F053F8022086
:1017E00000F0ECF910BD002904D0642811D0712854
:1017F0000FD010E0002A02D0A088414200E0A1886A
:10180000002000F0EDF8032000F0D8F9A1880020B6
:10181000DCE7002918D06A2825D06928E2D1002900
:10182000E0D16088FF38F53880B26080A188FF3948
:10183000F53989B2A180002A01D04942404200F026
:10184000CFF8A1886088C1E7002A03D06088002112
:10185000404201E00021608800F0C2F8042000F05E
:10186000ADF90021EEE70029BCD16088FF30F530EA
:1018700080B26080A188FF31F531DAE75B02002099
:1018800014000020F8B504460F4D0E48686100268C
:10189000AE61052028610D48012700683F060090D1
:1018A00009E0AE617D21C9000098FEF733FC381ACB
:1018B000A9698142FCD8641EF3D22869400840001F
:1018C0002861F8BDFFFFFF0000E000E00C000020F1
:1018D00070B5074D0446C1B22846FFF776FD0121D9
:1018E0002846FFF7E2FC0028F9D0204670BD000032
:1018F000003801407FB51848016B40221143016355
:1019000080200290202001900320C0020090134804
:101910000924E406039069462046FFF761F8302168
:101920000F4D009169462846FFF75AF8012211032E
:101930002046FFF7CCF80122D1022046FFF7C7F876
:10194000012210212846FFF7C2F801222021284653
:10195000FFF7BDF87FBD000000000140FFFF000061
:10196000000400481FB50C48016B2022114301639D
:1019700072B640200949086062B6822002901120A8
:1019800001900120400300900548039069460548F6
:10199000FFF726F81FBD00000000014000E100E055
:1019A000FFFF000000040048FEF7CEFF07A0FFF78E
:1019B00025FD7D200001FFF765FF074C074D2078CE
:1019C0000128FCD1287800F085F8F8E768656C6C90
:1019D0006F204357333200005B0200201A000020C2
:1019E000F8B50C461B491C4E1C4F051E05DD012297
:1019F0003046FFF76CF8002206E0002D08DA0022DE
:101A00003046FFF764F8012239463046FFF75FF8A9
:101A1000280000D56842FFF7F6FD114D002C06DDC9
:101A2000012210212846FFF752F8002207E0002C7F
:101A300009DA002210212846FFF749F80122202167
:101A40002846FFF744F8200000D56042FFF7E0FD8C
:101A5000F8BD000000100000000000480008000071
:101A60000004004810B509240122E40611032046B1
:101A7000FFF72DF801210022C9022046FFF727F8C1
:101A8000054C012210212046FFF721F800222021D9
:101A90002046FFF71CF810BD0004004810B50924CB
:101AA0000122E40611032046FFF711F80122D102BA
:101AB0002046FFF70CF8064C012210212046FFF7C4
:101AC00006F8012220212046FFF701F810BD000092
:101AD0000004004810B5154A022810D07D231B01D0
:101AE00004280FD0012810D0082814D0102815D0B1
:101AF000002803D100210E48FFF772FF10BD1046E9
:101B00001146F9E71146184601E019461046FFF75D
:101B100067FF1E2007E01146002001E00021054874
:101B2000FFF75EFF5020FFF7ADFE10BD88130000E9
:101B3000B80B00005C120000002210B511461046E0
:101B4000FFF788F9012200211020FFF783F9022214
:101B500000212020FFF77EF90C220B210020FFF747
:101B600079F90D220B211020FFF774F90E220B21B9
:101B70002020FFF76FF902220B213020FFF76AF9CE
:101B800010BD000000B57D22D20099B0904200D374
:101B900010460B46024606A16846FFF73FFC0223AB
:101BA0006A460E210020FFF777F919B000BD00004A
:101BB0004D313A2564204D323A25640010B5002895
:101BC00010D0012815D002281ED0032823D00428C5
:101BD00023D0052817D1102200213020FFF73AF931
:101BE00011220CE0032200213020FFF733F90F22ED
:101BF00005E0042200213020FFF72CF90722002104
:101C00004120FFF727F910BD092200213020FFF7FE
:101C100021F90A22F3E7052200E006220021302004
:101C2000FFF718F90822EAE77FB50F48016B102487
:101C300021430163016B402211430163FF200B4DDF
:101C4000802684306A46039551C209206946C00641
:101C5000FEF7C6FEA0026A46039551C269460448D3
:101C6000FEF7BEFE7FBD000000000140FFFF000048
:101C7000000800487FB5012105464E023046FFF7B7
:101C80008FF901212020FFF773F91E4C60690009CC
:101C90000001C01C60616069F021884330306061E0
:101CA000701000902020019017480390694620464C
:101CB000FEF796FE11200190694600962046FEF739
:101CC0008FFE1248002105608180C180104A826029
:101CD0008181C18101828182032141820D4C0146B3
:101CE0002046FFF7FDFA012204212046FFF7E7FA1C
:101CF000094801680902090A01600849B00408603E
:101D00007FBD000000040048FFFF000060020020CB
:101D10000090D0030038014018E400E000E100E04A
:101D20007FB5054601218020FFF72EF92348016B7E
:101D30001022114301630924E406A0690F2109025E
:101D40008843FF30FF300230A061A0690901884359
:101D500051024018A06104200090202001901848F2
:101D6000039069462046FEF73BFE082000901120B4
:101D7000019069462046FEF733FE124800210560B7
:101D80008180C180104A82608181C181018281820B
:101D9000032141820D4C01462046FFF7A1FA0122A2
:101DA00004212046FFF78BFA09480168090A090255
:101DB00001600849A00408607FBD000000000140E8
:101DC000FFFF0000400300200090D00300440040CB
:101DD0001CE400E000E100E0060000000600000056
:101DE00006000000060000000600000006000000DB
:101DF00001000000030000000200000004000000D9
:101E000006000000080000000A0000000C000000AE
:101E10000E00000010000000808D5B00001BB7006A
:101E2000002D310101366E0180A8120100366E01CD
:101E300000512502006CDC0201A24A0400000000EF
:101E400000000000002F0000000007000700001441
:101E50007F147F1400242A7F2A120062640813234F
:101E600000364955225000000503000000001C22E6
:101E70004100000041221C000014083E0814000824
:101E8000083E0808000000A06000000808080808D4
:101E9000000060600000002010080402003E51496C
:101EA000453E0000427F400000426151494600210A
:101EB00041454B31001814127F1000274545453924
:101EC000003C4A494930000171090503003649497F
:101ED000493600064949291E000036360000000038
:101EE0005636000000081422410000141414141483
:101EF000000041221408000201510906003249592C
:101F0000513E007C1211127C007F49494936003E47
:101F100041414122007F4141221C007F4949494102
:101F2000007F09090901003E4149497A007F0808FC
:101F3000087F0000417F4100002040413F01007FB9
:101F400008142241007F40404040007F020C027F85
:101F5000007F0408107F003E4141413E007F090997
:101F60000906003E4151215E007F091929460046BD
:101F7000494949310001017F0101003F4040403F94
:101F8000001F2040201F003F4038403F00631408DE
:101F900014630007087008070061514945430000B9
:101FA0007F41410000552A552A55000041417F00DC
:101FB00000040201020400404040404000000102D1
:101FC0000400002054545478007F484444380038BA
:101FD0004444442000384444487F00385454541842
:101FE00000087E0901020018A4A4A47C007F080454
:101FF00004780000447D4000004080847D00007F24
:10200000102844000000417F4000007C0418047840
:10201000007C0804047800384444443800FC24243C
:1020200024180018242418FC007C08040408004824
:102030005454542000043F444020003C4040207C45
:10204000001C2040201C003C4030403C0044281034
:102050002844001CA0A0A07C004464544C441414E8
:102060001414141400000000000000000000000020
:1020700000000000000000F8000000000000003335
:102080003000000000100C06100C060000000000DC
:102090000000000040C07840C0784000043F0404C5
:1020A0003F040400007088FC08300000001820FF86
:1020B000211E0000F008F000E018000000211C03C1
:1020C0001E211E0000F00888700000001E2123243D
:1020D0001927211010160E0000000000000000005B
:1020E00000000000000000E01804020000000007EB
:1020F0001820400000020418E000000000402018F2
:1021000007000000404080F0804040000202010FC4
:1021100001020200000000F0000000000101011FA8
:1021200001010100000000000000000080B070000C
:10213000000000000000000000000000000101019C
:10214000010101010000000000000000003030002B
:102150000000000000000000806018040060180605
:102160000100000000E010080810E000000F10203F
:1021700020100F00001010F8000000000020203F89
:102180002020000000700808088870000030282413
:1021900022213000003008888848300000182020B4
:1021A00020110E000000C02010F8000000070424D9
:1021B000243F240000F8088888080800001921201E
:1021C00020110E0000E0108888180000000F112078
:1021D00020110E0000380808C83808000000003F31
:1021E000000000000070880808887000001C222190
:1021F00021221C0000E010080810E000000031223D
:1022000022110F00000000C0C000000000000030DC
:10221000300000000000008000000000000080602E
:1022200000000000000080402010080000010204AF
:102230000810200040404040404040000404040496
:102240000404040000081020408000000020100852
:1022500004020100007048080808F0000000003087
:1022600036010000C030C828E810E0000718272415
:1022700023140B000000C038E0000000203C2302C3
:102280000227382008F8888888700000203F202026
:1022900020110E00C0300808080838000718202058
:1022A0002010080008F808080810E000203F20204F
:1022B00020100F0008F88888E8081000203F202030
:1022C0002320180008F88888E8081000203F200024
:1022D00003000000C030080808380000071820205C
:1022E000221E020008F808000008F808203F21011B
:1022F00001213F20000808F8080800000020203FC6
:102300002020000000000808F8080800C080808035
:102310007F00000008F888C028180800203F20012E
:102320002638200008F8080000000000203F202088
:102330002020300008F8F800F8F80800203F003F9F
:10234000003F200008F830C00008F808203F2000B7
:1023500007183F00E01008080810E0000F102020C8
:1023600020100F0008F808080808F000203F21019D
:1023700001010000E01008080810E0000F182424F4
:1023800038504F0008F8888888887000203F200067
:10239000030C30200070880808083800003820211D
:1023A00021221C00180808F8080818000000203F27
:1023B0002000000008F808000008F808001F20208E
:1023C00020201F000878880000C83808000007385F
:1023D0000E010000F80800F80008F800033C0700B0
:1023E000073C0300081868808068180820302C0318
:1023F000032C30200838C800C83808000000203FEF
:102400002000000010080808C838080020382621DD
:1024100020201800000000FE020202000000007FE1
:1024200040404000000C30C00000000000000001EF
:102430000638C00000020202FE00000000404040DA
:102440007F000000000004020202040000000000FF
:10245000000000000000000000000000808080807C
:102460008080808000020204000000000000000064
:1024700000000000000080808080000000192422FD
:1024800022223F2008F8008080000000003F112039
:1024900020110E000000008080800000000E11203E
:1024A00020201100000000808088F800000E11201C
:1024B00020103F200000808080800000001F22222A
:1024C00022221300008080F0888888180020203F96
:1024D000202000000000808080808000006B9494A9
:1024E0009493600008F8008080800000203F210065
:1024F00000203F2000809898000000000020203F2E
:1025000020200000000000809898000000C080801B
:10251000807F000008F8000080808000203F2402B7
:102520002D302000000808F8000000000020203FA7
:10253000202000008080808080808000203F20005C
:102540003F20003F8080008080800000203F2100ED
:1025500000203F200000808080800000001F20209D
:1025600020201F00808000808000000080FFA120CC
:1025700020110E000000008080808000000E1120DD
:1025800020A0FF80808080008080800020203F216C
:10259000200001000000808080808000003324241F
:1025A00024241900008080E0808000000000001FCB
:1025B000202000008080000000808000001F20207C
:1025C00020103F20808080000080808000010E303D
:1025D0000806010080800080008080800F300C039E
:1025E0000C300F0000808000808080000020312EA1
:1025F0000E312000808080000080808080818E707D
:102600001806010000808080808080000021302C2E
:102610002221300000000000807C02020000000047
:10262000003F404000000000FF00000000000000EC
:10263000FF0000000002027C800000000040403FDC
:102640000000000000060101020204040000000076
:10265000000000007426000000000020600200005E
:102660007C0600003428000060020020F802000010
:102670009C1400003201820473127A15A00FA00F7F
:1026800013183012FF1A1001100C90FF901113173D
:1026900012080601FF1680C03018077026071C704C
:1026A000C0800808088888C8E8B81F3868C88888C3
:1026B000080872190101F080808993B28080E001DE
:1026C0000913E30C0C7318183813C848484B4E4CC8
:1026D00048C808080CCE0B0808E8FF120132FF2298
:1026E0003F1380FF5BFF110129851B10108E116BBA
:1026F000FE820112FE19801C08C83C3A59013EC0F6
:1027000060180F031B4922180A0404048464340C63
:1027100007050929018E0C0603FF81011DFF20E139
:1027200002FA5BFF4801181FFFC07FC0808080FF56
:10273000B090918A86848C9AB2740C03FA020202D9
:102740002022E23A2722011008211111FF11090964
:10275000181113326242C2F23A0EC060F807010249
:102760007A2A011A2B041A7A4C111809070109094F
:10277000098989F906220952F83BFF200129D3195A
:10278000601962390612801B720E60180F2232180F
:10279000C6030101070C9830212121F219E76008D6
:1027A000888486828180F07AFFE0A9BD2381FF289A
:1027B000151C8484C464243405070604346444C4AA
:1027C0008403018584013AFC063D8401FF40011920
:1027D000961F80C04020100878190F12203BFF81FF
:1027E0008025C04042CC5D101010FF04280A8040B4
:1027F0003F40C0A1B18D835F1904160884C331180E
:10280000280CFE12D252517D5551D111014A137834
:102810000F2BFF920112FF244142C6280C88C848A2
:10282000F0090E08F0488808401E82C1A098875C15
:04283000196C5203CA
:04000005000000C136
:00000001FF
