:020000040000FA
:1000000030030020D900000011410000134100001E
:1000100000000000000000000000000000000000E0
:100020000000000000000000000000001741000078
:10003000000000000000000019410000EF00000077
:100040001B4100001D4100001F4100002141000034
:1000500023410000493D0000254100000000000050
:100060000000000000000000000000000000000090
:100070007551000027410000294100002B4100007C
:10008000B53D000000000000000000002D41000010
:10009000273F00002F410000594F00003141000070
:1000A0000000000033410000000000003541000066
:1000B000374100000000000000000000394100004E
:1000C0000448854605F0A4FD00480047D73D0000E0
:1000D000C046C046300300200649086885460648E9
:1000E000804706480047FEE7FEE7FEE7FEE7FEE73B
:1000F000FEE7000000000000B13B0000C10000006E
:10010000FB48406840084000F9494860084640689C
:1001100001210843F6494860704710B5044620683D
:10012000002808D02068102805D02068202802D098
:100130002068302800D103E05D21EEA003F0CEFF5F
:10014000EB484038806BF4490843E94940398863FB
:100150002168A0680843616808430121890709688C
:10016000FF22F932914308430121890708600846BC
:10017000C06A00090001217C0907090F0843012119
:100180008907C8620846C06AF0218843A16909014D
:10019000F0221140084301218907C8620846C06A5D
:1001A00011018843216A090212011140084301210B
:1001B0008907C8620846C06A11018843A16A090319
:1001C00012011140084301218907C8620846C06A2C
:1001D00011018843218E09041201114008430121B5
:1001E0008907C8620846C06A11018843218F090542
:1001F00012011140084301218907C8620846C06AFC
:10020000110188434021095D09061201114008438C
:1002100001218907C8620846C06A00010009482117
:10022000095D0907090F0907084301218907C86209
:100230000846806A00090001217B0907090F08436D
:100240000121890788620846806AF0218843616934
:100250000901F022114008430121890788620846FC
:10026000806A11018843E1690902120111400843C3
:100270000121890788620846806A11018843616A02
:1002800009031201114008430121890788620846C9
:10029000806A11018843A18D0904120111400843AD
:1002A0000121890788620846806A11018843A18E6E
:1002B0000905120111400843012189078862084697
:1002C000806A11018843A18F090612011140084379
:1002D0000121890788620846806A00010009616C73
:1002E0000907090F0907084301218907886210BD22
:1002F0000120800700680121084389070860012068
:1003000070470120800700684008400001218907EC
:100310000860704710B5044601210903206D88422A
:1003200000D203E0962173A003F0D8FE0121090357
:10033000606D884200D203E097216EA003F0CEFEEC
:10034000A06D002802D0A06D012800D103E0982103
:1003500068A003F0C3FEE06D002802D0E06D012824
:1003600000D103E0992163A003F0B8FE2046FFF717
:10037000D4FE206D0004616D0843012189070969DD
:10038000664A11400843012189070861E06C086250
:10039000A06D012807D16248406B082188430830CE
:1003A0005F49486305E05E48406B082188435C492B
:1003B0004863E06D012807D15948406B0421884308
:1003C000001D5749486305E05548406B04218843A8
:1003D0005349486310BD5249C96B0170704710B54D
:1003E0000446082C05D0042C03D0022C01D0012C8B
:1003F00000D103E0C1213FA003F070FE4848C06B6C
:100400002040002801D0012010BD0020FCE7002082
:1004100043498863704710B50446082C05D0042C66
:1004200003D0022C01D0012C00D103E0DA2131A04D
:1004300003F054FE3A48806BA0433949886310BDED
:1004400070B504460D46002D01D0012D00D103E00A
:10045000EE2128A003F042FE32482040002802D1BD
:10046000002C00D003E0EF2122A003F037FE002D86
:1004700005D02B48406B20432949486304E02848B5
:10048000406BA0432649486370BD10B50446002C5C
:1004900001D0012C00D104E0FF210B3115A003F0A5
:1004A0001DFE002C07D00120800780680121084331
:1004B0008907886007E001208007806840084000C5
:1004C00001218907886010BD70B505460C460026DD
:1004D000002C01D0012C00D104E0FF21383105A00F
:1004E00003F0FCFD002000281ED1002D1CD020E0D0
:1004F000404000404472697665725C4C696272618A
:10050000726965735C7372635C637733326C30312C
:10051000305F6164632E630001005A5A00F000F0FE
:1005200040000040F0FF0000FF213931594803F03E
:10053000D5FD2E46002C07D001208007806930436E
:1005400001218907886106E0012080078069B043A6
:1005500001218907886170BD70B50446082C00D25E
:1005600004E0FF2151314B4803F0B8FD4A4DA00093
:10057000285A80B270BD002800D1704746490968EA
:10058000018000BFF9E7002800D17047424949685F
:10059000018000BFF9E7002800D170473E49896813
:1005A000018000BFF9E7002800D170473A49C968C7
:1005B000018000BFF9E7002800D17047364909697A
:1005C000018000BFF9E7002800D17047324949692E
:1005D000018000BFF9E7002800D170472E498969E2
:1005E000018000BFF9E7002800D170472A49C96996
:1005F000018000BFF9E710B50446002C01D0042C9F
:1006000000D104E0FF21DC31224803F067FD012026
:10061000800700680421884320430907086010BD53
:10062000F0B58DB004460F461C49C88905F0AAF9FB
:1006300005461B4A1B4B05F0A9F80391029038466A
:1006400005F084F90646214604F071FF054605F0E1
:10065000BBF901910090039B029A05F088F80122F2
:100660005207114B0591049005F090F809910890FC
:100670000A49497B481005F071F907910690099BDA
:10068000089A04F0CFFF0B910A9005F0B1F90DB074
:10069000F0BD0000F404000040000040C00710005E
:1006A000E17A14AE476110400E84B83FFB48806881
:1006B00020218843F94988600846806820218843C2
:1006C0002030F6498860704710B50446A0680028BD
:1006D00002D0A068102800D103E02821F0A003F088
:1006E000FDFCE068082802D0E068002800D103E0A3
:1006F0002921EBA003F0F2FC6068002808D06068B4
:10070000202805D06068402802D06068602800D1A9
:1007100003E02A21E2A003F0E1FCEB4920698842D2
:1007200000D803E02B21DEA003F0D8FCDB484038E2
:10073000806B20210843D94940398863E168A0686B
:1007400008432178002901D0802100E000210843DE
:1007500061680843DD490968F82291430843DB4991
:100760000860206988626069C862A069086310BD7A
:10077000D649096849084900C207D20F1143D34A34
:100780001160704770B504460D46002C04D0D04867
:100790002040002800D003E04D21C1A003F09EFCC2
:1007A000002D01D0012D00D103E04E21BCA003F0AB
:1007B00095FC002D05D0C548C0682043C349C860DA
:1007C00004E0C248C068A043C049C86070BD10B50D
:1007D0000446002C04D0BF482040002800D003E08D
:1007E0006121AFA003F07AFCB848006920400028DE
:1007F00001D0012010BD0020FCE710B50446002CFC
:1008000004D0B3482040002800D003E06A21A4A00F
:1008100003F064FCE043AD494031086310BDAB49CF
:10082000C8627047A9494862704710B504461F2C3A
:1008300000DC03E087219AA003F050FCA348406845
:100840007021884321017022114008439F4948606C
:1008500008464068032149068843E11049060322FF
:100860005206114008439949486010BD10B504462E
:100870001F2C00DC03E08F2189A003F02FFC93489C
:1008800040681F210905884321051F2212051140D8
:1008900008438E49486010BD10B50446072C00DCA3
:1008A00003E097217EA003F019FC88488068C00807
:1008B000C0006107490F0843844988600846806882
:1008C00089138843E11009040122120411400843EE
:1008D0007E49886010BD10B50446002C2FD0102C26
:1008E0002DD0202C2BD0302C29D001200006844282
:1008F00025D07948844222D07748103084421ED0D7
:100900007548203084421AD001200006844216D057
:100910007148844213D07048103084420FD06E4822
:10092000203084420BD001204006844207D0402C66
:1009300005D0502C03D0602C01D0702C00D103E0E6
:100940009F2157A003F0CAFB6048806863490840B4
:1009500020435E49886010BD10B50446E068002859
:1009600005D0E068012802D0E068032800D103E048
:10097000A5214BA003F0B2FBA0680F2800D803E02C
:10098000A62147A003F0AAFB6068042800D203E078
:10099000A72143A003F0A2FB4C4880698008800097
:1009A00021788907890F084348498861084680698A
:1009B0000C218843616889000C2211400843434997
:1009C000886108468069F0218843A1680901F02206
:1009D000114008433D4988610846006A0221884366
:1009E000E16849000222114008433849086208467C
:1009F000006A40084000401C086210BD10B5044663
:100A0000E068002805D0E068012802D0E0680328EB
:100A100000D103E0B32122A003F060FBA0680F28FF
:100A200000D803E0B4211EA003F058FB27488069DA
:100A3000032109028843216809020322120211409E
:100A400008432249886108468069910088436168AB
:100A500089029200114008431C4988610846806958
:100A60000F2109038843A16809030F2212031140D3
:100A70000843164988610846006A20218843E168D6
:100A80004901202211400843104908620846006AC3
:100A90001021884310300D49086210BD40400040CD
:100AA0004472697665725C4C6962726172696573E1
:100AB0005C7372635C637733326C3031305F6174C6
:100AC000696D2E6300000000FFFF0000001400406D
:100AD000FF00F300FF3F0F00100000018FFFCFFF6A
:100AE00010B50446E068002805D0E068012802D06F
:100AF000E068032800D103E0C021FE4803F0EEFACD
:100B0000A0680F2800D803E0C121FA4803F0E6FAF4
:100B1000F948C0698008800021788907890F084357
:100B2000F549C8610846C0690C218843616889009D
:100B30000C2211400843F049C8610846C069F02101
:100B40008843A1680901F02211400843EA49C861BD
:100B50000846006A49158843E168490201225202A9
:100B600011400843E44908620846006A8915884331
:100B70004018E149086210BD10B50446E06800283D
:100B800005D0E068012802D0E068032800D103E026
:100B9000CD21D84803F0A2FAA0680F2800D803E0BE
:100BA000CE21D44803F09AFAD348C0690321090240
:100BB0008843216809020322120211400843CE49EA
:100BC000C8610846C0699100884361688902920043
:100BD00011400843C849C8610846C0690F2109038C
:100BE0008843A16809030F22120311400843C24938
:100BF000C8610846006A49148843E1684903012234
:100C0000520311400843BC4908620846006A89142F
:100C100088434018B849086210BD10B50446E06822
:100C2000002805D0E068012802D0E068032800D140
:100C300003E0DA21AF4803F051FAA0680F2800D88A
:100C400003E0DB21AB4803F049FAAB4840300069D0
:100C50008008800021788907890F0843A649403120
:100C60000861084600690C218843616889000C22EC
:100C700011400843A0494031086108460069F0214D
:100C80008843A1680901F022114008439A49403184
:100C900008619948006A49138843A18949040122DF
:100CA000520411400843944908620846006A8913B7
:100CB000884340189049086210BD10B50446E068AA
:100CC000002805D0E068012802D0E068032800D1A0
:100CD00003E0E721874803F001FAA0680F2800D855
:100CE00003E0E821834803F0F9F9834840300069C4
:100CF00003210902884321680902032212021140DC
:100D000008437D49403108610846006991008843E5
:100D100061688902920011400843774940310861B7
:100D2000084600690F2109038843A16809030F22BF
:100D30001203114008437049403108616E48006A4F
:100D4000012149058843A189490501225205114025
:100D50000843694908620846006A511088434018F0
:100D60006549086210BD10B504462068002802D00D
:100D70002068012800D103E0F4215E4803F0AEF9B9
:100D800060680F2800D803E0F5215A4803F0A6F95F
:100D9000A068012802D0A068002800D103E0F62155
:100DA000544803F09BF9607B002802D0607B012847
:100DB00000D103E0F7214F4803F090F94E488069D5
:100DC000800880004C498861084680690421884376
:100DD000A1688900042211400843474988610846F8
:100DE000806908218843617BC900082211400843BB
:100DF000414988610846806970218843616809011A
:100E00007022114008433C49886108468069891373
:100E100088436168C908090401221204114008438B
:100E2000354988610846006A04218843A17B89000E
:100E30000422114008433049086210BD10B5044631
:100E40002068002802D02068012800D104E0FF219A
:100E50000631284803F042F960680F2800D804E002
:100E6000FF210731234803F039F9A068012802D097
:100E7000A068002800D104E0FF2108311D4803F0DC
:100E80002DF9607B002802D0607B012800D104E0AE
:100E9000FF210931174803F021F917488069032120
:100EA0000902884314498861084680690915884306
:100EB000A168890201229202114008430E4988610B
:100EC00008468069C9148843617BC90252001140F9
:100ED0000843094988610846806907210903884356
:100EE000616809030722120311400843024988611F
:100EF000084603E0A00A00000014004080690121B8
:100F000009068843A188C908090601221206114072
:100F10000843FB4988610846006A40218843A17B59
:100F20008901402211400843F549086210BD10B5FF
:100F300004462068002802D02068012800D104E07F
:100F4000FF211631EF4803F0C9F860680F2800D878
:100F500004E0FF211731EB4803F0C0F8A068012836
:100F600002D0A068002800D104E0FF211831E54834
:100F700003F0B4F8607B002802D0607B012800D128
:100F800004E0FF211931DF4803F0A8F8DC48C0690C
:100F900080088000DA49C8610846C0690421884396
:100FA000A1688900042211400843D549C861084658
:100FB000C06908218843617BC900082211400843A9
:100FC000CF49C8610846C06970218843616809013A
:100FD000702211400843CA49C8610846C069891394
:100FE00088436168C90809040122120411400843BA
:100FF000C349C8610846006A09158843A17B890274
:10100000921111400843BE49086210BD10B5044654
:101010002068002802D02068012800D104E0FF21C8
:101020002631B84803F05AF860680F2800D804E069
:10103000FF212731B34803F051F8A068012802D0FE
:10104000A068002800D104E0FF212831AD4803F05A
:1010500045F8607B002802D0607B012800D104E0C5
:10106000FF212931A74803F039F8A548C0690321B9
:1010700009028843A249C8610846C0690915884326
:10108000A168890201229202114008439C49C8616B
:101090000846C069C9148843617BC90252001140E7
:1010A00008439749C8610846C06907210903884376
:1010B0006168090307221203114008439049C8617F
:1010C0000846C069012109068843A188C9080906A4
:1010D00001221206114008438949C8610846006A86
:1010E00009148843A17B8903921211400843844963
:1010F000086210BD10B504462068002802D02068A0
:10110000012800D104E0FF2136317E4802F0E6FFDD
:1011100060680F2800D804E0FF213731794802F0D9
:10112000DDFFA068012802D0A068002800D104E0FB
:10113000FF213831734802F0D1FF607B002802D0D4
:10114000607B012800D104E0FF2139316D4802F0B5
:10115000C5FF6B4840300069800880006849403115
:1011600008610846006904218843A16889000422B7
:10117000114008436249403108610846006908216E
:101180008843617BC9000822114008435C49403113
:10119000086108460069702188436168090170226E
:1011A00011400843564940310861084600698913D7
:1011B00088436168C90809040122120411400843E8
:1011C0004F49403108614E48006A91008843A17B35
:1011D00089049200114008434949086210BD10B5C6
:1011E00004462068002802D02068012800D104E0CD
:1011F000FF214631434802F071FF60680F2800D894
:1012000004E0FF2147313F4802F068FFA068012851
:1012100002D0A068002800D104E0FF2148313948FD
:1012200002F05CFF607B002802D0607B012800D1C7
:1012300004E0FF214931334802F050FF304840308C
:1012400000690321090288432D494031086108469D
:10125000006909158843A1688902012292021140A0
:10126000084327494031086108460069C91488438A
:10127000617BC90252001140084321494031086195
:1012800008460069072109038843616809030722AA
:101290001203114008431A494031086108460069A9
:1012A000012109068843A188C908090601221206FE
:1012B000114008431249403108611148006A9110F9
:1012C0008843A17B89059210114008430C490862AC
:1012D00010BD10B50446002C01D0012C00D104E053
:1012E000FF215B31074802F0F9FE0548006A40081B
:1012F0004000E107C90F08430149086210BD000022
:1013000000140040A00A000010B50446002C01D0D3
:10131000012C00D104E0FF216731F34802F0DEFE2A
:10132000F248006A1021884321011022114008432D
:10133000EE49086210BD10B50446002C01D0012C06
:1013400000D104E0FF217331E74802F0C7FEE7480F
:10135000006AFF21013188432102FF22013211403E
:101360000843E249086210BD10B50446002C01D0C4
:10137000012C00D104E0FF217F31DB4802F0AEFEFA
:10138000DA48006A0121090388432103012212037C
:1013900011400843D549086210BD10B50446002C21
:1013A00001D0012C00D104E0FF218B31CE4802F0A6
:1013B00095FECE48006A01210904884321040122D8
:1013C000120411400843C949086210BD10B5044613
:1013D000002C01D0012C00D104E0FF219731C2483C
:1013E00002F07CFEC148006A0121090588432105FD
:1013F0000122120511400843BC49086210BDBB48D8
:10140000406B80B27047B948806B80B27047B74874
:10141000C06B80B27047B5484030006880B27047FA
:10142000B2484030806880B27047B0484030C068F1
:1014300080B27047AD4948637047AC4988637047D4
:10144000AA49C8637047A949403108607047A74955
:10145000403188607047A5494031C860704710B579
:101460000446002C01D0012C00D104E0FF21D6312C
:101470009D4802F033FE9D48403040680121C90379
:101480008843E1030122D2031140084397494031C8
:10149000486010BD30B5884212D1944B40335B692F
:1014A00001242404A343914C4034636123465B68C8
:1014B0001B0A1B02C4B223438C4C403463601BE004
:1014C0008A4B40335B6901242404A3431B19874CD6
:1014D0004034636123465B681B0A1B02C4B223438A
:1014E000824C4034636023465B691B0A1B02CCB20A
:1014F00023437E4C403463617C4B40335B69012461
:101500006404A343540401256D042C402343774C09
:101510004034636130BD70B504460D46002C01D0E7
:10152000012C00D104E0FF21FD316F4802F0D6FD0F
:101530000F2D00D804E0FF21FE316B4802F0CEFDF4
:101540006A48403040680121490388436103012211
:1015500052031140084365494031486008464068DD
:101560000F210904884329040F2212041140084363
:101570005E494031486008464068891488434018F5
:101580005A494031486070BD70B504460D46002C84
:1015900001D0012C00D103E05549534802F09EFDD3
:1015A0000F2D00D804E04121C9004F4802F096FDFC
:1015B0004E484030406801214906884361060122B7
:1015C0005206114008434949403148600846406886
:1015D0000F210905884329050F22120511400843F0
:1015E0004249403148600846406801210906884365
:1015F00040183E494031486070BD10B50446012C8A
:1016000001D0002C00D104E039491431364802F0F1
:1016100065FD3648006804218843A100042211407A
:1016200008433249086010BD10B5030004F02AFBDE
:101630000604101F2E3D49582C4A4032D269120927
:1016400012010B071B0F1A43284B4033DA6148E0A5
:10165000264A4032D2690F231B029A430B020F2401
:10166000240223401A43214B4033DA6139E01F4AF8
:101670004032D2690F231B049A430B040F24240425
:1016800023401A43194B4033DA612AE0174A4032AB
:10169000D2690F231B069A430B060F24240623400E
:1016A0001A43124B4033DA611BE0104A4032D26ACF
:1016B000120912010B071B0F1A430C4B4033DA625D
:1016C0000FE00A4A4032D26A0F231B029A430B02F0
:1016D0000F24240223401A43044B4033DA6200E013
:1016E00000BF00BF10BD0000A00A000000140040B1
:1016F0000702000010B50446F748844207D0F648B8
:101700004030844203D0F4488030844200D103E06A
:101710003521F2A002F0E2FC002020606060A060B1
:10172000E060A0616062A062F648E06210BD70B542
:1017300005460C46E848854207D0E74840308542D8
:1017400003D0E5488030854200D103E04921E3A081
:1017500002F0C4FC6088002808D06088032805D007
:101760006088012802D06088022800D103E04A2165
:10177000DAA002F0B3FC2088E249884203DC20882A
:10178000012800DB03E04B21D4A002F0A7FCE08895
:10179000082802D0E088002800D103E04C21CFA027
:1017A00002F09CFCD848406BD8490843D6494863AE
:1017B000A088E8622088A862286808218843E18818
:1017C00008432860A868C008C00061880843A86072
:1017D00070BD70B504460D46BF48844207D0BE4870
:1017E0004030844203D0BC488030844200D103E0C2
:1017F0006321BAA002F072FC002D01D0012D00D1AE
:1018000003E06421B5A002F069FC002D04D020683B
:1018100001210843206003E0206840084000206068
:1018200070BD70B504460D461646AB48844207D0DD
:10183000A9484030844203D0A7488030844200D178
:1018400003E07221A5A002F049FC002E01D0012E78
:1018500000D103E07321A1A002F040FC012D01D0D2
:10186000402D00D103E074219CA002F037FC002E33
:1018700003D0E0682843E06002E0E068A843E0604D
:1018800070BD70B504460D469348844207D0924817
:101890004030844203D090488030844200D103E03D
:1018A00082218EA002F01AFC012D01D0402D00D122
:1018B00003E0832189A002F011FC20692840002860
:1018C00001D0012070BD0020FCE770B504460D4634
:1018D0008148844207D080484030844203D07E480B
:1018E0008030844200D103E092217CA002F0F6FB1C
:1018F000012D01D0402D00D103E0932177A002F00B
:10190000EDFBA069A843A06170BD70B504460D460B
:101910007148844207D070484030844203D06E48FA
:101920008030844200D103E0A2216CA002F0D6FBFB
:10193000402D01D0012D00D103E0A32167A002F0CA
:10194000CDFB60692843606170BD70B504460D46EB
:101950006148844207D060484030844203D05E48EA
:101960008030844200D103E0B4215CA002F0B6FBD9
:10197000002D05D0032D03D0012D01D0022D00D163
:1019800003E0B52155A002F0A9FBA068C008C00083
:101990002843A06070BD70B504460D464E48844291
:1019A00007D04D484030844203D04B4880308442B9
:1019B00000D103E0C52149A002F090FB082D01D021
:1019C000002D00D103E0C62144A002F087FB20686F
:1019D000082188432843206070BD70B504460D4639
:1019E0003D48844207D03C484030844203D03A48C6
:1019F0008030844200D103E0D32138A002F06EFB96
:101A0000002D01D0012D00D103E0D42133A002F03C
:101A100065FB002D05D020680121C9030843206023
:101A200004E020680121C9038843206070BD70B5BF
:101A300004460D462848844207D027484030844257
:101A400003D025488030844200D103E0E12123A067
:101A500002F044FB656270BD10B504461E48844226
:101A600007D01D484030844203D01B488030844258
:101A700000D103E0ED2119A002F030FB606A80B2D2
:101A800010BD70B504460D461348844207D0124875
:101A90004030844203D010488030844200D103E0BB
:101AA000FA210EA002F01AFBE56270BD10B50446E3
:101AB0000948844207D008484030844203D0064891
:101AC0008030844200D104E0FF21073103A002F0FE
:101AD00005FBE06A80B210BD0048004044726976A0
:101AE00065725C4C69627261726965735C73726382
:101AF0005C637733326C3031305F6274696D2E63B2
:101B000000000000FFFF00000040004004005A5A9F
:101B100070B504460D46F848844207D0F648403078
:101B2000844203D0F4488030844200D104E0FF2195
:101B30001431F24802F0D2FAF148854202DC012D5C
:101B400000DB04E0FF211531EC4802F0C7FA681E03
:101B5000A06270BD10B50446E748844207D0E6484D
:101B60004030844203D0E4488030844200D104E015
:101B7000FF212131E14802F0B1FAA06A80B210BD24
:101B800070B504460D46DC48844207D0DA48403040
:101B9000844203D0D8488030844200D104E0FF2141
:101BA0002E31D64802F09AFA002D01D0012D00D135
:101BB00004E0FF212F31D14802F090FA002D05D02A
:101BC00020680121C9020843206004E02068012147
:101BD000C9028843206070BD70B505460C46C648F2
:101BE000854207D0C4484030854203D0C248803087
:101BF000854200D104E0FF213C31C04802F06EFA7A
:101C00006068002821D001210903606888421CD047
:101C100049006068884218D003210903606888423F
:101C200013D001218903606888420ED00521090381
:101C30006068884209D0032149036068884204D063
:101C4000072109036068884200D104E0FF213D318B
:101C5000AA4802F043FAA86807210903884361688B
:101C60000843A86070BD70B504460D46A248844282
:101C700007D0A1484030844203D09F48803084423E
:101C800000D104E0FF214D319C4802F027FA002DDD
:101C900001D0012D00D104E0FF214E31974802F020
:101CA0001DFA002D04D0206880210843206003E045
:101CB000206880218843206070BD70B504460D46C1
:101CC0008D48844207D08C484030844203D08A48F3
:101CD0008030844200D104E0FF215B31874802F06C
:101CE000FDF9042D01D0002D00D104E0FF215C316D
:101CF000824802F0F3F920680421884328432060D9
:101D000070BD10B504467C48844207D07A48403004
:101D1000844203D078488030844200D104E0FF211F
:101D20006731764802F0DAF92068022188432060A2
:101D300010BD10B504467048844207D06E4840304C
:101D4000844203D06C488030844200D104E0FF21FB
:101D500073316A4802F0C2F920680221084320600A
:101D600010BD70B505460C4616466348854207D03F
:101D700061484030854203D05F488030854200D1C1
:101D800004E0FF2181315D4802F0A8F9002C31D038
:101D9000802C2FD0FF20013084422BD0FF208130B7
:101DA000844227D001204002844223D00520C00174
:101DB00084421FD00320000284421BD00720C001B0
:101DC000844217D001208002844213D00920C00130
:101DD00084420FD00520000284420BD00B20C001AA
:101DE000844207D003204002844203D00F20C00168
:101DF000844200D104E0FF218231404802F06EF9B4
:101E0000002E03D001204004864200D104E0FF21CF
:101E100083313A4802F062F9A8683A4908402146FD
:101E200031430843A86070BD70B505460C461646A0
:101E30003148854207D030484030854203D02E4893
:101E40008030854200D104E0FF2191312B4802F01F
:101E500045F9002C19D0082C17D0102C15D0182CAF
:101E600013D0202C11D0282C0FD0302C0DD0382C92
:101E70000BD0402C09D0482C07D0502C05D0582C22
:101E800003D0602C01D0782C00D104E0FF219231E6
:101E90001A4802F023F9002E03D0012000048642E4
:101EA00000D104E0FF219331144802F017F9A8682B
:101EB00015490840214631430843A86070BD70B5FC
:101EC00005460C460C48854207D00B4840308542F9
:101ED00003D009488030854200D104E0FF21A031C1
:101EE000064802F0FBF8002C05D0102C03D0202C63
:101EF00001D0302C0AD10EE000480040DC1A00006E
:101F0000FFFF00007FF8FDFF87FFFEFFFF21A131EB
:101F10001B4802F0E3F86C6070BD10B50446194828
:101F2000844207D017484030844203D0154880309F
:101F3000844200D104E0FF21AD31114802F0CEF817
:101F4000A0680121C9020843A06010BD10B5044675
:101F50000C48844207D00B484030844203D00948E3
:101F60008030844200D104E0FF21B831044802F0FF
:101F7000B5F8A0680121C9028843A06010BD000027
:101F8000DC1A0000004800401722D2068218002AFE
:101F900004D0FF3A013A002A0FD106E0554A126BED
:101FA000554B1A43534B1A6308E0524A126B524B7B
:101FB00010331A434F4B1A6300E000BF00BF4A685A
:101FC000002A04D1C2690B681A43C26142E0C269A7
:101FD0000B689A43C26110234A681A40102A29D11B
:101FE00002680B681A43026002690B689A43026137
:101FF0004A68112A03D102690B681A430261426AD6
:102000000B689A434262826A0B689A438262812318
:102010008A681A40812A03D1426A0B681A434262D5
:1020200082238A681A40822A14D1826A0B681A4372
:1020300082620FE002680B689A4302604A68202AB5
:1020400004D142680B689A43426003E042680B681F
:102050001A4342607047C2690A43C26102680A4378
:10206000026002698A430261426A8A434262826A6A
:102070008A43826242688A43426070470246106D1A
:102080000840002801D0012070470020FCE7012A09
:1020900001D1C16500E08165704741657047016607
:1020A00070471448806814490E3908434903886012
:1020B000704710488068022188430F49103908434F
:1020C0000C49886070470B4880680B490F390843FA
:1020D0000849886070470748806840084000064902
:1020E0001039084303498860704713460B43036463
:1020F000704700000040004010005A5AFD488068B8
:1021000040218843FB498860084680684021884315
:102110004030F8498860704770B505460C46F6486F
:10212000854200D103E03E21F4A001F0D7FF2068F2
:10213000802802D02068002800D103E03F21EFA0D2
:1021400001F0CCFF6068002808D06068202805D026
:102150006068402802D06068602800D103E0402118
:10216000E6A001F0BBFFA068002802D0A0681028FC
:1021700000D103E04121E1A001F0B0FFE0680828B0
:1021800002D0E068002800D103E04221DBA001F08A
:10219000A5FF2069042802D02069002800D103E0AF
:1021A0004321D6A001F09AFF6069002802D060693F
:1021B000022800D103E04421D0A001F08FFFD949CB
:1021C000A069884200D803E04521CCA001F086FF39
:1021D000616820680843A1680843E16808432169F1
:1021E0000843616908432968FE2291430843286037
:1021F000A069A862E069E862A868C008C000A86099
:1022000070BD70B504460D46BB48844200D103E062
:102210006021BAA001F062FF606870218843290143
:1022200070221140084360606068032149068843BA
:1022300008212940C90849060322520611400843D3
:10224000606070BD70B505460C46AB48854200D154
:1022500003E06A21A9A001F041FF206804280ED004
:10226000206805280BD02068062808D02068072899
:1022700005D02068082802D02068092800D103E092
:102280006B219EA001F02AFF6068102800D803E0AF
:102290006C219AA001F022FFA068002802D0A0685B
:1022A000012800D103E06D2194A001F017FFA86878
:1022B000012149068843217A49060122520611402C
:1022C0000843A860A86851108843217B0906521072
:1022D00011400843A860A868032109058843A18824
:1022E00018221140C9080905520411400843A8608A
:1022F000A868702188436168090170221140084371
:10230000A860A8680121090488432168C908090454
:102310000122120411400843A860A868C008C00048
:1023200021784907490F0843A86070BD70B504467D
:102330000D467148844200D103E079216FA001F07D
:10234000CDFE68680F2803D868680A2800D003E02B
:102350007A216AA001F0C2FEA868012802D0A8680C
:10236000002800D103E07B2164A001F0B7FE2878AB
:10237000002802D02878012800D103E07C215FA04A
:1023800001F0ACFE6878002802D06878012800D1FE
:1023900003E07D2159A001F0A1FE206A02218843BB
:1023A000A96849000222114008432062206A0821DE
:1023B00088432062A06980088000A061A069042190
:1023C000884329788900042211400843A061A0694C
:1023D000082188436978C900082211400843A06198
:1023E000A06970218843696809017022114008437F
:1023F000A061A0690121090488436968C90809042A
:102400000122120411400843A06170BD70B504465A
:102410000D463948844200D103E08B2137A001F0FA
:102420005DFE68680F2803D868680A2800D003E0BA
:102430008C2132A001F052FEA868012802D0A868C1
:10244000002800D103E08D212CA001F047FE287860
:10245000002802D02878012800D103E08E2127A08F
:1024600001F03CFE6878002802D06878012800D18D
:1024700003E08F2121A001F031FE206A2021884352
:10248000A96849012022114008432062206A802166
:1024900088432062A069032109028843A061A069E2
:1024A0005101884329788902520111400843A061F3
:1024B000A069510088436978C9025200114008435D
:1024C000A061A069072109038843696809030722FD
:1024D000120311400843A061A06901210906884345
:1024E000A988C90809060122120611400843A06103
:1024F00070BD000040400040001800404472697602
:1025000065725C4C69627261726965735C73726357
:102510005C637733326C3031305F6774696D2E6382
:1025200000000000FFFF000070B504460D46F948AA
:10253000844200D103E09C21F74801F0CFFD686898
:102540000F2803D868680A2800D003E09D21F248CC
:1025500001F0C4FDA868012802D0A868002800D1B5
:1025600003E09E21EC4801F0B9FD2878002802D054
:102570002878012800D103E09F21E74801F0AEFD53
:102580006878002802D06878012800D103E0A021F3
:10259000E14801F0A3FD206A012149028843A968AE
:1025A000490201225202114008432062206A910030
:1025B00088432062E06980088000E061E0690421CE
:1025C000884329788900042211400843E061E069CA
:1025D000082188436978C900082211400843E06156
:1025E000E06970218843696809017022114008433D
:1025F000E061E0690121090488436968C9080904A8
:102600000122120411400843E06170BD70B5044618
:102610000D46C048844200D103E0AD21BE4801F020
:102620005DFD68680F2803D868680A2800D003E0B9
:10263000AE21B94801F052FDA868012802D0A8686F
:10264000002800D103E0AF21B34801F047FD28780E
:10265000002802D02878012800D103E0B021AE483C
:1026600001F03CFD6878002802D06878012800D18C
:1026700003E0B121A84801F031FD206A012149039E
:102680008843A9684903012252031140084320628C
:10269000206A910088432062E0690321090288438F
:1026A000E061E069D110884329788902D210114095
:1026B0000843E061E069510088436978C90252002B
:1026C00011400843E061E069072109038843696814
:1026D00009030722120311400843E061E069012168
:1026E00009068843A988C908090601221206114073
:1026F0000843E06170BD70B504460D4685488442CC
:1027000000D103E0BF21844801F0E8FC002D01D096
:10271000012D00D103E0C0217F4801F0DFFC206AD9
:1027200040084000E907C90F0843206270BD70B53A
:1027300004460D467748844200D103E0C72176481D
:1027400001F0CCFC002D01D0012D00D103E0C82107
:10275000714801F0C3FC206A10218843290110222E
:1027600011400843206270BD70B504460D466948AB
:10277000844200D103E0CE21674801F0AFFC002D78
:1027800001D0012D00D103E0CF21634801F0A6FC68
:10279000206AFF21013188432902FF2201321140C2
:1027A0000843206270BD70B504460D465948844206
:1027B00000D103E0D521584801F090FC002D01D054
:1027C000012D00D103E0D621534801F087FC206A97
:1027D0000121090388432903012212031140084300
:1027E000206270BD70B504460D464A48844200D14F
:1027F00003E0DE21484801F071FC2868032803D873
:102800002868002800D003E0DF21434801F066FC7F
:102810006868042800D203E0E0213F4801F05EFC34
:10282000A8680F2800D803E0E1213B4801F056FCDE
:10283000E868012805D0E868022802D0E868032883
:1028400000D103E0E221344801F048FCA06980088F
:10285000800029788907890F0843A061A0690C21AD
:102860008843696889000C2211400843A061A0696F
:10287000F0218843A9680901F02211400843A061B2
:10288000E868012804D002280BD0032813D000BF29
:10289000206A022188432062206A0821884320623E
:1028A00014E0206A02218843801C2062206A0821EB
:1028B000884320620AE0206A02218843801C20624B
:1028C000206A082188430830206200BF00BF70BD25
:1028D00070B504460D460F48844200D103E0FD2147
:1028E0000D4801F0FBFB2868032803D8286800285E
:1028F00000D003E0FE21084801F0F0FB68680428DE
:1029000000D203E0FF21044801F0E8FBA8680F288B
:1029100004D808E000180040FC240000FF21013129
:10292000FB4801F0DBFBE868012805D0E8680228D5
:1029300002D0E868032800D104E0FF210231F44806
:1029400001F0CCFBA0690321090288432968090230
:102950000322120211400843A061A069910088433C
:1029600069688902920011400843A061A0690F21A3
:1029700009038843A96809030F2212031140084381
:10298000A061E868012804D002280BD0032813D0E6
:1029900000BF206A202188432062206A802188436A
:1029A000206214E0206A2021884320302062206ABF
:1029B0008021884320620AE0206A20218843203059
:1029C0002062206A802188438030206200BF00BFDF
:1029D00070BD70B504460D46CE48844200D104E077
:1029E000FF211D31CA4801F079FB2868032803D86C
:1029F0002868002800D004E0FF211E31C44801F0FF
:102A00006DFB6868042800D204E0FF211F31C04834
:102A100001F064FBA8680F2800D804E0FF212031F2
:102A2000BB4801F05BFBE868012805D0E868022894
:102A300002D0E868032800D104E0FF212131B44826
:102A400001F04CFBE0698008800029788907890F34
:102A50000843E061E0690C218843696889000C2221
:102A600011400843E061E069F0218843A968090149
:102A7000F02211400843E061E868012804D00228F0
:102A80000CD0032815D000BF206A012149028843D9
:102A90002062206A89008843206216E0206A0121B2
:102AA0004902884340182062206A890088432062D6
:102AB0000BE0206A01214902884340182062206A05
:102AC000890088434018206200BF00BF70BD70B508
:102AD00004460D468F48844200D104E0FF213C317A
:102AE0008B4801F0FBFA2868032803D828680028DF
:102AF00000D004E0FF213D31854801F0EFFA68681D
:102B0000042800D204E0FF213E31814801F0E6FABA
:102B1000A8680F2800D804E0FF213F317C4801F06D
:102B2000DDFAE868012805D0E868022802D0E868E4
:102B3000032800D104E0FF214031754801F0CEFAAE
:102B4000E06903210902884329680902032212026D
:102B500011400843E061E069910088436968890297
:102B6000920011400843E061E0690F2109038843A6
:102B7000A96809030F22120311400843E061E868C5
:102B8000012804D002280CD0032815D000BF206AE9
:102B90000121490388432062206A8900884320621A
:102BA00016E0206A01214903884340182062206A08
:102BB0008900884320620BE0206A01214903884391
:102BC00040182062206A890088434018206200BFB4
:102BD00000BF70BD70B504460D464E48844200D11A
:102BE00004E0FF215A314A4801F078FA002D01D063
:102BF000012D00D104E0FF215B31454801F06EFA60
:102C0000206A40084000E907C90F0843206270BDF0
:102C100070B504460D463F48844200D104E0FF21D0
:102C200062313B4801F05AFA002D01D0012D00D14C
:102C300004E0FF216331364801F050FA206A102188
:102C400088432901102211400843206270BD70B5ED
:102C500004460D462F48844200D104E0FF2169312B
:102C60002B4801F03BFA002D01D0012D00D104E0EA
:102C7000FF216A31264801F031FA206AFF21013133
:102C800088432902FF22013211400843206270BDAF
:102C900070B504460D461F48844200D104E0FF2170
:102CA00070311B4801F01AFA002D01D0012D00D11E
:102CB00004E0FF217131164801F010FA206A012169
:102CC00009038843290301221203114008432062AB
:102CD00070BD70B504460D460E48844200D104E034
:102CE000FF21E3310A4801F0F9F9002D01D0012D4F
:102CF00000D104E0FF21E431054801F0EFF920683C
:102D000040084000E907C90F0843206070BD00007B
:102D1000FC2400000018004070B504460D469D4894
:102D2000844200D104E0FF21F1319B4801F0D6F943
:102D3000002D01D0012D00D104E0FF21F231964891
:102D400001F0CCF920680121C9028843E90201227F
:102D5000D20211400843206070BD70B505460C4694
:102D60008C48854200D104E0FF21FF318A4801F000
:102D7000B5F98A48844200DC03E08949864801F0BD
:102D8000ADF9AC6270BD70B504460D468148844211
:102D900000D104E082490C317F4801F09FF9E562DF
:102DA00070BD70B504460D467A48844200D104E0F7
:102DB0007B491831784801F091F9656270BD70B5B2
:102DC00004460D467348844200D104E074491F3123
:102DD000714801F083F9656370BD70B504460D4616
:102DE0006C48844200D104E06D4926316A4801F004
:102DF00075F9A56370BD70B504460D4665488442FB
:102E000000D104E08B218900634801F067F9E56394
:102E100070BD70B504460D465E48844200D104E0A2
:102E20005F4934315C4801F059F9256470BD10B533
:102E300004465848844200D104E05949403156487C
:102E400001F04CF9606B80B210BD10B504465148DA
:102E5000844200D104E052494C314F4801F03EF920
:102E6000A06B80B210BD10B504464A48844200D120
:102E700004E04B495831484801F030F9E06B80B22A
:102E800010BD10B504464348844200D104E04449D3
:102E90006431414801F022F9206C80B210BD70B558
:102EA00004460D4616463B48844200D104E02721E3
:102EB0000901394801F012F93A482840002802D1A6
:102EC000002D00D004E036497231334801F006F994
:102ED000002E01D0012E00D104E0314973312E487B
:102EE00001F0FCF8002E03D0E0682843E06002E027
:102EF000E068A843E06070BD70B505460C46254803
:102F0000854200D104E026498731234801F0E6F8E4
:102F1000012C16D0022C14D0042C12D0082C10D066
:102F2000102C0ED0402C0CD001200005844208D07B
:102F30004000844205D04000844202D040008442D8
:102F400000D104E016498831134801F0C7F8286918
:102F50002040002801D0012070BD0020FCE770B5A2
:102F600005460C460B48854200D104E00C499431DB
:102F7000094801F0B3F80B482040002802D1002C8A
:102F800000D004E0A5218900034801F0A7F8E04340
:102F9000286770BD00180040FC240000FFFF0000FF
:102FA000FF010000A0FF0FFF10B50446002C0DD05C
:102FB000202C0BD0402C09D0602C07D0802C05D0C1
:102FC000A02C03D0C02C01D0E02C00D103E0342190
:102FD000F5A001F083F8FE480068FE490840FE496C
:102FE00040182043FA49086010BD10B50446002C73
:102FF0000DD0202C0BD0402C09D0602C07D0802C79
:1030000005D0A02C03D0C02C01D0E02C00D103E0CF
:103010003E21E5A001F062F8ED480068ED49C831B5
:103020000840ED4940182043E949086010BD70B5DB
:10303000002400260025E64800684607760FE4488D
:1030400080694004050F002E06D0012E0CD0032EFF
:103050000CD0042E0FD10BE0A800E04A1158E04834
:1030600002F0AAF904460EE0DE4C0CE0DE4C0AE069
:103070000124E40307E0A800D84A1158D84802F018
:103080009BF9044600BF00BFD14800680006410F0D
:103090002046C8400446204670BDD44908607047A9
:1030A00070B50446002C05D0012C03D0032C01D0B0
:1030B000042C00D103E04A21BBA001F00FF8C44862
:1030C0000068C449D9310840C34940182043C04969
:1030D0000860FFF7ACFF0546FFF7DFFF70BD70B576
:1030E00004460D46402C05D0802C03D0FF20013033
:1030F000844200D103E05721ABA000F0EFFF002D88
:1031000008D0B348406880B2B34940182043B04962
:10311000486007E0AE48406880B2AF494018A0431D
:10312000AB49486070BD10B50446202C01D0002C7E
:1031300000D103E06A219CA000F0D0FFA4484068C1
:1031400080B2A54940182043A149486010BD10B580
:103150000446082C01D0002C00D103E0752192A078
:1031600000F0BCFF9A4880689A49D83108409A49D3
:10317000401820439649886010BD10B50446042CC1
:1031800001D0002C00D103E0802187A000F0A6FF31
:103190008F4880688F49DC3108408F4940182043B0
:1031A0008B49886010BD10B50446002C01D0022C5C
:1031B00000D103E08B217CA000F090FF8448806860
:1031C0008449DE31084084494018204380498860A2
:1031D00010BD8049E0317E48406880B27E4A801848
:1031E000012210437A4A506001E0481E81B27848BB
:1031F00080690122D2031040002801D10029F4D1B6
:10320000002901D1012070477148006880B2724ADC
:1032100080186F4A10601046006880B26E4A8018AD
:103220006B4A10601046406880B26B4A80180122D9
:103230001043FF226B329043654A5060104680680D
:1032400080B2654A80180C229043614A90606848B9
:10325000D06010464069400A400250610020D2E729
:1032600010B50024FFF7E3FE044659480068C00685
:10327000810F2046C8400446204610BD70B5044664
:10328000544DE0350120C002844238D040008442D1
:1032900035D00320C002844231D001204003844253
:1032A0002DD00520C002844229D00320000384428F
:1032B00025D00720C002844221D00120800384420F
:1032C0001DD00920C002844219D005200003844289
:1032D00015D00B20C002844211D003204003844249
:1032E0000DD00D20C002844209D007200003844283
:1032F00005D00F20C002844201D0002C00D104E090
:10330000FF211B3128A000F0E9FE0120C002844209
:103310000CD12F4800684007400F002806D12C48E8
:1033200080682D4910310843294988603148008858
:103330004005400D204326498861084640682649DB
:10334000491C08432249486001E0681E85B22048B4
:1033500080690121C9030840002801D1002DF4D162
:10336000002D01D1012070BD0020FCE71848406805
:1033700080B219494018400840001549486070471C
:103380001449E0311B4840888005800D104A1062C6
:103390001046006A0322920210430D4A1062104642
:1033A00040680D4A083227E04472697665725C4CC9
:1033B00069627261726965735C7372635C637733AF
:1033C000326C3031305F7379736374726C2E6300CA
:1033D000004000401FFF000000005A5AC05C00007F
:1033E000006CDC020024F4002080000000000020BB
:1033F00000FE5A5AC00710001043F64A506001E020
:10340000481E81B2F348006A0122D203104000280E
:1034100001D10029F4D1002901D1012070470020F9
:10342000FCE7EC48406880B2EB494018082188432B
:10343000E84948607047E749C96930229143014330
:10344000E44AD1617047E349096B10221143E14A14
:1034500011630921C9060968202291430922D20675
:1034600011601146C969202291430922D206D16117
:103470001146896907221205914305221205891810
:103480000922D2069161D349C9698022914301433F
:10349000D04AD1617047F8B504460F4615461E461E
:1034A000CE480090002C01D0402C00D104E0FF2138
:1034B0009331CB4800F012FEC648006B1021084340
:1034C000C4490863002C08D10920C006C069032143
:1034D00008430921C906C86113E00920C006C06974
:1034E000400840000921C906C8610846006801215A
:1034F00008430921C90608600846006940084000E1
:1035000008613A460023B748012101F07FFF00021D
:103510000121490508432043202108432843304323
:10352000AC49C86108464068AF490843A9494860AA
:1035300000BFA848C0690121C9040840884205D0DD
:103540000098411E89B200910028F2D1009800280D
:1035500001D10120F8BD0020FCE79E48406880B200
:103560009D494018022188439A494860704770B5C8
:1035700004460D469D4E002C01D0402C00D104E0A5
:10358000FF21CD31964800F0A9FD102D00DA04E0AE
:10359000FF21CE31924800F0A1FD8E48006B202122
:1035A00008438C490863002C06D19148C069032167
:1035B00008438F49C86111E08D48C06902218843E2
:1035C0008B49C861084600680221084388490860A1
:1035D00008460069022108408549086120465121BA
:1035E0004901084328437B494862084640687E49B0
:1035F000323908437749486000E0761E7548406AD2
:103600004003C00F002801D1002EF6D1002E01D1B9
:10361000012070BD0020FCE76E48406880B26E4912
:103620004018102188436B494860704770B50446C4
:10363000002C05D0012C03D0032C01D0042C00D188
:1036400003E06C49664800F049FD002C06D0012CCF
:1036500013D0032C1AD0042C27D000BF5D4800697A
:10366000C007C00F002805D05A4800690005C00FE8
:10367000002801D1012070BD32E056480069C00425
:10368000C00F002801D10120F5E729E05148006969
:103690000007C00F002805D04E4800694004C00F45
:1036A000002801D10120E6E71AE04A4800698006B7
:1036B000C00F002811D147480069C006C00F00287C
:1036C0000BD0444800690004C00F002805D04148D1
:1036D00000698006C00F002801D00120CBE700BFA1
:1036E00000BF3C48006880B23B494018C008C00099
:1036F000204338490860FFF79AFC0546FFF7CDFCE8
:10370000344800684007400FA04201D00120B2E7D2
:103710000020B0E770B504460D466009400100285E
:1037200002D1002C00D004E0324930312C4800F0A6
:10373000D5FC002D01D0012D00D104E04721C900A6
:10374000274800F0CBFC002D08D02248C06880B28A
:103750002149401820431F49C86007E01D48C06840
:1037600080B21D494018A0431A49C86070BD10B509
:103770000446802C07D0202C05D0102C03D0082C18
:1037800001D0012C00D104E01A494831144800F05E
:10379000A5FC104800692040002801D0012010BD80
:1037A0000020FCE710B50446802C07D0202C05D063
:1037B000102C03D0082C01D0012C00D104E00D49BD
:1037C0005831074800F08AFC02484069A04301498B
:1037D000486110BD0040004000005A5AFFFF000041
:1037E000A83300000050D6DC82015A5AFFFF0400C3
:1037F000000100480702000010B504460120C00285
:10380000844208D04000844205D0C000844202D0E7
:103810004010844200D103E0DD49DE4800F05EFC48
:10382000DD4800692040002801D0012010BD0020A3
:10383000FCE7D9480069704770B504460D4636214B
:1038400020468843002802D1002C00D004E0D04953
:103850001931D04800F042FC002D07D0CE48006B53
:10386000CE4921430843CC49086306E0CA48006BAF
:10387000A043CA490843C849086370BD70B50446EF
:103880000D46E009C001002802D1002C00D004E060
:10389000BF493031BF4800F021FC002D07D0BE48A1
:1038A000806BBE4921430843BB49886306E0BA48A0
:1038B000806BA043B9490843B749886370BD70B5B0
:1038C00004460D46D62120468843002802D1002C0C
:1038D00000D004E0AD218900AE4800F0FFFB002DD0
:1038E00007D0AD48406BAD4921430843AA4948631E
:1038F00006E0A948406BA043A8490843A64948638D
:1039000070BD70B504460D46362120468843002818
:1039100002D1002C00D004E09D495B319D4800F0AD
:10392000DDFB002D07D09C484030006820439A49B9
:103930004031086006E0984840300068A04396494E
:103940004031086070BD70B504460D46E009C00105
:10395000002802D1002C00D004E0172149018D4835
:1039600000F0BCFB012D07D08B484030806820431D
:1039700089494031886006E0874840308068A0432C
:1039800085494031886070BD70B504460D46E00938
:10399000C001002802D1002C00D004E07C4988310D
:1039A0007C4800F09BFB012D07D07B4840304068ED
:1039B000204379494031486006E07748403040680C
:1039C000A04375494031486070BD10B50446012CD4
:1039D0000FD0082C0DD0102C0BD0402C09D0FF207C
:1039E0000130844205D04000844202D06C488442B9
:1039F00000D104E0C3218900664800F06FFB6648EF
:103A00004030C0682040002801D0012010BD0020B7
:103A1000FCE761484030C068704710B50446012C8F
:103A20000FD0082C0DD0102C0BD0402C09D0FF202B
:103A30000130844205D04000844202D0584884427C
:103A400000D104E056495439524800F047FB52482F
:103A50004030C068A04350494031C86010BD4E4856
:103A6000006B4E49103108434B4908630920C006DA
:103A7000C069042188430921C906C8610846006855
:103A8000042188430921C906086008468069072186
:103A900009028843FF3001300921C9068861704757
:103AA00070B505460C46002D0BD0012D09D0022D16
:103AB00007D0032D05D0042D03D0052D01D0062DF0
:103AC00000D104E036493839324800F007FB002CB9
:103AD0000DD0102C0BD0202C09D0302C07D0402C2E
:103AE00005D0502C03D0602C01D0702C00D104E004
:103AF0002B493739274800F0F1FA2748006B27494E
:103B000010310843244908630920C006C069102108
:103B100088430921C906C86108468069072109044C
:103B200088430121890440180921C9068861084693
:103B30000068102188430921C906086028462043EF
:103B400015494031086370BD164800690421884357
:103B500014490861BFF34F8F30BF704711480069A7
:103B6000042108430F490861BFF34F8F30BF7047EE
:103B7000012806D10B49096902221143094A116142
:103B800005E00849096902229143064A116170471C
:103B90006E020000A83300000040004000005A5AA6
:103BA0007903000000ED00E01248134908607047F7
:103BB00000B5124909884805400D11498969C90AAB
:103BC000C90201430E4A91610C4949888805800D5C
:103BD0001146096A890A890201431162FFF7E4FF6D
:103BE00000BD08B5009000BF00994A1E0092002950
:103BF000FAD108BD00093D0000000020C0071000F8
:103C00000040004010B5002400E0641CFE488442DF
:103C1000FBD3002400E0641CFB488442FBD3002457
:103C200000E0641CF8488442FBD3002400E0641CDC
:103C3000F5488442FBD3002400E0641CF24884422F
:103C4000FBD3002400E0641CEF488442FBD3EF491F
:103C50000968EF4A1268881A01F078FEED49086099
:103C6000ED49EC48006801F09FFCEA490860EB4927
:103C70000968EB4A1268881A01F068FEE949086091
:103C8000E549E848006801F08FFCE6490860E6492C
:103C90000968E64A1268881A01F058FEE44908608B
:103CA000E449E348006801F07FFCE149086010BD89
:103CB00070B5002600240FE000F050FCDE480068DC
:103CC000002801D0701CC6B2002501E0681CC5B2F6
:103CD000142DFBDB601CC4B20A2CEDDB082E02DDC8
:103CE0000A20D649087070BD0EB5002000900190E2
:103CF0000290D348006BD3490843D149086383201D
:103D00000290102001902020009069460920C006F2
:103D1000FEF73AF900F0DDFB0020CB4948620122B2
:103D20001146C948FFF7BBF80121C748FEF7D1FF8C
:103D3000102000F0D4F92020C0430921C90688636F
:103D4000052000F0CCF90EBD10B50920C006406B6F
:103D50008006C00F00282CD020210920C006FEF7C5
:103D60008DF9002810D10021B748FEF7B2FFB748FF
:103D70000068002803D0B648B649086014E0B2488D
:103D8000406AB44908600FE020210920C006FEF710
:103D900075F9012808D10020AC490860AA49486299
:103DA0000121A948FEF795FF2020C0430921C9063B
:103DB000886310BD10B50121A348FFF79DF80028C6
:103DC00008D00121A048FFF7CAF8A0480068401CAD
:103DD0009E49086010BD0024FFF714FF00F0AEF903
:103DE00000F0C4F900F0E6F900F0FDF900F067FA20
:103DF00000F018FB00F03DFBFFF704FF96484089F8
:103E00009649884209DD94484089E1218900884229
:103E100003DC9148408992490860FFF765FF002064
:103E20009049086000BF8F4800683228FBD300200B
:103E30008C490860FFF73CFF74E08A48006814284A
:103E400004D900208749086000F088FB8648006894
:103E500064282DD300208449086000F0ADFB83491D
:103E600009686422514308468149096801F0A4FAAF
:103E7000804908608048007801280BD07E4800788F
:103E8000022807D07C480078092803D07A480078B7
:103E90000A280DD177480068C82808D2601CC4B22F
:103EA000142C05DB002407206449087000E000247E
:103EB0006248007800280AD06F480078052806D0AC
:103EC0006D480078062802D005206B4908706A48C2
:103ED0000078030001F0D6FE0B07252519251C1FCD
:103EE000220A0F14250000F03FFC1AE000F092FCBB
:103EF00000F0FAFD15E000F0BCFC00F0F5FD10E06C
:103F000000F0E4FC00F0F0FD0BE000F03BFD08E009
:103F100000F06FFD05E000F076FD02E000F0DDFD51
:103F200000BF00BF89E710B501215448FDF7A9FC87
:103F3000002867D001215148FDF7C7FC50480078A0
:103F400001282ED14F480068401C4E4908600846A1
:103F50000068192828D3002008604B480078012801
:103F60000BD14A480068401C484908600846006870
:103F700006280FD3002008600CE0444800680028A1
:103F800003D105204149086004E040480068401E14
:103F90003E4908603E4801683C48006800F026FE43
:103FA00002E00020374908603A480068401C39495F
:103FB00008602C480068401C2A49086036480068A0
:103FC000401C3549086035480068401C334908608A
:103FD00008460068142808D3314800683149086051
:103FE00000202F4908602D4908602F480068401CB8
:103FF0002D4908602D480068401C2C49086008467F
:10400000006855E069E0000060EA0000AC000020B4
:10401000C40000206000002000200545980000201A
:1040200094000020640000209C000020A0000020DC
:104030006800002000007A445C0000203500002069
:104040000040004010005A5A0018004004000020B0
:10405000FFFF00000800002024010020EE02000005
:104060007800002010000020280000200C00002014
:10407000A800002058000020340000200048004024
:10408000FC00002030000020400000201C01002027
:104090003800002014000020180000201C00002020
:1040A000440000204C0000202000002024000020BC
:1040B000642808D3104800681049086000200E49A1
:1040C00008600F4908600F480068401C0D490860EF
:1040D0000D480068401C0C49086010BD704700285E
:1040E00009DB00BF00BFC206D20E01219140074A82
:1040F000116000BF00BF7047480000200C00002086
:10410000240000202C0000202800002000E100E016
:10411000704700BFFEE770477047704770477047B1
:1041200070477047704770477047704770477047D7
:1041300070477047704770477047000010B5F648E9
:10414000006B02218843801CF3490863F348F4495B
:104150004860C814FFF792F80020FEF7A1FF002086
:10416000FEF722FF0020FEF740FF10BD0EB5002035
:10417000009001900290E848006BE8490F31084335
:10418000E5490863802002902020019003200090E0
:1041900069460920C006FDF7F7FE0022012109202B
:1041A000C006FDF774FF012202210920C006FDF7B9
:1041B0006EFF0EBD0EB50020009001900290D64813
:1041C000006BD6491F310843D3490863FDF77BFFD5
:1041D0008020029011200190802000906946D148F3
:1041E000FDF7D2FE0EBD00B593B0CB48006BCB49B6
:1041F0000F310843C84908630846006BC7491F319F
:104200000843C54908630920C006C06910218843D6
:1042100010300921C906C861C248C0690421884319
:10422000001DC049C8610846C0691021884310308C
:10423000BC49C8610846C069202188432030B9497B
:10424000C8610846C069402188434030B549C8610B
:10425000B148806BB1490843AF4988634C21684637
:1042600001F001F9002000900190FF204130029000
:1042700004210491022003900B21069105900C214A
:10428000089107900D210A9109900F210C910B9034
:1042900009210E910D906846FBF73FFFFCF7B7F838
:1042A00001210220FCF7CCF80C2000F047F9012195
:1042B0002020FCF709F9FCF71BF813B000BD00B58E
:1042C0008FB09548806B95491F31084392498863A8
:1042D0000846006B91490F3108438F49086308462F
:1042E000006B8E491F3108438B49086300200C90F6
:1042F0000D900E9080200E9020200D9003200C90A9
:104300000CA98848FDF740FE08200C900CA9092054
:10431000C006FDF739FE83488069C008C000C01D93
:1043200080498861084680697021884370307D49E2
:1043300088610920C0068069072109038843401865
:104340000921C906886180200E9020200D9044200C
:104350000C900CA90920C006FDF716FE08200C9051
:104360000CA97048FDF710FE002204210920C006A8
:10437000FDF78DFE002208216A48FDF788FE002225
:1043800040210920C006FDF782FE00200190029026
:104390000390049001216846017500200690079063
:1043A0000890099060480A9000200B9005A8FCF73F
:1043B0008BF901216846417400218174002003902B
:1043C00068460174062002900020019001A8FCF7C5
:1043D000CAFC01A8FCF732FD01A8FCF7A8FD01A862
:1043E000FCF714FE0020FDF725F80020FDF725F866
:1043F0000020FDF725F84D48FDF725F80120FCF7D2
:1044000068FF0120FCF780FF0120FCF794FF0120EA
:10441000FCF7AAFF0120FDF722F80120FCF7A8F91C
:104420000FB000BD1CB53C48406B3C49C91C08435B
:104430003949486372B6142000F080F862B6002053
:1044400000900190002168464180C1803749C839F9
:1044500081802F21018069463548FDF768F90122E6
:1044600011463348FDF7DDF901213148FDF7B1F977
:104470001CBD1CB52848406B2849C91C0843264967
:10448000486372B6162000F059F862B600216846FB
:104490004180C180891F81800521018069462448AF
:1044A0004030FDF744F9694621488030FDF73FF977
:1044B00001211F484030FDF78CF900211C48803055
:1044C000FDF787F90122114619488030FDF7A9F957
:1044D0001CBD00B589B0202101A800F0C4FF0E4822
:1044E000806B0E493F3108430B49886300200290DE
:1044F0008020019000200390042005902F20079039
:10450000002004900B4808900020069001A90A485A
:10451000FDF702FE09B000BD0040004001005A5AFC
:1045200000200240000100485E090000AF040000C6
:1045300000480040FFFF000000180040002809DB91
:1045400000BF00BFC206D20E01219140024A116095
:1045500000BF00BF7047000000E100E0F8B5002494
:104560006A4800686A49884203D2002069490860A5
:1045700021E0664800687D21C90088421BD3634959
:1045800009687D22D200881A01F0E0F907466248E6
:104590000168384600F0CBFF06466048006801F02D
:1045A000D5F93146009000F069FF054601F0F8F9B1
:1045B000044658480460F8BDF0B587B064215848F7
:1045C000006800F00FFF044656480068844203D894
:1045D00000205549086017E052490968601A01F047
:1045E000B5F90690069801F0EFF9504A504B059145
:1045F000049001F0CBF8054601F0FAF90690069810
:1046000001F0CEF9484908604A4800687D21C90098
:10461000484345490968884210D84748007800282F
:104620000CD146480078401C444908700846007880
:104630000F2806DB04204049087002E000203F49B3
:1046400008703F49088801F081F906908B21C9055F
:10465000069800F0A9FF3B49019000F068FF07466B
:1046600001F0B2F905460022374B01F0F7F80022BD
:10467000364B0391029001F089F80591049001F006
:10468000B7F906903249069800F051FF054601F04F
:1046900087F930490860304800680A2148432D49AD
:1046A0000968884210D82448007800280CD12B488B
:1046B0000078401C29490870084600780F2806DB5E
:1046C00006201D49087002E0002024490870244893
:1046D00000680A2148431F490968884210D31648D8
:1046E000007800280CD11F480078401C1D49087034
:1046F000084600780F2806DB08200F49087002E002
:1047000000201849087007B0F0BD00000800002024
:10471000B60300005C00002068000020A00000201C
:10472000F40000207800002080000020B81E85EBF7
:1047300051B81640B400002035000020F8000020D9
:10474000240100200000A0400000F83F000032409B
:10475000000020417C000020B8000020F90000206B
:10476000BC000020FA00002010B50024FE480078AC
:10477000052800D110BDFD480068002848D0FC483D
:104780000068002803D10120FA49087038E0F84891
:104790000068012803D10020F649087030E0F44891
:1047A000006802282CD18021F348FDF767FC01281E
:1047B00010D1002400E0641CFF20F5308442FAD3BD
:1047C0008021ED48FDF75AFC012819D10020E94964
:1047D000087015E08021E848FDF750FC00280FD153
:1047E000002400E0641CFF20F5308442FAD38021CD
:1047F000E148FDF743FC002802D10120DD490870A3
:104800000820D94908700020DC490860DC490860AC
:1048100000BFAFE7D4480078052800D17047D348DF
:10482000006800280DD1D7480068012806D104206F
:10483000CD4908700120D449087002E00320CA491C
:104840000870CF480068D149096888420FD300201A
:10485000CA490860CA490860CD480068002803D1E9
:104860000920C149087002E00120BF49087000BF5B
:10487000D4E710B5BC480078052800D110BDBF486A
:104880000068002820D1C3480068642802D2642050
:10489000C04908606421BF48006800F08DFDBE4932
:1048A0000860BE480068B549086009684B2252019B
:1048B00051430846642100F07FFDB949086000F0CB
:1048C000E9FA0A20A849087000BFD7E710B5A64842
:1048D0000078052800D110BDA448006800280DD13B
:1048E000A8480068012806D104209F4908700120CB
:1048F000A549087002E003209B490870A948006898
:10490000A549096888423BD30020A64908609B4816
:1049100000689649096888421CD298480068401C83
:10492000964908600846006890490968884203D3A0
:104930008E48006891490860904909684B225201ED
:1049400051430846642100F037FD9549086000F0A6
:104950004CFA15E0894800688449096888420FD9F3
:10496000824800688549086009684B22520151431A
:104970000846642100F020FD8949086000F035FAFE
:1049800000BFA8E710B578480078052800D110BD11
:1049900000208549086000F0AFFA84480088B428F8
:1049A0000EDA82484088B4280ADA8048C088B428E1
:1049B00006DA00207E4908607E4908607E4908705A
:1049C0007B480068002803D07C48006800280ED18E
:1049D00000207849086000BF76480068FF21F53163
:1049E0008842F9D30020744908705F49087000BFFD
:1049F000CDE710B500F080FA00206B490860062072
:104A00005949087010BD10B5002400220221092068
:104A1000C006FDF73CFB00206649086000BF654802
:104A20000068C828FBD355E065480078844231DA35
:104A300060480068C82806D2012202210920C00669
:104A4000FDF725FB30E05B480068FF21913188428B
:104A500006D8002202210920C006FDF718FB23E03A
:104A600054480068FF21913188421DD9544800788C
:104A7000844219DA601CC4B200204E4908605048D4
:104A80000078844210DA002202210920C006FDF7D6
:104A9000FEFA09E047480068FF21F531884203D358
:104AA0000024002043490860454800780A2811D1B5
:104AB000FFF7FEF82D48006800280BD14049087028
:104AC000012202210920C006FDF7E1FA072026494C
:104AD000087000E0A8E700BF10BD24480068002867
:104AE00001D121490870704770B500251E48007833
:104AF000052800D170BD1E48006802286FD18021B2
:104B00001D48FDF7BBFA012812D11A480078012888
:104B10000ED1002400E0641C7D20C0008442FAD342
:104B200080211548FDF7AAFA012819D1012517E0BF
:104B300080211148FDF7A2FA002811D10D48007814
:104B400000280DD1002400E0641C7D20C0008442B8
:104B5000FAD380210848FDF791FA002800D10125F9
:104B6000012D3CD107482DE0340000205C000020DE
:104B70008C00002040000020000100485000002070
:104B8000180000209000002070000020B0000020DD
:104B900084000020C0000020740000209400002049
:104BA0006C0000202000002038000020240100209C
:104BB00054000020140000201401002058000020A0
:104BC000350000200068012806D10420054908703E
:104BD00001200549087002E003200249087000BF67
:104BE00088E70000340000207000002070B5044603
:104BF0000D46002D07D0C6480078052803D0C448CC
:104C0000007806281AD10020C24948638863C86327
:104C1000002204210920C006FDF739FA00220821EC
:104C2000BD48FDF734FA002240210920C006FDF7F7
:104C30002EFABA48B7494031086070BD0020B84923
:104C40000860002C01D0052C0CD100220421092081
:104C5000C006FDF71CFA002240210920C006FDF71E
:104C600016FA1EE0012C01D0022C0BD100220421E7
:104C70000920C006FDF70BFA00220821A648FDF71F
:104C800006FA0EE0032C01D0042C0AD100220821E0
:104C9000A148FDF7FCF9002240210920C006FDF7DC
:104CA000F6F9002C01D0012C06D100209949886327
:104CB000C8639C4800684863022C01D0032C06D1CD
:104CC000002094494863C863964800688863042CB0
:104CD00001D0052C06D100208E4948638863914895
:104CE0000068C863002C01D0052C05D101220821E1
:104CF0008948FDF7CCF914E0012C01D0022C06D133
:104D0000012240210920C006FDF7C1F909E0032C6A
:104D100001D0042C05D1012204210920C006FDF791
:104D2000B6F9814804607F4800680521090288427D
:104D30000CD37E480078002808D101207B490870F8
:104D40004B20C00073494031086011E0754800688D
:104D50000521090288420BD274480078012807D146
:104D60000020724908706D48C8306A4940310860B7
:104D70006F48FCF771FE6F49086000216C48FCF732
:104D800056FE6D48007800280BD10521694800685F
:104D900000F012FB86B2314665484030FCF771FEE8
:104DA0000AE003216348006800F006FB86B2314642
:104DB0005F484030FCF765FE00215D484030FCF75D
:104DC00036FE01215A484030FCF703FD01205B49C3
:104DD00008705B480068401C5949086059480068E1
:104DE000401C5849086000BF27E772B64E4800686B
:104DF000002803D04C480068012806D1002045490E
:104E00008863C863474800684863474800680228C9
:104E100003D045480068032806D100203D49486377
:104E2000C8634048006888633F480068042803D08E
:104E30003D480068052806D100203649486388634C
:104E400038480068C86362B6364800680521090220
:104E500088420CD335480078002808D10120334916
:104E600008704B20C0002B494031086011E02D48EC
:104E700000680521090288420BD22C4800780128DD
:104E800007D10020294908702448C8302149403101
:104E90000860704770B5002500241D48007805287B
:104EA00000D170BD002026490860274800782749B6
:104EB000087000BF00F09AF9002807D1601CC4B246
:104EC00022480078401D2149087000E005E0052CCB
:104ED00003DA1F4800780028ECD000BF052C09DB5E
:104EE0001B480078002805D10320194908700520C7
:104EF0000749087000BFD4E710B5002015490860C5
:104F00000D49087000210846FFF770FE10BD000033
:104F10003400002000140040000100483F0600005B
:104F2000300000206C000020DC000020D8000020B1
:104F30004048004010010020FC0000201401002027
:104F400044000020480000209400002009010020B7
:104F5000350000203800002010B50121F948FCF789
:104F600090FC00283ED00121F648FCF7AEFCF64844
:104F70000078012807D10220F34908700021F14888
:104F8000FCF727FC2EE0F048007803282AD1EF48F0
:104F90000078012826D10021EA48FCF71AFCEC48E9
:104FA000007801280BD1EB480068401CE9490860F3
:104FB0000846006806280FD3002008600CE0E5488A
:104FC0000068002803D10520E249086004E0E148B8
:104FD0000068401EDF490860DF480168DD4800685E
:104FE000FFF704FE10BD70B500250024DA48006804
:104FF000002803D0D9480078002800D070BDD248DE
:105000000078022800D0F9E7D1480078062148430B
:10501000D3494018CF490968405C4000D149085A3B
:10502000D1490860CA48007806214843CF49401852
:10503000C8490968405CCE490870CE48007800280D
:1050400001D11E2401E0C7480488C948007802281D
:105050001FD1C5480068A04217D8C7480078401C37
:10506000C549087008460078022835DB0020087022
:105070000320B5490870C1480068401CBF4908605A
:105080000120BF490870012526E00020BA490870B8
:1050900022E0B748007801281ED1B3480068A0423A
:1050A00017D9B5480078401CB34908700846007805
:1050B000022811DB002008700320A3490870AF48C4
:1050C0000068401CAD4908600120AD490870012509
:1050D00002E00020A8490870A8480068052806D307
:1050E0009A480078002802D1012098490870974812
:1050F000007801283CD1012D3AD10025A148006853
:10510000322812D90A219F48006800F055F986B26A
:1051100031468C48FCF7B5FC00218A48FCF787FC37
:1051200001218848FCF755FB22E0894800780128D6
:105130000BD188480068401C864908600846006812
:1051400006280FD3002008600CE082480068002881
:1051500003D105207F49086004E07E480068401EB6
:105160007C4908607C4801687A480068FFF73EFD8A
:1051700000BF43E710B58448C06B8007C00F00280C
:1051800033D0FBF744F97748FBF7F5F97548801CF5
:10519000FBF7F9F97348001DFBF7FDF97148801D15
:1051A000FBF701FA6F480830FBF705FA6D480A3043
:1051B000FBF709FA6B48408974490968401873493C
:1051C000086073480068401C714908600846006820
:1051D000642808D3002008606C4800686D490860A6
:1051E00000206A490860FFF7FEFE10BD10B50024DC
:1051F000002154484038FCF71AFC00205D49087033
:1052000002205249087000204F490870624909780D
:10521000624A51430846642100F0E4F8604908609E
:105220005E486049086009685B4A12785143084645
:10523000642100F0C1F85B4908600120464908601C
:10524000FFF7D3FD4448016842480068FFF7CEFCF1
:1052500000205549086000BF534800681428FBD35C
:10526000002400204549086045490870012045494F
:10527000086000203549087000BF354800780128D3
:105280000BD134480068401C324908600846006869
:1052900006280FD3002008600CE02E480068002884
:1052A00003D105202B49086004E02A480068401E0D
:1052B0002849086032480078002801D12F49086049
:1052C00000202F49087021480078002805D1224885
:1052D000016820480068FFF789FC00203249086017
:1052E00008E027480078012803D0184800780128F2
:1052F00000D105E02D48005D2B4909688842F0D8AF
:1053000000BF641C11480078002805D13C2C03D252
:10531000124800780028B0D00C480078002807D147
:105320000D49086000210846FFF760FC002010BD11
:1053300000201F4908600948007800283AD0074833
:105340000078F4E78048004014010020FC000020B1
:10535000400000201C010020380000203500002003
:105360000C5D00002401002018010020005D0000F9
:1053700015010020D800002020010020000100209D
:10538000080100201001002040000040E40000203F
:10539000EC000020F4000020090100205F0900005B
:1053A000A40000206C00002014000020185D000004
:1053B000280000200120BAE730B50B460146002046
:1053C0002022012409E00D46D5409D4205D31D460B
:1053D0009540491B2546954040191546521E002D03
:1053E000F1DC30BD70B500242546002801DA012427
:1053F0004042002901DA01254942FFF7DDFFAC42B6
:1054000000D04042002C00D0494270BDF8B50024C5
:105410002546002904DA0E46012400214042B1410C
:10542000002B04DA1E46002352420125B34100F04E
:10543000FBFA8C4617461E46AC4203D0002540427C
:105440008D41AC46002C02D0002657429E41614659
:105450003A46334601B0F0BDD2B201E00270401CC2
:10546000491EFBD270470022F6E710B513460A46E4
:1054700004461946FFF7F0FF204610BDF8B5024676
:105480004A40D40F42004B0052085B089A4202D2B5
:105490000246084611464A0023D0C30D4A00DDB239
:1054A000120EAD1A202D35DA49020126490AF605F9
:1054B0008A19002C00D0524220214F1B1146B940BE
:1054C0002A411018C20D9A4221D0002C17D0012D6C
:1054D00008DCDA05801AD20F8019D207DBB200F09F
:1054E000FEFAF8BDDA05801A012340001B06C01839
:1054F00080185A428018CA0F1043490007E0490833
:10550000C2071143DA05801A80194008801800F09C
:10551000DEFAF8BD61000122511A001BF7E70122F3
:10552000D2075140AAE70122D2075040A6E702461F
:1055300070B54A40D30FDB0740002DD04A002AD077
:10554000010E140E000212020919400A520A8418B0
:10555000E50104465443000A120A2E045043A419DC
:105560004219200CC543AA18120C0125AD03521C88
:10557000521912047F39240400D0521C104301D464
:105580004000491EC2B20C06C0092018401C400849
:10559000802A02D003E0002070BD400840000029AE
:1055A00000DA0020184370BD70B502464A40D50F9E
:1055B00040004A00ED0740085208002814D0002A95
:1055C00012D0C40DD30D41020120C0055202490A78
:1055D000520AE41A091812187D34914201D3641C4E
:1055E00000E04900002C01DA002070BD0023914248
:1055F00001D3891A0343400849000028F7D1002944
:105600000AD0914202D10121C90705E0914201D29D
:10561000012101E00121C943E005C018401900F053
:1056200056FA70BDF0B507460846584087B0C00F1F
:10563000049048000E46590040084908BC1A8841A9
:1056400005D2384631461E4617460B4602465800DC
:10565000400810434DD0300D039040055900400DD7
:10566000490D0590401A0290402873DA1803012171
:10567000000B09050843019004980092002806D009
:105680001146019A494200209041009101900298F0
:1056900040210A1A0199009800F0F6F905460C46D7
:1056A0006B4607CB00F000FAC0197141039A0E0D4A
:1056B0000023D71756401A467A40164344D0049A1E
:1056C000002A2DD0029A012A039A15DC1205C01A6D
:1056D000914101263605001C7141D20F059ED2076B
:1056E0000093019202962A46234600F03EFA07B044
:1056F000F0BD38463146FAE71605234A0F46B21880
:10570000C01AB74101210905001C4F4100187F4113
:10571000114618187941E20F10436D19644113E0E6
:10572000E2076D0815436408C2071443039A012673
:105730001205C01A91413605001C7141CE07400880
:1057400030434908C01851412A46234600F000FA68
:10575000CDE7FFE7049801224000C117121A002389
:105760008B4104983146C417381AA141EEE730B492
:105770000124E407634030BC54E730B40124E4075B
:10578000614030BC4EE700000000E0FFF0B51FB400
:1057900088B00B990998002448400999C00F490026
:1057A00049080991C0070B990090490049080B91DD
:1057B00009990898A64608431CD00B990A980843F3
:1057C00018D0099801244000420D4800410D099865
:1057D00024050003000B204309900B980003000BE5
:1057E00020430B9050181C49401800220190144689
:1057F000104605E0002001460DB0F0BD032801DA97
:10580000034600E003239C46C11A0AAE0AE05F008B
:1058100008ADED5B4F00F75B7D430027AA187C4184
:10582000491C5B1E6145F2DD410004AB5A52210464
:10583000120C0A43240C401C0828DFDB019802905C
:105840000099704601910090059B049A079906986B
:1058500000F08BF9D0E700000DFCFFFFF0B50C461F
:105860005C4085B0E40FE40703944C000026640814
:1058700059009446490802460296224321D06246C6
:105880000A431ED06200570D4A000E032303550D34
:10589000012402462C492405781B1B0B360B4018AB
:1058A00023432643614600901C46501AB44103D35B
:1058B0000098401C009002E0921800985B4100287C
:1058C00003DA0020014605B0F0BD002001210905E2
:1058D0000746864611E064461D46141BB54106D3B3
:1058E0006546521BB341744607430C43A646CD0799
:1058F00040084908284392185B4105460D43EAD108
:105900001046184313D06046194650407140084372
:1059100006D06046101AB34106D20122002306E0E9
:1059200000220123DB0702E00122D243531000983A
:1059300074460105381C6141029C039D00196941B0
:1059400000F006F9BFE70000FD03000010B50022DB
:105950009623114600F0C3F810BD00000EB5C21723
:10596000C10F5040CA0740180021054B0293019215
:1059700000910A460B4600F0F8F803B000BD0000A5
:10598000330400000EB505490291002100910A463A
:105990000B46019100F0E9F803B000BD33040000AC
:1059A000410040020122400AD205090E80187F29D9
:1059B00001DA00207047962903DC9622511AC8406C
:1059C0007047963988407047C20FD20740004008A0
:1059D0000BD0C10D0723DB01C91840020905400A9D
:1059E0001143C20840071143704700200146704729
:1059F000CB0FDB07490010B5490802460A4307D020
:105A00000A0D07240903E401090B121B002A01DC1B
:105A1000002010BDC900440F0C43C100E018D2059E
:105A2000801800F054F810BDF0B51FB406460020F1
:105A300082B005464024019100901BE00199224666
:105A40000F46304600F0F6F8049A059B801A9941FB
:105A500010D310461946224600F016F8361A8F4128
:105A60000197224601200021009F00F00DF8381810
:105A70004D4100902046641E0028DFDC019B009809
:105A80002946324607B0F0BD10B5202A04DB014696
:105A9000203A9140002010BD914020239C1A0346DB
:105AA000E3401943904010BD10B5202A06DBCB1708
:105AB0000846203A1041C1170B4306E00B4613413C
:105AC000D0402024A21A91400843194610BD002955
:105AD00004DA401C490001D140084000704770B40E
:105AE0000024050C05D11024000402D1002921D086
:105AF0001124050E01D100020834050F01D1000167
:105B0000241D850F01D18000A41C002801DB40006A
:105B1000641C002908D020252E1B0D46F540A1400D
:105B200000D001212943084301061B1B000ADB1D8D
:105B300002D5002070BC7047DB05181880180029BA
:105B4000F8DA401C4900F5D170BC400840007047AD
:105B500010B5002B08DA0024401C614192185B410B
:105B60001A4301D14008400010BDF0B51FB482B007
:105B700005460C0003D0084600F06DF802E000F086
:105B80006AF820300246009021462846FFF77CFF45
:105B9000049B059A04460F4618431143084314D04A
:105BA000184610431BD0009840210A1A1846059940
:105BB00000F040F805460E46009A05990498FFF754
:105BC00063FF084305D0012004E02046394607B0B2
:105BD000F0BD0020C11705430E432C433743009905
:105BE0000E986305401A7905E40A00220C43FD0A69
:105BF0000A3002D500200146E9E701051019694184
:105C00000C9C0D9D00196941FFF7A2FFDFE7000022
:105C1000064C0125064E05E0E36807CC2B430C3CFF
:105C200098471034B442F7D3FAF74EFA585D0000A3
:105C3000785D000010B5202A04DB0846203AD040E9
:105C4000002110BD0B46D340D0402024A21A914021
:105C50000843194610BD2021020C01D01021104626
:105C6000020A01D010460839020901D01046091F66
:105C7000820801D01046891E420801D0881E704754
:105C8000081A704730B47446641E2578641CAB4211
:105C900004D3635D5B00E31830BC18471D46F8E78A
:105CA00002E008C8121F08C1002AFAD170477047E5
:105CB000002001E001C1121F002AFBD17047000043
:105CC00010000000010000000200000003000000BE
:105CD00004000000050000000600000007000000AE
:105CE00008000000090000000A0000000B0000008E
:105CF0000C0000000D0000000E0000000F0000006E
:105D00000102010201020201020102010302010378
:105D100002010302010302010C0B0A0A0909090826
:105D20000808070707070606060606050505050510
:105D30000505050404040404040404040404040321
:105D40000303030303030303030303030303030323
:105D50000303030303020202785D00000000002039
:105D600024010000A05C00009C5E000024010020D3
:105D70000C020000B05C000000093D0000000000C3
:105D80000000000000000000000000000000000013
:105D90000000000000000000000000000000000003
:105DA00000000000000000000000000000000000F3
:105DB00000000000000000000000000000000000E3
:105DC000000000000000000096000000000000003D
:105DD00000000000000000000000000000000000C3
:105DE00000000000000000000000000000000000B3
:105DF00000000000000000000000000000000000A3
:105E0000000000000000000000000000140000007E
:105E100064000000640000000A0000000A000000A6
:105E200004000000581B0000C80000000A00000029
:105E30001400000003000000E803000096000000CA
:105E4000DC050000320000003200000032000000DB
:105E50000000000000000000000000000000000042
:105E60000000000000000000000000000000000032
:105E70000000000000000000000000000000000022
:105E8000000A0000640000000000000000000000A4
:0C5E900000000000000000000000000006
:04000005000000C136
:00000001FF
