:020000040000FA
:10000000D80D0020D9000000DD0F0000D90B000042
:1000100000000000000000000000000000000000E0
:10002000000000000000000000000000511200006D
:100030000000000000000000DF0F0000551200006B
:1000400043140000CD0C00001D1200003D0900000B
:10005000A91000005D0900005F09000061090000AF
:100060006309000035090000370900003909000064
:10007000290900002B0900003F1400004114000072
:10008000810A0000830A0000850A0000870A000038
:100090002F0900003109000033090000050C0000A1
:1000A000070C00001F12000021120000FD000000DC
:1000B000A1120000E91200002D0900003B09000018
:1000C0000448854600F01EFC00480047411E000021
:1000D000C046C046D80D002009480A4A002100A1A8
:1000E000814200D902440848026008488047084815
:1000F0000047FEE7FEE7FEE7FEE7FEE7FEE700005B
:10010000000000200000000008ED00E06512000083
:10011000C100000030B50B4601460020202201241A
:1001200009E00D46D5409D4205D31D469540491B2B
:100130002546954040191546521E002DF1DC30BD74
:1001400003460B439B0703D009E008C9121F08C0F0
:10015000042AFAD203E00B780370401C491C521E9B
:10016000F9D27047D2B201E00270401C491EFBD2A6
:1001700070470022F6E710B513460A4604461946B2
:10018000FFF7F0FF204610BDF8B502464A40D40FF5
:1001900042004B0052085B089A4202D202460846CF
:1001A00011464A0023D0C30D4A00DDB2120EAD1A2B
:1001B000202D35DA49020126490AF6058A19002C54
:1001C00000D0524220214F1B1146B9402A4110183D
:1001D000C20D9A4221D0002C17D0012D08DCDA057F
:1001E000801AD20F8019D207DBB200F0DFF9F8BD18
:1001F000DA05801A012340001B06C01880185A42F5
:100200008018CA0F1043490007E04908C20711438C
:10021000DA05801A80194008801800F0BFF9F8BD8F
:1002200061000122511A001BF7E70122D207514059
:10023000AAE70122D2075040A6E770B502464A401D
:10024000D50F40004A00ED0740085208002814D09E
:10025000002A12D0C40DD30D41020120C005520264
:10026000490A520AE41A091812187D34914201D33E
:10027000641C00E04900002C01DA002070BD00235E
:10028000914201D3891A0343400849000028F7D15D
:1002900000290AD0914202D10121C90705E091420B
:1002A00001D2012101E00121C943E005C018401934
:1002B00000F074F970BD420005D04200120E5242A7
:1002C0008A4201DB00207047C9050818704700000A
:1002D000F0B507460846584087B0C00F0490480064
:1002E0000E46590040084908BC1A884105D23846D4
:1002F00031461E4617460B4602465800400810433A
:100300004DD0300D039040055900400D490D05902A
:10031000401A0290402873DA18030121000B0905E6
:100320000843019004980092002806D01146019AD3
:1003300049420020904100910190029840210A1A00
:100340000199009800F0F6F805460C466B4607CB7D
:1003500000F011F9C0197141039A0E0D0023D7174F
:1003600056401A467A40164344D0049A002A2DD0AB
:10037000029A012A039A15DC1205C01A914101263E
:100380003605001C7141D20F059ED20700930192E1
:1003900002962A46234600F04FF907B0F0BD3846D2
:1003A0003146FAE71605234A0F46B218C01AB7417C
:1003B00001210905001C4F4100187F411146181802
:1003C0007941E20F10436D19644113E0E2076D08B3
:1003D00015436408C2071443039A01261205C01A84
:1003E00091413605001C7141CE0740083043490851
:1003F000C01851412A46234600F011F9CDE7FFE726
:10040000049801224000C117121A00238B4104985E
:100410003146C417381AA141EEE730B40124E4078D
:10042000634030BC54E730B40124E407614030BC81
:100430004EE700000000E0FF10B5002296231146B1
:1004400000F0B4F810BD410040020122400AD2057C
:10045000090E80187F2901DA00207047962903DCF5
:100460009622511AC840704796398840704700005C
:100470004A0009030123090B1B051943094B10B559
:10048000520D9A4201DA002010BD064B34339A42D5
:1004900003DC9A1A00F05EF810BD03495118884039
:1004A00010BD0000FF030000CDFBFFFFC20FD2070D
:1004B000400040080BD0C10D0723DB01C9184002E2
:1004C0000905400A1143C208400711437047002044
:1004D00001467047F0B51FB40646002082B00546BD
:1004E0004024019100901BE0019922460F463046BE
:1004F00000F030F8049A059B801A994110D31046F9
:100500001946224600F016F8361A8F410197224606
:1005100001200021009F00F00DF838184D41009097
:100520002046641E0028DFDC019B009829463246E5
:1005300007B0F0BD10B5202A04DB0146203A9140F7
:10054000002010BD914020239C1A0346E34019432C
:10055000904010BD10B5202A04DB0846203AD04058
:10056000002110BD0B46D340D0402024A21A914058
:100570000843194610BD10B5202A06DBCB170846E4
:10058000203A1041C1170B4306E00B461341D040FF
:100590002024A21A91400843194610BD002904DA0C
:1005A000401C490001D140084000704770B400244D
:1005B000050C05D11024000402D1002921D01124FA
:1005C000050E01D100020834050F01D10001241DE0
:1005D000850F01D18000A41C002801DB4000641CB1
:1005E000002908D020252E1B0D46F540A14000D043
:1005F00001212943084301061B1B000ADB1D02D50C
:10060000002070BC7047DB05181880180029F8DA44
:10061000401C4900F5D170BC40084000704710B53F
:10062000002B08DA0024401C614192185B411A43F8
:1006300001D14008400010BDF0B51FB482B005469E
:100640000C0003D0084600F00DFF02E000F00AFFA6
:1006500020300246009021462846FFF76BFF049B9E
:10066000059A04460F4618431143084314D0184610
:1006700010431BD0009840210A1A18460599FFF72D
:1006800069FF05460E46009A05990498FFF752FF48
:10069000084305D0012004E02046394607B0F0BDEC
:1006A0000020C11705430E432C43374300990E9891
:1006B0006305401A7905E40A00220C43FD0A0A305A
:1006C00002D500200146E9E70105101969410C9C9B
:1006D0000D9D00196941FFF7A2FFDFE7F0B51FB4D8
:1006E00088B00B990998002448400999C00F490027
:1006F00049080991C0070B990090490049080B91DE
:1007000009990898A64608431CD00B990A980843F3
:1007100018D0099801244000420D4800410D099865
:1007200024050003000B204309900B980003000BE5
:1007300020430B9050181C49401800220190144689
:10074000104605E0002001460DB0F0BD032801DA97
:10075000034600E003239C46C11A0AAE0AE05F008C
:1007600008ADED5B4F00F75B7D430027AA187C4185
:10077000491C5B1E6145F2DD410004AB5A52210465
:10078000120C0A43240C401C0828DFDB019802905D
:100790000099704601910090059B049A079906986C
:1007A000FFF74AFFD0E700000DFCFFFFF0B50C4655
:1007B0005C4085B0E40FE40703944C000026640815
:1007C00059009446490802460296224321D06246C7
:1007D0000A431ED06200570D4A000E032303550D35
:1007E000012402462C492405781B1B0B360B4018AC
:1007F00023432643614600901C46501AB44103D35C
:100800000098401C009002E0921800985B4100287C
:1008100003DA0020014605B0F0BD002001210905E2
:100820000746864611E064461D46141BB54106D3B3
:100830006546521BB341744607430C43A646CD0799
:1008400040084908284392185B4105460D43EAD108
:100850001046184313D06046194650407140084373
:1008600006D06046101AB34106D20122002306E0EA
:1008700000220123DB0702E00122D243531000983B
:1008800074460105381C6141029C039D00196941B1
:10089000FFF7C5FEBFE70000FD0300004A000903A3
:1008A0000123090B1B0519430A4B10B5520D9A423F
:1008B00002DA0020014610BD064B34339A4203DCB5
:1008C0009A1AFFF747FE10BD034BD218FFF732FE0E
:1008D00010BD0000FF030000CDFBFFFF10B5002995
:1008E00004DB0124E40740428C412146002B04DB59
:1008F0001C460123DB075242A341994200D190429A
:1009000010BD0000064C0125064E05E0E36807CC4B
:100910002B430C3C98471034B442F7D3FFF7D4FB79
:100920000C3A00002C3A000070477047704770473F
:1009300070477047704770477047704770470000B6
:10094000002801D0182108430249084302494860A1
:100950007047000000005A5A00200240704770475C
:10096000704770471FB50A48016B1022114301639D
:1009700020200190074880240390092002940094CD
:100980006946C00600F00AF8034884611FBD0000F4
:1009900000000140FFFF0000400000480CC908397A
:1009A000002B0DD0C3699343C3610A79D206026854
:1009B0000B684DD51A4302604A68112A04D00BE037
:1009C000C1691143C161704702690B681A43026132
:1009D000C2680B689A43C2604A68122A07D1C2688B
:1009E0000B681A43C26002690B689A430261426A4B
:1009F0000B689A434262826A0B689A438262C26AB7
:100A00000B689A43C262026B0B689A4302638B685D
:100A100081229A4303D1426A0B681A4342628B686F
:100A200082229A4303D1826A0B681A4382628B68DE
:100A300084229A4303D1C26A0B681A43C2628B684C
:100A400088229A43BFD1026B09680A430263704748
:100A50009A4302604A68202A42680B6809D01A4308
:100A60004260064BCA689A428268096803D10A4309
:100A700002E09A43F4E78A4382607047FFFF000078
:100A80007047704770477047FFB5044685B080B225
:100A90000F4602908BE0802833D20D2804D0202806
:100AA00005D9203880B203E01037029C25E00020F1
:100AB00000260001019001980025801900903F490F
:100AC000095C8020E840014203D0B9196019079AF7
:100AD00006E008990798884204D0B9196019089A65
:100AE00000F070F86D1CEDB2082D01D20098E6E719
:100AF000761CF6B2102EDED308340E98401C0E90F1
:100B000055E000200090222148432D490E9A0B5CAD
:100B10001278934241D14018039041780E98407862
:100B200081423AD1002503990026680008180190F7
:100B300081788020F040014203D07919A019079AEA
:100B400006E008990798884204D07919A019089AF4
:100B500000F038F8761CF6B2082E01D20198E7E7CB
:100B600000260198C1788020F040014203D0791915
:100B7000A019079A06E008990798884205D07919C4
:100B8000089AA019083000F01DF8761CF6B2082E5D
:100B9000E7D36D1CEDB2102DC5D30098401C80B278
:100BA00000906428AFD30E98801C10340E900E98DD
:100BB0000078002800D06EE709B0F0BD5420000096
:100BC000C62D000010B514464B1C421C00F0C4F9A1
:100BD000204600F069F810BDFEE7000010B500F0F7
:100BE00017FAFFF7BFFE00F089F8054800F06FF82C
:100BF000032001F06BF9022001F068F910BD00003C
:100C00007DEF000070477047F8B50446114D7D2018
:100C10002978C000FFF77EFA01462046FFF77AFAEE
:100C20000D490026771E401E884203D90120002866
:100C30000ED108E0094C60610321384600F042FC07
:100C4000A661072020610021384600F03BFC6E6061
:100C5000F8BD000000000020FFFFFF0000E000E002
:100C60001FB50E48026B20210A430263026B10235A
:100C70001A4302638020029009480390F0200191FA
:100C8000009069460748FFF789FE0120C0030090E5
:100C900009206946C006FFF781FE1FBD0000014024
:100CA000FFFF00000004004870B5074C20260546F1
:100CB000A6611020E0612804000E00F0B3FAE8B24B
:100CC00000F0B0FAE66170BD40040048704770B5AE
:100CD00006460021A9238B22084600F03DF92C206E
:100CE00000F070F9002500243046FFF7DDFF641C9A
:100CF000AA2CF9D36D1C8C2DF5D370BD10B5FFF760
:100D0000AFFF00F015F9112000F05CF987490020D1
:100D1000401C8842FCD30020401C8842FCD3B120F8
:100D200000F050F9012000F041F92C2000F03EF9CC
:100D30002D2000F03BF9B22000F044F9012000F032
:100D400035F92C2000F032F92D2000F02FF9B320D6
:100D500000F038F9012000F029F92C2000F026F9E4
:100D60002D2000F023F9012000F020F92C2000F0C4
:100D70001DF92D2000F01AF9B42000F023F9072006
:100D800000F014F9C02000F01DF9A22000F00EF9C7
:100D9000022000F00BF9842000F008F9C12000F0D7
:100DA00011F9C52000F002F9C22000F00BF90A2069
:100DB00000F0FCF8002000F0F9F8C32000F002F980
:100DC0008A2000F0F3F82A2000F0F0F8C42000F0A8
:100DD000F9F88A2000F0EAF8EE2000F0E7F8C520E4
:100DE00000F0F0F80E2000F0E1F8362000F0EAF80C
:100DF000C02000F0DBF8E02000F0E4F80F2000F065
:100E0000D5F81A2000F0D2F80F2000F0CFF8182003
:100E100000F0CCF82F2000F0C9F8282000F0C6F828
:100E2000202000F0C3F8222000F0C0F81F2000F0BE
:100E3000BDF81B2000F0BAF8232000F0B7F83720E7
:100E400000F0B4F8002000F0B1F8072000F0AEF890
:100E5000022000F0ABF8102000F0A8F8E12000F02C
:100E6000B1F80F2000F0A2F81B2000F09FF80F202F
:100E700000F09CF8172000F099F8332000F096F865
:100E80002C2000F093F8292000F090F82E2000F09C
:100E90008DF8302000F08AF8302000F087F83920F3
:100EA00000F084F83F2000F081F8002000F07EF888
:100EB000072000F07BF8032000F078F8102000F005
:100EC00075F82A2000F07EF8002000F06FF800206E
:100ED00000F06CF8002000F069F87F2000F066F860
:100EE0002B2000F06FF8002000F060F8002000F0E8
:100EF0005DF8002000F05AF89F2000F057F8F0202D
:100F000000F060F8012000F051F8F62000F05AF8E7
:100F1000002000F04BF83A2000F054F8052000F0D3
:100F200045F8292000F04EF810BD0000E8FD000053
:100F30000122074BD2039A6106490020401C8842D7
:100F4000FCD3DA610020401C8842FCD370470000CB
:100F50004000004870170000F0B507461C461646D2
:100F60000D462A2000F02EF8002000F01FF8F8B2FD
:100F700000F01CF8002000F019F8B61CF0B200F0E8
:100F800015F82B2000F01EF8002000F00FF8E8B252
:100F900000F00CF8002000F009F8641CE0B200F04A
:100FA00005F82C2000F00EF8F0BD000030B5044C20
:100FB0002025A5611021E16100F034F9E56130BD23
:100FC0004004004830B5044C2025A5611021A161E2
:100FD00000F028F9E56130BD4004004870477047D3
:100FE000044A0029116B01D0014300E081431163E1
:100FF0007047000000000140044A0029916B01D0B5
:10100000014300E08143916370470000000001400C
:1010100010B5052000F034F8002000F021F8002081
:1010200000F044F808220B49032000F04FF80A486A
:10103000016B0222114301631046FFF781FC02207D
:1010400000F088F8054C204600F0E2F82046FFF753
:10105000DBFD10BD00127A00000001400090D003BB
:10106000044A1168044B19400143044801431160CC
:1010700070470000000001401FFF000000005A5AA6
:10108000C102932040020088014305488161416804
:10109000044A1143416081690904FCD5704700008E
:1010A0000000014001005A5A70470000044A1168CC
:1010B000044B19400143044801431160704700008C
:1010C00000000140E7FF000000005A5AF7B51E4833
:1010D00017460D460FC88AB003936B4607C31A49DB
:1010E000002426461422103104A8FFF729F8684688
:1010F000A1004158A94201D9264603E0641CE4B28C
:10110000042CF5D37D43002004A982008A58AA420A
:1011100001D9054603E0401CC0B20528F5D3690299
:1011200038010143B00001430A980143072000033E
:101130000143064881624168054A11434160816A62
:101140000904FCD50DB0F0BD3020000000000140C6
:1011500004005A5A70B50B4C054620680A490843EA
:101160000A4908402843206000F014F80849086044
:1011700020684007400FA84201D0012070BD002028
:1011800070BD00000000014000005A5AF8FF5A5A92
:101190000C000020F8B5194C20684707A0697F0FA4
:1011A0004004010FA06A8207A06A920FC005C50E15
:1011B000134E14483B0000F06CF9050409100B0DA8
:1011C000040089007158FEF7A5FF0FE00E480DE0FE
:1011D0000E480BE00120C00308E0002A0BD0012AD2
:1011E00009D089007158FEF795FF68432168090608
:1011F000490FC840F8BD04486843F7E700000140C4
:10120000F01F0000006CDC020024F40020800000CD
:1012100001490860704700000C00002070477047CB
:101220007047000030B508218024084A4023050695
:1012300001D5D46100E094619361D3614006491EF9
:10124000000E0906090EF2D130BD0000400400482E
:1012500070470000024881680278891881607047F1
:10126000000000200C490B4893235B02086018889B
:1012700041050A48490D8269D20AD2020A438261B5
:101280005988026A8905890D920A92020A4302620C
:101290007047000000127A000C000020000001409E
:1012A00010B50E4C0421204600F03FF8002813D062
:1012B0000421204600F030F8204600F0B7F8094A33
:1012C000074B51685854491C7D23DB0000205160B6
:1012D000994200D35060107010BD000000440040DF
:1012E000080400201000002010B5094C04212046FD
:1012F00000F01BF800280AD00421204600F00CF86A
:10130000204600F093F80146024800F092F810BD24
:101310000048004000440040026A8A43026270476D
:10132000C069084000D001207047C069084000D063
:1013300001207047002A826801D00A4302E0C943B5
:1013400089B20A4082607047F8B505460C46888825
:101350008989228A0843E18911430843618A084345
:101360002968304A114008432860E088A18A084370
:101370006968C3229200914308436860A0882A4E9E
:10138000002813D0C11FFF39FA390CD0012189027E
:10139000884220682ED18000FFF74EF80746A068EB
:1013A000FFF74AF82FE02068C000F5E72068000149
:1013B000FFF742F80746A068FFF73EF83946FEF708
:1013C0003CFF0446FFF73FF887B23846FFF734F892
:1013D0002146FEF72EFF0421FEF76DFFFFF766F8AA
:1013E00000223346FEF774FFFFF742F880B2EF6049
:1013F0002861F8BDFFF720F80746A068FFF71CF842
:101400000821FEF758FF3946FEF717FFFFF74EF8A1
:1014100000223346FEF75CFFFFF72AF880B2E8604F
:10142000F8BD0000C0F8FFFF0000E03F406AC0B216
:101430007047C905C90D8162704781627047704766
:10144000704770470FB410B503A9044B044A0298C3
:1014500000F046F910BC08BC04B018471D1E00007F
:101460001C0000202021020C01D010211046020A8D
:1014700001D010460839020901D01046091F820820
:1014800001D01046891E420801D0881E7047081AF4
:10149000704730B47446641E2578641CAB4200D299
:1014A0001D46635D5B00E31830BC1847002805DB70
:1014B000C106C90E0120884001490860704700003C
:1014C00000E100E08307FF22DB0E9A408907090E46
:1014D0009940002808DB830809489B001818036816
:1014E00093430B43036070470007000F08388308DD
:1014F00004489B001818C36993430B43C3617047AA
:1015000000E400E000ED00E08307FF22DB0E9A40DC
:101510008907090E9940002808DB830809489B00C9
:101520001818036893430B43036070470007000FCC
:101530000838830804489B001818C36993430B4379
:10154000C361704700E400E000ED00E002E008C87D
:10155000121F08C1002AFAD170477047002001E02D
:1015600001C1121F002AFBD170470000F0B51FB463
:1015700086B00998089A030D0021024314D05148FF
:10158000514A1818504305141198012810981AD080
:10159000281A401C00264D4F4D4900960191049099
:1015A000002812DA444211E01198012449A30128CD
:1015B00001D11098C1430698119A84600360C260FB
:1015C00041600BB0F0BD4042E4E704462105002035
:1015D0003F4A001C51410391029012E0E00707D0FE
:1015E00032463B4601990098FFF778F80191009048
:1015F00032463B4610461946FFF770F806460F463E
:101600006410002CEAD10498039B0028029A0999DF
:10161000089806DAFFF762F8019B009AFFF75EF878
:1016200005E0FFF7C3F8019B009AFFF7BFF80446F7
:101630000E460022284BFFF751F903D80020C04383
:10164000014607E00022254B20463146FEF740FECA
:10165000FFF724F9102409E0002C0ADB0A220023FA
:10166000FEF738FF079B30321A55641E02460A43C4
:10167000F2D11122641C079B121B1C19119B012B18
:1016800003D0012308430ED10AE0084304D01120FF
:1016900010900020119077E71098151A6D1E0BE03E
:1016A0001098824202DD00236D1C03E0824201DAC1
:1016B00000236D1E002BEED0069811998260C16048
:1016C00030C07EE701FCFFFF104D00000000144019
:1016D0000000F03F300000000000F0430000E03F59
:1016E000FFB597B0064600251BE2252876D10024D9
:1016F0002746F749049400E00443761C3278012021
:10170000203A90400842F7D130782A280ED00222A1
:10171000307801463039092916D804990A235943EB
:10172000303940181443761C0490F1E7189802C829
:1017300004911890002904DA012040030443484230
:10174000049002200443761C30782E2814D1042003
:1017500004437078761C2A2809D11898761C80C812
:10176000189009E00A214F43303FC719761C3078A2
:10177000014630390929F5D930786C2810D006DCBB
:101780004C281AD068280ED06A2817D104E0742893
:1017900013D07A2812D110E00120400504430CE058
:1017A0000121090501E0032109050C4371788142FB
:1017B00003D1012000052418761C761C3078662899
:1017C0000BD013DC58287DD009DC00287BD04528BD
:1017D000F6D04628F4D047281AD1A9E118E06328AA
:1017E00035D0642870D0652812D1A1E170286CD062
:1017F00008DC6728F1D069287DD06E280DD06F28CD
:1018000006D1BCE073282ED0752873D0782859D023
:101810001A9A199990476D1C82E16002400F0228C4
:1018200009D003280DD00428189801680DD00D6048
:10183000001D189074E11898EA1701680D604A605D
:10184000F6E7189801680D80F2E70D70F0E7189838
:101850006A4601781172001D18900020507202A88B
:101860000090012005E0189802C81890002000910F
:10187000C04361070ED5002101E00199491C019187
:10188000B94213DA8142F8DB019A0099895C002998
:10189000F3D10BE0002101E00199491C0191814243
:1018A000FADB019A0099895C0029F5D10199049825
:1018B0001A9B471A21463846199A00F099FA40199E
:1018C000019903E051E030E115E050E0451807E0F0
:1018D000009800990078491C00911A9A199990472C
:1018E0000198401E0190401CF2D1214638461A9BB7
:1018F000199A12E137E00A2000210090019160025C
:10190000410F022907D0189A01CA1892C2179446AB
:10191000032908D00AE01898C01DC108C90005C9EC
:101920001891944607E000B2C2179446042902D1E8
:1019300040B2C1178C4600226146944506DA0A4639
:101940000021404291418C462D2102E0210504D521
:101950002B216A461173012103E0E10701D0202108
:10196000F7E7029156E00A200AE0102008E0102074
:1019700000900021042004430191082703E008207F
:101980000021019100906002410F022907D0189AAE
:1019900001CA189200229446032908D008E018983A
:1019A000C01DC108C90005C91891944603E080B262
:1019B000042900D1C0B20021029121072AD5317833
:1019C0000D91702906D0009A1021019B4A401A43BC
:1019D00005D00EE040216A461173012108E06146FE
:1019E000014306D030216A4611730D9951730221CB
:1019F0000291009A0821019B4A401A430AD161468C
:101A0000014301D1610705D530216A4611730121D7
:101A10007F1E02913178582904D02EA10E910DA974
:101A20000D910DE030A1F9E76146019B009AFEF7A8
:101A300051FD0E9B8C469B5C0D9A521E0D921370AD
:101A400061460143F0D10D9805A9081A2030019094
:101A5000600703D501200004844300E001270198BA
:101A6000874201DD381A00E00020019900904118FA
:101A7000029809180498401A0490E00306D42146FD
:101A80001A9B199A049800F0B3F94519002706E04B
:101A900003A81A9AC05D199990476D1C7F1C029883
:101AA0008742F5DBE0030CD521461A9B199A04986E
:101AB00000F09EF9451904E01A9A302019999047D0
:101AC0006D1C0099481E00900029F5DC1FE0000005
:101AD0000928010030313233343536373839616204
:101AE00063646566000000003031323334353637C8
:101AF0003839414243444546000000000D980D9995
:101B00000078491C0D911A9A199990476D1C0199FA
:101B1000481E01900029F1DC4DE100F059F945190A
:101B2000761C3078002800D0DFE528461BB0F0BDD9
:101B3000600700D406271898C01DC108C90048686E
:101B40000A680831C30FDB071891190001D09CA166
:101B500008E0210501D59BA104E0E10701D09AA18D
:101B600000E09AA14300109130785B0865280CD002
:101B700006DC452809D046281DD0472841D141E040
:101B8000662818D067283CD13CE00021112F01DBEA
:101B9000112000E0781C0191009008A911A8FFF71E
:101BA000E5FC139905910021119A15927F1C12985A
:101BB0000197009150E00120C0070390012001909F
:101BC00008A9009711A8FFF7D1FC139A1499059260
:101BD0000022119B009212981593059A01920029F8
:101BE00001D0104602E0791C40180190381A01D546
:101BF000019804E04042401E0090781C0190C01BF8
:101C0000029043E0012F00DA01270021112F01DDAE
:101C1000112000E038460191009008A911A8FFF7B3
:101C2000A5FC13990591119A002112981592009123
:101C3000019721070CD40599B94201DB019900E015
:101C40000191012904DD159A491E515C302906D005
:101C5000B84201DA011D05DA0121029115E001996E
:101C6000491EEDE7002805DC009941180091019913
:101C7000091A03E0019A411C914200DD019100998B
:101C8000401A401C02900120C0070390200706D490
:101C900002990198814202DB0020C043029000209B
:101CA0006946C87707AF012103980337C9078842FF
:101CB00024D0022011902B201290039800280CDAD7
:101CC000404203902D20129007E00A210398FEF76E
:101CD00021FA30317F1E039039701199481E1190FE
:101CE0000029F2DC03980028EFD1791E12980870C1
:101CF0003078202108404530BF1E387006A8C01B30
:101D0000C01D039010980078002800D00120019990
:101D100041180298C0170918039809180498401A26
:101D2000401E0490E00306D421461A9B199A049899
:101D300000F05EF8451910980078002803D01A9A30
:101D4000199990476D1CE00324D521461A9B199AD6
:101D5000049800F04DF845191CE00098002807DBB6
:101D600000990598884203DD1598405C199901E0B7
:101D7000199930201A9A904700986D1C401C0090C9
:101D80000298401E0290002804D11A9A2E20199918
:101D900090476D1C0199481E01900029DDDC05E08B
:101DA00038781A9A7F1C199990476D1C0399481E20
:101DB00003900029F4DC21461A9B199A0498ACE69A
:101DC0002D0000002B00000020000000000000009B
:101DD000F8B5044600251E461746880404D405E0DD
:101DE00039462020B0476D1C641EF9D52846F8BD41
:101DF000FFB50446002581B01E46C80301D5302733
:101E000000E02027880404D505E038460399B04750
:101E10006D1C641EF9D5284605B0F0BD70B5074DA0
:101E20000446C1B22846FFF708FB01212846FFF708
:101E300077FA0028F9D0204670BD00000048004025
:101E400008B5FEF7CBFE7D21C9001148FEF791F9D8
:101E500010A0134C00902346002205210F20FEF70E
:101E600013FE10A01F2200902346D20219210F203A
:101E7000FEF70AFE0FA0FFF7E5FA134C00252088B5
:101E80000128FCD10248FFF7DDFA2580F7E70000C2
:101E9000F007002045535038323636CAB5D1E90034
:101EA0007DEF00004C4344204F4B20444953504C9D
:101EB00041590000435733322045535038323636AB
:101EC000CAB5D1E90D0A000018000020F0B50925B7
:101ED0000F26ED06360220278BB00446032802D0D9
:101EE000022C1FD045E001210802FFF785F80121EF
:101EF0001020FFF775F86869F02188431030686199
:101F00006869B043FF3001306861012040020090F1
:101F100033480390019769462846FEF73FFD0120AC
:101F200080021FE001218020FFF766F801211020C8
:101F3000FFF756F8A869B043FF30FF300230A861C0
:101F4000A8690F2109038843012149034018A861AA
:101F50000420009022480390019769462846FEF726
:101F60001DFD082000901120019069462846FEF7CB
:101F700015FDE12040020490002069468882C88255
:101F80001849069169468883C88308848884032099
:101F90004884032C14D0022C10D1134C04A92046E1
:101FA000FFF7D2F9012204212046FFF7C3F90021EF
:101FB0001C20FFF7A9FA1C20FFF778FA0BB0F0BD40
:101FC0000A4C04A92046FFF7BFF90122042120464C
:101FD000FFF7B0F900211D20FFF796FA1D20EBE76F
:101FE000FFFF00000090D003004400400048004084
:101FF00006000000060000000600000006000000C9
:1020000006000000060000000100000003000000C0
:1020100002000000040000000600000008000000AC
:102020000A0000000C0000000E000000100000007C
:10203000808D5B00001BB700002D310101366E0161
:1020400080A8120100366E0100512502006CDC02EE
:1020500001A24A040000000000000000000000008F
:1020600000000000001010101010101010100000E0
:102070001010000000006C6C24240000000001001F
:10208000000000000024242424FE48484848FC9016
:102090009090900000103C5492905038141212927C
:1020A000547810000000225C94A8481010242A5292
:1020B00054880000000030484850206E54948C88AA
:1020C0008A74000000003030101000000000000092
:1020D0000000000000040810102020202020201004
:1020E0001008040000804020201010101010102054
:1020F00020408000000000001054381038541000B8
:102100000000000000000010101010FE1010101051
:1021100000000000000000000000000000000000BF
:102120001010200000000000000000FE0000000071
:10213000000000000000000000000000000000009F
:102140001010000000000404080810102020404077
:1021500080800000000038448282828282828282F3
:1021600044380000000010701010101010101010F3
:10217000107C000000003844828204081020408255
:1021800084FC000000003844820204380402028209
:10219000443800000000040C141424244444FE04B9
:1021A000040E00000000FC808080B8C4820202821D
:1021B0008478000000003C428280B8C4828282821F
:1021C0004438000000007E42820404080808101011
:1021D0001010000000003844828244384482828219
:1021E000443800000000384482828282463A0282EB
:1021F0004438000000000000101000000000101023
:10220000000000000000000010100000000000109E
:102210001020000000000000061860806018060012
:1022200000000000000000000000FE0000FE0000B2
:102230000000000000000000C0300C020C30C000A4
:1022400000000000003844828202040810101000D0
:102250001010000000003844829AAAAAAAAAAA96DE
:1022600080423C00000010101028282844447C4480
:1022700044EE00000000FC424242427C42424242A4
:1022800042FC000000003C4482808080808082828A
:10229000443800000000F844424242424242424276
:1022A00044F800000000FC444240447C444040426A
:1022B00044FC00000000FC444240447C4440404058
:1022C00040F000000000344C828080808E84848442
:1022D0004C3400000000EE444444447C44444444F4
:1022E00044EE000000007C101010101010101010B0
:1022F000107C000000003E0808080808080808884C
:10230000887000000000EE4448485060504848443F
:1023100044EE00000000E040404040404040404269
:1023200044FC00000000C6446C6C6C54545444449B
:1023300044EE00000000CE4464646454544C4C4CA1
:1023400044E40000000038448282828282828282D9
:10235000443800000000F844424242447840404083
:1023600040E000000000384482828282828282BA89
:10237000443C02000000F04844444448704844444F
:1023800044E6000000003C44828040300C0202829F
:102390004478000000007C549210101010101010AF
:1023A000103800000000EE44444444444444444493
:1023B000443800000000EE444444442828282810F3
:1023C000101000000000EE44545454545454282873
:1023D000282800000000EE44442828101028284433
:1023E00044EE00000000EE4444282828101010108D
:1023F0001038000000007E4484080810202040822D
:1024000084FC0000001C1010101010101010101090
:1024100010101C000000EE445454FE54545428285C
:10242000282800000070101010101010101010104C
:102430001010700000304884000000000000000010
:10244000000000000000000000000000000000008C
:102450000000FE000040200000000000000000001E
:10246000000000000000000000007884047C8484E8
:102470008C7600000000C040404058644242424216
:102480006458000000000000000038448080808014
:102490004438000000000C040404344C8484848418
:1024A0004C360000000000000000788484FC80802E
:1024B00084780000000018242020F820202020200C
:1024C000207000000000000000003A444478807C46
:1024D00082827C000000C040404058644444444430
:1024E00044EE00000000101000003010101010101A
:1024F00010380000000010100000301010101010F4
:10250000109060000000C04040405C48506050485F
:1025100044EE0000000030101010101110101010C8
:1025200010390000000000000000ACD2929292929C
:1025300092D6000000000000000058E444444444E7
:1025400044EE0000000000000000384482828282D5
:1025500044380000000000000000D8644242426499
:102560005840E000000000000000364C8484844C99
:1025700034040E000000000000006C3020202020F9
:10258000207000000000000000007888846018843B
:1025900044780000000000202020F8202020202087
:1025A00024180000000000000000C64242424242DF
:1025B000463A0000000000000000EE4444282828AD
:1025C00010100000000000000000EE4444545428A5
:1025D00028280000000000000000EE442810102809
:1025E00044EE0000000000000000EE4444282810E3
:1025F00010A0C0000000000000007E4488102042AF
:1026000084FC0000000C101010101060101010104E
:1026100010100C00001010101010101010101010DE
:102620001010100000C02020202020182020202082
:102630002020C00000000000000000728C0000009C
:10264000000000000000000000001FE000003FF05C
:1026500000003FF000001FE0000180060003C00FF3
:102660000003C00F0003C00F0003C00F0003C00F22
:102670000003C00F0003C00F0003C00F00030003DE
:102680000000000000000000000000000003000344
:102690000003C00F0003C00F0003C00F0003C00FF2
:1026A0000003C00F0003C00F0003C00F0003C00FE2
:1026B0000001800600001FE000003FF000003FF036
:1026C00000001FE00000000000000000000000808B
:1026D00000000180000003800000078000000780E8
:1026E00000000780000007800000078000000780CE
:1026F00000000780000007800000078000000180C4
:102700000000000000000000000000000000018048
:10271000000007800000078000000780000007809D
:10272000000007800000078000000780000007808D
:10273000000007800000038000000180000000808E
:10274000000000000000000000001FE000003FF05B
:102750000000FFF00001FFE0000000060000000F95
:102760000000000F0000000F0000000F0000000F2D
:102770000000000F0000000F0000000F00001FE32A
:1027800000007FF800007FF800001FE00003000059
:102790000003C0000003C0000003C0000003C0002D
:1027A0000003C0000003C0000003C0000003C0001D
:1027B0000001800000001FF000003FF800003FFC17
:1027C00000001FFE000000000003FF800001FFC0AA
:1027D0000000FFC000007F80000000180000003CE7
:1027E0000000003C0000003C0000003C0000003CF9
:1027F0000000003C0000003C0000003C00007F8C1A
:102800000001FFE00001FFF000007F800000000CED
:102810000000003C0000003C0000003C0000003CC8
:102820000000003C0000003C0000003C0000003CB8
:102830000000001800007F800000FFC00001FFC002
:102840000003FF8000000000000000000002000103
:1028500000030003000380070003C00F0003C00F44
:102860000003C00F0003C00F0003C00F0003C00F20
:102870000003C00F0003C00F0003C00F00031FE3DD
:1028800000007FF800007FFC00001FE00000000354
:102890000000000F0000000F0000000F0000000FFC
:1028A0000000000F0000000F0000000F0000000FEC
:1028B0000000000F000000070000000300000001FE
:1028C000000000000000000000001FFC00003FF8B6
:1028D00000003FF000001FE0000180000003C00086
:1028E0000003C0000003C0000003C0000003C000DC
:1028F0000003C0000003C0000003C00000031FE08D
:1029000000007FF800007FF800001FE000000003D7
:102910000000000F0000000F0000000F0000000F7B
:102920000000000F0000000F0000000F0000000F6B
:102930000000000600003FE000007FF00000FFF014
:102940000001FFE00000000000001FFC00003FF855
:1029500000003FF000001FE0000180000003C00005
:102960000003C0000003C0000003C0000003C0005B
:102970000003C0000003C0000003C00000031FE00C
:1029800000007FF800007FFC00001FE00003000350
:102990000003C00F0003C00F0003C00F0003C00FEF
:1029A0000003C00F0003C00F0003C00F0003C00FDF
:1029B0000001800600001FE000003FF000003FF033
:1029C00000001FE0000000000007FFE00003FFC060
:1029D0000001FF880000FF180000003800000078A8
:1029E0000000007800000078000000780000007807
:1029F0000000007800000078000000780000001857
:102A000000000000000000000000000000000018AE
:102A100000000078000000780000007800000078D6
:102A200000000078000000780000007800000078C6
:102A300000000078000000380000001800000008C6
:102A4000000000000000000000001FE000003FF058
:102A500000003FF000001FE0000180060003C00FEF
:102A60000003C00F0003C00F0003C00F0003C00F1E
:102A70000003C00F0003C00F0003C00F00031FE3DB
:102A800000007FF800007FFC00001FE0000300034F
:102A90000003C00F0003C00F0003C00F0003C00FEE
:102AA0000003C00F0003C00F0003C00F0003C00FDE
:102AB0000001800600001FE000003FF000003FF032
:102AC00000001FE00000000000001FE000003FF0D9
:102AD00000003FF000001FE0000180060003C00F6F
:102AE0000003C00F0003C00F0003C00F0003C00F9E
:102AF0000003C00F0003C00F0003C00F00031FE35B
:102B000000007FF800007FFC00001FE000000003D1
:102B10000000000F0000000F0000000F0000000F79
:102B20000000000F0000000F0000000F0000000F69
:102B30000000000600001FE000003FF000007FF0F2
:102B40000000FFE0000000000000000000000000A6
:102B50000000000000000000000000000000000075
:102B60000000000000000000000000000000000065
:102B70000000000000000000000000000000000055
:102B80000000000000000000000000000000000045
:102B90000000000000000000000078000000780045
:102BA0000000780000007800000078000000780045
:102BB0000000000000000000000000000000000015
:102BC0000000000000000000000000000000000005
:102BD00000000000000000000000000000000000F5
:102BE000000000000000070000000F8000000F80C0
:102BF00000000F800000070000000000000000003F
:102C000000000000000000000000000000000000C4
:102C10000000070000000F8000000F8000000F8000
:102C2000000007000000000000000000000000009D
:102C30000000000000000000000000000000000094
:102C40000000000000000000000000000000000084
:102C5000000000000007C006000FE0060000000CA6
:102C600000301818003018180030183000301830B4
:102C700000301860003008C00007C0C0000FE080BE
:102C8000000000000000000FE0000607C000063052
:102C900018000C3018000C301800183018003030B4
:102CA00018003030180060000000C00FE000C007BE
:102CB000C000000000000000000000000000000054
:102CC0000000000000000000000000000000000004
:102CD000000000000000000000000000000700E00D
:102CE000000887FC00088E03000898018007180080
:102CF0008000300000003000000070000000600024
:102D00000000600000006000000060000000600043
:102D100000007000000030000000300000003800AB
:102D20000000180100000C03000007FC000001F087
:102D30000000000000000000000000000000000093
:102D40000000000000000000000000000000000083
:102D50000000000000000000000000000000000073
:102D60000000000000000000000000000000000063
:102D70000000000000000000000000000000000053
:102D800000003FF000007FF000007FE00000FFC087
:102D90000000000000000000000000000000000033
:102DA0000000000000000000000000000000000023
:102DB0000000000000000000000000000000000013
:102DC000000000000000D6C720003E7C48440844B4
:102DD000FF441444227C40001FF0101010101FF01C
:102DE000101010101FF01010C4DC10402444424892
:102DF000FF70014000427E42423E42007E44424813
:102E000042707E4042424A42443ECEEF10801080E3
:102E1000508050FC7D545254905410941C94F124D2
:102E2000522410441044108411281010C1AA0088A4
:102E3000FC484850480079FC4820482078204BFE48
:102E400048204C507850C888088809040A02BAEC17
:102E50001000100021FC24204420F8201020202005
:102E60004020FC20402000201C20E02043FE0000E9
:102E7000CDE210401040104010403E4022604250D1
:102E80004248A444144408400840104020404040B8
:102E90008040B2E2000427C41444145485544554BD
:102EA0004554155415542554E554210422842244D4
:102EB00024140808CEC210401020202023FE4840D1
:102EC000F888110423FE4092F89040900090191267
:102ED000E112420E0400CFB500F83F0004000820C4
:102EE00010403F800100061018087FFC01040920F3
:102EF0001110210845040200CDB3104010202020FD
:102F000023FE4840F888110423FE4092F890409038
:102F100000901912E112420E0400CDA8000047F8FB
:102F2000201021A0004007FCE444244427FC244452
:102F3000244427FC2444245454088FFEB9FD001077
:102F40002010101017FE00100010F21011101110B8
:102F50001010101010501020280047FE0000C8CBA1
:102F60000100010001000100010001000280028057
:102F7000044004400820082010102008400480026B
:102F8000CAFD082049202A20083EFF442A4449441B
:102F900088A41028FE2822104210642818283444DF
:102FA000C282B1A8100011FC11041104FD14110813
:102FB000110015FC19443144D12811281110112891
:102FC00051442182BEAF2420FF20247E7EC482286B
:102FD0007A104A287AC60500FFFE00003FF800007C
:102FE0003FF820083FF8C8CB0100010001000100B4
:102FF00001000100028002800440044008200820F3
:103000001010200840048002CAFD082049202A2010
:10301000083EFF442A44494488A41028FE28221070
:103020004210642818283444C282C8CB0100010031
:103030000100010001000100028002800440044000
:10304000082008201010200840048002CCE5084029
:1030500008400840104017FC304030E050E09150EC
:103060001150124815F41842104010401040CEC2C2
:10307000000023F81208120883F84208420813F8E7
:10308000100027FCE4A424A424A424A42FFE000000
:10309000B6C8010000803FFE222022203FFC2220F3
:1030A000222023E020002FF02410422041C086304F
:1030B000380EBBB700000000FDFE101010101020ED
:1030C00010207C6810A41122122210201C20E02065
:1030D00040200020BEB32080204023F82110F8A01B
:1030E00027FE200023F8220823F822083BF8E120DD
:1030F000412202220C1EB1ED010001007FFC010003
:1031000001003FF801000100FFFE0500088818508B
:103110002820C9180A060C00C3E60000FFFE0200C2
:10312000020004003FF82448244827C824482448C3
:1031300027C8244824483FF82008BEE000007DFE50
:103140004500450045007DFC110411045D04510457
:1031500051FC51005D00E10001FE0000C0EB0200E7
:103160000100FFFE00001450139014501FF00100E6
:103170007FFC420444444FE4442440144008CDF80A
:1031800000007FFC40044004421452944A544424FA
:1031900044244A544A545294610440044014400860
:1031A000C2E71080108020F821084B10FCA01040CE
:1031B00020A04118FA0645F801081908E10841F86D
:1031C0000108C1AC0040204017FE108000A0012083
:1031D000F3FC10201020102017FE102010202820B3
:1031E00047FE0000BDD31080104013FC1000FD0806
:1031F000109017FE1040184037FED088110810902C
:10320000106051982604D6D0010001000100010091
:103210003FF8210821082108210821083FF821084A
:1032200001000100010001002E000000000000006C
:1032300000000000000060600000000000000000CE
:1032400018180000000018180000CAAA000027F88B
:103250001408140887F84408440817F8112021209E
:10326000E9242528233021202FFE0000B6C80100C4
:1032700000803FFE222022203FFC2220222023E04B
:1032800020002FF02410422041C08630380EC6F8AE
:10329000100010003FFC20004FF080003FF00010B5
:1032A0000010001000100010000A000A00060002C2
:1032B000CFF308001FE020207FF8A10822083FF884
:1032C0000600191062A00CC071A006901888E28652
:1032D0000100D5BE1020082008207E20003E0420DA
:1032E0004420442025FC290429040F04F10441044E
:1032F00001FC0104D3EA0000FFFE0100010001000F
:103300007FFC410441044944452441044944452487
:10331000410441144008C1BF00001FF010101FF00D
:103320001010FFFE00001FF011101FF011101FF011
:1033300001001FF001007FFCB7E700003FF0201004
:1033400020102850245022902290211021102290E9
:103350002292244A484A40068002CBD900402040AD
:1033600017FC104003F80248F24813F810E011501F
:10337000124814441040280047FE0000B4B408046A
:10338000080414041224212440A4BE24222422244C
:1033900022242A242424208420841F940008D0C2BC
:1033A000100008047F78004022401440FF7E084847
:1033B00008487F4808482A484948888828881108CA
:1033C000CAB5020001007FFE4002888404800480A8
:1033D000108008800880FFFE0140022004101808B9
:1033E0006004D1E90020F82008504850488849047A
:1033F0004AFA7C00044404241D24E4A844880410F0
:103400002BFE1000C6BD00007FFC01000100111062
:10341000091009200100FFFE010001000100010068
:10342000010001000100CCA80200020004000820F5
:10343000101020087FFC200400001FF01010101056
:10344000101010101FF01010A1E6600091F4960CFF
:103450006C04080418001800180018001800180060
:1034600008000C04060801F00000250000000044DC
:10347000A4A8A8B0541A2A2A4A4400000000000058
:10348000000000000000000000000000B4BF0000C9
:1034900000000000020100063FC00C3FE0180300DE
:1034A0001002003336603726203E66301C64301828
:1034B000642031FEE03F1FC01C0C00000C0007041C
:1034C000003E07F00001C000000000000000000006
:1034D000000000000000C9AB00000000000001FE79
:1034E0000003E3000703000C03001C3F003BFFC088
:1034F0003F30600C30200C30200C10200C10600F7E
:10350000FFC0083F000800000800600E3FE007FC15
:1035100000000000000000000000000000000000AB
:10352000CCEE00000000000000030000FFE00C07EC
:10353000F00C06000CFF803FF0E01FC0600CFE3076
:103540000CCC3004F83004FF2004C0201FFE603E85
:10355000C06001FFF001FFF000606000400000006B
:1035600000000000000000000000B3E400000000C4
:10357000000000200000300007FFF03FFFE00300E4
:10358000000601800C01800801C01807E00FFE70E2
:1035900007E0000206000604000404000404000C16
:1035A00006700C07E00000000000000000000000B2
:1035B00000000000B2E2000000000000000030390E
:1035C000FC301FCC300706B00F06F01907B03137BA
:1035D000B03136F01F27F00167F001E5F001E1F0AE
:1035E0000041F00CF8B03CD830008C300080300046
:1035F0000000000000000000000000000000CAD42D
:103600000000000000000803600C03700C03300091
:103610003FE0003F800801003C0180047F80047D82
:10362000800C00800C10C00C10C00C18400C1C60EA
:103630000F7E6006703000003000000000000000C7
:103640000000000000000000CEC400000000C00028
:1036500000E00000700001FFE01FFFC01801000043
:103660000300000600000E00001C000E18000730CA
:103670000001E00000F00000FC00018F000303C027
:103680000201E00000000000000000000000000057
:103690000000D7D6000000000000002000003F001E
:1036A00031FFE03FC02038003030FE2033C66010CC
:1036B0000200000C00001800001800000C0007FFBA
:1036C000E03FFFE0000400000C00000C00000000E0
:1036D000000000000000000000000000CFD4000047
:1036E0000000000007FF000F03C00C00401FF8603F
:1036F0001800600800400E01C007FF000000000134
:1037000084000184001987800F8CE0078C2000CC96
:103710000003FFE01FFFC0000000000000000000E9
:10372000000000000000CABE0000000000000E0003
:10373000001FFFC0007FE00000000000000000004C
:10374000000000003FC03FFFE000300000300000FC
:1037500030000613000C13C00C18F01818001818CD
:103760000000000000000000000000000000000059
:10377000CDBC00000000000007FF000F03801CC04C
:10378000C019FC6011C66033062033E63036FF30C6
:10379000301FF030703030FC30339F303600201056
:1037A000E060187C400E01C003FF000038000000FC
:1037B00000000000000000000000C6AC0000000097
:1037C0000000081800180800180800180800180C55
:1037D000201FFFF01FF80018000010000010F80074
:1037E0001FFE001E03001003001003001003001052
:1037F00003001802000000000000000000000000AC
:1038000000000000CFD400000000000007FF000F00
:1038100003C00C00401FF8601800600800400E0153
:10382000C007FF00000000018400018400198780A8
:103830000F8CE0078C2000CC0003FFE01FFFC000CE
:103840000000000000000000000000000000CABEF0
:103850000000000000000E00001FFFC0007FE0001D
:103860000000000000000000000000003FC03FFF1B
:10387000E00030000030000030000613000C13C0E0
:103880000C18F018180018180000000000000000C4
:103890000000000000000000B4A5000000000000CF
:1038A0000601800FC1801E6180304FC020CFE0072D
:1038B0008D303FC9303379303379303FFB3037FFBB
:1038C000203267E03FE3803FE3C03263603267F05D
:1038D000304FB000000000000000000000000000B9
:1038E0000000C3FE0000000000000030C000FFF038
:1038F0000C79C00C1F800C7FE03FE0600CC0300CE6
:10390000FC3004C03007C0301E60603C3FC0041C67
:1039100000047FE000FFE00030C0006060000000B5
:10392000000000000000000000000000CAE40000E9
:10393000000000000C03800C0FC0081C703F7000DA
:103940001F9FC0101FC0100000367C3017E6301FCC
:10395000E3B0067FB00277F007E3F03F7FF0133665
:10396000F0032630032630000000000000000000B5
:10397000000000000000C8EB00000000000006008E
:103980000003800001C00000E0000070000078002B
:1039900000CC0000C6000183000301800700C006C0
:1039A00000E00C007018003018000030000000002B
:1039B0000000000000000000000000000000000007
:1039C00000000000000000000000000000000000F7
:1039D00000000000000000000000000000000000E7
:1039E00000000000000000000000000000000000D7
:1039F00000000000000000000000000000000000C7
:103A00000000000000000000000000002C3A000050
:103A100000000020200000004C1500004C3A00007F
:103A200020000020B80D00005C150000010000001F
:103A3000040000000000000000127A0000000000F6
:0C3A40000000000000000000000000007A
:04000005000000C136
:00000001FF
