:020000040000FA
:1000000008020020D90000006D0200006502000017
:1000100000000000000000000000000000000000E0
:1000200000000000000000000000000007030000C6
:1000300000000000000000006F020000EF00000060
:100040005F0300006B0200000303000039010000A1
:10005000F10000003B0100003D0100003F010000F5
:1000600041010000310100003301000035010000B2
:1000700025010000270100005B0300005D03000074
:1000800061020000630200000000000000000000A8
:100090002B0100002D0100002F010000690200006B
:1000A00000000000050300000000000055030000F0
:1000B000570300005903000029010000F10000006F
:1000C0000448854600F01CF8004800478103000002
:1000D000C046C04608020020064908688546064812
:1000E000804706480047FEE7FEE7FEE7FEE7FEE73B
:1000F000FEE700000000000019030000C10000003E
:10010000064C0125064E05E0E36807CC2B430C3C6A
:1001100098471034B442F7D3FFF7D6FFA00400008D
:10012000C0040000704770477047704770477047C1
:100130007047704770477047704770477047704707
:10014000704700001722D2068218002A0AD0012325
:100150009B02D21A0DD0D21A12D003239B02D21ABC
:100160001DD114E03A4A126B10231A43384B1A631C
:1001700016E0374A126B20231A43354B1A630FE0FF
:10018000334A126B40231A43314B1A6308E0304A5A
:10019000126B01235B021A432D4B1A6300E000BF70
:1001A00000BF4A68002A04D1C2690B681A43C261C1
:1001B0004DE0C2690B689A43C26110234A681A4035
:1001C000102A34D102680B681A4302604A68112A67
:1001D00007D102690B681A430261C2680B689A432F
:1001E000C2604A68122A07D1C2680B681A43C2600B
:1001F00002690B689A430261426A0B689A43426241
:10020000826A0B689A43826281238A681A40812A33
:1002100003D1426A0B681A43426282238A681A40F9
:10022000822A14D1826A0B681A4382620FE0026844
:100230000B689A4302604A68202A04D142680B681E
:100240009A43426003E042680B681A434260704779
:1002500000000140012A01D1C16500E081657047BD
:100260007047704700BFFEE77047704770477047A0
:1002700010B50446062C0FD0082C0DD0092C0BD03D
:10028000052C09D00B2C07D00C2C05D00D2C03D03D
:100290000E2C01D00F2C00D104E0FF210B310CA05B
:1002A00000F06DF8E002134909880843124988619B
:1002B00008464068114908430F49486000BF0E488E
:1002C00080690121C90308408842F8D110BD0000AF
:1002D0002E2E5C2E2E5C4C69627261726965735CB5
:1002E0007372635C637733326C3033315F72636394
:1002F0002E630000000A10000000014001005A5A5D
:10030000704770477047704701480249086070475E
:1003100000127A000000002000B5FFF7F5FF0B493E
:1003200009884805400D0A498969C90AC90201437B
:10033000074A9161054949888805800D1146096A77
:10034000890A89020143116200BD0000000A100001
:100350000000014070477047704770477047704712
:1003600002E008C8121F08C1002AFAD1704770477E
:10037000002001E001C1121F002AFBD17047704725
:100380000EB500200090019002900520FFF770FF4D
:100390004048006B102108433E4908630846006B43
:1003A000402108433B4908630846006B10218843FD
:1003B0001030384908630846006B402188434030BC
:1003C0003449086380200290FF2081300090202073
:1003D000019069460920C006FFF7B4FE01204003E2
:1003E00000902020019069462B48FFF7ABFE0122C8
:1003F000FF2181310920C006FFF72CFF01225103A4
:100400002548FFF727FF44E0002280210920C0068D
:10041000FFF720FF002400E0641C20488442FBD347
:100420000022FF2101318005FFF714FF002400E0C6
:10043000641C1A488442FBD3002201214903164858
:10044000FFF708FF002400E0641C14488442FBD33B
:10045000012280218005FFF7FDFE002400E0641CDE
:100460000E488442FBD3012211028005FFF7F2FE01
:10047000002400E0641C09488442FBD3012251039C
:100480000548FFF7E7FE002400E0641C03488442AF
:10049000FBD3B9E7000001400008004820A1070095
:1004A000C004000000000020040000006003000001
:1004B000C4040000040000200402000070030000D7
:0404C00000127A00AC
:04000005000000C136
:00000001FF
