:020000040000FA
:1000000008020020D90000003B0500003305000075
:1000100000000000000000000000000000000000E0
:10002000000000000000000000000000D7050000F4
:1000300000000000000000003D050000EF0000008F
:100040002F06000039050000D305000081030000E1
:10005000F100000083030000850300008703000017
:1000600089030000790300007B0300007D0300008A
:1000700025010000E10100002B0600002D06000014
:100080002F05000031050000000000000000000006
:1000900073030000750300007703000037050000BC
:1000A00000000000D505000000000000250600004B
:1000B000270600002906000071030000F10000007F
:1000C0000448854600F01CF800480047510600002F
:1000D000C046C04608020020064908688546064812
:1000E000804706480047FEE7FEE7FEE7FEE7FEE73B
:1000F000FEE7000000000000E9050000C10000006C
:10010000064C0125064E05E0E36807CC2B430C3C6A
:1001100098471034B442F7D3FFF7D6FFA406000087
:10012000C40600007047000000B589B01B48406B52
:10013000802108431949486372B60D20002809DB65
:1001400000BF00BFC206D20E01219140144A1160C7
:1001500000BF00BF00BF62B60121684601730020E6
:10016000059048030290002000900190002108A80B
:100170004170002004907D208001069000200790AF
:1001800008A80170684600F05DF80121080700F03A
:1001900049F8012000F00CF809B000BD0000014052
:1001A00000E100E0C143014A51617047002C014069
:1001B0000449C96849084900C207D20F1143014ADE
:1001C000D1607047002C0140014604480069084096
:1001D000002801D0012070470020FCE7002C0140DE
:1001E00010B501200004FFF7EFFF002814D0012014
:1001F0000004FFF7D7FF09480068401C0749086062
:1002000008460068FF21F531884205D300200349E4
:10021000086080200249086210BD00000400002030
:1002200040000048002905D0054AD2680243044B2B
:10023000DA6004E0024AD2688243014BDA60704718
:10024000002C014010B504462068002804D001218C
:10025000C9062068884200D103E0292139A000F0B6
:10026000F6F9012189036068884202D0606800289D
:1002700000D103E02A2133A000F0E9F9012149036C
:10028000A068884204D003210903A068884200D1F5
:1002900003E02B212BA000F0DAF92069002811D00F
:1002A000206910280ED0206920280BD02069302822
:1002B00008D02069402805D02069602802D0206934
:1002C000702800D103E02C211EA000F0C0F9606965
:1002D000002802D06069042800D103E02D2119A074
:1002E00000F0B5F961682068084321690843A168F6
:1002F0000843217B002901D0802100E00021084330
:10030000616908431849C968184A114008431649E9
:10031000C860A06908602121095DE069002902D058
:10032000FF21013100E0002108432021095D00295F
:1003300002D00121490200E0002108430A49486334
:1003400010BD00002E2E5C2E2E5C4C696272617214
:100350006965735C7372635C637733326C3033311D
:100360005F6174696D2E6300002C01400B8FFFF7F5
:1003700070477047704770477047704770477047C5
:100380007047704770477047704700000EB50520F2
:1003900000F0D6F81848406B80210843164948639E
:1003A0000846006B10210843134908630846006B98
:1003B00020210843104908638020029011200190F9
:1003C00001208003009069460C4800F019F8802055
:1003D000029020200190FF20813000906946092082
:1003E000C00600F00DF80122FF2181310920C0066E
:1003F00000F097F80EBD0000000001400004004826
:100400001722D2068218002A0AD001239B02D21A90
:100410000DD0D21A12D003239B02D21A1DD114E0A0
:100420003A4A126B10231A43384B1A6316E0374AC4
:10043000126B20231A43354B1A630FE0334A126BB9
:1004400040231A43314B1A6308E0304A126B0123F0
:100450005B021A432D4B1A6300E000BF00BF4A68DD
:10046000002A04D1C2690B681A43C2614DE0C26917
:100470000B689A43C26110234A681A40102A34D18B
:1004800002680B681A4302604A68112A07D10269A0
:100490000B681A430261C2680B689A43C2604A68DB
:1004A000122A07D1C2680B681A43C26002690B683E
:1004B0009A430261426A0B689A434262826A0B68FD
:1004C0009A43826281238A681A40812A03D1426A50
:1004D0000B681A43426282238A681A40822A14D126
:1004E000826A0B681A4382620FE002680B689A43C3
:1004F00002604A68202A04D142680B689A4342602D
:1005000003E042680B681A434260704700000140F4
:100510000246106D0840002801D0012070470020DD
:10052000FCE7012A01D1C16500E081657047704791
:10053000704700BFFEE77047704770477047000084
:1005400010B50446062C0FD0082C0DD0092C0BD06A
:10055000052C09D00B2C07D00C2C05D00D2C03D06A
:100560000E2C01D00F2C00D104E0FF210B310CA088
:1005700000F06DF8E00213490988084312498861C8
:1005800008464068114908430F49486000BF0E48BB
:1005900080690121C90308408842F8D110BD0000DC
:1005A0002E2E5C2E2E5C4C69627261726965735CE2
:1005B0007372635C637733326C3033315F726363C1
:1005C0002E630000000A10000000014001005A5A8A
:1005D000704770477047704701480249086070478C
:1005E00000127A000000002000B5FFF7F5FF0B496C
:1005F00009884805400D0A498969C90AC9020143A9
:10060000074A9161054949888805800D1146096AA4
:10061000890A89020143116200BD0000000A10002E
:10062000000001407047704770477047704770473F
:1006300002E008C8121F08C1002AFAD170477047AB
:10064000002001E001C1121F002AFBD17047704752
:1006500000250024FFF79AFEFFF766FD1CE001214C
:1006600089030E48FFF754FF012801D1002513E04C
:10067000002D11D1002400E0641C7D200001844283
:10068000FAD3012189030548FFF742FF002803D16F
:100690000125280202490862E1E700000004004841
:1006A00040000048C40600000000002008000000D0
:1006B00030060000CC060000080000200002000008
:0C06C0004006000000127A00000000005C
:04000005000000C136
:00000001FF
