:020000040000FA
:1000000008020020D9000000450300003D03000065
:1000100000000000000000000000000000000000E0
:100020000000000000000000000000004F0300007E
:10003000000000000000000047030000EF00000087
:10004000A7030000430300004B0300003901000038
:10005000F10000003B0100003D0100008D010000A7
:100060008F01000031010000330100003501000064
:100070002501000027010000A3030000A5030000E4
:10008000390300003B0300000000000000000000F6
:100090002B0100002D0100002F0100004103000092
:1000A000000000004D030000000000009D03000060
:1000B0009F030000A103000029010000F1000000DF
:1000C0000448854600F01CF800480047C7030000BC
:1000D000C046C04608020020064908688546064812
:1000E000804706480047FEE7FEE7FEE7FEE7FEE73B
:1000F000FEE700000000000061030000C1000000F6
:10010000064C0125064E05E0E36807CC2B430C3C6A
:1001100098471034B442F7D3FFF7D6FFD00300005E
:10012000F003000070477047704770477047704792
:100130007047704770477047704770471148406B71
:100140008004C00F00280AD00E48806B01214903AB
:1001500088430C49886380200B49086210E00948F5
:10016000406B4004C00F00280AD00648806B012174
:100170008903884303498863FF20013002490862EC
:100180007047000000040048400000487047704776
:100190000EB500200090019002901D48006B1021C8
:1001A00008431B4908630846006B2021084318498F
:1001B000086372B60620002809DB00BF00BFC20634
:1001C000D20E01219140134A116000BF00BF00BF51
:1001D00062B682200290112001900320400300901B
:1001E00069460D4800F01AF8802002902020019006
:1001F000FF208130009069460920C00600F00EF80B
:100200000122FF2181310920C00600F08FF80EBDC8
:100210000000014000E100E0000400481722D2067F
:100220008218002A0AD001239B02D21A0DD0D21ABA
:1002300012D003239B02D21A1DD114E03A4A126B4A
:1002400010231A43384B1A6316E0374A126B2023E7
:100250001A43354B1A630FE0334A126B40231A439B
:10026000314B1A6308E0304A126B01235B021A43D8
:100270002D4B1A6300E000BF00BF4A68002A04D17A
:10028000C2690B681A43C2614DE0C2690B689A43A8
:10029000C26110234A681A40102A34D102680B68E0
:1002A0001A4302604A68112A07D102690B681A438F
:1002B0000261C2680B689A43C2604A68122A07D179
:1002C000C2680B681A43C26002690B689A430261F4
:1002D000426A0B689A434262826A0B689A4382625E
:1002E00081238A681A40812A03D1426A0B681A4323
:1002F000426282238A681A40822A14D1826A0B6879
:100300001A4382620FE002680B689A4302604A68EF
:10031000202A04D142680B689A43426003E0426895
:100320000B681A434260704700000140012A01D166
:10033000C16500E0816570477047704700BFFEE708
:1003400070477047704770477047704770477047F5
:10035000014802490860704700127A00000000203E
:1003600000B5FFF7F5FF0B4909884805400D0A491C
:100370008969C90AC9020143074A91610549498847
:100380008805800D1146096A890A890201431162B4
:1003900000BD0000000A10000000014070477047D7
:1003A000704770477047704702E008C8121F08C1C5
:1003B000002AFAD170477047002001E001C1121FE6
:1003C000002AFBD17047FFF7E3FE00BFFEE7000005
:1003D000F00300000000002004000000A80300005B
:1003E000F40300000400002004020000B803000031
:0403F00000127A007D
:04000005000000C136
:00000001FF
