:020000040000FA
:10000000381A0020D9000000F3000000F5000000BD
:1000100000000000000000000000000000000000E0
:10002000000000000000000000000000F7000000D9
:100030000000000000000000F90000001936000078
:10004000FD000000FD000000FD000000FD000000BC
:10005000FD000000FD000000FD000000FD000000AC
:10006000FD000000FD000000FD000000FD0000009C
:10007000090D0000FD000000FD000000FD00000073
:10008000FD000000FD000000FD000000FD0000007C
:1000900081120000FD000000FD000000FD000000D6
:1000A000FD000000FD000000FD000000FD0000005C
:1000B0009D370000FD000000FD000000FD00000075
:1000C0000448854600F0FCFC004800474949000010
:1000D000C046C046381A002009480A4A002100A13B
:1000E000814200D902440848026008488047084815
:1000F0000047FEE7FEE7FEE7FEE7FEE7FEE700005B
:10010000000000200000000008ED00E04136000083
:10011000C100000030B50B4601460020202201241A
:1001200009E00D46D5409D4205D31D469540491B2B
:100130002546954040191546521E002DF1DC30BD74
:1001400070B500242546002801DA01244042002928
:1001500001DA01254942FFF7DDFFAC4200D0404201
:10016000002C00D0494270BD03460B439B0703D0CF
:1001700009E008C9121F08C0042AFAD203E00B786C
:100180000370401C491C521EF9D27047D2B201E0E4
:100190000270401C491EFBD270470022F6E710B5E2
:1001A00013460A4604461946FFF7F0FF204610BDE5
:1001B000421E5378521C002BFBD10B781370491C44
:1001C000521C002BF9D1704730B505462A460B4624
:1001D00010781C78521C5B1C002801D0A042F7D07C
:1001E000002C03D0002802D06D1CEFE7284630BD5C
:1001F000CAB2401E4178401C8A4202D00029F9D17F
:1002000000207047421C0178401C0029FBD1801A55
:10021000704710B5044600E0401C0378002BFBD16A
:1002200000E0401C521E04D30B78491C0370002BC5
:10023000F7D100210170204610BD03460A780270F4
:10024000401C491C002AF9D118467047F8B50246EF
:100250004A40D40F42004B0052085B089A4202D237
:100260000246084611464A0023D0C30D4A00DDB2BB
:10027000120EAD1A202D35DA49020126490AF6057B
:100280008A19002C00D0524220214F1B1146B94040
:100290002A411018C20D9A4221D0002C17D0012DEE
:1002A00008DCDA05801AD20F8019D207DBB200F021
:1002B00025FBF8BDDA05801A012340001B06C01893
:1002C00080185A428018CA0F1043490007E04908B5
:1002D000C2071143DA05801A80194008801800F01F
:1002E00005FBF8BD61000122511A001BF7E701224E
:1002F000D2075140AAE70122D2075040A6E70246A2
:1003000070B54A40D30FDB0740002DD04A002AD0F9
:10031000010E140E000212020919400A520A841832
:10032000E50104465443000A120A2E045043A4195E
:100330004219200CC543AA18120C0125AD03521C0A
:10034000521912047F39240400D0521C104301D4E6
:100350004000491EC2B20C06C0092018401C4008CB
:10036000802A02D003E0002070BD40084000002930
:1003700000DA0020184370BD70B502464A40D50F20
:1003800040004A00ED0740085208002814D0002A17
:1003900012D0C40DD30D41020120C0055202490AFA
:1003A000520AE41A091812187D34914201D3641CD0
:1003B00000E04900002C01DA002070BD00239142CA
:1003C00001D3891A0343400849000028F7D10029C6
:1003D0000AD0914202D10121C90705E0914201D220
:1003E000012101E00121C943E005C018401900F0D6
:1003F0007DFA70BDF0B507460846584087B0C00F7B
:10040000049048000E46590040084908BC1A88412B
:1004100005D2384631461E4617460B46024658005E
:10042000400810434DD0300D039040055900400D59
:10043000490D0590401A0290402873DA18030121F3
:10044000000B09050843019004980092002806D08B
:100450001146019A49420020904100910190029872
:1004600040210A1A0199009800F00CFA05460C4642
:100470006B4607CB00F027FAC0197141039A0E0DA5
:100480000023D71756401A467A40164344D0049AA0
:10049000002A2DD0029A012A039A15DC1205C01AEF
:1004A000914101263605001C7141D20F059ED207ED
:1004B0000093019202962A46234600F065FA07B09F
:1004C000F0BD38463146FAE71605234A0F46B21802
:1004D000C01AB74101210905001C4F4100187F4196
:1004E000114618187941E20F10436D19644113E069
:1004F000E2076D0815436408C2071443039A0126F6
:100500001205C01A91413605001C7141CE07400802
:1005100030434908C01851412A46234600F027FAC3
:10052000CDE7FFE7049801224000C117121A00230B
:100530008B4104983146C417381AA141EEE730B414
:100540000124E407634030BC54E730B40124E407DD
:10055000614030BC4EE700000000E0FFF0B51FB482
:1005600088B00B990998002448400999C00F4900A8
:1005700049080991C0070B990090490049080B915F
:1005800009990898A64608431CD00B990A98084375
:1005900018D0099801244000420D4800410D0998E7
:1005A00024050003000B204309900B980003000B67
:1005B00020430B9050181C4940180022019014460B
:1005C000104605E0002001460DB0F0BD032801DA19
:1005D000034600E003239C46C11A0AAE0AE05F000E
:1005E00008ADED5B4F00F75B7D430027AA187C4107
:1005F000491C5B1E6145F2DD410004AB5A522104E7
:10060000120C0A43240C401C0828DFDB01980290DE
:100610000099704601910090059B049A07990698ED
:1006200000F0B2F9D0E700000DFCFFFFF0B50C467A
:100630005C4085B0E40FE40703944C000026640896
:1006400059009446490802460296224321D0624648
:100650000A431ED06200570D4A000E032303550DB6
:10066000012402462C492405781B1B0B360B40182D
:1006700023432643614600901C46501AB44103D3DD
:100680000098401C009002E0921800985B410028FE
:1006900003DA0020014605B0F0BD00200121090564
:1006A0000746864611E064461D46141BB54106D335
:1006B0006546521BB341744607430C43A646CD071B
:1006C00040084908284392185B4105460D43EAD18A
:1006D0001046184313D060461946504071400843F5
:1006E00006D06046101AB34106D20122002306E06C
:1006F00000220123DB0702E00122D24353100098BD
:1007000074460105381C6141029C039D0019694132
:1007100000F02DF9BFE70000FD03000010B5002236
:100720009623114600F0EAF810BD00000EB5054909
:100730000291002100910A460B46019100F024F934
:1007400003B000BD33040000410040020122400A12
:10075000D205090E80187F2901DA002070479629FA
:1007600003DC9622511AC84070479639884070477A
:100770004A0009030123090B1B051943094B10B556
:10078000520D9A4201DA002010BD064B34339A42D2
:1007900003DC9A1A00F086F810BD0349511888400E
:1007A00010BD0000FF030000CDFBFFFFC20FD2070A
:1007B000400040080BD0C10D0723DB01C9184002DF
:1007C0000905400A1143C208400711437047002041
:1007D0000146704710B5002904DB0124E4074042BC
:1007E0008C412146002B04DB1C460123DB075242CF
:1007F000A3418B4200D1824210BD000010B50029F8
:1008000004DB0124E40740428C412146002B04DB39
:100810001C460123DB075242A341994200D190427A
:1008200010BD0000F0B51FB40646002082B005469A
:100830004024019100901BE0019922460F4630466A
:1008400000F030F8049A059B801A994110D31046A5
:100850001946224600F016F8361A8F4101972246B3
:1008600001200021009F00F00DF838184D41009044
:100870002046641E0028DFDC019B00982946324692
:1008800007B0F0BD10B5202A04DB0146203A9140A4
:10089000002010BD914020239C1A0346E3401943D9
:1008A000904010BD10B5202A04DB0846203AD04005
:1008B000002110BD0B46D340D0402024A21A914005
:1008C0000843194610BD10B5202A06DBCB17084691
:1008D000203A1041C1170B4306E00B461341D040AC
:1008E0002024A21A91400843194610BD002904DAB9
:1008F000401C490001D140084000704770B40024FA
:10090000050C05D11024000402D1002921D01124A6
:10091000050E01D100020834050F01D10001241D8C
:10092000850F01D18000A41C002801DB4000641C5D
:10093000002908D020252E1B0D46F540A14000D0EF
:1009400001212943084301061B1B000ADB1D02D5B8
:10095000002070BC7047DB05181880180029F8DAF1
:10096000401C4900F5D170BC40084000704710B5EC
:10097000002B08DA0024401C614192185B411A43A5
:1009800001D14008400010BDF0B51FB482B005464B
:100990000C0003D0084603F0FDF802E003F0FAF87B
:1009A00020300246009021462846FFF76BFF049B4B
:1009B000059A04460F4618431143084314D01846BD
:1009C00010431BD0009840210A1A18460599FFF7DA
:1009D00069FF05460E46009A05990498FFF752FFF5
:1009E000084305D0012004E02046394607B0F0BD99
:1009F0000020C11705430E432C43374300990E983E
:100A00006305401A7905E40A00220C43FD0A0A3006
:100A100002D500200146E9E70105101969410C9C47
:100A20000D9D00196941FFF7A2FFDFE770B54B008C
:100A30005B0803430BD04B005C0D00263346654238
:100A4000B341D417AD1AA34102DB0020014670BDAB
:100A500012053018514170BD0EB5C217C10F50407C
:100A6000CA0740180021054B0293019200910A46E3
:100A70000B46FFF789FF03B000BD00003304000000
:100A80004A0009030123090B1B0519430A4B10B542
:100A9000520D9A4202DA0020014610BD064B343353
:100AA0009A4203DC9A1AFFF7FDFE10BD034BD218E1
:100AB000FFF7E8FE10BD0000FF030000CDFBFFFFC5
:100AC000064C0125064E05E0E36807CC2B430C3CA1
:100AD00098471034B442F7D3FFF7F6FAE0A10000CC
:100AE00000A20000FEB500231A461B1A8A4103DB50
:100AF0000020014603B0F0BD4A000D0301212D0B7B
:100B00000905520D0D43D10702D100186D41521E47
:100B10005110FF31FF310131002704463E4638466F
:100B2000009701910246012100200905FFF7BAFE56
:100B3000C3197141F818324684468E464A416146CF
:100B40002846611A904104D36046241A954176469E
:100B50001F46241900986D41401C00903428E1DDA7
:100B6000F91930467041091BA84103D20022D24333
:100B7000134601E00022134601980105381C71411B
:100B8000FFF7F5FEB6E700000D2803D00E2801D0D0
:100B90000F2806D10C4909680122520311430A4A61
:100BA00011600F2806D10849096810221143064A2E
:100BB000116007E00E2805D103490968202211437E
:100BC000014A116070470000002401400348806B17
:100BD000C009C0010149886370470000002401403A
:100BE000034800690121490208430149086170472F
:100BF0000024014000B597B02648406B042108430B
:100C0000244948630846006B1021084321490863C2
:100C10000920C006C06940084000401C0921C906DF
:100C2000C8610846C0691021884310300921C906EF
:100C3000C8610EA800F0A0F900F02EF80A200E906E
:100C4000C020119040011090012080020F90801070
:100C5000169040011290FFF7C3FF24220EA905A8A9
:100C6000FFF782FA00200490042003908003009094
:100C70001321684600F0E0F80121062000F06EF82C
:100C8000032000F019F8FFF7A1FF012000F0F0F8B1
:100C900017B000BD0000014000B506480068012102
:100CA00008430449086000BF802000F021F80028B4
:100CB000FAD000BD0024014010B50446042C14D223
:100CC0000C2002F0A3FF0C20002809DB00BF00BFAE
:100CD000C206D20E01219140044A116000BF00BF3C
:100CE00000BF21460C2002F09DFF10BD00E100E096
:100CF00001460448C06B0840002801D0012070471D
:100D00000020FCE70024014010B510480078401C8A
:100D10000E4908700E4800880E49096A40180C49AF
:100D20000880084640880B49496A401808494880AD
:100D3000064800780A2805D10020044908700120DF
:100D400005490870FFF742FF10BD000010000020A9
:100D50001C000020002401402100002010B50022CA
:100D6000C2B2002905D0064B5B6B1343044C63638E
:100D700004E0034B5B6B9343014C636310BD0000C5
:100D80000024014082680169114342681143C2682E
:100D900011434269114302681143104A1268104B13
:100DA0001A4011430D4A1160C269816911430B4A0F
:100DB0005268C0239A431143084A5160016A0029CE
:100DC0000AD0114609699A00914301235B02026A25
:100DD0001A431143014A1161704700000024014089
:100DE00011C0FFFF10B50446002C00D110BD2046F5
:100DF0001430FFF7C7FF2068002808D0012109043C
:100E0000401A08D0401A0AD0401A10D10BE02046F0
:100E100000F09EF80CE0204600F03CF808E0204688
:100E200000F052F804E0204600F06EF800E000BF49
:100E300000BF00BFDAE7000030B504460D46FF21D1
:100E4000013161632046FFF7CDFF084800680E219D
:100E500088430A300549086008460069000A000214
:100E6000E9B208430149086130BD00000024014097
:100E7000002806D00649896801221143044A91607E
:100E800005E00349896849084900014A91607047B3
:100E90000024014000B50346D968090118680843D9
:100EA000196908430649C968064A114008430449BC
:100EB000C8601869FFF768FED868FFF765FE00BDD7
:100EC0000024014000FFFCFF00B5034699680902B9
:100ED00018680843D9680901084319690843084993
:100EE000C968084A114008430549C8601869FFF7F6
:100EF0004BFED868FFF748FE9868FFF745FE00BD37
:100F00000024014000F0FCFF00B5034659680903C6
:100F100018680843996809020843D9680901084319
:100F2000196908430949C968890C890408430749B4
:100F3000C8601869FFF728FED868FFF725FE986893
:100F4000FFF722FE5868FFF71FFE00BD0024014096
:100F500000B503461969186808430549C968054A78
:100F6000114008430249C8601869FFF70DFE00BD33
:100F700000240140F0FFFCFF00210160416081601E
:100F8000C021C1600021016141618161C1610162D3
:100F900070470000FFB581B000210022002400202E
:100FA0000090002504460246014649E000200090DA
:100FB00003E0491C0098401C00900A98814202D22C
:100FC000585C2028F5D00A98814200D13BE00A986D
:100FD000401A022807D3585C0D2804D1481C185C1D
:100FE0000A2800D12BE0585C0A2800D127E000989D
:100FF000002803D02B20C04305B0F0BD585C3D282D
:1010000006D1601C0446022802D92B20C043F3E716
:10101000585C7F2804DC585C3C4E305C7F2802D151
:101020002B20C043E8E7585C384E305C402804DA97
:10103000002C02D02B20C043DEE7521C00BF491C0D
:101040000A988142B2D300BF002A04D10026039837
:1010500006600020D0E7D608062046435007400F20
:1010600006277843C01DC0083218121B01980028BB
:1010700002D00298904204D2039802602920C04313
:10108000BAE70324002002460090019D36E018785C
:101090000D2805D018780A2802D01878202800D109
:1010A0002AE01878194E305C402801D1012000E078
:1010B0000020241A009880011E78144FBE5DB606E9
:1010C000B60E30430090501C0246042813D1002273
:1010D000002C04D000980002000E28706D1C012C1A
:1010E00004D900980004000E28706D1C022C02D94F
:1010F000009828706D1C00BF491E5B1C0029C6D1DA
:1011000001982E1A03980660002075E79C5700008E
:10111000FFB585B01D460026002004900390029084
:10112000019000240E98002805D100210798016045
:10113000002009B0F0BD03210E98FEF7EBFF074633
:1011400003210E98FEF7E6FF002901D0012000E000
:1011500000203818049048490498884206D9002194
:10116000C943079801602920C043E2E70498800042
:1011700004900498401C0699814202D305980028E7
:1011800006D10498401C079908602920C043D0E785
:1011900003210E98FEF7BEFF410040180490002680
:1011A000059C2BE028786D1C039028786D1C02901C
:1011B00028786D1C0190039880103049085C2070DD
:1011C000641C039801010298001108188006800E23
:1011D0002A49085C2070641C0298810001988011E3
:1011E00008188006800E2549085C2070641C019850
:1011F0008006800E085C2070641CF61C04988642F1
:10120000D0D30E9886422FD228786D1C0390701C84
:101210000E99884202D228786D1C00E000200290CE
:1012200003980006800E1549085C2070641C039822
:1012300001010298001108188006800E0F49085C11
:101240002070641C701C0E99884207D20298000717
:10125000800E0A49085C2070641C02E03D2020706A
:10126000641C3D202070641C0598211A07980160B9
:101270000020207000BF5CE7FFFFFF3F5C570000CD
:1012800010B50121104800F039F800281AD00F4895
:101290000088401C80B20D490880C82805DD012067
:1012A0000B4908700020094908800A480078002886
:1012B00004D009480088401C0749088001210248E1
:1012C00000F00CF810BD000000480140260000208E
:1012D000220000202000002024000020C2698A4350
:1012E000C2617047002904D0026901231A430261D8
:1012F00003E0026952085200026170470246906999
:101300000840002801D0012070470020FCE7002A97
:1013100003D043690B43436102E043698B4343615C
:10132000704700001CB50121080302F013F80021EA
:1013300068464180C18010498180032109020180F3
:1013400069460E4800F01EF8012211460B48FFF7CF
:10135000DEFF01210948FFF7C5FF1420002809DB43
:1013600000BF00BFC206D20E01219140044A1160A5
:1013700000BF00BF00BF1CBD0F2700000048014098
:1013800000E100E010B54A880B881A43CB881A4365
:101390000369034C23401A4302618A88026010BD2E
:1013A00059F8FFFF1FB50C48006B202108430A497C
:1013B00008638020029020200190082000900748B8
:1013C00003906946064800F05BFB002208210448B0
:1013D00000F0DFFB1FBD000000000140FFFF000028
:1013E0000004004810B50024194800680221084391
:1013F000174908600846006902210843144908613A
:1014000004E0601CC4B2012000F006F9022110487B
:1014100000F0B6FB002801D0642CF2DB642C01DB69
:10142000012010BD002404E0601CC4B2012000F0C3
:10143000F3F80221064800F0A3FB002801D1642C38
:10144000F2DB642C01DB0120EBE70020E9E7000080
:10145000000400481FB50E48006B202108430C49CA
:10146000086380200290022000902020019009480B
:1014700003906946084800F003FB01221146064824
:1014800000F087FB00F0A2F8FFF7ACFF04B010BD3E
:1014900000000140FFFF0000000400481CB50F4998
:1014A00003C9019100900E490E4800F062F80D4802
:1014B00002780DA1684602F041FB6A460B21032029
:1014C00002F014F90648027809A1684602F036FBDA
:1014D0006A460B21052002F009F91CBD00A100009D
:1014E0001800002019000020256420A1E60000005B
:1014F000256420252500000010B5002404E0601CB0
:10150000C4B2012000F088F80221114800F038FB35
:10151000002801D0642CF2DB002404E0601CC4B27B
:10152000012000F079F80221094800F029FB002889
:1015300001D1642CF2DB282000F06EF8022104486F
:1015400000F01EFB002801D0012010BD0020FCE7A8
:101550000004004870B50024002506E06006040E73
:10156000FFF7CAFF0443681CC5B2082DF6DB20460E
:1015700070BD7CB505460E4600F028F8FFF732FF37
:1015800000281ED1002405E0FFF7E4FF6946085556
:10159000601CC4B2052CF7DB684601784078091856
:1015A0006846807809186846C07809186846007946
:1015B000814208D16846007830706846807828708B
:1015C00001E001207CBD0020FCE7000010B50B48C5
:1015D0000068022188430949086000220221074867
:1015E00000F0D7FA142000F00BF801220221034882
:1015F00000F0CFFA1E2000F00FF810BD00040048E4
:1016000000B5034603E07D20C00000F005F8184651
:101610005B1E0028F7D100BD8101094A51610021FC
:1016200091610521116100BF054909690122120478
:1016300011400029F8D00421014A116170470000CF
:1016400000E000E010B5012149020348FEF7A5FDC6
:1016500000200249088010BD340000201200002044
:1016600070B50546002400BF00F0DEF9002812D155
:101670000EA11048FEF7A8FD0446002C0BD03A211D
:101680002046FEF7B5FD0446002C02D0641C20461F
:1016900070BD0020FCE70520FFF7B2FF2846691E59
:1016A0008DB20028E0D100BFF2E700004950442C81
:1016B000000000003400002000B585B05348006BE6
:1016C0001021084351490863802003902020029094
:1016D000800201904E48049001A90920C00600F044
:1016E000CFF9FFF7AFFF4BA14D4802F0CFF903E070
:1016F000FF20F530FFF784FF4AA14BA000F046F928
:101700000028F5D14AA0424B4D4A9221009000207A
:1017100000F046FA4BA1424802F0B8F903E0FF207E
:10172000F530FFF76DFF3FA149A000F02FF9002829
:10173000F5D14BA0364B424A92210090002000F098
:101740002FFA4BA1364802F0A1F903E0FF20F53053
:10175000FFF756FF33A14AA000F018F90028F5D191
:101760004BA02B4B364A92210090002000F018FA33
:101770004BA12B4802F08AF903E0FF20F530FFF778
:101780003FFF28A149A000F001F90028F5D151A0A0
:101790001F4B2B4A92210090002000F001FA51A12A
:1017A0001F4802F073F955A11D4802F06FF903E0DC
:1017B000FF20F530FFF724FF1AA154A000F0E6F84F
:1017C0000028F5D15DA0124B1D4A92210090002007
:1017D00000F0E6F95DA1124802F058F903E0FF209D
:1017E000F530FFF70DFF01F0B5FA0028F7D15DA045
:1017F000074B134A92210090002000F0D1F95DA11F
:10180000074802F043F905B000BD000000000140A8
:10181000FFFF00000D0A312E2041540D0A00000088
:10182000003801404F4B000041540D0A00000000F9
:101830002020A1AA202020202020202020200000DD
:1018400010840000322E2043574D4F44450D0A00AE
:1018500041542B43574D4F44453D310D0A00000084
:101860002020A1AAA1AA20202020202020200000A2
:10187000332E2041542B4357444843500D0A000057
:1018800041542B4357444843503D312C310D0A00FD
:101890002020A1AAA1AAA1AA202020202020000067
:1018A000342E2043574A41500D0A000041542B4327
:1018B000574A41503D2257755869616F50726F22E7
:1018C0002C22646957755869616F3636362E220DA1
:1018D0000A0000002020A1AAA1AAA1AAA1AA202052
:1018E00020200000352E204553503832363620490E
:1018F0006E6974204F4B0D0A00000000362E2054F4
:1019000043505F4F6E654E45540D0A0041542B43C2
:10191000495053544152543D22544350222C226D7D
:10192000717474732E6865636C6F7564732E636F66
:101930006D222C313838330D0A0000002020A1AA76
:10194000A1AAA1AAA1AAA1AA20200000372E204363
:101950006F6E6E6563745F746F5F4F6E654E455456
:101960000D0A00002020A1AAA1AAA1AAA1AAA1AAA9
:10197000A1AA0000436F6E6E6563742053756363A4
:1019800065737366756C6C790D0A0000F8B50446D2
:101990000D46C8262046FEF735FC87B23A4621465A
:1019A0000D4802F098F810E000F03EF8002809D148
:1019B00029460A48FEF708FC002803D0FFF742FE3C
:1019C0000020F8BD0A20FFF71BFE3046711ECEB284
:1019D0000028E9D10120F4E7004400403400002051
:1019E00030B589B004460D46FFF72CFE2A4608A103
:1019F00001A802F0A3F80AA101A8FFF7C7FF002879
:101A000004D12A462146074802F065F809B030BDE6
:101A100041542B43495053454E443D25640D0A0023
:101A20003E000000004400400A480088002801D120
:101A3000012070470748008807490988884203D178
:101A4000002004490880F4E7024800880249088021
:101A50000120EEE71200002014000020002804D02E
:101A60000822024310231A4300E000221146024AD2
:101A70000A43024B5A60704700005A5A0020024045
:101A80004A68002A04D1C2690B681A43C26174E033
:101A9000C2690B689A43C26110234A681A40102A2F
:101AA0004ED102680B681A4302604A68112A07D1B6
:101AB00002690B681A430261C2680B689A43C260EC
:101AC0004A68122A07D1C2680B681A43C2600269C9
:101AD0000B689A430261426A0B689A434262826AC7
:101AE0000B689A438262C26A0B689A43C262026BB5
:101AF0000B689A43026381238A681A40812A03D1C2
:101B0000426A0B681A43426282238A681A40822A18
:101B100003D1826A0B681A43826284238A681A405E
:101B2000842A03D1C26A0B681A43C26288238A6876
:101B30001A40882A21D1026B0B681A4302631CE009
:101B400002680B689A4302604A68202A04D14268FE
:101B50000B689A43426003E042680B681A43426094
:101B6000064BCA689A4204D182680B681A438260A5
:101B700003E082680B689A4382607047FFFF0000B1
:101B80000246106D0840002801D001207047002057
:101B9000FCE7012A01D1C16500E0816570470000C2
:101BA000FFB581B00646B0B20090AAE00A9800786E
:101BB00080283ADA0A9807780D2F04D1009E0298FF
:101BC000103002902DE0202F03DD3846203887B2F8
:101BD00000E00027002521E000241BE03801401927
:101BE0004B49085C802121410840002806D0029A18
:101BF00051193019039A00F0EAF809E004990398A2
:101C0000884205D0029A51193019049A00F0DFF881
:101C1000601CC4B2082CE1DB681CC5B2102DDBDBF4
:101C200008360A98401C0A906BE0002763E02220E7
:101C300078433849095C0A980078814259D12220BA
:101C400078433449401841780A984078814250D10D
:101C500000254CE000241EE0222078432D49401846
:101C6000801C6900405C802121410840002806D08A
:101C7000029A51193019039A00F0A9F809E0049961
:101C80000398884205D0029A51193019049A00F03D
:101C90009EF8601CC4B2082CDEDB002423E0222066
:101CA00078431C494018801C6900491C405C802115
:101CB00021410840002808D0029A511932191046D3
:101CC0000830039A00F083F80BE0049903988842E7
:101CD00007D0029A5119321910460830049A00F0C0
:101CE00076F8601CC4B2082CD9DB681CC5B2102D74
:101CF000B0DB781C87B2642F99DB0A98801C0A90AD
:101D000010360A980078002800D04FE705B0F0BDE3
:101D10001C5800000E5E0000FFB585B006990598BE
:101D200000F0B7FA05990798451A06990898461AD7
:101D3000002D02DB0120029003E00020C04302904E
:101D40006D42002E02DB0120019003E00020C04321
:101D5000019076426800049070000390B5421ADD4D
:101D60000398441B002713E00E9A0699059800F08B
:101D70002EF8002C05DB0498241A019906984018C7
:101D800006900398241802990598401805907F1C26
:101D9000AF42E9DD19E00498841B002713E00E9A96
:101DA0000699059800F013F8002C05DB0398241A17
:101DB00002990598401805900498241801990698EE
:101DC000401806907F1CB742E9DD09B0F0BD70B540
:101DD00006460C461546631C721C2146304600F030
:101DE0002FFA284600F074F870BD000008B51F20D7
:101DF00000F0D6F814A01F23174A082100900020F5
:101E0000FFF7CEFE154820238022194600900020BF
:101E1000FFF782FF12A01F230F4A302100900020FD
:101E2000FFF7BEFE11A01F230B4A50210090002097
:101E3000FFF7B6FE10A01F23074A70210090002074
:101E4000FFF7AEFE08BD00002020D6C7C4DCBCD220
:101E5000BED3CFB5CDB32000FFFF0000108400003B
:101E600020B5B1C7B0CEC2B6C8A3BA0020B5B1C7BD
:101E7000B0CAAAB6C8A3BA0020BFD5C6F8D6CAC190
:101E8000BFA3BA001FB51048006B202108430E49BC
:101E900008630846006B102108430B490863802043
:101EA00002902020019001200090F02000906946CF
:101EB0000648FFF7E5FD0120C003009069460920B0
:101EC000C006FFF7DDFD1FBD000001400004004813
:101ED00010B504462020074988611020C8612104FC
:101EE000080E01F06DFBE0B201F06AFB2020014911
:101EF000C86110BD400400481FB51548006B102193
:101F00000843134908630846006B20210843104921
:101F100008638020029020200190602000900D48EE
:101F2000039069460920C006FFF7AAFD0120C00200
:101F3000009069460848FFF7A3FD20200749886103
:101F40004020886140010449403188611FBD000084
:101F500000000140FFFF000000040048400000486E
:101F600070B504460D46012C06D12A4640210920B1
:101F7000C006FFF70EFE0FE0032C06D12A462021F3
:101F80000920C006FFF705FE06E0022C04D12A4610
:101F9000A1020248FFF7FDFD70BD000000040048EB
:101FA00070B50646A9238B220021084600F048F9A7
:101FB0002C2000F089F9002408E0002503E03046D9
:101FC000FFF786FF6D1CAA2DF9D3641C8C2CF4D36B
:101FD00070BD000010B5FFF755FF00F017F9112094
:101FE00000F072F9002400E0641C87488442FBD3AF
:101FF000002400E0641C84488442FBD3B12000F03C
:1020000063F9012000F050F92C2000F04DF92D204B
:1020100000F04AF9B22000F057F9012000F044F92D
:102020002C2000F041F92D2000F03EF9B32000F003
:102030004BF9012000F038F92C2000F035F92D2063
:1020400000F032F9012000F02FF92C2000F02CF9DB
:102050002D2000F029F9B42000F036F9072000F017
:1020600023F9C02000F030F9A22000F01DF9022071
:1020700000F01AF9842000F017F9C12000F024F9CB
:10208000C52000F011F9C22000F01EF90A2000F06E
:102090000BF9002000F008F9C32000F015F98A20A0
:1020A00000F002F92A2000F0FFF8C42000F00CF93B
:1020B0008A2000F0F9F8EE2000F0F6F8C52000F0D4
:1020C00003F90E2000F0F0F8362000F0FDF8C020F3
:1020D00000F0EAF8E02000F0F7F80F2000F0E4F854
:1020E0001A2000F0E1F80F2000F0DEF8182000F0D0
:1020F000DBF82F2000F0D8F8282000F0D5F82020B9
:1021000000F0D2F8222000F0CFF81F2000F0CCF829
:102110001B2000F0C9F8232000F0C6F8372000F09B
:10212000C3F8002000F0C0F8072000F0BDF802203E
:1021300000F0BAF8102000F0B7F8E12000F0C4F881
:102140000F2000F0B1F81B2000F0AEF80F2000F0D7
:10215000ABF8172000F0A8F8332000F0A5F82C20E9
:1021600000F0A2F8292000F09FF82E2000F09CF843
:10217000302000F099F8302000F096F8392000F077
:1021800093F83F2000F090F8002000F08DF8072031
:1021900000F08AF8032000F087F8102000F084F89F
:1021A0002A2000F091F8002000F07EF8002000F0D6
:1021B0007BF8002000F078F87F2000F075F82B20E5
:1021C00000F082F8002000F06FF8002000F06CF8BA
:1021D000002000F069F89F2000F066F8F02000F081
:1021E00073F8012000F060F8F62000F06DF8002090
:1021F00000F05AF83A2000F067F8052000F054F893
:10220000292000F061F810BDE8FD00000121C9039C
:10221000094A9161002000E0401C08498842FBD334
:102220000121C903044AD161002000E0401C034998
:102230008842FBD370470000400000487017000040
:10224000F0B505460C4616461F462A2000F03CF81D
:10225000002000F029F8E8B200F026F8002000F095
:1022600023F8B11CC8B200F01FF82B2000F02CF8A6
:10227000002000F019F8E0B200F016F8002000F09D
:1022800013F8791CC8B200F00FF82C2000F01CF8ED
:10229000F0BD30B504460D462B4622462946204661
:1022A000FFF7CEFF30BD000010B5044620200549E1
:1022B00088611020C861204601F082F92020014980
:1022C000C86110BD4004004810B5044620200549EF
:1022D000886110208861204601F072F920200149B0
:1022E000C86110BD40040048F0B587B000BF324857
:1022F000007800285ED0314908880A21FDF720FFC8
:102300002E4908800888FEF711FA06462C4A2D4B04
:10231000FEF724F900222C4B05910490FEF786F974
:1023200004460D4622462B4600202849FEF707F9B1
:1023300006460F4622462B4625482649FEF70EF94B
:1023400032463B4601910090FEF770F9224A234B3A
:102350000391029002F046FB05910490FEF708FA03
:102360001F4908801F4A204B20462946FEF732FAB3
:1023700008D21EA01F231E4A702100905A20FFF78A
:102380000FFC17E000221B4B20462946FEF722FADD
:1023900008D219A01F23164A702100905A20FFF777
:1023A000FFFB07E015A01F23114A702100905A205F
:1023B000FFF7F6FB07B0F0BD210000201C00002055
:1023C0006666666666660A400060B34000001440B8
:1023D000713D0AD7A370414004734B7001FA084065
:1023E00016000020333333333333D33FD3C50000DB
:1023F000FFFF00000000E03FC1BC0000B2EE0000A3
:1024000010B50446207B012802D1206802F080F933
:10241000002020606060A060207310BD10B50246EF
:10242000002301230EE05006400E0870D209002A56
:1024300005D00878802420430870491C01E0184624
:1024400010BD5B1C042BEEDD0020C043F8E770B527
:1024500004460E4600252068002814D10120207370
:10246000304602F089FA2060206800281CD0002045
:102470006060A66003E00020216848556D1CA068DC
:10248000A842F8D810E00220207303E00020216861
:1024900048556D1CA068A842F8D800206060A0686C
:1024A000B04201D20020206070BD0000FFB583B0B3
:1024B000119C0025002002900F2701900598FDF740
:1024C000A1FE00B200900598002802D1012007B0BB
:1024D000F0BD0098801C381887B20C98002801D0F5
:1024E000022005430E9800280FD0042005430E98C3
:1024F000FDF788FEC0B202900F98FDF783FE0146FB
:102500000298001D0818C01987B20D98002804D041
:10251000012804D0022808D104E000BF07E00C2005
:10252000054304E01420054301E00220CFE700BF8B
:102530001098002801D0242005430398002802D0D9
:102540000498002801D10320C1E7C0200543039867
:10255000FDF758FE06460498FDF754FE3018001D9E
:10256000C01987B239462046FFF771FF206800285E
:1025700001D10420ABE739462068FDF70EFE10219B
:102580006268501C60602068815463682268D118BA
:10259000781FFFF743FF00B201900198002804DA8A
:1025A0002046FFF72DFF052091E761680198081884
:1025B000606000216268501C6060206881540421C2
:1025C0006268501C6060206881544D216268501C14
:1025D00060602068815451216268501C60602068EE
:1025E000815454216268501C606020688154626884
:1025F000501C60602068815404216268501C606037
:10260000206881546168481C606020684554FF213F
:1026100009020698084001126268501C6060206838
:1026200081540698C1B26268501C60602068815471
:10263000FF2109020098084001126268501C606086
:10264000206881540098C1B26268501C60602068A4
:102650008154626821688818009A0599FDF7D9FDB0
:1026600061680098081860600420284000283ED067
:1026700000260F98002801D13FA00F900E98FDF77B
:10268000C1FD86B2FF200002304001126268501C7A
:102690006060206881546268501C606020688654C5
:1026A00062682168881832460E99FDF7B2FD6068AD
:1026B000801960600F98FDF7A5FD86B2FF2000022B
:1026C000304001126268501C60602068815462686A
:1026D000501C606020688654626821688818324601
:1026E0000F99FDF796FD60688019606000BF80203B
:1026F000284000281CD00398FDF784FD86B2FF20F7
:102700000002304001126268501C606020688154F1
:102710006268501C6060206886546268216888186E
:1027200032460399FDF775FD60688019606000BF4F
:102730004020284000281CD00498FDF763FD86B295
:10274000FF200002304001126268501C6060206867
:1027500081546268501C60602068865462682168F9
:10276000881832460499FDF754FD6068801960604E
:1027700000BF0020ABE6000000000000FFB585B000
:102780001746119C0025002600200490039002901B
:102790000598002802D1012009B0F0BD00260AE00A
:1027A0000698805D232803D00698805D2B2801D1F0
:1027B0000220F1E7761C0698805D0028F0D13021D8
:1027C0000298084302900F98002803D00121029834
:1027D0000843029008983018851C0E98002804D0F1
:1027E000012805D002280FD108E0029802900DE0E0
:1027F0000221029808430290AD1C07E004210298D0
:1028000008430290AD1C01E00320C5E700BF002F84
:1028100035D03878022824D10020019000BF0198DB
:10282000411C0191385C7D28F9D10198C01E0190AE
:102830000198C01D049004990898401A0190E81C62
:10284000019A811A2046FFF702FE2068002801D174
:102850000420A1E7EA1C019BD11A2068FDF79DFC2A
:102860001AE0691D2046FFF7F2FD2068002801D11B
:10287000042091E7691D2068FDF78FFC0CE0691DBD
:102880002046FFF7E4FD2068002801D1042083E7FB
:10289000691D2068FDF781FC02996268501C606028
:1028A000206881546268206881182846FFF7B6FDC9
:1028B00003900398002804DA2046FFF7A1FD0520C5
:1028C0006AE76168039808186060FF2000023040E2
:1028D000010A6268501C6060206881546268501C64
:1028E00060602068865462682168881832460699BC
:1028F000FDF78FFC6068801960600E98002810D08A
:10290000FF2109020598084001126268501C6060AE
:10291000206881540598C1B26268501C60602068CC
:102920008154002F19D0387802280BD162682168B1
:1029300088183946049AFDF717FC6168049808184E
:1029400060600AE06268216888183946089AFDF7D5
:102950000BFC616808980818606000201CE7000004
:10296000F0B591B004460D461646169F23460CA2BC
:10297000302105A8009501F0C5F801200021009044
:1029800033460A4603970191029005A90A20FFF7F2
:10299000F5FE002802D0012011B0F0BD0020FBE7B9
:1029A000247379732F25732F25732F64702F706F05
:1029B00073742F6A736F6E00F0B504460D46264699
:1029C000012300201060002116E0775C7F067F0E57
:1029D0005F431068C0191060705C80273840002881
:1029E00001D1481CF0BDDB0101204005834202D328
:1029F0000120C043F6E7491CA942E6DB0020C043A2
:102A0000F0E701464878022801D001207047887815
:102A1000002802D08878012801D1C878F6E7FF2085
:102A2000F4E70000F8B50446FF2720780511012DD2
:102A300001DB0E2D01DD3846F8BD032D26D1002027
:102A400000906A460421601CFFF7B6FF0019461C7F
:102A50000098022804D32078C007C00F002801D0B6
:102A6000FF20E9E73078000271780843801C009964
:102A7000884201D9FF20DFE706A1B01CFDF7A4FBC7
:102A8000002801D00F2700E0032700E02F4638463A
:102A9000D2E700002463726571000000F0B58BB0CE
:102AA0000546002600242846FDF7ACFBC7B2002DE2
:102AB00001D01C2F02DA01200BB0F0BD06E0A85DAA
:102AC00001A988550020A855701CC6B2BE42F6DB8D
:102AD000002001A988550026002455E001A8805D4A
:102AE0002B2810D008DC202814D023282ED025280D
:102AF00025D026283FD130E02F2812D03D2833D0D2
:102B00003F2838D114E0281922A1FDF751FBE01C21
:102B1000C4B236E0281920A1FDF74AFBE01CC4B27C
:102B20002FE028191DA1FDF743FBE01CC4B228E0EB
:102B300028191BA1FDF73CFBE01CC4B221E02819B9
:102B400018A1FDF735FBE01CC4B21AE0281916A144
:102B5000FDF72EFBE01CC4B213E0281913A1FDF70A
:102B600027FBE01CC4B20CE0281911A1FDF720FBE3
:102B7000E01CC4B205E001A8805D2855601CC4B209
:102B800000BF00BF701CC6B2BE42A7DB00202855A4
:102B900000BF91E725324200253230002532460041
:102BA00025334600253235002532330025323600E4
:102BB00025334400F0B5C9B005460C4616461F46FD
:102BC00000204890002D0CD0002C0AD041488642AD
:102BD00007D3002F05D04F98002802D050987828AE
:102BE00002DA012049B0F0BD402118A8FDF7D5FA5E
:102BF0003846FDF707FB05903B4648AA4021009068
:102C000018A8FEF7C7F9482106A8FDF7C6FA51989B
:102C100000280AD030A0334631A248210295019401
:102C2000009006A800F06EFF0BE02BA14E983346F3
:102C300031A20395019400910290482106A800F06A
:102C400061FF402128A8FDF7A8FA06A8FDF7DAFAE7
:102C5000059018A8FDF7D6FA049028A8009006AAB7
:102C600018A8059B049901F0A3FD0020489040217D
:102C700038A8FDF792FA28A8FDF7C4FA059028AB0A
:102C800048AA4021009038A8FEF742FA38A8FFF77A
:102C900005FF519800280CD038A80FA12B461EA282
:102CA000019600940291039050994F9800F02AFFEA
:102CB0000DE038A908A24E982B4602960094039284
:102CC00004910190224A50994F9800F01BFF002078
:102CD00088E700009554415D736861310000000091
:102CE00025640A25730A70726F64756374732F25E7
:102CF000730A25730000000025640A25730A7072A8
:102D00006F64756374732F25732F646576696365CB
:102D1000732F25730A25730076657273696F6E3D94
:102D20002573267265733D70726F647563747325C5
:102D300025324625732665743D2564266D657468C5
:102D40006F643D2573267369676E3D25730000002F
:102D500098A1000030B5B3B000202F903090319092
:102D600032900125A02107AA37A300930192029176
:102D7000039037A3424A43A145A0FFF71BFF07A8D2
:102D800040A331A245A10090504800F07FFE2FA83B
:102D900000210291039104910590084601210B0244
:102DA00029A20091019007A936A0FFF77FFB002818
:102DB00042D1309A91B22F98FEF712FEFA20FEF718
:102DC0004FFC0446002C33D02046FFF72BFE022890
:102DD0002ED12046FFF715FE030000F0F2FE060498
:102DE0000A0F14191E233AA1384800F04FFE00259F
:102DF0001DE03CA1354800F049FE18E040A13348F1
:102E000000F044FE13E047A1304800F03FFE0EE022
:102E10004CA12E4800F03AFE09E053A12B4800F0E7
:102E200035FE04E05BA1294800F030FE00BF00BF82
:102E30002FA8FFF7E5FA03E05DA1244800F026FE85
:102E4000284633B030BD0000746573740000000084
:102E50006262482F6E51576646646B746B576B6A9B
:102E60006B3156646630486E675855706531304A2C
:102E70005863585056356D37522F553D00000000AD
:102E800000CF9D7439657064324339326F79000028
:102E9000323031382D31302D333100004F6E654ED8
:102EA00045545F4465764C696E6B0D0A4E414D4545
:102EB0003A2025732C0950524F49443A2025732C4F
:102EC000094B45593A25730D0A00000000380140AE
:102ED000546970733A09C1ACBDD3B3C9B9A60D0A20
:102EE000000000005741524E3A09C1ACBDD3CAA7F9
:102EF000B0DCA3BAD0ADD2E9B4EDCEF30D0A000038
:102F00005741524E3A09C1ACBDD3CAA7B0DCA3BAEF
:102F1000B7C7B7A8B5C4636C69656E7469640D0AF8
:102F2000000000005741524E3A09C1ACBDD3CAA7B8
:102F3000B0DCA3BAB7FECEF1C6F7CAA7B0DC0D0A63
:102F4000000000005741524E3A09C1ACBDD3CAA798
:102F5000B0DCA3BAD3C3BBA7C3FBBBF2C3DCC2EBD9
:102F6000B4EDCEF30D0A00005741524E3A09C1AC00
:102F7000BDD3CAA7B0DCA3BAB7C7B7A8C1B4BDD385
:102F800028B1C8C8E7746F6B656EB7C7B7A8290DBD
:102F90000A0000004552523A09C1ACBDD3CAA7B0DD
:102FA000DCA3BACEB4D6AAB4EDCEF30D0A0000006D
:102FB0005741524E3A094D5154545F5061636B650D
:102FC00074436F6E6E656374204661696C65640D51
:102FD0000A00000010B58EB0044623A12046FDF77C
:102FE0002CF9342101A8FDF7D8F82448027824A14F
:102FF00001A800F0A3FD01A92046FDF7D9F834216E
:1030000001A8FDF7CAF82548027825A101A800F01B
:1030100095FD01A92046FDF7CBF8342101A8FDF765
:10302000BCF82548028825A101A800F087FD01A968
:103030002046FDF7BDF8342101A8FDF7AEF824487D
:10304000027824A101A800F079FD01A92046FDF72E
:10305000AFF828A12046FDF7ABF82046FDF7D2F8DF
:10306000C0B20EB010BD00007B226964223A31323A
:10307000332C226470223A7B0000000019000020EB
:103080002254656D70657274757265223A5B7B229D
:1030900076223A25647D5D2C000000001800002097
:1030A0002248756D6964697479223A5B7B227622C5
:1030B0003A25647D5D2C0000160000202250504D02
:1030C000223A5B7B2276223A25647D5D2C0000004B
:1030D0001A000020224C696768745F696E74656E1F
:1030E00073697479223A5B7B2276223A25647D5D8E
:1030F0002C0000007D7D000030B5C5B0002041905F
:10310000429043904490002400251CA1234800F0E5
:10311000BDFCFF21013101A8FDF73FF801A8FFF731
:1031200059FF0446002C27D041A8002322461CA1A9
:1031300000901DA0FFF714FC002819D108E001A899
:10314000415D429A501C429041988154681C05B2DE
:10315000A542F4DB429A91B24198FEF741FC15A1D9
:103160000E48429A00F092FC41A8FFF749F903E0AB
:1031700014A10A4800F08AFC45B030BD5469707350
:103180003A094F6E654E65745F53656E64446174B1
:10319000612D4D5154540D0A0000000000380140CB
:1031A000746573740000000039657064324339320D
:1031B0006F79000053656E64202564204279746540
:1031C000730D0A005741524E3A094544505F4E650F
:1031D00077427566666572204661696C65640D0AA2
:1031E000000000001FB50948006B20210843074973
:1031F0000863802002901020019080010090044814
:10320000039069460348FEF73BFC1FBD00000140E8
:10321000FFFF00000004004810B501218902194891
:10322000FEF7AEFC002807D00120174908700121E5
:103230000320FEF795FE11E00020134908701349A2
:103240000880002208210F48FEF7A3FC002101207E
:10325000FEF786FE00210320FEF782FE0B48008861
:10326000FF21F53188420BDB00200849088001224C
:1032700008210448FEF78DFC01210846FEF770FE88
:1032800010BD0000000400482000002024000020A1
:10329000F0B589B000BF25480078002844D0244903
:1032A00048880A21FCF74CFF214948804888FDF7EF
:1032B00035FA0190FDF77AFA064600221D4BFDF71C
:1032C000B5F900221C4B03910290FDF73EF9002254
:1032D0001A4B05910490FDF741F907910690FDF70F
:1032E00047FA1749087012494888FDF71FFA154A2E
:1032F000154B07910690FDF731F906460022134B56
:10330000FDF794F904460D460022114B204629464C
:10331000FDF774FA04D201210220FEF721FE03E03A
:1033200000210220FEF71CFE09B0F0BD21000020A4
:103330001C0000200000B0400000F03F0000594099
:103340001A0000206666666666660A400060B34042
:103350000000F83F002905D0054A526B0243044B98
:103360005A6304E0024A526B8243014B5A6370472E
:103370000000014004490968044A1140044A8918C0
:103380000143014A11607047000001401FFF000027
:1033900000005A5AC1029322520212881143084A6D
:1033A000916111464968074A1143054A516000BFBF
:1033B000034989690122D20311409142F8D1704733
:1033C0000000014001005A5A04490968044A1140AA
:1033D000044A89180143014A116070470000014006
:1033E000E7FF000000005A5AF0B58BB007460D46C3
:1033F0001646002400200A900990254801460EC96F
:10340000C068079306920591089014222049103154
:103410006846FCF7A9FE00BF08E0A00005A908580F
:10342000A84201D90A9403E0601CC4B2042CF4D36E
:1034300000BF284670430990002409E0A0006946B7
:1034400009580998814201D9099403E0601CC4B26B
:10345000052CF3D300BF0998400207210903084354
:10346000310108430A9989000843384309498862B1
:1034700008464068084908430649486000BF0548B7
:10348000806A0121C90308408842F8D10BB0F0BD21
:10349000385700000000014004005A5A70B5044635
:1034A0000C48006880B20C494018C008C000204396
:1034B0000849086000F012F8054600F07BF805485E
:1034C00000684007400FA04201D0012070BD0020DD
:1034D000FCE700000000014000005A5AF8B5002542
:1034E000002700240026002000902D480068470790
:1034F0007F0F2B4880694004040F2948806A8007A9
:10350000800F00902648806AC005C60E3B0000F080
:1035100058FB05040C130E103400A000214A11586A
:103520002148FCF7F7FD05462FE0204D2DE0204D0A
:103530002BE00125ED0328E00098002804D00128A5
:1035400003D003280ED104E000BF18483546454398
:1035500011E0A000134A11581348FCF7DBFD70433B
:10356000054608E0A0000F4A11580F48FCF7D2FDAD
:103570007043054600BF00BF07E0A000094A11588C
:103580000948FCF7C7FD054600BF00BF04480068B6
:103590000006410F2846C84005462846F8BD0000F1
:1035A00000000140F8560000006CDC020024F4002A
:1035B0002080000001490860704700000C000020D6
:1035C0000021082112E080220240002A03D080223C
:1035D000084BDA6102E08022064B9A614022054BDB
:1035E0009A61DA614206100E4A1ED1B20029EADC65
:1035F000704700004004004810B5064800780028D5
:1036000006D0FFF779FDFEF71DF80020014908708C
:1036100010BD00002200002003480068034909781B
:103620004018014908607047000000200800002091
:10363000014802490860704700127A000C0000201F
:1036400010B5FFF7F5FF9321490209884805400DA1
:1036500017498969C90AC9020143154A9161932131
:10366000490249888805800D1146096A890A89023C
:10367000014311620520FFF78DFE0020FFF77AFE5F
:103680000020FFF7A1FE08220A490320FFF7ACFE45
:103690000748006B02210843054908630220FEF732
:1036A000DDF90220FFF7FAFE0348FFF783FF10BDA4
:1036B0000000014000127A000090D00310B5FEF720
:1036C00089FC00F021F8FEF717FCFFF78BFDFDF7F2
:1036D000C1FEFDF767FEFDF725FEE120400200F088
:1036E00065F9FDF7E9FFFDF785FA10BDF8B5044669
:1036F0000D4616462101E8001F23024A0096FEF7F8
:103700004FFAF8BDFFFF0000F8B51A48FEF748FC75
:1037100059236C220A210B20FEF792FD00240BE0B6
:10372000600015490E5C600040184578290231435D
:103730000846FEF7CDFB641C7D2080018442EFDB50
:103740000C480A231422194600901846FEF7E4FAA2
:103750000AA0084B1F22642100901320FEF720FAD4
:1037600009A0044B0C4A802100900020FEF718FAB3
:10377000F8BD0000FFFF000076620000BBB620D35A
:10378000AD20CAB920D3C300202020CDF8C2E7C1A4
:10379000ACBDD3D6D02020001084000010B5042189
:1037A0000E4800F02EF8002817D00D48008801219F
:1037B0004902884202D30020094908800748406A2C
:1037C000C1B2074802880088401C054B1880054894
:1037D00081540421014800F007F810BD0044004066
:1037E0001200002034000020026A8A4302627047FF
:1037F0000246D0690840002801D00120704700200F
:10380000FCE70246D0690840002801D0012070473B
:103810000020FCE710B5002A03D083680B438360C7
:1038200004E08368CC43A4B22340836010BD000051
:10383000F0B589B005460C46002600200890002708
:10384000A088A1890843E1890843218A0843618A45
:1038500008432968514A114008432860E088A18A3A
:1038600008436968C3229200914308436860A088B6
:1038700000282FD121680801FCF750FF0790A068AD
:10388000FCF74CFF06900799FCF776FD0746384693
:10389000FCF75AFF86B23046FCF740FF39460190EC
:1038A000FCF729FD8321C9050290FCF728FD039050
:1038B000FCF77CFF00223A4B05910490FCF79AFD3F
:1038C00007910690FCF754FF80B20890EE600898CC
:1038D000286160E0A0880121490288421BD121684B
:1038E000C800FCF71BFF0290A068FCF717FF0190CF
:1038F0000299FCF741FD0390FCF758FF0022284B8A
:1039000005910490FCF776FD07910690FCF730FFD7
:1039100086B2EE603FE0A0880121890288421BD177
:1039200021688800FCF7FAFE0290A068FCF7F6FE1A
:1039300001900299FCF720FD0390FCF737FF00226D
:10394000174B05910490FCF755FD07910690FCF785
:103950000FFF86B2EE601EE02068FCF7DFFE0290EB
:10396000A068FCF7DBFE8721C9050090FCF7C7FCC7
:1039700001900299FCF700FD0390FCF717FF00226D
:10398000074B05910490FCF735FD07910690FCF775
:10399000EFFE86B2EE6009B0F0BD0000C0F8FFFF98
:1039A0000000E03FCA05D20D8262704710B58AB0B0
:1039B00004463148006B102108432F49086308462C
:1039C000806B802108432C4988630920C0068069E8
:1039D0000F2109028843FF30FF3002300921C90658
:1039E0008861084680690F21090388430121490342
:1039F00040180921C90688612020079004200690FC
:103A00001E48099006A90920C006FEF739F81120C2
:103A100007900820069006A90920C006FEF730F896
:103A20000094002168468180C18015480290684654
:103A30008181C181018281820321418269461148CD
:103A4000FFF7F6FE012204210E48FFF7E3FE0021F6
:103A50001C2000F023F91C20002809DB00BF00BF58
:103A6000C206D20E01219140074A116000BF00BF7B
:103A700000BF0AB010BD000000000140FFFF0000C1
:103A80000090D0030044004000E100E00FB430B5E6
:103A9000CBB0054601AC50A80090FF21293101A808
:103AA000009B4F9A00F05EF8002000900BE0217818
:103AB000641C2846FFF776FF00BF01212846FFF768
:103AC00097FE0028F9D020780028F0D14BB030BC08
:103AD00008BC04B01847F8B507460C461546002642
:103AE0000DE02178641C3846FFF75CFF00BF012120
:103AF0003846FFF77DFE0028F9D0701C86B2AE4232
:103B0000EFDBF8BD0FB47CB50C0009AD01D0611E30
:103B100000E0002101910090074B6A462946089871
:103B200000F048FA002C02D0009A002111707CBCF1
:103B300008BC04B018470000F14600000FB410B5EF
:103B400004A9074B02AA039800F034FA044602A91C
:103B5000002000F0D8FD204610BC08BC04B0184777
:103B6000074700007CB51D4616460C0001D0611EBB
:103B700000E0002101910090054B6A46294630463D
:103B800000F018FA002C02D0009A002111707CBDC0
:103B9000F14600002021020C01D010211046020A3B
:103BA00001D010460839020901D01046091F8208C9
:103BB00001D01046891E420801D0881E7047081A9D
:103BC000704730B47446641E2578641CAB4204D33D
:103BD000635D5B00E31830BC18471D46F8E7000042
:103BE0004900CA020243100000D004204A0D01D04F
:103BF00001221043044A490D914201D10221084398
:103C0000012800D105207047FF070000002805DBD0
:103C1000C206D20E01219140014A11607047000096
:103C200080E200E010B5002819DB1A4A03231B02CA
:103C3000D21883089B00D2588307DC0EFF23A340D1
:103C40009A438B071B0E8407E40EA3401A43114BC3
:103C5000032424021B198408A4001A5118E00E4AF8
:103C600003071B0F083B9B089B00D2588307DC0E01
:103C7000FF23A3409A438B071B0E8407E40EA34047
:103C80001A43054B0407240F083CA408A4001A514A
:103C900010BD000000E100E01CED00E010B50028C0
:103CA00019DB1A4A03231B02D21883089B00D2583F
:103CB0008307DC0EFF23A3409A438B071B0E840768
:103CC000E40EA3401A43114B032424021B19840859
:103CD000A4001A5118E00E4A03071B0F083B9B086B
:103CE0009B00D2588307DC0EFF23A3409A438B0727
:103CF0001B0E8407E40EA3401A43054B0407240F50
:103D0000083CA408A4001A5110BD000000E100E026
:103D10001CED00E0F8B504464F1EC8000838211815
:103D200015461E46086849683A4606239A4310D04D
:103D30002A463346FCF712FC3A46D200083AA3184A
:103D40001A687F1E5B68FCF755FB06223B469343CF
:103D5000EED1022F23D0042F11D0062F2FD12A46C7
:103D60003346FCF7FBFBE36AA26AFCF743FB2A46F7
:103D70003346FCF7F3FB636A226AFCF73BFB2A46F7
:103D80003346FCF7EBFBE369A269FCF733FB2A46F9
:103D90003346FCF7E3FB63692269FCF72BFB2A46F9
:103DA0003346FCF7DBFBE368A268FCF723FB2A46FB
:103DB0003346FCF7D3FB63682268FCF71BFBF8BDB6
:103DC000002210B5134610460149FCF72FFC10BD28
:103DD0000000F03F10B5FCF70DFB10BD002210B540
:103DE000134610461146FCF721FC10BD10B5072103
:103DF000024A00200907FCF719FE10BD010300006C
:103E0000034A10B500201107FCF710FE10BD00009A
:103E100001FDFFFF02E008C8121F08C1002AFAD105
:103E200070477047002001E001C1121F002AFBD13A
:103E30007047000001490860704700003000002012
:103E4000F0B51FB486B00998089A030D002102430B
:103E500014D05148514A181850430514119801289C
:103E600010981AD0281A401C00264D4F4D49009634
:103E700001910490002812DA444211E011980124C3
:103E800049A3012801D11098C1430698119A846072
:103E90000360C26041600BB0F0BD4042E4E70446FD
:103EA000210500203F4A001C51410391029012E07D
:103EB000E00707D032463B4601990098FCF74EFBDD
:103EC0000191009032463B4610461946FCF746FBEE
:103ED00006460F466410002CEAD10498039B002884
:103EE000029A0999089806DAFCF738FB019B009AB8
:103EF000FCF734FB05E0FCF799FB019B009AFCF70B
:103F000095FB04460E460022284BFCF777FC03D8AD
:103F10000020C043014607E00022254B20463146E1
:103F2000FCF768FAFCF7ACFD102409E0002C0ADB72
:103F30000A220023FCF776FC079B30321A55641ED8
:103F400002460A43F2D11122641C079B121B1C1962
:103F5000119B012B03D0012308430ED10AE0084333
:103F600004D0112010900020119077E71098151AB6
:103F70006D1E0BE01098824202DD00236D1C03E0F1
:103F8000824201DA00236D1E002BEED006981199B3
:103F90008260C16030C07EE701FCFFFF104D000071
:103FA000000014400000F03F300000000000F0432B
:103FB0000000E03FFFB597B0064600251BE225282C
:103FC00076D100242746F749049400E00443761C88
:103FD00032780120203A90400842F7D130782A28E0
:103FE0000ED00222307801463039092916D80499BA
:103FF0000A235943303940181443761C0490F1E7E2
:10400000189802C804911890002904DA012040038E
:1040100004434842049002200443761C30782E2842
:1040200014D1042004437078761C2A2809D11898EA
:10403000761C80C8189009E00A214F43303FC71909
:10404000761C3078014630390929F5D930786C284A
:1040500010D006DC4C281AD068280ED06A2817D158
:1040600004E0742813D07A2812D110E00120400512
:1040700004430CE00121090501E0032109050C437B
:104080007178814203D1012000052418761C761C2A
:10409000307866280BD013DC58287DD009DC002846
:1040A0007BD04528F6D04628F4D047281AD1A9E17C
:1040B00018E0632835D0642870D0652812D1A1E1BA
:1040C00070286CD008DC6728F1D069287DD06E2874
:1040D0000DD06F2806D1BCE073282ED0752873D080
:1040E000782859D01A9A199990476D1C82E160027C
:1040F000400F022809D003280DD004281898016821
:104100000DD00D60001D189074E11898EA17016831
:104110000D604A60F6E7189801680D80F2E70D70AF
:10412000F0E718986A4601781172001D1890002077
:10413000507202A80090012005E0189802C818905B
:1041400000200091C04361070ED5002101E00199D4
:10415000491C0191B94213DA8142F8DB019A0099B6
:10416000895C0029F3D10BE0002101E00199491C91
:1041700001918142FADB019A0099895C0029F5D10D
:10418000019904981A9B471A21463846199A00F05B
:1041900099FA4019019903E051E030E115E050E04F
:1041A000451807E0009800990078491C00911A9A78
:1041B000199990470198401E0190401CF2D1214668
:1041C00038461A9B199A12E137E00A200021009024
:1041D00001916002410F022907D0189A01CA189272
:1041E000C2179446032908D00AE01898C01DC108D8
:1041F000C90005C91891944607E000B2C217944659
:10420000042902D140B2C1178C4600226146944570
:1042100006DA0A460021404291418C462D2102E0F7
:10422000210504D52B216A461173012103E0E10722
:1042300001D02021F7E7029156E00A200AE0102081
:1042400008E0102000900021042004430191082779
:1042500003E008200021019100906002410F022933
:1042600007D0189A01CA189200229446032908D050
:1042700008E01898C01DC108C90005C918919446E6
:1042800003E080B2042900D1C0B2002102912107CD
:104290002AD531780D91702906D0009A1021019B02
:1042A0004A401A4305D00EE040216A4611730121AD
:1042B00008E06146014306D030216A4611730D992A
:1042C000517302210291009A0821019B4A401A432E
:1042D0000AD16146014301D1610705D530216A4603
:1042E000117301217F1E02913178582904D02EA12B
:1042F0000E910DA90D910DE030A1F9E76146019BEA
:10430000009AFCF78FFA0E9B8C469B5C0D9A521E0E
:104310000D92137061460143F0D10D9805A9081A5A
:1043200020300190600703D501200004844300E0A1
:1043300001270198874201DD381A00E00020019929
:1043400000904118029809180498401A0490E0035C
:1043500006D421461A9B199A049800F0B3F945191E
:10436000002706E003A81A9AC05D199990476D1CB2
:104370007F1C02988742F5DBE0030CD521461A9B8F
:10438000199A049800F09EF9451904E01A9A302011
:10439000199990476D1C0099481E00900029F5DC82
:1043A0001FE0000009280100303132333435363740
:1043B0003839616263646566000000003031323371
:1043C0003435363738394142434445460000000011
:1043D0000D980D990078491C0D911A9A19999047DA
:1043E0006D1C0199481E01900029F1DC4DE100F09F
:1043F00059F94519761C3078002800D0DFE52846A9
:104400001BB0F0BD600700D406271898C01DC10876
:10441000C90048680A680831C30FDB071891190002
:1044200001D09CA108E0210501D59BA104E0E10792
:1044300001D09AA100E09AA14300109130785B0866
:1044400065280CD006DC452809D046281DD0472811
:1044500041D141E0662818D067283CD13CE00021DA
:10446000112F01DB112000E0781C0191009008A9B8
:1044700011A8FFF7E5FC139905910021119A1592F7
:104480007F1C12980197009150E00120C007039013
:104490000120019008A9009711A8FFF7D1FC139AF9
:1044A000149905920022119B009212981593059A77
:1044B0000192002901D0104602E0791C40180190B9
:1044C000381A01D5019804E04042401E0090781C43
:1044D0000190C01B029043E0012F00DA0127002168
:1044E000112F01DD112000E038460191009008A94C
:1044F00011A8FFF7A5FC13990591119A00211298B4
:1045000015920091019721070CD40599B94201DB5E
:10451000019900E00191012904DD159A491E515CC1
:10452000302906D0B84201DA011D05DA01210291D5
:1045300015E00199491EEDE7002805DC00994118B6
:1045400000910199091A03E0019A411C914200DD92
:1045500001910099401A401C02900120C00703906D
:10456000200706D402990198814202DB0020C04353
:10457000029000206946C87707AF012103980337EE
:10458000C907884224D0022011902B201290039852
:1045900000280CDA404203902D20129007E00A21F7
:1045A0000398FBF7B7FD30317F1E039039701199E6
:1045B000481E11900029F2DC03980028EFD1791EE3
:1045C000129808703078202108404530BF1E38709E
:1045D00006A8C01BC01D039010980078002800D0CA
:1045E0000120019941180298C01709180398091869
:1045F0000498401A401E0490E00306D421461A9BFA
:10460000199A049800F05EF845191098007800286F
:1046100003D01A9A199990476D1CE00324D52146BE
:104620001A9B199A049800F04DF845191CE000985F
:10463000002807DB00990598884203DD1598405C47
:10464000199901E0199930201A9A904700986D1C29
:10465000401C00900298401E0290002804D11A9A33
:104660002E20199990476D1C0199481E0190002930
:10467000DDDC05E038781A9A7F1C199990476D1C8B
:104680000399481E03900029F4DC21461A9B199ACD
:104690000498ACE62D0000002B0000002000000074
:1046A00000000000F8B5044600251E4617468804A1
:1046B00004D405E039462020B0476D1C641EF9D5AE
:1046C0002846F8BDFFB50446002581B01E46C80344
:1046D00001D5302700E02027880404D505E03846BE
:1046E0000399B0476D1C641EF9D5284605B0F0BD8E
:1046F0004A68002A06D00A68531C0B60107048688C
:10470000401E486070470A68531C0B601070704769
:1047100010B5002823D0124B0022001F196803E0B7
:10472000814203D80A4649680029F9D1002A0AD0F3
:104730001368841A9C4204D100681818106010464F
:1047400002E0506000E01860002907D002680B1AF0
:10475000934203D10B68D21802604968416010BDD2
:1047600028000020F0B50446142C06DA0D4615404A
:104770001E468E432846704019E0282C04DA0F4666
:1047800057403846584012E03C2C0ADA0D46154096
:104790000F461F403E466E4017461F403846704049
:1047A00005E0502C03DA0F46574038465840F0BD1C
:1047B000FFB5534CA54407460E46402536215148C7
:1047C000684481615C214161002404E000204E497D
:1047D00069440855641C402CF8DBAE4221D0AE423F
:1047E00013DD484868443146026C384600F010FE3C
:1047F000002407E043486844006C005D4249694476
:104800000855641C142CF5DB14E0AE4212DA0024C7
:1048100004E0385D3C4969440855641CB442F8DB47
:1048200008E0002404E0385D374969440855641CF9
:10483000AC42F8DB00240AE033496944095D3148A1
:10484000684480694140314A6A441155641C402CD7
:10485000F2DB002405E02D486844005D15A90855E9
:10486000641C402CF7DB002408E026486844406ABA
:10487000005D15A9224640328854641C21486844D2
:10488000806A8442F1DB1F486844806A41191D48F0
:104890006844026C15A800F0BBFD00240AE01A4928
:1048A0006944095D1748684440694140184A6A44B0
:1048B0001155641C402CF2DB002405E014486844C8
:1048C000005D69460855641C402CF7DB002408E0B5
:1048D0000C486844006C005D6946224640328854AA
:1048E000641C142CF4DB0748684429461431026C1C
:1048F000684600F08DFD034C2C34A544F0BD00004B
:1049000064EEFFFF8011000054110000141100003C
:10491000D41000000146142901DA07480AE02829CA
:1049200001DA064806E03C2901DA054802E0502990
:1049300000DA0448704700009979825AA1EBD96ED9
:10494000DCBC1B8FD6C162CAFEF7B8FEFDF74EFA7B
:1049500010E0FEF761FCFCF7A1FDFDF7C5FCFEF7DA
:1049600097FCFEF749FE0120FCF782FAFF20F530A4
:10497000FCF746FEEDE70000F0B50B30C108C900BA
:10498000144F0026144A0FE003688B420BD38B426E
:1049900005D95C1A4318456830C3083B00E04368FA
:1049A000136002C004E0021D10680028ECD13046FC
:1049B000002803D13868002801D00020F0BD064A45
:1049C00006481060064A121AD208D20044C00120DC
:1049D0003860D7E72C000020280000203C0200208F
:1049E000380E0020F0B51FB496B084460C4602463F
:1049F000199D189803904900680063004908400811
:104A00000193002A01D0012600E000269E19FE4BEA
:104A1000F6185B109E422BD36E00039F0296002F68
:104A200000D00127F719F84EF84BBE199E421FD34C
:104A3000039E0346F64F334309D03B469C4201D1C7
:104A4000002A04D0019B002A05D0012604E00020A2
:104A500039461BB0F0BD00269E19EE4B9E4207D88A
:104A6000039F029E002F00D00127F6199E4207D90E
:104A70002B4660462146189AFFF7ACF91BB0F0BDF3
:104A80000023002C29DAE44EB04226DAE34EB0428D
:104A900001DB022321E0DE4EB0421EDBE04E070DBB
:104AA000BE19142E09DD3427BF1B039EFE4001965C
:104AB000BE40039FBE420BD00FE0039F002F0CD1DE
:104AC0001427BF1B0646FE400196BE40864204D115
:104AD000019BDE07F60F02239B1B0E46164318D1DF
:104AE000002D16DA002C03D0022B01D0012B06D0AA
:104AF0000220FFF79FF9FFF763F91BB0F0BD02201A
:104B0000FFF798F9FFF75CF90122D20751401BB07B
:104B1000F0BD039E002E61D1BF4EB04220D1C148EE
:104B2000844201D1002A08D0B948814209DB002D16
:104B300010DB189829461BB0F0BD0020B4491BB00B
:104B4000F0BD002D06DA01222946D20718985140FF
:104B50001BB0F0BDB4497944086849681BB0F0BD8A
:104B6000AB4FB84225D1002D1FDA002904D0B14245
:104B700012D1002A09D018E0002A72D1A649E20F0A
:104B80000020D20711431BB0F0BD0020E20F014608
:104B9000D20711431BB0F0BDB14206DA2346002014
:104BA0003946FBF743FD1BB0F0BD104621461BB054
:104BB000F0BDB14212DA0126B607B54203D1234651
:104BC00010461946FEE3994EB54207D1261E05DB75
:104BD0001046314600F06CFD1BB0F0BD67007F0849
:104BE0001646002A40D100290AD08B4A914229D189
:104BF000002C0EDD002D1CDB002011461BB0F0BD8B
:104C0000022B16D0002C14D0012B12D1002C14DB57
:104C10000FE0002C28DA002D09DB012B03D0002047
:104C20007D491BB0F0BD002081491BB0F0BD012BB8
:104C300003D0002001461BB0F0BD00200121C907B0
:104C40001BB0F0BD724A91420ED1002C01DA002B4C
:104C500017D0022B06D00020C043FBF7FDFE1BB08F
:104C6000F0BD90E20120F8E7E217521C94461A4387
:104C700007D000220892664C62465B1E1A4307D09A
:104C800009E00120FFF7D6F8FFF7A8F81BB0F0BD48
:104C90000022644C0892674A90427DDD664B674A69
:104CA00098421FDD914202DC002D05DB4DE05848A3
:104CB000814217DB002D48DD0220FFF7BBF8FFF72C
:104CC00095F805460E460022534B21460898FBF7FF
:104CD00045FC084671004908C00FC007014328463B
:104CE0001BB0F0BD914215DA002D2EDA0220FFF73D
:104CF000A1F8FFF77BF805460E460022464B2146F9
:104D00000898FBF72BFC72005208C80FC00702433B
:104D1000114617E03E4B994223DD002D15DD0220A0
:104D2000FFF788F8FFF762F805460E4600223A4B77
:104D300021460898FBF712FC084671004908C00F8D
:104D4000C007014328461BB0F0BD0220FFF772F8F0
:104D5000FFF756F849004908E20FD20711431BB08C
:104D6000F0BD002230463946FBF7E9FB012205463B
:104D70000E46D243FBF75AFE314A324BFBF7E5FBB6
:104D80002A463346FBF7EAFB0022284BFBF7DDFB04
:104D900007462A46334600E064E003911046194670
:104DA000FBF7DCFB3A46039BFBF7D8FB07460322E5
:104DB00009915207244B28463146FBF7CFFB079158
:104DC0000C90224A204B38460999FBF7C7FB07464F
:104DD00001911F4A1F4B28463146FBF7BFFB3A465D
:104DE000019BFBF7ACFB07460B460246099107996E
:104DF0000C98FBF7FFFA00250E462846079B0C9AF5
:104E0000FBF79DFB3A4627E0FFFF1F00FFFF0F0067
:104E10000000F03F0000E0FF0000F07F0000404392
:104E200001FCFFFF0000F0BF365600000000E03F2D
:104E30000000F0FF0000E0410000F043FFFFEF3F03
:104E4000555555555555D53F4715F73FFE822B65AE
:104E500044DF5DF80BAE543E099BFBF776FB024640
:104E60000B4652E1012500202D05A94207DA352223
:104E700030463946FBF7DAFD06463420C0430A15B2
:104E80001218FE48101803900803FD49000B014357
:104E90000F46FC49884201DC002003E0FA498842C1
:104EA00002DA0120119005E0002011900398401CC7
:104EB0007F1B039011980597C200F4480F92784425
:104EC000801843680268394630460D930292FBF71A
:104ED00036FB07910C9030460D9B029A0599FBF723
:104EE00089FA02460B460020E549FBF79FFB099132
:104EF0000490079B0C9AFBF731FB12900020109056
:104F0000E3480D46784400680E9001217810490767
:104F1000084311990D9B890440180121C9044718C1
:104F20003946029A0E98FBF70AFB3246059BFBF7BF
:104F30000CFB02460B4629461098FBF70FFB064672
:104F400002913B4629460E9A1098FBF707FB079BF8
:104F50000C9AFBF7FAFA3246029BFBF7F0FA099B30
:104F6000049AFBF7FBFA0591129A0A902B46104619
:104F70001946FBF7F3FA06460246C6480F460B46AB
:104F800006217844FEF7C6FE32463B460091049067
:104F900010461946FBF7E2FA009B049AFBF7DEFA8B
:104FA00006460F462B461946129A1098FBF722FA2E
:104FB000059B0A9AFBF7D2FA32463B46FBF71AFAF0
:104FC000109A079104902B4610461946FBF7C6FA33
:104FD000B14E0022334609910290FBF70BFA079B72
:104FE000049AFBF707FA0020074602463346009171
:104FF000FBF7A5FA099B029AFBF7A1FA079B049A13
:10500000FBF7A3FA06460D913A462946009B1098F5
:10501000FBF7A4FA07910C902B463046129A0D9993
:10502000FBF79CFA05460E463A46009B05990A98FE
:10503000FBF794FA33462A46FBF7DCF902460B46A7
:105040000746099107990C98FBF7D4F900250E46FD
:105050002846079B0C9AFBF772FA3A46099BFBF726
:1050600074FA07460722099152078C4B31462846AD
:10507000FBF774FA07910090894A884B38460999E2
:10508000FBF76CFA07460191864A874B3146284662
:10509000FBF764FA3A46019BFBF7ACF9834B7B4480
:1050A0000F9A9B181A685B68FBF7A4F902900991A4
:1050B0000398FBF7D1FC05910490099B029A07998C
:1050C0000098FBF797F97A4B7B440F9A9B181A6864
:1050D0005B6817460393FBF78DF9059B049AFBF772
:1050E00089F90E462846059B049AFBF728FA3A46AA
:1050F000039BFBF724FA079B009AFBF720FA099B16
:10510000029AFBF722FA02460B46199900200C90EE
:105110000F461898FBF722FA029104903B460C9A2E
:1051200019991898FBF70BFA2A463346FBF716FA3B
:10513000029B049AFBF75EF909910E902A463346CA
:1051400039460C98FBF70AFA06460F46099B0E9A59
:10515000FBF750F9574A0D46914220DB5242AA18FC
:10516000024310D132463B46FBF7E9F90490039124
:10517000514A524B09990E98FBF73CF9039B049A4C
:10518000FBF73CFB1ED20220FEF754FEFEF72EFE7C
:1051900049004908E20FD20711431BB0F0BD6A0075
:1051A000474B52089A420DD3464AAA18024300D0F0
:1051B000CBE532463B46FBF7C2F9099B0E9AFBF75B
:1051C0001DFBF5D96800002340082C490393020D0C
:1051D0003D4B5218984223DD01200005521CD0405F
:1051E00042195000400D4018384979440968134667
:1051F0008C463749C1408B4312030121120B09052C
:1052000051181422101AC1400391002D01DA4842AE
:105210000390624630463946FBF791F906460F4641
:1052200032463B4609990E98FBF7E4F800252A46DA
:10523000284B28460591FBF791F907910C90264AD7
:10524000264B28460599FBF789F9009102903246D2
:105250003B4628460599FBF772F9099B0E9AFBF726
:1052600074F91F4A1F4BFBF779F9009B029AFBF771
:10527000C1F807460B460246099135E001FCFFFFE5
:105280000000F03F8E9803007AB60B0046520000F3
:1052900088520000B25100000000084009C7EE3FEC
:1052A000FD033ADCF5015B14E02F3EBE86500000A2
:1052B0004C50000000009040FE822B654715973C43
:1052C00000CC904000346F3F0000E03FA24F000050
:1052D000FFFF0F00432EE63F396CA80C615C20BE37
:1052E000EF39FAFE422EE63F07990C98FBF782F859
:1052F00005460E46079B0C9AFBF721F93A46099B97
:10530000FBF723F909912A4633460E9010461946B9
:10531000FBF724F9074602462F480B460591052165
:105320007844FEF7F7FC3A46059BFBF717F92A4647
:105330003346FBF70AF90746019128463146099B97
:105340000E9AFBF70BF9099B0E9AFBF753F8012312
:1053500004910C9000229B0738460199FBF7EFF867
:1053600005910E903A4628463146019BFBF7F6F828
:10537000059B0E9AFBF75AF9049B0C9AFBF7DFF892
:105380002A463346FBF7DBF80022144BFBF7DDF827
:10539000064603980D46000541190915002912DC3F
:1053A00030462946039AFBF741FBFEF719FC042817
:1053B00001D1FEF725FD30462946039AFBF736FB5F
:1053C000064601E004E029180B46324621460898BB
:1053D000FBF7C4F81BB0F0BD444E00000000F03FE6
:1053E000F8B502462020871A0120B840441EE54344
:1053F0000846204090400646084628402027BF1A0D
:10540000F84000900098304303461846F8BD00006D
:10541000F7B5E0B006461546619808305C905C9898
:10542000401C5C906198C0005B905C98C117890E2D
:10543000091889115E915C98C117890E09188911A4
:105440008901411A5D915D98002802DD5E98401C3B
:105450005E9040215D98091A5C9808185C906198EC
:105460005F9005E000215F9831545F98401C5F9089
:105470005E9881015F988142F4DC8021619831540B
:105480005B98C1B25E988001401E31545B98000465
:10549000010E5E988001801E31545B980002010E5F
:1054A0005E988001C01E31545B98010E5E988001A9
:1054B000001F31547B4856907B4857907948C04331
:1054C00058907948C043599078485A9000205F908E
:1054D000A0E000244CE0102C2CD25F988001A100A9
:1054E0004018305C0006A10001AA50505F9880016E
:1054F000A1004018401C305C0004A1005158401825
:10550000A10050505F988001A1004018801C305CC1
:105510000002A10051584018A10050505F9880012E
:10552000A1004018C01C305CA10051584018A100D7
:1055300050501CE0502C1AD2E01E800001AA1058D6
:105540002246083A920001AB9A58504022460E3A41
:1055500092009A5850402246103A92009A58504071
:1055600001460120FFF73CFFA10001AA5050641C36
:10557000502CB0D3569855905798549058985390B3
:10558000599852905A98519000242AE00520559934
:10559000FFF726FF07462046529B539A5499FFF780
:1055A000E1F8381800905199009840180090204672
:1055B000FFF7B0F9009940180090A00001A9095820
:1055C00000980818009052985190539852901E20BD
:1055D0005499FFF705FF53905598549000985590B3
:1055E000641C502CD2D35699559808185690579948
:1055F00054980818579058995398081858905999E2
:105600005298081859905A99519808185A905F98CA
:10561000401C5F905E995F98884200DA59E756987F
:10562000E87056980004000EA87056980002000E0C
:1056300068705698000E28705798E87157980004C3
:10564000000EA87157980002000E68715798000E5E
:1056500028715898E87258980004000EA87258985B
:105660000002000E68725898000E28725998E8736C
:1056700059980004000EA87359980002000E687330
:105680005998000E28735A98E8745A980004000E2E
:10569000A8745A980002000E68745A98000E287474
:1056A00063B0F0BD0123456789ABCDEFF0E1D2C314
:1056B000F8B506460C46FBF715FA051E0F4600D056
:1056C0000120014349000B484908411AC90F0DD078
:1056D000002E01D0012100E000210C4361004908A7
:1056E000401AC00F02D10120FEF7A4FB284639461C
:1056F000F8BD00000000F07F06000000060000007A
:105700000600000006000000060000000600000081
:10571000010000000300000002000000040000007F
:1057200006000000080000000A0000000C00000055
:105730000E00000010000000808D5B00001BB70011
:10574000002D310101366E0180A8120100366E0174
:1057500000512502006CDC0201A24A04414243448C
:1057600045464748494A4B4C4D4E4F505152535471
:1057700055565758595A6162636465666768696A25
:105780006B6C6D6E6F707172737475767778797AF1
:10579000303132333435363738392B2F7F7F7F7FA6
:1057A0007F7F7F7F7F7F7F7F7F7F7F7F7F7F7F7F09
:1057B0007F7F7F7F7F7F7F7F7F7F7F7F7F7F7F7FF9
:1057C0007F7F7F7F7F7F7F3E7F7F7F3F3435363790
:1057D00038393A3B3C3D7F7F7F407F7F7F0001022D
:1057E000030405060708090A0B0C0D0E0F10111211
:1057F000131415161718197F7F7F7F7F7F1A1B1CC4
:105800001D1E1F202122232425262728292A2B2C50
:105810002D2E2F303132337F7F7F7F7F00000000BD
:105820000000000000000000000000000010101048
:1058300010101010101000001010000000006C6C10
:1058400024240000000001000000000000242424A3
:1058500024FE48484848FC909090900000103C542A
:105860009290503814121292547810000000225C6A
:1058700094A8481010242A52548800000000304890
:105880004850206E54948C888A7400000000303098
:1058900010100000000000000000000000040810CC
:1058A000102020202020201010080400008040201C
:1058B0002010101010101020204080000000000068
:1058C0001054381038541000000000000000001080
:1058D000101010FE1010101000000000000000005A
:1058E0000000000000000000101020000000000078
:1058F000000000FE000000000000000000000000AA
:10590000000000000000000010100000000004046F
:10591000080810102020404080800000000038441B
:10592000828282828282828244380000000010706B
:105930001010101010101010107C000000003844DF
:10594000828204081020408284FC00000000384459
:105950008202043804020282443800000000040C71
:10596000141424244444FE04040E00000000FC80AF
:105970008080B8C4820202828478000000003C4229
:105980008280B8C4828282824438000000007E4255
:1059900082040408080810101010000000003844A9
:1059A00082824438448282824438000000003844B5
:1059B00082828282463A028244380000000000005F
:1059C0001010000000001010000000000000000097
:1059D0001010000000000010102000000000000067
:1059E000061860806018060000000000000000003B
:1059F0000000FE0000FE00000000000000000000AB
:105A0000C0300C020C30C00000000000003844829E
:105A1000820204081010100010100000000038442A
:105A2000829AAAAAAAAAAA9680423C000000101054
:105A30001028282844447C4444EE00000000FC4226
:105A40004242427C4242424242FC000000003C444E
:105A50008280808080808282443800000000F84488
:105A6000424242424242424244F800000000FC44AA
:105A70004240447C4440404244FC00000000FC445E
:105A80004240447C4440404040F000000000344C20
:105A9000828080808E8484844C3400000000EE4438
:105AA0004444447C4444444444EE000000007C10E0
:105AB0001010101010101010107C000000003E0894
:105AC0000808080808080888887000000000EE44EC
:105AD000484850605048484444EE00000000E04010
:105AE000404040404040404244FC00000000C6446A
:105AF0006C6C6C545454444444EE00000000CE449A
:105B000064646454544C4C4C44E400000000384439
:105B10008282828282828282443800000000F844BD
:105B2000424242447840404040E000000000384497
:105B300082828282828282BA443C02000000F04863
:105B4000444444487048444444E6000000003C4457
:105B5000828040300C0202824478000000007C54B5
:105B60009210101010101010103800000000EE44B9
:105B70004444444444444444443800000000EE4457
:105B80004444442828282810101000000000EE4447
:105B90005454545454542828282800000000EE443B
:105BA000442828101028284444EE00000000EE4449
:105BB00044282828101010101038000000007E44DF
:105BC000840808102020408284FC0000001C101073
:105BD000101010101010101010101C000000EE44D7
:105BE0005454FE54545428282828000000701010E3
:105BF0001010101010101010101070000030488499
:105C00000000000000000000000000000000000094
:105C100000000000000000000000FE000040200026
:105C20000000000000000000000000000000000074
:105C300000007884047C84848C7600000000C040DE
:105C40004040586442424242645800000000000054
:105C500000003844808080804438000000000C043C
:105C60000404344C848484844C360000000000001A
:105C70000000788484FC8080847800000000182470
:105C80002020F820202020202070000000000000AC
:105C900000003A444478807C82827C000000C0404E
:105CA000404058644444444444EE00000000101056
:105CB00000003010101010101038000000001010FC
:105CC0000000301010101010109060000000C04054
:105CD00040405C485060504844EE000000003010E6
:105CE00010101011101010101039000000000000EA
:105CF0000000ACD29292929292D600000000000076
:105D0000000058E44444444444EE00000000000015
:105D10000000384482828282443800000000000083
:105D20000000D864424242645840E0000000000095
:105D30000000364C8484844C34040E0000000000C3
:105D400000006C30202020202070000000000000A7
:105D500000007888846018844478000000000020E7
:105D60002020F8202020202024180000000000001F
:105D70000000C64242424242463A00000000000093
:105D80000000EE4444282828101000000000000005
:105D90000000EE444454542828280000000000006D
:105DA0000000EE442810102844EE0000000000001F
:105DB0000000EE444428281010A0C000000000009D
:105DC00000007E448810204284FC0000000C10106B
:105DD000101010601010101010100C000010101097
:105DE00010101010101010101010100000C0202003
:105DF00020202018202020202020C00000000000AB
:105E0000000000728C000000000000000000CDF8CF
:105E100000007FFC40044004421452944A5444243D
:105E200044244A544A5452946104400440144008A3
:105E3000C2E71080108020F821084B10FCA0104011
:105E400020A04118FA0645F801081908E10841F8B0
:105E50000108C1AC0040204017FE108000A00120C6
:105E6000F3FC10201020102017FE102010202820F6
:105E700047FE0000BDD31080104013FC1000FD0849
:105E8000109017FE1040184037FED088110810906F
:105E9000106051982604D6D00100010001000100D5
:105EA0003FF8210821082108210821083FF821088E
:105EB0000100010001000100BBB6FFC00FFFCF874A
:105EC0006FF67F7E3C703C701C703EF83EF877DCCD
:105ED000E38CC70F0E0700000000D3AD67FF767795
:105EE0003E770677F67776777677767777F77F7EE1
:105EF00070707070F800CFFF00000000CAB9186021
:105F00003FFF38607FFF7E67FE67FFFF7067776047
:105F100073E071E073F87E1F000000000000D3C33F
:105F20007FFF71C771C771C77FFF71C771C771C725
:105F30007FFF71C771C7E1C6C1FE0000000000000D
:105F4000D6C730007FFFFCE7DCE7FFE71CFF3FE739
:105F50007380FFFC381C3FFC381C381C3FFC381C8D
:105F60000000C4DC38E038E776FFE7FBFFE301E739
:105F7000FF7FE300E3E7FFFEE3F8FFE3E3E3E3E7AC
:105F8000FF7F0000BCD2038001C0FFFFE0073FFCA1
:105F900007001F00F78E0FF83DF0F3F807FE3CC72F
:105FA000FFC000000000BED300007FFE700E700E28
:105FB0007FFE700E70C07FFF70C070C07FFE7C0ED1
:105FC000FC0EFFFEDC0E0000CFB5003E7FE0078038
:105FD0000E1C3FF87DE007B81E1C7FFE01C71DF8B0
:105FE0003DFC71CEEF8700000000CDB338E030708B
:105FF0007FFFE1C0DF9CFF0E77FE61FFFDF8E1B897
:106000001FBBF3BBC73B1C3F00000000B5B1010044
:10601000210811080910092001007FF80008000874
:1060200000083FF80008000800087FF80008C7B023
:10603000101008100820FFFE00003E0822482248E9
:106040003E48224822483E48220822082A28241096
:10605000CEC2000023F81208120883F84208420852
:1060600013F8100027FCE4A424A424A424A42FFEE5
:106070000000CAAA000027F81408140887F844088A
:10608000440817F811202120E92425282330212055
:106090002FFE0000B6C8010000803FFE2220222013
:1060A0003FFC2220222023E020002FF02410422059
:1060B00041C08630380EBFD5020001007FFE40028D
:1060C00088241010200800001FF0010001000100CA
:1060D000010001007FFC0000C6F8100010003FFC2A
:1060E00020004FF080003FF0001000100010001062
:1060F0000010000A000A00060002D6CA007C3FC059
:10610000204020403FFE2040204027FC240424441F
:106110002444244424B4410846049802C1BF00002A
:106120001FF010101FF01010FFFE00001FF01110E4
:106130001FF011101FF001001FF001007FFCD3C5FC
:10614000089008880888108017FE30A030A050A062
:1061500090A010A01120112211221222121E140050
:10616000C1BC020001003FF0201020103FF02010C1
:1061700020103FF02208211020A0204024202818C1
:106180003006B2EE082004407FFC010001003FF819
:1061900002000200FFFE0400080017F82080408083
:1061A00080801FFCA3BA0000000000000000000077
:1061B0000000000000003C003C00000000003C002B
:1061C0003C0000000000A1AA000000000000000048
:1061D0000000000000007FFC000000000000000044
:1061E0000000000000000000A1E6600091F4960CA1
:1061F0006C04080418001800180018001800180093
:1062000008000C04060801F000002500000000440E
:10621000A4A8A8B0541A2A2A4A440000000000008A
:10622000000000000000000000000000000000006E
:10623000000000000000000000000000000000005E
:10624000000000000000000000000000000000004E
:10625000000000000000000000000000000000003E
:10626000000000000000000000000000000000002E
:10627000000000000000001064005000011BFFFF40
:10628000FFFFFFFFFEFFFFFFFFFFFFFFFFFFFFFF1F
:10629000FFFFFFFFFFFFFFFFDEFFFFFFFFFFFFFF2F
:1062A000FFF7FFF7FFEFFFEFFFE7FFEFFFEFFFF76E
:1062B000FFF7FFF7FFF7FFF7FFEFFFEFFFEFFFEF4E
:1062C000FFF7FFF7FFF7FFF7FFEFFFEFFFEFFFEF3E
:1062D000FFEFFFF7FFF7FFF7FFF7FFF7FFF7FFF716
:1062E000FFEFFFF7FFEFFFEFFFEFFFEFFFEFFFF72E
:1062F000FFF7FFEFFFEFFFEFFFEFFFEFFFF7FFF716
:10630000FFF7FFF7FFEFFFEFFFEFFFF7FFF7FFF7F5
:10631000FFF7FFEFFFEFFFEFFFEFFFF7FFF7FFF7ED
:10632000FFF7FFFFFFFFFFFFFFFFFFFFDFFFFFFFA5
:10633000FFFFFEFFFEFFFFFFFFFFFFFFFFFFFFFF6F
:10634000FFFFFFFFFFFFFFFFFFFFFFFFFFFFFFFF5D
:10635000FFFFFFFFFFFFFFFFFFFFFFFFDFFFDFFF8D
:10636000FFFFFFF7FFEFDFDF9FD73EC71EBF1EB760
:106370001DB7FDB6FDB6FDB6FDB6DDBEDDB6DDB6BC
:10638000FEB6FEB6FEB6DEB6DDB6DDB6DDB6DEB610
:10639000DEB6DEB6DEAEDEAEDDB6DDB6BDB6BDB6B1
:1063A000BEB6BEB6BEB6DEB6BEB6BEAEBDAEBDAE47
:1063B000BDAEBDAEBDAEBEB6BEB6BEAEBEAE9EAE90
:1063C000BEAE9EAE9EAE7EB67EB69EAE9EAE9EAE7D
:1063D0009EAE7EAE7EB67EB69EAE9EAE9EAE9EAEAD
:1063E0007EAE7EB67EB6DEB63FCFBFE7FFF7FFF7E5
:1063F000FFFFFFFFFFFFFFFFDFFFFFFFFEFFFFFFCE
:10640000FFFFFFFFFFFFFFFFFFFFFFFFFFFFFFFF9C
:10641000FFFFFFFFFFFFFFFFFFFFFFFFFFFFFFFF8C
:10642000DFFFFFFFFFFFFFF7FFDF3FB75C8EBB75AE
:106430007A655A5D595D595D795D595D595D385D83
:10644000385D395D195D1955195519551A55FA4CAC
:10645000194DF954F954F954F954F954F954D94CE3
:10646000D94CD94CD94CB94CB94CBA4CB94CB94CA3
:10647000B94CB94C994C994C7A4C7A4C7944794442
:106480007944594459445944594439443944394464
:106490003944394439441A441A441A441A44F943D1
:1064A0001944183C183CF83BF93BD943DA431A44E9
:1064B0003A4C7B5C3C7D9FAEDFDFFFFFFFFFFFFFC1
:1064C000FFFFDFFFFFFFFFFFFFFFBEFFDFFFFFFF5D
:1064D000FFFFFFFFFFFFFFFFFFFFFFFFFFFFFFFFCC
:1064E000FFFFFFFFFFFFFFFFFFFFFFF7FFE71DB706
:1064F000D97D585D59559C559C55BC55BC55DC55AE
:10650000BC55BB55BB559B559B559C557C557C55E7
:106510007C4D7C4D7C4D7C4D5D4D5C4D5C4D3C4DD2
:106520003C4D3C4D3C4D3C4D3C4D3C4D1C451C4573
:106530001C451C451C45FC44FC44FC44DC44DD4437
:10654000DD44BD44BD44DD44BD44BD44BC449D4424
:106550009D449D449D449D449D3C9D3C7D3C7D3C93
:106560007D3C5E445E445D3C5D3C5C3C5C3C5D3C33
:106570003D3C3D443D441D3C1D3CFC3BDA33B73BB8
:10658000375CFCA5DFEFDFF7FFFFFFFFBEF7FFFF84
:10659000FFFFDFFFFFFFFFFFFFFFFFFFFFFFFFFF2B
:1065A000FFFFFFFFFFFFFFFFFFFFFFFFFFFFDFF723
:1065B000FFF7BFD73B8E58559955DB5DDB5DBB556B
:1065C000BB55DC5DBB55BB559B559B559B559C4DA9
:1065D0009C4D7C4D7C4D7C4D7B4D5B4D5B4D5C4DB6
:1065E0005C4D5C4D3C4D3C4D3C4D3C4D3C4D1C4D43
:1065F0001C4D1C4DFC44FC44FB44FB44FB4CFC4C3C
:10660000FC4CDC4CDC44BD44BD44BD44BD449C3C1E
:106610009C449C449C447C447C447C445C447C443A
:106620007C3C7C3C7C3C5C3C5C3C3C3C3C3C3C3CAA
:106630003C3C5C3C3D3C3D3C1D3C1D3CFD3B1D440D
:10664000FD3BFD331D3C1B3CB933D94B7A6C7FCFEE
:10665000FFEFFFF7FFFFFFFFFFFFFFFFDFFFFFFF82
:10666000FFFFFFFFFFFFFFFFFFFFFFFFFFFFFFFF3A
:10667000FFFFFFFFFFFFFFF79FD799753955DC55E7
:10668000DB4DDC55BB55BB55BB559B559B559B55B1
:106690009B559C557C4D9C4D7C4D7C4D7C4D7B4D44
:1066A0005B4D5B4D5B4D3C4D3C4D3C4D3C4D3C4D45
:1066B0001C4D1C4D1C4DFB4CFB4CFB44DC44DB4493
:1066C000DB44FB4CDB4CDB4CDB4CDC4CBC44BC44C7
:1066D000BC449C449C3C9C449C449C449C447C44C2
:1066E0007C447C447C447C447C447C3C5C3C5C3C02
:1066F0005C3C3C3C3C3C3C3C3C3C3D3C3D3C1D3CD7
:106700001D3CFD3BFC3BDC3BFD3BFD33DD331D34E1
:106710001D3CDC3B9933F64BFEB6FFF7FFF7DFF786
:10672000FFFFFFFFFFFFFFFFFFFFFFFFFFFFFFFF79
:10673000FFFFFFFFFFFFFFFFFFFFFFFFFFF7BFD7D9
:10674000586D3A55BD55BC4DDD55BB4DBB55BB5580
:106750009B559B559B559C559C557C4D7C4D7C4D2C
:106760007C4D7C4D5C4D5C4D5C4D3C4D3C551C5511
:106770001C551C4D1C4D1C451C451C4DFB4CFB4C1D
:10678000FC4CFC4CFC4CDC44DC44DB4CDB4CDB4C7C
:10679000DB4CBB44BC449C44BC449C447B447C4494
:1067A0007C447C3C7C3C7C3C7C3C7C3C7C3C5C3C41
:1067B0005C443C3C3C3C3C3C3C3C3C3C1C3C3C3C11
:1067C0003C3C3C3C3C3C1C341C3C1C34FC3BFC3BFB
:1067D000FC3BFD3BDD3BFD33FC33FD33FC33DA3367
:1067E000D743DFBEFFF7FFFFFFFFFFFFFFFFFFFF06
:1067F000FFFFFFFFFFFFFFFFFFFFFFFFFFFFFFFFA9
:10680000FFFFFFFFFFEF3B8E5A5D7C559D4DBC5552
:10681000FD55BB4DBB559B559B559C557C557C4DA3
:106820007C4D7C4D7C4D5C4D5B4D5B4D5B4D3C4DE3
:106830003C4D1C4D1C551C551C551C4D1C4D1C45E0
:106840001C45FC4CFC4CDC4CDC4CDC4CDC4CDB4C90
:10685000BA4C994C984C1A65D95C784C58445944B8
:106860009A449B447C447C447D447D3C7D3C7C3C00
:106870007C3C7C3C7C3C5C3C3C443C443C3C3C3C68
:106880003D3C3D3C3D3C3D3C1C3C1C3C1C3C1C34CC
:106890001C34FD331D34FC33DC33DC33FD3BFD3372
:1068A000FD33FD33DD33DD339A3B5764BFE7DFFF54
:1068B000FFFFFFFFFFFFFFFFFFFFFFFFFFFFFFFFE8
:1068C000FFFFFFFFFFFFFFFFFFFFFFEF1EB7595D59
:1068D0009B559C559C559C559C559C559C557B4D5A
:1068E0007B4D7C4D7C4D7C4D5C4D5C4D5C4D5B4DE2
:1068F0005B4D3B4D1B4D1B553C551C55FC4CFB4CFF
:106900001B4D1C4DFC44FC44FC4CFC4CFD4CFD4C14
:10691000FD4CBC449B4C794C9754BA85DEB6DFDF06
:10692000FFDFFEBE998D9764174C193C7B447C3C7D
:106930007D3C7C3C5C447D445D445C3C5C3C3D4433
:106940003D443C3C3C3C5C3C1C3C1C343D3CFD3BE5
:10695000FD3BFD3BFD3BFD3BFD33FD33FD33FD3397
:10696000FD33DC33DC33DD33DD33BD33BD33BD33E9
:106970009B3B573BBD9DFFFFFFFFFFFFFFFFFFFF5F
:10698000FFFFFFFFFFFFFFFFFFFFFFFFFFFFFFFF17
:10699000FFF7FFE75C8E7A5D9C559C559B559B5598
:1069A0009B559C557C557C4D7C4D7C4D7C4D5C4D68
:1069B0005C4D5C4D5C4D3B4D3B4D3B553B551B553C
:1069C000FB4CFC4C1C4D1C4DFC4CFC441C451C451C
:1069D000FB44DB4CBB4C9A4C9A4C794C1A6D5E9E36
:1069E0007FC7FFE7FFF7FFF7FFF7FFF7FFEF9FD73F
:1069F0009EAE3A75384CF83B39445A445B445C448B
:106A00005D445C3C3C3C5D443D3C3C3C1C3C1B349C
:106A10005D3C5D3CFC33FD3BFD3BFD3BFD3BDD3B1D
:106A2000FD33FD33FD33DD33DD33DC33DC33DD3388
:106A3000BD2BBD339D339D339C3B7A3B5A64DFEFC6
:106A4000DFFFFFFFFFFFFFFFFFFFFFFFFFFFFFFF76
:106A5000FFFFFFFFFFFFFFFFFFF7FFDF79755A5DC5
:106A60009B559B559B559B4D9B4D7C4D7C557B4D24
:106A70007B4D5B4D5C4D5C4D3C4D3C4D3C4D3C5528
:106A80003B553B551B4D1C4D3C4D3D451D45FC4468
:106A9000FC441C451C45FC44FB4CD94C974CD7642A
:106AA000DB8DFFBEDFDFFFF7FFF7FFFFFFFFFFFF1D
:106AB000FFFFFFFFFFFFFFFFFFFFFFF75FDF1BA6EB
:106AC000397D374CF8331A3C5C3C3C3C3C3C1C3434
:106AD0003C341C343D341C341C341C343D341D3CCB
:106AE000FD3BFD3BDD3BDD3BDD33FD33FD33DD3386
:106AF000BC3BBC3BBC33DC2BDC2BBC2B9D339D3324
:106B0000BE3B7C3378433FD7FFFFFFF7FFFFFFFF1C
:106B1000FFFFFFFFFFFFFFFFFFFFFFFFFFFFDFFFA5
:106B2000FFF7FFD7586D5A5D9B559B559B559B4D65
:106B30007C4D5C4D5C555B4D5B4D5B4D5B4D3C4D09
:106B40003C4D3B4D3B4D3C4D1B4D1C4D3C4D3C4D40
:106B50001C45FC3CFC441D4DFC44DB44DA44984499
:106B6000984C7A759DA6DFD7FFEFFFF7FFFFFFFF79
:106B7000DEFFFFFFFFFFFEFFDEFFFFFFFFFFDFFF88
:106B8000DEFFFFFFFFFFFFF7FFE75FC73E96DA5C20
:106B9000D83BD93B3B443C3C5D3C1D34FD331D3C64
:106BA0001D34FC331C341D341D34FD3BFD3BDD3BEB
:106BB000DD33DD33DD33DD33BD33BD33BD33DC33B6
:106BC000BC2BBC339D339D339D339D33993BDEC637
:106BD000FFFFFFF7FFFFFFFFFFFFFFFFFFFFFFFFCD
:106BE000FFFFFFFFFFFFDFFFFFFFFFDF786D7A553D
:106BF0009C4D7C557B557B557B4D5C4D5C4D5C4D78
:106C00005B4D3B4D3B4D3B4D3B4D3B4D3B4D1B4D44
:106C10003C4D1C4DFC44FC441C451C4DFC44FB44B9
:106C2000B944984C19653D9E7FCFFFE7FFF7FFF70A
:106C3000FFF7DEF7FFFFFFFFFEFFFFFFFFFFFEFF97
:106C4000FEFFDFFFFFFFFFFFFFFFFFFFFFFFFFFF75
:106C5000FFFFFFF7FFEFDFE75FC7DE8D5A4C1B3406
:106C6000FC331D3C1D3CDD3BDD3BFD3BFD33FC337C
:106C7000FC33FC33FC33FD33DC33DD33DD33DD3318
:106C8000BD33BE33BD33BC33BC339C339C339D33E7
:106C90009C2BBC33983BDEC6FFF7FFFFFFFFFFFFD7
:106CA000FFFFFFFFFFFFFFFFFFFFFFFFFFFFFFFFF4
:106CB000FFFFDFDF586D5B557C4D7C4D5B555B55B1
:106CC0005B4D5C4D5C4D3C4D3C4D3C4D3B4D3B4D1F
:106CD0003B4D3B4D3C4D1C451C45FC44DB44FB4CB3
:106CE000FB4CDA4C994CF95CDC7DFFAEDFD7FFEF53
:106CF000FFF7FFFFFFFFDFFFFFFFFEFFFFFFFFFFCD
:106D0000FFF7FFF7FFF7DFEFFFF7FFFFFFF7FFF7F3
:106D1000FFFFFFFFFFFFFFFFFFFFFFFFFFF7FFEF9B
:106D20007FCFDF8D3A4CFB3B1C3C1B44BA3B9A3B6C
:106D3000BB43DC43DC3BFD33FD33FD33FC33DC3351
:106D4000DC33DD33DD33BD2BBD2BBD2BBD33BC337D
:106D50009C339C3B9C339C33BC339B2B5633FFC6EC
:106D6000FFFFFFFFFFFFFFFFFFFFFFFFFFFFFFFF33
:106D7000FFFFFFFFFFFFFFFFFFFFDFDF396D5B5509
:106D80007C4D5C555B555B555B4D3C4D5D4D3C4DC5
:106D90003C4D3B4D1B4D3B4D3B4D3C453C451D4506
:106DA000FC44FC4CFB4C994C77545A759DA69FD7DC
:106DB000FFEFFFF7FFFFDFFFFFFFFFFFFFFFDEFF3C
:106DC000FFFFFFFFFFF7FFF7FFEF9FD77EAE5B856B
:106DD000FD951FBFFFE7FFF7FFF7FFFFFFFFFFFF77
:106DE000FFF7DFE7BFB61C75F943BA33DB331C444A
:106DF000993BB7439964FA74385C783B9B3BBD334D
:106E0000DE33DD33DD33DC33DC33BD33BD339D3383
:106E1000BD33BD2BBD2B9D339D337D337D337C3303
:106E2000BD335B2B573BBFC6FFFFFFFFFFFFFFFFDD
:106E3000FFFFFFFFFFFFFFFFFFFFFFFFFFFFFEFF63
:106E4000FFFFDFDF396D3B555C4D5C4D5B4D5B4DAE
:106E50003C4D3C4D3C4D1C4D1C4D1C4D1B4D1B4D8C
:106E60001B4D1C4D1C4DFB4CBA4C9954F964FC8DC8
:106E70001FBFFFDFFFEFFFFFFFFFDFFFFFFFFFFF92
:106E8000FEFFDEFFFFFFFFFFFFF7FFF7FFEF3FC74C
:106E9000BC8D9864B643D83BB733174CD96CBB95BF
:106EA000FFC6FFEFFFEF9FDF1CA67864B73B983368
:106EB000FB3B1B3CB933B843DA6C7EAEBFDFFFEF60
:106EC0009FDF1FA65B64593B7B33BB33DC33DC3372
:106ED000BD3BBD339D339D33BD33BD2BBD2B9D2BA2
:106EE0009D337D337D337D2B5C2B7C33583BBFC67C
:106EF000FFFFFFFFFFFFFFFFFFFFFFFFFFFFFFFFA2
:106F0000FFFFFFFFFFFFFFFFFFF7FFDF386D1B55A0
:106F10005D4D3C4D3C4D3C4D3C4D3C4D3C4D1C4D28
:106F20001C4DFB4C1C553C55FB4CFA44B844B85C1A
:106F300079859DB6BFE7FFF7FFF7FFF7FFF7FFFF84
:106F4000FFFFFFFFFFFFFFFFFEFFFFFFFFFFFFF75A
:106F5000DFDF9FA61B6D39441A3C3B445B445C4415
:106F60003B3C5B44193C983BD94B9A641B6D184CD5
:106F7000B73BB93BFA43FA43B83B174C5A7DFFBEC7
:106F8000FFEFFFF7DFF7DFF7FFFFFFFFBFEFBFBE4A
:106F90001A7DB743582B7B339D33BD339D339D2BD7
:106FA000BE339D2B9D2B9D339D335D337D337D33D0
:106FB0007D2B5C33373BDFC6FFF7FFFFFFFFFFFF93
:106FC000FFFFFFFFFFFFFFFFFFFFFFFFFFFFFFFFD1
:106FD000FFF7FFD7386D1B553D4D3C4D3C4D3C4DAB
:106FE0001C4D3C4D3C4D1C451C4DFB54D954B84CDC
:106FF000984C5A6D7D967FCFFFEFFFFFFFFFFFFF9D
:10700000FFFFFFFFDEFFDEFFFFFFFFFFFFF7FFF7E2
:10701000FFF7FFEF3FCF9A8D985CD83B3A3C7D4419
:107020005D3C5D3C5D3C5D441C3C1B343C3C1D4474
:10703000DC3BDA33D9333C3CFC3B1D44DB3B7C4C32
:107040005F96BFCFFFE7FFF7FFF7DFFFDEFFDFFF52
:10705000DFFFDFFFDFFFFFFFFFEF5FC7DE8D1A54AB
:10706000383B79337A339C339C2B9D2B9D2B9D335E
:107070005C337D337D335D2B5D2B5C2B3733DFBE83
:10708000FFF7FFFFFFFFFFFFFFFFFFFFFFFFFFFF18
:10709000FFFFFFFFFFFFFFFFFFF7FFD7186D1B5537
:1070A0003D4D3C4D3C4D1C4D1C4D3C4D3C4D3C4DD7
:1070B000DA44974CD764B985FDBEDFDFFFF7FFFFE9
:1070C000FFFFFFFFFEFFFEFFFEFFFEFFDEFFFEFFF6
:1070D000FFFFFFF7FFEFBFD75E9EDA64F843F93B8F
:1070E0003A3C5B3C7C447B3C5C3C5C3C3C3CFC3B3D
:1070F0003D443C3C1C341C3C1C3C1B3C3B3CFC339A
:107100001D3C1D44DB3B7C54FF8D3FC7FFEFFFF769
:10711000FFFFFFFFDEFFFEFFFFFFDEFFFFFFFFFFC2
:10712000DFF7FFF7FFEF9FE73EB698745643383B13
:107130003A337D337D335D335D2B7E333C2B7D2BAA
:107140007D2B5B2B3733DEBEFFF7FFFFFFFFFFFF1B
:10715000FFFFFFFFFFFFFFFFFFFFFFFFFFFFFFFF3F
:10716000FFF7DFD71865FB541D4D1C4D1C4D1C4D02
:107170001C4D3C4DFB4CD94C3A653B8E9FCFFFEFED
:10718000FFF7FFF7DFFFBEFFDEFFDEFFFFFFFFFFC2
:10719000FFF7FFFFFFFFFFFFFFF7FFC67A8557549A
:1071A000F83B1A3C5C3C5D3C7D3C7C3C5B3C7B3C66
:1071B0003B3C1C3C1D3CFC3B1C3C1C3C1B3CFA3B34
:1071C000FA3BF933FA3B1C3CFD3BDC33DC3BFB3B3D
:1071D0007833753B786C1DAE7FDFFFF7FFF7FFF765
:1071E000FFF7FFFFDEFFDEFFFFFFFFFFDFF7FFFF21
:1071F000FFF7FFF73FD79E95FA533A337C335D3361
:107200003D2B3D2B5D335D2B5C2B5C2B3733DFBE81
:10721000FFF7FFFFFFFFFFFFFFFFFFFFFFFFFFFF86
:10722000FFFFFFFFFFFFFFFFFFF7DFD7F864FB540F
:10723000FD4C1C4D1C4D1C4D1C4D1C4DB94CBB7DBB
:10724000DFD7FFEFFFF7FFFFDEF7FFFFFFFFFFFFD7
:10725000FFFFDFFFFFFFFFFFFFF7FFE79FD71E9E48
:10726000FB6C394C19443A445B447C443C3C5C3CE8
:107270005C3C5C3C3C343C3C3C3C1C3C1C3C5D3C35
:107280003C34FA33D833F84B7A5C39547833BB3317
:10729000DC33FC3BFC3BDC3BDB3BDA3B99335733D9
:1072A000D84BFB74BFB6DFE7FFF7FFFFFFFFBEFF62
:1072B000DEFFFFFFDFFFFFFFFFFFFFFFFFF7FFEF37
:1072C000FFE7FC74182B7D333D2B7D333D2B5D2B6D
:1072D0005D2B3C2B3833BFBEFFF7FFFFFFFFFFFFE7
:1072E000FFFFFFFFFFFFFFFFFFFFFFFFFFFFFFFFAE
:1072F000FFF7DFD7F864DB4CFC44FC441C45FC443E
:10730000FC4CFC4478443CA6FFF7FFFFFEFFFEFF69
:10731000FFFFFFFFFFFFFFF7FFF7FFF7FFEFBFDF05
:10732000BFB67A85375439441A3C5B3C7D447D4472
:107330005D443C3C3C3C5D441B345C3C5D3C1C344B
:10734000FC331C441C44D933B8335854DD8D3FC73B
:10735000FFDF3FC7DE955A5C983B983BDA43BB3B67
:10736000BC33DC33BB2BDC339B337933573B175CAB
:107370009B95DECEFFF7FFFFFFFFDFFFFFFFDEFF86
:10738000FEFFFEFFFFFFFFFFFFF77FA6172B3B2B44
:107390005D2B3D2B5D2B5D2B5D2B3C2B3833BFBE16
:1073A000FFF7FFFFFFFFFFFFFFFFFFFFFFFFFFFFF5
:1073B000FFFFFFFFFFFFFFFFFFF7DFD7D864DB4CC6
:1073C000DC44FC44FC44DC44FC4CDC4458445CAEEF
:1073D000FFF7DFFFFFFFFFFFFEFFFFFFFFFFFFF7EE
:1073E000FFEF7FC73D96DA6418441A443B447B4460
:1073F0009C3C7D3C5C3C5C3C5D441C3C5C445C3C9B
:107400003C3C3C341C343C3C3C44FA43B743B974E8
:107410001CAEBFDFFFF7FFF7FFF7FFF7FFF7DFEF68
:10742000BEC63A85D753583B7A33BB33BC33BC33E3
:10743000BC33BC3B7B337933382B583B7B6CDEA5AC
:10744000DFF7FFFFDEFFFFFFFFFFFFFFDFFFFFFFB5
:10745000FFF7BFB6F6325B335D2B3D2B3D2B3D2B4B
:107460003D2B3D2B3833BFBEFFF7FFFFFFFFFFFF74
:10747000FFFFFFFFFFFFFFFFFFFFFFFFFFFFFFFF1C
:10748000FFF7DFD7D864BB4CDC44DC44FC44DB446E
:10749000DB44DC4438441BA6FFF7FFFFDFFFDFFFC0
:1074A000FFFFDEFFFFFFFFEF3B9E5654F73B5A44C2
:1074B0005C3C5D447D447C3C5B349D3C7D443D3C78
:1074C0005D443C441C3C3C3C3D3C3D343D3C3C3CF0
:1074D000DA3BDD5C1FB7FFE7FFF7FFFFFEF7FEFFBC
:1074E000FEFFFEFFDEFFFEFFFFFFFFF75FDF3FA6B1
:1074F0009B6C7843583359337A337B337C33BD2BC1
:10750000BD2B7C2B192BF732B65B5FDFFFFFFFF73C
:10751000FFFFDFFFFFFFDEFFFFFF7FAE17335B2BB9
:107520001C233D2B1D2B3D2B3D2B3C2B3833DFBE2D
:10753000FFF7FFFFFFFFFFFFFFFFFFFFFFFFFFFF63
:10754000FFFFFFFFFFFFFFFFFFF7DFD7D864BB4C54
:10755000DC44DC44DC44BB44DC44BC4438443C9E56
:10756000FFF7FFFFFFFFDFFFDFFFFFFFFFFF7FCF23
:10757000565459445B447C445D3C3D3C5C3C5B342C
:107580005B345C3C3D3C3D3C1D3C3D3C3D341C344F
:107590003C341D3C1C3C1C3CFC3B5D4C7F757FA679
:1075A000DFDFFFEFFFF7FFFFFEFFDEF7FEFFFEFF6F
:1075B000FEFFFFFFDFFFFFFFDFF71FCF9B95D653D7
:1075C000363B182B5B337D339D2B7C2B7C335B331D
:1075D000F6321885FFF7FFFFFFFFDFFFFFFFDFFF3A
:1075E000FFFF7FB617333B2B3D2B3D2B1D2B3D3330
:1075F0003D335C2B5833DFBEFFF7FFFFFFFFFFFF7C
:10760000FFFFFFFFFFFFFFFFFFFFFFFFFFFFFFFF8A
:10761000FFF7DFD7D864BB4CDD44DC44DC44BB441B
:10762000BC44BC4438445C9EFFF7FFFFFFFFFFFFF4
:10763000FFFFFFFFFFF71FBF164C39445C445C3C63
:107640003C3C3C3C3C3C7D3C7C3C3C3C3C443C44E9
:107650001B44FA3BD933D933B933DA3BFB43FC3B08
:10766000FC3BFC339933973B375C9B8D1FC7FFE78F
:10767000FFF7FFF7FFF7DEF7FFFFDEFFDFFFDFFFBC
:10768000FFFFFFF7FFEFBFE79FB6DC7437335B33D5
:107690007D335C2B9D337D2BF82A197DFFF7FFFF8F
:1076A000FFFFDEFFFFFFDFFFFFFF7FAE37335B2B08
:1076B0005D2B3D2B3D333D335D335C2B5833DFBEBB
:1076C000FFF7FFFFFFFFFFFFFFFFFFFFFFFFFFFFD2
:1076D000FFFFFFFFFFFFFFFFFFF7DFD7B8649B4C03
:1076E000BD44DC44BC44BC44BC44BC4438443C9E23
:1076F000FFF7FFF7FEFFFEFFFFFFFFFFFFF7DFB61D
:10770000F64B3A445B445B3C5C3C3C3C5D3C3C346B
:107710005C3C1C3C1B3C1A44B743375C7B8D9FAEE2
:107720009C8D1954783B9A3BFC3B1C34FC33FB3B4F
:107730009933583397439A641E965FCFFFEFFFFF4C
:10774000FFFFDFFFDFFFFFFFDEF7FFFFDFF7FFFFDA
:10775000FFF7FFF73FAE583B7B337D2B5D2B5E2B56
:10776000F92AF97CFFF7FFF7FFFFDEFFFEFFFFFFBF
:10777000FFF79FAE36337A2B5C2B5D2B3D335E33A8
:107780005D335C335833FFBEFFF7FFFFFFFFFFFFA2
:10779000FFFFFFFFFFFFFFFFFFFFFFFFFFFFFFFFF9
:1077A000FFF7DFD7B8649B4CBC44BC44BC44BC442A
:1077B000BC449C4418441C9EFFF7FFF7FEFFFEF7F5
:1077C000FEF7FFFFFFFFDFB6F74B3A445C443B3C5C
:1077D0003B3C5D3C5D3C5C3C1A3CD93BF84BDA6C75
:1077E0005EA69FDFFFF7FFEFFFEF5FD7FE9D7A5C9E
:1077F000973BB933DA33DB33DC3BDC3BBB3B9A33BF
:107800007733B743DA745EB69FE7FFF7FFFFDFF722
:10781000FEF7FFFFFFFFFFFFFFFFDFF7FFF79B64B0
:1078200019237D2B5D2B5E2BF92AF97CFFF7FFF7DF
:10783000FFFFFEFFDFFFFFFFFFF79FAE56337A2B00
:107840007C2B7D2B5D335D337D337C33783BFFBEFA
:10785000FFF7FFFFFFFFFFFFFFFFFFFFFFFFFFFF40
:10786000FFFFFFFFFFFFFFFFFFF7DFD7B85C7A44A2
:10787000BD44BC44BC449C449C449C4418441B9E52
:10788000FFF7FFFFFEFFFEF7FEF7FFFFFFFFDFB68C
:10789000F7431B443D3C3C3C3C3C3C3C3C3C1A3CA0
:1078A0009A5CFD953FC7DFE7FFF7FFFFDFF7DFF7E4
:1078B000FFFFFFF7FFF7FFE79EAED86CD6437833A4
:1078C0009A33DD3BBC339B33BC339A3B593337335C
:1078D000D9533C851FCFFFF7FFFFFFFFFFFFDFFFFF
:1078E000FFFFFEFFFFF71C7D182B5C331D2B3E2B8B
:1078F000D92AD97CFFF7FFFFFFFFFFFFDFFFFFFF64
:10790000FFF79FAE57337B337C2B7D337D339D3325
:107910009D339C33783BFFBEFFF7FFFFFFFFFFFF68
:10792000FFFFFFFFFFFFFFFFFFFFFFFFFFFFFFFF67
:10793000FFF7BFD7B85C7B449C449C449C449B4469
:107940009C447C441844FBA5FFF7FFFFFFFFFFF7B3
:10795000FFFFFFFFFFFFDFB6F7431B3C1D3C3D3C35
:107960003C3C3C3C1B3C3B449F9EFFDFFFEFFFF752
:10797000FFF7DFF7DFF7DFFFBEF7DEFFFEFFFFF702
:10798000FFF7FFE7FFBE3C7DD84B3733793BBC3B6D
:10799000BC3B9D337C335C335A33172B3443FDCED1
:1079A000FFFFFFFFDFFFFFFFFFFFFEFFFFF75D852C
:1079B000D7225C333D2B3D2BF92ADA7CFFF7FFFF02
:1079C000FFFFFFFFFFFFFFFFFFF79FB657337B333C
:1079D0007C2B9D339D33BD33BC33BC33983BFFBE02
:1079E000FFF7FFFFFFFFFFFFFFFFFFFFFFFFFFFFAF
:1079F000FFFFFFFFFFFFFFFFFFF7BFD7985C7A4451
:107A00009C449C449C447C449C447C44F843FBA59B
:107A1000FFF7FFFFFFFFFFF7FFFFDFFFFFFFDFB60F
:107A2000D743FB3B3D3C3D3C1C3C1C341C3CFC33E5
:107A3000DA3B9A645EA6BFDFFFF7FFF7FFFFFFFFA9
:107A4000DEFFFEFFFEFFDEFFFFFFFFFFFFF7FFF79A
:107A50005FD7BB9DF6531633392B7C3B9D337D336B
:107A60009D335B331633BA9DFFF7DFFFFFFFFFFF48
:107A7000FFFFFFFFFFF75D85F722FA2A3D333D2B1D
:107A8000F82AFA7CFFEFFFFFDFFFFFFFFFFFFFFF9A
:107A9000FFF79FB6573B9B339D339D33BD33BC33BC
:107AA000DC33DC33983BFFC6FFF7FFFFFFFFFFFF30
:107AB000FFFFFFFFFFFFFFFFFFFFFFFFFFFFFFFFD6
:107AC000FFF7BFD7985C7B449C449C449C3C7B3C28
:107AD0007C447C44F743FBA5FFF7FFFFFFFFFFFF5C
:107AE000FFFFFFFFFFFFDFBED743FB3B1D3C1C3CFE
:107AF0001B34FB3B1C3CFC3BFC3B993B763B365C24
:107B0000BB955FCFFFEFFFF7DFF7FEFFFEFFFFFF45
:107B1000FFFFDFFFFFFFDFFFFFFFFFF7BFDF1EA657
:107B2000FA533A337D337D335D2B5C2B172B9A95BB
:107B3000FFF7FFFFFFFFFFFFFFFFFFFFFFF73C7DAA
:107B4000D7225C331C2B3D2BF82AFA7CFFF7FFFF72
:107B5000DFFFFFFFFFFFFEFFFFF79FB6773B9B3383
:107B60009C33BD33DC33DC33DC33DB33B73BFFC664
:107B7000FFF7FFFFFFFFFFFFFFFFFFFFFFFFFFFF1D
:107B8000FFFFFFFFFFFFFFFFFFF7BFD7985C5B44DE
:107B90007D447C447C445B3C7C447C44F8431BA691
:107BA000FFF7FFFFFFFFFFFFFFFFFFFFFFF7DFBE56
:107BB000B743FB3B1D3C1C3C1B3C1A3CD93BDA3316
:107BC000DB33FC3BDB3BBA339833D8431C7DFFC629
:107BD000FFEFFFF7FFFFFFFFFFFFFFFFFFFFFFFFCD
:107BE000FFFFFFFFFFF7FFF7DFC639335D337D335C
:107BF0007C2B5C2B172B9B95FFF7FFFFFFFFFFFFF5
:107C0000FFFFFFFFFFF73C7DF7223B2B3D2B5D2B5A
:107C1000F82AFA7CFFF7FFFFFFFFFFFFFFFFFFFFE0
:107C2000FFF79FAE983B9B33BC33DC33DC33FC3334
:107C3000FC33FB33D83BFFBEFFF7FFFFFFFFFFFF27
:107C4000FFFFFFFFFFFFFFFFFFFFFFFFFFFFFFFF44
:107C5000FFF7BFD7785C5B447D447D447C3C5C3C53
:107C60007C447C3CF83B1CA6FFF7FFF7FFFFFFFFBF
:107C7000FFFFFFFFFFF7BFB6B743FB3BFC331C3CE6
:107C8000FA337A549F9EBA64B8437833BA331D3CB2
:107C9000DC33BC3B7933764398747DB6FFE7FFF75E
:107CA000FFFFDFFFFFFFFFFFFFFFFFFFFFFFFFFF04
:107CB000DFC6383B5D337D335C2B5C2B182B9B95EB
:107CC000FFF7FFFFFFFFFFFFFFFFFFFFFFF73C7D19
:107CD000F7225C2B5D2B5D2BF82AFA84FFF7FFFF60
:107CE000FFFFFFFFFFFFFFFFFFF7BFAE983BBB3378
:107CF000DC33DC33FC33FC33FC33FC33D83BFFC6D2
:107D0000FFFFFFFFFFFFFFFFFFFFFFFFFFFFFFFF83
:107D1000FFFFFFFFFFFFFFFFFFF7BFD7785C3B448C
:107D20005D3C5D445C3C5C3C7C445C3CF83B1CA69C
:107D3000FFF7FFF7FEFFFEFFFEFFFFFFFFF7BFB6F7
:107D4000B63BFB3B1C341D34DA3B7864FFE7FFE7AE
:107D5000BFB6B8749643793BBB33DD33BD337B3359
:107D60007A3B3733D753FD9DDFE7FFF7FFFFFFFF78
:107D7000FFFFFFFFFFFFFFFFDFC618335D335D2B03
:107D80005C2B5C2BF82A9B95FFF7FFFFFFFFFFFFA3
:107D9000FFFFFFFFFFF73C7DF7227C2B5D2B5D2B68
:107DA000182BFA84FFF7FFF7FFFFFFFFFFFFFFFF2E
:107DB000FFF7BFAEB83BDB3BFC33FC33FD33FD3399
:107DC0001C34FC33D843FFC6FFFFFFFFFFFFFFFF5C
:107DD000FFFFFFFFFFFFFFFFFFFFFFFFFFFFFFFFB3
:107DE000FFF7BFD7785C3B445D3C5D3C5C3C5C3C52
:107DF0005C3C5C3CD83BFCA5FFF7FFF7FEFFFEFFB9
:107E0000FEFFFFFFFFF7DFBE963BFA331D34FC3366
:107E1000D93B5664FFE7FFF7FFF7FFEF1FC7FB7C77
:107E2000B943592BDD3BBE337D337C333933353B8E
:107E3000D97CFFEFFFFFFFFFFFFFFFFFFFFFFFFF0B
:107E4000DFC618335D2B5D2B5C2B5C2BF72A9B95D3
:107E5000FFF7FFFFFFFFFFFFFFFFFFFFFFF73C7D87
:107E6000F8227C2B7E2B7D33192B1A85FFEFFFF731
:107E7000FFFFFFFFFFFFFFFFFFF7BFAEB83BDB3B9E
:107E8000FC3BFC331C341C341C3C1C3CD843FFC65C
:107E9000FFFFFFFFFFFFFFFFFFFFFFFFFFFFFFFFF2
:107EA000FFFFFFFFFFFFFFFFFFF7BFD757543B4424
:107EB0005D3C5C3C5C3C3B3C5C3C5C3CD83BFBA59F
:107EC000FFF7FFF7FFFFFFFFFFFFFFFFFFFFDFBE33
:107ED0009643DB3B1D34DC33D93B5764DFE7FFFFC0
:107EE000FFFFFFF7FFF7FFEF5FCF5C7D783B9C3331
:107EF0009D33BD339C3B393376433FCFFFFFFFFFBC
:107F0000FFFFFFFFFFFFFFFFBFC618335D2B5D2B99
:107F10003C2B3C2BF82A9B95FFF7FFFFFFFFFFFF51
:107F2000FFFFFFFFFFF73C7D172B7C337D337E3354
:107F300039331B7DFFEFFFF7FFFFFFFFFFFFFFFF61
:107F4000FFF7BFAEB83BDB3BFC3BFC331C341D3CB6
:107F50001C3C1C3CF843FFC6FFFFFFFFFFFFFFFF79
:107F6000FFFFFFFFFFFFFFFFFFFFFFFFFFFFFFFF21
:107F7000FFF7BFD758543B443D3C3D3C3C3C3C3C68
:107F80003C3C3C3CB83BFBA5FFF7FFFFFFFFFFFF7E
:107F9000FFFFFFFFFFFFBFBEB743DB3BFD33FC33FB
:107FA000D93B5764FFE7FFFFDEFFFFFFDFF7FFF777
:107FB000FFF7FFDF595C5A337D339D339D337C33AC
:107FC000373BFFC6FFFFFFFFFFFFFFFFFFFFFFFF86
:107FD000BFC6F8323D2B5D2B3C2B3C2BF82A9B95E2
:107FE000FFF7FFFFFFFFFFFFFFFFFFFFFFF73C85EE
:107FF000182B9C3B7D339D3339331B85FFEFFFF7F7
:10800000FFFFFFFFFFFFFFFFFFF7BFAED83BFB3BCC
:108010001C3C1C3C1C3C3C3C3C3C1B3CF843FFC611
:10802000FFFFFFFFFFFFFFFFFFFFFFFFFFFFFFFF60
:10803000FFFFFFFFFFFFFFFFFFF7BFD737541B44D2
:108040003D3C3D3C3C3C1C3C3C3C1C3CB83BFBA50B
:10805000FFF7FFFFFFFFFFFFFEFFFFFFFFF7BFBEC2
:108060009743BB3BDD33FC3BB93B375CFFE7FFFF8E
:10807000FEFFFFFFDFFFFFFFFFF7FFEF385C3A3344
:108080007D339D335C2B5B3378431FCFFFFFFFFFB6
:10809000FFFFFFFFFFFFFFFFBFC6F8323D2B3D2B69
:1080A0003C2B3C2BF82A9B95FFF7FFFFFFFFFFFFC0
:1080B000FFFFFFFFFFF75D85382B9C3B9C339C3314
:1080C00058333A85FFF7FFF7FFFFFFFFFFFFFFFF82
:1080D000FFF7DFAED8431B441C3C3C3C3C3C3C3CE3
:1080E0003C3C3B3C18441FC7FFFFFFFFFFFFFFFF67
:1080F000FFFFFFFFFFFFFFFFFFFFFFFFFFFFFFFF90
:10810000FFF7BFD738541B3C1D3C3C3C1C3C1C3C7F
:108110001C3C1C3C973BFB9DFFF7FFFFFFFFFEFF56
:10812000FEFFFFFFFFF7DFB6763BDB3BDD33BC3303
:10813000B93B565CFFE7FFFFFEFFFFFFFFFFDEFFDF
:10814000FFFFFFEF375C59337D335C2B7D337C338E
:1081500078435FD7FFFFFFFFFFFFFFFFFFFFFFFF3A
:10816000BFC6F8323D2B3D2B3C2B3C2BD82A9B9590
:10817000FFF7FFFFFFFFFFFFFFFFFFFFFFF75D853B
:1081800039339C339C33BC3358333A85FFF7FFFFB8
:10819000FFFFFFFFFFFFFFFFFFF7DFAEF8431B44CA
:1081A0003C3C3C3C5C3C3C3C5C3C3B3C18441FC77E
:1081B000FFFFFFFFFFFFFFFFFFFFFFFFFFFFFFFFCF
:1081C000FFFFFFFFFFFFFFFFFFF7BFD73754FA3B6B
:1081D0001D3C1C3C1C3CFC331C3C1C34B7331B9E1C
:1081E000FFF7FFFFFFFFFFFFFFFFFFF7FFEFDFB628
:1081F000973BBB33DD33DC3399333664FFE7FFFF56
:10820000FEFFFFFFFFFFDFFFFFFFFFE7375C392BBC
:108210007D2B5D2B5D2B7C2B99435FD7FFFFFFFFF1
:10822000FFFFFFFFFFFFFFFFBFC6F8323D2B3C2BD8
:108230003D2B3C2B182B9B95FFF7FFFFFFFFFFFF0C
:10824000FFFFFFFFFFF75D855833BC33BD33DD33E0
:1082500099335A85FFF7FFFFFEFFFFFFFFFFFFFF88
:10826000FFF7DFAEF8433B441B3C5C447C3C7C4462
:108270005C3C5C3C184CFFC6FFFFFFFFFFFFFFFFAD
:10828000FFFFFFFFFFFFFFFFFFFFFFFFFFFFFFFFFE
:10829000FFF7BFD73854FB3B1D3C1D3CFC33FC3380
:1082A0001C3CFC339833FB9DFFF7FFFFFFFFDFFF14
:1082B000FFFFFFFFFFEFBFB6963BDB3BBC2BBC33A2
:1082C000B93B165CDFE7FFFFFFFFFFFFFFFFDFFFAC
:1082D000FFFFFFE7375C392B7D2B5D2B5D2B5C2B84
:1082E000993B5FD7FFFFFFFFFFFFFFFFFFFFFFFF90
:1082F000BFC6F8323D2B3C2B5D2B5D2B1833DC9D2C
:10830000FFF7FFFFFFFFFFFFFFFFFFFFFFF75C85AA
:108310007933DD3BDD33FD3B98335985FFF7FFF7BC
:10832000FFFFDFFFFFFFFEFFFFF7DFAEF83B3B4441
:108330005C449D445B3C7C447C447C44384C1FC77B
:10834000FFFFFFFFFFFFFFFFFFFFFFFFFFFFFFFF3D
:10835000FFFFFFFFFFFFFFFFFFF79FD73754FB3BF8
:108360001D3C1D3CFC33FC3BFC33FC33983B1CA602
:10837000FFF7FFFFFFFFFFFFDFFFFFFFFFF7BEB6C7
:10838000343B9A3BDD3BBC339933365CFFE7FFF768
:10839000FFFFFFFFFFFFFFFFFFFFFFEF165C192B43
:1083A0005C2B5D333C333C2B993B5FD7FFFFFFFFDA
:1083B000FFFFFFFFFFFFFFFFBFC618333C2B5C2B07
:1083C0005D2B7D2B38331DA6FFF7FFFFFFFFFFFF5F
:1083D000FFFFDFFFFFEF9C859833DB33FD33FC3B72
:1083E00077333885FFF7FFFFFEFFFFFFFFFFFFFF3B
:1083F000FFF7DFAE18445B445C3C5C3C9C449C440F
:108400007C447C44584C1FC7FFFFFFFFFFFFFFFF6A
:10841000FFFFFFFFFFFFFFFFFFFFFFFFFFFFFFFF6C
:10842000FFF79FD71754DB3BFD33FD33FC33FC3B99
:10843000FC3BFC33983BDB9DFFF7FFFFFEFFDFFFBC
:10844000FFFFFFFFFFFF5FDF1564363B793BBB3B60
:108450007833365CFFE7FFF7FFFFFFFFFFFFFFFF0B
:10846000FFFFFFEF1764192B3D333D333C333C2BAB
:10847000793B3FD7FFFFFFFFFFFFFFFFFFFFFFFF3E
:10848000DFC618335C2B7D2B7D337D3338333DAE17
:10849000FFF7FFFFFFFFFFFFDFFFFFFFFFF77C8519
:1084A000B7331B44DA33983395437CB6FFF7FEF7B6
:1084B000FEFFFFFFFFFFDFF7FFEFDFAEF83B5B44A0
:1084C0007C447C3C9C449C449C449C44584C1FC72A
:1084D000FFFFFFFFFFFFFFFFFFFFFFFFFFFFFFFFAC
:1084E000FFFFFFFFFFFFFFFFFFF79FD71754DB3BA7
:1084F000FD33FD33FC33FC3BFC3BFD33983BFCA5DB
:10850000FFF7FFFFFEFFDEFFDFFFFFFFDFFFFFFFE5
:108510007FDFDC9DF75336331433F453FFE7FFFF5F
:10852000FFFFFFFFFFFFFFFFFFFFDFEF1864F92AE8
:108530003D333D331C331B2B58433FD7FFFFFFFF19
:10854000FFFFFFFFFFFFFFFFDFC618337D337D33E3
:108550007D337C3338335EAEFFF7FFFFFFFFFEFF56
:10856000FEFFFFFFFFEF7B855433B743585CBB8DA5
:108570003FCFFFF7DFF7FFFFFFFFFFF7DFF7FFFF5B
:10858000FFEFFFAE39447B447C449C447B3C9C44DD
:108590009B449C44584C1FC7FFFFFFFFFFFFFFFF9A
:1085A000FFFFFFFFFFFFFFFFFFFFFFFFFFFFFFFFDB
:1085B000FFF79FD7F753DB3BFD33DC33DC33DC3392
:1085C000DC33DD339933FC9DFFF7DFF7FEFFFFFF60
:1085D000DEFFFFFFFFFFFFFFFFFFFFF7DFDF9FAEC5
:1085E000986C336CFFEFFFFFFFFFFFFFFFFFFFFF04
:1085F000FFFFDFEF185CF92A3D2B3D331C331B2BAB
:1086000058433FD7FFFFFFFFFFFFFFFFFFFFFFFFC5
:10861000DFC638337D339C339C339C33583B5EAE8E
:10862000FFF7FFFFFEFFFEFFDEFFFFFFFFF7BA953C
:10863000B76C5DA69FDFFFEFFFF7FFFFDFFFFFFFD8
:10864000FFFFBEF7FFFFFFF7FFEFBFA619447C4413
:108650007C3C9C3CBC44BC449B44BC44584C1FC721
:10866000FFFFFFFFFFFFFFFFFFFFFFFFFFFFFFFF1A
:10867000FFFFFFFFFFFFFFFFFFF79FD7F74BDB3B3E
:10868000DD33DD33DC33DC33DC33DD3399335C7DE8
:10869000FFE7FFF7DEFFFEFFFFFFDEFFDEFFDFFF8E
:1086A000DFFFFFFFFFF7FFF7FFF77EE7DFF7FFFFD3
:1086B000FFFFFFFFFFFFFFFFFFFFDFEFF85B192B5F
:1086C0005D2B3D2B3C2B3B2B783B5FD7FFFFFFFF08
:1086D000FFFFFFFFFFFFFFFFDFC6383B9D339C33EB
:1086E0009C339C33793B5EAEFFF7FFFFFFFFFFFF3C
:1086F000FFFFFEFFFFF7BEE7FFEFFFFFFFFFFFFFFC
:10870000FFFFFFFFFFFFFEF7FFFFFFFFFFFFFFFF82
:10871000FFEF5F9E59449C44BD44BC449C44BC4410
:10872000BC44BC4C784C3FCFFFFFFFFFFFFFFFFF77
:10873000FFFFFFFFFFFFFFFFFFFFFFFFFFFFFFFF49
:10874000FFFF9FD7F74BBB33DD33DD3BDD3BDC3336
:10875000DD33DD339B33D8439C853FCFFFF7DFF715
:10876000FFFFDFF7FFFFFFFFDFFFDFFFFFFFFFFF81
:10877000DFFFFFFFFEFFFEFFFEFFFFFFFFFFFFFF2C
:10878000FFFFDFE7F85B192B5D2B3D2B3C2B3B2BD1
:10879000983B5FCFFFF7FFFFFFFFFFFFFFFFFFFFEC
:1087A000DFCE583B9D33BC33BC33BC33983B5DAE0E
:1087B000FFF7FFFFFFFFFFF7FFFFDEFFFEFFFFFFFB
:1087C000FFFFDEFFDEFFFEFFDDFFFFFFFFFFFFF726
:1087D000FFF7FFF7FFF75FD7DB9578549B4C9C4C76
:1087E0009C44DC44BC44DC44DC44DC4C78543EC750
:1087F000FFF7FFFFFFFFFFFFFFFFFFFFFFFFFFFF91
:10880000FFFFFFFFFFFFFFFFFFFF9FD7F74BDB33AC
:10881000DD33DE33BD3BBD33BD33BD33BC339B33B2
:1088200039337843DB7CFFBEFFEFFFF7FFF7FEF73E
:10883000FFFFFFFFFFFFFFFFFFFFFFFFFFFFFFFF48
:10884000FFFFFFFFFFFFDEFFFFFFFFE7185C1A23BC
:108850005D2B3D2B3D333B2B983B5FCFFFF7FFF765
:10886000FFFFFFFFFFFFFFFFDFCE9843BC33DD3389
:10887000DC33FB3B76335CB6FFFFFFFFFFFFFFFF00
:10888000DFFFDFFFFFFFFFFFFFFFFFFFDEFFFEFF5A
:10889000FEFFFFFFFFF7FFEFFFE71FBF7A7D574C9B
:1088A00058449A3CBC44BC4CBC4CBC44DC44DC4406
:1088B000FC4CDB4CB8543EC7FFF7FFFFFFFFFFFF48
:1088C000FFFFFFFFFFFFFEFFFFFFFFFFFFFFFFFFB9
:1088D000FFFF9FD7F74BDB33DD33DD33BD33BD33D4
:1088E000BD33BD339D339E339D335B331833573BCC
:1088F0003864FD9D7FDFFFF7FFF7FFFFFFFFDFFF1E
:10890000FFFFFFFFFFFFFFFFFFFFFFFFFFFFFFFF77
:10891000FFFFFFEF185C19235D2B3D333C333B2BEE
:1089200098435FD7FFF7FFFFFFFFDEFFFFFFFFFF6B
:10893000DEC6773BDB3BDB3BB93B5633575C5ED750
:10894000FFFFDFFFFFFFDEFFFFFFFFFFDFFFFFFF98
:10895000FFFFFFFFFFFFFFFFFFF7FFF7BFD77DA67A
:10896000D864374C5844BB44BB44DC3CFC44DC4C2E
:10897000DC4CDC44DC44DC44FC4CFB4CB8543EC7CF
:10898000FFF7FFFFFFFFFFFFFFFFFFFFFFFFFFFFFF
:10899000FFFFFFFFFFFFFFFFFFFF7FD7D74BBA337C
:1089A000BC33DC33BC33BC2BBC339D339D339D3394
:1089B000BD339D339C337B333A3339335843FC7C8E
:1089C000DFC6FFF7FFF7FFFFFFFFDEFFFFFFFFFF41
:1089D000FFFFDFFFDFFFFFFFFFFFBFE7F75B192BA5
:1089E0007C2B5C2B5C333B2B98435FD7FFFFFEF760
:1089F000FEFFFEFFFEF7FFF71FC7553B7733964399
:108A0000FA745EAEDFE7FFFFDEFFFFFFFEFFFEFF53
:108A1000FDFFFEFFFEFFFEFFFFFFFFFFFFF7FFEF83
:108A2000FFB69B7D9954384459449A4C9B4CDC4486
:108A3000FC44FC44FC44FC44FC4CFC4CDC4CFC4C36
:108A4000FC4C1C45D84C5EC7FFF7FFFFFFFFFFFF44
:108A5000FFFFFFFFFFFFFFFFFFFFFFFFFFFFFFFF26
:108A6000FFFF7FD7B74B9A3BBC33BC33BC33BC2B27
:108A70009D337D337D337D2B9D2B9D2B9D2B9E2BFD
:108A80005D2B3D2B3C33D82A173B1864FDA59FE78F
:108A9000FFF7FFF7FFFFDFF7FFFFDFFFDFFFDFFF7E
:108AA000FFFFDFEF3764392B7C2B5C337C335B2B90
:108AB000B8435FD7FFFFFFFFFEF7FEFFFEF7FFF7AC
:108AC000FDC6155CDD957FD7FFEFFFF7FFFFDEFFEB
:108AD000FFFFFFFFFEFFFEFFFEFFFFFFFFFFFFF7B1
:108AE000FFF79FDF7DAE3975584C383C9B449C4462
:108AF0009C44BC4CBC44DC44FC44FC44FC44FB446F
:108B0000FC44FC44DC44FC4C1C4D1C45F84C5EC74A
:108B1000FFF7FFFFFFFFFFFFFFFFFFFFFFFFFFFF6D
:108B2000FFFFFFFFFFFFFFFFFFFF5FD7B74B7B3B61
:108B30009D339C339C339C2B9D2B7E337E337D3326
:108B40009D337D2B7D2B9E2B7E337D335D333C33DC
:108B50003B33F92AD72A784BFC7CBFBEFFEFFFF7E7
:108B6000FFFFFFFFFFFFFFFFFFF7DFE7175C392B7A
:108B70007D337D337C337A33B8435FD7FFFFDFFF2C
:108B8000FFFFFFFFFFFFDFFF9FF7FFF7FFF7FFFF8D
:108B9000FFF7DFF7FFFFDFFFFFFFDEFFFEFFFEFF58
:108BA000FFFFFFF7FFEF7FCFBC8D98543844594447
:108BB0009B44BB449B44DC44DD4CDD4CDC44DC4446
:108BC000FC4CFC4CFB44FB441C451C4DFC441C4D24
:108BD0001C4D3B45F8545EC7FFF7FFFFFFFFFFFF4B
:108BE000FFFFFFFFFFFFFFFFFFFFFFFFFFFFFFFF95
:108BF000FFFF7FD7B74B7B3B7D339D339C339D2B52
:108C00009D2B7E337E337D337D335D2B5D2B5D2B42
:108C10005D2B5D2B5D2B5D2B5E333D2B3C2B3B3366
:108C2000D72A173339641DA65FD7FFF7FFF7FFEF89
:108C3000FFF7FFEFF75B3A337D337D339C339A3395
:108C4000D84B5FD7FFFFFFFFDFFFFFFFDEFFFFFF18
:108C5000FFFFFFFFFEFFDEFFFFFFFEFFBEFFFFFF88
:108C6000DFFFDFFFFFFFFFF7DFE7BEB61975174C29
:108C700038447B449C3C9C44BC44DC44DC44DC44A1
:108C8000BC44DD44FD4CFC4CFC4CFC4CFC4CFB4C13
:108C90001C4D1C4D1B453B453B4D3B4DF9545FC79F
:108CA000FFF7FFFFFFFFFFFFFFFFFFFFFFFFFFFFDC
:108CB000FFFFFFFFFFFFFFFFFFFF7FD7B74B7B33B8
:108CC0007E337D337D337D337D2B7E2B7E2B5D2B61
:108CD0005D2B5D335D335D2B5D2B5D2B5D2B5D2B44
:108CE0003C2B3D2B3C2B1B2B7C337C33192BF72A45
:108CF000B94B1C7DFFBEFFE7FFEFFFEF38645A332F
:108D00009D33BE2BBD33BB33D8435FD7FFFFFFFF7F
:108D1000BFFFFFFFFFFFFFFFDEFFDEFFFEFFDFFF06
:108D2000FFFFFFFFFEFFFFFFFFF7FFEF5FCF1D9687
:108D3000B95CF74339447A449B44BC449C44BC44EA
:108D40009B44BC44FC4CDC44FC44FC44FC44FC4CD4
:108D5000FC4CFC4CFC4CFC4C1B4D1B4D3B4D3B4D13
:108D60005B4D3B4DF9545FC7FFF7FFFFFFFFFFFF70
:108D7000FFFFFFFFFFFFFFFFFFFFFFFFFFFFFFFF03
:108D8000FFFF7FDFB74B7B337D2B7D337D337D331F
:108D90007D337D2B7D2B5D2B3D2B3D2B5D2B3C2B8C
:108DA0003C2B3D2B3D2B3C2B3C2B3C2B5C2B5C2B49
:108DB0005C2B5D2B7D2B7D337B33172B563B58640F
:108DC0001E9E9FCF5A5C5A33BD33BD2BDD33BB3360
:108DD000F84B7FD7FFFFFFFFFFFFFFFFFFFFFEFF07
:108DE000FEFFFEFFFEFFFFFFFFF7FFF7FFF7FFE7C6
:108DF000DEB6597D3754F83B5A447C449C449C442D
:108E00009D44BC44BC44BC44DC4CDC4CBC44DC4411
:108E1000FC44FB44FC44FC4CFC4CFC4C1C4D1C4DE9
:108E20001C4D1B553B555B4D5B4D5B4DF8543FC78F
:108E3000FFFFFFFFFFFFFFFFFFFFFFFFFFFFFFFF42
:108E4000FFFFFFFFFFFFFFFFDFF7FFEFF75B5A3387
:108E50007D2B7C2B9C337C335D2B7D2B7D2B5D2BE5
:108E60003C2B3C2B5D2B5D2B3C2B3C2B3D2B3D2B86
:108E70003D2B5D335C335D335D337D337D337E333A
:108E80007D339C3B7A3359337933BA3BFB43DC3334
:108E9000DC33DD33FD33DC3BF94B5FD7FFFFFFFFF6
:108EA000FFFFFFFFFEFFFEFFFDFFDEFFDFFFFFF71F
:108EB000FFEF9FCF3D96DA5C184419445A447B4437
:108EC0009C449C44BD44BD44BD44BD44BD44DC44BD
:108ED000DC44DC4CDC4CFC4CFC441C451C451C4577
:108EE0001C4D1C4D1C4D1C4D3C551C553C553B4DC3
:108EF0003B4D7B55185D7FCFFFFFFFFFFFFFFFFF5F
:108F0000FFFFFFFFFFFFFFFFFFFFFFFFFFFFFFFF71
:108F1000FFFFFFEFB974182B9D2B9D2B7C2B5D2B36
:108F20005D335D2B5C2B5D2B3C2B3C2B5D2B5D2B3C
:108F30003D2B3D2B3D2B3D2B5D2B5D335D335D3359
:108F40007C337D337D337D339D33BD33BD339C33E3
:108F50009C33BC33DC33DC33FC33FD33DC33BC3BD0
:108F6000D94B7FCFFFF7FFFFFFFFDEFFDFFFFFF7EC
:108F7000FFF7FFF7FFEFDFBE7A85375418447A3CDE
:108F80009C3C7C44BD4C9C44BC44BC44BC44BD445F
:108F9000BD44DD44DD44DC44DC4CDC4CDC4CFC4CAE
:108FA000FC4C1C4D1C453C453C4D3C4D3C4D3C4D0A
:108FB0003C4D1C551C557C559B55184D786DFFE755
:108FC000FFFFDFFFFFFFFFFFFFFFFFFFFFFFFFFFD1
:108FD000FFFFFFFFFFFFFFFFFFFFFFFF9FBE1733F6
:108FE0005C2B7D2B9E2B3D2B3E2B5D2B5D2B3D2B40
:108FF0003D2B3D2B3D2B3D2B3D2B3D2B3D2B5D2B11
:109000005D2B7D2B7D2B7D2B7D337C339D339D33E1
:10901000BC2BDC33DC33DD33DD33DD3BDC3BFD3BC4
:10902000DC33FD3BFD3BDC3BDA431D96FFE7FFF7FE
:10903000FFFFFFFFFFF7FFEFBFD71E9E9964F743C7
:10904000384459447A449B44BC449C449C44BC44AA
:10905000BC44BC44BC44DC44DC44DC44DC44DC4C68
:10906000DC4CFC44FC4C1C4D1C4D1C4D3C4D5C4DE3
:109070003C453C4D5C4D3C4D3C4D5D4D5D4D7C4D0E
:109080003A4DF754DDA6FFEFFFFFFFFFFFFFFFFFA5
:10909000FFFFFFFFFFFFFFFFFFFFFFFFFFFFFFFFE0
:1090A000DFFFFFFFFFEFFC7CF82A7D333D2B3E2BDB
:1090B0003E2B1D2B3D2B3D2B3D2B3D2B3D2B3D2B8F
:1090C0003D2B5D2B5D2B5D2B5D2B7D2B7D2B9D2B00
:1090D0009D339D339C33DD33DC33DC33DC33DD33D4
:1090E000FD3BFD3BDD3BDD3BDD3B1D3C1D3CFD3BDE
:1090F000FB43F7431975BEBE7FDFDFE7FFBE7A850E
:109100005754F8431A445B3C7B3C9C449C449B442E
:10911000BC44BC44BC44BC44BC44DC44DB44DB4CE9
:10912000FB4CFC4CFC4CFC4CFC4CFC4C1C4D1C4DBE
:109130003C4D3C4D3C4D3C4D3B4D5B4D7B555B4D63
:109140005C4D7C4D7C4DBC55394D586DFFDFFFF7B4
:10915000DFFFFFFFFFFFFFFFFFFFFFFFFFFFFFFF3F
:10916000FFFFFFFFFFFFFFFFFFFFFFFFFFF75FD7DF
:10917000F85BDA323E3B3E333E331D2B3D2B5D2BFD
:109180005D2B5D2B5D2B5D2B7D2B7D2B7D2B7D3317
:109190007E337E337E337E339D33BD33BC33DD334C
:1091A000BD33DD33FD33FD33FD33FC33FC3BDD3BB1
:1091B000FD43FC3B1C3C1D3C1C3C5C4C1944F84BE7
:1091C0007A5CBA5C3944F83B3A445C4C5C44BC443D
:1091D0009C449C449C449C449B449C44DD44DC440F
:1091E000DC44DC44FC4CFC4CFC4CFC4CFB4CFB4C91
:1091F0001C4D1C4D1C4D3C4D3C4D3C4D3B4D5C4D68
:109200005C4D5B4D5B555B557C55BC4DBB4D59551D
:10921000175D5FC7FFF7DFF7FFFFFFFFFFFFFFFFF0
:10922000FFFFFFFFFFFFFFFFFFFFFFFFFFFFFFFF4E
:10923000FFFFDEFFFFFFFFF73FD79953B9321B3B1C
:10924000FB2A5D333C2B5D2B5D2B5D2B5D2B5D2B5A
:109250007D2B7D2B9D337D337D337E339E339E333B
:10926000BD33DD33DD33DD33DD33DD3BFD3BFC334F
:109270001C341C341C34FD3B1D3C1C3C5D443C3CFC
:109280001C343D3C3C445C443B3C3B3C7C449D4466
:109290009D447C447C447C3C9C44BD44BD44BC4CCB
:1092A000DC44DD44BC44DC44DC44FC44FC441C455C
:1092B0001C4D1C4D1B4D1B4D3C4D1C4D3C4D3C4D08
:1092C0003C4D5B4D5B4D5B4D5B4D5B4D5B4D7C5554
:1092D0005A4D594D585557653EB7FFF7DFF7FFFF19
:1092E000FFFFFFFFFFFFFFFFFFFFFFFFFFFFFFFF8E
:1092F000FFFFFFFFFFFFFFFFFFFFFFFFFFFFFFFF7E
:10930000FFF7BFE77974D732F92A3B2B5D2B3D2B52
:109310005D335E337D337D337D339D339D339C33AD
:10932000BD33BC33BC33BD33DD33DD33DD33FD331F
:10933000DD33FD3BFC3BFC3B1B343C3C3C3C3D3CBF
:109340003D3C5C345B345C3C7D441C3C7D445C3C7B
:109350009C3C9D447C447C447C449C44BC44BD4433
:10936000BC44BC44BC44DC44DC44DC44FC4CFC4C0D
:10937000FC4CFC4C1C4D1C453C453C453C4D3C4D7F
:109380003C4D3C4D5C4D5C4D5C4D5C4D5C4D3B4DF6
:109390005C557C4D7C4D7C4D5A4D5855B97D7FCFE9
:1093A000FFF7DFFFFFFFFFFFFFF7FFFFFFFFFFFFFD
:1093B000FFFFFFFFFFFFFFFFFFFFFFFFFFFFFFFFBD
:1093C000FFFFFFFFFFFFFFFFDFFFFFF7FFF73FAEEE
:1093D0003A5C1733F82A3A333B335C3B7B335B33DD
:1093E0007B3B9B3B9B3B9B3BBB33DB33DB33DB3B25
:1093F000DB3BDB3BFB3BFB33FB3BFB3B1B441B44B3
:109400001B443B3C3B3C3B3C3B3C7B3C5A3C7B4415
:109410003B3C9C4C5B449C449B447B447B4C9B4C22
:109420009B4CBB44BB4CBB44BC4CDB4CBB4CDB4CF3
:10943000DB4CFB4CDA4CFB4CFB4C1B4D1B4D3B4DB2
:109440003B4D3B4D3B4D3B4D3B553B555B555B557C
:109450005B555B555B555A557A5D3A553A555955AA
:109460009A6DBD9EFFDFFFF7FFFFDFFFFFFFFFFFEE
:10947000FFF7FFFFFFFFFFFFFFFFFFFFFFFFFFFF04
:10948000FFFFFFFFFFFFFFFFFFFFFFFFFFFFFFFFEC
:10949000DFFFFFFFFFF7FFF7DFEFBEC6F984F85BE2
:1094A0007843573B373B573B573B573B783B783BE1
:1094B000773B983B973B973BB73BB843B73BD83B91
:1094C000B83BB73BF843D83BD73B1844F83B18446C
:1094D000F73B183C3844384418441844184438447E
:1094E000584458443844794C784C5844794C784C1A
:1094F000994C984C984C984CB84C984CB84CB84CEB
:10950000F854B84CF954F94CF954F9541955F95424
:109510001955D854195D1955F85419551855375D12
:10952000376578753B8E1EB7FFDFFFEFFFF7DFFF74
:10953000FFFFFFFFDFFFFFFFFFFFFFFFFFFFFFFF5B
:10954000FFFFFFFFFFFFFFFFDFFFFFFFFFFFFFFF4B
:10955000FFFFFFFFFFFFFFFFFFFFFFFFFFFFDFFF3B
:10956000FFFFFFFFFFF7DFE77FCFDFBE9FB67FAED6
:109570005FAE7FAE5FA65FAE7FAE5FA69FAE7FAEF3
:109580007FAE9FAEBFAE7FA6BFAE9FA69FAEBFAE63
:109590009FA6BFAE9FA69FAEBFAEDFAE9FA6BFAEDB
:1095A0009FA6BFAEBFA6BFAEBFA6DFAEBFA6BFA67B
:1095B000DFAEDFAEFFAEDFAEBFA6FFAEFFAEFFAEEB
:1095C000FFAEDFAEFFAEFFAEDEA6FFAE1FAFDFAE7B
:1095D000FFAE1FAFDFAEFFAE1FAF1FAFFEAE1FAFC0
:1095E0001FB7FEAE3FB77FBF9FC7FFDFFFEFFFEFA5
:1095F000FFF7FFFFFFFFFFFFFFFFBEFFFFFFFFFFC4
:10960000FFFFFFFFFFFFFFFFFFFFFFFFFFFFDFFF8A
:10961000FFFFFFFFFFFFFFFFFFFFFFFFFFFFDFFF7A
:10962000FFFFFFFFFFFFFFFFFFFFFFFFFFFFFFFF4A
:10963000FFF7FFF7FFF7FFF7FFF7FFF7FFF7FFF77A
:10964000FFF7FFF7FFF7FFF7FFF7FFF7FFF7FFF76A
:10965000FFF7FFF7FFF7FFF7FFF7FFF7FFF7FFF75A
:10966000FFF7FFF7FFF7FFF7FFF7FFF7FFF7FFF74A
:10967000FFF7FFF7FFF7FFF7FFF7FFF7FFEFFFF742
:10968000FFF7FFF7FFF7FFF7FFEFFFF7FFF7FFF732
:10969000FFF7FFF7FFF7FFF7FFF7FFF7FFF7FFF71A
:1096A000FFF7FFF7FFF7FFF7FFF7FFF7FFF7FFF70A
:1096B000FFF7FFF7FFF7FFFFFFFFFFFFFFFFFFFFD2
:1096C000FFFFFFFFFFFFFFFFDFFFFFFFFFFFFFFFCA
:1096D000FFFFFFFFFFFFFFFFFFFFDFFFFFFFFFFFBA
:1096E000FFFFFFFFFFFFFFFFFFFFFFFFFFFFFFFF8A
:1096F000FFFFFFFFFFFFFFFFFFFFFFFFFFFFFFFF7A
:10970000FFFFFFFFFFFFDFFFFFFFFFFFFFFFFFFF89
:10971000FFFFFFFFFFFFFFFFFFFFFFFFFFFFFFFF59
:10972000FFFFFFFFFFFFFFFFFFFFFFFFDFFFFFFF69
:10973000DFFFFFFFDFFFFFFFFFFFFFFFFFFFFFFF79
:10974000DFFFFFFFFFFFDFFFFFFFFFFFFFFFFFFF69
:10975000FFFFFFFFFFFFDFFFFFFFDFFFFFFFFFFF59
:10976000FFFFDFFFFFFFFFFFFFFFFFFFDFFFFFFF49
:10977000FFFFFFFFFFFFFFFFDFFFFFFFFFFFFFFF19
:10978000FFFFFFFFFFFFFFFFFFFFFFFFFFFFFFFFE9
:10979000FFFFFFFFFFFFFFFFFFFFFFFFFFFFFFFFD9
:1097A000FFFFFFFFFFFFDFFFFFFFFFFFFFFFFFFFE9
:1097B000FFFFFFFFFFFFFFFFFFFFFFFFFFFFFFFFB9
:1097C000FFFFDFFFFFFFFFFFDFFFFFFFFFFFFFFFE9
:1097D000FFFFFFFFFFFFFFFFFFFFFFFFFFFFFFFF99
:1097E000FFFFDFFFFFFFFFFFBEFFFFFFFFFFFFFFEA
:1097F000FFFFFFFFFFFFFFFFFFFFDFFFFFFFFFFF99
:10980000FFFFFFFFFFFFFFFFFFFFFFFFFFFFFFFF68
:10981000FFFFFFFFFFFFFFFFFFFFFFFFFFFFFFFF58
:10982000FFFFFFFFFFFFFFFFFFFFFFFFFFFFFFFF48
:10983000FFFFFFFFFFFFFFFFDFFFFFFFFFFFFFFF58
:10984000DFFFDFFFFFFFFFFFFFFFFFFFFFFFFFFF68
:10985000FFFFFFFFFFFFFFFFFFFFFFFFFFFFFFFF18
:10986000FFFFFFFFFFFFFFFFFFFFFFFFFFFFFFFF08
:10987000FFFFDFFFFFFFFFFFFFFFFFFFFFFFFFFF18
:10988000FFFFDFF7FFFFFFFFDFFFFFFFFFFFFFFF30
:10989000FFFFDFFFFFFFFFFFFFFFFFFFFFFFFFFFF8
:1098A000FFFFFFFFFFFFFFFFFFFFFFFFFFFFFFFFC8
:1098B000FFFFDFFFFFFFFFFFFFFFFFFFF7BD18C642
:1098C000FFFFFFFF718CB6B5FFFFFFFFFFFFFFFF3C
:1098D000FFFFFFFFFFFFFFFFDFFFFFFFDBDEEF7B91
:1098E00059CEFFFFFFFFFFFFFFFFDFF7FFFFFFFF87
:1098F000D7BD14A5FFFFFFFFFFFF9EEF55AD99CE2B
:10990000DFFFFFFFFFFFDFFF5AD67AD659D679CEA9
:10991000BAD69ACE9ACE7ACE39C65ACEBBD6DFFF09
:10992000FFFFFFFFDFFFFFFFFFFFFFFFFFFFFFFF67
:10993000FFFFFFFFDFFFFFFFFFFFFFFFFFFF9AD6E5
:10994000928CF07BAF7392943DE79AD6B29439C66D
:10995000DFFFFFFF76ADF49C5DEFFFFF3CE7D39C9C
:1099600096B5FFFF7ACE518C8E7331847ACEFFFF8D
:10997000FFFFDFFFF7BD1084AF739294DBDEFFFFC4
:10998000FFFF7DEF24212842B6B576ADA3106A4AC9
:10999000F8BD96B5F8BDB7B5BFF7DFFFCB520842AB
:1099A0004942494A2942A310083A494A0842083A1A
:1099B000494A7DEF9DEFF39CC7390419F39C7DEF75
:1099C000FFFF7DEF6108CE73FFFFFFFFFFFF5DE745
:1099D000A73104194521C731C7312519452105197A
:1099E000A731462987315EEFFFFFFFFFFFFFFFFF33
:1099F000FFFFFFFFFFFFFFFFFFFFFFFFFFFFFFFF77
:109A0000FFFF5DEF6E6BE4188631CB5A0C63A73114
:109A100034A5D7BD0000AB52FFFF5DEF66294108BA
:109A200076ADFFFFF39C00000C63FFFF518CEC5AF6
:109A3000D07B0942A31035A5FFFF149DA6314D63CD
:109A40000C5BE418652938C6FFFF55A5C310C73164
:109A5000A731A731662966298731A731862966296A
:109A6000BBD6FFFF18BEF8BD18BE149D083AC31040
:109A70006629D39418BEB6B5B7B5BFF7DBDE294269
:109A8000CB5A8629252159CE96B535A504210C63DC
:109A9000B6B518C6FFFFBFEF66214D63BBD66A425D
:109AA0002D63FDDE1DDF1DE76E6B294218C6FFFF2B
:109AB000FFFFFFFFFFFFFFFFFFFFFFFFFFFFFFFFB6
:109AC000FFFFFFFFFFFFFFFFFFFF6E6B42086E6BA4
:109AD0007EEFFFFFFFFFFFFFDFF79EEFC739863105
:109AE0007EEF7ACE04210419CF7BFFFF6E6B8210CC
:109AF000B6B5FFFFFFFFFFFFFFFFF8BD2100CF7BE3
:109B0000FFFF5DEFDFFFFFFFFFFF35A500003184A2
:109B1000DFF7084229429EF7DFFF9FF704214D6BD4
:109B2000FFFFFFFFFFFFDFFFDFFFFFFF9EF759CEC5
:109B30003184C739E8399294494A4629F07B18C6DE
:109B40007EEFDFFFFFFFFFFF18BEC31035A518C66D
:109B500025218631662986316529694ADFF7DFF7D5
:109B60008629AF6BFFFFF07B2100F49CFFFF76B5E9
:109B700062082D63FFFFFFFFFFFFFFFFFFFFFFFFF7
:109B8000FFFFFFFFFFFFFFFFFFFFFFFFFFFFDFFF05
:109B90005DEF252945291CE7DFFFFFFFFFFFFFFFE2
:109BA000FFFFFFFFCF7382089ACE9394C7310D63F6
:109BB000E8397EEF084286299EEFFFFFDFFF4D6BFD
:109BC0006A4A25216A4A9EF7FFFFFFFFDFFFFFFF7A
:109BD000FFFF6A4AE4189AD6FFFFF8BD9294D7B502
:109BE000F8BD56AD4629AB52F7BDD7B5B7B5BBD614
:109BF000FFFF7ACE2521A731CB5A10846629BBD628
:109C0000DFFFD39C494AC7390421D7B5FFFF7EEF58
:109C1000A731252196B5DFF79FF7BBD62521AF7376
:109C20009EF77EEFFFFFBFF745216E6BFFFFFFFF43
:109C3000F07B2521AB52E4208E73FFFFFFFFFFFF77
:109C4000FFFFFFFFFFFFFFFFFFFFFFFFFFFFFFFF24
:109C5000DFFFFFFFFFFFFFFF1CE7662904219AD605
:109C6000FFFFFFFFDFFFFFFFFFFFFFFF96B582084B
:109C7000728C2D63CB5235A5452976AD04194D6BF9
:109C8000FFFFFFFFFFFFF8BD77ADD07B8731F49C6E
:109C9000FFFFFFFFFFFF5DEF494AA310F8BDFFFF85
:109CA000FFFFFCDEC739A731E839C83946298631BC
:109CB0000842C73945293084FFFF7DEFF7BDF39C8B
:109CC00059CE35A5728CAA5238C6FFFFDFF7B39480
:109CD000B7B51CDF5DE7083AE418A731E41876ADA4
:109CE000FFFF1DE70419F07BDFFFFFFFFFFFBFF75A
:109CF00066298E6BFFFFFCDEB394C410E418A41039
:109D00003184FCDEFFFFFFFFFFFFDEFFFFFFFFFFF1
:109D1000FFFFFFFFFFFFFFFFFFFFFFFFFFFFFFFF53
:109D2000FFFF8E7341006A4A9AD6FFFFFFFF7DEF67
:109D30007DEFFFFF7DEFC739C8396629728C1DE7BB
:109D400025216A4AC31076ADFFFFBFF7FCDEFFFF97
:109D5000FFFF7FEFE4180842FFFFFFFF96B586295B
:109D6000C7397ACEFFFFFFFFFFFFFFFFFFFFFFFFB7
:109D7000FFFF9FF705216E6BFFFFFFFFFFFFFFFF58
:109D8000FFFFFFFF18BEC3181084620839C6A73151
:109D9000AB523DE739C6C31035A5FFFFFCDE96ADDB
:109DA0004A4A09425ACE5DE7FFFF5DE7C310107CC7
:109DB000FFFFFFFFFFFF9EF74521F07BAF732521DB
:109DC000A731938CBBD6159DA831E5180D63BFF75D
:109DD000FFFFFFFFFFFFFFFFFFFFFFFFFFFFFFFF93
:109DE000FFFFFFFFFFFFFFFFFFFFBEF7EF7BE41862
:109DF000C318C739694A4521B394FFFFFFFF6D6B54
:109E000021004100F8BDFFFFC731620866293DE728
:109E1000FFFF9EEFC731083A8B4AA831252135A5AF
:109E2000FFFF728C42008308C83149428729728C37
:109E3000FFFF7ACE59C67ACEBBD6D8B50519CB521C
:109E40009ACEBBD67ACE39C65EE7FCDEE4182D6327
:109E5000D7B56208F8BD39C696AD8B4A6A4AD07B41
:109E6000620819C6FFFFFFFFEC5AA731FFFF1DDF95
:109E70007ACE18BE05192D63BBD659C6BFF7BFF7FA
:109E800045210C5B6E6BD073B7B5FCD6BBCEBCCE98
:109E9000F9BDF17BED5A5EEFFFFFFFFFDFFFFFFF34
:109EA000FFFFFFFFFFFFFFFFFFFFDFFFFFFFFFFFE2
:109EB000FFFFFFFFFFFF1CE776AD9294929435A55C
:109EC0003DE7FFFFFFFFDBD634A5B6B5BEF7FFFFCA
:109ED000F8BD14A539C6FFFFFFFFFFFF1CDFF49C90
:109EE000728C159D1CDFFFFFFFFF39C635A597ADAE
:109EF00096AD55A5149D7ACE3DE76629662986293B
:109F000087298729C831A731872966218729A31086
:109F1000B394D8B5EC5AFFFF97ADC310A731093AF7
:109F20004942E4104942DFFF6E6B728CFFFFFFFF76
:109F30006A4A4529DFFF2D63C41866298629462908
:109F40004521E418F8BDBFF7083A4521C839083A59
:109F5000A7298729872987298729C8316A4A3DEF98
:109F6000FFFFDFFFFFFFFFFFFFFFFFFFFFFFFFFF21
:109F7000FFFFFFFFFFFFFFFFFFFFFFFFFFFFFFFFF1
:109F8000DFFFFFFFFFFFFFFFFFFFFFFFFFFFFFFF01
:109F9000FFFFFFFFFFFFFFFFFFFFFFFFFFFFFFFFD1
:109FA000FFFFFFFFFFFFFFFFFFFFFFFFFFFFFFFFC1
:109FB000FFFFFFFFFFFFFFFFFFFFFFFFDFFFDFFFF1
:109FC000FFFF3CE75DEF3CE75DEF1CE75DEF3DE742
:109FD0005DE75DEF1CE71CE75DEFBFF7FFFFDFFF0D
:109FE0009EF739C659C618C639C639C69AD6FFFF74
:109FF000FFFFBEF7FFFFFFFF79CEF8BDDFFF1CE7D5
:10A00000FBDE1CE71CE7FCDEDBDEDBDE7DEFFFFFBB
:10A010001CE71CE71DE75DEF5DEF3DE75DE75DE7F2
:10A020003DE73DE73DE7FFFFDEFFFFFFFFFFFFFFEF
:10A03000FFFFFFFFFFFFFFFFDFFFFFFFFFFFDFFF70
:10A04000FFFFFFFFFFFFDFFFFFFFFFFFDFFFFFFF60
:10A05000FFFFDFFFFFFFFFFFFFFFFFFFFFFFFFFF30
:10A06000FFFFFFFFFFFFFFFFFFFFFFFFFFFFFFFF00
:10A07000FFFFFFFFFFFFFFFFFFFFFFFFFFFFFFFFF0
:10A08000FFFFFFFFFFFFFFFFFFFFFFFFFFFFFFFFE0
:10A09000FFFFFFFFFFFFFFFFFFFFDFFFFFFFFFFFF0
:10A0A000FFFFFFFFFFFFFFFFFFFFFFFFFFFFFFFFC0
:10A0B000FFFFFFFFFFFFFFFFFFFFFFFFFFFFFFFFB0
:10A0C000DFFFFFFFFFFFFFFFFFFFFFFFFFFFFFFFC0
:10A0D000FFFFFFFFFFFFDFFFFFFFFFFFFFFFFFFFB0
:10A0E000FFFFFFFFFFFFFFFFFFFFFFFFFFFFFFFF80
:10A0F000FFFFFFFFFFFFFFFFFFFFFFFFFFFF00006E
:10A100002000000000000000000000000000F03F00
:10A11000000000000000F83F000000000000000008
:10A120000000004003B8E23F000000000000000013
:10A1300006D0CF43EBFD4C3E033333333333E33FA1
:10A14000FFAB6FDBB66DDB3F4D268F515555D53FCD
:10A1500001411DA96074D13F65DBC9934A86CD3F9B
:10A16000EF4E454A287ECA3F3E5555555555C53F89
:10A1700093BDBE166CC166BF2CDE25AF6A56113F7B
:10A18000F16BD2C541BDBBBED0A4BE726937663E7D
:10A19000000000000000000076657273696F6E3D7C
:10A1A0002573267265733D70726F647563747325D1
:10A1B00025324625732525324664657669636573C5
:10A1C0002525324625732665743D2564266D657404
:10A1D000686F643D2573267369676E3D25730000C3
:10A1E00000A200000000002034000000143E000027
:10A1F00034A2000034000020041A0000243E0000B5
:10A2000000000000040000000100000000127A00BD
:10A21000000000000000000000000000000000003E
:10A22000000000000000000000000000000000002E
:04A23000000000002A
:04000005000000C136
:00000001FF
