Component: ARM Compiler 5.06 update 7 (build 960) Tool: armlink [4d3601]

==============================================================================

Image Symbol Table

    Local Symbols

    Symbol Name                              Value     Ov Type        Size  Object(Section)

    RESET                                    0x00000000   Section      192  startup_cw32l010.o(RESET)
    ../clib/microlib/division.c              0x00000000   Number         0  uldiv.o ABSOLUTE
    ../clib/microlib/division.c              0x00000000   Number         0  uidiv.o ABSOLUTE
    ../clib/microlib/division.c              0x00000000   Number         0  ldiv.o ABSOLUTE
    ../clib/microlib/division.c              0x00000000   Number         0  idiv.o ABSOLUTE
    ../clib/microlib/init/entry.s            0x00000000   Number         0  entry10b.o ABSOLUTE
    ../clib/microlib/init/entry.s            0x00000000   Number         0  entry12b.o ABSOLUTE
    ../clib/microlib/init/entry.s            0x00000000   Number         0  entry12a.o ABSOLUTE
    ../clib/microlib/init/entry.s            0x00000000   Number         0  entry11b.o ABSOLUTE
    ../clib/microlib/init/entry.s            0x00000000   Number         0  entry.o ABSOLUTE
    ../clib/microlib/init/entry.s            0x00000000   Number         0  entry9a.o ABSOLUTE
    ../clib/microlib/init/entry.s            0x00000000   Number         0  entry11a.o ABSOLUTE
    ../clib/microlib/init/entry.s            0x00000000   Number         0  entry9b.o ABSOLUTE
    ../clib/microlib/init/entry.s            0x00000000   Number         0  entry2.o ABSOLUTE
    ../clib/microlib/init/entry.s            0x00000000   Number         0  entry10a.o ABSOLUTE
    ../clib/microlib/init/entry.s            0x00000000   Number         0  entry5.o ABSOLUTE
    ../clib/microlib/init/entry.s            0x00000000   Number         0  entry8b.o ABSOLUTE
    ../clib/microlib/init/entry.s            0x00000000   Number         0  entry8a.o ABSOLUTE
    ../clib/microlib/init/entry.s            0x00000000   Number         0  entry7a.o ABSOLUTE
    ../clib/microlib/init/entry.s            0x00000000   Number         0  entry7b.o ABSOLUTE
    ../clib/microlib/longlong.c              0x00000000   Number         0  llshl.o ABSOLUTE
    ../clib/microlib/longlong.c              0x00000000   Number         0  llushr.o ABSOLUTE
    ../clib/microlib/longlong.c              0x00000000   Number         0  llsshr.o ABSOLUTE
    ../clib/microlib/string/memset.c         0x00000000   Number         0  memseta.o ABSOLUTE
    ../clib/microlib/stubs.s                 0x00000000   Number         0  iusefp.o ABSOLUTE
    ../fplib/microlib/d2f.c                  0x00000000   Number         0  d2f.o ABSOLUTE
    ../fplib/microlib/f2d.c                  0x00000000   Number         0  f2d.o ABSOLUTE
    ../fplib/microlib/fpadd.c                0x00000000   Number         0  fadd.o ABSOLUTE
    ../fplib/microlib/fpadd.c                0x00000000   Number         0  dadd.o ABSOLUTE
    ../fplib/microlib/fpdiv.c                0x00000000   Number         0  ddiv.o ABSOLUTE
    ../fplib/microlib/fpdiv.c                0x00000000   Number         0  fdiv.o ABSOLUTE
    ../fplib/microlib/fpepilogue.c           0x00000000   Number         0  fepilogue.o ABSOLUTE
    ../fplib/microlib/fpepilogue.c           0x00000000   Number         0  depilogue.o ABSOLUTE
    ../fplib/microlib/fpfix.c                0x00000000   Number         0  ffixui.o ABSOLUTE
    ../fplib/microlib/fpflt.c                0x00000000   Number         0  dfltui.o ABSOLUTE
    ../fplib/microlib/fpflt.c                0x00000000   Number         0  dflti.o ABSOLUTE
    ../fplib/microlib/fpflt.c                0x00000000   Number         0  ffltui.o ABSOLUTE
    ../fplib/microlib/fpmul.c                0x00000000   Number         0  fmul.o ABSOLUTE
    ../fplib/microlib/fpmul.c                0x00000000   Number         0  dmul.o ABSOLUTE
    Driver\Libraries\src\cw32l010_adc.c      0x00000000   Number         0  cw32l010_adc.o ABSOLUTE
    Driver\Libraries\src\cw32l010_atim.c     0x00000000   Number         0  cw32l010_atim.o ABSOLUTE
    Driver\Libraries\src\cw32l010_btim.c     0x00000000   Number         0  cw32l010_btim.o ABSOLUTE
    Driver\Libraries\src\cw32l010_crc.c      0x00000000   Number         0  cw32l010_crc.o ABSOLUTE
    Driver\Libraries\src\cw32l010_flash.c    0x00000000   Number         0  cw32l010_flash.o ABSOLUTE
    Driver\Libraries\src\cw32l010_gpio.c     0x00000000   Number         0  cw32l010_gpio.o ABSOLUTE
    Driver\Libraries\src\cw32l010_gtim.c     0x00000000   Number         0  cw32l010_gtim.o ABSOLUTE
    Driver\Libraries\src\cw32l010_pwr.c      0x00000000   Number         0  cw32l010_pwr.o ABSOLUTE
    Driver\Libraries\src\cw32l010_sysctrl.c  0x00000000   Number         0  cw32l010_sysctrl.o ABSOLUTE
    Driver\Libraries\src\system_cw32l010.c   0x00000000   Number         0  system_cw32l010.o ABSOLUTE
    Driver\\Libraries\\src\\cw32l010_adc.c   0x00000000   Number         0  cw32l010_adc.o ABSOLUTE
    Driver\\Libraries\\src\\cw32l010_atim.c  0x00000000   Number         0  cw32l010_atim.o ABSOLUTE
    Driver\\Libraries\\src\\cw32l010_btim.c  0x00000000   Number         0  cw32l010_btim.o ABSOLUTE
    Driver\\Libraries\\src\\cw32l010_crc.c   0x00000000   Number         0  cw32l010_crc.o ABSOLUTE
    Driver\\Libraries\\src\\cw32l010_flash.c 0x00000000   Number         0  cw32l010_flash.o ABSOLUTE
    Driver\\Libraries\\src\\cw32l010_gpio.c  0x00000000   Number         0  cw32l010_gpio.o ABSOLUTE
    Driver\\Libraries\\src\\cw32l010_gtim.c  0x00000000   Number         0  cw32l010_gtim.o ABSOLUTE
    Driver\\Libraries\\src\\cw32l010_pwr.c   0x00000000   Number         0  cw32l010_pwr.o ABSOLUTE
    Driver\\Libraries\\src\\cw32l010_sysctrl.c 0x00000000   Number         0  cw32l010_sysctrl.o ABSOLUTE
    Driver\\Libraries\\src\\system_cw32l010.c 0x00000000   Number         0  system_cw32l010.o ABSOLUTE
    MOTOR\MOTOR.C                            0x00000000   Number         0  motor.o ABSOLUTE
    MOTOR\\MOTOR.C                           0x00000000   Number         0  motor.o ABSOLUTE
    MOTOR\\compu.c                           0x00000000   Number         0  compu.o ABSOLUTE
    MOTOR\\control.c                         0x00000000   Number         0  control.o ABSOLUTE
    MOTOR\\global.c                          0x00000000   Number         0  global.o ABSOLUTE
    MOTOR\\sensorless.c                      0x00000000   Number         0  sensorless.o ABSOLUTE
    MOTOR\compu.c                            0x00000000   Number         0  compu.o ABSOLUTE
    MOTOR\control.c                          0x00000000   Number         0  control.o ABSOLUTE
    MOTOR\global.c                           0x00000000   Number         0  global.o ABSOLUTE
    MOTOR\sensorless.c                       0x00000000   Number         0  sensorless.o ABSOLUTE
    MOTOR\sensorlessP.c                      0x00000000   Number         0  sensorlessp.o ABSOLUTE
    User\\init.c                             0x00000000   Number         0  init.o ABSOLUTE
    User\\interrupts_cw32l010.c              0x00000000   Number         0  interrupts_cw32l010.o ABSOLUTE
    User\\main.c                             0x00000000   Number         0  main.o ABSOLUTE
    User\init.c                              0x00000000   Number         0  init.o ABSOLUTE
    User\interrupts_cw32l010.c               0x00000000   Number         0  interrupts_cw32l010.o ABSOLUTE
    User\main.c                              0x00000000   Number         0  main.o ABSOLUTE
    User\startup_cw32l010.s                  0x00000000   Number         0  startup_cw32l010.o ABSOLUTE
    dc.s                                     0x00000000   Number         0  dc.o ABSOLUTE
    handlers.s                               0x00000000   Number         0  handlers.o ABSOLUTE
    init.s                                   0x00000000   Number         0  init.o ABSOLUTE
    .ARM.Collect$$$$00000000                 0x000000c0   Section        0  entry.o(.ARM.Collect$$$$00000000)
    .ARM.Collect$$$$00000001                 0x000000c0   Section        4  entry2.o(.ARM.Collect$$$$00000001)
    .ARM.Collect$$$$00000004                 0x000000c4   Section        4  entry5.o(.ARM.Collect$$$$00000004)
    .ARM.Collect$$$$00000008                 0x000000c8   Section        0  entry7b.o(.ARM.Collect$$$$00000008)
    .ARM.Collect$$$$0000000A                 0x000000c8   Section        0  entry8b.o(.ARM.Collect$$$$0000000A)
    .ARM.Collect$$$$0000000B                 0x000000c8   Section        8  entry9a.o(.ARM.Collect$$$$0000000B)
    .ARM.Collect$$$$0000000E                 0x000000d0   Section        4  entry12b.o(.ARM.Collect$$$$0000000E)
    .ARM.Collect$$$$0000000F                 0x000000d4   Section        0  entry10a.o(.ARM.Collect$$$$0000000F)
    .ARM.Collect$$$$00000011                 0x000000d4   Section        0  entry11a.o(.ARM.Collect$$$$00000011)
    .ARM.Collect$$$$00002712                 0x000000d4   Section        4  entry2.o(.ARM.Collect$$$$00002712)
    __lit__00000000                          0x000000d4   Data           4  entry2.o(.ARM.Collect$$$$00002712)
    .text                                    0x000000d8   Section       40  startup_cw32l010.o(.text)
    .text                                    0x00000100   Section        0  cw32l010_adc.o(.text)
    .text                                    0x000006ac   Section        0  cw32l010_atim.o(.text)
    .text                                    0x000016f4   Section        0  cw32l010_btim.o(.text)
    .text                                    0x00001f88   Section        0  cw32l010_gpio.o(.text)
    .text                                    0x000020fc   Section        0  cw32l010_gtim.o(.text)
    .text                                    0x00002fa8   Section        0  cw32l010_sysctrl.o(.text)
    .text                                    0x00003ba8   Section        0  system_cw32l010.o(.text)
    .text                                    0x00003c04   Section        0  main.o(.text)
    __NVIC_EnableIRQ                         0x00004087   Thumb Code    26  main.o(.text)
    .text                                    0x000040a4   Section        0  interrupts_cw32l010.o(.text)
    .text                                    0x000040d0   Section        0  init.o(.text)
    __NVIC_EnableIRQ                         0x000044a1   Thumb Code    68  init.o(.text)
    .text                                    0x000044e4   Section        0  compu.o(.text)
    .text                                    0x00004700   Section        0  control.o(.text)
    .text                                    0x00004b98   Section        0  motor.o(.text)
    .text                                    0x00004f00   Section        0  sensorless.o(.text)
    .text                                    0x0000537c   Section        0  uidiv.o(.text)
    .text                                    0x000053a8   Section        0  idiv.o(.text)
    .text                                    0x000053d0   Section        0  ldiv.o(.text)
    .text                                    0x0000541c   Section        0  memseta.o(.text)
    .text                                    0x00005440   Section        0  fadd.o(.text)
    .text                                    0x000054f2   Section        0  fmul.o(.text)
    .text                                    0x0000556c   Section        0  fdiv.o(.text)
    .text                                    0x000055e8   Section        0  dadd.o(.text)
    .text                                    0x00005750   Section        0  dmul.o(.text)
    .text                                    0x00005820   Section        0  ddiv.o(.text)
    .text                                    0x00005910   Section        0  ffltui.o(.text)
    .text                                    0x00005920   Section        0  dflti.o(.text)
    .text                                    0x00005948   Section        0  dfltui.o(.text)
    .text                                    0x00005964   Section        0  ffixui.o(.text)
    .text                                    0x0000598c   Section        0  f2d.o(.text)
    .text                                    0x000059b4   Section        0  d2f.o(.text)
    .text                                    0x000059ec   Section        0  uldiv.o(.text)
    .text                                    0x00005a4c   Section        0  llshl.o(.text)
    .text                                    0x00005a6c   Section        0  llsshr.o(.text)
    .text                                    0x00005a92   Section        0  iusefp.o(.text)
    .text                                    0x00005a92   Section        0  fepilogue.o(.text)
    .text                                    0x00005b14   Section        0  depilogue.o(.text)
    .text                                    0x00005bd4   Section       36  init.o(.text)
    .text                                    0x00005bf8   Section        0  llushr.o(.text)
    i.__ARM_clz                              0x00005c1a   Section        0  depilogue.o(i.__ARM_clz)
    i.__ARM_common_switch8                   0x00005c48   Section        0  cw32l010_atim.o(i.__ARM_common_switch8)
    i.__scatterload_copy                     0x00005c64   Section       14  handlers.o(i.__scatterload_copy)
    i.__scatterload_null                     0x00005c72   Section        2  handlers.o(i.__scatterload_null)
    i.__scatterload_zeroinit                 0x00005c74   Section       14  handlers.o(i.__scatterload_zeroinit)
    .constdata                               0x00005c84   Section       64  cw32l010_sysctrl.o(.constdata)
    .constdata                               0x00005cc4   Section       24  sensorless.o(.constdata)
    .constdata                               0x00005cdc   Section       64  sensorlessp.o(.constdata)
    .data                                    0x20000000   Section        4  system_cw32l010.o(.data)
    .data                                    0x20000004   Section       12  main.o(.data)
    .data                                    0x20000010   Section      208  global.o(.data)
    .data                                    0x200000e0   Section        3  compu.o(.data)
    IErCount                                 0x200000e0   Data           1  compu.o(.data)
    VErCount                                 0x200000e1   Data           1  compu.o(.data)
    LVErCount                                0x200000e2   Data           1  compu.o(.data)
    .data                                    0x200000e4   Section       37  sensorless.o(.data)
    cou                                      0x20000108   Data           1  sensorless.o(.data)
    .bss                                     0x2000010c   Section       12  global.o(.bss)
    STACK                                    0x20000118   Section      512  startup_cw32l010.o(STACK)

    Global Symbols

    Symbol Name                              Value     Ov Type        Size  Object(Section)

    BuildAttributes$$THM_ISAv3M$S$PE$A:L22$X:L11$S22$IEEE1$IW$USESV6$~STKCKD$USESV7$~SHL$OTIME$ROPI$EBA8$MICROLIB$REQ8$PRES8$EABIv2 0x00000000   Number         0  anon$$obj.o ABSOLUTE
    __ARM_use_no_argv                        0x00000000   Number         0  main.o ABSOLUTE
    __Vectors                                0x00000000   Data           0  startup_cw32l010.o(RESET)
    __arm_fini_                               - Undefined Weak Reference
    __cpp_initialize__aeabi_                  - Undefined Weak Reference
    __cxa_finalize                            - Undefined Weak Reference
    __decompress                              - Undefined Weak Reference
    _clock_init                               - Undefined Weak Reference
    _microlib_exit                            - Undefined Weak Reference
    __Vectors_End                            0x000000c0   Data           0  startup_cw32l010.o(RESET)
    __Vectors_Size                           0x000000c0   Number         0  startup_cw32l010.o ABSOLUTE
    __main                                   0x000000c1   Thumb Code     0  entry.o(.ARM.Collect$$$$00000000)
    _main_stk                                0x000000c1   Thumb Code     0  entry2.o(.ARM.Collect$$$$00000001)
    _main_scatterload                        0x000000c5   Thumb Code     0  entry5.o(.ARM.Collect$$$$00000004)
    __main_after_scatterload                 0x000000c9   Thumb Code     0  entry5.o(.ARM.Collect$$$$00000004)
    _main_clock                              0x000000c9   Thumb Code     0  entry7b.o(.ARM.Collect$$$$00000008)
    _main_cpp_init                           0x000000c9   Thumb Code     0  entry8b.o(.ARM.Collect$$$$0000000A)
    _main_init                               0x000000c9   Thumb Code     0  entry9a.o(.ARM.Collect$$$$0000000B)
    __rt_lib_shutdown_fini                   0x000000d1   Thumb Code     0  entry12b.o(.ARM.Collect$$$$0000000E)
    __rt_final_cpp                           0x000000d5   Thumb Code     0  entry10a.o(.ARM.Collect$$$$0000000F)
    __rt_final_exit                          0x000000d5   Thumb Code     0  entry11a.o(.ARM.Collect$$$$00000011)
    Reset_Handler                            0x000000d9   Thumb Code    14  startup_cw32l010.o(.text)
    SysTick_Handler                          0x000000ef   Thumb Code     2  startup_cw32l010.o(.text)
    ADC_DeInit                               0x00000101   Thumb Code    26  cw32l010_adc.o(.text)
    ADC_Init                                 0x0000011b   Thumb Code   470  cw32l010_adc.o(.text)
    ADC_Enable                               0x000002f1   Thumb Code    18  cw32l010_adc.o(.text)
    ADC_Disable                              0x00000303   Thumb Code    18  cw32l010_adc.o(.text)
    ADC_WatchdogInit                         0x00000315   Thumb Code   194  cw32l010_adc.o(.text)
    ADC_GetITStatusAll                       0x000003d7   Thumb Code     8  cw32l010_adc.o(.text)
    ADC_GetITStatus                          0x000003df   Thumb Code    48  cw32l010_adc.o(.text)
    ADC_ClearITPendingAll                    0x0000040f   Thumb Code     8  cw32l010_adc.o(.text)
    ADC_ClearITPendingBit                    0x00000417   Thumb Code    42  cw32l010_adc.o(.text)
    ADC_ITConfig                             0x00000441   Thumb Code    74  cw32l010_adc.o(.text)
    ADC_SoftwareStartConvCmd                 0x0000048b   Thumb Code    62  cw32l010_adc.o(.text)
    ADC_ExtTrigCfg                           0x000004c9   Thumb Code   144  cw32l010_adc.o(.text)
    ADC_GetConversionValue                   0x00000559   Thumb Code    30  cw32l010_adc.o(.text)
    ADC_GetSqr0Result                        0x00000577   Thumb Code    16  cw32l010_adc.o(.text)
    ADC_GetSqr1Result                        0x00000587   Thumb Code    16  cw32l010_adc.o(.text)
    ADC_GetSqr2Result                        0x00000597   Thumb Code    16  cw32l010_adc.o(.text)
    ADC_GetSqr3Result                        0x000005a7   Thumb Code    16  cw32l010_adc.o(.text)
    ADC_GetSqr4Result                        0x000005b7   Thumb Code    16  cw32l010_adc.o(.text)
    ADC_GetSqr5Result                        0x000005c7   Thumb Code    16  cw32l010_adc.o(.text)
    ADC_GetSqr6Result                        0x000005d7   Thumb Code    16  cw32l010_adc.o(.text)
    ADC_GetSqr7Result                        0x000005e7   Thumb Code    16  cw32l010_adc.o(.text)
    ADC_SetTs                                0x000005f7   Thumb Code    42  cw32l010_adc.o(.text)
    ADC_GetTs                                0x00000621   Thumb Code   114  cw32l010_adc.o(.text)
    ATIM_DeInit                              0x000006ad   Thumb Code    28  cw32l010_atim.o(.text)
    ATIM_Init                                0x000006c9   Thumb Code   168  cw32l010_atim.o(.text)
    ATIM_Cmd                                 0x00000771   Thumb Code    20  cw32l010_atim.o(.text)
    ATIM_ITConfig                            0x00000785   Thumb Code    74  cw32l010_atim.o(.text)
    ATIM_GetITStatus                         0x000007cf   Thumb Code    44  cw32l010_atim.o(.text)
    ATIM_ClearITPendingBit                   0x000007fb   Thumb Code    36  cw32l010_atim.o(.text)
    ATIM_SetReloadValue                      0x0000081f   Thumb Code     6  cw32l010_atim.o(.text)
    ATIM_SetCounterValue                     0x00000825   Thumb Code     6  cw32l010_atim.o(.text)
    ATIM_MasterModeTrgo1Config               0x0000082b   Thumb Code    66  cw32l010_atim.o(.text)
    ATIM_MasterModeTrgo2Config               0x0000086d   Thumb Code    44  cw32l010_atim.o(.text)
    ATIM_SlaverModeConfig                    0x00000899   Thumb Code    62  cw32l010_atim.o(.text)
    ATIM_SetTriggerInput                     0x000008d7   Thumb Code   130  cw32l010_atim.o(.text)
    ATIM_IC1Init                             0x00000959   Thumb Code   164  cw32l010_atim.o(.text)
    ATIM_IC2Init                             0x000009fd   Thumb Code   228  cw32l010_atim.o(.text)
    ATIM_IC3Init                             0x00000ae1   Thumb Code   152  cw32l010_atim.o(.text)
    ATIM_IC4Init                             0x00000b79   Thumb Code   162  cw32l010_atim.o(.text)
    ATIM_IC5Init                             0x00000c1b   Thumb Code   160  cw32l010_atim.o(.text)
    ATIM_IC6Init                             0x00000cbb   Thumb Code   172  cw32l010_atim.o(.text)
    ATIM_OC1Init                             0x00000d67   Thumb Code   214  cw32l010_atim.o(.text)
    ATIM_OC2Init                             0x00000e3d   Thumb Code   242  cw32l010_atim.o(.text)
    ATIM_OC3Init                             0x00000f2f   Thumb Code   222  cw32l010_atim.o(.text)
    ATIM_OC4Init                             0x0000100d   Thumb Code   232  cw32l010_atim.o(.text)
    ATIM_OC5Init                             0x000010f5   Thumb Code   234  cw32l010_atim.o(.text)
    ATIM_OC6Init                             0x000011df   Thumb Code   244  cw32l010_atim.o(.text)
    ATIM_CH1Config                           0x000012d3   Thumb Code    54  cw32l010_atim.o(.text)
    ATIM_CH2Config                           0x00001309   Thumb Code    46  cw32l010_atim.o(.text)
    ATIM_CH3Config                           0x00001337   Thumb Code    50  cw32l010_atim.o(.text)
    ATIM_CH4Config                           0x00001369   Thumb Code    50  cw32l010_atim.o(.text)
    ATIM_CH5Config                           0x0000139b   Thumb Code    50  cw32l010_atim.o(.text)
    ATIM_CH6Config                           0x000013cd   Thumb Code    50  cw32l010_atim.o(.text)
    ATIM_GetCapture1                         0x000013ff   Thumb Code     8  cw32l010_atim.o(.text)
    ATIM_GetCapture2                         0x00001407   Thumb Code     8  cw32l010_atim.o(.text)
    ATIM_GetCapture3                         0x0000140f   Thumb Code     8  cw32l010_atim.o(.text)
    ATIM_GetCapture4                         0x00001417   Thumb Code    10  cw32l010_atim.o(.text)
    ATIM_GetCapture5                         0x00001421   Thumb Code    10  cw32l010_atim.o(.text)
    ATIM_GetCapture6                         0x0000142b   Thumb Code    10  cw32l010_atim.o(.text)
    ATIM_SetCompare1                         0x00001435   Thumb Code     6  cw32l010_atim.o(.text)
    ATIM_SetCompare2                         0x0000143b   Thumb Code     6  cw32l010_atim.o(.text)
    ATIM_SetCompare3                         0x00001441   Thumb Code     6  cw32l010_atim.o(.text)
    ATIM_SetCompare4                         0x00001447   Thumb Code     8  cw32l010_atim.o(.text)
    ATIM_SetCompare5                         0x0000144f   Thumb Code     8  cw32l010_atim.o(.text)
    ATIM_SetCompare6                         0x00001457   Thumb Code     8  cw32l010_atim.o(.text)
    ATIM_CtrlPWMOutputs                      0x0000145f   Thumb Code    54  cw32l010_atim.o(.text)
    ATIM_SetPWMDeadtime                      0x00001495   Thumb Code   130  cw32l010_atim.o(.text)
    ATIM_Brake1Config                        0x00001517   Thumb Code   114  cw32l010_atim.o(.text)
    ATIM_Brake2Config                        0x00001589   Thumb Code   114  cw32l010_atim.o(.text)
    ATIM_UpdateEventSelect                   0x000015fb   Thumb Code    46  cw32l010_atim.o(.text)
    ATIM_RemapTimerInput                     0x00001629   Thumb Code   190  cw32l010_atim.o(.text)
    BTIM_DeInit                              0x000016f5   Thumb Code    58  cw32l010_btim.o(.text)
    BTIM_TimeBaseInit                        0x0000172f   Thumb Code   164  cw32l010_btim.o(.text)
    BTIM_Cmd                                 0x000017d3   Thumb Code    80  cw32l010_btim.o(.text)
    BTIM_ITConfig                            0x00001823   Thumb Code    96  cw32l010_btim.o(.text)
    BTIM_GetITStatus                         0x00001883   Thumb Code    72  cw32l010_btim.o(.text)
    BTIM_ClearITPendingBit                   0x000018cb   Thumb Code    64  cw32l010_btim.o(.text)
    BTIM_GenerateEvent                       0x0000190b   Thumb Code    64  cw32l010_btim.o(.text)
    BTIM_ModeConfig                          0x0000194b   Thumb Code    76  cw32l010_btim.o(.text)
    BTIM_SelectOnePulseMode                  0x00001997   Thumb Code    68  cw32l010_btim.o(.text)
    BTIM_OutputToggleCmd                     0x000019db   Thumb Code    84  cw32l010_btim.o(.text)
    BTIM_SetCounter                          0x00001a2f   Thumb Code    42  cw32l010_btim.o(.text)
    BTIM_GetCounter                          0x00001a59   Thumb Code    42  cw32l010_btim.o(.text)
    BTIM_SetAutoreload                       0x00001a83   Thumb Code    42  cw32l010_btim.o(.text)
    BTIM_GetAutoreload                       0x00001aad   Thumb Code   100  cw32l010_btim.o(.text)
    BTIM_SetPrescaler                        0x00001b11   Thumb Code    68  cw32l010_btim.o(.text)
    BTIM_GetPrescaler                        0x00001b55   Thumb Code    44  cw32l010_btim.o(.text)
    BTIM_ConfigUpdateRemap                   0x00001b81   Thumb Code    88  cw32l010_btim.o(.text)
    BTIM_ETRConfig                           0x00001bd9   Thumb Code   142  cw32l010_btim.o(.text)
    BTIM_AutoReloadPreloadConfig             0x00001c67   Thumb Code    84  cw32l010_btim.o(.text)
    BTIM_UpdateRequestSourceConfig           0x00001cbb   Thumb Code    72  cw32l010_btim.o(.text)
    BTIM_EnableUpdateEvent                   0x00001d03   Thumb Code    48  cw32l010_btim.o(.text)
    BTIM_DisableUpdateEvent                  0x00001d33   Thumb Code    48  cw32l010_btim.o(.text)
    BTIM_TriggerInputConfig                  0x00001d63   Thumb Code   198  cw32l010_btim.o(.text)
    BTIM_ResetInputConfig                    0x00001e29   Thumb Code   150  cw32l010_btim.o(.text)
    BTIM_MasterOutputTriggerConfig           0x00001ebf   Thumb Code    92  cw32l010_btim.o(.text)
    BTIM_SlaveSynchronEnable                 0x00001f1b   Thumb Code    50  cw32l010_btim.o(.text)
    BTIM_SlaveSynchronDisable                0x00001f4d   Thumb Code    50  cw32l010_btim.o(.text)
    GPIO_Init                                0x00001f89   Thumb Code   206  cw32l010_gpio.o(.text)
    GPIO_DeInit                              0x00002057   Thumb Code    38  cw32l010_gpio.o(.text)
    GPIO_ReadPin                             0x0000207d   Thumb Code    18  cw32l010_gpio.o(.text)
    GPIO_WritePin                            0x0000208f   Thumb Code    12  cw32l010_gpio.o(.text)
    GPIO_Write                               0x0000209b   Thumb Code     4  cw32l010_gpio.o(.text)
    GPIO_TogglePin                           0x0000209f   Thumb Code     4  cw32l010_gpio.o(.text)
    GPIO_SWD2GPIO                            0x000020a3   Thumb Code    16  cw32l010_gpio.o(.text)
    GPIO_GPIO2SWD                            0x000020b3   Thumb Code    20  cw32l010_gpio.o(.text)
    GPIO_RST2GPIO                            0x000020c7   Thumb Code    16  cw32l010_gpio.o(.text)
    GPIO_GPIO2RST                            0x000020d7   Thumb Code    20  cw32l010_gpio.o(.text)
    GPIO_ConfigFilter                        0x000020eb   Thumb Code     8  cw32l010_gpio.o(.text)
    GTIM1_DeInit                             0x000020fd   Thumb Code    28  cw32l010_gtim.o(.text)
    GTIM_TimeBaseInit                        0x00002119   Thumb Code   234  cw32l010_gtim.o(.text)
    GTIM_MasterTRGOCfg                       0x00002203   Thumb Code    66  cw32l010_gtim.o(.text)
    GTIM_SlaverModeCfg                       0x00002245   Thumb Code   232  cw32l010_gtim.o(.text)
    GTIM_OC1ModeCfg                          0x0000232d   Thumb Code   224  cw32l010_gtim.o(.text)
    GTIM_OC2ModeCfg                          0x0000240d   Thumb Code   284  cw32l010_gtim.o(.text)
    GTIM_OC3ModeCfg                          0x00002529   Thumb Code   228  cw32l010_gtim.o(.text)
    GTIM_OC4ModeCfg                          0x0000260d   Thumb Code   234  cw32l010_gtim.o(.text)
    GTIM_OC1Cmd                              0x000026f7   Thumb Code    56  cw32l010_gtim.o(.text)
    GTIM_OC2Cmd                              0x0000272f   Thumb Code    58  cw32l010_gtim.o(.text)
    GTIM_OC3Cmd                              0x00002769   Thumb Code    62  cw32l010_gtim.o(.text)
    GTIM_OC4Cmd                              0x000027a7   Thumb Code    62  cw32l010_gtim.o(.text)
    GTIM_IC1ModeCfg                          0x000027e5   Thumb Code   236  cw32l010_gtim.o(.text)
    GTIM_IC2ModeCfg                          0x000028d1   Thumb Code   258  cw32l010_gtim.o(.text)
    GTIM_IC3ModeCfg                          0x000029d3   Thumb Code   252  cw32l010_gtim.o(.text)
    GTIM_IC4ModeCfg                          0x00002acf   Thumb Code   262  cw32l010_gtim.o(.text)
    GTIM_IC1Cmd                              0x00002bd5   Thumb Code    60  cw32l010_gtim.o(.text)
    GTIM_IC2Cmd                              0x00002c11   Thumb Code    62  cw32l010_gtim.o(.text)
    GTIM_IC3Cmd                              0x00002c4f   Thumb Code    66  cw32l010_gtim.o(.text)
    GTIM_IC4Cmd                              0x00002c91   Thumb Code    66  cw32l010_gtim.o(.text)
    GTIM_Cmd                                 0x00002cd3   Thumb Code    70  cw32l010_gtim.o(.text)
    GTIM_RemapUpdateFlag                     0x00002d19   Thumb Code    66  cw32l010_gtim.o(.text)
    GTIM_SetPrescaler                        0x00002d5b   Thumb Code    44  cw32l010_gtim.o(.text)
    GTIM_SetReloadValue                      0x00002d87   Thumb Code    28  cw32l010_gtim.o(.text)
    GTIM_SetCounterValue                     0x00002da3   Thumb Code    28  cw32l010_gtim.o(.text)
    GTIM_SetCompare1                         0x00002dbf   Thumb Code    28  cw32l010_gtim.o(.text)
    GTIM_SetCompare2                         0x00002ddb   Thumb Code    28  cw32l010_gtim.o(.text)
    GTIM_SetCompare3                         0x00002df7   Thumb Code    28  cw32l010_gtim.o(.text)
    GTIM_SetCompare4                         0x00002e13   Thumb Code    28  cw32l010_gtim.o(.text)
    GTIM_GetCapture1                         0x00002e2f   Thumb Code    28  cw32l010_gtim.o(.text)
    GTIM_GetCapture2                         0x00002e4b   Thumb Code    28  cw32l010_gtim.o(.text)
    GTIM_GetCapture3                         0x00002e67   Thumb Code    28  cw32l010_gtim.o(.text)
    GTIM_GetCapture4                         0x00002e83   Thumb Code    28  cw32l010_gtim.o(.text)
    GTIM_ITConfig                            0x00002e9f   Thumb Code    90  cw32l010_gtim.o(.text)
    GTIM_GetITStatus                         0x00002ef9   Thumb Code   102  cw32l010_gtim.o(.text)
    GTIM_ClearITPendingBit                   0x00002f5f   Thumb Code    54  cw32l010_gtim.o(.text)
    SYSCTRL_HCLKPRS_Config                   0x00002fa9   Thumb Code    66  cw32l010_sysctrl.o(.text)
    SYSCTRL_PCLKPRS_Config                   0x00002feb   Thumb Code    68  cw32l010_sysctrl.o(.text)
    SYSCTRL_GetHClkFreq                      0x0000302f   Thumb Code   108  cw32l010_sysctrl.o(.text)
    SYSCTRL_SystemCoreClockUpdate            0x0000309b   Thumb Code     6  cw32l010_sysctrl.o(.text)
    SYSCTRL_SYSCLKSRC_Config                 0x000030a1   Thumb Code    62  cw32l010_sysctrl.o(.text)
    SYSCTRL_CCS_Config                       0x000030df   Thumb Code    72  cw32l010_sysctrl.o(.text)
    SYSCTRL_LSELOCK_Config                   0x00003127   Thumb Code    40  cw32l010_sysctrl.o(.text)
    SYSCTRL_WAKEUPCLK_Config                 0x0000314f   Thumb Code    44  cw32l010_sysctrl.o(.text)
    SYSCTRL_LOCKUP_Config                    0x0000317b   Thumb Code    44  cw32l010_sysctrl.o(.text)
    SYSCTRL_SWDIO_Config                     0x000031a7   Thumb Code    44  cw32l010_sysctrl.o(.text)
    SYSCTRL_DeInit                           0x000031d3   Thumb Code   142  cw32l010_sysctrl.o(.text)
    SYSCTRL_GetPClkFreq                      0x00003261   Thumb Code    28  cw32l010_sysctrl.o(.text)
    SYSCTRL_HSI_Enable                       0x0000327d   Thumb Code   240  cw32l010_sysctrl.o(.text)
    SYSCTRL_HSI_Disable                      0x0000336d   Thumb Code    20  cw32l010_sysctrl.o(.text)
    SYSCTRL_LSI_Enable                       0x00003381   Thumb Code   162  cw32l010_sysctrl.o(.text)
    SYSCTRL_LSI_Disable                      0x00003423   Thumb Code    20  cw32l010_sysctrl.o(.text)
    SYSCTRL_HSEWaitClockSet                  0x00003437   Thumb Code    16  cw32l010_sysctrl.o(.text)
    SYSCTRL_HEXEnablePinPolSet               0x00003447   Thumb Code    80  cw32l010_sysctrl.o(.text)
    SYSCTRL_HSE_Enable                       0x00003497   Thumb Code   196  cw32l010_sysctrl.o(.text)
    SYSCTRL_HSE_Disable                      0x0000355b   Thumb Code    20  cw32l010_sysctrl.o(.text)
    SYSCTRL_LSE_Enable                       0x0000356f   Thumb Code   170  cw32l010_sysctrl.o(.text)
    SYSCTRL_LSE_Disable                      0x00003619   Thumb Code    20  cw32l010_sysctrl.o(.text)
    SYSCTRL_SysClk_Switch                    0x0000362d   Thumb Code   232  cw32l010_sysctrl.o(.text)
    SYSCTRL_ITConfig                         0x00003715   Thumb Code    90  cw32l010_sysctrl.o(.text)
    SYSCTRL_GetITStatus                      0x0000376f   Thumb Code    54  cw32l010_sysctrl.o(.text)
    SYSCTRL_ClearITPendingBit                0x000037a5   Thumb Code    84  cw32l010_sysctrl.o(.text)
    SYSCTRL_GetStableFlag                    0x000037f9   Thumb Code    58  cw32l010_sysctrl.o(.text)
    SYSCTRL_GetAllStableFlag                 0x00003833   Thumb Code     6  cw32l010_sysctrl.o(.text)
    SYSCTRL_AHBPeriphClk_Enable              0x00003839   Thumb Code    68  cw32l010_sysctrl.o(.text)
    SYSCTRL_APBPeriphClk_Enable1             0x0000387d   Thumb Code    66  cw32l010_sysctrl.o(.text)
    SYSCTRL_APBPeriphClk_Enable2             0x000038bf   Thumb Code    68  cw32l010_sysctrl.o(.text)
    SYSCTRL_AHBPeriphReset                   0x00003903   Thumb Code    68  cw32l010_sysctrl.o(.text)
    SYSCTRL_APBPeriphReset1                  0x00003947   Thumb Code    66  cw32l010_sysctrl.o(.text)
    SYSCTRL_APBPeriphReset2                  0x00003989   Thumb Code    66  cw32l010_sysctrl.o(.text)
    SYSCTRL_GetRstFlag                       0x000039cb   Thumb Code    72  cw32l010_sysctrl.o(.text)
    SYSCTRL_GetAllRstFlag                    0x00003a13   Thumb Code     8  cw32l010_sysctrl.o(.text)
    SYSCTRL_ClearRstFlag                     0x00003a1b   Thumb Code    68  cw32l010_sysctrl.o(.text)
    SYSCTRL_PCLK_OUT                         0x00003a5f   Thumb Code    66  cw32l010_sysctrl.o(.text)
    SYSCTRL_MCO_OUT                          0x00003aa1   Thumb Code   168  cw32l010_sysctrl.o(.text)
    SYSCTRL_GotoSleep                        0x00003b49   Thumb Code    20  cw32l010_sysctrl.o(.text)
    SYSCTRL_GotoDeepSleep                    0x00003b5d   Thumb Code    20  cw32l010_sysctrl.o(.text)
    SYSCTRL_ConfigSleepOnExit                0x00003b71   Thumb Code    32  cw32l010_sysctrl.o(.text)
    SystemCoreClockUpdate                    0x00003ba9   Thumb Code     8  system_cw32l010.o(.text)
    SystemInit                               0x00003bb1   Thumb Code    50  system_cw32l010.o(.text)
    FirmwareDelay                            0x00003be3   Thumb Code    18  system_cw32l010.o(.text)
    PowerOnDelay                             0x00003c05   Thumb Code   108  main.o(.text)
    PPMCheck                                 0x00003c71   Thumb Code    56  main.o(.text)
    PPMGPIOINIT_Config                       0x00003ca9   Thumb Code    96  main.o(.text)
    GPIOA_IRQHandler                         0x00003d09   Thumb Code   108  main.o(.text)
    GTIM1_IRQHandler                         0x00003d75   Thumb Code    34  main.o(.text)
    main                                     0x00003d97   Thumb Code   336  main.o(.text)
    BTIM1_IRQHandler                         0x00003ee7   Thumb Code   414  main.o(.text)
    assert_failed                            0x00004085   Thumb Code     2  main.o(.text)
    NMI_Handler                              0x000040a5   Thumb Code     2  interrupts_cw32l010.o(.text)
    HardFault_Handler                        0x000040a7   Thumb Code     4  interrupts_cw32l010.o(.text)
    SVC_Handler                              0x000040ab   Thumb Code     2  interrupts_cw32l010.o(.text)
    PendSV_Handler                           0x000040ad   Thumb Code     2  interrupts_cw32l010.o(.text)
    WDT_IRQHandler                           0x000040af   Thumb Code     2  interrupts_cw32l010.o(.text)
    LVD_IRQHandler                           0x000040b1   Thumb Code     2  interrupts_cw32l010.o(.text)
    RTC_IRQHandler                           0x000040b3   Thumb Code     2  interrupts_cw32l010.o(.text)
    FLASHRAM_IRQHandler                      0x000040b5   Thumb Code     2  interrupts_cw32l010.o(.text)
    SYSCTRL_IRQHandler                       0x000040b7   Thumb Code     2  interrupts_cw32l010.o(.text)
    GPIOB_IRQHandler                         0x000040b9   Thumb Code     2  interrupts_cw32l010.o(.text)
    ATIM_IRQHandler                          0x000040bb   Thumb Code     2  interrupts_cw32l010.o(.text)
    VC1_IRQHandler                           0x000040bd   Thumb Code     2  interrupts_cw32l010.o(.text)
    VC2_IRQHandler                           0x000040bf   Thumb Code     2  interrupts_cw32l010.o(.text)
    LPTIM_IRQHandler                         0x000040c1   Thumb Code     2  interrupts_cw32l010.o(.text)
    BTIM2_IRQHandler                         0x000040c3   Thumb Code     2  interrupts_cw32l010.o(.text)
    I2C1_IRQHandler                          0x000040c5   Thumb Code     2  interrupts_cw32l010.o(.text)
    SPI1_IRQHandler                          0x000040c7   Thumb Code     2  interrupts_cw32l010.o(.text)
    UART1_IRQHandler                         0x000040c9   Thumb Code     2  interrupts_cw32l010.o(.text)
    UART2_IRQHandler                         0x000040cb   Thumb Code     2  interrupts_cw32l010.o(.text)
    CLKFAULT_IRQHandler                      0x000040cd   Thumb Code     2  interrupts_cw32l010.o(.text)
    RCC_Configuration                        0x000040d1   Thumb Code    48  init.o(.text)
    DPWMConfiguration                        0x00004101   Thumb Code    60  init.o(.text)
    RST_KEYConfiguration                     0x0000413d   Thumb Code    50  init.o(.text)
    ADC_Configuration                        0x0000416f   Thumb Code   216  init.o(.text)
    BLDC_Configuration                       0x00004247   Thumb Code   358  init.o(.text)
    BTIM1_Configuration                      0x000043ad   Thumb Code    78  init.o(.text)
    SENSORLESS_TIM_Config                    0x000043fb   Thumb Code    96  init.o(.text)
    GTIM1_Configuration                      0x0000445b   Thumb Code    70  init.o(.text)
    SamplePWMSpeed                           0x000044e5   Thumb Code    92  compu.o(.text)
    SampleVI                                 0x00004541   Thumb Code   350  compu.o(.text)
    MotorStartCheck                          0x00004701   Thumb Code   172  control.o(.text)
    MotorStartDealy                          0x000047ad   Thumb Code    94  control.o(.text)
    MotorStartOPEN                           0x0000480b   Thumb Code   102  control.o(.text)
    MotorRunOPEN                             0x00004871   Thumb Code   184  control.o(.text)
    MotorStop                                0x00004929   Thumb Code   110  control.o(.text)
    MotorError                               0x00004997   Thumb Code    20  control.o(.text)
    MotorErrorOver                           0x000049ab   Thumb Code   212  control.o(.text)
    WaitStart                                0x00004a7f   Thumb Code    14  control.o(.text)
    DirCheck                                 0x00004a8d   Thumb Code   252  control.o(.text)
    Commutation                              0x00004b99   Thumb Code   510  motor.o(.text)
    UPPWM                                    0x00004d97   Thumb Code   168  motor.o(.text)
    HALL_MOTOR_START                         0x00004e3f   Thumb Code   100  motor.o(.text)
    MOTOR_STOP0                              0x00004ea3   Thumb Code    22  motor.o(.text)
    BTIM3_IRQHandler                         0x00004f01   Thumb Code   142  sensorless.o(.text)
    ADCS_chuli                               0x00004f8f   Thumb Code   362  sensorless.o(.text)
    ADC_IRQHandler                           0x000050f9   Thumb Code   150  sensorless.o(.text)
    Sensorless_START                         0x0000518f   Thumb Code   486  sensorless.o(.text)
    __aeabi_uidiv                            0x0000537d   Thumb Code     0  uidiv.o(.text)
    __aeabi_uidivmod                         0x0000537d   Thumb Code    44  uidiv.o(.text)
    __aeabi_idiv                             0x000053a9   Thumb Code     0  idiv.o(.text)
    __aeabi_idivmod                          0x000053a9   Thumb Code    40  idiv.o(.text)
    __aeabi_ldivmod                          0x000053d1   Thumb Code    76  ldiv.o(.text)
    __aeabi_memset                           0x0000541d   Thumb Code    14  memseta.o(.text)
    __aeabi_memset4                          0x0000541d   Thumb Code     0  memseta.o(.text)
    __aeabi_memset8                          0x0000541d   Thumb Code     0  memseta.o(.text)
    __aeabi_memclr                           0x0000542b   Thumb Code     4  memseta.o(.text)
    __aeabi_memclr4                          0x0000542b   Thumb Code     0  memseta.o(.text)
    __aeabi_memclr8                          0x0000542b   Thumb Code     0  memseta.o(.text)
    _memset$wrapper                          0x0000542f   Thumb Code    18  memseta.o(.text)
    __aeabi_fadd                             0x00005441   Thumb Code   162  fadd.o(.text)
    __aeabi_fsub                             0x000054e3   Thumb Code     8  fadd.o(.text)
    __aeabi_frsub                            0x000054eb   Thumb Code     8  fadd.o(.text)
    __aeabi_fmul                             0x000054f3   Thumb Code   122  fmul.o(.text)
    __aeabi_fdiv                             0x0000556d   Thumb Code   124  fdiv.o(.text)
    __aeabi_dadd                             0x000055e9   Thumb Code   330  dadd.o(.text)
    __aeabi_dsub                             0x00005733   Thumb Code    12  dadd.o(.text)
    __aeabi_drsub                            0x0000573f   Thumb Code    12  dadd.o(.text)
    __aeabi_dmul                             0x00005751   Thumb Code   202  dmul.o(.text)
    __aeabi_ddiv                             0x00005821   Thumb Code   234  ddiv.o(.text)
    __aeabi_ui2f                             0x00005911   Thumb Code    14  ffltui.o(.text)
    __aeabi_i2d                              0x00005921   Thumb Code    34  dflti.o(.text)
    __aeabi_ui2d                             0x00005949   Thumb Code    24  dfltui.o(.text)
    __aeabi_f2uiz                            0x00005965   Thumb Code    40  ffixui.o(.text)
    __aeabi_f2d                              0x0000598d   Thumb Code    40  f2d.o(.text)
    __aeabi_d2f                              0x000059b5   Thumb Code    56  d2f.o(.text)
    __aeabi_uldivmod                         0x000059ed   Thumb Code    96  uldiv.o(.text)
    __aeabi_llsl                             0x00005a4d   Thumb Code    32  llshl.o(.text)
    _ll_shift_l                              0x00005a4d   Thumb Code     0  llshl.o(.text)
    __aeabi_lasr                             0x00005a6d   Thumb Code    38  llsshr.o(.text)
    _ll_sshift_r                             0x00005a6d   Thumb Code     0  llsshr.o(.text)
    __I$use$fp                               0x00005a93   Thumb Code     0  iusefp.o(.text)
    _float_round                             0x00005a93   Thumb Code    16  fepilogue.o(.text)
    _float_epilogue                          0x00005aa3   Thumb Code   114  fepilogue.o(.text)
    _double_round                            0x00005b15   Thumb Code    26  depilogue.o(.text)
    _double_epilogue                         0x00005b2f   Thumb Code   164  depilogue.o(.text)
    __scatterload                            0x00005bd5   Thumb Code    28  init.o(.text)
    __scatterload_rt2                        0x00005bd5   Thumb Code     0  init.o(.text)
    __aeabi_llsr                             0x00005bf9   Thumb Code    34  llushr.o(.text)
    _ll_ushift_r                             0x00005bf9   Thumb Code     0  llushr.o(.text)
    __ARM_clz                                0x00005c1b   Thumb Code    46  depilogue.o(i.__ARM_clz)
    __ARM_common_switch8                     0x00005c49   Thumb Code    28  cw32l010_atim.o(i.__ARM_common_switch8)
    __scatterload_copy                       0x00005c65   Thumb Code    14  handlers.o(i.__scatterload_copy)
    __scatterload_null                       0x00005c73   Thumb Code     2  handlers.o(i.__scatterload_null)
    __scatterload_zeroinit                   0x00005c75   Thumb Code    14  handlers.o(i.__scatterload_zeroinit)
    hsiprs_tbl                               0x00005c84   Data          64  cw32l010_sysctrl.o(.constdata)
    TAB_RFling                               0x00005cc4   Data          12  sensorless.o(.constdata)
    TAB_BEMFChannel                          0x00005cd0   Data          12  sensorless.o(.constdata)
    RAMP_TABLE                               0x00005cdc   Data          64  sensorlessp.o(.constdata)
    Region$$Table$$Base                      0x00005d1c   Number         0  anon$$obj.o(Region$$Table)
    Region$$Table$$Limit                     0x00005d3c   Number         0  anon$$obj.o(Region$$Table)
    SystemCoreClock                          0x20000000   Data           4  system_cw32l010.o(.data)
    ov                                       0x20000004   Data           4  main.o(.data)
    timex                                    0x20000008   Data           4  main.o(.data)
    hte                                      0x2000000c   Data           4  main.o(.data)
    TimeCountCompuSpeed                      0x20000010   Data           4  global.o(.data)
    TimeCountTemp                            0x20000014   Data           4  global.o(.data)
    TimeCountSTDelay                         0x20000018   Data           4  global.o(.data)
    TimeCountRealSpd                         0x2000001c   Data           4  global.o(.data)
    TimeCountPID                             0x20000020   Data           4  global.o(.data)
    TimeCountAvgSpd                          0x20000024   Data           4  global.o(.data)
    TimeCountVI                              0x20000028   Data           4  global.o(.data)
    TimeCountStartUP                         0x2000002c   Data           4  global.o(.data)
    Timesensor                               0x20000030   Data           4  global.o(.data)
    MOTORSTATE                               0x20000034   Data           1  global.o(.data)
    ErrorCode                                0x20000035   Data           1  global.o(.data)
    Motor_Start_F                            0x20000038   Data           4  global.o(.data)
    Cur_step                                 0x2000003c   Data           4  global.o(.data)
    Dir                                      0x20000040   Data           1  global.o(.data)
    HALLcount                                0x20000044   Data           4  global.o(.data)
    HALLcount1                               0x20000048   Data           4  global.o(.data)
    HALLcountTemp                            0x2000004c   Data           4  global.o(.data)
    TargS1                                   0x20000050   Data           4  global.o(.data)
    RealS1                                   0x20000054   Data           4  global.o(.data)
    RealS                                    0x20000058   Data           4  global.o(.data)
    SetSpeed                                 0x2000005c   Data           4  global.o(.data)
    KKN                                      0x20000060   Data           4  global.o(.data)
    KPWMN                                    0x20000064   Data           4  global.o(.data)
    KKPWM                                    0x20000068   Data           4  global.o(.data)
    OutPwmValue                              0x2000006c   Data           4  global.o(.data)
    SCFlag                                   0x20000070   Data           1  global.o(.data)
    ErrCleFlag                               0x20000071   Data           1  global.o(.data)
    SpeedD                                   0x20000074   Data           4  global.o(.data)
    DIin                                     0x20000078   Data           4  global.o(.data)
    CanshuV                                  0x2000007c   Data           4  global.o(.data)
    CanshuI                                  0x20000080   Data           4  global.o(.data)
    ControlMode                              0x20000084   Data           4  global.o(.data)
    CanshuSPC                                0x20000088   Data           4  global.o(.data)
    CanshuDir                                0x2000008c   Data           4  global.o(.data)
    CanshuSTC                                0x20000090   Data           4  global.o(.data)
    PWMMin                                   0x20000094   Data           4  global.o(.data)
    PWMMax                                   0x20000098   Data           4  global.o(.data)
    MAXOUTP                                  0x2000009c   Data           4  global.o(.data)
    MINOUTP                                  0x200000a0   Data           4  global.o(.data)
    MINOUT                                   0x200000a4   Data           4  global.o(.data)
    MPolePairs                               0x200000a8   Data           4  global.o(.data)
    CanshuTimeDelay                          0x200000ac   Data           4  global.o(.data)
    ISH                                      0x200000b0   Data           4  global.o(.data)
    VSH                                      0x200000b4   Data           4  global.o(.data)
    LSH                                      0x200000b8   Data           4  global.o(.data)
    TImeUP                                   0x200000bc   Data           4  global.o(.data)
    Tonoroff                                 0x200000c0   Data           1  global.o(.data)
    STEP_last                                0x200000c4   Data           4  global.o(.data)
    aa                                       0x200000c8   Data           4  global.o(.data)
    bb                                       0x200000cc   Data           4  global.o(.data)
    aac                                      0x200000d0   Data           4  global.o(.data)
    bbc                                      0x200000d4   Data           4  global.o(.data)
    suma                                     0x200000d8   Data           4  global.o(.data)
    sumb                                     0x200000dc   Data           4  global.o(.data)
    StOk                                     0x200000e4   Data           1  sensorless.o(.data)
    StCountComm                              0x200000e8   Data           4  sensorless.o(.data)
    NumCoun                                  0x200000ec   Data           4  sensorless.o(.data)
    FFlag                                    0x200000f0   Data           1  sensorless.o(.data)
    QDPwm                                    0x200000f1   Data           1  sensorless.o(.data)
    TimeAli                                  0x200000f4   Data           4  sensorless.o(.data)
    StepTime                                 0x200000f8   Data           4  sensorless.o(.data)
    Sta                                      0x200000fc   Data           1  sensorless.o(.data)
    RisingFalling                            0x200000fd   Data           1  sensorless.o(.data)
    BEMFConvertedValue                       0x20000100   Data           4  sensorless.o(.data)
    bHallStartStep1                          0x20000104   Data           4  sensorless.o(.data)
    SampleData                               0x2000010c   Data          12  global.o(.bss)
    __initial_sp                             0x20000318   Data           0  startup_cw32l010.o(STACK)



==============================================================================

Memory Map of the image

  Image Entry point : 0x000000c1

  Load Region LR_IROM1 (Base: 0x00000000, Size: 0x00005e48, Max: 0x00010000, ABSOLUTE)

    Execution Region ER_IROM1 (Exec base: 0x00000000, Load base: 0x00000000, Size: 0x00005d3c, Max: 0x00010000, ABSOLUTE)

    Exec Addr    Load Addr    Size         Type   Attr      Idx    E Section Name        Object

    0x00000000   0x00000000   0x000000c0   Data   RO            3    RESET               startup_cw32l010.o
    0x000000c0   0x000000c0   0x00000000   Code   RO          597  * .ARM.Collect$$$$00000000  mc_p.l(entry.o)
    0x000000c0   0x000000c0   0x00000004   Code   RO          632    .ARM.Collect$$$$00000001  mc_p.l(entry2.o)
    0x000000c4   0x000000c4   0x00000004   Code   RO          635    .ARM.Collect$$$$00000004  mc_p.l(entry5.o)
    0x000000c8   0x000000c8   0x00000000   Code   RO          637    .ARM.Collect$$$$00000008  mc_p.l(entry7b.o)
    0x000000c8   0x000000c8   0x00000000   Code   RO          639    .ARM.Collect$$$$0000000A  mc_p.l(entry8b.o)
    0x000000c8   0x000000c8   0x00000008   Code   RO          640    .ARM.Collect$$$$0000000B  mc_p.l(entry9a.o)
    0x000000d0   0x000000d0   0x00000004   Code   RO          647    .ARM.Collect$$$$0000000E  mc_p.l(entry12b.o)
    0x000000d4   0x000000d4   0x00000000   Code   RO          642    .ARM.Collect$$$$0000000F  mc_p.l(entry10a.o)
    0x000000d4   0x000000d4   0x00000000   Code   RO          644    .ARM.Collect$$$$00000011  mc_p.l(entry11a.o)
    0x000000d4   0x000000d4   0x00000004   Code   RO          633    .ARM.Collect$$$$00002712  mc_p.l(entry2.o)
    0x000000d8   0x000000d8   0x00000028   Code   RO            4    .text               startup_cw32l010.o
    0x00000100   0x00000100   0x000005ac   Code   RO           12    .text               cw32l010_adc.o
    0x000006ac   0x000006ac   0x00001048   Code   RO           80    .text               cw32l010_atim.o
    0x000016f4   0x000016f4   0x00000894   Code   RO          105    .text               cw32l010_btim.o
    0x00001f88   0x00001f88   0x00000174   Code   RO          174    .text               cw32l010_gpio.o
    0x000020fc   0x000020fc   0x00000eac   Code   RO          194    .text               cw32l010_gtim.o
    0x00002fa8   0x00002fa8   0x00000c00   Code   RO          240    .text               cw32l010_sysctrl.o
    0x00003ba8   0x00003ba8   0x0000005c   Code   RO          263    .text               system_cw32l010.o
    0x00003c04   0x00003c04   0x000004a0   Code   RO          289    .text               main.o
    0x000040a4   0x000040a4   0x0000002a   Code   RO          374    .text               interrupts_cw32l010.o
    0x000040ce   0x000040ce   0x00000002   PAD
    0x000040d0   0x000040d0   0x00000414   Code   RO          407    .text               init.o
    0x000044e4   0x000044e4   0x0000021c   Code   RO          462    .text               compu.o
    0x00004700   0x00004700   0x00000498   Code   RO          491    .text               control.o
    0x00004b98   0x00004b98   0x00000368   Code   RO          524    .text               motor.o
    0x00004f00   0x00004f00   0x0000047c   Code   RO          555    .text               sensorless.o
    0x0000537c   0x0000537c   0x0000002c   Code   RO          600    .text               mc_p.l(uidiv.o)
    0x000053a8   0x000053a8   0x00000028   Code   RO          602    .text               mc_p.l(idiv.o)
    0x000053d0   0x000053d0   0x0000004c   Code   RO          604    .text               mc_p.l(ldiv.o)
    0x0000541c   0x0000541c   0x00000024   Code   RO          606    .text               mc_p.l(memseta.o)
    0x00005440   0x00005440   0x000000b2   Code   RO          608    .text               mf_p.l(fadd.o)
    0x000054f2   0x000054f2   0x0000007a   Code   RO          610    .text               mf_p.l(fmul.o)
    0x0000556c   0x0000556c   0x0000007c   Code   RO          612    .text               mf_p.l(fdiv.o)
    0x000055e8   0x000055e8   0x00000168   Code   RO          614    .text               mf_p.l(dadd.o)
    0x00005750   0x00005750   0x000000d0   Code   RO          616    .text               mf_p.l(dmul.o)
    0x00005820   0x00005820   0x000000f0   Code   RO          618    .text               mf_p.l(ddiv.o)
    0x00005910   0x00005910   0x0000000e   Code   RO          620    .text               mf_p.l(ffltui.o)
    0x0000591e   0x0000591e   0x00000002   PAD
    0x00005920   0x00005920   0x00000028   Code   RO          622    .text               mf_p.l(dflti.o)
    0x00005948   0x00005948   0x0000001c   Code   RO          624    .text               mf_p.l(dfltui.o)
    0x00005964   0x00005964   0x00000028   Code   RO          626    .text               mf_p.l(ffixui.o)
    0x0000598c   0x0000598c   0x00000028   Code   RO          628    .text               mf_p.l(f2d.o)
    0x000059b4   0x000059b4   0x00000038   Code   RO          630    .text               mf_p.l(d2f.o)
    0x000059ec   0x000059ec   0x00000060   Code   RO          648    .text               mc_p.l(uldiv.o)
    0x00005a4c   0x00005a4c   0x00000020   Code   RO          650    .text               mc_p.l(llshl.o)
    0x00005a6c   0x00005a6c   0x00000026   Code   RO          652    .text               mc_p.l(llsshr.o)
    0x00005a92   0x00005a92   0x00000000   Code   RO          654    .text               mc_p.l(iusefp.o)
    0x00005a92   0x00005a92   0x00000082   Code   RO          655    .text               mf_p.l(fepilogue.o)
    0x00005b14   0x00005b14   0x000000be   Code   RO          657    .text               mf_p.l(depilogue.o)
    0x00005bd2   0x00005bd2   0x00000002   PAD
    0x00005bd4   0x00005bd4   0x00000024   Code   RO          661    .text               mc_p.l(init.o)
    0x00005bf8   0x00005bf8   0x00000022   Code   RO          663    .text               mc_p.l(llushr.o)
    0x00005c1a   0x00005c1a   0x0000002e   Code   RO          659    i.__ARM_clz         mf_p.l(depilogue.o)
    0x00005c48   0x00005c48   0x0000001c   Code   RO           95    i.__ARM_common_switch8  cw32l010_atim.o
    0x00005c64   0x00005c64   0x0000000e   Code   RO          667    i.__scatterload_copy  mc_p.l(handlers.o)
    0x00005c72   0x00005c72   0x00000002   Code   RO          668    i.__scatterload_null  mc_p.l(handlers.o)
    0x00005c74   0x00005c74   0x0000000e   Code   RO          669    i.__scatterload_zeroinit  mc_p.l(handlers.o)
    0x00005c82   0x00005c82   0x00000002   PAD
    0x00005c84   0x00005c84   0x00000040   Data   RO          241    .constdata          cw32l010_sysctrl.o
    0x00005cc4   0x00005cc4   0x00000018   Data   RO          556    .constdata          sensorless.o
    0x00005cdc   0x00005cdc   0x00000040   Data   RO          585    .constdata          sensorlessp.o
    0x00005d1c   0x00005d1c   0x00000020   Data   RO          665    Region$$Table       anon$$obj.o


    Execution Region RW_IRAM1 (Exec base: 0x20000000, Load base: 0x00005d3c, Size: 0x00000318, Max: 0x00001000, ABSOLUTE)

    Exec Addr    Load Addr    Size         Type   Attr      Idx    E Section Name        Object

    0x20000000   0x00005d3c   0x00000004   Data   RW          264    .data               system_cw32l010.o
    0x20000004   0x00005d40   0x0000000c   Data   RW          290    .data               main.o
    0x20000010   0x00005d4c   0x000000d0   Data   RW          438    .data               global.o
    0x200000e0   0x00005e1c   0x00000003   Data   RW          463    .data               compu.o
    0x200000e3   0x00005e1f   0x00000001   PAD
    0x200000e4   0x00005e20   0x00000025   Data   RW          557    .data               sensorless.o
    0x20000109   0x00005e45   0x00000003   PAD
    0x2000010c        -       0x0000000c   Zero   RW          437    .bss                global.o
    0x20000118        -       0x00000200   Zero   RW            1    STACK               startup_cw32l010.o


==============================================================================

Image component sizes


      Code (inc. data)   RO Data    RW Data    ZI Data      Debug   Object Name

       540         98          0          3          0       1058   compu.o
      1176        112          0          0          0       2345   control.o
      1452         82          0          0          0     137245   cw32l010_adc.o
      4196        108          0          0          0      21859   cw32l010_atim.o
      2196         86          0          0          0      14354   cw32l010_btim.o
       372         10          0          0          0       2883   cw32l010_gpio.o
      3756         92          0          0          0      17810   cw32l010_gtim.o
      3072        140         64          0          0      10990   cw32l010_sysctrl.o
         0          0          0        208         12       2596   global.o
      1044         42          0          0          0       2578   init.o
        42          0          0          0          0       2366   interrupts_cw32l010.o
      1184        168          0         12          0     163752   main.o
       872         72          0          0          0       1701   motor.o
      1148        126         24         37          0       3178   sensorless.o
         0          0         64          0          0       1821   sensorlessp.o
        40         14        192          0        512        712   startup_cw32l010.o
        92         16          0          4          0       1767   system_cw32l010.o

    ----------------------------------------------------------------------
     21184       1166        376        268        524     389015   Object Totals
         0          0         32          0          0          0   (incl. Generated)
         2          0          0          4          0          0   (incl. Padding)

    ----------------------------------------------------------------------

      Code (inc. data)   RO Data    RW Data    ZI Data      Debug   Library Member Name

         0          0          0          0          0          0   entry.o
         0          0          0          0          0          0   entry10a.o
         0          0          0          0          0          0   entry11a.o
         4          0          0          0          0          0   entry12b.o
         8          4          0          0          0          0   entry2.o
         4          0          0          0          0          0   entry5.o
         0          0          0          0          0          0   entry7b.o
         0          0          0          0          0          0   entry8b.o
         8          4          0          0          0          0   entry9a.o
        30          0          0          0          0          0   handlers.o
        40          0          0          0          0         72   idiv.o
        36          8          0          0          0         68   init.o
         0          0          0          0          0          0   iusefp.o
        76          0          0          0          0         76   ldiv.o
        32          0          0          0          0         68   llshl.o
        38          0          0          0          0         68   llsshr.o
        34          0          0          0          0         68   llushr.o
        36          0          0          0          0        100   memseta.o
        44          0          0          0          0         72   uidiv.o
        96          0          0          0          0         84   uldiv.o
        56          0          0          0          0         68   d2f.o
       360          6          0          0          0        140   dadd.o
       240          6          0          0          0         84   ddiv.o
       236          0          0          0          0        216   depilogue.o
        40          6          0          0          0         68   dflti.o
        28          4          0          0          0         68   dfltui.o
       208          6          0          0          0         88   dmul.o
        40          0          0          0          0         60   f2d.o
       178          0          0          0          0        108   fadd.o
       124          0          0          0          0         72   fdiv.o
       130          0          0          0          0        144   fepilogue.o
        40          0          0          0          0         60   ffixui.o
        14          0          0          0          0         68   ffltui.o
       122          0          0          0          0         72   fmul.o

    ----------------------------------------------------------------------
      2308         44          0          0          0       1992   Library Totals
         6          0          0          0          0          0   (incl. Padding)

    ----------------------------------------------------------------------

      Code (inc. data)   RO Data    RW Data    ZI Data      Debug   Library Name

       486         16          0          0          0        676   mc_p.l
      1816         28          0          0          0       1316   mf_p.l

    ----------------------------------------------------------------------
      2308         44          0          0          0       1992   Library Totals

    ----------------------------------------------------------------------

==============================================================================


      Code (inc. data)   RO Data    RW Data    ZI Data      Debug   

     23492       1210        376        268        524     389091   Grand Totals
     23492       1210        376        268        524     389091   ELF Image Totals
     23492       1210        376        268          0          0   ROM Totals

==============================================================================

    Total RO  Size (Code + RO Data)                23868 (  23.31kB)
    Total RW  Size (RW Data + ZI Data)               792 (   0.77kB)
    Total ROM Size (Code + RO Data + RW Data)      24136 (  23.57kB)

==============================================================================

